:020000040800F2
:10000000A04C002025030008FD320008F130000854
:10001000F9320008AD070008753A0008000000003A
:100020000000000000000000000000006502000861
:10003000850D000800000000C10200080B33000815
:100040003F0300083F0300083F0300083F03000888
:100050003F0300083F0300083F0300083F03000878
:100060003F0300083F0300083F0300083F03000868
:10007000950800083F030008A50800083F03000892
:100080003F0300083F0300083F0300081108000871
:10009000F1070008010800083F0300083F030008BB
:1000A0003F0300083F0300083F0300083F03000828
:1000B0003F0300083F0300083F0300083F03000818
:1000C0003F0300083F0300083F0300083F03000808
:1000D0003F0300083F0300083F0300080D380008F5
:1000E0003F0300083F0300083F0300083F030008E8
:1000F0003F0300083F0300083F0300083F030008D8
:100100003F0300083F0300083F0300083F030008C7
:100110003F0300083F0300083F0300083F030008B7
:100120003F0300083F0300083F0300083F030008A7
:100130003F030008000000000000000085080008E0
:1001400065080008750800083F0300083F03000821
:100150003F0300083F0300083F0300083F03000877
:100160003F0300083F0300083F0300083F03000867
:100170003F0300083F0300083F03000800000000A1
:10018000000000003F030008000000000000000025
:100190003F03000800000000000000003F030008CB
:1001A0000000000000000000000000003F03000805
:1001B0003F0300083F0300083F0300083F03000817
:1001C0003F03000800F002F800F03CF80AA090E8B5
:1001D000000C82448344AAF10107DA4501D100F002
:1001E00031F8AFF2090EBAE80F0013F0010F18BF93
:1001F000FB1A43F001031847244B0000444B000056
:10020000103A24BF78C878C1FAD8520724BF30C842
:1002100030C144BF04680C60704700000023002414
:1002200000250026103A28BF78C1FBD8520728BF06
:1002300030C148BF0B6070471FB504F031FD1FBDD2
:1002400010B510BD00F061F91146FFF7F5FF03F09E
:10025000C0FC00F07FF903B4FFF7F2FF03BC00F02D
:1002600087F900002C4B19680868B0E8F04F80F35C
:100270000988BFF36F8F4FF0000080F3118870473B
:100280000000000008480068006880F308884FF00C
:10029000000080F3148862B661B6BFF34F8FBFF3DE
:1002A0006F8F00DF00BF00BF08ED00E0DFF80C003B
:1002B000016841F470010160704700BF88ED00E003
:1002C000EFF30980BFF36F8F134B1A681EF0100F06
:1002D00008BF20ED108A20E9F04F106009B44FF0FC
:1002E000500080F31188BFF34F8FBFF36F8F04F07E
:1002F000FDF94FF0000080F3118809BC1968086807
:10030000B0E8F04F1EF0100F08BFB0EC108A80F379
:100310000988BFF36F8F704720000020EFF305803E
:10032000704700000948804709480047FEE7FEE79C
:10033000FEE7FEE7FEE7FEE7FEE7FEE7FEE7FEE795
:1003400004480549054A064B70470000D5330008AC
:10035000C5010008A0460020A04C0020A0480020B5
:10036000A048002053EA020C00F069802DE9F04B10
:100370004FF00006002B1FBFB3FA83F503FA05F414
:1003800024FA05F65E4012BF1643B2FA82F502FA6D
:1003900005F4C5F120051EBF22FA05FC44EA0C0451
:1003A000203556EA044C4FEA144418BF641C4FF041
:1003B00000084FF00009904271EB030C39D300297B
:1003C00019BFB1FA81F701FA07F6B0FA80F700FA1F
:1003D00007F6C7F120071EBF20FA07FC46EA0C0605
:1003E0002037B6FBF4FCA7EB0507103F07F01F0B07
:1003F000CBF120060CFA0BFB2CFA06F644BFB346F1
:100400000026202FA4BF5E464FF0000B5BEA060CCF
:1004100008BF4FF0010B19EB0B09ABFB027C48EB5B
:100420000608C01B06FB02CC0BFB03CC71EB0C01D6
:10043000C1E70B46024641464846BDE8F08B13B57E
:100440004FF000004FF00001AFF30080BDE81C400A
:10045000704710B5203AC0F00B80B1E81850203A30
:10046000A0E81850B1E81850A0E81850BFF4F5AF54
:100470005FEA027C24BFB1E81850A0E8185044BFDE
:1004800018C918C0BDE810405FEA827C24BF51F84B
:10049000043B40F8043B08BF7047D20728BF31F83F
:1004A000023B48BF11F8012B28BF20F8023B48BF90
:1004B00000F8012B70474FF0000200B51346944638
:1004C0009646203922BFA0E80C50A0E80C50B1F1AC
:1004D0002001BFF4F7AF090728BFA0E80C5048BFC0
:1004E0000CC05DF804EB890028BF40F8042B08BF5E
:1004F000704748BF20F8022B11F0804F18BF00F85A
:10050000012B7047704770477047754600F02CF814
:10051000AE4605006946534620F00700854618B0F0
:1005200020B5FFF70DFFBDE820404FF000064FF06B
:1005300000074FF000084FF0000B21F00701AC4618
:10054000ACE8C009ACE8C009ACE8C009ACE8C00937
:100550008D46704710B50446AFF300802046BDE8D5
:100560001040FFF778BE0000004870473C4600206E
:1005700001491820ABBEFEE72600020070470000CC
:1005800008B540F6C41000900F48B0F94420B0F907
:100590003E1041F288330D4803F07CFB0A49A1F874
:1005A000460040F6C41000900846B0F95020B0F95B
:1005B0004A1041F288330548283003F06BFB0249AA
:1005C000A1F8520008BD0000E443002024430020AD
:1005D0001948B0F9400041F28831884203DD01201A
:1005E000164908700DE01448B0F94000002808DAF8
:1005F0001148B0F9400010F1320F02DD00200F4920
:1006000008700D48B0F94C0041F28831884203DD92
:1006100001200B4908700DE00748B0F94C00002894
:1006200008DA0548B0F94C0010F1320F02DD002065
:100630000349087070470000E44300209000002048
:100640009100002030B52A4B1B89B3F5967F0CDC56
:10065000C41700EB5474E41004EB440505EB0414D8
:1006600025B2244CA4F8445041E0214B1B89B3F53A
:10067000967F16DD1E4B1B89B3F5B47F11DC0B1A78
:100680003C2493FBF4F31A4C24896343062404FBB3
:100690000033052404FB11331CB2164BA3F844406D
:1006A00025E0134B1B89B3F5B47F09DD104B1B8983
:1006B000B3F5C87F04DA0CB20E4BA3F8444016E041
:1006C0000B4B1B8940F20144A3420CD1D41702EB1F
:1006D0005474E41004EB440505EB041425B2054CF6
:1006E000A4F8445003E00024024BA3F8444030BD7A
:1006F00044440020E443002030B52A4B1B89B3F565
:10070000967F0CDCC41700EB5474E41004EB440532
:1007100005EB041425B2244CA4F8505041E0214BC1
:100720001B89B3F5967F16DD1E4B1B89B3F5B47F8D
:1007300011DC0B1A3C2493FBF4F31A4C2489634319
:10074000062404FB0033052404FB11331CB2164BB2
:10075000A3F8504025E0134B1B89B3F5B47F09DDA6
:10076000104B1B89B3F5C87F04DA0CB20E4BA3F80B
:10077000504016E00B4B1B8940F20144A3420CD1C0
:10078000D41702EB5474E41004EB440505EB041495
:1007900025B2054CA4F8505003E00024024BA3F806
:1007A000504030BD54440020E443002000BFFEE729
:1007B00000B58BB000200690079001200890002023
:1007C00001900290039004900590012009900E2062
:1007D0000A9001A9054800F0B5FC0221034800F089
:1007E000F1FB024801F00BFA0BB000BD280300201A
:1007F00010B5024800F0F6FD10BD000028030020EF
:1008000010B5024800F0EEFD10BD000028030020E6
:1008100010B5024800F0E6FD10BD000028030020DE
:1008200000B58BB00E2006900020079001200890A4
:1008300000200190029003900490059001200990FF
:100840000E200A9001A9064800F07CFC0221044811
:1008500000F0B8FB024801F0D2F90BB000BD000077
:100860005003002010B5024800F0BCFD10BD000090
:100870005003002010B5024800F0B4FD10BD000088
:100880005003002010B5024800F0ACFD10BD000080
:100890005003002010B5024801F052FA10BD0000CC
:1008A000BC03002010B5024801F04AFA10BD000058
:1008B0001C040020F0B50446059D0026A068802891
:1008C00003D1400060650120F0BDE648E063E648E2
:1008D0006064E06B08B1606C18B94020606501206D
:1008E000F2E700BF94F83400012801D10220EBE7C1
:1008F000012084F8340000BF94F83500012875D138
:10090000022084F83500002060652068006840F40B
:100910008020276838602068036120684560A068EF
:10092000402804D1206882602068C16003E020680C
:1009300081602068C260CD4F2068B8425DD9CC4F3D
:100940002068B84201D1202053E0C84F483F2068BA
:10095000B84201D120204CE0C54F60372068B84232
:1009600001D1202045E0C14F18372068B84201D19D
:1009700020203EE0BE4F18372068B84201D1C01495
:1009800037E0BA4F303F2068B84201D1C01430E0A0
:10099000B74F78372068B84201D1C01429E0B34F6F
:1009A00030372068B84201D1C01422E0B04F303750
:1009B0002068B84202D14FF400101AE0AB4F183F44
:1009C0002068B84202D14FF4001012E0A84F9037CF
:1009D0002068B84202D14FF400100AE0A34F483714
:1009E0002068B84203D14FF4001002E02CE14FF030
:1009F00000609E4F4C3F38601FE19D4FA837206834
:100A0000B8425CD99A4F2068B84201D1202052E008
:100A1000964F483F2068B84201D120204BE0944FC8
:100A200060372068B84201D1202044E08F4F18374A
:100A30002068B84201D120203DE08D4F1837206852
:100A4000B84201D1C01436E0884F303F2068B84228
:100A500001D1C0142FE0864F78372068B84201D109
:100A6000C01428E0814F30372068B84201D1C0144B
:100A700021E07F4F30372068B84202D14FF4001098
:100A800019E07A4F183F2068B84202D14FF40010A5
:100A900011E0774F90372068B84202D14FF4001030
:100AA00009E0724F48372068B84202D14FF4001075
:100AB00001E04FF000606D4F503F3860BDE06C4F7B
:100AC00048372068B8425CD9694F2068B84201D1E4
:100AD000202052E0654F483F2068B84201D12020D5
:100AE0004BE0634F60372068B84201D1202044E0DA
:100AF0005E4F18372068B84201D120203DE05C4F9E
:100B000018372068B84201D1C01436E0574F303F43
:100B10002068B84201D1C0142FE0554F78372068C3
:100B2000B84201D1C01428E0504F30372068B84295
:100B300001D1C01421E04E4F30372068B84202D1B5
:100B40004FF4001019E0494F183F2068B84202D115
:100B50004FF4001011E0464F90372068B84202D1A0
:100B60004FF4001009E0414F48372068B84202D1E5
:100B70004FF4001001E04FF000603D4F103FF8606F
:100B80005BE03B4F2068B84201D1202052E0374F54
:100B9000483F2068B84201D120204BE0344F6037F5
:100BA0002068B84201D1202044E0304F1837206837
:100BB000B84201D120203DE02D4F18372068B842BF
:100BC00001D1C01436E0294F303F2068B84201D12E
:100BD000C0142FE0264F78372068B84201D1C014E6
:100BE00028E0224F30372068B84201D1C01421E0FC
:100BF0001F4F30372068B84202D14FF4001019E07F
:100C00001A4F183F2068B84202D14FF4001011E08B
:100C1000174F90372068B84202D14FF4001009E016
:100C2000124F48372068B84202D14FF4001001E05B
:100C30004FF000600E4F103FB8602068006840F031
:100C400001002768386005E000BF002084F8340008
:100C500000BF022600BF002084F8340000BF3046E9
:100C600032E60000693B0008913B000858640240EE
:100C7000106002400146087810381823B0FBF3F2E8
:100C80000848805CC865032A05D908686FF3090025
:100C9000001D886503E008686FF309008865886DAA
:100CA00070470000E44C0008014600208A6A8B6906
:100CB000CBB932B1012A0DD0022A03D0032A10D1B8
:100CC0000EE000BFCB6A03F08073B3F1807F00D1E8
:100CD000012007E0CB6AB3F1C07F00D1012001E021
:100CE00000E000BF34E08B69B3F5005F1AD132B188
:100CF000012A07D0022A03D0032A11D10AE000BF3B
:100D000001200EE0CB6A03F08073B3F1807F00D145
:100D1000012006E0CB6AB3F1C07F00D1012000E0E2
:100D200000BF15E032B1012A05D0022A04D0032AFF
:100D30000CD103E000BF00BF012008E0CB6A03F044
:100D40008073B3F1807F00D1012000E000BF00BFBD
:100D50007047000010B504462068006800F01000DD
:100D600010280CD12068C06800F0100038B120466F
:100D700003F0EEFA02480068401C0149086010BD0B
:100D800094000020704772B600BFFEE700F0CEF876
:100D900000BF00F07DF8344CB4F93A30B4F92E209D
:100DA000B4F92210B4F9160002F0AEFE012002F0F0
:100DB00031FF2E48007801281CD12D4800780128E9
:100DC00009D12C48B0F90020B0F90010B0F90000AA
:100DD000FFF738FC13E02648007880B92648B0F9C0
:100DE00000202648B0F900102548B0F90000FFF7B0
:100DF00029FC04E0002211461046FFF723FC21489D
:100E0000007801281CD120480078012809D1194810
:100E1000B0F90020B0F90010B0F90000FFF76CFC49
:100E200013E01948007880B91348B0F9002013483E
:100E3000B0F900101248B0F90000FFF75DFC04E0C3
:100E4000002211461046FFF757FCFFF799FBFFF70A
:100E5000BFFB0E4AB2F95210B2F9460002F028FE6A
:100E6000012002F0D7FE94E79C4300204444002078
:100E7000900000208E0000208C0000208A000020BE
:100E8000880000205444002091000020E44300200A
:100E900008B5E1212348818249420184E12181850D
:100EA0004942018740F6C41000901E48B0F9142052
:100EB000B0F90E1041F288331B4802F0EBFE1949DD
:100EC000C88240F6C41000900846B0F92020B0F95E
:100ED0001A1041F288331448283002F0DBFE114921
:100EE000488440F6C41000900846B0F92C20B0F9B0
:100EF000261041F288330C48503002F0CBFE0949ED
:100F0000C88540F6C41000900846B0F93820B0F902
:100F1000321041F288330448783002F0BBFE0149B8
:100F2000488708BD9C4300209441002010B5B7EECF
:100F3000001ADFED1F0AB2EE0E0A1E4802F000FF93
:100F4000B7EE001ADFED1A0AB2EE0E0A1948283081
:100F500002F0F6FEB7EE001ADFED150AB2EE0E0A49
:100F60001448503002F0ECFEB7EE001ADFED100A24
:100F7000B2EE0E0A0F48783002F0E2FEB7EE001A29
:100F8000DFED0B0AB2EE0E0A0B4802F0D9FEB7EE07
:100F9000001ADFED070AB2EE0E0A0748283002F009
:100FA000CFFE40F20140054908810549088110BD86
:100FB000CDCC4C3F944100202443002044440020E9
:100FC0005444002010B5024692F82030012B01D085
:100FD000022B06D110684069084314686061002044
:100FE00010BD506A40F4802050620120F8E7F0B54F
:100FF00004460D461E4694F8207020688368A86851
:1010000000B900E000BF012F01D0022F7CD103F016
:10101000806030B903F0006018B903F080500028F8
:1010200073D0C3F30161022905D9606A40F400005E
:1010300060620120F0BD012088403060A86860B97E
:10104000B5F800C0E86840EA4C5C206800F5C07064
:1010500000EB0110C0F800C00FE0D5E901C040EA84
:10106000CC00D5F80CC040EA0C00D4F800C00CF558
:10107000C07C0CEB011CCCF80000D5F810C0206837
:1010800000F5C07000EB0110C0F804C0287D0128F5
:101090000ED1206800F5C07000EB0110406840F4EC
:1010A000807C206800F5C07000EB0110C0F804C01F
:1010B000D079000692F806C040EA0C4092F805C0CC
:1010C00040EA0C2C10794CEA000C206800F5C07046
:1010D00000EB0110C0F80CC0D078000692F802C0F6
:1010E00040EA0C4092F801C040EA0C2092F800C09F
:1010F00040EA0C00D4F800C00CF5C07C0CEB011CDD
:10110000CCF80800206801E016E00FE000F5C070A0
:1011100000EB0110006840F0010C206800F5C07081
:1011200000EB0110C0F800C0002083E7606A40F4C3
:101130000010606201207DE7606A40F480206062F8
:10114000012077E7F0B504460A46216894F820505C
:10115000012D01D0022D7ED1424901F500710868B0
:1011600040F001000860086820F47C5008600868BE
:10117000566A40EA06200860107D00F01F06012034
:1011800000FA06F3C8699843C861A1F50071D069F7
:10119000C8B9D1F80C029843C1F80C02908880B20B
:1011A000968940EA064601F51070576940F83760A5
:1011B000108880B2168940EA064601F5107057691A
:1011C00000EBC7004660D069012819D1D1F80C02A4
:1011D0001843C1F80C02908880B2168840EA06468F
:1011E00001F51070576940F83760908980B2168910
:1011F00040EA064601F51070576900EBC7004660EB
:10120000906928B9D1F804029843C1F8040204E0B7
:10121000D1F804021843C1F80402106928B9D1F8C2
:1012200014029843C1F8140204E0D1F814021843E0
:10123000C1F81402106A012804D1D1F81C02184325
:10124000C1F81C02D1F8000220F00100C1F8000230
:101250000020F0BDFFE7606A40F48020606201205A
:10126000F7E7000000640040704770B5044694F84A
:101270002050012D01D0022D7DD151B92068C068C8
:1012800000F0030080B9606A40F400106062012041
:1012900070BD2068006900F0030028B9606A40F45E
:1012A000001060620120F3E7206800F5D87000EBC1
:1012B0000110006800F004009060906840B9206858
:1012C00000F5D87000EB01100068400D106007E0D9
:1012D000206800F5D87000EB01100068C00850606D
:1012E000206800F5D87000EB0110006800F00200E3
:1012F000D060206800F5D87000EB0110406800F065
:101300000F001061206800F5D87000EB01104068F4
:1013100000F47F40000A9061206800F5D87000EB6F
:1013200001104068000C5061206800F5D87000EB97
:10133000011080681870206800F5D87000EB01106B
:10134000806800F47F40000A5870206800F5D8706B
:1013500000EB0110806800F47F00000C987020689A
:1013600000F5D87000EB01108068000ED87020687E
:1013700000F5D87000E02FE000EB0110C068187194
:10138000206800F5D87000EB0110C06800F47F40C1
:10139000000A5871206800F5D87000EB0110C06891
:1013A00000F47F00000C9871206800F5D87000EB05
:1013B0000110C068000ED87131B92068C06840F0D3
:1013C00020002668F06005E02068006940F02000F9
:1013D0002668306100205BE7606A40F4802060622C
:1013E000012055E72DE9F05F044600252068466995
:1013F0002068D0F80490206887682068D0F80CA096
:101400002068D0F810B02068D0F8188006F00100ED
:10141000002855D007F00100C0B101202168886084
:1014200007F0020018B1204600F019FC0EE007F0AA
:10143000040010B145F4006508E007F0080010B1A1
:1014400045F4805502E0204600F008FC07F4807067
:10145000C8B14FF480702168886007F4007018B13B
:10146000204600F0FEFB0EE007F4806010B145F46A
:10147000005508E007F4006010B145F4804502E033
:10148000204600F0EDFB07F48030C8B14FF4803007
:101490002168886007F4003018B1204600F0E3FBB3
:1014A0000EE007F4802010B145F4004508E007F491
:1014B000002010B145F4803502E0204600F0D2FB58
:1014C00006F0080038B10AF0100020B145F40075AC
:1014D00010202168C86006F0040040B10AF008003E
:1014E00028B108202168C860204600F02DFA06F0D7
:1014F000020038B12068C06800F0030010B1204637
:1015000000F024FA06F0400038B10BF0100020B1D2
:1015100045F4806510202168086106F0200040B184
:101520000BF0080028B1082021680861204600F06F
:1015300063FB06F0100038B12068006900F003007A
:1015400010B1204600F059FB06F4003040B109F01C
:10155000100028B1102021684860204600F04EFBA2
:1015600006F4803040B109F0080028B10820216855
:101570004860204600F078FB06F4004088B309F08C
:10158000040078B306F4807020B108F0010008B1BF
:1015900045F0010506F4007020B108F0020008B122
:1015A00045F0020506F4806020B108F0040008B19F
:1015B00045F0040506F40060A0B108F0700088B1A1
:1015C00008F07000402817D006DC10280BD0202827
:1015D0000CD0302819D10CE0502810D0602814D13C
:1015E00010E01DE019E045F008050FE045F010059A
:1015F0000CE045F0200509E045F0400506E045F027
:10160000800503E045F4807500E000BF00BF20685E
:10161000806920F07000216888610420216848609A
:101620002DB1606A284360622046FFF71DFEBDE8C9
:10163000F09F70B504460CB9012070BD94F82000ED
:1016400010B9204600F0B0F82068006840F00100B2
:101650002168086000F002FE05460DE000F0FEFD86
:10166000401B0A2808D9606A40F4003060620520F7
:1016700084F820000120E0E72068406800F00100C5
:101680000028EBD02068006820F002002168086084
:1016900000F0E4FD05460DE000F0E0FD401B0A28E7
:1016A00008D9606A40F400306062052084F82000A8
:1016B0000120C2E72068406800F002000028EBD15A
:1016C000207E012806D12068006840F08000216853
:1016D000086005E02068006820F08000216808604C
:1016E000607E012806D12068006840F04000216833
:1016F000086005E02068006820F04000216808606C
:10170000A07E012806D12068006840F020002168F2
:10171000086005E02068006820F02000216808606B
:10172000E07E012806D12068006820F010002168C2
:10173000086005E02068006840F01000216808603B
:10174000207F012806D12068006840F00800216849
:10175000086005E02068006820F008002168086043
:10176000607F012806D12068006840F004002168ED
:10177000086005E02068006820F004002168086027
:10178000D4E902010843216908436169084361689B
:10179000491E08432168C86100206062012084F866
:1017A0002000002049E7000010B586B0044614214F
:1017B00001A8FEF780FE5F492068884252D15E484A
:1017C0000068401C5C4908600846006801280FD189
:1017D00000BF002000905948006840F00070574951
:1017E00008600846006800F00070009000BF00BF6D
:1017F00000BF0020009051481038006840F00200FF
:101800004E49103908600846006800F00200009058
:1018100000BF00BF4FF440700190022002900020F2
:101820000390032004900920059001A9444800F08A
:101830001DFC00220521132000F0A0FD132000F064
:101840008DFD00220521142000F098FD142000F0E9
:1018500085FD00220521152000F090FD152000F0E7
:101860007DFD65E037492068884261D100BF0020D6
:1018700000903248006840F08060304908600846B7
:10188000006800F08060009000BF00BF2A48006838
:10189000401C294908600846006801280FD100BF94
:1018A000002000902548006840F00070234908603F
:1018B0000846006800F00070009000BF00BF00BF45
:1018C000002000901D481038006840F002001B49BD
:1018D000103908600846006800F00200009000BF60
:1018E00000BF4FF44050019002200290002003906E
:1018F000032004900920059001A9114800F0B6FBCF
:10190000002205213F2000F039FD3F2000F026FD98
:1019100000220521402000F031FD402000F01EFD96
:1019200000220521412000F029FD412000F016FD94
:1019300006B010BD006400400C000020403802409A
:1019400000040240006800407047000010B58AB0F3
:101950000446A149206888427DD101AB03AA002139
:101960002046FFF782FC039853280BD19DF8040012
:101970009A4908709DF80500994908709DF806007D
:10198000984908700398612817D19DF804009DF8C4
:10199000051040EA0120924948809DF806009DF814
:1019A000071040EA01208E4988809DF808009DF8C4
:1019B000091040EA01208A49C880039862280DD1A5
:1019C00087480199C1609DF808009DF8091040EA18
:1019D0000120834908819DF80A00887203986328D2
:1019E00017D19DF804009DF8051040EA01207D49BB
:1019F00048809DF806009DF8071040EA01207949CB
:101A000088809DF808009DF8091040EA012075497A
:101A1000C880039864280DD172480199C1609DF86F
:101A200008009DF8091040EA01206E4908819DF8E0
:101A30000A008872039830281CD19DF805009DF893
:101A4000041040EA012000B2674908809DF80700B1
:101A50009DF8061000E04DE040EA012000B2624926
:101A600048809DF809009DF8081040EA012000B266
:101A70005D4988800398312817D19DF805009DF8AD
:101A8000041040EA012000B2574908819DF8060081
:101A900088729DF807105448C1729DF809009DF89E
:101AA000081040EA0120504988820398322820D14A
:101AB0009DF805009DF8041040EA012000B24A4953
:101AC00088819DF807009DF8061040EA012001B2C8
:101AD0004548C1819DF809009DF8081040EA0120A1
:101AE00001B2414801829DF80A1081749DF80B10E3
:101AF000C17400BF3D49206888426AD101AB03AA86
:101B000000212046FFF7B1FB0398B0F5007F30D9E4
:101B10000398B0F5017F2CD80399C8B29DF8051041
:101B20009DF8042041EA022100EB4002304B23F8EB
:101B300022109DF807109DF8062041EA022109B203
:101B400000EB400203EB820251809DF809109DF8E2
:101B5000082041EA022109B200EB400203EB8202B5
:101B600091809DF80A1000EB400203EB8202D180C5
:101B700000BF0398B0F5017F2AD940F206210398EF
:101B8000884225D80399C8B29DF805109DF8042015
:101B900041EA022100EB4002164B23F822109DF887
:101BA00007109DF8062041EA022109B200EB40022D
:101BB00003EB820251809DF809109DF8082041EA4C
:101BC000022109B200EB400203EB8202918000BFC8
:101BD00000BF0AB010BD0000006400409200002069
:101BE0004444002054440020244600200068004063
:101BF0009C430020E443002070477047704770B555
:101C0000044694F82000012822D1022084F8200004
:101C10002068006820F001002168086000F01EFBC9
:101C200005460DE000F01AFB401B0A2808D9606A3F
:101C300040F400306062052084F82000012070BD6F
:101C40002068406800F001000028EBD16062F6E7F0
:101C5000606A40F4002060620120F0E7704770473E
:101C60007047704770477047704770B50446A56D60
:101C700000F0F4FA064694F83500022808D08020D7
:101C8000606500BF002084F8340000BF012070BDF3
:101C90002068006820F0160021680860206840690C
:101CA00020F0800021684861206C08B9A06C28B140
:101CB0002068006820F0080021680860206800683B
:101CC00020F001002168086010E000F0C7FA801BD6
:101CD00005280BD920206065032084F8350000BF5B
:101CE000002084F8340000BF0320D0E7206800689B
:101CF00000F001000028E8D194F85C103F208840F3
:101D0000A860012084F8350000BF002084F834006A
:101D100000BF00BFBBE7014691F83500022803D0A1
:101D20008020486501207047052081F8350008684B
:101D3000006820F001000A6810600020F3E700004E
:101D4000F8B50446002000908C4800684FF4165106
:101D5000B0FBF1F7A56D2E6894F85C100820884060
:101D6000304098B12068006800F0040070B120682D
:101D7000006820F004002168086094F85C100820D6
:101D80008840A860606D40F00100606594F85C10C8
:101D900001208840304068B12068406900F0800030
:101DA00040B194F85C1001208840A860606D40F05C
:101DB0000200606594F85C1004208840304068B1EF
:101DC0002068006800F0020040B194F85C10042024
:101DD0008840A860606D40F00400606594F85C1075
:101DE00010208840304078B32068006800F0080078
:101DF00050B394F85C1010208840A86020680068F8
:101E000000F4802080B12068006800F4002028B928
:101E1000206CC8B12046216C884715E0A06C98B1B1
:101E20002046A16C88470FE02068006800F48070AD
:101E300028B92068006820F0080021680860206C3C
:101E400010B12046216C884794F85C10202088400F
:101E50003040002865D02068006800F0100000289D
:101E60005FD094F85C1020208840A86094F835007A
:101E7000052828D12068006820F016002168086035
:101E80002068406920F0800021684861206C08B912
:101E9000A06C28B12068006820F008002168086064
:101EA00094F85C103F208840A860012084F8350039
:101EB00000BF002084F8340000BF206D10B1204620
:101EC000216D8847F8BD2068006800F4802080B14B
:101ED0002068006800F4002028B9606C10B120462A
:101EE000616C88471DE0E06BD8B12046E16B884704
:101EF00017E02068006800F4807068B92068006806
:101F000020F0100021680860012084F8350000BF2F
:101F1000002084F8340000BFE06B10B12046E16B74
:101F20008847606D38B3606D00F00100F0B10520A6
:101F300084F835002068006820F0010021680860FE
:101F400000BF0098401C0090B84200D905E020680E
:101F5000006800F001000028F3D100BF012084F8E0
:101F6000350000BF002084F8340000BFE06C10B1E1
:101F70002046E16C884700BFA4E700001C00002059
:101F80002DE9F0410446002500F068F9074614B930
:101F90000120BDE8F081606A00B100BF022084F832
:101FA000350000BF002084F8340000BF20680068BE
:101FB00020F00100216808600AE000F04FF9C01B22
:101FC000052805D920206065032084F83500E0E766
:101FD0002068006800F001000028EED12068056844
:101FE00021480540D4E901010843E168084321691B
:101FF000084361690843A1690843E1690843216A0C
:1020000008430543606A042803D1D4E90B0108435F
:102010000543206805602068456925F00705606A6A
:102020000543606A04280DD1A06A0543E06A48B1FF
:102030002046FEF739FE28B140206065012084F873
:102040003500A6E7206845612046FEF713FE0646E8
:1020500094F85C103F208840B0600020606501204B
:1020600084F83500002094E73F8010F0F8B5024670
:102070000B460025002400200021D1E0012606FAAD
:1020800001F51E6806EA0504AC4274D11E7906F01B
:102090000306012E04D01E7906F00306022E13D18A
:1020A00090684F000326BE40B0434F00DE68BE403C
:1020B00030439060506801268E40B0431E79C6F3CD
:1020C00000168E40304350601E7906F00306032E42
:1020D00009D0D0684F000326BE40B0434F009E6831
:1020E000BE403043D0601E7906F00306022E13D1A5
:1020F000CF0802F1200656F827004E07F70E0F26EC
:10210000BE40B0434F07FF0E1E69BE403043CF08AC
:1021100002F1200646F8270010684F000326BE4053
:10212000B0431E7906F003064F00BE4030431060F6
:102130005E6806F44036002E71D000BF002600967F
:10214000394E366846F48046374F3E603E46366824
:1021500006F48046009600BF00BF344E8F0856F844
:1021600027008E07370F0F26BE40B043304EB242D5
:1021700002D100261FE052E02E4EB24201D10126CC
:1021800019E02D4EB24201D1022614E02B4EB2428C
:1021900001D103260FE02A4EB24201D104260AE003
:1021A000284EB24201D1052605E0274EB24201D1A8
:1021B000062600E007268F073F0FBE4030431B4E28
:1021C0008F0846F82700214E3068A0435E6806F469
:1021D000801606B120431D4E3060361D3068A04386
:1021E0005E6806F4001606B12043184E361D3060B6
:1021F000164E361F3068A0435E6806F4003606B1FE
:102200002043124E361F3060361F3068A0435E6890
:1022100006F4803606B120430C4E083E3060491C5F
:102220001029FFF42BAFF8BD4438024008380140B4
:10223000000002400004024000080240000C02407E
:10224000001002400014024000180240083C014007
:102250000AB1816101E00B048361704701480068A5
:102260007047000010000020034800680349097807
:102270000844014908607047100000201800002041
:1022800010B50D48006840F400700B49086008461E
:10229000006840F4806008600846006840F4807080
:1022A0000860032000F0A8F80F2000F007F800F005
:1022B0002BF8002010BD0000003C024070B5044621
:1022C0000E4800784FF47A71B1FBF0F00C490968C0
:1022D000B1FBF0F5284600F08BFC08B1012070BD81
:1022E000102C07D200222146501E00F047F8054866
:1022F000046001E00120F2E70020F0E71800002070
:102300001C0000201400002008B500BF0020009031
:102310001148006840F480400F4908600846006892
:1023200000F48040009000BF00BF00BF002000907C
:10233000081F006840F08050091F086008460068C8
:1023400000F08050009000BF00BF00220F21901EBF
:1023500000F014F808BD0000443802400146084669
:10236000002809DB00F01F0301229A4043099B006B
:1023700003F1E023C3F8002100BF70472DE9F05FAF
:1023800080460D461646002701F076FB0746394683
:102390002A46334601F00700C0F1070ABAF1040FDC
:1023A00002D94FF0040A01E0C0F1070AD14600F15A
:1023B000040ABAF1070F02D24FF0000A01E0A0F1BF
:1023C000030AD4464FF0010A0AFA09FAAAF1010AEF
:1023D0000AEA020A0AFA0CFA4FF0010B0BFA0CFB9C
:1023E000ABF1010B0BEA030B4AEA0B042146404612
:1023F00001F04AFBBDE8F09F00BF00F00702064B6A
:1024000019684FF6FF031940044B0B4343EA0221BE
:10241000014B196000BF70470CED00E00000FA05A9
:1024200070B504460D460CB9012070BD58480068CF
:1024300000F00F00A84209D255490D700846006807
:1024400000F00F00A84201D00120EEE7207800F054
:10245000020002281DD1207800F00400042805D1D4
:102460004C48006840F4E0504A490860207800F089
:102470000800082805D14748006840F460404549F5
:1024800008604448006820F0F000A1680843414912
:102490000860207800F00100A8B36068012807D127
:1024A0003C4808380068C0F34040B8B90120BCE798
:1024B0006068022802D06068032807D135480838D0
:1024C0000068C0F3406048B90120AEE731480838E1
:1024D0000068C0F3400008B90120A6E72D48006855
:1024E00020F00300616808432A490860FFF7B6FE40
:1024F000064609E0FFF7B2FE801B41F288318842B0
:1025000002D9032091E707E02248006800F00C00A0
:102510006168B0EB810FEDD11D48006800F00F003D
:10252000A84209D91A490D700846006800F00F004A
:10253000A84201D0012078E7207800F004000428A8
:1025400007D11448006820F4E050E16808431149BD
:102550000860207800F00800082808D10D480068BD
:1025600020F46040216940EAC1000A49086000F097
:102570003FF808490968C1F30311074A515CC84094
:102580000649086006480068FFF798FE00204CE7FF
:10259000003C024008380240EC4C00081C000020BF
:1025A0001400002001480068704700001C00002053
:1025B00000B5FFF7F7FF04490968C1F38221034A18
:1025C000515CC84000BD000008380240FC4C0008C7
:1025D00000B5FFF7E7FF04490968C1F34231034A38
:1025E000515CC84000BD000008380240FC4C0008A7
:1025F0002DE9F047002400250026A146A2463F48C9
:10260000006800F00C0030B1042807D0082808D07A
:102610000C286BD138E0DFF8E8A06AE0DFF8E4A02E
:1026200067E03648001F006800F03F043348001F91
:10263000006800F4800078B132483049091F096809
:10264000C1F38811A0FB01700146224600233846E1
:10265000FDF788FE05460DE029482849091F09684D
:10266000C1F38811A0FB0171224600233846FDF713
:1026700079FE05462148001F0068C0F30140401C58
:102680004600B5FBF6FA34E01C48001F006800F075
:102690003F041A48001F006800F4800078B1194810
:1026A0001649091F0968C1F38811A0FB0170014692
:1026B000224600233846FDF755FE05460EE0104839
:1026C0000E49091F0968C1F38811A0FB017001467A
:1026D000224600233846FDF745FE05460748001F01
:1026E0000068C0F30279B5FBF9FA02E0DFF810A048
:1026F00000BF00BF5046BDE8F08700000838024028
:102700000024F400001BB700F8B504460CB9012002
:10271000F8BD207800F0010000286FD0FE48006866
:1027200000F00C0004281BD0FB48006800F00C00EF
:10273000082807D1F848001F006800F48000B0F5B1
:10274000800F0DD0F448006800F00C000C2813D165
:10275000F148001F006800F48000B0F5800F0BD135
:10276000ED4808380068C0F34040002859D0606840
:10277000002856D10120CBE700BF6068B0F5803F4C
:1027800008D1E5480838006840F48030E24908394B
:1027900008601EE06068B0F5A02F0DD1DE48083853
:1027A000006840F48020DC49083908600846006869
:1027B00040F4803008600CE0D7480838006820F406
:1027C0008030D549083908600846006820F4802028
:1027D000086000BF606890B1FFF740FD054606E065
:1027E000FFF73CFD401B642801D9032090E7CA484D
:1027F00008380068C0F340400028F1D011E0FFF72E
:102800002DFD054606E0FFF729FD401B642801D990
:1028100003207DE7C04808380068C0F34040002826
:10282000F1D1207800F0020002286BD1BA4800688C
:1028300000F00C00B8B1B848006800F00C0008289F
:1028400005D1B548001F006800F4800058B1B248B7
:10285000006800F00C000C281CD1AF48001F006875
:1028600000F48000B0B9AC4808380068C0F34000FC
:1028700020B1E068012801D0012049E7A6480838C6
:10288000006820F0F800216940EAC100A249083937
:10289000086037E0E06800B30120A0490860FFF756
:1028A000DDFC054606E0FFF7D9FC401B022801D9F4
:1028B00003202DE7984808380068C0F3400000283E
:1028C000F1D095480838006820F0F800216940EA06
:1028D000C10091490839086014E000208F49086060
:1028E000FFF7BCFC054606E0FFF7B8FC401B0228DA
:1028F00001D903200CE7884808380068C0F340007D
:102900000028F1D1207800F0080008282CD1606957
:10291000A8B1012082490860FFF7A0FC054606E047
:10292000FFF79CFC401B022801D90320F0E67A48FF
:102930006C300068C0F340000028F1D014E00020A3
:1029400077490860FFF78AFC054606E0FFF786FC3A
:10295000401B022801D90320DAE66F486C3000687A
:10296000C0F340000028F1D1207800F004000428D2
:1029700070D1002768483830006800F0805090B966
:1029800000BF0020009064483830006840F080505C
:102990006149383108600846006800F080500090B6
:1029A00000BF00BF01275F48006800F48070B0B925
:1029B0005C48006840F480705A490860FFF74EFC9C
:1029C000054606E0FFF74AFC401B022801D9032018
:1029D0009EE65448006800F480700028F2D000BFE2
:1029E000A068012808D14C486830006840F0010018
:1029F0004949683108601DE0A06805280DD14648A6
:102A00006830006840F004004349683108600846B7
:102A1000006840F0010008600CE03F486830006842
:102A200020F001003C49683108600846006820F049
:102A30000400086000BFA068A8B1FFF70FFC0546BE
:102A400009E0FFF70BFC401B41F28831884202D9B4
:102A500003205DE626E0304868300068C0F340009F
:102A60000028EED013E0FFF7F9FB054608E0FFF77A
:102A7000F5FB401B41F28831884201D9032047E62B
:102A8000254868300068C0F340000028EFD1012FCE
:102A900007D121483830006820F080501E49383175
:102AA000086000BFA069002851D01B48006800F0F2
:102AB0000C00082861D0A069022849D100201749DC
:102AC0000866FFF7CBFB054606E0FFF7C7FB401B98
:102AD000022801D903201BE60F4808380068C0F31C
:102AE00040600028F1D1D4E907010843616A40EA57
:102AF00081110122A06AC2EB500041EA00412C2062
:102B0000005D41EA00613020005D41EA0070024949
:102B1000091F0860012007E0083802400000474212
:102B2000800E4742007000402F490866FFF796FB71
:102B3000054606E0FFF792FB401B022801D903205F
:102B4000E6E52A480068C0F340600028F2D048E07B
:102B5000002025490866FFF781FB054606E0FFF7E0
:102B60007DFB401B022801D90320D1E51F480068E6
:102B7000C0F340600028F2D133E0A069012800D101
:102B8000C6E51A48001D0668A069012827D006F48A
:102B90008001E069814222D106F03F01206A814232
:102BA0001DD147F6C0703040616AB0EB811F16D16D
:102BB00006F440310122A06AC2EB5000B1EB004F95
:102BC0000DD106F070612C20005DB1EB006F06D1D5
:102BD00006F0E0413020005DB1EB007F01D0012024
:102BE00096E5002094E500000000474200380240CE
:102BF00070B504462546681EB0F1807F01D30120E0
:102C00000FE0681E4FF0E02148610F214FF0FF30C8
:102C100000F03AFF00204FF0E021886107200861B2
:102C2000002070BD704770472DE9F84F04462068BA
:102C300005682068C668206847694FF00009CA46E1
:102C400005F00F09B9F1000F0AD105F0200038B1E5
:102C500006F0200020B1204600F016FCBDE8F88FF9
:102C6000B9F1000F7CD007F0010018B906F490709C
:102C7000002875D005F0010030B106F4807018B15D
:102C8000206C40F00100206405F0040030B107F032
:102C9000010018B1206C40F00200206405F0020031
:102CA00030B107F0010018B1206C40F0040020643E
:102CB00005F0080048B106F0200010B907F0010047
:102CC00018B1206C40F008002064206C002846D029
:102CD00005F0200028B106F0200010B1204600F0D9
:102CE000D3FB20684069C0F3801A206C00F0080014
:102CF00010B9BAF1000F2DD0204600F07FFB2068FC
:102D0000406900F04000402820D100BF00BF21688A
:102D1000143151E8001F21F040002168143141E8CE
:102D20000002002AF3D100BFA06B50B17548A16B1F
:102D30000865A06BFEF7EFFF88B1A06B016D8847B7
:102D40000DE02046FFF76FFF09E009E02046FFF79E
:102D50006AFF04E02046FFF766FF002020647DE75D
:102D6000206B012876D105F01000002872D006F003
:102D700010000028FAD000BF0020009020680068F2
:102D8000009020684068009000BF00BF2068406944
:102D900000F0400040285ED1A06B006840681FFA38
:102DA00080F8B8F1000F54D0A08D404551DDA4F853
:102DB0002E80A06BC069B0F5807F43D000BF00BFFC
:102DC00021680C3151E8001F21F4807021680C311A
:102DD00041E80002002AF3D100BF00BF00BF216814
:102DE000143151E8001F21F001002168143141E83D
:102DF0000002002AF3D100BF00BF00BF21681431D8
:102E000051E8001F21F040002168143141E8000220
:102E1000002AF3D100BF202084F83E000020206368
:102E200000BF00BF21680C3151E8001F21F01000E5
:102E300021680C3141E80002002AF3D100BFA06BE9
:102E4000FEF713FFA08DE28D801A81B22046FFF7B6
:102E5000E9FE03E740E0A08DE18D401A1FFA80F8FB
:102E6000E08DC0B3B8F1000F35D000BF00BF2168BE
:102E70000C3151E8001F21F4907021680C3141E8B9
:102E80000002002AF3D100BF00BF00BF2168143147
:102E900051E8001F21F001002168143141E80002CF
:102EA000002AF3D100BF202084F83E0000202063D8
:102EB00000BF00BF21680C3151E8001F21F0100055
:102EC00021680C3141E80002002AF3D100BF4146DD
:102ED0002046FFF7A7FEC1E605F0800030B106F0FE
:102EE000800018B1204600F061FCB7E605F0400014
:102EF00030B106F0400018B1204600F0B5FAADE65A
:102F000000BFABE6E933000810B504460CB9012058
:102F100010BDA06900B100E000BF94F83D0028B9E1
:102F2000002084F83C00204600F028F8242084F893
:102F30003D002068C06820F400502168C860204629
:102F400000F01EFB2068006920F4904021680861B1
:102F50002068406920F02A00216848612068C06824
:102F600040F400502168C86000202064202084F8CC
:102F70003D0084F83E000020CAE7000010B586B08E
:102F80000446142101A8FDF796FA514920688842A9
:102F90007ED100BF002000904E48006840F48020A1
:102FA0004C4908600846006800F48020009000BF8B
:102FB00000BF00BF0020009046481038006840F075
:102FC00004004449103908600846006800F0040015
:102FD000009000BF00BF00BF0020009008460068BE
:102FE00040F0020008600846006800F0020000900F
:102FF00000BF00BF2020019002200290002003901B
:10300000032004900720059001A93348FFF72EF80C
:103010004FF4806001900220029000200390032072
:1030200004900720059001A92C48FFF71FF82C48B1
:103030002C4908604FF000604860002129488160F9
:10304000C1604FF4806101610021416181614FF4F1
:103050008071C1614FF44031016200214162FEF78D
:103060008FFF08B1FDF78FFE00BF1E48A063846389
:1030700000BF1B4830301C4908604FF000604860BA
:103080004021194881600021C1604FF4806100E057
:103090001BE00161002141618161C1614FF4403158
:1030A000016200214162FEF76BFF08B1FDF76BFE84
:1030B00000BF0D486063846300BF00220521272004
:1030C000FFF75CF92720FFF749F906B010BD0000B3
:1030D000004800404038024000080240000402401E
:1030E00028600240BC0300201C0400207047704789
:1030F00000BFFEE710B50E480E4908600320486087
:1031000000210C488160C1604FF4102101614FF42F
:10311000001141610021017641768176C176017707
:103120004177FEF786FA08B1FDF72DFE10BD0000CD
:10313000006400402803002010B50E480E490860C6
:103140000320486000210C488160C1604FF41021C9
:1031500001614FF4001141610021017641768176D1
:10316000C17601774177FEF764FA08B1FDF70BFEEF
:1031700010BD0000006800405003002008B500BFEB
:10318000002000900E48006840F400100C490860D0
:103190000846006800F40010009000BF00BF002245
:1031A00005210C20FFF7EAF80C20FFF7D7F80022E2
:1031B00005210E20FFF7E2F80E20FFF7CFF808BD3B
:1031C0003038024000B58FB01C220C4908A8FDF72A
:1031D00040F9002108A800F02EFD094908601C22D2
:1031E00006491C3101A8FDF734F9002101A800F0BF
:1031F00022FD044908600FB000BD0000AC4C00087F
:10320000000000200400002000B587B0142102A8AF
:10321000FDF751F900BF002001902748006840F0F9
:103220000400254908600846006800F00400019089
:1032300000BF00BF00BF002001900846006840F0BA
:10324000800008600846006800F08000019000BF20
:1032500000BF00BF002001900846006840F0020057
:1032600008600846006800F00200019000BF00BF3F
:1032700000BF002001900846006840F0010008608F
:103280000846006800F00100019000BF00BF012265
:1032900046F211010948FEF7DBFF46F211000290E9
:1032A0000120039004900020059002A90348FEF736
:1032B000DDFE07B000BD00003038024000080240CB
:1032C00010B50A480A4908600A48486000210848C1
:1032D0008160C16001610C21416100218161C16196
:1032E000FFF712FE08B1FDF74EFD10BD004800408B
:1032F00078030020A086010000BFFEE700BFFEE7C4
:1033000000BF012000F086FCFBE710B5FEF7ACFF24
:1033100001F090FB012801D001F0E2FA10BD00009D
:1033200000B593B0342106A8FDF7C5F8142101A813
:10333000FDF7C1F800BF002000902448006840F06D
:103340008050224908600846006800F080500090D4
:1033500000BF00BF00BF002000901D48006840F47F
:1033600040401B4908600846006800F44040009057
:1033700000BF00BF012006900004079002200C90BF
:1033800041050D9106210E91A8210F910221109166
:103390001191129106A8FFF7B7F908B1FDF7F3FCF8
:1033A0000F20019002200290002003904FF4A050C3
:1033B00004904FF480500590052101A8FFF730F8E4
:1033C00008B1FDF7E0FC13B000BD0000403802403A
:1033D000007000400348006840F470000149086034
:1033E0007047000088ED00E070B50546AC6B00202A
:1033F000E085E0842046FFF716FC70BD00BF00BFEB
:1034000002680C3252E8002F22F4907102680C32EC
:1034100042E80013002BF3D100BF00BF00BF0268D9
:10342000143252E8002F22F001010268143242E8FF
:103430000013002BF3D100BF016B01290ED100BF97
:1034400000BF02680C3252E8002F22F0100102681F
:103450000C3242E80013002BF3D100BF202180F88A
:103460003E1000210163704710B504462068C06813
:1034700020F040002168C860202084F83D002046EC
:10348000FFF735FE002010BDF8B5044694F83E0065
:10349000222873D1A068B0F5805F0CD1206950B9A3
:1034A0000025A66A20684068C0F308003080A06A42
:1034B000801CA06215E0A56A0026A068B0F5805FB8
:1034C00003D0A06828B9206918B92068406828701E
:1034D00004E02068406800F07F002870A06A401C6B
:1034E000A062E08D401E80B2E085002844D12068B3
:1034F000C06820F020002168C8602068C06820F4FF
:1035000080702168C8602068406920F0010021684F
:103510004861202084F83E00206B012826D100203D
:10352000206300BF00BF21680C3151E8001F21F06B
:10353000100021680C3141E80002002AF3D100BFDD
:103540002068006800F0100010280AD100BF002099
:10355000009020680068009020684068009000BFDC
:1035600000BFA18D2046FFF75DFB02E02046FFF77C
:10357000BDFD0020F8BD01E00020FBE70220F9E7D7
:103580002DE9F84F04462068006920F44050E168B6
:103590000843216808612169A068084361690843FC
:1035A000E169084300902068C06849F20C618843D3
:1035B000009908432168C8602068406920F4407081
:1035C000A16908432168486176492068884203D090
:1035D00075492068884203D1FEF7FAFF814602E070
:1035E000FEF7E6FF8146E069B0F5004F6CD102209E
:1035F0006168A0FB015003461920A9FB0070014639
:103600002A463846FCF7AEFE6421B0FBF1F04FEAE3
:10361000001A02206168A0FB01510B461920A9FB8A
:1036200000712A463846FCF79DFE834602206168F9
:10363000A0FB015003461920A9FB00712A46384619
:10364000FCF790FE6421B0FBF1F000EBC00101EB50
:103650000010ABEB8000322101EBC0006421B0FB15
:10366000F1F000F0F8000AEB400A02206168A0FBCC
:10367000015003461920A9FB007001462A4638462E
:10368000FCF770FE834602206168A0FB01500346F0
:103690001920A9FB00712A463846FCF763FE642115
:1036A000B0FBF1F000EBC00101EB0010ABEB8000D0
:1036B000322101EBC0006421B0FBF1F000F0070003
:1036C0005044216888606AE004206168A0FB0150D2
:1036D00003461920A9FB007001462A463846FCF72C
:1036E00041FE824604206168A0FB01500346192078
:1036F000A9FB007001462A463846FCF733FE6421D8
:10370000B0FBF1F000EBC00101EB0010AAEB800070
:10371000322101EB00106421B0FBF1F000F0F00A5F
:1037200004206168A0FB017003461920A9FB005129
:103730003A462846FCF716FE6421B0FBF1F00AEB8E
:10374000001A04206168A0FB01510B461920A9FB57
:1037500000712A463846FCF705FE8346042061685E
:10376000A0FB015003461920A9FB007001462A4620
:103770003846FCF7F7FD6421B0FBF1F000EBC00127
:1037800001EB0010ABEB8000322101EB0010642153
:10379000B0FBF1F000F00F00504421688860BDE8F4
:1037A000F88F00000010014000140140014691F81C
:1037B0003D00212828D18868B0F5805F0BD10869C9
:1037C00048B90A6A1088C0F308000B685860086A94
:1037D000801C086205E00B6A581C086218780B68A8
:1037E0005860C88C401E80B2C88458B90868C06848
:1037F00020F080000B68D8600868C06840F0400086
:103800000B68D860002070470220FCE710B5034821
:10381000FDF7A0FA0148FFF707FA10BD7803002072
:1038200008B500BF002000901348006800680090B1
:10383000114800684068009000BF00BF0E48006853
:10384000C06840F010000C490968C8600A48006868
:10385000406940F040000849096848611220064A62
:1038600000901268111D044A044B906BA3F11802DA
:10387000FDF720F808BD0000780300207C440020FC
:103880000178427841EA0221C1F30A01664A1180B7
:103890004178C908827841EA4211C1F30A01624ABB
:1038A000518081788909C27841EA8201027941EA2E
:1038B0008221C1F30A015C4A918001794908427969
:1038C00041EAC211C1F30A01574AD1804179C1F3DB
:1038D00001119172417909118A085349CA7281799B
:1038E000C27941EA022109B24F4A9181017A427AB2
:1038F00041EA02210AB24C49CA81817AC27A41EA7C
:1039000002210AB248490A82027B8A74427BCA7445
:10391000817BC27B41EA0221434A9182017C427C45
:1039200041EA022109B2404A118111460988A1F5F4
:10393000806109B2118011464988A1F5806109B200
:10394000518011468988A1F5806109B291801146A4
:10395000C988A1F5806109B2D18011460989A1F514
:10396000806109B21181817B01F001012F4A118030
:10397000817B01F002012E4A1180817B01F004015C
:103980002C4A1180817B01F008012B4A1180817B38
:1039900001F04001294A1180817B01F08001284A11
:1039A0001180817B01F01001264A1180817B01F09A
:1039B0002001254A11801C49897C244A11701A492A
:1039C000C97C234A11701849898A01F48071214AFF
:1039D00011801549898A01F400711F4A118012492A
:1039E000898A01F480611D4A11800F49898A01F496
:1039F00000611B4A11800C49898A01F48051194ADF
:103A000011800949898A01F40051174A1180064939
:103A1000898A01F48041154A11800349898A01F499
:103A20000041134A11807047244600209A0000206C
:103A30009C0000209E000020A0000020A20000208A
:103A4000A4000020A6000020A8000020AA0000205A
:103A5000AB000020AC000020AE000020B000002031
:103A6000B2000020B4000020B6000020B800002002
:103A7000BA00002000BFFEE702480068C0F3022041
:103A8000704700000CED00E010B5002804DB0A07C9
:103A9000130E054A135406E00A07140E034A00F0F9
:103AA0000F031B1FD45410BD00E400E018ED00E02C
:103AB00030B589B005460C4640F2FF100390002057
:103AC0000590069008200790280A8DF80400E8B2B7
:103AD0008DF80500200A8DF80600E0B28DF8070089
:103AE00000208DF808008DF809008DF80A008DF887
:103AF0000B006B4601AA03A90248FDF778FA09B04A
:103B000030BD000050030020F0B589B007460C46D8
:103B100015461E464FF40070039000200590069055
:103B200008200790380A8DF80400F8B28DF80500D7
:103B3000200A8DF80600E0B28DF80700280A8DF8FB
:103B40000800E8B28DF80900300A8DF80A00F0B2DA
:103B50008DF80B006B4601AA03A90248FDF747FA4E
:103B600009B0F0BD5003002010B504460648806B34
:103B7000A04208D12068006840F400202168086055
:103B80000248FFF77DFE10BD78030020644400204A
:103B900010B504460648806BA04208D12068006832
:103BA00020F40020216808600248FFF769FE10BD7C
:103BB000780300207C44002002468A4201DD0A4648
:103BC00005E04842824201DA4A4200E000BF10B2FA
:103BD0007047FEF755FBFFF7A3FBFFF715FBFFF759
:103BE000CDFAFFF787FAFFF7A7FAFFF769FBFCF7B3
:103BF000DFFDFCF715FEFFF713FEFFF7E3FA00F019
:103C000015F800BFFEE701460020842901D0CA1C38
:103C10001044704770B5044625460DB1294600E0B2
:103C20000121084600F0D4FC002070BD10B500F062
:103C3000FDFC002010BD7FB504460D46606998B1BB
:103C4000A06988B1B4F90800FFF7DDFF0646D4E9A2
:103C50000510CDE9006102902B462269D4E90010DD
:103C600000F08AFE039013E0B4F90800FFF7CBFFE1
:103C7000064603A8CDE90060238A9AB22B46D4E910
:103C8000001000F047FE012802D0002004B070BDF3
:103C90000398FBE7F0B504460D461646059F2582BE
:103CA0006682A384E784E089A081608A218A401A21
:103CB00001B2E181D4ED000AB4F90E0000EE100A61
:103CC000B8EEC00A20EE800ABDEEC00A84ED050AF7
:103CD00094ED060AB8EEC00A94ED011AB4F90E008C
:103CE00000EE900AF8EEE00A01EE200ABDEEC00AEE
:103CF00084ED060AB4F92610A069FFF75DFFA06104
:103D0000B4F90E00B4F90C10401A00EE100AB8EE27
:103D1000C00AD4ED020A20EE200ABDEEC00A84EDEE
:103D2000070AD4E905010844E16908442062B4F9AE
:103D30002410206AFFF740FF2062208C00B2F0BD03
:103D4000002181810022C28180ED000AC0ED010ABC
:103D500080ED021A704700002DE9F04105460E463D
:103D60001C4807681C480068001D00F02DFB50B976
:103D70001948006890F82C100120884017490968FC
:103D8000814316480160681C38B936B11248016891
:103D9000091D134800F062FB1AE07C190E48006808
:103DA0004460BC4207D20C480168091D0D480068F8
:103DB00000F03AFB0CE008480168091D0A48006859
:103DC00000F032FB09480068844201D207480460D1
:103DD000BDE8F081340000202000002038000020E1
:103DE000580500202800002024000020500000205A
:103DF00010B5044600F03EFB23480068401C2249F1
:103E000008602248006840B92048046008460068FD
:103E100001280DD100F03EF90AE01D48006838B9CC
:103E20001A480068C06AE16A884201D817480460ED
:103E300018480068401C1749086094F82C100120AD
:103E4000884015490968084313490860E16A01EB95
:103E50008101124A02EB8100211D00F0FFFA00F0FF
:103E600033FB0B48006868B108480068C06AE16A23
:103E7000884207D24FF0805009490860BFF34F8F46
:103E8000BFF36F8F10BD0000300000202000002025
:103E90003C0000204C000020380000207C04002062
:103EA00004ED00E010B516E000F0E4FA0C48C0683C
:103EB000C468201D00F088FA0A480068401E0949BD
:103EC000086009480068401E0749086000F0FCFAD5
:103ED000204600F00BF8044800680028E4D110BD2B
:103EE00044050020300000202C00002010B50446BE
:103EF00094F8510030B9206B00F004FB204600F02C
:103F000001FB1AE094F85100012803D1204600F08B
:103F1000F9FA12E094F85100022801D1012000E0E2
:103F2000002050B900BF502080F31188BFF34F8F9D
:103F3000BFF36F8F00BF00BFFEE710BD30B54FF479
:103F40007053174800F007042CB1C01D20F0070083
:103F5000134C041B1B1B0246124C22600024114D03
:103F60006C60D018083820F007000F4C2060002447
:103F70000D4D2D686C600C4D2D682C601146441A57
:103F80004C60094C24680C60084D4C682C60084D4E
:103F90004C682C604FF00044064D2C6030BD000092
:103FA0006C0500205C000020640000206C000020F4
:103FB000680000207800002000BFFFF773FF06486C
:103FC00000680128F9D94FF0805004490860BFF318
:103FD0004F8FBFF36F8FF0E77C04002004ED00E00B
:103FE0002DE9FF5F81460E469246DDE90E7B109C6F
:103FF000AAF10100216B01EB800828F0070808F006
:10400000070008B9012000E0002050B900BF50208F
:1040100080F31188BFF34F8FBFF36F8F00BF00BFD6
:10402000FEE786B1002507E0715D04F134004155DB
:10403000705D00B902E06D1C102DF5D300BF0021AA
:104040004320015502E0002084F83400072F00D3FC
:104050000627E76267640020A064201D00F0E1F9F4
:1040600004F1180000F0DDF92461C7F10700A06138
:1040700064620020E06484F8500049464046039A98
:1040800000F050F92060BBF1000F01D0CBF80040E8
:10409000BDE8FF9F10B5002407E004EB84010F4A40
:1040A00002EB810000F0B0F9641C072CF5D30C483A
:1040B00000F0AAF90B4800F0A7F90B4800F0A4F9AA
:1040C0000A4800F0A1F90A4800F09EF9044809499D
:1040D000086004480849086010BD00007C04002006
:1040E000080500201C0500203005002044050020A4
:1040F00058050020240000202800002010B50146AB
:10410000164800E0006803688B42FBD30246436810
:1041100013448B4204D143684C68234443600146F6
:104120000A464B6813440468A34211D10C4C03683F
:104130002468A34208D04B680468646823444B6039
:1041400003681B680B6005E0054B1B680B6001E012
:1041500003680B60884200D0016010BD5C00002045
:10416000640000200A490968096809B9012100E0D2
:10417000002121B14FF0FF31064A116006E00449E9
:104180000968C968C868034A41681160704700003F
:1041900024000020500000200E480068401C08B990
:1041A000012000E0002050B900BF502080F31188AA
:1041B000BFF34F8FBFF36F8F00BF00BFFEE700BF9D
:1041C000502080F31188BFF34F8FBFF36F8F00BF74
:1041D00000BFFEE77C0000202DE9F04104464FF0CF
:1041E000000800F07BFA4948006808B9FFF7A6FE0E
:1041F000474800682040002870D1D4B1083404F04A
:104200000700B0B104F00700C0F10800044404F056
:10421000070008B9012000E0002050B900BF50207D
:1042200080F31188BFF34F8FBFF36F8F00BF00BFC4
:10423000FEE7002C52D03748006884424ED8364EF4
:104240003046056801E02E462D686868A04202D21B
:1042500028680028F7D12D48006885423ED0306894
:1042600000F10808286830606868001B102819D918
:104270002F1907F0070008B9012000E0002050B90D
:1042800000BF502080F31188BFF34F8FBFF36F8FB3
:1042900000BF00BFFEE76868001B78606C603846AE
:1042A000FFF72CFF1B4968680968081A194908605C
:1042B0000846006819490968884203D21548006811
:1042C0001649086012496868096808436860002058
:1042D000286013480068401C1149086000F05EFC2B
:1042E00008F0070008B9012000E0002050B900BF25
:1042F000502080F31188BFF34F8FBFF36F8F00BF43
:1043000000BFFEE74046BDE8F081000064000020E9
:1043100078000020680000205C0000206C00002075
:1043200070000020001F4FF080730360001F21F019
:1043300001030360001F054B036014380260001F77
:104340006FF00203036020387047000099410008B5
:1043500038B5044600BF0020009020680068009037
:1043600020684068009000BF00BF1648844227D1F3
:10437000A06B0068006820F00100A16B096808606C
:10438000A06B00684068C0F1180012280CD1A06B27
:104390000068006800F4002018B1A06B416C8847E9
:1043A00002E0A06BC16B88471820A16B09684860C8
:1043B000A06B0068006840F00100A16B096808600C
:1043C00038BD00007803002001460A69D1E90130B8
:1043D0009860D1E9010358605068884201D188682B
:1043E0005060002008611068401E1060106870471F
:1043F000034B0360034B0B60802313607047000086
:10440000D40000202801002000F1080141604FF095
:10441000FF31816000F10801C1600161002101608C
:10442000704700210161704710B502460B685C1CA3
:104430000CB9106907E002F1080000E04068446828
:1044400024689C42FAD944684C604C68A16088603A
:1044500041600A611468641C146010BD42684A60BF
:1044600093688B60936859609160086103685B1C76
:104470000360704700BF502080F31188BFF34F8F57
:10448000BFF36F8F00BF0E480068401C0C490860E6
:1044900008460068012812D10A480068C0B208B96D
:1044A000012000E0002050B900BF502080F31188A7
:1044B000BFF34F8FBFF36F8F00BF00BFFEE77047A2
:1044C0007C00002004ED00E00D48006850B900BFFA
:1044D000502080F31188BFF34F8FBFF36F8F00BF61
:1044E00000BFFEE706480068401E05490860084610
:1044F000006820B9002080F3118800BF00BF70471A
:104500007C00002070B506463546002E44D0083D9C
:104510002C46224960680968084008B1012000E083
:10452000002050B900BF502080F31188BFF34F8F97
:10453000BFF36F8F00BF00BFFEE7206808B90120FE
:1045400000E0002050B900BF502080F31188BFF375
:104550004F8FBFF36F8F00BF00BFFEE70F4960684A
:1045600009680840C0B12068B0B90C4960680968A2
:104570008843606000F0B2F809496068096808443F
:10458000074908602046FFF7B9FD06480068401C4F
:104590000449086000F002FB70BD000078000020B4
:1045A000680000207400002000204FF0E021086126
:1045B0008861064800684FF47A71B0FBF1F0401E44
:1045C0004FF0E02148610720086170471C0000207F
:1045D00070B504460025D4B11248006808B901201E
:1045E00000E0002050B900BF502080F31188BFF3D5
:1045F0004F8FBFF36F8F00BF00BFFEE700F06EF874
:1046000000212046FFF7A8FB00F0C8FA05463DB997
:104610004FF0805004490860BFF34F8FBFF36F8F96
:1046200070BD00005800002004ED00E010B586B019
:1046300000200590049003AA04A905A8FFF7D8FE5E
:104640000022DDE904101346CDE9002102901CA1EF
:104650001D48039A00F090F91C490860084600685C
:1046600008B1012400E00024012C15D100BF502026
:1046700080F31188BFF34F8FBFF36F8F00BF4FF0F0
:10468000FF301349086001201249086000201249D8
:10469000086000F071F810E0601C08B1012000E033
:1046A000002050B900BF502080F31188BFF34F8F16
:1046B000BFF36F8F00BF00BFFEE706B010BD000064
:1046C00049444C4500000000B93F00085400002058
:1046D000500000203C000020340000200248006808
:1046E000401C014908607047580000201D480068C0
:1046F00018B101201C49086032E000201A49086006
:104700001A480068B0FA80F0C0F11F0101EB810087
:10471000174A52F8200008B1012000E0002050B9EB
:1047200000BF502080F31188BFF34F8FBFF36F8F0E
:1047300000BF00BFFEE701EB81020D4B03EB8200DF
:1047400042685268426000F108024368934202D115
:104750004268526842604268D268064B1A6000BFE5
:10476000704700005800002044000020380000205E
:104770007C040020200000201CB5524800685249EB
:10478000884201D0012000E0002050B900BF502035
:1047900080F31188BFF34F8FBFF36F8F00BF00BF4F
:1047A000FEE7484800684849491E884201D0012078
:1047B00000E0002050B900BF502080F31188BFF303
:1047C0004F8FBFF36F8F00BF00BFFEE73F49084622
:1047D00000780190FF200A4610700846007800908B
:1047E0009DF8000000F0F0009DF80020904201D1FB
:1047F000012000E0002050B900BF502080F3118854
:10480000BFF34F8FBFF36F8F00BF00BFFEE79DF870
:10481000000000F050002E4A107007202D4A106052
:1048200009E02C480068401E2A4A10609DF80000EC
:104830004006000E00909DF8000000F080008028E7
:10484000EFD024480068C0F10700042801D10120FE
:1048500000E0002050B900BF502080F31188BFF362
:104860004F8FBFF36F8F00BF00BFFEE7194800688E
:104870000002184A10601046008800F4E0601060E2
:10488000124A019810700F482030006840F4700000
:104890000C49203108600846006840F0704008600C
:1048A000FFF782FE00200C490860FBF7FFFC0B4875
:1048B000006840F0404009490860FBF7E3FC002035
:1048C0001CBD000000ED00E071C20F4100E400E0FB
:1048D00080000020840000207C00002034EF00E0F5
:1048E00010B500BF502080F31188BFF34F8FBFF386
:1048F0006F8F00BF00F0AEF818B14FF08050044940
:10490000086000BF002080F3118800BF10BD0000C8
:1049100004ED00E02DE9FF4F85B08046894617463B
:10492000DDE912ABB800FFF757FC064656B154203C
:10493000FFF752FC04460CB1266304E03046FFF753
:10494000E1FD00E000248CB1002084F85100CDE9A5
:1049500000ABCDE902403A4649464046089BFFF786
:104960003FFB2046FFF744FA012501E04FF0FF35F9
:10497000284609B0BDE8F08F2DE9F04F85B0074615
:10498000884691469A46DDE90EB6109C0EB101208C
:1049900000E0002050B900BF502080F31188BFF321
:1049A0004F8FBFF36F8F00BF00BFFEE70CB1012038
:1049B00000E0002050B900BF502080F31188BFF301
:1049C0004F8FBFF36F8F00BF00BFFEE754200390EF
:1049D0000398542801D1012000E0002050B900BF05
:1049E000502080F31188BFF34F8FBFF36F8F00BF4C
:1049F00000BFFEE700BFB4B1AEB125462C462E6322
:104A0000022085F85100002004A953464A46CDE90A
:104A100000B1CDE9025041463846FFF7E1FA284699
:104A2000FFF7E6F901E000200490049805B0BDE826
:104A3000F08F00000549096809B9012005E0044923
:104A4000096809B9022000E0002070473C000020FE
:104A5000580000202DE9F0414FF00008444800685C
:104A600000287CD143480068451C4248056015BBBE
:104A700041480068006808B9012000E0002050B9F2
:104A800000BF502080F31188BFF34F8FBFF36F8FAB
:104A900000BF00BFFEE7384807683848006836495D
:104AA00008603648076036480068401C3449086092
:104AB000FFF758FB00BF3348006885423CD300BF76
:104AC0002D480068006808B9012000E0002020B1EE
:104AD0004FF0FF302B4908602DE027480068C06880
:104AE000C4686668B54202D22648066023E0201DED
:104AF000FFF76AFCA06A18B104F11800FFF764FC24
:104B000094F82C10012088401F49096808431E4969
:104B10000860E16A01EB81011C4A02EB8100211D62
:104B2000FFF79CFC1A49E06A0968C96A8842C7D342
:104B30004FF00108C4E700BF15480068C06A00EBE9
:104B40008000124951F82000012801D94FF00108D6
:104B50001048006808B14FF0010805E0FFE70E4873
:104B60000068401C0C4908604046BDE8F081000028
:104B700058000020340000202400002028000020DD
:104B80004800002050000020380000207C04002055
:104B900020000020440000204000002070B50024C8
:104BA00000263648006850B900BF502080F31188B5
:104BB000BFF34F8FBFF36F8F00BF00BFFEE7FFF75C
:104BC00059FC2E480068401E2C49086008460068C1
:104BD00000284FD12A48006800284BD024E02948FB
:104BE000C068C46804F11800FFF7EEFB201DFFF752
:104BF000EBFB94F82C1001208840234909680843F6
:104C000021490860E16A01EB8101204A02EB810041
:104C1000211DFFF723FC1E49E06A0968C96A884222
:104C200002D301201B4908601648006808B901201A
:104C300000E000200028D2D00CB1FFF793FA16480C
:104C4000056865B100BFFFF705FF10B101201149EC
:104C500008606D1E002DF6D100200F4908600D4838
:104C6000006838B1012630070C490860BFF34F8F48
:104C7000BFF36F8FFFF728FC304670BD580000204F
:104C80003000002030050020380000207C04002087
:104C900020000020440000204000002004ED00E03F
:104CA0004FF04070E1EE100A70470000044D00081C
:104CB0000133000800000000000000008000000038
:104CC0000000000000000000104D00088D0D0008DD
:104CD00000000000000000000002000000000000D2
:104CE000000000000006101600061016000000006C
:104CF000000000000102030406070809000000008C
:104D00000102030464656661756C745461736B0021
:104D10004672696374696F6E000000003C4D0008C4
:104D200000000020D400000000020008104E00081F
:104D3000D4000020CC4B00001C0200080000000042
:104D40000000000000000000000000000000000063
:104D500010000000010000000024F400000000002A
:104D60000000000000000000000000000000000043
:104D70000000000000000000000000000000000033
:104D80000000000000000000000000000000000023
:104D90000000000000000000000000000000000013
:104DA0000000000000000000000000000000000003
:104DB0000000000000000000AAAAAAAA000000004B
:104DC000000000006801F00064009CFF000000008B
:104DD00000000000000000000000000000000000D3
:104DE00000000000000000000000000000000000C3
:104DF00000000000000000000000000000000000B3
:104E000000000000000000000000000000000000A2
:04000005080001C529
:00000001FF
