:020000040800F2
:10000000304C002025030008513A00082B37000827
:100010004D3A0008C107000899440008000000009C
:100020000000000000000000000000006502000861
:10003000090E000800000000C10200085F3A000835
:100040003F0300083F0300083F0300083F03000888
:100050003F0300083F0300083F0300083F03000878
:100060003F0300083F0300083F0300083F03000868
:10007000A90800083F030008B90800083F0300086A
:100080003F0300083F0300083F030008250800085D
:1000900005080008150800083F0300083F03000892
:1000A0003F0300083F0300083F0300083F03000828
:1000B0003F0300083F0300083F0300083F03000818
:1000C0003F0300083F0300083F0300083F03000808
:1000D0003F0300080D4200081D420008314200089D
:1000E0003F0300083F0300083F0300083F030008E8
:1000F0003F0300083F0300083F0300083F030008D8
:100100003F0300083F0300083F0300083F030008C7
:100110003F0300083F0300083F0300083F030008B7
:100120003F0300083F0300083F0300083F030008A7
:100130003F030008000000000000000099080008CC
:1001400079080008890800083F0300083F030008F9
:100150003F0300083F0300083F0300083F03000877
:100160003F0300083F0300083F0300083F03000867
:100170003F0300083F0300083F03000800000000A1
:10018000000000003F030008000000000000000025
:100190003F03000800000000000000003F030008CB
:1001A0000000000000000000000000003F03000805
:1001B0003F0300083F0300083F0300083F03000817
:1001C0003F03000800F002F800F03CF80AA090E8B5
:1001D000000C82448344AAF10107DA4501D100F002
:1001E00031F8AFF2090EBAE80F0013F0010F18BF93
:1001F000FB1A43F001031847445B0000645B0000F6
:10020000103A24BF78C878C1FAD8520724BF30C842
:1002100030C144BF04680C60704700000023002414
:1002200000250026103A28BF78C1FBD8520728BF06
:1002300030C148BF0B6070471FB505F02DFD1FBDD5
:1002400010B510BD00F061F91146FFF7F5FF04F09D
:10025000D3F900F07FF903B4FFF7F2FF03BC00F01D
:1002600087F900002C4B19680868B0E8F04F80F35C
:100270000988BFF36F8F4FF0000080F3118870473B
:100280000000000008480068006880F308884FF00C
:10029000000080F3148862B661B6BFF34F8FBFF3DE
:1002A0006F8F00DF00BF00BF08ED00E0DFF80C003B
:1002B000016841F470010160704700BF88ED00E003
:1002C000EFF30980BFF36F8F134B1A681EF0100F06
:1002D00008BF20ED108A20E9F04F106009B44FF0FC
:1002E000500080F31188BFF34F8FBFF36F8F04F07E
:1002F00059FF4FF0000080F3118809BC19680868A5
:10030000B0E8F04F1EF0100F08BFB0EC108A80F379
:100310000988BFF36F8F704724000020EFF305803A
:10032000704700000948804709480047FEE7FEE79C
:10033000FEE7FEE7FEE7FEE7FEE7FEE7FEE7FEE795
:1003400004480549054A064B70470000293B000850
:10035000C501000830460020304C00203048002005
:100360003048002053EA020C00F069802DE9F04B80
:100370004FF00006002B1FBFB3FA83F503FA05F414
:1003800024FA05F65E4012BF1643B2FA82F502FA6D
:1003900005F4C5F120051EBF22FA05FC44EA0C0451
:1003A000203556EA044C4FEA144418BF641C4FF041
:1003B00000084FF00009904271EB030C39D300297B
:1003C00019BFB1FA81F701FA07F6B0FA80F700FA1F
:1003D00007F6C7F120071EBF20FA07FC46EA0C0605
:1003E0002037B6FBF4FCA7EB0507103F07F01F0B07
:1003F000CBF120060CFA0BFB2CFA06F644BFB346F1
:100400000026202FA4BF5E464FF0000B5BEA060CCF
:1004100008BF4FF0010B19EB0B09ABFB027C48EB5B
:100420000608C01B06FB02CC0BFB03CC71EB0C01D6
:10043000C1E70B46024641464846BDE8F08B13B57E
:100440004FF000004FF00001AFF30080BDE81C400A
:10045000704710B5203AC0F00B80B1E81850203A30
:10046000A0E81850B1E81850A0E81850BFF4F5AF54
:100470005FEA027C24BFB1E81850A0E8185044BFDE
:1004800018C918C0BDE810405FEA827C24BF51F84B
:10049000043B40F8043B08BF7047D20728BF31F83F
:1004A000023B48BF11F8012B28BF20F8023B48BF90
:1004B00000F8012B70474FF0000200B51346944638
:1004C0009646203922BFA0E80C50A0E80C50B1F1AC
:1004D0002001BFF4F7AF090728BFA0E80C5048BFC0
:1004E0000CC05DF804EB890028BF40F8042B08BF5E
:1004F000704748BF20F8022B11F0804F18BF00F85A
:10050000012B7047704770477047754600F02CF814
:10051000AE4605006946534620F00700854618B0F0
:1005200020B5FFF70DFFBDE820404FF000064FF06B
:1005300000074FF000084FF0000B21F00701AC4618
:10054000ACE8C009ACE8C009ACE8C009ACE8C00937
:100550008D46704710B50446AFF300802046BDE8D5
:100560001040FFF778BE000000487047CC450020DF
:1005700001491820ABBEFEE72600020070470000CC
:1005800008B54FF48040009010480089404202B204
:100590000E48B0F902104FF480430D4804F0A3F860
:1005A0000A4948814FF4804000900846808A4042C2
:1005B00002B20846B0F90E104FF4804304482830C8
:1005C00004F091F80149C88208BD0000BC43002036
:1005D0003C4300201448B0F904001449884203DA6F
:1005E00001201349087009E00F48B0F9040041F2F6
:1005F0007071884202DD00200D4908700A48B0F988
:1006000010000A49884203DA01200A49087009E00B
:100610000548B0F9100041F27071884202DD0020F7
:100620000449087070470000BC43002090E8FFFFB9
:10063000940000209500002030B52E4B1B89B3F5A7
:10064000967F0ADCC41700EB5474E41004EBC40476
:10065000A40024B2284D2C814AE0264B1B89B3F517
:10066000967F1CDD234B1B89B3F5B47F17DC0C1A76
:100670003C2594FBF5F41F4D2D896C43062505FBA5
:100680000044052505FB1143DC1703EB5474E4100B
:1006900004EBC404A40024B2174D2C8128E0154BB0
:1006A0001B89B3F5B47F0FDD124B1B89B3F5C87FEF
:1006B0000ADACC1701EB5474E41004EBC404A40070
:1006C00024B20D4D2C8113E00A4B1B8940F20144EA
:1006D000A3420AD1D41702EB5474E41004EBC4040F
:1006E000A40024B2044D2C8102E00023024C23819B
:1006F00030BD0000D4430020BC43002030B52E4B59
:100700001B89B3F5967F0ADCC41700EB5474E41020
:1007100004EBC404A40025B2284CA5824AE0264B71
:100720001B89B3F5967F1CDD234B1B89B3F5B47F82
:1007300017DC0C1A3C2594FBF5F41F4D2D896C43F6
:10074000062505FB0044052505FB1143DC1703EBDB
:100750005474E41004EBC404A40025B2174CA58221
:1007600028E0154B1B89B3F5B47F0FDD124B1B89B5
:10077000B3F5C87F0ADACC1701EB5474E41004EB2C
:10078000C404A40025B20D4CA58213E00A4B1B89BA
:1007900040F20144A3420AD1D41702EB5474E4108E
:1007A00004EBC404A40025B2044CA58202E000249A
:1007B000024B9C8230BD0000E4430020BC4300207B
:1007C00000BFFEE700B58BB0002006900790012027
:1007D0000890002001900290039004900590012061
:1007E00009900E200A9001A9054800F06DFD022134
:1007F000034800F0A9FC024801F0BFFA0BB000BDAD
:10080000D003002010B5024800F0AEFE10BD00007D
:10081000D003002010B5024800F0A6FE10BD000075
:10082000D003002010B5024800F09EFE10BD00006D
:10083000D003002000B58BB00E200690002007905A
:1008400001200890002001900290039004900590F0
:10085000012009900E200A9001A9064800F034FDFD
:100860000221044800F070FC024801F086FA0BB047
:1008700000BD0000F803002010B5024800F074FE2F
:1008800010BD0000F803002010B5024800F06CFE17
:1008900010BD0000F803002010B5024800F064FE0F
:1008A00010BD0000F803002010B5024801F006FB5F
:1008B00010BD0000EC04002010B5024801F0FEFA63
:1008C00010BD00004C050020F0B50446059D002633
:1008D000A068802803D1400060650120F0BDE64893
:1008E000E063E6486064E06B08B1606C18B94020D2
:1008F00060650120F2E700BF94F83400012801D1BF
:100900000220EBE7012084F8340000BF94F83500A2
:10091000012875D1022084F8350000206065206828
:10092000006840F4802027683860206803612068F0
:100930004560A068402804D1206882602068C160BA
:1009400003E0206881602068C260CD4F2068B84213
:100950005DD9CC4F2068B84201D1202053E0C84F68
:10096000483F2068B84201D120204CE0C54F603795
:100970002068B84201D1202045E0C14F18372068D7
:10098000B84201D120203EE0BE4F18372068B8425F
:1009900001D1C01437E0BA4F303F2068B84201D1CE
:1009A000C01430E0B74F78372068B84201D1C01486
:1009B00029E0B34F30372068B84201D1C01422E09B
:1009C000B04F30372068B84202D14FF400101AE01F
:1009D000AB4F183F2068B84202D14FF4001012E02C
:1009E000A84F90372068B84202D14FF400100AE0B7
:1009F000A34F48372068B84203D14FF4001002E0FB
:100A00002CE14FF000609E4F4C3F38601FE19D4F3E
:100A1000A8372068B8425CD99A4F2068B84201D103
:100A2000202052E0964F483F2068B84201D1202054
:100A30004BE0944F60372068B84201D1202044E059
:100A40008F4F18372068B84201D120203DE08D4FEC
:100A500018372068B84201D1C01436E0884F303FC3
:100A60002068B84201D1C0142FE0864F7837206843
:100A7000B84201D1C01428E0814F30372068B84215
:100A800001D1C01421E07F4F30372068B84202D135
:100A90004FF4001019E07A4F183F2068B84202D195
:100AA0004FF4001011E0774F90372068B84202D120
:100AB0004FF4001009E0724F48372068B84202D165
:100AC0004FF4001001E04FF000606D4F503F386070
:100AD000BDE06C4F48372068B8425CD9694F206848
:100AE000B84201D1202052E0654F483F2068B8420B
:100AF00001D120204BE0634F60372068B84201D11C
:100B0000202044E05E4F18372068B84201D12020F1
:100B10003DE05C4F18372068B84201D1C01436E080
:100B2000574F303F2068B84201D1C0142FE0554FD5
:100B300078372068B84201D1C01428E0504F3037D0
:100B40002068B84201D1C01421E04E4F30372068F0
:100B5000B84202D14FF4001019E0494F183F206805
:100B6000B84202D14FF4001011E0464F9037206890
:100B7000B84202D14FF4001009E0414F48372068D5
:100B8000B84202D14FF4001001E04FF000603D4F39
:100B9000103FF8605BE03B4F2068B84201D1202055
:100BA00052E0374F483F2068B84201D120204BE047
:100BB000344F60372068B84201D1202044E0304FE4
:100BC00018372068B84201D120203DE02D4F18375A
:100BD0002068B84201D1C01436E0294F303F206868
:100BE000B84201D1C0142FE0264F78372068B842B0
:100BF00001D1C01428E0224F30372068B84201D11B
:100C0000C01421E01F4F30372068B84202D14FF4A2
:100C1000001019E01A4F183F2068B84202D14FF473
:100C2000001011E0174F90372068B84202D14FF4FE
:100C3000001009E0124F48372068B84202D14FF443
:100C4000001001E04FF000600E4F103FB8602068C8
:100C5000006840F001002768386005E000BF002010
:100C600084F8340000BF022600BF002084F834005E
:100C700000BF304632E600008D450008B54500084B
:100C8000586402401060024001460878103818236A
:100C9000B0FBF3F20848805CC865032A05D90868F0
:100CA0006FF30900001D886503E008686FF3090011
:100CB0008865886D70470000005D000801460020CF
:100CC0008A6A8B69CBB932B1012A0DD0022A03D0CE
:100CD000032A10D10EE000BFCB6A03F08073B3F19A
:100CE000807F00D1012007E0CB6AB3F1C07F00D143
:100CF000012001E000E000BF34E08B69B3F5005F44
:100D00001AD132B1012A07D0022A03D0032A11D105
:100D10000AE000BF01200EE0CB6A03F08073B3F15C
:100D2000807F00D1012006E0CB6AB3F1C07F00D103
:100D3000012000E000BF15E032B1012A05D0022AEF
:100D400004D0032A0CD103E000BF00BF012008E05B
:100D5000CB6A03F08073B3F1807F00D1012000E003
:100D600000BF00BF704730B50468246824F48024B5
:100D700005682C60046863608468402C04D10468B2
:100D8000A2600468E16003E00468A1600468E260B6
:100D900030BD000038B504460D492068884215D1A1
:100DA0000C4800680068C0F3001078B100BF002054
:100DB0000090084800680068009006480068406895
:100DC000009000BF00BF204602F082FB38BD00004B
:100DD000004400406404002010B504462068006808
:100DE00000F0100010280CD12068C06800F010003E
:100DF00038B1204604F008F802480068401C014958
:100E0000086010BDD4000020704772B600BFFEE736
:100E100000F04AF900BF03F0C3FF03F0E1FF4648CA
:100E20000088162803D0444800880B2802D100F01F
:100E300099F801E000F0EAF8404CB4F92E30B4F92A
:100E40002220B4F91610B4F90A0003F06FFB012058
:100E500003F009FC3848008816284CD1384800783F
:100E600001281CD137480078012809D13648B0F94B
:100E70000020B0F90010B0F90000FFF7DDFB13E02F
:100E80003048007880B93148B0F900203048B0F9D6
:100E900000103048B0F90000FFF7CEFB04E000225C
:100EA00011461046FFF7C8FB2B48007801281CD1DB
:100EB0002A480078012809D12348B0F90020B0F968
:100EC0000010B0F90000FFF719FC25E02348007876
:100ED00010BB1E48B0F900201D48B0F900101D4895
:100EE000B0F90000FFF70AFC16E000221146104698
:100EF000FFF704FC10E0104800880B2802D103F033
:100F00006FFF09E0002211461046FFF795FB002213
:100F100011461046FFF7F2FBFFF732FBFFF75AFBD3
:100F20000F4AB2F91610B2F90A0003F0D3FA012001
:100F300003F099FB6FE70000960000208C4300202F
:100F4000D443002094000020920000209000002054
:100F50008E0000208C000020E4430020950000203B
:100F6000BC43002008B54EF206602649088141F6D0
:100F7000FA11244881824EF20661018441F6FA1189
:100F800081854FF4804000901E48B0F90820B0F9E8
:100F900002104FF480431C4803F0A5FB1949488117
:100FA0004FF4804000900846B0F91420B0F90E10BC
:100FB0004FF480431448283003F095FB1149C88250
:100FC0004FF4804000900846B0F92020B0F91A1084
:100FD0004FF480430C48503003F085FB09494884A6
:100FE0004FF4804000900846B0F92C20B0F926104C
:100FF0004FF480430448783003F075FB0149C885FD
:1010000008BD00008C4300209C42002008B5002051
:1010100023490881002122488182018481854FF47F
:10102000804000901E48B0F90820B0F902104FF43B
:1010300080431C4803F057FB194948814FF4804016
:1010400000900846B0F91420B0F90E104FF4804318
:101050001448283003F047FB1149C8824FF4804000
:1010600000900846B0F92020B0F91A104FF48043E0
:101070000C48503003F037FB094948844FF4804056
:1010800000900846B0F92C20B0F926104FF48043A8
:101090000448783003F027FB0149C88508BD0000EB
:1010A0008C4300209C42002010B5B7EE001ADFED03
:1010B0001F0A9FED1F0A1F4803F06BFBB7EE001AD3
:1010C000DFED1A0A9FED1A0A1A48283003F061FB77
:1010D000B7EE001ADFED150A9FED150A15485030DE
:1010E00003F057FBB7EE001ADFED100A9FED100A70
:1010F0001048783003F04DFBB6EE001ADFED0E0A13
:10110000B2EE0E0A0D4803F044FBB6EE001ADFED16
:101110000A0AB2EE0E0A0948283003F03AFB40F200
:101120000140074908810749088110BDCDCC4C3FDB
:10113000000020429C4200208FC2F53C3C4300202E
:10114000D4430020E443002010B5024692F820303A
:10115000012B01D0022B06D11068406908431468A6
:101160006061002010BD506A40F480205062012070
:10117000F8E7F0B504460D461E4694F82070206846
:101180008368A86800B900E000BF012F01D0022FDA
:101190007CD103F0806030B903F0006018B903F02F
:1011A0008050002873D0C3F30161022905D9606A19
:1011B00040F4000060620120F0BD012088403060F2
:1011C000A86860B9B5F800C0E86840EA4C5C2068DF
:1011D00000F5C07000EB0110C0F800C00FE0D5E9C9
:1011E00001C040EACC00D5F80CC040EA0C00D4F8AD
:1011F00000C00CF5C07C0CEB011CCCF80000D5F84D
:1012000010C0206800F5C07000EB0110C0F804C0E9
:10121000287D01280ED1206800F5C07000EB011078
:10122000406840F4807C206800F5C07000EB01103D
:10123000C0F804C0D079000692F806C040EA0C401D
:1012400092F805C040EA0C2C10794CEA000C20689A
:1012500000F5C07000EB0110C0F80CC0D07800069B
:1012600092F802C040EA0C4092F801C040EA0C201B
:1012700092F800C040EA0C00D4F800C00CF5C07C25
:101280000CEB011CCCF80800206801E016E00FE030
:1012900000F5C07000EB0110006840F0010C206800
:1012A00000F5C07000EB0110C0F800C0002083E71B
:1012B000606A40F40010606201207DE7606A40F4DB
:1012C00080206062012077E7F0B504460A46216875
:1012D00094F82050012D01D0022D7ED1424901F514
:1012E0000071086840F001000860086820F47C5034
:1012F00008600868566A40EA06200860107D00F021
:101300001F06012000FA06F3C8699843C861A1F5D9
:101310000071D069C8B9D1F80C029843C1F80C0229
:10132000908880B2968940EA064601F510705769A8
:1013300040F83760108880B2168940EA064601F509
:101340001070576900EBC7004660D069012819D1B9
:10135000D1F80C021843C1F80C02908880B21688AC
:1013600040EA064601F51070576940F837609089E9
:1013700080B2168940EA064601F51070576900EB05
:10138000C7004660906928B9D1F804029843C1F8B3
:10139000040204E0D1F804021843C1F80402106901
:1013A00028B9D1F814029843C1F8140204E0D1F826
:1013B00014021843C1F81402106A012804D1D1F8AC
:1013C0001C021843C1F81C02D1F8000220F00100F1
:1013D000C1F800020020F0BDFFE7606A40F4802001
:1013E00060620120F7E7000000640040704770B5BC
:1013F000044694F82050012D01D0022D7DD151B921
:101400002068C06800F0030080B9606A40F40010F2
:101410006062012070BD2068006900F0030028B9F7
:10142000606A40F4001060620120F3E7206800F574
:10143000D87000EB0110006800F004009060906824
:1014400040B9206800F5D87000EB01100068400D2D
:10145000106007E0206800F5D87000EB011000680C
:10146000C0085060206800F5D87000EB01100068DB
:1014700000F00200D060206800F5D87000EB011089
:10148000406800F00F001061206800F5D87000EB94
:101490000110406800F47F40000A9061206800F568
:1014A000D87000EB01104068000C5061206800F516
:1014B000D87000EB011080681870206800F5D870B3
:1014C00000EB0110806800F47F40000A587020682B
:1014D00000F5D87000EB0110806800F47F00000C6C
:1014E0009870206800F5D87000EB01108068000E3D
:1014F000D870206800F5D87000E02FE000EB0110F4
:10150000C0681871206800F5D87000EB0110C06841
:1015100000F47F40000A5871206800F5D87000EB95
:101520000110C06800F47F00000C9871206800F57D
:10153000D87000EB0110C068000ED87131B9206876
:10154000C06840F020002668F06005E0206800696F
:1015500040F020002668306100205BE7606A40F4BC
:1015600080206062012055E72DE9F05F04460025E8
:10157000206846692068D0F8049020688768206851
:10158000D0F80CA02068D0F810B02068D0F81880EF
:1015900006F00100002855D007F00100C0B101207D
:1015A0002168886007F0020018B1204600F015FCA1
:1015B0000EE007F0040010B145F4006508E007F004
:1015C000080010B145F4805502E0204600F004FC0C
:1015D00007F48070C8B14FF480702168886007F408
:1015E000007018B1204600F0FAFB0EE007F48060AE
:1015F00010B145F4005508E007F4006010B145F45F
:10160000804502E0204600F0E9FB07F48030C8B1D5
:101610004FF480302168886007F4003018B120460C
:1016200000F0DFFB0EE007F4802010B145F4004528
:1016300008E007F4002010B145F4803502E02046B0
:1016400000F0CEFB06F0080038B10AF0100020B11F
:1016500045F4007510202168C86006F0040040B110
:101660000AF0080028B108202168C860204600F070
:101670002DFA06F0020038B12068C06800F00300BF
:1016800010B1204600F024FA06F0400038B10BF00B
:10169000100020B145F4806510202168086106F033
:1016A000200040B10BF0080028B108202168086133
:1016B000204600F05FFB06F0100038B1206800699A
:1016C00000F0030010B1204600F055FB06F4003096
:1016D00040B109F0100028B1102021684860204670
:1016E00000F04AFB06F4803040B109F0080028B150
:1016F000082021684860204600F074FB06F4004092
:1017000088B309F0040078B306F4807020B108F0C3
:10171000010008B145F0010506F4007020B108F0A1
:10172000020008B145F0020506F4806020B108F01F
:10173000040008B145F0040506F40060A0B108F00B
:10174000700088B108F07000402817D006DC10281F
:101750000BD020280CD0302819D10CE0502810D004
:10176000602814D110E01DE019E045F008050FE0F5
:1017700045F010050CE045F0200509E045F0400576
:1017800006E045F0800503E045F4807500E000BF09
:1017900000BF2068806920F0700021688861042003
:1017A000216848602DB1606A284360622046FFF7D7
:1017B0001DFEBDE8F09F70B504460CB9012070BD58
:1017C00094F8200010B9204600F0B0F820680068B6
:1017D00040F001002168086000F048FE05460DE079
:1017E00000F044FE401B0A2808D9606A40F400302B
:1017F0006062052084F820000120E0E7206840684E
:1018000000F001000028EBD02068006820F0020002
:101810002168086000F02AFE05460DE000F026FE73
:10182000401B0A2808D9606A40F400306062052035
:1018300084F820000120C2E72068406800F0020020
:101840000028EBD1207E012806D12068006840F0F6
:1018500080002168086005E02068006820F08000B2
:1018600021680860607E012806D12068006840F089
:1018700040002168086005E02068006820F0400012
:1018800021680860A07E012806D12068006840F029
:1018900020002168086005E02068006820F0200032
:1018A00021680860E07E012806D12068006820F0E9
:1018B00010002168086005E02068006840F0100012
:1018C00021680860207F012806D12068006840F068
:1018D00008002168086005E02068006820F0080022
:1018E00021680860607F012806D12068006840F008
:1018F00004002168086005E02068006820F004000A
:1019000021680860D4E9020108432169084361693C
:1019100008436168491E08432168C861002060626D
:10192000012084F82000002049E7000010B586B0AF
:101930000446142101A8FEF7BEFD5F4920688842D5
:1019400052D15E480068401C5C4908600846006847
:1019500001280FD100BF002000905948006840F0D6
:101960000070574908600846006800F00070009059
:1019700000BF00BF00BF0020009051481038006831
:1019800040F002004E49103908600846006800F037
:101990000200009000BF00BF4FF440700190022091
:1019A000029000200390032004900920059001A9D3
:1019B000444800F063FC00220521132000F0E6FDFE
:1019C000132000F0D3FD00220521142000F0DEFDDD
:1019D000142000F0CBFD00220521152000F0D6FDDB
:1019E000152000F0C3FD65E037492068884261D1C9
:1019F00000BF002000903248006840F0806030490D
:101A000008600846006800F08060009000BF00BFDA
:101A10002A480068401C29490860084600680128D7
:101A20000FD100BF002000902548006840F00070F2
:101A3000234908600846006800F00070009000BF6D
:101A400000BF00BF002000901D481038006840F023
:101A500002001B49103908600846006800F00200C7
:101A6000009000BF00BF4FF4405001900220029050
:101A700000200390032004900920059001A911483B
:101A800000F0FCFB002205213F2000F07FFD3F20FD
:101A900000F06CFD00220521402000F077FD402081
:101AA00000F064FD00220521412000F06FFD41207F
:101AB00000F05CFD06B010BD006400401000002086
:101AC00040380240000402400068004070470000B7
:101AD00010B58AB00446A049206888427ED101AB87
:101AE00003AA00212046FFF782FC0398532807D160
:101AF0009DF80400994908709DF805009849087000
:101B00000398612817D19DF804009DF8051040EA5C
:101B10000120924948809DF806009DF8071040EA90
:101B200001208E4988809DF808009DF8091040EA40
:101B300001208A49C880039862280DD187480199FD
:101B4000C1609DF808009DF8091040EA0120834912
:101B500008819DF80A0088720398632817D19DF8C0
:101B600004009DF8051040EA01207D4948809DF859
:101B700006009DF8071040EA0120794988809DF809
:101B800008009DF8091040EA01207549C8800398B3
:101B900064280DD172480199C1609DF808009DF834
:101BA000091040EA01206E4908819DF80A008872F8
:101BB000039830281CD19DF805009DF8041040EAD8
:101BC000012000B2674908809DF807009DF80610C3
:101BD00040EA012000B26349488000E048E09DF8F7
:101BE00009009DF8081040EA012000B25D49888094
:101BF0000398312817D19DF805009DF8041040EA9C
:101C0000012000B2574908819DF8060088729DF8AE
:101C100007105448C1729DF809009DF8081040EA69
:101C20000120504988820398322820D19DF8050070
:101C30009DF8041040EA012000B24A4988819DF8CD
:101C400007009DF8061040EA012001B24548C18115
:101C50009DF809009DF8081040EA012001B24148B2
:101C600001829DF80A1081749DF80B10C17400BFA9
:101C70003D49206888426CD101AB03AA002120466F
:101C8000FFF7B5FB0398B0F5007F31D90398B0F5A5
:101C9000017F2DD80399491EC8B29DF805109DF803
:101CA000042041EA022100EB4002304B23F82210CD
:101CB0009DF807109DF8062041EA022109B200EBC9
:101CC000400203EB820251809DF809109DF8082024
:101CD00041EA022109B200EB400203EB820291804B
:101CE0009DF80A1000EB400203EB8202D18000BF96
:101CF0000398B0F5017F2BD940F206210398884262
:101D000026D80399491FC8B29DF805109DF80420F4
:101D100041EA022100EB4002154B23F822109DF806
:101D200007109DF8062041EA022109B200EB4002AB
:101D300003EB820251809DF809109DF8082041EACA
:101D4000022109B200EB400203EB8202918000BF46
:101D500000BF0AB010BD000000640040D443002062
:101D6000E4430020B4450020006800408C4300207C
:101D7000BC43002070477047704770B5044694F824
:101D80002000012822D1022084F820002068006869
:101D900020F001002168086000F068FB05460DE0B6
:101DA00000F064FB401B0A2808D9606A40F4003048
:101DB0006062052084F82000012070BD2068406822
:101DC00000F001000028EBD16062F6E7606A40F4A1
:101DD000002060620120F0E770477047704770474D
:101DE00070477047704770B50446A56D00F03EFB24
:101DF000064694F83500022808D08020606500BFB0
:101E0000002084F8340000BF012070BD2068006805
:101E100020F01600216808602068406920F08000EA
:101E200021684861206C08B9A06C28B1206800685E
:101E300020F00800216808602068006820F0010098
:101E40002168086010E000F011FB801B05280BD909
:101E500020206065032084F8350000BF002084F84E
:101E6000340000BF0320D0E72068006800F00100C4
:101E70000028E8D194F85C103F208840A860012039
:101E800084F8350000BF002084F8340000BF00BF94
:101E9000BBE7014691F83500022803D08020486551
:101EA00001207047052081F835000868006820F09F
:101EB00001000A6810600020F3E70000F8B504464E
:101EC000002000908C4800684FF41651B0FBF1F7E9
:101ED000A56D2E6894F85C1008208840304098B1B9
:101EE0002068006800F0040070B12068006820F0ED
:101EF00004002168086094F85C1008208840A860FD
:101F0000606D40F00100606594F85C10012088402D
:101F1000304068B12068406900F0800040B194F81A
:101F20005C1001208840A860606D40F00200606590
:101F300094F85C1004208840304068B12068006844
:101F400000F0020040B194F85C1004208840A860C2
:101F5000606D40F00400606594F85C1010208840CB
:101F6000304078B32068006800F0080050B394F85F
:101F70005C1010208840A8602068006800F4802071
:101F800080B12068006800F4002028B9206CC8B136
:101F90002046216C884715E0A06C98B12046A16CC2
:101FA00088470FE02068006800F4807028B9206836
:101FB000006820F0080021680860206C10B12046FD
:101FC000216C884794F85C1020208840304000281D
:101FD00065D02068006800F0100000285FD094F8F9
:101FE0005C1020208840A86094F83500052828D18E
:101FF0002068006820F016002168086020684069A9
:1020000020F0800021684861206C08B9A06C28B1DC
:102010002068006820F008002168086094F85C10CF
:102020003F208840A860012084F8350000BF0020D0
:1020300084F8340000BF206D10B12046216D884720
:10204000F8BD2068006800F4802080B12068006836
:1020500000F4002028B9606C10B12046616C8847FC
:102060001DE0E06BD8B12046E16B884717E020689F
:10207000006800F4807068B92068006820F01000E3
:1020800021680860012084F8350000BF002084F832
:10209000340000BFE06B10B12046E16B8847606DF3
:1020A00038B3606D00F00100F0B1052084F8350010
:1020B0002068006820F001002168086000BF0098D7
:1020C000401C0090B84200D905E02068006800F08C
:1020D00001000028F3D100BF012084F8350000BFC3
:1020E000002084F8340000BFE06C10B12046E16CA1
:1020F000884700BFA4E70000200000202DE9F04140
:102100000446002500F0B2F9074614B90120BDE8E5
:10211000F081606A00B100BF022084F8350000BF82
:10212000002084F8340000BF2068006820F001001F
:10213000216808600AE000F099F9C01B052805D95C
:1021400020206065032084F83500E0E720680068FF
:1021500000F001000028EED1206805682148054004
:10216000D4E901010843E168084321690843616932
:102170000843A1690843E1690843216A084305430C
:10218000606A042803D1D4E90B01084305432068A1
:1021900005602068456925F00705606A0543606AA7
:1021A00004280DD1A06A0543E06A48B12046FEF735
:1021B00085FD28B140206065012084F83500A6E740
:1021C000206845612046FEF75FFD064694F85C10E6
:1021D0003F208840B06000206065012084F8350011
:1021E000002094E73F8010F02DE9F04704460D46AB
:1021F00016461F464FF00008D4F8589000BF94F8D8
:102200003400012802D10220BDE8F087012084F8C3
:10221000340000BF94F83500012825D1022084F84D
:102220003500002060653B46324629462046FEF7D1
:102230009AFD94F85C103F208840C9F80800206897
:10224000006840F0160021680860206C28B1206802
:10225000006840F00800216808602068006840F0CD
:1022600001002168086006E000BF002084F8340007
:1022700000BF4FF002084046C6E70000F8B502462E
:102280000B460025002400200021D1E0012606FA9B
:1022900001F51E6806EA0504AC4274D11E7906F009
:1022A0000306012E04D01E7906F00306022E13D178
:1022B00090684F000326BE40B0434F00DE68BE402A
:1022C00030439060506801268E40B0431E79C6F3BB
:1022D00000168E40304350601E7906F00306032E30
:1022E00009D0D0684F000326BE40B0434F009E681F
:1022F000BE403043D0601E7906F00306022E13D193
:10230000CF0802F1200656F827004E07F70E0F26D9
:10231000BE40B0434F07FF0E1E69BE403043CF089A
:1023200002F1200646F8270010684F000326BE4041
:10233000B0431E7906F003064F00BE4030431060E4
:102340005E6806F44036002E71D000BF002600966D
:10235000394E366846F48046374F3E603E46366812
:1023600006F48046009600BF00BF344E8F0856F832
:1023700027008E07370F0F26BE40B043304EB242C3
:1023800002D100261FE052E02E4EB24201D10126BA
:1023900019E02D4EB24201D1022614E02B4EB2427A
:1023A00001D103260FE02A4EB24201D104260AE0F1
:1023B000284EB24201D1052605E0274EB24201D196
:1023C000062600E007268F073F0FBE4030431B4E16
:1023D0008F0846F82700214E3068A0435E6806F457
:1023E000801606B120431D4E3060361D3068A04374
:1023F0005E6806F4001606B12043184E361D3060A4
:10240000164E361F3068A0435E6806F4003606B1EB
:102410002043124E361F3060361F3068A0435E687E
:1024200006F4803606B120430C4E083E3060491C4D
:102430001029FFF42BAFF8BD4438024008380140A2
:10244000000002400004024000080240000C02406C
:10245000001002400014024000180240083C0140F5
:102460000AB1816101E00B04836170470148006893
:1024700070470000140000200348006803490978F1
:102480000844014908607047140000201C00002027
:1024900010B50D48006840F400700B49086008460C
:1024A000006840F4806008600846006840F480706E
:1024B0000860032000F0A8F80F2000F007F800F0F3
:1024C0002BF8002010BD0000003C024070B504460F
:1024D0000E4800784FF47A71B1FBF0F00C490968AE
:1024E000B1FBF0F5284600F08BFC08B1012070BD6F
:1024F000102C07D200222146501E00F047F8054854
:10250000046001E00120F2E70020F0E71C00002059
:10251000200000201800002008B500BF0020009017
:102520001148006840F480400F4908600846006880
:1025300000F48040009000BF00BF00BF002000906A
:10254000081F006840F08050091F086008460068B6
:1025500000F08050009000BF00BF00220F21901EAD
:1025600000F014F808BD0000443802400146084657
:10257000002809DB00F01F0301229A4043099B0059
:1025800003F1E023C3F8002100BF70472DE9F05F9D
:1025900080460D461646002701F080FF0746394663
:1025A0002A46334601F00700C0F1070ABAF1040FCA
:1025B00002D94FF0040A01E0C0F1070AD14600F148
:1025C000040ABAF1070F02D24FF0000A01E0A0F1AD
:1025D000030AD4464FF0010A0AFA09FAAAF1010ADD
:1025E0000AEA020A0AFA0CFA4FF0010B0BFA0CFB8A
:1025F000ABF1010B0BEA030B4AEA0B042146404600
:1026000001F054FFBDE8F09F00BF00F00702064B49
:1026100019684FF6FF031940044B0B4343EA0221AC
:10262000014B196000BF70470CED00E00000FA0597
:1026300070B504460D460CB9012070BD58480068BD
:1026400000F00F00A84209D255490D7008460068F5
:1026500000F00F00A84201D00120EEE7207800F042
:10266000020002281DD1207800F00400042805D1C2
:102670004C48006840F4E0504A490860207800F077
:102680000800082805D14748006840F460404549E3
:1026900008604448006820F0F000A1680843414900
:1026A0000860207800F00100A8B36068012807D115
:1026B0003C4808380068C0F34040B8B90120BCE786
:1026C0006068022802D06068032807D135480838BE
:1026D0000068C0F3406048B90120AEE731480838CF
:1026E0000068C0F3400008B90120A6E72D48006843
:1026F00020F00300616808432A490860FFF7B6FE2E
:10270000064609E0FFF7B2FE801B41F2883188429D
:1027100002D9032091E707E02248006800F00C008E
:102720006168B0EB810FEDD11D48006800F00F002B
:10273000A84209D91A490D700846006800F00F0038
:10274000A84201D0012078E7207800F00400042896
:1027500007D11448006820F4E050E16808431149AB
:102760000860207800F00800082808D10D480068AB
:1027700020F46040216940EAC1000A49086000F085
:102780003FF808490968C1F30311074A515CC84082
:102790000649086006480068FFF798FE00204CE7ED
:1027A000003C024008380240085D0008200000207C
:1027B0001800002001480068704700002000002039
:1027C00000B5FFF7F7FF04490968C1F38221034A06
:1027D000515CC84000BD000008380240185D000888
:1027E00000B5FFF7E7FF04490968C1F34231034A26
:1027F000515CC84000BD000008380240185D000868
:102800002DE9F047002400250026A146A2463F48B6
:10281000006800F00C0030B1042807D0082808D068
:102820000C286BD138E0DFF8E8A06AE0DFF8E4A01C
:1028300067E03648001F006800F03F043348001F7F
:10284000006800F4800078B132483049091F0968F7
:10285000C1F38811A0FB01700146224600233846CF
:10286000FDF780FD05460DE029482849091F096844
:10287000C1F38811A0FB0171224600233846FDF701
:1028800071FD05462148001F0068C0F30140401C4F
:102890004600B5FBF6FA34E01C48001F006800F063
:1028A0003F041A48001F006800F4800078B11948FE
:1028B0001649091F0968C1F38811A0FB0170014680
:1028C000224600233846FDF74DFD05460EE0104830
:1028D0000E49091F0968C1F38811A0FB0170014668
:1028E000224600233846FDF73DFD05460748001FF8
:1028F0000068C0F30279B5FBF9FA02E0DFF810A036
:1029000000BF00BF5046BDE8F08700000838024015
:102910000024F400001BB700F8B504460CB90120F0
:10292000F8BD207800F0010000286FD0FE48006854
:1029300000F00C0004281BD0FB48006800F00C00DD
:10294000082807D1F848001F006800F48000B0F59F
:10295000800F0DD0F448006800F00C000C2813D153
:10296000F148001F006800F48000B0F5800F0BD123
:10297000ED4808380068C0F34040002859D060682E
:10298000002856D10120CBE700BF6068B0F5803F3A
:1029900008D1E5480838006840F48030E249083939
:1029A00008601EE06068B0F5A02F0DD1DE48083841
:1029B000006840F48020DC49083908600846006857
:1029C00040F4803008600CE0D7480838006820F4F4
:1029D0008030D549083908600846006820F4802016
:1029E000086000BF606890B1FFF740FD054606E053
:1029F000FFF73CFD401B642801D9032090E7CA483B
:102A000008380068C0F340400028F1D011E0FFF71B
:102A10002DFD054606E0FFF729FD401B642801D97E
:102A200003207DE7C04808380068C0F34040002814
:102A3000F1D1207800F0020002286BD1BA4800687A
:102A400000F00C00B8B1B848006800F00C0008288D
:102A500005D1B548001F006800F4800058B1B248A5
:102A6000006800F00C000C281CD1AF48001F006863
:102A700000F48000B0B9AC4808380068C0F34000EA
:102A800020B1E068012801D0012049E7A6480838B4
:102A9000006820F0F800216940EAC100A249083925
:102AA000086037E0E06800B30120A0490860FFF744
:102AB000DDFC054606E0FFF7D9FC401B022801D9E2
:102AC00003202DE7984808380068C0F3400000282C
:102AD000F1D095480838006820F0F800216940EAF4
:102AE000C10091490839086014E000208F4908604E
:102AF000FFF7BCFC054606E0FFF7B8FC401B0228C8
:102B000001D903200CE7884808380068C0F340006A
:102B10000028F1D1207800F0080008282CD1606945
:102B2000A8B1012082490860FFF7A0FC054606E035
:102B3000FFF79CFC401B022801D90320F0E67A48ED
:102B40006C300068C0F340000028F1D014E0002091
:102B500077490860FFF78AFC054606E0FFF786FC28
:102B6000401B022801D90320DAE66F486C30006868
:102B7000C0F340000028F1D1207800F004000428C0
:102B800070D1002768483830006800F0805090B954
:102B900000BF0020009064483830006840F080504A
:102BA0006149383108600846006800F080500090A4
:102BB00000BF00BF01275F48006800F48070B0B913
:102BC0005C48006840F480705A490860FFF74EFC8A
:102BD000054606E0FFF74AFC401B022801D9032006
:102BE0009EE65448006800F480700028F2D000BFD0
:102BF000A068012808D14C486830006840F0010006
:102C00004949683108601DE0A06805280DD1464893
:102C10006830006840F004004349683108600846A5
:102C2000006840F0010008600CE03F486830006830
:102C300020F001003C49683108600846006820F037
:102C40000400086000BFA068A8B1FFF70FFC0546AC
:102C500009E0FFF70BFC401B41F28831884202D9A2
:102C600003205DE626E0304868300068C0F340008D
:102C70000028EED013E0FFF7F9FB054608E0FFF768
:102C8000F5FB401B41F28831884201D9032047E619
:102C9000254868300068C0F340000028EFD1012FBC
:102CA00007D121483830006820F080501E49383163
:102CB000086000BFA069002851D01B48006800F0E0
:102CC0000C00082861D0A069022849D100201749CA
:102CD0000866FFF7CBFB054606E0FFF7C7FB401B86
:102CE000022801D903201BE60F4808380068C0F30A
:102CF00040600028F1D1D4E907010843616A40EA45
:102D000081110122A06AC2EB500041EA00412C204F
:102D1000005D41EA00613020005D41EA0070024937
:102D2000091F0860012007E0083802400000474200
:102D3000800E4742007000402F490866FFF796FB5F
:102D4000054606E0FFF792FB401B022801D903204D
:102D5000E6E52A480068C0F340600028F2D048E069
:102D6000002025490866FFF781FB054606E0FFF7CE
:102D70007DFB401B022801D90320D1E51F480068D4
:102D8000C0F340600028F2D133E0A069012800D1EF
:102D9000C6E51A48001D0668A069012827D006F478
:102DA0008001E069814222D106F03F01206A814220
:102DB0001DD147F6C0703040616AB0EB811F16D15B
:102DC00006F440310122A06AC2EB5000B1EB004F83
:102DD0000DD106F070612C20005DB1EB006F06D1C3
:102DE00006F0E0413020005DB1EB007F01D0012012
:102DF00096E5002094E500000000474200380240BC
:102E000070B504462546681EB0F1807F01D30120CD
:102E10000FE0681E4FF0E02148610F214FF0FF30B6
:102E200001F044FB00204FF0E02188610720086199
:102E3000002070BD704770B50446002520684069C9
:102E4000C0F3C01594F83D00212817D1B5B100BFDB
:102E500000BF2168143151E8001F21F08000216873
:102E6000143141E80002002AF3D100BF606B10B1B9
:102E7000606BFEF7B8FF204600F040FF2068406915
:102E8000C0F3801594F83E00222817D1B5B100BFD9
:102E900000BF2168143151E8001F21F04000216873
:102EA000143141E80002002AF3D100BFA06B10B139
:102EB000A06BFEF798FF204600F0DAFE002070BD00
:102EC000704700002DE9F84F044620680568206827
:102ED000C668206847694FF00009CA4605F00F0927
:102EE000B9F1000F0AD105F0200038B106F020003A
:102EF00020B1204600F015FFBDE8F88FB9F1000FB2
:102F00007CD007F0010018B906F49070002875D045
:102F100005F0010030B106F4807018B1206C40F06B
:102F20000100206405F0040030B107F0010018B181
:102F3000206C40F00200206405F0020030B107F080
:102F4000010018B1206C40F00400206405F0080076
:102F500048B106F0200010B907F0010018B1206C4C
:102F600040F008002064206C002846D005F02000C6
:102F700028B106F0200010B1204600F0D2FE2068F3
:102F80004069C0F3801A206C00F0080010B9BAF153
:102F9000000F2DD0204600F06BFE2068406900F045
:102FA0004000402820D100BF00BF2168143151E803
:102FB000001F21F040002168143141E80002002A7E
:102FC000F3D100BFA06B50B17548A16B0865A06B31
:102FD000FEF75FFF88B1A06B016D88470DE02046CA
:102FE000FFF76EFF09E009E02046FFF769FF04E004
:102FF0002046FFF765FF002020647DE7206B012855
:1030000076D105F01000002872D006F010000028DC
:10301000FAD000BF0020009020680068009020686F
:103020004068009000BF00BF2068406900F0400089
:1030300040285ED1A06B006840681FFA80F8B8F1A4
:10304000000F54D0A08D404551DDA4F82E80A06B18
:10305000C069B0F5807F43D000BF00BF21680C314C
:1030600051E8001F21F4807021680C3141E8000212
:10307000002AF3D100BF00BF00BF2168143151E81E
:10308000001F21F001002168143141E80002002AEC
:10309000F3D100BF00BF00BF2168143151E8001F09
:1030A00021F040002168143141E80002002AF3D1E8
:1030B00000BF202084F83E000020206300BF00BF36
:1030C00021680C3151E8001F21F0100021680C31FB
:1030D00041E80002002AF3D100BFA06BFEF783FE97
:1030E000A08DE28D801A81B22046FFF7A3FE03E790
:1030F00040E0A08DE18D401A1FFA80F8E08DC0B34A
:10310000B8F1000F35D000BF00BF21680C3151E885
:10311000001F21F4907021680C3141E80002002A60
:10312000F3D100BF00BF00BF2168143151E8001F78
:1031300021F001002168143141E80002002AF3D196
:1031400000BF202084F83E000020206300BF00BFA5
:1031500021680C3151E8001F21F0100021680C316A
:1031600041E80002002AF3D100BF41462046FFF7A4
:1031700061FEC1E605F0800030B106F0800018B1B4
:10318000204600F0C9FFB7E605F0400030B106F078
:10319000400018B1204600F0A1FDADE600BFABE64F
:1031A0003D3B000810B504460CB9012010BDA069D4
:1031B00000B100E000BF94F83D0028B9002084F879
:1031C0003C00204600F028F8242084F83D002068C8
:1031D000C06820F400502168C860204600F01EFE40
:1031E0002068006920F490402168086120684069E7
:1031F00020F02A00216848612068C06840F400502F
:103200002168C86000202064202084F83D0084F8F4
:103210003E000020CAE7000010B586B00446142125
:1032200001A8FDF748F98F492068884239D100BFCD
:10323000002000908C48006840F010008A49086027
:103240000846006800F01000009000BF00BF00BFFB
:103250000020009084481438006840F00100824942
:10326000143908600846006800F00100009000BFB3
:1032700000BF4FF4C0600190022002900020039034
:10328000032004900720059001A97848FEF7F6FF77
:10329000002205212520FFF779F92520FFF766F99F
:1032A000DEE07349206888423AD100BF00200090D8
:1032B0006D48001F006840F400306B49091F08602A
:1032C0000846006800F40030009000BF00BF00BF57
:1032D0000020009064481438006840F00100624902
:1032E000143908600846006800F00100009000BF33
:1032F00000BF0C20019002200290002003900320C8
:1033000004900720059001A95848FEF7B7FF002256
:1033100005212620FFF73AF92620FFF727F99FE03D
:10332000544920688842BBD100BF002000904E481D
:10333000001F006840F480204B49091F08600846C0
:10334000006800F48020009000BF00BF00BF002094
:10335000009045481438006840F004004249143990
:1033600008600846006800F00400009000BF00BF3D
:1033700000BF002000900846006840F0020008608E
:103380000846006800F00200009000BF00BF202047
:103390000190022002900020039003200490072057
:1033A000059001A93448FEF769FF4FF48060019051
:1033B0000220029000200390032004900720059033
:1033C00001A92E48FEF75AFF2D482E4908604FF0FC
:1033D0000060486000212B488160C1604FF480612B
:1033E00001610021416181614FF48071C1614FF43D
:1033F0004031016200214162FEF780FE08B1FDF715
:1034000004FD00BF1F48A063846300BF1C48303028
:103410001D4908604FF00060486040211A488160F3
:103420000021C1604FF4806101610021416181612F
:10343000C1614FF44031016200214162FEF75EFE3E
:1034400008B1FDF7E2FC00BF0F486063846300BF72
:10345000002205212720FFF799F82720FFF786F89B
:1034600006B010BD00100140443802400000024088
:1034700000440040004800400008024000040240B0
:1034800028600240EC0400204C05002070B5044682
:103490000D46164694F83E00202816D105B10EB907
:1034A000012070BD00BF94F83C00012801D102202A
:1034B000F7E7012084F83C0000BF0020206332467B
:1034C0002946204600F0C0FDEBE70220E9E70000B6
:1034D00010B52DED068B04465149206888427CD1F9
:1034E0005048FFF7A8FC50480078502876D14E4845
:1034F0004078032872D14C49097B4B4AD27A41EA81
:103500000220C11700EB5141C9134FF4FA6211FBBD
:1035100002F100EE101AB8EEC00A444981ED000A2B
:103520004149897B404A527B41EA0220C11700EBA6
:103530005141C9134FF4FA6211FB02F100EE101A67
:10354000B8EEC00A3A4981ED000A3749097C364A8B
:10355000D27B41EA0220C11700EB5141C9134FF45D
:10356000FA6211FB02F100EE101AB8EEC00A3149FE
:1035700081ED000A2C49897F2B4A527F41EA0220C3
:1035800002F074FA9FED2C0B53EC102B02F016F99D
:103590009FED2B0B53EC102B02F080FA02F0DCF8BD
:1035A00029490860204991F820101F4AD27F41EA3A
:1035B000022002F05BFA9FED200B53EC102B02F07F
:1035C000FDF89FED1F0B53EC102B02F067FA02F091
:1035D000C3F81E490860144901E01EE018E091F8A4
:1035E0002210114A92F8212041EA022002F03EFA0C
:1035F0009FED110B53EC102B02F0E0F89FED100B38
:1036000053EC102B02F04AFA02F0A6F810490860B9
:10361000652205490348FFF739FFBDEC068B10BD55
:10362000004400406404002014010020BC0000207D
:10363000C0000020C4000020000000000000E040A6
:103640000000000000806640C8000020CC00002080
:10365000D000002070472DE9F84F04460E4617466B
:1036600099464FF0000A94F83D0020285AD106B13F
:1036700017B90120BDE8F88F00BF94F83C0001287D
:1036800001D10220F6E7012084F83C0000BF0020B1
:103690002064212084F83D00FEF7E8FE8246A784DE
:1036A000E784A068B0F5805F04D1206910B90025D7
:1036B000B04602E035464FF0000800BF002084F815
:1036C0003C0000BF1BE05346002280212046CDF87D
:1036D000009000F051FD08B10320CBE745B9B8F8E0
:1036E0000000C0F308002168486008F1020803E008
:1036F0002878216848606D1CE08C401EE084E08CD6
:103700000028E0D15346002240212046CDF8009009
:1037100000F032FD08B10320ACE7202084F83D0022
:103720000020A7E70220A5E7704700BFFEE70000E2
:1037300000BF0122D1031148FEF792FE01220821A9
:103740000F48FEF78DFEFF2308220E490E48FFF7B3
:1037500082FF00224FF400410848FEF781FE00225C
:1037600008210748FEF77CFE052000F07CFF0120C1
:1037700000F079FF012000F076FFDAE70008024050
:10378000000402409C0000206404002010B50E4894
:103790000E4908600320486000210C488160C16028
:1037A0004FF4102101614FF40011416100210176B5
:1037B00041768176C17601774177FDF7FCFF08B14C
:1037C000FDF723FB10BD000000640040D003002083
:1037D00010B50E480E4908600320486000210C48CF
:1037E0008160C1604FF4102101614FF4001141610B
:1037F0000021017641768176C17601774177FDF728
:10380000DAFF08B1FDF701FB10BD000000680040C1
:10381000F803002008B500BF002000900E480068A3
:1038200040F400100C4908600846006800F40010DD
:10383000009000BF00BF002205210C20FEF7A6FE6D
:103840000C20FEF793FE002205210E20FEF79EFEBF
:103850000E20FEF78BFE08BD3038024000B595B053
:103860001C2212490EA8FCF7F4FD00210EA800F05E
:103870000BFF0F4908601C220C491C316846FCF7FD
:10388000E8FD0021684600F0FFFE0A4908601C229E
:103890000649383107A8FCF7DCFD002107A800F035
:1038A000F3FE0549086015B000BD0000AC5C0008DF
:1038B00000000020040000200C00002000B587B0AC
:1038C000142102A8FCF7F7FD00BF00200190324848
:1038D000006840F00400304908600846006800F0C5
:1038E0000400019000BF00BF00BF00200190084607
:1038F000006840F0800008600846006800F0800022
:10390000019000BF00BF00BF002001900846006882
:1039100040F0010008600846006800F001000190D6
:1039200000BF00BF00BF002001900846006840F0C3
:10393000020008600846006800F00200019000BF25
:1039400000BF012246F211011448FEF789FD002252
:103950004FF400411148FEF783FD00220821104872
:10396000FEF77EFD4EF211000290012003900490BC
:103970000020059002A90948FEF780FC082002906B
:103980000120039004900020059002A90448FEF74E
:1039900075FC07B000BD000030380240000802404E
:1039A0000004024010B50B480B4908604FF4E130A9
:1039B0004860002108488160C16001610C214161BB
:1039C00000218161C161FFF7EDFB08B1FDF71DFA30
:1039D00010BD0000001001402004002010B50B486D
:1039E0000B4908604FF4E1304860002108488160CD
:1039F000C16001610C21416100218161C161FFF75A
:103A0000D1FB08B1FDF701FA10BD000000440040F1
:103A10006404002010B50A480A4908600A48486052
:103A2000002108488160C16001610C2141610021D1
:103A30008161C161FFF7B6FB08B1FDF7E6F910BD82
:103A400000480040A8040020A086010000BFFEE757
:103A500000BFFEE700BF012000F005FEFBE710B548
:103A6000FEF70AFD01F042FD012801D001F094FCAF
:103A700010BD000000B593B0342106A8FCF71BFD73
:103A8000142101A8FCF717FD00BF00200090244876
:103A9000006840F08050224908600846006800F045
:103AA0008050009000BF00BF00BF002000901D4864
:103AB000006840F440401B4908600846006800F474
:103AC0004040009000BF00BF012006900004079016
:103AD00002200C9041050D9106210E91A8210F9115
:103AE000022110911191129106A8FEF715FF08B15D
:103AF000FDF78BF90F200190022002900020039027
:103B00004FF4A05004904FF480500590052101A877
:103B1000FEF78EFD08B1FDF778F913B000BD000087
:103B200040380240007000400348006840F47000D4
:103B3000014908607047000088ED00E070B5054657
:103B4000AC6B0020E085E0842046FFF7B9F970BD3A
:103B500070B506460025B46B20684069C0F3C015F7
:103B600094F83D00212805D125B10020E0842046AD
:103B700000F0C4F820684069C0F3801594F83E0056
:103B8000222805D125B10020E085204600F070F8FC
:103B9000206C40F0100020642046FFF791F970BDC2
:103BA00070B50546AC6B2868006800F4807000288A
:103BB00042D1E08500BF00BF21680C3151E8001FF1
:103BC00021F4807021680C3141E80002002AF3D111
:103BD00000BF00BF00BF2168143151E8001F21F071
:103BE00001002168143141E80002002AF3D100BF2E
:103BF00000BF00BF2168143151E8001F21F04000D0
:103C00002168143141E80002002AF3D100BF2020CE
:103C100084F83E00206B01280ED100BF00BF216850
:103C20000C3151E8001F21F0100021680C3141E8EF
:103C30000002002AF3D100BF206B012804D1A18D1E
:103C40002046FFF7F7F802E02046FFF741FC70BD81
:103C500070B50546AC6B206B012805D1A08D4108DD
:103C60002046FFF7E7F802E02046FFF7F3FC70BDBF
:103C700000BF00BF02680C3252E8002F22F490719E
:103C800002680C3242E80013002BF3D100BF00BFE2
:103C900000BF0268143252E8002F22F001010268CE
:103CA000143242E80013002BF3D100BF016B01294D
:103CB0000ED100BF00BF02680C3252E8002F22F084
:103CC000100102680C3242E80013002BF3D100BF50
:103CD000202180F83E1000210163704710B5044692
:103CE0002068C06820F040002168C860202084F867
:103CF0003D002046FFF718FD002010BD00BF00BFAB
:103D000002680C3252E8002F22F0C00102680C3227
:103D100042E80013002BF3D100BF202180F83D10B2
:103D20007047F8B5044694F83E00222873D1A06885
:103D3000B0F5805F0CD1206950B90025A66A2068D3
:103D40004068C0F308003080A06A801CA06215E0C3
:103D5000A56A0026A068B0F5805F03D0A06828B9E6
:103D6000206918B920684068287004E0206840681D
:103D700000F07F002870A06A401CA062E08D401E09
:103D800080B2E085002844D12068C06820F020007F
:103D90002168C8602068C06820F480702168C8600D
:103DA0002068406920F0010021684861202084F8E3
:103DB0003E00206B012826D10020206300BF00BFF9
:103DC00021680C3151E8001F21F0100021680C31EE
:103DD00041E80002002AF3D100BF2068006800F02B
:103DE000100010280AD100BF002000902068006851
:103DF000009020684068009000BF00BFA18D204661
:103E0000FFF718F802E02046FFF762FB0020F8BD3C
:103E100001E00020FBE70220F9E700002DE9F84F60
:103E200004462068006920F44050E1680843216896
:103E300008612169A068084361690843E169084392
:103E400000902068C06849F20C61884300990843DB
:103E50002168C8602068406920F44070A169084367
:103E60002168486176492068884203D075492068F6
:103E7000884203D1FEF7B4FC814602E0FEF7A0FCC5
:103E80008146E069B0F5004F6CD102206168A0FB6B
:103E9000015003461920A9FB007001462A46384606
:103EA000FCF760FA6421B0FBF1F04FEA001A02203F
:103EB0006168A0FB01510B461920A9FB00712A463D
:103EC0003846FCF74FFA834602206168A0FB015098
:103ED00003461920A9FB00712A463846FCF742FA2E
:103EE0006421B0FBF1F000EBC00101EB0010ABEB83
:103EF0008000322101EBC0006421B0FBF1F000F042
:103F0000F8000AEB400A02206168A0FB015003465A
:103F10001920A9FB007001462A463846FCF722FA10
:103F2000834602206168A0FB015003461920A9FBCB
:103F300000712A463846FCF715FA6421B0FBF1F00F
:103F400000EBC00101EB0010ABEB8000322101EB74
:103F5000C0006421B0FBF1F000F00700504421687C
:103F600088606AE004206168A0FB015003461920C4
:103F7000A9FB007001462A463846FCF7F3F9824651
:103F800004206168A0FB015003461920A9FB0070C2
:103F900001462A463846FCF7E5F96421B0FBF1F00A
:103FA00000EBC00101EB0010AAEB8000322101EB15
:103FB00000106421B0FBF1F000F0F00A0420616809
:103FC000A0FB017003461920A9FB00513A46284680
:103FD000FCF7C8F96421B0FBF1F00AEB001A0420E9
:103FE0006168A0FB01510B461920A9FB00712A460C
:103FF0003846FCF7B7F9834604206168A0FB0150FE
:1040000003461920A9FB007001462A463846FCF7F2
:10401000A9F96421B0FBF1F000EBC00101EB001045
:10402000ABEB8000322101EB00106421B0FBF1F01A
:1040300000F00F00504421688860BDE8F88F000050
:10404000001001400014014077B581B004461546C8
:104050000298A062A58500202064222084F83E00FA
:104060002A48A16BC8632A48A16B08642948A16B40
:10407000C8640020A16B086502AE32682368191D70
:104080002B46A06BFEF7B0F800BF00200090206820
:104090000068009020684068009000BF00BF00BF2B
:1040A000002084F83C0000BF206970B100BF00BF51
:1040B00021680C3151E8001F41F4807021680C31F7
:1040C00041E80002002AF3D100BF00BF00BF216811
:1040D000143151E8001F41F001002168143141E81A
:1040E0000002002AF3D100BF00BF00BF21681431D5
:1040F00051E8001F41F040002168143141E80002FE
:10410000002AF3D100BF002004B070BDA13B00081D
:10411000513C0008513B0008014691F83D00212820
:1041200028D18868B0F5805F0BD1086948B90A6A60
:104130001088C0F308000B685860086A801C086289
:1041400005E00B6A581C086218780B685860C88C28
:10415000401E80B2C88458B90868C06820F080004A
:104160000B68D8600868C06840F040000B68D860F1
:10417000002070470220FCE72DE9F04104460D467F
:1041800017469846069E34E0701C88B32EB1FEF7A1
:104190006DF9A0EB0800B0422BD900BF00BF216829
:1041A0000C3151E8001F21F4D07021680C3141E836
:1041B0000002002AF3D100BF00BF00BF2168143104
:1041C00051E8001F21F001002168143141E800028C
:1041D000002AF3D100BF202084F83D0084F83E007F
:1041E00000BF002084F83C0000BF0320BDE8F08140
:1041F000FFE7206800682840A84201D1012000E0C4
:104200000020B842C0D00020F0E7000010B50248FE
:10421000FEF758FE10BD00002004002010B5034832
:10422000FCF7B8FD0148FEF74DFE10BD6404002008
:1042300010B50348FCF7D0FD0148FEF743FE10BD62
:10424000A804002008B500BF0020009013480068B3
:1042500000680090114800684068009000BF00BFEF
:104260000E480068C06840F010000C490968C8603A
:104270000A480068406940F0400008490968486100
:104280001220064A00901268111D044A044B906BDC
:10429000A3F11802FCF718FB08BD0000A8040020D9
:1042A0000C4400200178427841EA0221C1F30A015E
:1042B000664A11804178C908827841EA4211C1F307
:1042C0000A01624A518081788909C27841EA8201F3
:1042D000027941EA8221C1F30A015C4A91800179A5
:1042E0004908427941EAC211C1F30A01574AD18013
:1042F0004179C1F301119172417909118A08534939
:10430000CA728179C27941EA022109B24F4A918188
:10431000017A427A41EA02210AB24C49CA81817A81
:10432000C27A41EA02210AB248490A82027B8A74AF
:10433000427BCA74817BC27B41EA0221434A91825B
:10434000017C427C41EA022109B2404A11811146B6
:104350000988A1F5806109B2118011464988A1F54B
:10436000806109B2518011468988A1F5806109B246
:1043700091801146C988A1F5806109B2D1801146AA
:104380000989A1F5806109B21181817B01F00101E8
:104390002F4A1180817B01F002012E4A1180817B1E
:1043A00001F004012C4A1180817B01F008012B4AA5
:1043B0001180817B01F04001294A1180817B01F04D
:1043C0008001284A1180817B01F01001264A11806A
:1043D000817B01F02001254A11801C49897C244AF7
:1043E00011701A49C97C234A11701849898A01F44D
:1043F0008071214A11801549898A01F400711F4A90
:1044000011801249898A01F480611D4A11800F4987
:10441000898A01F400611B4A11800C49898A01F4E0
:104420008051194A11800949898A01F40051174ABB
:1044300011800649898A01F48041154A1180034997
:10444000898A01F40041134A11807047B445002065
:10445000DA000020DC000020DE000020E000002068
:10446000E2000020E4000020E6000020E800002038
:10447000EA000020EB000020EC000020EE0000200D
:10448000F0000020F2000020F4000020F6000020E0
:10449000F8000020FA00002000BFFEE70248006894
:1044A000C0F30220704700000CED00E010B50028BA
:1044B00004DB0A07130E054A135406E00A07140E1C
:1044C000034A00F00F031B1FD45410BD00E400E0AA
:1044D00018ED00E030B589B005460C4640F2FF10FB
:1044E000039000200590069008200790280A8DF878
:1044F0000400E8B28DF80500200A8DF80600E0B24D
:104500008DF8070000208DF808008DF809008DF85F
:104510000A008DF80B006B4601AA03A90248FCF7BC
:1045200028FE09B030BD0000F8030020F0B589B0C6
:1045300007460C4615461E464FF4007003900020B7
:104540000590069008200790380A8DF80400F8B20C
:104550008DF80500200A8DF80600E0B28DF80700FE
:10456000280A8DF80800E8B28DF80900300A8DF8A5
:104570000A00F0B28DF80B006B4601AA03A90248AD
:10458000FCF7F7FD09B0F0BDF803002010B50446B4
:104590000648806BA04208D12068006840F40020E3
:1045A000216808600248FFF77DFE10BDA8040020C6
:1045B000F443002010B504460648806BA04208D1A1
:1045C0002068006820F40020216808600248FFF796
:1045D00069FE10BDA80400200C44002002468A4257
:1045E00001DD0A4605E04842824201DA4A4200E023
:1045F00000BF10B270470000FDF74AFFFFF73AFA1C
:10460000FFF75CF9FFF706F9FFF7C0F8FFF7E0F8EE
:10461000FFF700FAFFF7C6F9FFF7E0F9FCF7D2F869
:10462000FCF708F9FFF70EFE09480068C06840F083
:10463000100007490968C860652206490448FEF76A
:1046400025FFFFF70BF900F01AF800BFFEE70000A6
:10465000640400201401002001460020842901D0B8
:10466000CA1C1044704770B5044625460DB1294652
:1046700000E00121084600F007FD002070BD10B5E4
:1046800000F030FD002010BD7FB504460D46606986
:1046900098B1A06988B1B4F90800FFF7DDFF0646BC
:1046A000D4E90510CDE9006102902B462269D4E9D6
:1046B000001000F0BDFE039013E0B4F90800FFF70E
:1046C000CBFF064603A8CDE90060238A9AB22B46A9
:1046D000D4E9001000F07AFE012802D0002004B0D6
:1046E00070BD0398FBE7F0B504460D461646059FDE
:1046F00025826682A384E784E089A081608A218A7A
:10470000401A01B2E181D4ED000AB4F90E0000EEC6
:10471000100AB8EEC00A20EE800ABDEEC00A84ED91
:10472000050A94ED060AB8EEC00A94ED011AB4F930
:104730000E0000EE900AF8EEE00A01EE200ABDEE4F
:10474000C00A84ED060AB4F92610A069FFF746FFF7
:10475000A061B4F90E00B4F90C10401A00EE100A72
:10476000B8EEC00AD4ED020A20EE200ABDEEC00A5F
:1047700084ED070AD4E905010844E1690844206290
:10478000B4F92410206AFFF729FF2062208C00B2C0
:10479000F0BD002181810022C28180ED000AC0EDC0
:1047A000010A80ED021A70472DE9F04105460E46D8
:1047B0001C4807681C480068001D00F061FB50B9E8
:1047C0001948006890F82C100120884017490968A2
:1047D000814316480160681C38B936B11248016837
:1047E000091D134800F096FB1AE07C190E4800687A
:1047F0004460BC4207D20C480168091D0D4800689E
:1048000000F06EFB0CE008480168091D0A480068CA
:1048100000F066FB09480068844201D20748046042
:10482000BDE8F08138000020240000203C0000207A
:10483000880600202C0000202800002054000020C2
:1048400010B5044600F072FB23480068401C224962
:1048500008602248006840B92048046008460068A3
:1048600001280DD100F03EF90AE01D48006838B972
:104870001A480068C06AE16A884201D81748046093
:1048800018480068401C1749086094F82C10012053
:10489000884015490968084313490860E16A01EB3B
:1048A0008101124A02EB8100211D00F033FB00F070
:1048B00067FB0B48006868B108480068C06AE16A95
:1048C000884207D24FF0805009490860BFF34F8FEC
:1048D000BFF36F8F10BD00003400002024000020C3
:1048E00040000020500000203C000020AC050020CB
:1048F00004ED00E010B516E000F018FB0C48C068AD
:10490000C468201D00F0BCFA0A480068401E09492E
:10491000086009480068401E0749086000F030FB45
:10492000204600F00BF8044800680028E4D110BDD0
:1049300074060020340000203000002010B504462A
:1049400094F8510030B9206B00F038FB204600F09D
:1049500035FB1AE094F85100012803D1204600F0FD
:104960002DFB12E094F85100022801D1012000E053
:10497000002050B900BF502080F31188BFF34F8F43
:10498000BFF36F8F00BF00BFFEE710BD30B54FF41F
:104990007053174800F007042CB1C01D20F0070029
:1049A000134C041B1B1B0246124C22600024114DA9
:1049B0006C60D018083820F007000F4C20600024ED
:1049C0000D4D2D686C600C4D2D682C601146441AFD
:1049D0004C60094C24680C60084D4C682C60084DF4
:1049E0004C682C604FF00044064D2C6030BD000038
:1049F0009C0600206000002068000020700000205D
:104A00006C0000207C00002000BFFFF773FF064809
:104A100000680128F9D94FF0805004490860BFF3BD
:104A20004F8FBFF36F8FF0E7AC05002004ED00E07F
:104A30002DE9FF5F81460E469246DDE90E7B109C14
:104A4000AAF10100216B01EB800828F0070808F0AB
:104A5000070008B9012000E0002050B900BF502035
:104A600080F31188BFF34F8FBFF36F8F00BF00BF7C
:104A7000FEE786B1002507E0715D04F13400415581
:104A8000705D00B902E06D1C102DF5D300BF002150
:104A90004320015502E0002084F83400072F00D3A2
:104AA0000627E76267640020A064201D00F015FA65
:104AB00004F1180000F011FA2461C7F10700A061A9
:104AC00064620020E06484F8500049464046039A3E
:104AD00000F050F92060BBF1000F01D0CBF800408E
:104AE000BDE8FF9F10B5002407E004EB84010F4AE6
:104AF00002EB810000F0E4F9641C072CF5D30C48AC
:104B000000F0DEF90B4800F0DBF90B4800F0D8F9B3
:104B10000A4800F0D5F90A4800F0D2F904480949DA
:104B2000086004480849086010BD0000AC0500207A
:104B3000380600204C060020600600207406002085
:104B400088060020280000202C00002010B5014617
:104B5000164800E0006803688B42FBD302464368B6
:104B600013448B4204D143684C682344436001469C
:104B70000A464B6813440468A34211D10C4C0368E5
:104B80002468A34208D04B680468646823444B60DF
:104B900003681B680B6005E0054B1B680B6001E0B8
:104BA00003680B60884200D0016010BD60000020E7
:104BB000680000200A490968096809B9012100E074
:104BC000002121B14FF0FF31064A116006E004498F
:104BD0000968C968C868034A4168116070470000E5
:104BE00028000020540000200E480068401C08B92E
:104BF000012000E0002050B900BF502080F3118850
:104C0000BFF34F8FBFF36F8F00BF00BFFEE700BF42
:104C1000502080F31188BFF34F8FBFF36F8F00BF19
:104C200000BFFEE7800000202DE9F04104464FF070
:104C3000000800F0AFFA4948006808B9FFF7A6FE7F
:104C4000474800682040002870D1D4B1083404F0EF
:104C50000700B0B104F00700C0F10800044404F0FC
:104C6000070008B9012000E0002050B900BF502023
:104C700080F31188BFF34F8FBFF36F8F00BF00BF6A
:104C8000FEE7002C52D03748006884424ED8364E9A
:104C90003046056801E02E462D686868A04202D2C1
:104CA00028680028F7D12D48006885423ED030683A
:104CB00000F10808286830606868001B102819D9BE
:104CC0002F1907F0070008B9012000E0002050B9B3
:104CD00000BF502080F31188BFF34F8FBFF36F8F59
:104CE00000BF00BFFEE76868001B78606C60384654
:104CF000FFF72CFF1B4968680968081A1949086002
:104D00000846006819490968884203D215480068B6
:104D100016490860124968680968084368600020FD
:104D2000286013480068401C1149086000F092FC9C
:104D300008F0070008B9012000E0002050B900BFCA
:104D4000502080F31188BFF34F8FBFF36F8F00BFE8
:104D500000BFFEE74046BDE8F0810000680000208B
:104D60007C0000206C00002060000020700000200B
:104D700074000020001F4FF080730360001F21F0BB
:104D800001030360001F054B036014380260001F1D
:104D90006FF002030360203870470000E94B000801
:104DA0000D48C07A022807D10B48807A022803D127
:104DB00016200A4908800EE00748C07A012807D16A
:104DC0000548807A012803D10B200449088002E0BD
:104DD0000020024908807047B4450020960000205A
:104DE0000748C08800EB400000B20649088104482B
:104DF000408800EB400001B2024881827047000009
:104E0000B4450020BC43002038B5044600BF002054
:104E1000009020680068009020684068009000BF03
:104E200000BF1648844227D1A06B0068006820F0BC
:104E30000100A16B09680860A06B00684068C0F1C0
:104E4000180012280CD1A06B0068006800F4002044
:104E500018B1A06B416C884702E0A06BC16B88471A
:104E60001820A16B09684860A06B0068006840F0DA
:104E70000100A16B0968086038BD0000A80400208B
:104E800001460A69D1E901309860D1E9010358600F
:104E90005068884201D1886850600020086110681D
:104EA000401E106010687047034B0360034B0B609B
:104EB00080231360704700007C010020D001002097
:104EC00000F1080141604FF0FF31816000F10801FD
:104ED000C1600161002101607047002101617047DC
:104EE00010B502460B685C1C0CB9106907E002F1B2
:104EF000080000E04068446824689C42FAD944688D
:104F00004C604C68A160886041600A611468641C50
:104F1000146010BD42684A6093688B609368596062
:104F20009160086103685B1C0360704700BF5020FC
:104F300080F31188BFF34F8FBFF36F8F00BF0E4810
:104F40000068401C0C49086008460068012812D11E
:104F50000A480068C0B208B9012000E0002050B93A
:104F600000BF502080F31188BFF34F8FBFF36F8FC6
:104F700000BF00BFFEE770478000002004ED00E0A6
:104F80000D48006850B900BF502080F31188BFF36E
:104F90004F8FBFF36F8F00BF00BFFEE7064800686A
:104FA000401E054908600846006820B9002080F3CB
:104FB000118800BF00BF70478000002070B5064612
:104FC0003546002E44D0083D2C46224960680968C9
:104FD000084008B1012000E0002050B900BF502077
:104FE00080F31188BFF34F8FBFF36F8F00BF00BFF7
:104FF000FEE7206808B9012000E0002050B900BF9A
:10500000502080F31188BFF34F8FBFF36F8F00BF25
:1050100000BFFEE70F49606809680840C0B120681A
:10502000B0B90C49606809688843606000F0B2F864
:105030000949606809680844074908602046FFF785
:1050400085FD06480068401C0449086000F002FB2A
:1050500070BD00007C0000206C0000207800002063
:1050600000204FF0E02108618861064800684FF495
:105070007A71B0FBF1F0401E4FF0E021486107204B
:10508000086170472000002070B504460025D4B1A7
:105090001248006808B9012000E0002050B900BFA4
:1050A000502080F31188BFF34F8FBFF36F8F00BF85
:1050B00000BFFEE700F06EF800212046FFF774FB0A
:1050C00000F0C8FA05463DB94FF080500449086029
:1050D000BFF34F8FBFF36F8F70BD00005C000020E7
:1050E00004ED00E010B586B000200590049003AAFE
:1050F00004A905A8FFF7D8FE0022DDE90410134635
:10510000CDE9002102901CA11D48039A00F090F9FE
:105110001C4908600846006808B1012400E000242A
:10512000012C15D100BF502080F31188BFF34F8FA1
:10513000BFF36F8F00BF4FF0FF30134908600120AD
:105140001249086000201249086000F071F810E070
:10515000601C08B1012000E0002050B900BF5020C1
:1051600080F31188BFF34F8FBFF36F8F00BF00BF75
:10517000FEE706B010BD000049444C4500000000A9
:10518000094A000858000020540000204000002078
:105190003800002002480068401C01490860704740
:1051A0005C0000201D48006818B101201C490860FF
:1051B00032E000201A4908601A480068B0FA80F00E
:1051C000C0F11F0101EB8100174A52F8200008B11D
:1051D000012000E0002050B900BF502080F311886A
:1051E000BFF34F8FBFF36F8F00BF00BFFEE701EB30
:1051F00081020D4B03EB820042685268426000F16D
:1052000008024368934202D1426852684260426891
:10521000D268064B1A6000BF704700005C00002097
:10522000480000203C000020AC05002024000020A5
:105230001CB5524800685249884201D0012000E064
:10524000002050B900BF502080F31188BFF34F8F6A
:10525000BFF36F8F00BF00BFFEE7484800684849B2
:10526000491E884201D0012000E0002050B900BF53
:10527000502080F31188BFF34F8FBFF36F8F00BFB3
:1052800000BFFEE73F49084600780190FF200A462C
:1052900010700846007800909DF8000000F0F000C3
:1052A0009DF80020904201D1012000E0002050B97B
:1052B00000BF502080F31188BFF34F8FBFF36F8F73
:1052C00000BF00BFFEE79DF8000000F050002E4A2E
:1052D000107007202D4A106009E02C480068401E1D
:1052E0002A4A10609DF800004006000E00909DF8CC
:1052F000000000F080008028EFD024480068C0F152
:105300000700042801D1012000E0002050B900BFAF
:10531000502080F31188BFF34F8FBFF36F8F00BF12
:1053200000BFFEE7194800680002184A10601046E6
:10533000008800F4E0601060124A019810700F4875
:105340002030006840F470000C49203108600846A5
:10535000006840F070400860FFF782FE00200C49B2
:105360000860FAF7A3FF0B48006840F04040094985
:105370000860FAF787FF00201CBD000000ED00E088
:1053800071C20F4100E400E084000020880000208A
:105390008000002034EF00E010B500BF502080F303
:1053A0001188BFF34F8FBFF36F8F00BF00F0AEF8CF
:1053B00018B14FF080500449086000BF002080F30E
:1053C000118800BF10BD000004ED00E02DE9FF4F83
:1053D00085B0804689461746DDE912ABB800FFF775
:1053E00023FC064656B15420FFF71EFC04460CB1C0
:1053F000266304E03046FFF7E1FD00E000248CB1B5
:10540000002084F85100CDE900ABCDE902403A46D6
:1054100049464046089BFFF70BFB2046FFF710FA72
:10542000012501E04FF0FF35284609B0BDE8F08FB7
:105430002DE9F04F85B00746884691469A46DDE94A
:105440000EB6109C0EB1012000E0002050B900BF44
:10545000502080F31188BFF34F8FBFF36F8F00BFD1
:1054600000BFFEE70CB1012000E0002050B900BFF2
:10547000502080F31188BFF34F8FBFF36F8F00BFB1
:1054800000BFFEE7542003900398542801D1012067
:1054900000E0002050B900BF502080F31188BFF316
:1054A0004F8FBFF36F8F00BF00BFFEE700BFB4B1E7
:1054B000AEB125462C462E63022085F8510000200F
:1054C00004A953464A46CDE900B1CDE90250414610
:1054D0003846FFF7ADFA2846FFF7B2F901E00020A1
:1054E0000490049805B0BDE8F08F000005490968F4
:1054F00009B9012005E00449096809B9022000E062
:1055000000207047400000205C0000202DE9F041A1
:105510004FF000084448006800287CD143480068E8
:10552000451C4248056015BB41480068006808B941
:10553000012000E0002050B900BF502080F3118806
:10554000BFF34F8FBFF36F8F00BF00BFFEE7384838
:1055500007683848006836490860364807603648AA
:105560000068401C34490860FFF724FB00BF334843
:10557000006885423CD300BF2D480068006808B928
:10558000012000E0002020B14FF0FF302B490860DF
:105590002DE027480068C068C4686668B54202D23A
:1055A0002648066023E0201DFFF76AFCA06A18B1B8
:1055B00004F11800FFF764FC94F82C1001208840D7
:1055C0001F49096808431E490860E16A01EB81012F
:1055D0001C4A02EB8100211DFFF79CFC1A49E06A7E
:1055E0000968C96A8842C7D34FF00108C4E700BF01
:1055F00015480068C06A00EB8000124951F820008D
:10560000012801D94FF001081048006808B14FF097
:10561000010805E0FFE70E480068401C0C490860DF
:105620004046BDE8F08100005C000020380000200A
:10563000280000202C0000204C00002054000020F6
:105640003C000020AC050020240000204800002081
:105650004400002070B5002400263648006850B988
:1056600000BF502080F31188BFF34F8FBFF36F8FBF
:1056700000BF00BFFEE7FFF759FC2E480068401E40
:105680002C4908600846006800284FD12A48006865
:1056900000284BD024E02948C068C46804F11800F1
:1056A000FFF7EEFB201DFFF7EBFB94F82C10012019
:1056B000884023490968084321490860E16A01EBF1
:1056C0008101204A02EB8100211DFFF723FC1E49C6
:1056D000E06A0968C96A884202D301201B49086050
:1056E0001648006808B9012000E000200028D2D048
:1056F0000CB1FFF75FFA1648056865B100BFFFF708
:1057000005FF10B10120114908606D1E002DF6D172
:1057100000200F4908600D48006838B101263007A5
:105720000C490860BFF34F8FBFF36F8FFFF728FC62
:10573000304670BD5C000020340000206006002070
:105740003C000020AC050020240000204800002080
:105750004400002004ED00E021F00042A2F160527C
:10576000B2F5801F01F0004328BFD2F17F6C0BD946
:105770005FEA001C43EAC20242EB507018BF704758
:1057800028BF20F001007047B2F5801FBCBF18464B
:1057900070474FEA410C1CF5001F02D2084600F08A
:1057A00080BA70B500F024FA00000089FFF7F6BF58
:1057B0004FF00040A0F58000704700002DE9C04187
:1057C00030B4DFF8A0C23CEA111418BF3CEA13144D
:1057D00000F0EC8081EA03051CEA111444EAD57458
:1057E00018BF1CEA131500F0C780A4EB05044FF0A6
:1057F000004545EAC12145EAC32341EA505143EA45
:10580000525304F17F74994204F500344FEAC020EA
:105810004FEAC22208BF904200F09C804FEA136515
:105820000FF24016765D4FEA134506FB05F7C7F108
:10583000807706FB07F74FEAD737A7FB0368764266
:10584000C8F58038A7FB06CE38BFA8F1010807FBD2
:1058500008E64FF0000EA6FB028CE6FB03CEDCF15F
:10586000000CCEF1004E38BFAEF1010EA6FB0C5875
:105870004FF000074FF00005E6FB0E87A1FB08C6BE
:10588000A0FB07CE16EB0E0645F10005E1FB076510
:1058900015F1E04E7EBFA4F580345FEA46066D4107
:1058A00016F1800745F100054FEA17274FEA066613
:1058B00047EA0567A6F1DE46B6F1805F4FEA152597
:1058C0001FD9384624F0010C05EBC471BCF1FE6F02
:1058D00001EB0C1102D8F0BCBDE8008124425CBF92
:1058E00001F5801E9EEAC47F02D4F0BCBDE80081B1
:1058F000244238D4F0BCA1F1C041BDE8004100F021
:10590000C5B94FEAD22242EA43524FEAD323A7FB5A
:1059100002864FEAD02040EA415007FB03661EEAA8
:105920000E0F4FEAD12105FB026658BFA6EB0056C9
:10593000B6EB00564FEA520E4EEAC37E18EB0E0E3F
:1059400056EB530EBDD518EB02085E417F1C55F196
:105950000005B6E74FF480154FF000074FF0000642
:105960004FF00008ADE7F0BC4FF0000001F1C0417E
:1059700001F00041BDE8008111EA0C1F0CEA13158B
:1059800000D00CE013EA0C1F00F025804FF000005F
:10599000F0BC81EA030101F00041BDE80081F0BCE8
:1059A000BDE8004181EA030100F070B9F0BCBDE838
:1059B000004170B500F01CF9097EFC3E00F007B80C
:1059C00081EA03014FF0000001F00041704781EAD5
:1059D000030100F05BB9F0BCBDE800414FF00000EE
:1059E00021497047FFFDFBF9F7F5F4F2F0EEEDEB1E
:1059F000E9E8E6E4E3E1E0DEDDDBDAD8D7D5D4D3CD
:105A0000D1D0CFCDCCCBCAC8C7C6C5C4C2C1C0BF18
:105A1000BEBDBCBBBAB9B8B7B6B5B4B3B2B1B0AF1E
:105A2000AEADACABAAA9A8A8A7A6A5A4A3A3A2A102
:105A3000A09F9F9E9D9C9C9B9A99999897979695BD
:105A400095949393929191908F8F8E8E8D8C8C8B59
:105A50008B8A8989888887878685858484838382E1
:105A6000828181800000FF070000F87F10F0004273
:105A700048BF4042B0FA80F310FA03F10AD0C3F1F4
:105A80001D0303F580634FEA415002EB035202EB22
:105A9000D12170474FF0000070470000DFF848C187
:105AA00070B51CEA111E1EBF1CEA13159EEA0C0FEE
:105AB00095EA0C0F00F06F8081EA030423EA4C138F
:105AC0004EEAD47E21EA4C1141F4801143F4801354
:105AD000AE44A1FB024CA0FB0365AEF17F7E3619FC
