:020000040800F2
:10000000D85300207D0300086740000873390008BA
:10001000E93F0008BB060008894C0008000000000A
:10002000000000000000000000000000890200083D
:10003000B911000800000000E5020008B9420008FC
:100040009703000897030008970300089703000828
:100050009703000897030008970300089703000818
:10006000970300089703000897030008210D000874
:100070002D0D000897030008390D000897030008AC
:10008000450D0008510D00089703000811070008EE
:10009000F906000805070008970300089703000801
:1000A00097030008970300089703000897030008C8
:1000B00097030008970300087D4300089703000892
:1000C00097030008970300089703000897030008A8
:1000D000970300083949000895490008A14900081C
:1000E0009703000897030008970300089703000888
:1000F0009703000897030008970300085D0D0008A8
:100100009703000897030008970300089703000867
:1001100097030008CD4400089703000897030008E0
:100120009703000897030008690D0008970300086B
:10013000970300080000000000000000710700089D
:10014000590700086507000897030008970300088F
:100150009703000897030008750D0008970300082F
:100160009703000897030008970300089703000807
:100170009703000897030008970300080000000099
:1001800000000000970300080000000000000000CD
:10019000970300080000000000000000970300081B
:1001A00000000000000000000000000097030008AD
:1001B00097030008970300089703000897030008B7
:1001C0009703000800F002F800F04EF80AA090E84B
:1001D000000C82448344AAF10107DA4501D100F002
:1001E00043F8AFF2090EBAE80F0013F0010F18BF81
:1001F000FB1A43F001031847587D0000787D00008A
:100200000A4410F8014B14F00F0508BF10F8015B09
:10021000240908BF10F8014B6D1E05D010F8013BF2
:100220006D1E01F8013BF9D1641E03D0641E01F874
:10023000015BFBD19142E4D370470000002300240E
:1002400000250026103A28BF78C1FBD8520728BFE6
:1002500030C148BF0B6070471FB507F0FCFB00F0D2
:100260003AF91FBD10B510BD00F0F2F91146FFF7C5
:10027000F3FF05F0D8FD00F010FA03B4FFF7F2FF2A
:1002800003BC00F013FA00002C4B19680868B0E8B2
:10029000F04F80F30988BFF36F8F4FF0000080F3B9
:1002A000118870470000000008480068006880F36B
:1002B00008884FF0000080F3148862B661B6BFF37F
:1002C0004F8FBFF36F8F00DF00BF00BF08ED00E06E
:1002D000DFF80C00016841F470010160704700BF55
:1002E00088ED00E0EFF30980BFF36F8F134B1A68BE
:1002F0001EF0100F08BF20ED108A20E9F04F1060AB
:1003000009B44FF0500080F31188BFF34F8FBFF353
:100310006F8F06F03FFB4FF0000080F3118809BC9F
:1003200019680868B0E8F04F1EF0100F08BFB0EC75
:10033000108A80F30988BFF36F8F70472400002074
:10034000EFF30580704700000B49D1F800C04A6800
:100350005CF8043B1068184442F8040B8C4528BF35
:10036000A1F1DC0C8A4228BFA1F1DC02C1F800C077
:100370004A6020F0004070476C4D002009488047DB
:1003800009480047FEE7FEE7FEE7FEE7FEE7FEE777
:10039000FEE7FEE7FEE7FEE704480549054A064B8F
:1003A000704700006D430008C5010008D84D0020CB
:1003B000D8530020D84F0020D84F002053EA020C19
:1003C00000F069802DE9F04B4FF00006002B1FBFB5
:1003D000B3FA83F503FA05F424FA05F65E4012BF7A
:1003E0001643B2FA82F502FA05F4C5F120051EBFE4
:1003F00022FA05FC44EA0C04203556EA044C4FEA84
:10040000144418BF641C4FF000084FF000099042DC
:1004100071EB030C39D3002919BFB1FA81F701FA46
:1004200007F6B0FA80F700FA07F6C7F120071EBFFB
:1004300020FA07FC46EA0C062037B6FBF4FCA7EBD3
:100440000507103F07F01F0BCBF120060CFA0BFB42
:100450002CFA06F644BFB3460026202FA4BF5E4602
:100460004FF0000B5BEA060C08BF4FF0010B19EBD5
:100470000B09ABFB027C48EB0608C01B06FB02CC59
:100480000BFB03CC71EB0C01C1E70B460246414666
:100490004846BDE8F08B13B54FF000004FF0000167
:1004A000AFF30080BDE81C40704700000B4910B559
:1004B000A1F17C020A4CC2E93712372106E000EBB9
:1004C000104342F82130074B00FB03400B1EA1F103
:1004D0000101F4DC10BD0120E8E700000C4D002014
:1004E000E119D666CD0D0100032A40F2308010F0EC
:1004F000030C00F0158011F8013BBCF1020F6244BF
:1005000098BF11F801CB00F8013B38BF11F8013B4F
:10051000A2F1040298BF00F801CB38BF00F8013BFC
:1005200011F0030300F02580083AC0F0088051F86C
:10053000043B083A51F804CBA0E80810F5E7121D77
:100540005CBF51F8043B40F8043BAFF30080D20796
:1005500024BF11F8013B11F801CB48BF11F8012B62
:1005600024BF00F8013B00F801CB48BF00F8012B85
:10057000704710B5203AC0F00B80B1E81850203A0F
:10058000A0E81850B1E81850A0E81850BFF4F5AF33
:100590005FEA027C24BFB1E81850A0E8185044BFBD
:1005A00018C918C0BDE810405FEA827C24BF51F82A
:1005B000043B40F8043B08BF7047D20728BF31F81E
:1005C000023B48BF11F8012B28BF20F8023B48BF6F
:1005D00000F8012B70474FF0000200B51346944617
:1005E0009646203922BFA0E80C50A0E80C50B1F18B
:1005F0002001BFF4F7AF090728BFA0E80C5048BF9F
:100600000CC05DF804EB890028BF40F8042B08BF3C
:10061000704748BF20F8022B11F0804F18BF00F838
:10062000012B704770477047704710B500F008F80D
:10063000006810BD10B5044600F002F8046010BD5B
:1006400000487047744D002000487047744D0020EA
:100650007546FFF7F9FFAE4605006946534620F0A0
:100660000700854618B020B5FFF796FEBDE820408C
:100670004FF000064FF000074FF000084FF0000B5E
:1006800021F00701AC46ACE8C009ACE8C009ACE811
:10069000C009ACE8C0098D46704710B50446AFF3F9
:1006A00000802046BDE81040FFF7E7BD0149182053
:1006B000ABBEFEE7260002007047FEE700B58BB038
:1006C00000200121CDE906010590009001900290E3
:1006D000039004900E20CDE908106946054800F00B
:1006E000A3FE0221034800F025FE024801F047FA6C
:1006F0000BB000BD1C040020014800F096BF0000B4
:100700001C040020014800F090BF00001C040020E1
:10071000014800F08ABF00001C04002000B58BB027
:1007200001220E2100200792CDE9051003900490CC
:10073000CDE908210090019002906946054800F03B
:1007400073FE0221034800F0F5FD024801F017FA9C
:100750000BB000BD44040020014800F066BF00005B
:1007600044040020014800F060BF00004404002061
:10077000014800F05ABF00004404002070B5BF4C8F
:10078000BF492DED088BB0EE40AAF0EE60AA94EDC3
:10079000010A84ED050AD1F81500A061B1F8131023
:1007A00000EE101AB8EE400A84ED070A9FEDB50A74
:1007B000B549B64D84ED080A04F15006884208DDBB
:1007C000BDEC088B30464FF48051BDE8704003F01B
:1007D0000CBCB6F90600B5F91A10401A06F039FE3D
:1007E00041EC100B04F0C0FCB6F90400B5F912108E
:1007F000B0EE408AF0EE608A401A06F02AFE41EC24
:10080000100B04F0B1FCB6F90200B5F90A10B0EE15
:1008100040BAF0EE60BA401A06F01BFE41EC100B35
:1008200004F0A2FCB6F90000B5F90210B0EE409A4F
:10083000F0EE609A401A06F00CFE41EC100B04F04A
:1008400093FC53EC192B51EC100B06F08BFB53EC83
:100850001B2B06F087FB53EC182B06F083FB41ECB7
:10086000100B84ED160B9FED8A1B53EC112B06F039
:1008700085FD36D0B6F90000B5F90210401A06F031
:10088000E8FD94ED168B53EC182B06F01FFCC4E921
:100890000C01B6F90200B5F90A10401A06F0D9FDAC
:1008A00053EC182B06F012FCC4E90E01B6F9040053
:1008B000B5F91210401A06F0CCFD53EC182B06F0D7
:1008C00005FCC4E91001B6F90600B5F91A10401A82
:1008D00006F0BFFD53EC182B06F0F8FBC4E912013B
:1008E00009E09FED6D0B84ED0C0B84ED0E0B84ED98
:1008F000100B84ED120B94ED160B53EC1A2B51ECEC
:10090000100B06F0E3FB06F0FBFAF7EE000A60605E
:10091000B0F17E5F02DDC4ED010A06E010F1814F07
:1009200003D9BFEE000A84ED010A94ED070A5C4981
:1009300010EE100A0844B0F5201F02D29FED590AAC
:1009400034E010EE100A58490844B0F5A01F02D256
:100950009FED560A2AE010EE100A55490844B0F5FA
:10096000E01F02D2B6EE000A20E010EE100A514954
:100970000844B0F5A00F02D29FED4F0A16E010EE2A
:10098000100A4E490844B0F5000F02D2B5EE000A35
:100990000CE010EE100A49494942884209DAB5EEE6
:1009A000C00AF1EE10FA04DB9FED450A84ED020A5D
:1009B00001E0C4ED020AA068054606F0DBFF94EDF5
:1009C000080AD4ED010A41EC190B20EE208A18EE3A
:1009D000100A06F0CFFF94ED0C1B53EC112B06F020
:1009E0009FFD53EC192B06F09BFD06F003FD3080B4
:1009F000284606F0BFFF41EC190B18EE100A06F06E
:100A0000B9FF94ED0E1B53EC112B06F089FD53EC4E
:100A1000192B06F085FD06F0EDFC7080284606F0E7
:100A2000A9FF41EC190B18EE100A06F0A3FF94ED94
:100A3000101B53EC112B06F073FD53EC192B06F031
:100A40006FFD06F0D7FCB080284606F093FF41EC1E
:100A5000190B18EE100A06F08DFF94ED121B53ECE3
:100A6000112B06F05DFD53EC192B06F059FD06F035
:100A7000C1FCF080BDEC088B70BD000018010020A7
:100A80007F4A0020000000470000E143FC450020B1
:100A90000000000000000000000000000000D03F47
:100AA0000000E0BDCDCC4C3F0000F4BD3333333FFC
:100AB000000010BE000060BE9A99993E0000E0BEA2
:100AC000CDCCCC3D2DED028B05F0C0FDDFF824A28E
:100AD000DFF81CB2DFF820929FED888ADFF82082D1
:100AE000884E0AF1500588480078012870D1DAF85C
:100AF0000C005446401CCAF80C00B0F5FA6F21DD1A
:100B00007F4900221031814802F0C6F8794900225D
:100B100028317E4802F09EF87948103001784278FA
:100B2000807811440844FFF7C1FCFFF70DFC40F248
:100B3000E93190FBF1F201FB120000F2DC5060623F
:100B40000020E06004F0D4F899F80A004F4603282A
:100B500004D002283DD0032803D0B6E0F87A032859
:100B600003D0F87A01287DD0AFE0B7F9080000EB98
:100B7000800000EE100AB8EEC00A84ED000A788802
:100B800000EB8000400001B2B9F8000000EB8000EB
:100B9000400000B204F0BCFF0024474607EB84008D
:100BA000D0ED000A06EBC400B0F9020000EE100A16
:100BB0005348B8EEC00A703805F0C0FABDEEC00A5E
:100BC00010EE100A25F81400641C042CE6DB7CE00F
:100BD00089E099F80B00022877D14D48B0F8390028
:100BE00038B184ED008A9BF802005F46012805D0E9
:100BF0000EE09FED480A84ED000AF4E74048F0EE6D
:100C0000480A94ED040A383805F03CFA84ED000AED
:100C100097ED030ABDEEC00A10EE100A97ED020A26
:100C200001B2BDEEC00A10EE100A00B204F070FF6F
:100C30000024474607EB8400D0ED000A06EBC40011
:100C4000B0F9020000EE100A2D48B8EEC00A703864
:100C500005F074FABDEEC00A10EE100A25F8140073
:100C6000641C00E002E0042CE4DB2EE02448F0EEFB
:100C7000480A94ED040A383805F004FA84ED000AB5
:100C80007888C0EB001001B23888C0EB001000B2C9
:100C900004F03EFF0024474607EB8400D0ED000A35
:100CA00006EBC400B0F9020000EE100A1448B8EEDA
:100CB000C00A703805F042FABDEEC00A10EE100A04
:100CC00025F81400641C042CE6DB9FED130BFFF7E2
:100CD00055FDB5F90630B5F90420B5F90210B5F99E
:100CE000000004F0C5FE012005F00CF9FBE6000051
:100CF000E4480020180100203C46002000000000CD
:100D00003C4B0020FC450020930000206C04002098
:100D10007F4A00200000FA44000000000088E34001
:100D2000014800F0B9BF0000F4050020014800F0C0
:100D3000B3BF000034080020014800F0ADBF000040
:100D400094080020014800F0A7BF000074070020AD
:100D5000014800F0A1BF0000D4070020014800F0C6
:100D60009BBF000054060020014800F095BF000022
:100D7000B4060020014800F08FBF000014070020D7
:100D80002DE9F04F85680024099E802D18D0894DEB
:100D9000C563894D456490F83450012D15D0012567
:100DA00080F8345090F83550012D10D0002180F893
:100DB00034100224002180F834102046BDE8F08F62
:100DC0004FF4807141650120F8E70220F6E7022523
:100DD00080F835500025456505682F6847F4802761
:100DE0002F6005682B6103685E608368402B036891
:100DF0002AD099600168CA60714D704E704FDFF85B
:100E0000BC81DFF8B891DFF8B8A1DFF8B4B1EA141B
:100E1000DFF8A8E10168183630379302A9F14809D4
:100E20000AF1600A0BF1180BAEF1300E4FF0006CB6
:100E300041452DD9A94205D0494503D0514501D09E
:100E4000B14205D1202220E09A600268D160D3E748
:100E500059451AD0714518D0594D7835A94214D04A
:100E6000564D3035A94210D0B9420BD0534A183AEA
:100E7000914207D0524A9032914203D04F4A4832B1
:100E8000914201D11A4600E062464C494C392EE0AD
:100E9000DFF82C8108F1A80841452AD9A94205D0DC
:100EA000494503D0514501D0B14201D120221CE077
:100EB00059451AD0714518D0414D7835A94214D002
:100EC0003E4D3035A94210D0B9420BD03B4A183ABA
:100ED000914207D03A4A9032914203D0374A483281
:100EE000914201D11A4600E06246344950390A6005
:100EF0005AE0DFF8CC8008F1480841452AD9A942D8
:100F000005D0494503D0514501D0B14201D120223D
:100F10001CE059451AD0714518D0294D7835A942A1
:100F200014D0264D3035A94210D0B9420BD0234AF7
:100F3000183A914207D0224A9032914203D01F4A78
:100F40004832914201D11A4600E062461C491039EC
:100F5000CA6029E0A94205D0494503D0514501D0D6
:100F6000B14201D120221CE059451AD0714518D058
:100F7000134D7835A94214D0104D3035A94210D008
:100F8000B9420BD00D4A183A914207D00C4A903220
:100F9000914203D0094A4832914201D11A4600E0F9
:100FA0006246074910398A6001680A6842F0010206
:100FB0000A60FFE6595D0008A55D0008586402401C
:100FC0001060024001681823CAB2103AB2FBF3F273
:100FD000054B6FF30901032A9B5CC36500D9091D0A
:100FE0008165084670470000DC7A000810B50146AC
:100FF00000208B698A6A4FF0C07453B1B3F5005F6B
:1010000015D072B1012A0CD0022A0AD0032A09D1C4
:1010100004E01AB1012A06D0022A03D1C96AC90123
:1010200000D5012010BDC96AA142FAD010BD002A26
:10103000F7D0012AF2D0022AF3D0032AF3D010BD50
:1010400030B50468256825F4802525600468636050
:101050008368402B036803D099600068C26030BD8C
:101060009A600068C16030BD01680A68D20604D584
:10107000C968C90601D505F013BB7047F8B500680B
:101080003C49884275D13C4800680168C943C9069B
:101090006FD40168002440680090374802F062F87D
:1010A000364800684068364DC0F180003549E86038
:1010B00002200870810300223348AC6001F03EF842
:1010C00000220821314801F039F84FF4807230498C
:1010D000294802F0C3FB2E4C2078A52849D14FF6B1
:1010E000FF728A21204600F001F9688004F1700641
:1010F00004F5B875718BE98304F58072814238D1AB
:1011000060785070A0789070A2F11000A0F5807106
:1011100051F8133F83614B68C3618B680362CB68EE
:101120004361E37C1375237D5375D1F812308362DC
:10113000D1F81630C362D1F81A30036394F8213025
:1011400082F8243094F8223082F825300A8CC28646
:10115000498C0187A0F1C90131223A30FFF7C4F967
:1011600004F15801312201F20310FFF7BDF9707E3E
:101170002877F8BD001001401C050020B4060020AF
:10118000FC0000207801002000080240000402401A
:10119000E447002010B501680A68D20608D5C9687E
:1011A000C90605D505F07CFA02484168491C416032
:1011B00010BD0000FC000020704772B6FEE7000082
:1011C000454DDFF80C91DFF80C81444F4FF0010AD8
:1011D000002605F1010B4FF49071D8F8100002F0D1
:1011E000C7FC287800286DD002286BD0D9F80010F1
:1011F000491CC9F80010D9F800004C46142802DB3D
:1012000002F032FF266045F8016F5C466E60B7F869
:101210001900010A8BF800108BF80100B7F81B00C9
:10122000010A8BF802108BF803002D483621007854
:101230008BF804002B480088A5F805002A480078A0
:101240008BF807002448401C04F04EFC012004F0F9
:1012500059FED7F81E002E606E60B97C2170797F30
:101260006170C5F802001C48A671E6713721401C68
:1012700004F03AFC012004F045FE1748AE60EE6031
:10128000093098F81410017098F81510417098F80A
:101290002410817098F88C10C1704446392104F0F4
:1012A00023FC012004F02EFEE0692861206A6861B9
:1012B0000948402111306D1E04F016FC012004F095
:1012C00021FE88E702F0D0FE85F800A093E7000039
:1012D00004010020E4480020780100207F4A00201B
:1012E00095010020980100209401002010B558B10C
:1012F000084C491E0BD310F8013B5340DBB234F8C5
:10130000133083EA1222F4E74FF6FF7010BD104647
:1013100010BD0000FC7B000810B5054C03E010F880
:10132000013B5340E25C491EF9D2104610BD00005B
:10133000FC7A000890F82020012A07D0022A05D064
:10134000416A41F48021416201207047006842698E
:101350000A43426100207047F0B590F820500468BD
:10136000A468012D05D0022D03D0416A41F48021EB
:1013700057E014F0406F01D1E5004FD5C4F301648C
:101380000125A5401D608B684FF4C0759BB1CE68E8
:1013900033434E6843EAC603066805EB0417F3516E
:1013A0004FF4C273076803EB04130E69FE50097D06
:1013B000012905D009E00E88CB6843EA4653EBE7E4
:1013C0000168CE5846F48076CE501179D37956799B
:1013D00041EA036193791B0443EA062319434FF45E
:1013E000C676036806EB041699511178D37841EA62
:1013F0000361937852781B0443EA022211434FF4AD
:10140000C473026803EB0413D150006805EB0411A8
:10141000425842F0010242500020F0BD416A41F4BE
:10142000001141620120F0BD10B590F82020012A82
:1014300007D0022A05D0416A41F48021416201208F
:1014400010BD3B48D0F8002242F00102C0F8002253
:10145000D0F8002222F47C52C0F80022D0F80022FA
:101460004B6A42EA0322C0F800220A7D02F01F0301
:1014700001229A40D0F81C329343C0F81C32CB6949
:10148000B3B9D0F80C329343C0F80C328C894B6856
:1014900064F31F434C6900EBC404C4F840320C8968
:1014A0000B6864F31F434C6900EBC404C4F8443276
:1014B000CB69012B16D1D0F80C321343C0F80C3293
:1014C0000C884B6864F31F434C6900EBC404C4F8F8
:1014D00040320C89CB6864F31F434C6900EBC404B1
:1014E000C4F844328B69002BD0F804320ED0134379
:1014F000C0F804320B69002BD0F8143208D0134323
:10150000C0F81432096A012904D008E09343EFE7D8
:101510009343F5E7D0F81C121143C0F81C12D0F821
:10152000001221F00101C0F80012002010BD0000DF
:1015300000640040704770B590F82040012C05D041
:10154000022C03D0416A41F4802128E0046809B3E9
:101550002469A40720D04FF4D874056804EB011463
:101560002D5915F00405956005682D591AD0ED0820
:10157000556005682C5904F00204D4604FF4DA7405
:10158000056804EB01142E5906F00F06082E0CD343
:1015900008250DE0E468DCE7416A41F4001141628E
:1015A000012070BD6D0D1560E3E72D5905F00F05A5
:1015B000156105682D59C5F30725956105682C59F6
:1015C000240C54614FF4DC72046802EB0112A4583D
:1015D0001C700468A458240A5C700468A458240C85
:1015E0009C700468A258120EDA704FF4DE72046820
:1015F00002EB0112A4581C710468A458240A5C71FF
:101600000468A458240C9C710468A258120EDA7164
:10161000006829B1016941F020010161002070BD1D
:10162000C16841F02001C160F8E72DE9F05F05468F
:10163000006800244669D0F804908768D0F80CB0A0
:10164000D0F810A0D0F81880F10748D0F90714D0CE
:1016500001218160B80703D5284600F0BCFA0CE0F0
:10166000780702D54FF4006407E0380702D54FF43D
:10167000805402E0284600F0ADFAF80516D5296836
:101680004FF480708860B80503D5284600F0A5FAAD
:101690000CE0780502D544F4005407E0380502D583
:1016A00044F4804402E0284600F096FAF80316D588
:1016B00029684FF480308860B80303D5284600F0CD
:1016C0008EFA0CE0780302D544F4004407E03803B6
:1016D00002D544F4803402E0284600F07FFA300757
:1016E00007D55FEACB6004D52968102044F4007464
:1016F000C86070074FF0080707D55FEA0B7004D584
:101700002868C760284600F0BBF9B00706D52868EE
:10171000C068800702D0284600F0B4F9700607D5EB
:101720005FEACA6004D52968102044F48064086127
:10173000B00607D55FEA0A7004D528680761284615
:1017400000F01AFAF00606D528680069800702D072
:10175000284600F012FAB00308D55FEAC96005D543
:10176000296810204860284600F008FAF00307D5E1
:101770005FEA097004D528684760284600F030FA0F
:10178000300446D55FEA497040D5F00504D55FEADC
:10179000C87001D044F00104B00504D55FEA887038
:1017A00001D544F00204700504D55FEA487001D504
:1017B00044F00404300529D518F0700F26D008F045
:1017C0007000402815D006DC102809D020280AD047
:1017D000302816D10AE050280ED0602811D10EE032
:1017E00044F008040DE044F010040AE044F0200442
:1017F00007E044F0400404E044F0800401E044F4D5
:1018000080742868816921F0700181612968042051
:101810004860002C05D0686A204368622846FFF7BC
:1018200089FEBDE8F09F70B5040003D094F8200055
:1018300010B104E0012070BD204600F081F820685E
:10184000016841F00101016000F07EFC05460526BB
:1018500004E000F079FC401B0A2811D82068406899
:10186000C007F6D02068016821F00201016000F095
:101870006BFC05460BE000F067FC401B0A2806D90C
:10188000606A40F40030606284F82060D2E720682B
:1018900040688007EFD4207E0128206801683DD091
:1018A00021F080010160607E01282068016838D045
:1018B00021F040010160A07E01282068016833D03A
:1018C00021F020010160E07E0128206801682ED00F
:1018D00041F010010160207F01282068016829D0B3
:1018E00021F008010160607F01282068016824D090
:1018F00021F004010160D4E902010843D4E9041293
:10190000114308436168491E08432168C8610020EB
:101910006062012084F82000002070BD41F0800149
:10192000C0E741F04001C5E741F02001CAE721F0DE
:101930001001CFE741F00801D4E741F00401D9E7F5
:101940002DE9F04387B0044614216846FEF743FEB4
:101950004749484ADFF814810868D4F800C0454B6D
:10196000022403250926DFF8109110320027401CBD
:10197000C44533D10860012807D1106840F00070D9
:101980001060106800F000700590186840F00200C8
:1019900018601868694600F0020005904FF4407026
:1019A0008DE89100CDE90356484600F0E7FA0022A1
:1019B0000521132000F03AFC132000F029FC00223E
:1019C0000521142000F032FC142000F021FC00223C
:1019D0000521152000F02AFC152042E0DFF89C804C
:1019E000C44540D1D2F800C04CF0806CC2F800C0B1
:1019F000D2F800C001280CF0806CCDF814C008604B
:101A000007D1106840F000701060106800F000709E
:101A10000590186840F0020018601868694600F0E8
:101A2000020005904FF440508DE89100CDE9035637
:101A3000484600F0A3FA002205213F2000F0F6FB03
:101A40003F2000F0E5FB00220521402000F0EEFBE6
:101A5000402000F0DDFB00220521412000F0E6FBE4
:101A6000412000F0D5FB07B0BDE8F08300640040E2
:101A7000100000203038024000040240006800409E
:101A80007047000010B50446006837498AB08842A4
:101A90002DD16B4602AA00212046FFF74CFD02998A
:101AA000324A332906D0342909D0352916D03829AD
:101AB00019D01CE0DDE90001C2E90A0117E0009835
:101AC00090609DF8040010709DF8050050709DF81E
:101AD000060090709DF80700D07008E000985060F4
:101AE0000198506103E00098D0600198106120498E
:101AF0002068884235D16B4602AA00212046FFF7B4
:101B00001AFD02980146A0F20120072813D8BDF85B
:101B10000020C0B253BA174A22F83030BDF8023064
:101B200002EBC0005BBA4380BDF8042052BA828049
:101B30009DF806208271A1F58070413811D19DF881
:101B40000000A2280DD109489DF801102030017035
:101B5000BDF802104180BDF804108180BDF8061068
:101B6000C1800AB010BD0000006400409000002059
:101B700000680040FC45002070477047704770B512
:101B8000044690F82000012804D0606A40F4002048
:101B9000606217E0022084F820002068016821F0CC
:101BA0000101016000F0D0FA05460DE000F0CCFA2A
:101BB000401B0A2808D9606A40F4003060620520A2
:101BC00084F82000012070BD20684068C007EDD176
:101BD000606270BD704770477047704770477047CC
:101BE00070472DE9F0410446876D00F0ADFA0546D7
:101BF00094F835000026022806D08020606584F81D
:101C000034600120BDE8F0812068016821F01601F0
:101C100001602068416921F080014161206C08B9B0
:101C2000A06C20B12068016821F0080101602068E3
:101C3000016821F0010101600CE000F085FA401B11
:101C4000052807D920206065032084F8350084F832
:101C50003460D7E720680068C007EED194F85C10C4
:101C60003F208840B860012084F8350084F8346053
:101C70000020C7E790F83510022903D08021416584
:101C800001207047052180F835100068016821F0B7
:101C900001010160002070472DE9F84304464FF030
:101CA0000009CDF8009063484FF41651A56D006807
:101CB000B0FBF1F72E6894F85C20082101FA02F0DD
:101CC00030420FD02068026852070BD5026822F01C
:101CD0000402026094F85C008140A960606D40F0ED
:101CE0000100606594F85C104FF0010808FA01F0FB
:101CF000304208D021684969090604D5A860606DA2
:101D000040F00200606594F85C1004208840304286
:101D100008D021680968890704D5A860606D40F083
:101D20000400606594F85C1010208840304218D0A0
:101D300021680968090714D5A8602068016849036B
:101D400004D50068000308D5A16C07E00168C90547
:101D500003D4016821F008010160216C09B120461B
:101D6000884794F85C1020208840304231D02168A8
:101D70000968C9062DD5A86094F8350005282068A3
:101D8000016806D0490347D5006800031DD4616C83
:101D90001CE021F0160101602068416921F08001FA
:101DA0004161206C08B9A06C20B12068016821F065
:101DB0000801016094F85C103F208840A86084F816
:101DC000358084F83490216D1FE0E16B09B1204625
:101DD0008847606D00282BD0606DC00714D00520A7
:101DE00084F835002068016821F001010160009845
:101DF000401C0090B84203D820680068C007F6D1A4
:101E000084F8358084F83490E16C002910D001B05A
:101E10002046BDE8F04308470168C905D5D40168EC
:101E200021F01001016084F8358084F83490CCE70B
:101E3000BDE8F883200000202DE9F041044600F0C1
:101E400083F905465CB1022084F83500002684F849
:101E500034602068016821F0010101600DE001207B
:101E6000BDE8F08100F070F9401B052805D920205D
:101E70006065032084F83500F2E720680068C00739
:101E8000F0D121680A6820480240D4E901031843D0
:101E9000D4E903352B43184363691843A3691843F6
:101EA000E3691843236A18431043626A042A03D182
:101EB000D4E90B231A431043086020684069656A1F
:101EC00020F0070128460D43012704280CD1A06A01
:101ED0000543E06A40B12046FFF788F820B1402072
:101EE000606584F83570BAE7206845612046FFF7E1
:101EF00069F894F85C203F2191408160666584F820
:101F000035700020ACE700003F8010F02DE9F04173
:101F10000446866D90F83400002501280DD001207C
:101F200084F8340094F835700020012F07D084F82D
:101F3000340002252846BDE8F0810220FBE7022795
:101F400084F8357060652046FFF77AF894F85C10E5
:101F50003F208840B0602068016841F016010160B0
:101F6000206C20B12068016841F008010160206800
:101F7000016841F001010160DCE700002DE9F84F44
:101F8000DFF890910022A9F1040B03274FF00F0C0A
:101F900009F1040AABF1040E01250B6895402B40B2
:101FA000AB426ED10C7904F00304012C01D0022C59
:101FB00015D18668540007FA04F826EA0806D1F815
:101FC0000C8008FA04F848EA0608C0F8088044685B
:101FD000AC430D79C5F300159540254345600C7958
:101FE000E443A40708D0C568540007FA04F6B543D3
:101FF0008E68A6402E43C6600C7904F00304022CC0
:1020000011D1D40800EB8406356A5407E40E0CFAAB
:1020100004F825EA0805D1F8108008FA04F848EA1F
:102020000508C6F820800568540007FA04F6B54391
:102030000E7906F00306A6402E4306604C6814F4A1
:10204000403F61D0344C256845F4804525602468C4
:1020500022F0030504F480440094304C05EB04089E
:10206000D8F808589407260F0CFA06F4A5432C4C10
:10207000A04201D100241FE02A4CA04202D1012439
:102080001AE041E0284CA04201D1022414E0274C80
:10209000A04201D103240FE0254CA04201D1042429
:1020A0000AE0244CA04201D1052405E0224CA042C4
:1020B00001D1062400E00724B4402C43C8F80848A6
:1020C000D9F800404D464E689C43F60200D51C43AB
:1020D0002C60DAF8004055464E689C43B60200D5A5
:1020E0001C432C60DBF800405D464E689C43B60301
:1020F00000D51C432C60DEF8004075464E689C43BA
:10210000F60300D51C432C60521C102AFFF444AF88
:10211000BDE8F88F083C01404438024000300140DF
:10212000000002400004024000080240000C02408F
:102130000010024000140240001802400AB1816100
:1021400070470904FBE70000014880687047000001
:1021500014000020024881680278114481607047B1
:10216000140000200B4810B5016841F400710160B3
:10217000016841F480610160016841F4807101608F
:10218000032000F073F80F2000F006F800F024F8A8
:10219000002010BD003C024070B50D4D04464FF4C8
:1021A0007A712878B1FBF0F00A490968B1FBF0F0C8
:1021B00000F022FE48B9102C07D200222146501E02
:1021C00000F034F800206C6070BD012070BD00008C
:1021D00014000020200000200C4882B0016841F467
:1021E00080410160006800F4804000900748001FB3
:1021F000016841F0805101600068002200F08050C9
:1022000000900F21901E02B000F010B84438024038
:10221000002809DB00F01F020121914040098000E5
:1022200000F1E020C0F8001170470000F0B40E4B40
:102230001B68C3F30223C3F10704042C00D9042450
:102240001D1D072D01D2002300E0DB1E012606FA2A
:1022500004F56D1E0D409D409E40761E164045EAD9
:102260000601F0BC02F00ABF0CED00E0064A00F0E7
:10227000070110684FF6FF03184040EA01200349A8
:1022800008431060704700000CED00E00000FA0504
:102290002DE9F84F044600250078F74F2E46C00779
:1022A00008D03868A16B20F0C06008433860A06B8C
:1022B00000B901252078800708D53868E16B20F047
:1022C000C05008433860E06B00B901252078400712
:1022D0000ED53868216B20F4401008433860206B1D
:1022E000B0F5801F01D010B102E0012500E0012609
:1022F000207800070ED53868616B20F44000084351
:102300003860606BB0F5800F01D010B102E001259C
:1023100000E0012620784FF0000A80064FF0010B04
:1023200061D5D5484C38016841F0805101600068A2
:10233000DFF8489300F080500090D9F8001041F485
:102340008071C9F80010FFF7FFFE804605E0FFF737
:10235000FBFEA0EB0800022876D8D9F80000C005E3
:10236000F5D5DFF81493A9F11C09D9F8000010F491
:10237000407024D0B4F8401001F4407181421ED066
:10238000D9F80010BE4A21F44071C2F800B0C2F87A
:1023900000A0C9F80010D9F80000C0070FD0FFF75F
:1023A000D3FE804607E0FFF7CFFEA0EB080141F225
:1023B00088308142D0D8D9F800008007F3D5206C4E
:1023C000AD49C0F301228439032A35D0086820F4CE
:1023D000F8100860D9F80010B4F84020C2F30B02DE
:1023E0001143C9F800102078C00604D5A54994F817
:1023F0005800C1F8E00120780106A34805D501681E
:10240000E26C21F44001114301602178490605D5B1
:102410000168A26C21F08061114301602188C90527
:1024200014D50168626D21F0006111430160616D96
:10243000B1F1006F09D009E00A68944B22F4F81258
:10244000184002430A60C5E715E101262188890585
:1024500005D50168626C21F080511143016021882B
:10246000DFF82C92490509D50168226D21F0005151
:1024700011430160206DB0F1005F04D01DB92068E8
:10248000B0F5006F7ED18349C1F868A0FFF75CFE0C
:10249000794D80468C3D05E0FFF756FEA0EB080025
:1024A000022887D828680001F6D420687A49C20734
:1024B00001D0A26B1AB1800717D5E06BA8B90868E4
:1024C0000A68C0F30140401CD4E9013C43EA8C1384
:1024D00020F0004CC2F3036209EB0C4040EA0260BA
:1024E0000343207D43EA007008602068420703D55B
:1024F000226BB2F5801F05D0000721D5606BB0F5C7
:10250000800F1DD108680A68C0F30140401CD4E95F
:10251000013C43EA8C1320F0004C09EB0C4094F88A
:1025200010C0C2F3027240EA0C60034343EA027037
:1025300008603868A26A20F01F00521E10433860FD
:10254000208840051AD5206DB0F1005F16D10868CB
:102550000A68C0F30140401CD4E9013C43EA8C13F3
:10256000D4F80CC0C2F302724FEA5C0809EB084CC5
:102570004CEA4060034343EA02700860208800058B
:1025800011D500E01FE0D4E9010240EA8210E268C0
:10259000530809EB0342237C42EA03621043227D85
:1025A00040EA027008603B48C0F868B0FFF7CCFD15
:1025B000804605E0FFF7C8FDA0EB0800022874D8AC
:1025C00028680001F6D5EEB3DFF8C880C8F870A01F
:1025D000FFF7BAFD304D0646843D04E0FFF7B4FD39
:1025E000801B022861D82868C0438000F6D5206887
:1025F0002A49420701D5226B1AB100071DD5606B2D
:10260000D8B90868D4E90623C0F30140401C42EA67
:10261000831220F0004309EB034094F8243040EA91
:10262000036002430A603868E26A6FF0FF0320F437
:10263000F85003EB0222104338602088C00514D5FF
:10264000606D00E038E0B0F1006F0ED10868D4E9A9
:10265000062342EA8312236AC0F303605C0809EB95
:10266000044343EA006002430A60C8F870B0FFF711
:102670006BFD04461CE018E08C38024000700040FE
:10268000400E47420010474294380240FFFCFF0FC3
:102690000000FFFF000047428438024088380240B3
:1026A000FFF752FD001B022802D90320BDE8F88F76
:1026B0002868C0438000F3D40020F7E72DE9F047F5
:1026C0000D46040065D0DFF81491D9F80000EFB290
:1026D00000F00F00A84207D289F80070D9F8000076
:1026E00000F00F00A84254D120683D4E810712D55A
:1026F000400703D5306840F4E05030602078000790
:1027000003D5306840F4604030603068A16820F044
:10271000F000084330602078C0072DD03049606851
:102720000839012812D0022813D0032811D00968D3
:10273000890700292DDA316821F003010143316056
:10274000FFF702FD804641F2883A0EE009688903EE
:10275000EFE709688901ECE7FFF7F6FCA0EB080159
:10276000514502D90320BDE8F0873068616800F068
:102770000C00B0EB810FEFD1D9F80010484601F002
:102780000F01A94207D90770006800F00F00A842A6
:1027900001D00120E7E72078400705D53068E168DF
:1027A00020F4E050084330602078000706D53068F8
:1027B000216920F4604040EAC100306000F038F840
:1027C0003168084AC1F30311515CC84006490860EA
:1027D00006480068FFF7E0FC0020C4E7003C024028
:1027E00008380240E47A0008200000201800002089
:1027F0000448054900680968044AC1F38221515C14
:10280000C84070472000002008380240F47A0008D1
:102810000448054900680968044AC1F34231515C23
:10282000C84070472000002008380240F47A0008B1
:10283000224810B5006810F00C01214815D0214B3A
:10284000042911D01D4C241F08290FD00C290CD1AC
:10285000216801F03F022168490221D52068C0F3B8
:102860008810A0FB030120E0184610BD216801F08C
:102870003F022168490205D52068C0F38810A0FBFB
:10288000030104E02168C1F38811A1FB00010023CA
:10289000FDF794FD2168C1F30141491C49000AE09C
:1028A0002168C1F38811A1FB00010023FDF786FD1B
:1028B0002168C1F30271B0FBF1F010BD083802408D
:1028C0000024F400001BB7002DE9F84F040078D075
:1028D0002078DB4EC007A6F104054ED0301D0168FC
:1028E000C1F3810101290FD00168C1F381010229DF
:1028F00002D13168490207D40068C0F3810003287F
:1029000009D13068400206D52868800335D5606853
:102910000028DCD031E06068B0F5803F10D0B0F521
:10292000A02F286810D020F480302860286820F478
:10293000802028606068A0B1FFF706FC07460CE025
:10294000286840F48030F4E740F480202860F7E7FE
:10295000FFF7FAFBC01B642875D828688003F7D5F9
:102960000BE0FFF7F1FB074604E0FFF7EDFBC01BB0
:102970006428F1D828688003F7D42078DFF8C4A24F
:1029800080074FF0000B44D5AD48001D016811F0E1
:102990000C0F0FD00168C1F38101022902D1316807
:1029A000490207D50068C0F3810003280AD13068C6
:1029B000400207D42868800715D5E068012800D1B7
:1029C00011E038E1E068B0B10120CAF80000FFF77B
:1029D000BBFB074604E0FFF7B7FBC01B0228BBD8D0
:1029E00028688007F7D52868216920F0F80040EAB8
:1029F000C10028600DE0CAF800B0FFF7A5FB07464C
:102A000004E0FFF7A1FBC01B02281CD82868800740
:102A1000F7D42078000726D5DFF824828A48616938
:102A200008F1700881B101210160FFF78DFB0746B5
:102A300004E0FFF789FBC01B022804D8D8F8000087
:102A40008007F6D50FE089E0C0F800B0FFF77CFB07
:102A5000074604E0FFF778FBC01B02287ED8D8F8B1
:102A600000008007F6D42078400769D574484FF0FD
:102A700000093C300068C0000BD471483C3001684C
:102A800041F08051016000684FF0010900F0805072
:102A900000906E480168C90511D40168804641F470
:102AA00080710160FFF750FB074604E0FFF74CFB25
:102AB000C01B022852D8D8F80000C005F6D5604FD8
:102AC000A0686C3701280FD00528386810D020F096
:102AD00001003860386820F004003860A068B8B1A0
:102AE000FFF732FB80460FE0386840F00100F4E762
:102AF00040F004003860F7E7FFF726FBA0EB080181
:102B000041F28830814263D838688007F4D50EE0FE
:102B1000FFF71AFB804607E0FFF716FBA0EB080162
:102B200041F28830814253D838688007F4D4B9F133
:102B3000000F05D042483C30016821F0805101600F
:102B4000A069B0B33E49091D0968C1F3810102299A
:102B500045D00228CAF860B005D000E038E0FFF7A1
:102B6000F3FA044637E0FFF7EFFA074604E0FFF711
:102B7000EBFAC01B02282BD828688001F7D4F4E9AF
:102B800007010843E168324A490802EB0141A268A3
:102B900041EA82110843217C40EA0160217D40EA3C
:102BA000017030600120CAF86000FFF7CDFA0446DA
:102BB00005E042E0FFF7C8FA001B022808D82868A1
:102BC0008001F7D539E0FFF7BFFA001B022802D9D0
:102BD0000320BDE8F88F28688001F4D42DE0012897
:102BE000F7D03068E26900F48001914223D1226A73
:102BF00000F03F0191421ED147F6C071626A014068
:102C0000B1EB821F17D1A26A4FF0FF3300F44031BD
:102C100003EB5202B1EB024F0DD194F82C2000F0DF
:102C20007061B1EB026F06D194F8301000F0E04013
:102C3000B0EB017F01D00120CBE70020C9E7000005
:102C40000438024000004742800E474200700040B6
:102C50000000FFFF10B500680B4641680D480140B9
:102C6000080CD870C1F304245C7001F03F049C7020
:102C7000C1F34231197052B901F0CCFAD8705878CA
:102C800001F0C8FA5870987801F0C4FA98700020E2
:102C900010BD00003FFFFF0010B50B460168896AB8
:102CA000596001680969C1F30E0199600068016803
:102CB0000D480140C1F305401870C1F306245C7053
:102CC00001F07F049C70890DD97052B901F0A2FA0D
:102CD0001870587801F09EFA5870987801F09AFAB6
:102CE0009870002010BD00007F7F7F0010B50400A9
:102CF00002D0607F10B106E0012010BD00202077D7
:102D0000204600F041F8022060772068C168C9437E
:102D1000C90632D5CA214162216853204862204643
:102D200001F081FA20BB20688168164A1140816059
:102D30002068816862681143D4E904231A4311436F
:102D400081602168E068086120680169228941EAA0
:102D500002410161204601F089FA48B921680A6CF4
:102D600022F480220A6421680A6CA3691A430A6467
:102D70002268FF21516208B110BD00200121617756
:102D800010BD0000BFFF8FFF10B598B004465C2156
:102D90006846FDF720FC0949206888420CD12020B4
:102DA0000090000110906846FFF772FA08B1FEF734
:102DB00004FA03490120086018B010BD0028004043
:102DC0003C0E474270B505460A482968C860FFF7BF
:102DD000BBF904464FF47A7606E0FFF7B5F9001B1D
:102DE000B04201D9032070BD2868C0688006F4D5C0
:102DF000002070BD5F7F010010B5401EB0F1807FE4
:102E000001D3012010BD4FF0E02460610F21601755
:102E100002F034F90020A06107202061002010BDDD
:102E20007047704770B590F83C20012A32D00125D8
:102E300080F83C50022280F83D2002685368946874
:102E400023F070060B6833435360134B02689A42B9
:102E500014D0B2F1804F11D0104B9A420ED0104BCB
:102E60009A420BD00F4B9A4208D00F4B9A4205D092
:102E70000E4B9A4202D00E4B9A4204D1496824F07C
:102E800080031943916080F83D50002180F83C1088
:102E9000084670BD022070BD0000014000040040E3
:102EA00000080040000C00400004014000400140C8
:102EB0000018004010B5040003D094F83D0010B194
:102EC00007E0012010BD002084F83C00204600F0FF
:102ED0001FF8022084F83D00211D206801F054FAFB
:102EE000012084F8460084F83E0084F83F0084F80E
:102EF000400084F8410084F8420084F8430084F8DC
:102F0000440084F8450084F83D00002010BD000016
:102F100008B500680B49884212D10B48016841F09E
:102F2000040101600068002200F004000090052107
:102F30001E20FFF77BF9BDE808401E20FFF768B9A7
:102F400008BD0000000800404038024070B504464B
:102F500090F83C000025012817D0012684F83C6039
:102F6000022084F83D002068826822F0770222F473
:102F70007F4282600868502838D00DDC20284FD06E
:102F800005DC90B3102811D14AE0022070BD302832
:102F900046D040280AD13BE060282FD070280DD0C1
:102FA000B0F5805F03D0B0F5005F12D0012584F842
:102FB0003D60002084F83C00284670BDCB68D1E914
:102FC0000121206801F04CFA2068816841F0770106
:102FD00009E0CB68D1E90121206801F041FA2068BD
:102FE000816841F480418160E1E719E0CA6849687D
:102FF000206801F047FA5021206806E0CA68496855
:10300000206801F050FA6021206801F033FACEE721
:10301000CA684968206801F035FA40212068F4E761
:10302000226801461046F0E770472DE9F04104465A
:103030000068C66805694FF00007A90713D5B107F6
:1030400011D5F91E01610120207720688069800771
:10305000204602D0FFF7E8FF04E000F07EF82046AB
:1030600000F07CF82777680716D5700714D521681B
:103070006FF004000861022020772068806910F456
:10308000407F204602D0FFF7CFFF04E000F065F854
:10309000204600F063F82777280715D5300713D5A9
:1030A00021686FF008000861042020772068C0695B
:1030B0008007204602D0FFF7B7FF04E000F04DF88C
:1030C000204600F04BF82777E80616D5F00614D511
:1030D00021686FF010000861082020772068C0691F
:1030E00010F4407F204602D0FFF79EFF04E000F07E
:1030F00034F8204600F032F82777E80708D0F007C8
:1031000006D021686FF001000861204600F027F822
:10311000280608D5300606D521686FF080000861C2
:103120002046FFF77DFE680608D5700606D52168A3
:103130006FF040000861204600F012F8A8060AD59A
:10314000B00608D521686FF0200008612046BDE870
:10315000F041FFF766BEBDE8F081704770477047E9
:103160007047704710B504460068406994F84110F4
:10317000C0F3C010212911D180B12068143050E86B
:10318000001F21F0800140E80012002AF5D1A06B59
:1031900008B1FEF726FD204601F08EFA206840694E
:1031A00094F84210C0F38010222911D180B1206818
:1031B000143050E8001F21F0400140E80012002ABE
:1031C000F5D1E06B08B1FEF70CFD204601F04DFA99
:1031D000002010BD70470000F8B50168044608687B
:1031E000CA684B6910F00F0F4FF0000559D003F07B
:1031F000010602F49077374365D0C10705D0D105A9
:1032000003D5616C41F001016164410705D5D9071F
:1032100003D0616C41F002016164810705D5D907D3
:1032200003D0616C41F004016164010707D502F02D
:103230002001314303D0616C41F008016164616C8D
:1032400000293AD0800604D5900602D5204601F028
:1032500041FA20684069616CC0F38010090700D40E
:1032600060B3204601F001FA20684069400621D58C
:103270002068143050E8001F21F0400140E800129F
:10328000002AF5D1E06BA8B16E490165E06BFEF74D
:10329000F1FC002811D0E06B016D01B0BDE8F040F9
:1032A000084783060FD593060DD52046BDE8F840A4
:1032B00001F010BA2046FFF78DFFF8BD2046FFF75A
:1032C00089FF6564F8BD266B2023012E7DD1C606DB
:1032D0007BD5D60679D508684868009048694FF0D4
:1032E0000206400641D5E16B086840680004000C06
:1032F000E8D0A28D8242E5D9E085C869B0F5807F2B
:103300002DD020680C3050E8001F21F4807140E877
:103310000012002AF5D12068143050E8001F21F077
:10332000010140E80012002AF5D12068143050E86D
:10333000001F21F0400140E80012002AF5D184F876
:103340004230256320680C3050E8001F21F0100146
:1033500040E80012002AF5D1E06BFEF742FC6663FC
:10336000A08DE18D401A81B22AE0A08DE18D401A36
:1033700081B2E08D0028A5D00029A3D020680C30B0
:1033800050E8002F22F4907240E80027002FF5D17A
:103390002068143050E8002F22F0010240E8002796
:1033A000002FF5D184F84230256320680C3050E8B6
:1033B000002F22F0100240E80023002BF5D16663B5
:1033C0002046FFF7CEFEF8BDFFE705062BD5150614
:1033D00029D594F841002128F5D1A068B0F5805F87
:1033E00001D12069B0B1206A411C216221680078B6
:1033F0004860E08C401E0004000CE084E3D12068AB
:10340000C16821F08001C1602068C16841F04001BD
:10341000C160D8E7206A0088C0F308004860206ACD
:10342000801C2062E5E74006CDD55006CBD5CA68A2
:10343000204622F04002CA6084F8413000F076FA5B
:10344000C1E700002145000870B5040004D094F8DD
:103450004100002510B106E0012070BD84F8405005
:10346000204600F023F8242084F841002068C16839
:1034700021F40051C160204601F08EF920680169F5
:1034800021F4904101612068416921F02A014161E4
:103490002068C16841F40051C1606564202084F84F
:1034A000410084F842006563002070BD2DE9F04FB3
:1034B00087B0044614216846FDF78DF8DA48DFF836
:1034C000648310380221D4F800C0D74B03220025B2
:1034D0008E0607154FF0400A4FF48079C44570D12D
:1034E000D3F800C0A8464CF4801CC3F800C01B6889
:1034F00003F480130593036843F004030360036837
:1035000003F004030593036843F0080303600068B5
:10351000934600F008000590C802009001A902201F
:1035200081E82108082004906946C048FEF726FD7E
:103530000420009001A9022081E8210808200490BD
:103540006946BB48FEF71AFDDFF8ECB2B9495846A8
:10355000CBF80010C0E90165C0E90357CBF814505F
:10356000C0E90659CBF82050CBF82450FEF764FC94
:1035700008B1FDF722FEB04DAE48C4F83CB060354E
:10358000A830CBF8384085E84104C5E90387C5F881
:103590001480C5F81880C5F81C80C5F8208028461E
:1035A000C5F82480FEF748FC08B1FDF706FEA563C8
:1035B000002205213520AC63FEF738FE352061E09E
:1035C000FFE7DFF87882DFF878E24FF0070BC445B9
:1035D0005DD1954BA8461B1DD3F800C04CF0100CD4
:1035E000C3F800C01B6803F010030593036843F0A1
:1035F00001030360006800F0010005904FF4C06013
:103600008DE82300CDE9032B69467046FEF7B6FC32
:10361000DFF824B28B490BF1C00B5846CBF80010F1
:10362000C0E90165C0E90357CBF81450C0E9065959
:10363000CBF82050CBF82450FEF7FEFB08B1FDF785
:10364000BCFD8048804DC4F83CB07830CBF83840A1
:1036500085E84104C5E90387C5F81480C5E90689F2
:10366000C5F820802846C5F82480FEF7E5FB08B1A0
:10367000FDF7A3FDA563002205212520AC63FEF71D
:10368000D5FD2520FEF7C4FD07B0BDE8F08FDFF8BB
:10369000BC81C44551D1D3F800C04CF4003CC3F800
:1036A00000C01B6803F400330593036843F0010373
:1036B0000360006800F0010005900C208DE82300F5
:1036C000CDE9032B69467046FEF758FC5E48594920
:1036D000603078310160C0E90165C0E90357456198
:1036E000C0E90659B0460562BB464E464562FEF744
:1036F000A3FB08B1FDF761FD5348534F6030E06311
:103700008463C0374B48C7E902A5C7E904B5C7E9D8
:1037100006563D6290307D62C7E900083846FEF7E4
:103720008BFB08B1FDF749FDA76300220521262088
:10373000BC63FEF77BFD2620A4E7DFF81481C445B7
:10374000A2D1D3F800C0A8464CF4802CC3F800C026
:103750001B6803F480230593036843F004030360AC
:10376000036803F004030593036843F00203036056
:103770000068694600F002000590202000900220B9
:10378000CDE901050320CDE9030B2848FEF7F6FB40
:103790004FF4806702200097CDE901050320CDE9B1
:1037A000030B69462B48FEF7E9FB2249DFF8A8B076
:1037B00018315846CBF80010C0E90165C0E903573D
:1037C000CBF81450C0E90659CBF820504F46CBF83F
:1037D0002450FEF731FB08B1FDF7EFFC15481E4DF4
:1037E000C4F83CB048306035CBF8384085E8410437
:1037F0000115C5E90381C5F81480C5E90687C5F838
:1038000020802846C5F82480FEF716FB08B1FDF796
:10381000D4FCA563002205212720AC63FEF706FD3A
:1038200027202FE7005000404038024000080240A7
:10383000000C024010600240F4050020001001401E
:103840000000024040640240140700200044004091
:1038500000480040000402403408002090F8423044
:10386000202B01D00220704721B11AB1002303633D
:1038700001F018B8012070477047704737B504460B
:1038800090F84100202801D002203EBD019951B39B
:103890004AB32162A284E28400206064212384F878
:1038A0004130A56B114BEB63A56B114B2B64A56BE2
:1038B000104BEB64A36B186520681346A56B021DC3
:1038C0002846FEF723FB21686FF04000086020685F
:1038D000143050E8001F41F0800140E80012002A37
:1038E000F5D100203EBD01203EBD00001F4600086E
:1038F000614600083145000890F84130202B01D086
:103900000220704779B172B101628284C2840021C1
:103910004164212180F841100068C16841F08001B4
:10392000C1600020704701207047000010B50446B8
:1039300000680B4988420AD100224FF4004109482F
:10394000FEF7FCFB002208210748FEF7F7FB0748BB
:10395000844203D1BDE8104002F0F8B910BD000068
:10396000001001400008024000040240D40400207E
:103970007047FEE72DE9F0410F4680460026EEE055
:1039800018F80600A52870D108EB0604052120468A
:1039900001F09AF9002868D06078A17840EA012502
:1039A00070190930B842EAD8204605F1090101F042
:1039B0006DF90028EFD06079A17940F2052240EA44
:1039C0000120A0F20521904274D025DCB0F5827F61
:1039D00058D00EDC032842D004DC01282FD0022866
:1039E00039D131E0A0F5807001383FD0012832D1C3
:1039F00042E040F20222A0F20221904254D006DCC2
:103A0000A0F58070053843D0FC2824D146E0012978
:103A100051D002291FD154E0062970D006DC0629B6
:103A200019D2DFE801F0185A60666E7407297CD05D
:103A3000082972D0092971D0FE290CD187E00B2505
:103A4000E11D2A46494804E048480125E11D2A466F
:103A50000B30FCF749FD70190930C6B27FE0202514
:103A60004248E11D2A460C30F3E776E004253F4842
:103A7000E11D2A462C30ECE704253C48E11D2A468E
:103A80003030E6E703253948E11D2A463430E0E7C7
:103A900003253648E11D2A463730DAE70D2533483D
:103AA000E11D2A463A30D4E710253048E11D2A4668
:103AB0004730CEE70BE00C252C48E11D2A46573055
:103AC000C7E706252948E11D2A466330C1E70225DC
:103AD0002648E11D2A466930BBE701252348E11D40
:103AE0002A466B30B5E707252048E11D2A466C3091
:103AF000AFE706251D48E11D2A467330A9E70EE011
:103B000013E004251948E11D2A467930A1E706256E
:103B10001648E11D2A467D309BE70CE011E0282580
:103B20001248E11D2A46833093E706250F48E11D20
:103B30002A46AB308DE704250C48E11D2A46B130FA
:103B400087E701250948E11D2A46B73081E70125AD
:103B50000648E11D2A46B8307BE7761CF6B2BE4225
:103B6000FFF40EAFBDE8F04101F00CB8BC490020F5
:103B70002DE9F0411F4C8046A52004F8010B1E4E94
:103B80000A25258070780F46A070FF22042119486D
:103B9000FDF7C2FBE07040F20130A080E78048F200
:103BA000800060811348B11CDB3040782081002008
:103BB000C6F80280641E0A5C2318401C5A7304284D
:103BC000F9DB4FF6FF72E91D0A48FDF78FFBA4F8F9
:103BD000110002E0012002F095F930780028F9D1B7
:103BE00005F10901034800F057FB7078401C707024
:103BF000BDE8F081A44900200C010020054888217F
:103C00000170002141708170C17001714171817139
:103C1000C1717047B80100200F4810B50D4901600F
:103C20000321416000214FF410228160C0E903129A
:103C30004FF400124261017641768176C1760177B8
:103C40004177FDF7F0FD002803D0BDE81040FDF7F7
:103C5000B4BA10BD006400401C0400200F4810B529
:103C60000D4901600321416000214FF41022816061
:103C7000C0E903124FF40012426101764176817669
:103C8000C17601774177FDF7CEFD002803D0BDE86E
:103C90001040FDF792BA10BD0068004044040020B7
:103CA000294808B5016841F400110160016801F478
:103CB00000110091016841F4800101600068002258
:103CC00000F48000009005210B20FEF7AFFA0B20D6
:103CD000FEF79EFA002205210C20FEF7A7FA0C2021
:103CE000FEF796FA002205210E20FEF79FFA0E201D
:103CF000FEF78EFA002205211020FEF797FA102019
:103D0000FEF786FA002205211120FEF78FFA112016
:103D1000FEF77EFA002205212F20FEF787FA2F20DA
:103D2000FEF776FA002205213A20FEF77FFA3A20C4
:103D3000FEF76EFA002205214620FEF777FABDE86D
:103D400008404620FEF764BA3038024010B59CB0F7
:103D50001C2216496846FCF70CFC0021684602F05C
:103D6000DDF8134C11491C2220601C3107A8FCF718
:103D700000FC002107A802F0D1F80C4960601C2269
:103D800038310EA8FCF7F5FB00210EA802F0C6F8AA
:103D90000649A0601C22543115A8FCF7EAFB00215B
:103DA00015A802F0BBF8E0601CB010BD6C7A0008EA
:103DB00000000020F0B587B014216846FCF70BFC2A
:103DC00026480025016841F004010160016801F006
:103DD00004010591016841F080010160016801F072
:103DE00080010591016841F001010160016801F065
:103DF00001010591016841F002010160016801F0D3
:103E000002010591016841F0080101600068144E4B
:103E100000F008004FF4004405900022214630468F
:103E2000FEF78CF90F4F002208213846FEF786F97D
:103E300000940124694630460194CDE90245FEF71D
:103E40009DF80820CDE900040220CDE90240694632
:103E50003846FEF793F807B0F0BD00003038024056
:103E600000080240000402400B4810B509490160F7
:103E700000217F22C0E90112FF22C0E90321416134
:103E80008161FEF733FF002803D0BDE81040FDF745
:103E900094B910BD002800406C04002010B586B015
:103EA0000024174800940194029403940494134945
:103EB0000594016040F24731C0E901146321C0E973
:103EC000031480218161FEF7F5FF08B1FDF775F954
:103ED0004FF48050009069460948FFF737F808B161
:103EE000FDF76BF9049404A905480594FEF79AFFC1
:103EF000002801D0FDF761F906B010BD00080040B0
:103F00008C0400200C4810B50A4901604FF4E131DF
:103F10004160002181600C22C160C0E9041281610E
:103F2000C161FFF791FA002803D0BDE81040FDF70A
:103F300044B910BD00500040D40400200C4810B516
:103F40000A4901604FF4E1314160002181600C2297
:103F5000C160C0E904128161C161FFF775FA0028F0
:103F600003D0BDE81040FDF728B910BD0010014096
:103F70001C0500200C4810B50A4901604FF4E131DE
:103F80004160002181600C22C160C0E9041281619E
:103F9000C161FFF759FA002803D0BDE81040FDF7D2
:103FA0000CB910BD00440040640500200C4810B559
:103FB0000A4901600B494160002181600C22C16007
:103FC000C0E904128161C161FFF73EFA002803D005
:103FD000BDE81040FDF7F1B810BD000000480040FA
:103FE000AC050020A0860100FEE770B50446002065
:103FF0002DED028B0D46024634F91010002934F9DC
:10400000101000DC494209B2914200DD0A46401C12
:10401000C0B20428F0D3AA4222DD104603F019FAF8
:1040200041EC180B284603F014FA53EC182B03F05C
:104030004DF802F065FF00EE100A002034F9101070
:1040400000EE901AF8EEE00A60EE800AFDEEE00A5B
:1040500010EE901A24F81010401CC0B20428EDD3C2
:10406000BDEC028B70BDFEE72DE9FE4F604C614D4B
:104070004FF05A0884F8008095F82B0001220021A7
:10408000042803D0617002287ED000E0627084F8BA
:10409000381095F84C0084F83900029095F82EC03D
:1040A00084F802C0B5F83F70A780B5F84160E6809B
:1040B00015F82F3F237295F8019084F80990CDF8F8
:1040C000049035F82D9CA4F80A90CDF80090B5F82E
:1040D0000490A4F80C90CE46B5F80290A4F80E9087
:1040E000CB4635F82B9CA4F810902A89628242486E
:1040F000E988A18290ED000B404884ED080BCA4688
:1041000090ED000A3E4884ED060A90ED000A84ED29
:10411000070A6869A062A869E062287F84F8300015
:1041200055F8115C6563374D95ED000AAA2584EDBD
:104130000F0A84F831502E4D803D05F8018B94F81C
:10414000018085F8008085F801C06F80AE80AB717A
:10415000DDF8049085F80790DDF80090A5F8089048
:10416000A5F80AE0A5F80CB0A5F80EA02A8269828D
:10417000216A6961616AA961A169E961E1692962EC
:10418000A16A6962E16A00E02EE045F8281F4FF657
:10419000FF722871606B45F8050F94F8380028719C
:1041A00002986871E06BC5F8060011483821803824
:1041B000FDF79CF8E082688194F8310028730122B1
:1041C000D1031148FDF7BAFF012208210F48FDF77E
:1041D000B5FF0749802280390D48FFF78DFBBDE808
:1041E000FE4F052001F08EBE84F8382051E7000014
:1041F000E04B00207F4A0020B80000209C000020F7
:10420000A0000020A400002000080240000402409A
:104210001C050020010901EB810100F00F0000EBFB
:104220004100C0B270472DE9F04105460068002406
:10423000C168490617D4C16841F08001C160FDF72B
:1042400083FF06464FF47A78042706E0FDF77CFFEB
:10425000801B404501D96F7701242868C06840065B
:1042600001D4002CF2D02046BDE8F08170B50446A0
:1042700000680025C16821F08001C1602068806865
:10428000800606D42046FEF79DFD10B1042060771D
:104290000125284670BD0000034B0A460121197014
:1042A00001460248FFF7EABA0C010020D4040020BE
:1042B000012001F027FEFBE710B5FDF74BFF02F0F0
:1042C00081FC012803D0BDE8104002F00BBC10BDFA
:1042D00030B593B034216846FCF77DF914210DA860
:1042E000FCF779F91F480025016841F08051016011
:1042F000006800F0805012901B48016841F4404172
:1043000001600068022400F44040129009200090EF
:104310004FF48030CDE901050120CDE90504800589
:10432000079006200890A820CDE909040B94684660
:104330000C94FEF7C9FA08B172B6FEE70DA90F207A
:1043400081E831004FF4A05010904FF4805011904C
:1043500005210DA8FEF7B2F9002801D072B6FEE7DC
:1043600013B030BD40380240007000400248016880
:1043700041F470010160704788ED00E00148FEF7EC
:1043800054BE00008C040020F0B50268294D2A4E6E
:104390002A4FDFF8ACC02B4B4FF0804EA84209D01B
:1043A000704507D0B04205D0B84203D0604501D077
:1043B000984203D122F070044A682243A8421BD0DD
:1043C000704519D0B04217D0B84215D0604513D00F
:1043D000984211D01C4CA0420ED01C4CA0420BD0D5
:1043E0001B4CA04208D01B4CA04205D01A4CA04246
:1043F00002D01A4CA04203D122F44074CA6822436E
:104400004C6922F08002224302608A68C2620A6814
:104410008262A84201D0984201D109690163012159
:1044200041610169C90703D0016921F001010161FE
:10443000F0BD000000000140000400400008004002
:10444000000C0040000401400040014000440140D5
:104450000048014000180040001C004000200040BF
:1044600010B5846842EA032224F47F440A432243BD
:10447000826010BD826822F070020A4342F0070198
:104480008160704710B5046A036A23F00103036278
:10449000836923F0F00343EA021324F00A020A437B
:1044A0008361026210BD10B5036A046A24F010042F
:1044B0000462846923F0A00324F4704444EA0232C5
:1044C00043EA01118261016210BD000010B5044889
:1044D000FCF7CAFDBDE810400148FEF77DBE0000B4
:1044E000D40400200C4A08B51068016841680091A6
:1044F000C16841F01001C1601068416941F040019C
:104500004161C8200090054B1168D06BA3F1C8022F
:10451000091DFCF735FC08BDD40400201C47002011
:1045200010B5806B0021C185C184FEF753FE10BD1C
:1045300070B5846B2068406994F84110C0F3C010D6
:104540000025212904D118B1E584204600F0B4F8F3
:104550002068406994F84210C0F38010222904D1E9
:1045600018B1E585204600F080F8606C40F010003E
:1045700060642046FEF72EFE70BD10B50146806BCC
:10458000096809684FF00003C9052ED4C385016886
:104590000C3151E8002F22F4807241E80024002CF5
:1045A000F5D10168143151E8002F22F0010241E8F1
:1045B0000024002CF5D10168143151E8002F22F0BD
:1045C000400241E80024002CF5D1202180F842105F
:1045D000016B012909D101680C3151E8002F22F04B
:1045E000100241E80024002CF5D14363016B01293E
:1045F00002D0FFF741F910BD818DFEF7B2FD10BD6D
:1046000010B5806B01214163016B012902D0FFF7D6
:1046100034F910BD818D4908FEF7A3FD10BD10B51A
:104620000146806B09680968C90516D40021C18458
:104630000168143151E8002F22F0800241E8002384
:10464000002BF5D101680C3151E8002F42F04002F7
:1046500041E80023002BF5D110BDFFF767F910BD2D
:1046600010B5806BFFF784F910BD01680C3151E87B
:10467000002F22F4907241E80023002BF5D101684D
:10468000143151E8002F22F0010241E80023002BF1
:10469000F5D1016B012909D101680C3151E8002FD6
:1046A00022F0100241E80023002BF5D1202180F8F0
:1046B000421000210163704701680C3151E8002F5E
:1046C00022F0C00241E80023002BF5D1202180F820
:1046D0004110704708B590F84210222901D00220FD
:1046E00008BD81684FF48053994201D1026922B11B
:1046F000826A99421BD049B10AE00268816A526815
:10470000C2F308020A80816A891C08E0016971B15C
:104710000168496801F07F011170816A491C81625A
:10472000C18D491E0904090CC18503D01BE0016835
:104730004968F1E70168CA6822F02002CA6001688E
:10474000CA6822F48072CA6001684A6922F00102D4
:104750004A61202180F8421000214163026B012A46
:1047600003D0FFF789F8002008BD016301680C3110
:1047700051E8002F22F0100241E80023002BF5D170
:1047800001680A68D20602D50A6849680091818DDD
:10479000FEF7E7FCE7E7000070B504460068016932
:1047A000E26821F4405111430161A1682069E26986
:1047B00001436069104301432068C26849F20C63F9
:1047C0009A430A43C26020684169A26921F440719A
:1047D0001143416131492068884202D03049884202
:1047E00002D1FEF715F801E0FEF702F8E2690023B6
:1047F000192164253226B2F5004F626828D0A0FB4B
:104800000101930F9200FBF7D9FD0146B0FBF5F0D3
:104810006FF01802504301EB800006EB0010B0FB74
:10482000F5F000F0F002B1FBF5F002EB0012B1FB85
:10483000F5F06FF01803584301EB800006EB001011
:10484000B0FBF5F000F00F0021681044886070BDE7
:10485000A0FB010192185B41FBF7B0FD0146B0FBE4
:10486000F5F00201B1FBF5F06FF01803584301EBCE
:10487000800006EBC000B0FBF5F000F0F80002EBA2
:104880004002B1FBF5F0584301EB800006EBC0009D
:10489000B0FBF5F000F00700D6E700000010014083
:1048A0000014014037B582B01346039A8262044671
:1048B000838500206064222184F84210E56B1B4947
:1048C000E963E56B1A492964E56B1A49E964E16B10
:1048D00008652168E06B091DFDF718FB2068016879
:1048E00040680090206948B120680C3050E8001FF3
:1048F00041F4807140E80012002AF5D1206814309C
:1049000050E8001F41F0010140E80012002AF5D1F3
:104910002068143050E8001F41F0400140E80012C8
:10492000002AF5D105B0002030BD00007B4500080D
:10493000014600083145000810B50448FCF79EFB0D
:10494000BDE810400148FEF747BC00001C050020F0
:1049500010B500224FF400410A48FDF7EFFB00229A
:1049600008210948FDF7EAFB08480068C16841F0E2
:104970001001C160BDE810404FF480720449034843
:10498000FEF76CBF00080240000402401C05002036
:10499000E44700200148FEF71FBC0000640500202A
:1049A00010B50448FCF7F6FBBDE810400148FEF7DF
:1049B00013BC0000AC0500200C4A08B51068016863
:1049C00041680091C16841F01001C16010684169FF
:1049D00041F04001416112200090054B1168D06BFD
:1049E000A3F11802091DFCF7CBF908BDAC050020A6
:1049F0008C49002070B504460088604DC0F30A065B
:104A00002E806078A178C00840EA4110C0F30A0106
:104A10006980A078E278800940EA82002279A6F5D0
:104A2000806640EA8220C0F30A00A8802279637978
:104A3000520842EAC312C2F30A02EA806379A1F57E
:104A40008061C3F30113AB726379A0F580609B09A9
:104A5000EB72E388AB812389EB8163892B82237B13
:104A6000AB74637BEB74E389AB82238A2E8069800D
:104A7000A880A2F58062EA80A3F58063404A2B817A
:104A80000020C10772D0411E01EBD17121F001015C
:104A9000495D1154401C0828F3DB3021384801F0EF
:104AA00023F828893649020A08310A704870022022
:104AB0002A18127A0A54401C0428F9DBA88A020A30
:104AC0000A7148712E483121083001F00DF82C4848
:104AD000A98910300A0A02704170E9890A0A8270B5
:104AE000C170298A0A0A02714171A97C8171E97C2D
:104AF000C171322100F0F8FF2148A17B223801F07A
:104B00000102428001F00202828001F00402C280B0
:104B100001F00802028101F04002428101F08002AE
:104B2000828101F01002C28101F020010182A97C82
:104B30000170E97C4170A98A01F48072428201F41B
:104B40000072828201F48062C28201F400620283F8
:104B500001F48052428301F40052828301F48042C6
:104B6000C28301F40041018470BDFFE700EBD07106
:104B700021F0010129440988090A8AE73C460020FE
:104B8000E20000203F4910B501F1C80091F83F2034
:104B9000427091F8403000F8113BB1F85430438036
:104BA0000B6D4360B1F8493020F8013CB1F8563044
:104BB0000381B1F85830438191F87230437091F815
:104BC000733003734B6FC0F80D30B1F87830C38584
:104BD000B1F87C30038691F83630837791F838301D
:104BE000C37791F8703010F8114F63F303041B0979
:104BF00063F3071400F8094B4B791B0900F8013BDC
:104C0000CB8820F80F3BD1F8313040F83B39072AE8
:104C100002D06B2A06D00CE0012280F82E20B0F8DA
:104C2000332004E0022280F82E20B0F83720A0F8CC
:104C3000392031F81B2F42804A88A0F833208A8817
:104C4000A0F831200A8A82804A8AA0F837208A8A0E
:104C5000A0F83520D1F8A220C0F84320D1F8A62032
:104C6000C0F8472091F8AA2080F84B20D1F86320A3
:104C7000C0F8232091F89F1001F0080180F84C1033
:104C800010BD0000B7490020FEE7000030B50C461B
:104C9000050014D0022C12D90A48A11E0288284609
:104CA000FCF724FB2919C2B211F8023C9A4206D142
:104CB00011F8011CB1EB102F01D1012030BD0020F3
:104CC00030BD00001201002030B50C4605000CD0AC
:104CD000022C0AD9FF22611EFCF71EFB291911F8CC
:104CE000011C814201D1012030BD002030BD0000F7
:104CF00010B50A480A4C006802F03CFE9FED091B03
:104D000053EC112B02F00CFC9FED081B53EC112B04
:104D100002F0DCF902F0F4F8206110BDA0010020DF
:104D2000180100204AD8124DFB2109400000000064
:104D3000008066402DED088BFEF760FF02F096F8CC
:104D4000AA4C4FF0000840F2E93084F80080A080BF
:104D500040F6B83001F0D6F89FEDA5BA9FEDA59BBF
:104D60009FEDA6ABDFF89CB2DFF89CA2DFF89C9227
:104D7000A74DA848007801287ED1A7484FF6FF72BA
:104D8000C188A06801F07CF8A44EB1EE400A84ED21
:104D9000030AB07A03280ED1F07A032801D0012843
:104DA00020D101F0E5FF9BF80210012903D19BED12
:104DB000010A84ED080AB07A0228F1D1F07A0228BB
:104DC000EED19BF802005E4601280CD09448007892
:104DD00070B101287DD0317D01297AD09AF8001078
:104DE000012976D0D5E09BED010A84ED040AD0E0DC
:104DF000317D0029EFD19AF800100029EED12078FA
:104E000002280AD1A088B0F57A7F06D894ED070A67
:104E1000401C84ED040AA080BBE0824890F8220088
:104E200001094BD100F00F07A078874246D0012638
:104E30007D486670A77090ED000ADFED7C0A20EED9
:104E4000200A10EE100A02F095FD9FED791B53EC3D
:104E5000112B02F03BF941EC180B64482C3030F96F
:104E6000170002F0F6FA95ED001B53EC112B02F03F
:104E700079F853EC182B00E0B3E002F091FC02F05B
:104E80003FF800EE100A6C4910EE100A84ED040A97
:104E9000884203DD30EE4B0A84ED040A10EE100A5E
:104EA0006649884203D930EE0B0A84ED040A84ED8A
:104EB000070AA4F8048026706BE00AE09BF88C00D7
:104EC000012866D184F801800220207001F09CFF47
:104ED0005FE00121A4F804802170012801D040B3D3
:104EE00053E09BF81400012804D018B14DE096ED72
:104EF000000A48E04E46D9F8000002F03BFD95ED6F
:104F0000001B53EC112B02F04BFC53EC192B02F05D
:104F1000CBFAECD2306802F02DFD95ED001B53EC7E
:104F2000112B02F03DFC53EC1A2B02F0F7FBDED202
:104F30002BE0307D012801D0F8B126E0B06902F005
:104F400019FD95ED001B53EC112B02F029FC53ECDD
:104F5000192B02F0A9FA0DD2B06902F00BFD95ED04
:104F6000001B53EC112B02F01BFC53EC1A2B02F02C
:104F7000D5FB0AD396ED060A05E09AF80000012851
:104F800003D199ED000A84ED040A94ED040A84ED3E
:104F9000070A95ED000B51EC100B01F0B1FF00EE8C
:104FA000100AD4ED040A264800F0E2FF254884EDFB
:104FB000050AF0EE400A90ED000A9FED231A204802
:104FC00020EE010A383801F0B9F884ED060ABDEE8A
:104FD000C00A10EE100A01F027FB0448243000F04C
:104FE0006DFD012000F08EFFC3E60000940100205B
:104FF0000000B44300000000000034400000000046
:10500000000034C0E44800209200002094000020FA
:10501000B800002093000020B00000203C46002093
:10502000900000207F4A0020280100200000344327
:105030001F85EB51B81E094000003443000034C303
:10504000584C002098000020CDCC184103B40198A2
:105050004100009850EAC12018BF04204A0D18BF33
:1050600040F0010040F2FF72B2EB515F08BF40F028
:105070000200012808BF052002B070470907090E89
:10508000002804DB00F1E02080F80014704700F0F5
:105090000F0000F1E02080F8141D704700000000B0
:1050A00010B52F499FED2C1B2DED020B84B00598F8
:1050B00020F000408842D8BF9DED040B2DDD29492A
:1050C000884209D1049840B94FF00100FBF7B2FAC9
:1050D00000F0AEFC06B010BD05DB9DED040B00F04A
:1050E0009BFC06B010BD68469DED040B00F0ACF8CB
:1050F00010F0030004BF9DED021B9DED000B0CD0D2
:1051000001280ED09DED021B9DED000B022817D04B
:10511000012000F0E9FB06B010BD00F0B1FA06B0C6
:1051200010BD9DED021B9DED000B012000F0DCFB8E
:1051300051EC100B01F0D8FE06B041EC100B10BD85
:1051400000F09EFA51EC100B01F0CEFE06B041ECDF
:10515000100B10BD00000000000000000000000067
:10516000FB21E93F0000F07F2DED020B019820F0BC
:10517000004001909DED000B02B070470000000060
:1051800010B52F499FED2C1B2DED020B84B0059817
:1051900020F000408842DCBF00209DED040B32DD92
:1051A0002849884209D1049840B94FF00100FBF723
:1051B00041FA00F03DFC06B010BD05DB9DED040B8F
:1051C00000F02AFC06B010BD68469DED040B00F00F
:1051D0003BF810F0030011D0012818D09DED021B00
:1051E0009DED000B02281AD000F04AFA51EC100B8A
:1051F00001F07AFE06B041EC100B10BD9DED021BD4
:105200009DED000B012000F06FFB06B010BD9DED81
:10521000021B9DED000B00F033FA06B010BD01201B
:1052200000F062FB51EC100B01F05EFE06B041ECA9
:10523000100B10BD00000000000000000000000086
:10524000FB21E93F0000F07F2DE9F14F04462DEDF1
:10525000020B2DED088B8AB09FEDE70B80ED020B62
:10526000139EE74826F0004585420ADC9DED120BAF
:10527000002084ED000B0AB0BDEC088B03B0BDE844
:10528000F08FE0489FEDE0AB9FEDE1BBA84247DD2A
:10529000E14F9FEDE39B9FEDE48B9DED120B53ECF3
:1052A0001A2B51EC100B002E1CDD02F079FA41ECA8
:1052B000100BBD4208D053EC1B2B51EC100B02F02D
:1052C0006FFAC4E900010BE053EC192B51EC100B01
:1052D00002F066FA53EC182B02F062FAC4E90001FE
:1052E0000120C8E701F03EFE41EC100BBD4208D0A2
:1052F00053EC1B2B51EC100B01F034FEC4E9000100
:105300000BE053EC192B51EC100B01F02BFE53EC7E
:10531000182B01F027FEC4E900014FF0FF30AAE787
:10532000C348A84279DB9DED120B51EC100B00F045
:105330005FFD41EC180B9FEDC00B53EC102B02F0FE
:10534000EFF89FEDBF1B53EC112B01F00BFE02F0A9
:1053500051F8074602F07DF841EC190B53EC1A2B7B
:1053600002F0DEF853EC182B02F00EFA41EC180BA9
:1053700053EC1B2B51EC190B02F0D2F8DFF8C8A24A
:1053800041EC100B4FEA15580125FA4453EC102B51
:1053900051EC180B02F004FA032DC4E900013DD0D2
:1053A000C1F30A5005EB4511A8EB00001139814209
:1053B00034DA0AEB051BB0EE48AA9BED000BF0EEC9
:1053C00068AA53EC102B51EC190B02F0A9F841EC30
:1053D0001B0B51EC1A0B53EC1B2B02F0E1F941ECC7
:1053E000180B51EC1A0B53EC182B02F0D9F953ECB3
:1053F0001B2B02F0D5F99BED020B41EC1A0B53EC81
:10540000102B51EC190B02F08BF853EC1A2B02F015
:10541000C7F941EC100B6D1CB8E70EE0002EA8BFD9
:105420003846BFF628AF94ED000B51EC100B01F09D
:105430005BFDC4E9000178421DE7C6F3130040F4A8
:10544000801EC6F30A50A0F2F530471100F01F0588
:10545000C5F12000DDF848B00890002006900790C4
:105460000520EC467949002D07EB0002794408BF7E
:1054700051F8221009D051F8223001EB8201AB40E3
:105480004A68089922FA01F11943A1FB0E26A1FBF3
:105490000B131A449A4234BF0123002303EB06087E
:1054A0000CEB8003D3E901A60E448E4234BF0121E8
:1054B000002192448A4411B1924502D903E09245F9
:1054C00001D2012100E00021C3E901A641444CF8CA
:1054D0002010011EA0F10100C4DC029800F1005070
:1054E000850F0298DDE903678000DDF8148001F084
:1054F000B0FF41EC1A0B304601F0C2FF9FED541B88
:1055000053EC112B02F00CF841EC1B0B384601F068
:10551000B7FF9FED511B53EC112B02F001F841EC4A
:10552000180B404601F0ACFF9FED4D1B53EC112BC7
:1055300001F0F6FF41EC190B51EC180B53EC192B51
:1055400001F010FD53EC1B2B01F00CFD53EC1A2B5A
:1055500001F008FDCDE90801002008909DED080B41
:1055600053EC1A2B51EC100B02F01AF953EC1B2BD5
:1055700002F016F953EC182B02F012F953EC192B28
:1055800002F002F99FED381B53EC112B01F0C8FF1C
:105590009FED370B41EC180B53EC102B9DED080BD6
:1055A00051EC100B01F0BCFF53EC182B01F0DAFCAE
:1055B0009FED310B41EC180B53EC102B9DED080BBC
:1055C00051EC100B01F0ACFF53EC182B01F0CAFCAE
:1055D00041EC100B139810F0004F06D06D4251ECC7
:1055E000100B01F081FC41EC100B284684ED000B00
:1055F00041E6000000000000000000000000000084
:10560000FB21E93F7CD9024000004054FB21F93FD7
:105610003163621A61B4D03DFB21F93F0000000004
:105620000000601A61B4D03D7370032E8A19A33B49
:10563000FB2139410000000083C8C96D305FE43FA1
:10564000000000000000E03FA22A0000F029000056
:10565000000000000000103E000000000000103CB0
:10566000000000000000103A182D4454FB21F93DC1
:105670003326A611460B113C00000054FB21F93DD6
:1056800010B52DED040B2DED088B82B0B0EE419AD4
:10569000F0EE619A0B9820F000449FED4BABB4F113
:1056A000795F11DA9DED0A0B51EC100B01F0A2FEAF
:1056B000002801BFB0EE4A0AF0EE6A0A02B0BDEC63
:1056C000088B04BF04B010BD9DED0A0B53EC102BEA
:1056D00051EC100B01F024FF41EC180B3C48062163
:1056E000B0EE480AF0EE680A784400F081F853EC16
:1056F000182B51EC100B01F013FF9DED0A0B41EC40
:105700001B0B53EC192B51EC100B01F009FF41EC72
:10571000190B53EC1B2B51EC180B01F001FF53EC50
:10572000192B02F03DF89FED2C0B41EC190B53ECBB
:10573000102B51EC180B01F0F3FE41EC100B284834
:10574000844210DA53EC192B51EC100B02F028F8BC
:1057500053EC1A2B02F018F841EC100B02B0BDEC20
:10576000088B04B010BD1F48A042BCBF9FED1E1B9C
:105770008DED001B06DBA4F50010019000200090C9
:105780009DED001B51EC100B53EC112B02F008F8AF
:105790009DED000B41EC180B53EC102B51EC1A0B48
:1057A00001F0FEFF41EC1A0B53EC192B51EC180BD6
:1057B00001F0F6FF53EC1A2B01F0E6FF41EC100B61
:1057C000CCE7000000000000000000000000F03FF7
:1057D0001427000000000000000000000000E03F6F
:1057E0003333D33F0000E93F000000000000D23F08
:1057F00070B504462DED028B4D1E00EBC500B0EEDA
:10580000408AF0EE608A90ED000B35F0060017D06C
:1058100053EC182B51EC100B01F082FE41EC100BF5
:105820006D1E04EBC50090ED001B51EC100B53EC0A
:10583000112B01F097FB41EC100B35F00600E7D17E
:10584000022D36D0042D1CD0062D1CBFBDEC028BC2
:1058500070BD53EC182B51EC100B01F061FE94ED70
:105860000A1B53EC112B01F07DFB53EC182B01F0BC
:1058700057FE94ED081B53EC112B01F073FB41EC28
:10588000100B53EC182B51EC100B01F049FE94ED6A
:10589000061B53EC112B01F065FB53EC182B01F0A8
:1058A0003FFE94ED040B53EC102B01F05BFB41EC3D
:1058B000100B53EC182B51EC100B01F031FE94ED52
:1058C000021B53EC112B01F04DFB53EC182B01F094
:1058D00027FE94ED001B53EC112B01F043FBBDECB4
:1058E000028B41EC100B70BD31B504462DED040B5D
:1058F0002DED0A8BB0EE41BAF0EE61BA0B989DED3A
:105900000A0B20F00040B0F1795F0DDA51EC100B7A
:10591000FFF79CFB042808BF00F09AF89DED0A0BE6
:10592000BDEC0A8B05B030BD53EC102B51EC100BC5
:1059300001F0F6FD41EC180B9DED0A0B53EC182B12
:1059400051EC100B01F0ECFD41EC190B2C48B0EEC2
:10595000480AF0EE680A05217844FFF749FF9FEDF9
:105960002ACBB0EE40AAF0EE60AA9CB353EC1C2BFD
:1059700051EC190B01F0D4FD41EC1C0B53EC1A2B2C
:1059800051EC190B01F0CCFD9FED210B41EC190BF3
:1059900053EC102B51EC1B0B01F0C2FD53EC192BF7
:1059A00001F0FEFE53EC182B01F0BAFD53EC1B2B5B
:1059B00001F0F6FE53EC1C2B01F0F2FE9DED0A1BEC
:1059C00053EC112B01F0E0FEBDEC0A8B05B041EC6D
:1059D000100B30BDFFE753EC1A2B51EC180B01F004
:1059E0009FFD53EC1C2B01F0BDFA53EC192B01F079
:1059F00097FD9DED0A1B53EC112B01F0B3FAE3E781
:105A00009C25000000000000495555555555C5BF5F
:105A1000000000000000E03F10B553EC102B51ECEB
:105A2000100B01F09FFA41EC100B10BD00000000BC
:105A30009FED050B10B553EC102B51EC100B01F042
:105A400045FB41EC100B10BD000000000000000001
:105A50009FED050B10B553EC102B51EC100B01F022
:105A60005FFD41EC100B10BD0000000000000010B5
:105A700038B50124650200940D4C25600025A56011
:105A8000E560082525610B4C050A25706070080A41
:105A9000A070E170100A20716271180AA071E371A0
:105AA0006B46224602490448FBF756FC38BD00000D
:105AB000E4450020A80000204404002000B587B081
:105AC0000121069140F241110091002102910391C0
:105AD00008210246049106AB69460248FBF73CFCEC
