:020000040800F2
:100000006050002045030008F32E0008DD29000899
:10001000F12E000847060008C9370008000000005C
:100020000000000000000000000000008502000841
:10003000990C000800000000E1020008E12F000810
:100040005F0300085F0300085F0300085F03000808
:100050005F0300085F0300085F0300085F030008F8
:100060005F0300085F0300085F0300084D080008F5
:10007000590800085F030008650800085F030008CE
:10008000710800087D0800085F0300089D0600084D
:1000900085060008910600085F0300085F0300085A
:1000A0005F0300085F0300085F0300085F030008A8
:1000B0005F0300085F0300085F0300085F03000898
:1000C0005F0300085F0300085F0300085F03000888
:1000D0005F030008BD340008193500082535000805
:1000E0005F0300085F0300085F0300085F03000868
:1000F0005F0300085F0300085F0300088908000829
:100100005F0300085F0300085F0300085F03000847
:100110005F0300089D3000085F0300085F030008CC
:100120005F0300085F030008950800085F030008EC
:100130005F0300080000000000000000FD0600084A
:10014000E5060008F10600085F0300085F030008E9
:100150005F0300085F030008A10800085F030008B0
:100160005F0300085F0300085F0300085F030008E7
:100170005F0300085F0300085F0300080000000041
:10018000000000005F030008000000000000000005
:100190005F03000800000000000000005F0300088B
:1001A0000000000000000000000000005F030008E5
:1001B0005F0300085F0300085F0300085F03000897
:1001C0005F03000800F002F800F04CF80AA090E885
:1001D000000C82448344AAF10107DA4501D100F002
:1001E00041F8AFF2090EBAE80F0013F0010F18BF83
:1001F000FB1A43F00103184768650000886500009A
:100200000A4410F8014B14F00F0508BF10F8015B09
:10021000240908BF10F8014B6D1E05D010F8013BF2
:100220006D1E01F8013BF9D1641E03D0641E01F874
:10023000015BFBD19142E4D370470000002300240E
:1002400000250026103A28BF78C1FBD8520728BFE6
:1002500030C148BF0B6070471FB506F004F81FBDE2
:1002600010B510BD00F0BAF91146FFF7F5FF04F024
:1002700066FA00F0D8F903B4FFF7F2FF03BC00F010
:10028000DBF900002C4B19680868B0E8F04F80F3E8
:100290000988BFF36F8F4FF0000080F3118870471B
:1002A0000000000008480068006880F308884FF0EC
:1002B000000080F3148862B661B6BFF34F8FBFF3BE
:1002C0006F8F00DF00BF00BF08ED00E0DFF80C001B
:1002D000016841F470010160704700BF88ED00E0E3
:1002E000EFF30980BFF36F8F134B1A681EF0100FE6
:1002F00008BF20ED108A20E9F04F106009B44FF0DC
:10030000500080F31188BFF34F8FBFF36F8F04F05D
:1003100047FF4FF0000080F3118809BC1968086896
:10032000B0E8F04F1EF0100F08BFB0EC108A80F359
:100330000988BFF36F8F704724000020EFF305801A
:10034000704700000948804709480047FEE7FEE77C
:10035000FEE7FEE7FEE7FEE7FEE7FEE7FEE7FEE775
:1003600004480549054A064B704700008D300008D7
:10037000C5010008604A002060500020604C002049
:10038000604C002053EA020C00F069802DE9F04B2C
:100390004FF00006002B1FBFB3FA83F503FA05F4F4
:1003A00024FA05F65E4012BF1643B2FA82F502FA4D
:1003B00005F4C5F120051EBF22FA05FC44EA0C0431
:1003C000203556EA044C4FEA144418BF641C4FF021
:1003D00000084FF00009904271EB030C39D300295B
:1003E00019BFB1FA81F701FA07F6B0FA80F700FAFF
:1003F00007F6C7F120071EBF20FA07FC46EA0C06E5
:100400002037B6FBF4FCA7EB0507103F07F01F0BE6
:10041000CBF120060CFA0BFB2CFA06F644BFB346D0
:100420000026202FA4BF5E464FF0000B5BEA060CAF
:1004300008BF4FF0010B19EB0B09ABFB027C48EB3B
:100440000608C01B06FB02CC0BFB03CC71EB0C01B6
:10045000C1E70B46024641464846BDE8F08B13B55E
:100460004FF000004FF00001AFF30080BDE81C40EA
:100470007047032A40F2308010F0030C00F0158022
:1004800011F8013BBCF1020F624498BF11F801CB97
:1004900000F8013B38BF11F8013BA2F1040298BFFC
:1004A00000F801CB38BF00F8013B11F0030300F066
:1004B0002580083AC0F0088051F8043B083A51F80A
:1004C00004CBA0E80810F5E7121D5CBF51F8043B0F
:1004D00040F8043BAFF30080D20724BF11F8013B82
:1004E00011F801CB48BF11F8012B24BF00F8013BE4
:1004F00000F801CB48BF00F8012B704710B5203A37
:10050000C0F00B80B1E81850203AA0E81850B1E8CC
:100510001850A0E81850BFF4F5AF5FEA027C24BF82
:10052000B1E81850A0E8185044BF18C918C0BDE879
:1005300010405FEA827C24BF51F8043B40F8043B42
:1005400008BF7047D20728BF31F8023B48BF11F8F7
:10055000012B28BF20F8023B48BF00F8012B704751
:100560004FF0000200B5134694469646203922BF4C
:10057000A0E80C50A0E80C50B1F12001BFF4F7AF97
:10058000090728BFA0E80C5048BF0CC05DF804EB79
:10059000890028BF40F8042B08BF704748BF20F8E7
:1005A000022B11F0804F18BF00F8012B70477047E5
:1005B0007047704710B500F009F8006810BD10B51D
:1005C000044600F003F8046010BD000000487047C6
:1005D000FC49002000487047FC4900207546FFF7A1
:1005E000F9FFAE4605006946534620F007008546F0
:1005F00018B020B5FFF7B4FEBDE820404FF000066C
:100600004FF000074FF000084FF0000B21F00701FA
:10061000AC46ACE8C009ACE8C009ACE8C009ACE83D
:10062000C0098D46704710B50446AFF300802046E0
:10063000BDE81040FFF71FBE01491820ABBEFEE722
:10064000260002007047FEE700B58BB000200121B4
:10065000CDE906010590009001900290039004906E
:100660000E20CDE908106946054800F0EDFB022197
:10067000034800F06FFB024800F087FF0BB000BD9D
:100680009C030020014800F0E0BC00009C03002017
:10069000014800F0DABC00009C030020014800F093
:1006A000D4BC00009C03002000B58BB001220E21B9
:1006B00000200792CDE9051003900490CDE90821B0
:1006C0000090019002906946054800F0BDFB0221B0
:1006D000034800F03FFB024800F057FF0BB000BD9D
:1006E000C4030020014800F0B0BC0000C403002097
:1006F000014800F0AABC0000C4030020014800F03B
:10070000A4BC0000C403002004F0C0FBDFF8248177
:10071000DFF818A1DFF8189108F10806464F06F136
:1007200008059AF8000001287BD103F081F899F8B8
:100730000A004C46032802D0022835D071E0E07A46
:10074000032801D001286CD1B4F9080005F089FA1A
:100750009FED3A1B53EC112B05F0EAFA05F052FA23
:10076000C8F80000B4F90210B4F9000003F05CFE10
:10077000002436F9140000EE100A07EBC400B0F9AB
:100780000200F8EEC00A00EE100A2E48B8EEC00AC9
:1007900004F0DCF8BDEEC00A10EE100A25F81400D3
:1007A000641C042CE5DB32E099F80B00022838D1F8
:1007B00025486421C8F8001090ED020ABDEEC00A79
:1007C00010EE101A90ED010A09B2BDEEC00A10EE4B
:1007D000100A00B203F028FE002436F9140000EEDF
:1007E000100A07EBC400B0F90200F8EEC00A00EEF0
:1007F000100A1448B8EEC00A04F0A8F8BDEEC00A0A
:1008000010EE100A25F81400641C042CE5DBB5F981
:100810000630B5F90420B5F90210B5F9000003F06F
:10082000B3FD012003F0F6FF7BE7000093000020FA
:10083000544500200801002014450020000000005D
:100840000000E03FB84800207C470020014800F04D
:1008500029BF00000C050020014800F023BF000064
:100860004C070020014800F01DBF0000AC0700202D
:10087000014800F017BF00008C060020014800F07E
:1008800011BF0000EC060020014800F00BBF000083
:100890006C050020014800F005BF0000CC050020D9
:1008A000014800F0FFBE00002C0600202DE9F04FAB
:1008B00085680024099E802D18D0894DC563894D17
:1008C000456490F83450012D15D0012580F834503E
:1008D00090F83550012D10D0002180F834100224FA
:1008E000002180F834102046BDE8F08F4FF480716D
:1008F00041650120F8E70220F6E7022580F835502F
:100900000025456505682F6847F480272F60056836
:100910002B6103685E608368402B03682AD099606E
:100920000168CA60714D704E704FDFF8BC81DFF80E
:10093000B891DFF8B8A1DFF8B4B1EA14DFF8A8E1A4
:100940000168183630379302A9F148090AF1600AA4
:100950000BF1180BAEF1300E4FF0006C41452DD964
:10096000A94205D0494503D0514501D0B14205D136
:10097000202220E09A600268D160D3E759451AD05E
:10098000714518D0594D7835A94214D0564D30359F
:10099000A94210D0B9420BD0534A183A914207D01D
:1009A000524A9032914203D04F4A4832914201D18B
:1009B0001A4600E062464C494C392EE0DFF82C81A3
:1009C00008F1A80841452AD9A94205D0494503D0D4
:1009D000514501D0B14201D120221CE059451AD025
:1009E000714518D0414D7835A94214D03E4D30356F
:1009F000A94210D0B9420BD03B4A183A914207D0D5
:100A00003A4A9032914203D0374A4832914201D15A
:100A10001A4600E06246344950390A605AE0DFF86D
:100A2000CC8008F1480841452AD9A94205D049455A
:100A300003D0514501D0B14201D120221CE05945DB
:100A40001AD0714518D0294D7835A94214D0264DB9
:100A50003035A94210D0B9420BD0234A183A9142FE
:100A600007D0224A9032914203D01F4A4832914225
:100A700001D11A4600E062461C491039CA6029E0DB
:100A8000A94205D0494503D0514501D0B14201D119
:100A900020221CE059451AD0714518D0134D7835E5
:100AA000A94214D0104D3035A94210D0B9420BD014
:100AB0000D4A183A914207D00C4A9032914203D025
:100AC000094A4832914201D11A4600E0624607497C
:100AD00010398A6001680A6842F001020A60FFE684
:100AE00071460008BD46000858640240106002408C
:100AF00001681823CAB2103AB2FBF3F2054B6FF348
:100B00000901032A9B5CC36500D9091D816508465C
:100B100070470000EC62000810B5014600208B69A8
:100B20008A6A4FF0C07453B1B3F5005F15D072B14B
:100B3000012A0CD0022A0AD0032A09D104E01AB1F2
:100B4000012A06D0022A03D1C96AC90100D50120B1
:100B500010BDC96AA142FAD010BD002AF7D0012AFF
:100B6000F2D0022AF3D0032AF3D010BD30B50468C6
:100B7000256825F480252560046863608368402B20
:100B8000036803D099600068C26030BD9A60006855
:100B9000C16030BD01680A68D20604D5C968C906BB
:100BA00001D504F083B9704738B5006828498842F8
:100BB0004CD1284800680168C943C90646D4016879
:100BC000002440680090234801F049FB2248006857
:100BD0004068224DC0F180002149E8600220087081
:100BE000810300221F48AC6000F0AEFF0022082104
:100BF0001D4800F0A9FF80221C49164801F0AAFEFA
:100C00001A4C2078A52821D14FF6FF720E212046DC
:100C100000F07CF804F170026880A2F1800302F118
:100C20001005D98B1184814210D16078687053F817
:100C3000120F5061586890619868D06104F10A0100
:100C4000BDE8384004220A4801F094BE38BD0000D7
:100C50000010014034040020CC050020F4000020E6
:100C6000200100200008024000040240FC46002051
:100C7000EC03002010B501680A68D20608D5C968DF
:100C8000C90605D504F012F902484168491C4160C3
:100C900010BD0000F4000020704772B6FEE70000AF
:100CA000174F0126174DDFF860807C1C387810B391
:100CB000022820D02868401C2860142803DB02F09A
:100CC00019F900202860414631F8190F020A2270F4
:100CD000607048883621020AA270E07098F82200FD
:100CE00000F00F0020710648401C03F089FB012032
:100CF00003F090FDDAE702F0FDF83E702868DCE7CB
:100D000020010020FC0000207F48002010B558B1D1
:100D1000084C491E0BD310F8013B5340DBB234F8AA
:100D2000133083EA1222F4E74FF6FF7010BD10462D
:100D300010BD00000C64000810B5054C03E010F86D
:100D4000013B5340E25C491EF9D2104610BD000041
:100D50000C63000890F82020012A07D0022A05D051
:100D6000416A41F480214162012070470068426974
:100D70000A43426100207047F0B590F820500468A3
:100D8000A468012D05D0022D03D0416A41F48021D1
:100D900057E014F0406F01D1E5004FD5C4F3016472
:100DA0000125A5401D608B684FF4C0759BB1CE68CE
:100DB00033434E6843EAC603066805EB0417F35154
:100DC0004FF4C273076803EB04130E69FE50097DEC
:100DD000012905D009E00E88CB6843EA4653EBE7CA
:100DE0000168CE5846F48076CE501179D379567981
:100DF00041EA036193791B0443EA062319434FF444
:100E0000C676036806EB041699511178D37841EA47
:100E10000361937852781B0443EA022211434FF492
:100E2000C473026803EB0413D150006805EB04118E
:100E3000425842F0010242500020F0BD416A41F4A4
:100E4000001141620120F0BD10B590F82020012A68
:100E500007D0022A05D0416A41F480214162012075
:100E600010BD3B48D0F8002242F00102C0F8002239
:100E7000D0F8002222F47C52C0F80022D0F80022E0
:100E80004B6A42EA0322C0F800220A7D02F01F03E7
:100E900001229A40D0F81C329343C0F81C32CB692F
:100EA000B3B9D0F80C329343C0F80C328C894B683C
:100EB00064F31F434C6900EBC404C4F840320C894E
:100EC0000B6864F31F434C6900EBC404C4F844325C
:100ED000CB69012B16D1D0F80C321343C0F80C3279
:100EE0000C884B6864F31F434C6900EBC404C4F8DE
:100EF00040320C89CB6864F31F434C6900EBC40497
:100F0000C4F844328B69002BD0F804320ED013435E
:100F1000C0F804320B69002BD0F8143208D0134308
:100F2000C0F81432096A012904D008E09343EFE7BE
:100F30009343F5E7D0F81C121143C0F81C12D0F807
:100F4000001221F00101C0F80012002010BD0000C5
:100F500000640040704770B590F82040012C05D027
:100F6000022C03D0416A41F4802128E0046809B3CF
:100F70002469A40720D04FF4D874056804EB011449
:100F80002D5915F00405956005682D591AD0ED0806
:100F9000556005682C5904F00204D4604FF4DA74EB
:100FA000056804EB01142E5906F00F06082E0CD329
:100FB00008250DE0E468DCE7416A41F40011416274
:100FC000012070BD6D0D1560E3E72D5905F00F058B
:100FD000156105682D59C5F30725956105682C59DC
:100FE000240C54614FF4DC72046802EB0112A45823
:100FF0001C700468A458240A5C700468A458240C6B
:101000009C700468A258120EDA704FF4DE72046805
:1010100002EB0112A4581C710468A458240A5C71E4
:101020000468A458240C9C710468A258120EDA714A
:10103000006829B1016941F020010161002070BD03
:10104000C16841F02001C160F8E72DE9F05F054675
:10105000006800244669D0F804908768D0F80CB086
:10106000D0F810A0D0F81880F10748D0F90714D0B4
:1010700001218160B80703D5284600F0B2FA0CE0E0
:10108000780702D54FF4006407E0380702D54FF423
:10109000805402E0284600F0A3FAF80516D5296826
:1010A0004FF480708860B80503D5284600F09BFA9D
:1010B0000CE0780502D544F4005407E0380502D569
:1010C00044F4804402E0284600F08CFAF80316D578
:1010D00029684FF480308860B80303D5284600F0B3
:1010E00084FA0CE0780302D544F4004407E03803A6
:1010F00002D544F4803402E0284600F075FA300747
:1011000007D55FEACB6004D52968102044F4007449
:10111000C86070074FF0080707D55FEA0B7004D569
:101120002868C760284600F0BBF9B00706D52868D4
:10113000C068800702D0284600F0B4F9700607D5D1
:101140005FEACA6004D52968102044F4806408610D
:10115000B00607D55FEA0A7004D5286807612846FB
:1011600000F010FAF00606D528680069800702D062
:10117000284600F008FAB00308D55FEAC96005D533
:10118000296810204860284600F0FEF9F00307D5D2
:101190005FEA097004D528684760284600F026FAFF
:1011A000300446D55FEA497040D5F00504D55FEAC2
:1011B000C87001D044F00104B00504D55FEA88701E
:1011C00001D544F00204700504D55FEA487001D5EA
:1011D00044F00404300529D518F0700F26D008F02B
:1011E0007000402815D006DC102809D020280AD02D
:1011F000302816D10AE050280ED0602811D10EE018
:1012000044F008040DE044F010040AE044F0200427
:1012100007E044F0400404E044F0800401E044F4BA
:1012200080742868816921F0700181612968042037
:101230004860002C05D0686A204368622846FFF7A2
:1012400089FEBDE8F09F70B5040003D094F820003B
:1012500010B104E0012070BD204600F081F8206844
:10126000016841F00101016000F074FC05460526AB
:1012700004E000F06FFC401B0A2811D82068406889
:10128000C007F6D02068016821F00201016000F07B
:1012900061FC05460BE000F05DFC401B0A2806D906
:1012A000606A40F40030606284F82060D2E7206811
:1012B00040688007EFD4207E0128206801683DD077
:1012C00021F080010160607E01282068016838D02B
:1012D00021F040010160A07E01282068016833D020
:1012E00021F020010160E07E0128206801682ED0F5
:1012F00041F010010160207F01282068016829D099
:1013000021F008010160607F01282068016824D075
:1013100021F004010160D4E902010843D4E9041278
:10132000114308436168491E08432168C8610020D1
:101330006062012084F82000002070BD41F080012F
:10134000C0E741F04001C5E741F02001CAE721F0C4
:101350001001CFE741F00801D4E741F00401D9E7DB
:101360002DE9F04387B0044614216846FFF7F8F8EA
:101370004749484ADFF814810868D4F800C0454B53
:10138000022403250926DFF8109110320027401CA3
:10139000C44533D10860012807D1106840F00070BF
:1013A0001060106800F000700590186840F00200AE
:1013B00018601868694600F0020005904FF440700C
:1013C0008DE89100CDE90356484600F0DDFA002291
:1013D0000521132000F030FC132000F01FFC002238
:1013E0000521142000F028FC142000F017FC002236
:1013F0000521152000F020FC152042E0DFF89C803C
:10140000C44540D1D2F800C04CF0806CC2F800C096
:10141000D2F800C001280CF0806CCDF814C0086030
:1014200007D1106840F000701060106800F0007084
:101430000590186840F0020018601868694600F0CE
:10144000020005904FF440508DE89100CDE903561D
:10145000484600F099FA002205213F2000F0ECFBFD
:101460003F2000F0DBFB00220521402000F0E4FBE0
:10147000402000F0D3FB00220521412000F0DCFBDE
:10148000412000F0CBFB07B0BDE8F08300640040D2
:101490001000002030380240000402400068004084
:1014A0007047000010B50446006832498AB088428F
:1014B00024D16B4602AA00212046FFF74CFD029A78
:1014C0002D49332A04D0342A07D0352A14D015E008
:1014D000DDE90002C1E9080210E0009888609DF88B
:1014E000040008709DF8050048709DF8060088709B
:1014F0009DF80700C87001E0009848601F49206807
:10150000884235D16B4602AA00212046FFF723FD11
:1015100002980146A0F20120072813D8BDF8002048
:10152000C0B253BA164A22F83030BDF8023002EB8E
:10153000C0005BBA4380BDF8042052BA82809DF897
:1015400006208271A1F58070413811D19DF800000C
:10155000A2280DD108489DF8011014300170BDF883
:1015600002104180BDF804108180BDF80610C180D2
:101570000AB010BD006400409000002000680040E8
:101580001445002070477047704770B5044690F8C6
:101590002000012804D0606A40F40020606217E057
:1015A000022084F820002068016821F00101016018
:1015B00000F0D0FA05460DE000F0CCFA401B0A28F6
:1015C00008D9606A40F400306062052084F8200089
:1015D000012070BD20684068C007EDD1606270BD19
:1015E00070477047704770477047704770472DE9E4
:1015F000F0410446876D00F0ADFA054694F83500D9
:101600000026022806D08020606584F8346001201E
:10161000BDE8F0812068016821F0160101602068B2
:10162000416921F080014161206C08B9A06C20B1B2
:101630002068016821F0080101602068016821F03C
:10164000010101600CE000F085FA401B052807D974
:1016500020206065032084F8350084F83460D7E7E3
:1016600020680068C007EED194F85C103F208840E5
:10167000B860012084F8350084F834600020C7E7A2
:1016800090F83510022903D0802141650120704770
:10169000052180F835100068016821F00101016022
:1016A000002070472DE9F84304464FF00009CDF8BB
:1016B000009063484FF41651A56D0068B0FBF1F738
:1016C0002E6894F85C20082101FA02F030420FD015
:1016D0002068026852070BD5026822F004020260FB
:1016E00094F85C008140A960606D40F00100606585
:1016F00094F85C104FF0010808FA01F0304208D06D
:1017000021684969090604D5A860606D40F00200AF
:10171000606594F85C1004208840304208D021684D
:101720000968890704D5A860606D40F00400606511
:1017300094F85C1010208840304218D02168096865
:10174000090714D5A86020680168490304D500681A
:10175000000308D5A16C07E00168C90503D401683E
:1017600021F008010160216C09B12046884794F8F6
:101770005C1020208840304231D021680968C906B9
:101780002DD5A86094F8350005282068016806D09A
:10179000490347D5006800031DD4616C1CE021F0AB
:1017A000160101602068416921F080014161206CCF
:1017B00008B9A06C20B12068016821F0080101601F
:1017C00094F85C103F208840A86084F8358084F845
:1017D0003490216D1FE0E16B09B120468847606DB0
:1017E00000282BD0606DC00714D0052084F8350088
:1017F0002068016821F0010101600098401C009000
:10180000B84203D820680068C007F6D184F8358054
:1018100084F83490E16C002910D001B02046BDE876
:10182000F04308470168C905D5D4016821F01001CB
:10183000016084F8358084F83490CCE7BDE8F88303
:10184000200000202DE9F041044600F083F9054610
:101850005CB1022084F83500002684F834602068EA
:10186000016821F0010101600DE00120BDE8F08177
:1018700000F070F9401B052805D920206065032081
:1018800084F83500F2E720680068C007F0D12168CD
:101890000A6820480240D4E901031843D4E903351B
:1018A0002B43184363691843A3691843E36918433A
:1018B000236A18431043626A042A03D1D4E90B2334
:1018C0001A431043086020684069656A20F00701E8
:1018D00028460D43012704280CD1A06A0543E06A7D
:1018E00040B12046FFF718F920B14020606584F828
:1018F0003570BAE7206845612046FFF7F9F894F89B
:101900005C203F2191408160666584F8357000203D
:10191000ACE700003F8010F02DE9F0410446866DF1
:1019200090F83400002501280DD0012084F83400FF
:1019300094F835700020012F07D084F83400022578
:101940002846BDE8F0810220FBE7022784F83570C5
:1019500060652046FFF70AF994F85C103F20884044
:10196000B0602068016841F016010160206C20B170
:101970002068016841F0080101602068016841F0B9
:1019800001010160DCE700002DE9F84FDFF89091DC
:101990000022A9F1040B03274FF00F0C09F1040AF0
:1019A000ABF1040E01250B6895402B40AB426ED184
:1019B0000C7904F00304012C01D0022C15D18668A7
:1019C000540007FA04F826EA0806D1F80C8008FA51
:1019D00004F848EA0608C0F808804468AC430D796A
:1019E000C5F300159540254345600C79E443A407F1
:1019F00008D0C568540007FA04F6B5438E68A640BF
:101A00002E43C6600C7904F00304022C11D1D408D3
:101A100000EB8406356A5407E40E0CFA04F825EA54
:101A20000805D1F8108008FA04F848EA0508C6F855
:101A300020800568540007FA04F6B5430E7906F0D5
:101A40000306A6402E4306604C6814F4403F61D064
:101A5000344C256845F480452560246822F0030550
:101A600004F480440094304C05EB0408D8F808587E
:101A70009407260F0CFA06F4A5432C4CA04201D182
:101A800000241FE02A4CA04202D101241AE041E0C8
:101A9000284CA04201D1022414E0274CA04201D1DD
:101AA00003240FE0254CA04201D104240AE0244C79
:101AB000A04201D1052405E0224CA04201D1062418
:101AC00000E00724B4402C43C8F80848D9F8004087
:101AD0004D464E689C43F60200D51C432C60DAF854
:101AE000004055464E689C43B60200D51C432C600E
:101AF000DBF800405D464E689C43B60300D51C43AE
:101B00002C60DEF8004075464E689C43F60300D515
:101B10001C432C60521C102AFFF444AFBDE8F88F20
:101B2000083C0140443802400030014000000240BF
:101B30000004024000080240000C02400010024075
:101B400000140240001802400AB181617047090484
:101B5000FBE7000001488068704700001400002087
:101B600002488168027811448160704714000020A7
:101B70000B4810B5016841F400710160016841F43F
:101B800080610160016841F480710160032000F010
:101B900073F80F2000F006F800F024F8002010BDC4
:101BA000003C024070B50D4D04464FF47A71287820
:101BB000B1FBF0F00A490968B1FBF0F000F03AFB24
:101BC00048B9102C07D200222146501E00F034F8EC
:101BD00000206C6070BD012070BD0000140000206A
:101BE000200000200C4882B0016841F4804101606F
:101BF000006800F4804000900748001F016841F031
:101C0000805101600068002200F0805000900F2198
:101C1000901E02B000F010B844380240002809DBE2
:101C200000F01F02012191404009800000F1E020F6
:101C3000C0F8001170470000F0B40E4B1B68C3F3EE
:101C40000223C3F10704042C00D904241D1D072D11
:101C500001D2002300E0DB1E012606FA04F56D1E0A
:101C60000D409D409E40761E164045EA0601F0BCA0
:101C700001F09EBE0CED00E0064A00F0070110687E
:101C80004FF6FF03184040EA012003490843106063
:101C9000704700000CED00E00000FA052DE9F04768
:101CA0000D46040065D0DFF81491D9F80000EFB2BA
:101CB00000F00F00A84207D289F80070D9F80000A0
:101CC00000F00F00A84254D120683D4E810712D584
:101CD000400703D5306840F4E050306020780007BA
:101CE00003D5306840F4604030603068A16820F06F
:101CF000F000084330602078C0072DD0304960687C
:101D00000839012812D0022813D0032811D00968FD
:101D1000890700292DDA316821F003010143316080
:101D2000FFF718FF804641F2883A0EE00968890300
:101D3000EFE709688901ECE7FFF70CFFA0EB08016A
:101D4000514502D90320BDE8F0873068616800F092
:101D50000C00B0EB810FEFD1D9F80010484601F02C
:101D60000F01A94207D90770006800F00F00A842D0
:101D700001D00120E7E72078400705D53068E16809
:101D800020F4E050084330602078000706D5306822
:101D9000216920F4604040EAC100306000F038F86A
:101DA0003168084AC1F30311515CC8400649086014
:101DB00006480068FFF7F6FE0020C4E7003C02403A
:101DC00008380240F46200082000002018000020BB
:101DD0000448054900680968044AC1F38221515C3E
:101DE000C840704720000020083802400463000803
:101DF0000448054900680968044AC1F34231515C4E
:101E0000C8407047200000200838024004630008E2
:101E1000224810B5006810F00C01214815D0214B64
:101E2000042911D01D4C241F08290FD00C290CD1D6
:101E3000216801F03F022168490221D52068C0F3E2
:101E40008810A0FB030120E0184610BD216801F0B6
:101E50003F022168490205D52068C0F38810A0FB25
:101E6000030104E02168C1F38811A1FB00010023F4
:101E7000FEF788FA2168C1F30141491C49000AE0D4
:101E80002168C1F38811A1FB00010023FEF77AFA53
:101E90002168C1F30271B0FBF1F010BD08380240B7
:101EA0000024F400001BB7002DE9F84F040078D09F
:101EB0002078DB4EC007A6F104054ED0301D016826
:101EC000C1F3810101290FD00168C1F38101022909
:101ED00002D13168490207D40068C0F381000328A9
:101EE00009D13068400206D52868800335D560687E
:101EF0000028DCD031E06068B0F5803F10D0B0F54C
:101F0000A02F286810D020F480302860286820F4A2
:101F1000802028606068A0B1FFF71CFE07460CE037
:101F2000286840F48030F4E740F480202860F7E728
:101F3000FFF710FEC01B642875D828688003F7D50A
:101F40000BE0FFF707FE074604E0FFF703FEC01BA8
:101F50006428F1D828688003F7D42078DFF8C4A279
:101F600080074FF0000B44D5AD48001D016811F00B
:101F70000C0F0FD00168C1F38101022902D1316831
:101F8000490207D50068C0F3810003280AD13068F0
:101F9000400207D42868800715D5E068012800D1E1
:101FA00011E038E1E068B0B10120CAF80000FFF7A5
:101FB000D1FD074604E0FFF7CDFDC01B0228BBD8CA
:101FC00028688007F7D52868216920F0F80040EAE2
:101FD000C10028600DE0CAF800B0FFF7BBFD07465E
:101FE00004E0FFF7B7FDC01B02281CD82868800753
:101FF000F7D42078000726D5DFF824828A48616963
:1020000008F1700881B101210160FFF7A3FD0746C7
:1020100004E0FFF79FFDC01B022804D8D8F8000099
:102020008007F6D50FE089E0C0F800B0FFF792FD19
:10203000074604E0FFF78EFDC01B02287ED8D8F8C3
:1020400000008007F6D42078400769D574484FF027
:1020500000093C300068C0000BD471483C30016876
:1020600041F08051016000684FF0010900F080509C
:1020700000906E480168C90511D40168804641F49A
:1020800080710160FFF766FD074604E0FFF762FD1F
:10209000C01B022852D8D8F80000C005F6D5604F02
:1020A000A0686C3701280FD00528386810D020F0C0
:1020B00001003860386820F004003860A068B8B1CA
:1020C000FFF748FD80460FE0386840F00100F4E774
:1020D00040F004003860F7E7FFF73CFDA0EB080193
:1020E00041F28830814263D838688007F4D50EE029
:1020F000FFF730FD804607E0FFF72CFDA0EB08015D
:1021000041F28830814253D838688007F4D4B9F15D
:10211000000F05D042483C30016821F08051016039
:10212000A069B0B33E49091D0968C1F381010229C4
:1021300045D00228CAF860B005D000E038E0FFF7CB
:1021400009FD044637E0FFF705FD074604E0FFF709
:1021500001FDC01B02282BD828688001F7D4F4E9C0
:1021600007010843E168324A490802EB0141A268CD
:1021700041EA82110843217C40EA0160217D40EA66
:10218000017030600120CAF86000FFF7E3FC0446EC
:1021900005E042E0FFF7DEFC001B022808D82868B3
:1021A0008001F7D539E0FFF7D5FC001B022802D9E2
:1021B0000320BDE8F88F28688001F4D42DE00128C1
:1021C000F7D03068E26900F48001914223D1226A9D
:1021D00000F03F0191421ED147F6C071626A014092
:1021E000B1EB821F17D1A26A4FF0FF3300F44031E8
:1021F00003EB5202B1EB024F0DD194F82C2000F00A
:102200007061B1EB026F06D194F8301000F0E0403D
:10221000B0EB017F01D00120CBE70020C9E700002F
:102220000438024000004742800E474200700040E0
:102230000000FFFF10B5401EB0F1807F01D30120E8
:1022400010BD4FF0E02460610F21601701F0B0FB7A
:102250000020A06107202061002010BD704710B54C
:1022600004460068406994F84110C0F3C010212969
:1022700011D180B12068143050E8001F21F0800196
:1022800040E80012002AF5D1A06B08B1FFF7AFF9C2
:10229000204600F0D3FF2068406994F84210C0F354
:1022A0008010222911D180B12068143050E8001F1D
:1022B00021F0400140E80012002AF5D1E06B08B19E
:1022C000FFF795F9204600F092FF002010BD7047FF
:1022D000F8B5016804460868CA684B6910F00F0F2A
:1022E0004FF0000559D003F0010602F49077374310
:1022F00065D0C10705D0D10503D5616C41F001015E
:102300006164410705D5D90703D0616C41F0020132
:102310006164810705D5D90703D0616C41F00401E0
:102320006164010707D502F02001314303D0616CDD
:1023300041F008016164616C00293AD0800604D53F
:10234000900602D5204600F087FF20684069616C46
:10235000C0F38010090700D460B3204600F047FFA7
:1023600020684069400621D52068143050E8001FDD
:1023700021F0400140E80012002AF5D1E06BA8B13D
:102380006E490165E06BFFF77BF9002811D0E06B27
:10239000016D01B0BDE8F040084783060FD59306F4
:1023A0000DD52046BDE8F84000F056BF2046FFF7A7
:1023B0008EFFF8BD2046FFF78AFF6564F8BD266BE7
:1023C0002023012E7DD1C6067BD5D60679D5086897
:1023D0004868009048694FF00206400641D5E16B1D
:1023E000086840680004000CE8D0A28D8242E5D95C
:1023F000E085C869B0F5807F2DD020680C3050E8AA
:10240000001F21F4807140E80012002AF5D12068F5
:10241000143050E8001F21F0010140E80012002AAA
:10242000F5D12068143050E8001F21F0400140E849
:102430000012002AF5D184F84230256320680C3060
:1024400050E8001F21F0100140E80012002AF5D1E9
:10245000E06BFFF7CCF86663A08DE18D401A81B286
:102460002AE0A08DE18D401A81B2E08D0028A5D030
:102470000029A3D020680C3050E8002F22F490727D
:1024800040E80027002FF5D12068143050E8002FD5
:1024900022F0010240E80027002FF5D184F84230F5
:1024A000256320680C3050E8002F22F0100240E82D
:1024B0000023002BF5D166632046FFF7CFFEF8BD61
:1024C000FFE705062BD5150629D594F841002128EC
:1024D000F5D1A068B0F5805F01D12069B0B1206A64
:1024E000411C2162216800784860E08C401E000495
:1024F000000CE084E3D12068C16821F08001C16054
:102500002068C16841F04001C160D8E7206A0088B6
:10251000C0F308004860206A801C2062E5E740069E
:10252000CDD55006CBD5CA68204622F04002CA60FD
:1025300084F8413000F038FAC1E70000F1300008BB
:1025400070B5040004D094F84100002510B106E0F5
:10255000012070BD84F84050204600F023F824206C
:1025600084F841002068C16821F40051C160204610
:1025700000F0D4FE2068016921F4904101612068D7
:10258000416921F02A0141612068C16841F400518C
:10259000C1606564202084F8410084F842006563CE
:1025A000002070BD2DE9F04F87B004461421684625
:1025B000FDF7D6FFDA48DFF8648310380221D4F83B
:1025C00000C0D74B032200258E0607154FF0400AA6
:1025D0004FF48079C44570D1D3F800C0A8464CF4BC
:1025E000801CC3F800C01B6803F4801305930368C4
:1025F00043F004030360036803F0040305930368D6
:1026000043F0080303600068934600F0080005905B
:10261000C802009001A9022081E821080820049046
:102620006946C048FFF7B0F90420009001A90220D4
:1026300081E82108082004906946BB48FFF7A4F907
:10264000DFF8ECB2B9495846CBF80010C0E9016593
:10265000C0E90357CBF81450C0E90659CBF8205015
:10266000CBF82450FFF7EEF808B1FEF716FBB04D9B
:10267000AE48C4F83CB06035A830CBF8384085E8A7
:102680004104C5E90387C5F81480C5F81880C5F86A
:102690001C80C5F820802846C5F82480FFF7D2F8B2
:1026A00008B1FEF7FAFAA563002205213520AC63D4
:1026B000FFF7C2FA352061E0FFE7DFF87882DFF844
:1026C00078E24FF0070BC4455DD1954BA8461B1D22
:1026D000D3F800C04CF0100CC3F800C01B6803F026
:1026E00010030593036843F001030360006800F0E2
:1026F000010005904FF4C0608DE82300CDE9032B65
:1027000069467046FFF740F9DFF824B28B490BF1B8
:10271000C00B5846CBF80010C0E90165C0E903576B
:10272000CBF81450C0E90659CBF82050CBF8245010
:10273000FFF788F808B1FEF7B0FA8048804DC4F87A
:102740003CB07830CBF8384085E84104C5E90387D0
:10275000C5F81480C5E90689C5F820802846C5F863
:102760002480FFF76FF808B1FEF797FAA5630022FF
:1027700005212520AC63FFF75FFA2520FFF74EFA0D
:1027800007B0BDE8F08FDFF8BC81C44551D1D3F864
:1027900000C04CF4003CC3F800C01B6803F40033D5
:1027A0000593036843F001030360006800F0010033
:1027B00005900C208DE82300CDE9032B6946704677
:1027C000FFF7E2F85E485949603078310160C0E9AE
:1027D0000165C0E903574561C0E90659B046056285
:1027E000BB464E464562FFF72DF808B1FEF755FA95
:1027F0005348534F6030E0638463C0374B48C7E9A8
:1028000002A5C7E904B5C7E906563D6290307D626E
:10281000C7E900083846FFF715F808B1FEF73DFA9A
:10282000A763002205212620BC63FFF705FA2620B6
:10283000A4E7DFF81481C445A2D1D3F800C0A846AC
:102840004CF4802CC3F800C01B6803F4802305936C
:10285000036843F004030360036803F00403059373
:10286000036843F0020303600068694600F0020059
:102870000590202000900220CDE901050320CDE93C
:10288000030B2848FFF780F84FF480670220009779
:10289000CDE901050320CDE9030B69462B48FFF77D
:1028A00073F82249DFF8A8B018315846CBF8001069
:1028B000C0E90165C0E90357CBF81450C0E90659D7
:1028C000CBF820504F46CBF82450FEF7BBFF08B1A1
:1028D000FEF7E3F915481E4DC4F83CB048306035AA
:1028E000CBF8384085E841040115C5E90381C5F8F6
:1028F0001480C5E90687C5F820802846C5F82480DD
:10290000FEF7A0FF08B1FEF7C8F9A5630022052174
:102910002720AC63FFF790F927202FE700500040F5
:102920004038024000080240000C024010600240A3
:102930000C050020001001400000024040640240ED
:102940002C060020004400400048004000040240E3
:102950004C07002090F84230202B01D00220704715
:1029600021B11AB10023036300F05EBD012070475E
:102970007047704790F84130202B01D002207047FB
:1029800079B172B101628284C28400214164212143
:1029900080F841100068C16841F08001C1600020EA
:1029A000704701207047000010B500680849884250
:1029B0000CD100224FF400410648FFF7C5F8002271
:1029C000BDE8104008210448FFF7BEB810BD000064
:1029D000001001400008024000040240FEE7000031
:1029E0002DE9F0410F4680460026D0E018F8060099
:1029F000A5286FD108EB06040521204600F004FF4E
:102A0000002867D06078A17840EA01257019093064
:102A1000B842EAD8204605F1090100F0D7FE0028A7
:102A200058D06079A17940EA0120B0F5017F6AD0E1
:102A30001DDCB0F5827F47D00EDC032832D004DCE9
:102A400001281FD0022829D121E0A0F5807001388B
:102A50002ED0012822D131E0A0F5807005383AD07F
:102A6000FC283ED0FD2842D0FE2817D145E0A0F238
:102A700005200A2812D2DFE800F04C52585E646A42
:102A800070767C820B25E11D2A46444804E04348C9
:102A90000125E11D2A460B30FDF7EBFC70190930CA
:102AA000C6B274E020253D48E11D2A460C30F3E70C
:102AB00004253A48E11D2A462C30EDE70425374825
:102AC000E11D2A463030E7E703253448E11D2A4658
:102AD0003430E1E759E003253048E11D2A4637301C
:102AE000DAE70D252D48E11D2A463A30D4E71025B6
:102AF0002A48E11D2A464730CEE70C252748E11D2C
:102B00002A465730C8E706252448E11D2A46633087
:102B1000C2E702252148E11D2A466930BCE70125AC
:102B20001E48E11D2A466B30B6E707251B48E11D0C
:102B30002A466C30B0E706251848E11D2A46733056
:102B4000AAE704251548E11D2A467930A4E70625A1
:102B50001248E11D2A467D309EE728250F48E11DD9
:102B60002A46833098E706250C48E11D2A46AB30FB
:102B700092E704250948E11D2A46B1308CE701257A
:102B80000648E11D2A46B53086E7761CF6B2BE42FD
:102B9000FFF42CAFBDE8F04100F0B6BDC547002002
:102BA000054888210170002141708170C170017158
:102BB00041718171C1717047400100200F4810B50B
:102BC0000D4901600321416000214FF41022816012
:102BD000C0E903124FF4001242610176417681761A
:102BE000C17601774177FEF72EFB002803D0BDE8C0
:102BF0001040FEF752B810BD006400409C03002056
:102C00000F4810B50D4901600321416000214FF4C8
:102C100010228160C0E903124FF400124261017674
:102C200041768176C17601774177FEF70CFB00286B
:102C300003D0BDE81040FEF730B810BD006800407A
:102C4000C4030020294808B5016841F4001101605F
:102C5000016801F400110091016841F480010160F4
:102C60000068002200F48000009005210B20FEF790
:102C7000E3FF0B20FEF7D2FF002205210C20FEF718
:102C8000DBFF0C20FEF7CAFF002205210E20FEF715
:102C9000D3FF0E20FEF7C2FF002205211020FEF711
:102CA000CBFF1020FEF7BAFF002205211120FEF70E
:102CB000C3FF1120FEF7B2FF002205212F20FEF7EF
:102CC000BBFF2F20FEF7AAFF002205213A20FEF7C6
:102CD000B3FF3A20FEF7A2FF002205214620FEF7AF
:102CE000ABFFBDE808404620FEF798BF30380240F1
:102CF00010B59CB01C2216496846FDF7FFFB002169
:102D0000684601F093FD134C11491C2220601C31D0
:102D100007A8FDF7F3FB002107A801F087FD0C4988
:102D200060601C2238310EA8FDF7E8FB00210EA8D8
:102D300001F07CFD0649A0601C22543115A8FDF766
:102D4000DDFB002115A801F071FDE0601CB010BD95
:102D50007C62000800000020F0B587B014216846AE
:102D6000FDF7FEFB26480025016841F004010160E3
:102D7000016801F004010591016841F080010160E2
:102D8000016801F080010591016841F001010160D5
:102D9000016801F001010591016841F00201016043
:102DA000016801F002010591016841F0080101602C
:102DB0000068144E00F008004FF400440590002213
:102DC00021463046FEF7C0FE0F4F0022082138464C
:102DD000FEF7BAFE00940124694630460194CDE91D
:102DE0000245FEF7D1FD0820CDE900040220CDE91F
:102DF000024069463846FEF7C7FD07B0F0BD000047
:102E00003038024000080240000402400C4810B56F
:102E10000A4901604FF4E1314160002181600C22D8
:102E2000C160C0E904128161C161FFF789FB00281C
:102E300003D0BDE81040FDF730BF10BD005000408A
:102E4000EC0300200C4810B50A4901604FF4E13151
:102E50004160002181600C22C160C0E904128161DF
:102E6000C161FFF76DFB002803D0BDE81040FDF7FE
:102E700014BF10BD00100140340400200C4810B5F0
:102E80000A4901604FF4E1314160002181600C2268
:102E9000C160C0E904128161C161FFF751FB0028E4
:102EA00003D0BDE81040FDF7F8BE10BD004400405F
:102EB0007C0400200C4810B50A4901600B494160B0
:102EC000002181600C22C160C0E904128161C161EE
:102ED000FFF736FB002803D0BDE81040FDF7DDBE4C
:102EE00010BD000000480040C4040020A08601007E
:102EF000FEE7FEE770B5334C33485A23237090F851
:102F0000231004295CD00021617090F82610A17074
:102F1000B0F83520A280B0F83720E28090F8276022
:102F2000267290F82820627245886581B0F82B508F
:102F3000A581B0F82950E58185882582B0F82F5009
:102F40006582B0F82D001F4DA082AA20803D20761A
:102F500005F8013B607828706970A0886880E08877
:102F6000A880AE71EA7160892881A0896881E089B2
:102F7000A881208AE881608A2882A08A6882114814
:102F80004FF6FF7215218038FDF7C0FEE08280B257
:102F9000A882207EA8750122D1030C48FEF7D4FD3B
:102FA000012208210A48FEF7CFFD06498022803918
:102FB0000848FFF7DFFCBDE87040052001F02ABC9F
:102FC0000121A1E7704900207F480020000802404D
:102FD0000004024034040020012001F01BFCFBE748
:102FE00010B5FEF7BDFD02F0F3F9012803D0BDE8EE
:102FF000104002F07DB910BD30B593B03421684661
:10300000FDF7AEFA14210DA8FDF7AAFA1D48002518
:10301000016841F080510160006800F0805012901A
:103020001948016841F4404101600068022400F43D
:103030004040129001200090000401908001CDE9F1
:10304000064006200890A820CDE909040B946846A4
:103050000C94FEF729FF08B172B6FEE70DA90F2008
:1030600081E831004FF4A05010904FF4805011903F
:1030700005210DA8FEF712FE002801D072B6FEE76A
:1030800013B030BD40380240007000400248016873
:1030900041F470010160704788ED00E010B504480C
:1030A000FDF778FDBDE810400148FFF711B90000B9
:1030B000EC0300200C4A08B51068016841680091D3
:1030C000C16841F01001C1601068416941F04001E0
:1030D0004161C8200090054B1168D06BA3F1C80274
:1030E000091DFDF7E3FB08BDEC030020344600207A
:1030F00010B5806B0021C185C184FFF7E8F810BDD1
:1031000070B5846B2068406994F84110C0F3C0101A
:103110000025212904D118B1E584204600F08EF85D
:103120002068406994F84210C0F38010222904D12D
:1031300018B1E585204600F05AF8606C40F01000A8
:1031400060642046FFF7C3F870BD10B50146806B80
:10315000096809684FF00003C9052ED4C3850168CA
:103160000C3151E8002F22F4807241E80024002C39
:10317000F5D10168143151E8002F22F0010241E835
:103180000024002CF5D10168143151E8002F22F001
:10319000400241E80024002CF5D1202180F84210A3
:1031A000016B012909D101680C3151E8002F22F08F
:1031B000100241E80024002CF5D14363016B012982
:1031C00002D0FFF7D5FB10BD818DFFF747F810BD8A
:1031D00010B5806B01214163016B012902D0FFF71B
:1031E000C8FB10BD818D4908FFF738F810BD016894
:1031F0000C3151E8002F22F4907241E80023002B9B
:10320000F5D10168143151E8002F22F0010241E8A4
:103210000023002BF5D1016B012909D101680C3184
:1032200051E8002F22F0100241E80023002BF5D1D5
:10323000202180F8421000210163704701680C31A1
:1032400051E8002F22F0C00241E80023002BF5D105
:10325000202180F84110704708B590F842102229CB
:1032600001D0022008BD81684FF48053994201D1FA
:10327000026922B1826A99421BD049B10AE0026810
:10328000816A5268C2F308020A80816A891C08E0D8
:10329000016971B10168496801F07F011170816AAB
:1032A000491C8162C18D491E0904090CC18503D0E6
:1032B0001BE001684968F1E70168CA6822F0200252
:1032C000CA600168CA6822F48072CA6001684A69EB
:1032D00022F001024A61202180F84210002141635E
:1032E000026B012A03D0FFF743FB002008BD0163F6
:1032F00001680C3151E8002F22F0100241E8002350
:10330000002BF5D101680A68D20602D50A6849681F
:103310000091818DFEF7A2FFE7E7000070B504463B
:1033200000680169E26821F4405111430161A1681C
:103330002069E26901436069104301432068C26863
:1033400049F20C639A430A43C26020684169A2694A
:1033500021F440711143416131492068884202D013
:103360003049884202D1FEF743FD01E0FEF730FD0F
:10337000E2690023192164253226B2F5004F626804
:1033800028D0A0FB0101930F9200FCF7FBFF014640
:10339000B0FBF5F06FF01802504301EB800006EB34
:1033A0000010B0FBF5F000F0F002B1FBF5F002EB1D
:1033B0000012B1FBF5F06FF01803584301EB8000E9
:1033C00006EB0010B0FBF5F000F00F002168104490
:1033D000886070BDA0FB010192185B41FCF7D2FF31
:1033E0000146B0FBF5F00201B1FBF5F06FF01803F8
:1033F000584301EB800006EBC000B0FBF5F000F095
:10340000F80002EB4002B1FBF5F0584301EB8000FD
:1034100006EBC000B0FBF5F000F00700D6E70000B7
:10342000001001400014014037B582B01346039AE2
:1034300082620446838500206064222184F8421061
:10344000E56B1B49E963E56B1A492964E56B1A4989
:10345000E964E16B08652168E06B091DFEF75CFA21
:103460002068016840680090206948B120680C30ED
:1034700050E8001F41F4807140E80012002AF5D1A5
:103480002068143050E8001F41F0010140E80012AC
:10349000002AF5D12068143050E8001F41F04001A7
:1034A00040E80012002AF5D105B0002030BD000030
:1034B0004B310008D13100080131000810B5044833
:1034C000FDF772FBBDE810400148FEF701BF0000A8
:1034D0003404002010B500224FF400410A48FEF7E2
:1034E00033FB002208210948FEF72EFB084800683C
:1034F000C16841F01001C160BDE81040802205495B
:103500000348FFF727BA0000000802400004024009
:1035100034040020FC4600200148FEF7D9BE00001C
:103520007C04002010B50448FDF7A4FBBDE8104062
:103530000148FEF7CDBE0000C40400200C4A08B5C7
:103540001068016841680091C16841F01001C160D4
:103550001068416941F04001416112200090054B23
:103560001168D06BA3F11802091DFDF79FF908BD82
:10357000C4040020A847002070B504460088604DB0
:10358000C0F30A062E806078A178C00840EA411096
:10359000C0F30A016980A078E278800940EA8200DD
:1035A0002279A6F5806640EA8220C0F30A00A8804E
:1035B00022796379520842EAC312C2F30A02EA800E
:1035C0006379A1F58061C3F30113AB726379A0F550
:1035D00080609B09EB72E388AB812389EB8163896F
:1035E0002B82237BAB74637BEB74E389AB82238AEE
:1035F0002E806980A880A2F58062EA80A3F58063AE
:10360000404A2B810020C10772D0411E01EBD171CD
:1036100021F00101495D1154401C0828F3DB3021E1
:10362000384800F0EDFE28893649020A08310A7050
:10363000487002202A18127A0A54401C0428F9DB28
:10364000A88A020A0A7148712E483121083000F018
:10365000D7FE2C48A98910300A0A02704170E98906
:103660000A0A8270C170298A0A0A02714171A97C12
:103670008171E97CC171322100F0C2FE2148A17B39
:10368000223801F00102428001F00202828001F042
:103690000402C28001F00802028101F0400242816E
:1036A00001F08002828101F01002C28101F020014C
:1036B0000182A97C0170E97C4170A98A01F48072C1
:1036C000428201F40072828201F48062C28201F4BB
:1036D0000062028301F48052428301F4005282832B
:1036E00001F48042C28301F40041018470BDFFE710
:1036F00000EBD07121F0010129440988090A8AE709
:1037000054450020DA0000202E4910B501F1BF0019
:1037100091F83F20427091F8403000F8093BB1F831
:10372000543043810B6DC360B1F856300382B1F859
:103730005830438291F87230437291F873300375B8
:103740004B6FC0F81530B1F878308385B1F87C3014
:10375000C38591F83630837791F83830C37791F884
:10376000703010F8194F63F303041B0963F3071457
:1037700000F8014B4B791B0900F8013BCB8820F87E
:103780000D3BD1F8313040F83139072A02D06B2A8D
:1037900002D004E0012200E0022280F8262031F865
:1037A0001B2F42804A88A0F82B208A88A0F8292065
:1037B0000A8A82804A8AA0F82F20898AA0F82D10D0
:1037C00010BD0000C0470020FEE7000030B50C46E9
:1037D000050014D0022C12D90A48A11E02882846DE
:1037E000FDF794FA2919C2B211F8023C9A4206D1A7
:1037F00011F8011CB1EB102F01D1012030BD0020C8
:1038000030BD00000401002030B50C4605000CD08E
:10381000022C0AD9FF22611EFDF78EFA291911F830
:10382000011C814201D1012030BD002030BD0000CB
:1038300010B50A480A4C006802F0A4FC9FED091B71
:1038400053EC112B02F074FA9FED081B53EC112B73
:1038500002F080F801F098FF606010BD3001002098
:10386000080100204AD8124DFB2109400000000049
:1038700000806640FFF794F901F0FEFE40F6B83094
:1038800000F0C8FFDFF8CC90334C344E344FDFF8F3
:10389000D480354D99F80000012857D133484FF6B0
:1038A000FF72C188286800F073FFB1EE400A85ED11
:1038B000010AA07A032804D1E07A03281BD101F081
:1038C0005DFEA07A022816D1E07A022813D1307862
:1038D000397898F8002040EA0103134306D0012804
:1038E00007D0012905D0012A03D004E001F092FE9F
:1038F00001E001F0F7FE1E4890ED000B51EC100BBB
:1039000001F042FF00EE100AD5ED020A194800F05E
:10391000B7FF194885ED030A9FED181AD0ED000A8C
:10392000144820EE811AF0EE400A3838B0EE410A11
:1039300001F00CF885ED040ABDEEC00A10EE100A85
:1039400001F092FA0848143000F044FD012000F024
:1039500061FF9FE793000020544500209000002065
:1039600091000020920000202C010020A4000020E3
:10397000B0000020C449002098000020CDCC1841A0
:1039800003B401984100009850EAC12018BF0420F8
:103990004A0D18BF40F0010040F2FF72B2EB515FD8
:1039A00008BF40F00200012808BF052002B07047A0
:1039B0000907090E002804DB00F1E02080F800145C
:1039C000704700F00F0000F1E02080F8141D7047F0
:1039D00010B52F499FED2C1B2DED020B84B00598DF
:1039E00020F000408842D8BF9DED040B2DDD294911
:1039F000884209D1049840B94FF00100FCF7DFFD7F
:103A000000F0A2FC06B010BD05DB9DED040B00F03C
:103A10008FFC06B010BD68469DED040B00F0A0F8C9
:103A200010F0030004BF9DED021B9DED000B0CD0B8
:103A300001280ED09DED021B9DED000B022817D032
:103A4000012000F0DDFB06B010BD00F0A5FA06B0C5
:103A500010BD9DED021B9DED000B012000F0D0FB81
:103A600051EC100B01F084FE06B041EC100B10BDC0
:103A700000F092FA51EC100B01F07AFE06B041EC26
:103A8000100B10BD0000000000000000000000004E
:103A9000FB21E93F0000F07F10B52F499FED2C1B63
:103AA0002DED020B84B0059820F000408842DCBF69
:103AB00000209DED040B32DD2849884209D104988D
:103AC00040B94FF00100FCF77AFD00F03DFC06B074
:103AD00010BD05DB9DED040B00F02AFC06B010BD07
:103AE00068469DED040B00F03BF810F0030011D088
:103AF000012818D09DED021B9DED000B02281AD065
:103B000000F04AFA51EC100B01F032FE06B041EC25
:103B1000100B10BD9DED021B9DED000B012000F070
:103B20006FFB06B010BD9DED021B9DED000B00F07C
:103B300033FA06B010BD012000F062FB51EC100B0F
:103B400001F016FE06B041EC100B10BD00000000A5
:103B50000000000000000000FB21E93F0000F07FB2
:103B60002DE9F14F04462DED020B2DED088B8AB0A7
:103B70009FEDE70B80ED020B139EE74826F0004512
:103B800085420ADC9DED120B002084ED000B0AB08B
:103B9000BDEC088B03B0BDE8F08FE0489FEDE0ABD3
:103BA0009FEDE1BBA84247DDE14F9FEDE39B9FED19
:103BB000E48B9DED120B53EC1A2B51EC100B002EE5
:103BC0001CDD02F0F5F941EC100BBD4208D053ECBE
:103BD0001B2B51EC100B02F0EBF9C4E900010BE0D8
:103BE00053EC192B51EC100B02F0E2F953EC182BAB
:103BF00002F0DEF9C4E900010120C8E701F0F6FD9A
:103C000041EC100BBD4208D053EC1B2B51EC100BB8
:103C100001F0ECFDC4E900010BE053EC192B51EC71
:103C2000100B01F0E3FD53EC182B01F0DFFDC4E9AC
:103C300000014FF0FF30AAE7C348A84279DB9DEDB1
:103C4000120B51EC100B00F05FFD41EC180B9FEDD7
:103C5000C00B53EC102B02F06BF89FEDBF1B53EC25
:103C6000112B01F0C3FD01F0CDFF074601F0F9FF74
:103C700041EC190B53EC1A2B02F05AF853EC182BA9
:103C800002F08AF941EC180B53EC1B2B51EC190B89
:103C900002F04EF8DFF8C8A241EC100B4FEA1558BD
:103CA0000125FA4453EC102B51EC180B02F080F96B
:103CB000032DC4E900013DD0C1F30A5005EB4511C5
:103CC000A8EB00001139814234DA0AEB051BB0EE93
:103CD00048AA9BED000BF0EE68AA53EC102B51ECB8
:103CE000190B02F025F841EC1B0B51EC1A0B53ECAD
:103CF0001B2B02F05DF941EC180B51EC1A0B53EC45
:103D0000182B02F055F953EC1B2B02F051F99BEDE7
:103D1000020B41EC1A0B53EC102B51EC190B02F077
:103D200007F853EC1A2B02F043F941EC100B6D1C11
:103D3000B8E70EE0002EA8BF3846BFF628AF94EDD6
:103D4000000B51EC100B01F013FDC4E900017842A7
:103D50001DE7C6F3130040F4801EC6F30A50A0F21C
:103D6000F530471100F01F05C5F12000DDF848B01F
:103D700008900020069007900520EC467949002D18
:103D800007EB0002794408BF51F8221009D051F81E
:103D9000223001EB8201AB404A68089922FA01F116
:103DA0001943A1FB0E26A1FB0B131A449A4234BF00
:103DB0000123002303EB06080CEB8003D3E901A6E3
:103DC0000E448E4234BF0121002192448A4411B135
:103DD000924502D903E0924501D2012100E0002181
:103DE000C3E901A641444CF82010011EA0F10100D6
:103DF000C4DC029800F10050850F0298DDE90367EA
:103E00008000DDF8148001F02CFF41EC1A0B3046E5
:103E100001F03EFF9FED541B53EC112B01F088FF86
:103E200041EC1B0B384601F033FF9FED511B53EC67
:103E3000112B01F07DFF41EC180B404601F028FFEB
:103E40009FED4D1B53EC112B01F072FF41EC190B50
:103E500051EC180B53EC192B01F0C8FC53EC1B2B45
:103E600001F0C4FC53EC1A2B01F0C0FCCDE90801B1
:103E7000002008909DED080B53EC1A2B51EC100B11
:103E800002F096F853EC1B2B02F092F853EC182B2F
:103E900002F08EF853EC192B02F07EF89FED381BE0
:103EA00053EC112B01F044FF9FED370B41EC180B45
:103EB00053EC102B9DED080B51EC100B01F038FF6B
:103EC00053EC182B01F092FC9FED310B41EC180BD9
:103ED00053EC102B9DED080B51EC100B01F028FF5B
:103EE00053EC182B01F082FC41EC100B139810F0EE
:103EF000004F06D06D4251EC100B01F039FC41EC43
:103F0000100B284684ED000B41E600000000000085
:103F10000000000000000000FB21E93F7CD90240C6
:103F200000004054FB21F93F3163621A61B4D03D77
:103F3000FB21F93F000000000000601A61B4D03D91
:103F40007370032E8A19A33BFB2139410000000046
:103F500083C8C96D305FE43F000000000000E03F0F
:103F60009A290000E8280000000000000000103E30
:103F7000000000000000103C000000000000103AAB
:103F8000182D4454FB21F93D3326A611460B113C54
:103F900000000054FB21F93D10B52DED040B2DED73
:103FA000088B82B0B0EE419AF0EE619A0B9820F047
:103FB00000449FED4BABB4F1795F11DA9DED0A0B34
:103FC00051EC100B01F01EFE002801BFB0EE4A0AB2
:103FD000F0EE6A0A02B0BDEC088B04BF04B010BD5D
:103FE0009DED0A0B53EC102B51EC100B01F0A0FED1
:103FF00041EC180B3C480621B0EE480AF0EE680A86
:10400000784400F081F853EC182B51EC100B01F0C0
:104010008FFE9DED0A0B41EC1B0B53EC192B51EC61
:10402000100B01F085FE41EC190B53EC1B2B51ECEE
:10403000180B01F07DFE53EC192B01F0B9FF9FED39
:104040002C0B41EC190B53EC102B51EC180B01F01D
:104050006FFE41EC100B2848844210DA53EC192B08
:1040600051EC100B01F0A4FF53EC1A2B01F094FF5C
:1040700041EC100B02B0BDEC088B04B010BD1F4822
:10408000A042BCBF9FED1E1B8DED001B06DBA4F5FF
:1040900000100190002000909DED001B51EC100BD2
:1040A00053EC112B01F084FF9DED000B41EC180B3C
:1040B00053EC102B51EC1A0B01F07AFF41EC1A0B68
:1040C00053EC192B51EC180B01F072FF53EC1A2B27
:1040D00001F062FF41EC100BCCE700000000000093
:1040E000000000000000F03F0C260000000000006F
:1040F000000000000000E03F3333D33F0000E93F01
:10410000000000000000D23F70B504462DED028B88
:104110004D1E00EBC500B0EE408AF0EE608A90EDD7
:10412000000B35F0060017D053EC182B51EC100B98
:1041300001F0FEFD41EC100B6D1E04EBC50090ED8F
:10414000001B51EC100B53EC112B01F04FFB41EC19
:10415000100B35F00600E7D1022D36D0042D1CD00F
:10416000062D1CBFBDEC028B70BD53EC182B51EC1F
:10417000100B01F0DDFD94ED0A1B53EC112B01F047
:1041800035FB53EC182B01F0D3FD94ED081B53ECD9
:10419000112B01F02BFB41EC100B53EC182B51ECC5
:1041A000100B01F0C5FD94ED061B53EC112B01F033
:1041B0001DFB53EC182B01F0BBFD94ED040B53ECED
:1041C000102B01F013FB41EC100B53EC182B51ECAE
:1041D000100B01F0ADFD94ED021B53EC112B01F01F
:1041E00005FB53EC182B01F0A3FD94ED001B53ECE1
:1041F000112B01F0FBFABDEC028B41EC100B70BDF2
:1042000031B504462DED040B2DED0A8BB0EE41BA0D
:10421000F0EE61BA0B989DED0A0B20F00040B0F172
:10422000795F0DDA51EC100BFFF7AAFB042808BFE9
:1042300000F09AF89DED0A0BBDEC0A8B05B030BD7D
:1042400053EC102B51EC100B01F072FD41EC180BEC
:104250009DED0A0B53EC182B51EC100B01F068FD8F
:1042600041EC190B2C48B0EE480AF0EE680A052123
:104270007844FFF749FF9FED2ACBB0EE40AAF0EE5D
:1042800060AA9CB353EC1C2B51EC190B01F050FDB0
:1042900041EC1C0B53EC1A2B51EC190B01F048FDAF
:1042A0009FED210B41EC190B53EC102B51EC1B0B28
:1042B00001F03EFD53EC192B01F07AFE53EC182B64
:1042C00001F036FD53EC1B2B01F072FE53EC1C2B5E
:1042D00001F06EFE9DED0A1B53EC112B01F05CFE0C
:1042E000BDEC0A8B05B041EC100B30BDFFE753EC81
:1042F0001A2B51EC180B01F01BFD53EC1C2B01F099
:1043000075FA53EC192B01F013FD9DED0A1B53ECCC
:10431000112B01F06BFAE3E7942400000000000089
:10432000495555555555C5BF000000000000E03FF8
:1043300010B553EC102B51EC100B01F057FA41EC77
:10434000100B10BD000000009FED050B10B553ECE5
:10435000102B51EC100B01F0FDFA41EC100B10BDCD
:1043600000000000000000009FED050B10B553ECAD
:10437000102B51EC100B01F0DBFC41EC100B10BDCD
:10438000000000000000001038B501246502009410
:104390000D4C25600025A560E560082525610B4CC6
:1043A000050A25706070080AA070E170100A20717B
:1043B0006271180AA071E3716B46224602490448F3
:1043C000FCF7DAFC38BD0000FC4400209C00002013
:1043D000C403002000B587B00121069140F24111CD
:1043E000009100210291039108210246049106AB3D
:1043F00069460248FCF7C0FC07B000BDC4030020BA
:1044000000B587B00123CDE900310021039104916B
:104410000821024605916B4601A90248FCF7ACFC55
:1044200007B000BD9C0300202DE9F0478B4C0546EA
:104430002DED088B0E46606801F0A4FE41EC100BD8
:10444000FFF72AFBB0EE408AF0EE608A304601F0BA
:1044500008FC894649EC110B064653EC182B51EC2D
:10446000110B01F065FC41EC190B606801F08AFE4C
:1044700041EC100BFFF7ACFAB0EE408AF0EE608A28
:10448000284601F0EEFB884648EC110B054653EC3C
:10449000182B51EC110B01F04BFC53EC192B01F0D4
:1044A00087FD01F0AFFB07B2606801F06BFE41ECE5
:1044B000100BFFF78DFA49EC116B53EC102B51ECFC
:1044C000110B01F035FC41EC180B606801F05AFE4D
:1044D00041EC100BFFF7E0FA48EC115B53EC102BAA
:1044E00051EC110B01F024FC53EC182B01F07EF978
:1044F00001F088FB00B201F0B4FB8A464AEC100BD5
:1045000006469FED578B51EC100B53EC182B01F026
:104510000FFC41EC1A0B384601F0A3FB894649EC2D
:10452000100B054653EC182B51EC100B01F000FC5E
:1045300041EC1B0B206801F094FB884648EC100B03
:1045400007469FED499B51EC100B53EC192B01F0E2
:10455000EFFB53EC1B2B01F049F953EC1A2B01F044
:1045600027FD01F04FFB08344AEC106B208053EC20
:10457000182B51EC100B01F0DBFB49EC105B41EC0C
:104580001A0B53EC182B51EC100B01F0D1FB48EC3B
:10459000107B41EC1B0B53EC192B51EC100B01F071
:1045A000C7FB53EC1B2B01F003FD53EC1A2B01F05E
:1045B000FFFC01F027FB4AEC106B608053EC182BDA
:1045C00051EC100B01F0B4FB49EC105B41EC1A0B01
:1045D00053EC182B51EC100B01F0AAFB48EC107BAC
:1045E00041EC1B0B53EC192B51EC100B01F0A0FB11
:1045F00053EC1B2B01F0DCFC53EC1A2B01F0F6F80A
:1046000001F000FB4AEC106BA08053EC182B51EC2E
:10461000100B01F08DFB49EC105B41EC1A0B53ECD5
:10462000182B51EC100B01F083FB48EC107B41EC94
:10463000180B53EC192B51EC100B01F079FB53ECD8
:10464000182B01F0D3F853EC1A2B01F0CFF801F03E
:10465000D9FAE080BDEC088BBDE8F08708010020A6
:10466000B84B7F669EA0E63F9A9999999999084020
:104670000D49C96B814207D10068016841F40021EE
:1046800001600A48FEF778BF0949C96B814209D128
:104690000068016841F4002101600648017806487D
:1046A000FEF79EB970470000C40400209047002028
:1046B000EC030020F40000206C4500200D49C96B7C
:1046C000814207D10068016821F4002101600A4895
:1046D000FEF752BF0949C96B814209D100680168E0
:1046E00021F400210160064801780648FEF778B9F8
:1046F00070470000C4040020A8470020EC030020FD
:10470000F40000203446002082B0CDE9000121F001
:10471000004001909DED000B02B051EC100B704772
:10472000B4EEE00AF1EE10FA06DCF1EE600AB4EE47
:10473000E00AF1EE10FA01D2B0EE600A7047FDF720
:1047400017FAFEF759FCFEF707FBFEF77BFAFEF7B8
:1047500035FAFEF755FAFEF7ADFBFEF757FBFEF70D
:1047600071FBFEF78BFBFBF76FFFFBF79DFFFEF77F
:10477000E5FEFEF79FFCFEF7ADFEFEF7B9FA00F08E
:1047800050F8FEE701460020842900D0C81C70477D
:1047900010B5531C03EBD3735C10431A9FED1C0A36
:1047A000002814DBA04212DA541C04EBD47400EB92
:1047B0006404002904DB8C4202DD00EE903A17E02D
:1047C0008C421FDC91421DDA511A08440EE0A042CF
:1047D00018DB904216DA541C04EBD474A0EB64048A
:1047E000002910DB8C420EDD801A401A00EE900A80
:1047F000F8EEE00A60EE800A00EE102AB8EEC01A69
:1048000080EE810A10BD8C42FCDC9142D5DB10BDEC
:104810000000B44310B500B9012000F05DFC002099
:1048200010BD10B500F07EFC002010BD7FB50D4618
:1048300004464169B0F9080081B1A16971B1FFF77F
:10484000A1FFD4E905128DE80700D4E900102B463A
:10485000226900F090FD039004B070BDFFF792FF55
:1048600003A9CDE90001208A2B4682B2D4E90010C9
:1048700000F054FD012801D00020EDE70398EBE79C
:10488000BDEEC00A00B510EE101ABDEEE00A10EE43
:10489000102AC0E90512511A0369C0E90331B4298D
:1048A00002DDA1F5B47104E011F1B40F02DA01F5F3
:1048B000B471016100EE101AD0ED000AB8EEC01A12
:1048C000B8EEC00A60EE810AFDEEE00AC0ED070A0C
:1048D000D0ED080A90ED011AF8EEE00A41EE000A68
:1048E000BDEEE00A80ED080AD0ED0D0AB8EEC00A70
:1048F000F8EEE00AFFF714FFBDEEC00A10EE101A42
:104900000162D0E90332D21A00EE102AD0ED020A79
:10491000B8EEC00A20EE200ABDEEC00A10EE102A42
:104920004262C36919441144816290ED0C0AF8EEA9
:10493000C00A00EE101AB8EEC00AFFF7F1FEBDEE95
:10494000C00A80ED0A0AB8EEC00A00BDBDEEC00A7A
:1049500000B510EE101ABDEEE00A10EE102AC0E904
:104960000512511A036900EE101AC0E90331B8EEBE
:10497000C00AD0ED000A20EE800ABDEEC00A80ED2C
:10498000070A90ED080A90ED011AF8EEC00A00EE51
:10499000101AB8EEC00A41EE000ABDEEE00A80ED42
:1049A000080AD0ED0D0AB8EEC00AF8EEE00AFFF7EB
:1049B000B7FEBDEEC00A10EE101A0162D0E9033254
:1049C000D21A00EE102AD0ED020AB8EEC00A20EE8C
:1049D000200ABDEEC00A10EE102A4262C3691944D3
:1049E0001144816290ED0C0AF8EEC00A00EE101A34
:1049F000B8EEC00AFFF794FEBDEEC00A80ED0A0AC9
:104A0000B8EEC00A00BD0023C360036180EC030A56
:104A1000C0E90C12704700002DE9F041184E0F4616
:104A20000446F5683068001D00F08EFA38B9306829
:104A300090F82C1001208840316981433161601C5D
:104A400007D137B13168BDE8F0410E48091D00F0CB
:104A5000BFBA30682C44AC424460316805D2B06BB8
:104A6000BDE8F041091D00F09BBA706B091D00F014
:104A700097FAB06A844200D2B462BDE8F0810000C7
:104A800024000020E80800202DE9F041054600F050
:104A9000ABFA2E4EB068401CB06030682C4F10B19D
:104AA000706940B32DE03560B068012829D1002439
:104AB00004EB840007EB800000F064FA641C072C10
:104AC000F6D323488C3000F05DFA2148A03000F086
:104AD00059FA1F48B43000F055FA1D48C83000F0AC
:104AE00051FA1B48DC3000F04DFA19488C307063E5
:104AF0001430B06305E03068E96AC06A884200D8C3
:104B00003560706A0121401C7062E86A3269814038
:104B10001143316100EB800007EB8000291D00F09C
:104B200057FA00F081FA706900280CD03068E96A01
:104B3000C06A884207D207494FF080500860BFF32F
:104B40004F8FBFF36F8FBDE8F0810000240000207D
:104B50000C08002004ED00E010B5044690F8510068
:104B600058B101280CD002280FD0502080F31188B2
:104B7000BFF34F8FBFF36F8FFEE7206B00F068FA33
:104B80002046BDE8104000F063BA10BD10484FF455
:104B90007051420706D0C01D0D4920F00700411A90
:104BA000C1F570510B4A00230144C2E900030839E2
:104BB000183A21F0070111604B600B600B1AC0E935
:104BC000001393604FF00040536050617047000045
:104BD000FC08002078000020134E144DA6F1C807F1
:104BE0004FF08058DFF8489011E000F0FDF9F068D0
:104BF000C468201D00F0A8F9A868401EA860686875
:104C0000401E686000F010FA2046FFF7A5FF6868B4
:104C10000028EAD138680128F9D9C9F80080BFF323
:104C20004F8FBFF36F8FF2E7D408002024000020DD
:104C300004ED00E02DE9F0479A46DDE9098481465C
:104C40006FF00303206B03EB82021044089D20F0F9
:104C50000706700707D0502080F31188BFF34F8FED
:104C6000BFF36F8FFEE7002761B1002023180A5CB5
:104C700083F834200A5C12B1401C1028F6D384F863
:104C8000437001E084F83470072D00D30625E562F7
:104C9000C4E91157201D00F080F904F1180000F05C
:104CA0007CF92461C5F107006462A061E76484F8BF
:104CB000507052464946304600F0C0F82060B8F1C6
:104CC000000F01D0C8F80040BDE8F08730B51149A9
:104CD00000E011460A688242FBD34B685C188442AC
:104CE00003D1406818444860084643681C18944241
:104CF00009D1084C183C2468A24209D052681A44D1
:104D000042600A6812680260814200D0086030BDCB
:104D10000460F9E7780000200648416B096829B172
:104D2000416BC968C9684968816270474FF0FF31BB
:104D3000FAE700002400002008484068401C4FF0BB
:104D4000500080F3118804D0BFF34F8FBFF36F8FF3
:104D5000FEE7BFF34F8FBFF36F8FFEE780000020A9
:104D60002DE9F0410546002600F012FA324F38686E
:104D700008B9FFF70BFF786905424ED1C5B3083576
:104D800068070ED005F00700C0F108000544680769
:104D900007D0502080F31188BFF34F8FBFF36F8F80
:104DA000FEE72DB37868854237D823491831084685
:104DB000046801E0214604466068A84202D22068E7
:104DC0000028F7D13868844227D00E682068086030
:104DD00060680836411B10290FD96019420708D0B6
:104DE000502080F31188BFF34F8FBFF36F8FFEE722
:104DF00013E041606560FFF769FF61687868401AF9
:104E00007860BA68904200D2B860786901430020A7
:104E1000C4E90001F868401CF86000F04DFB700721
:104E200007D0502080F31188BFF34F8FBFF36F8FEF
:104E3000FEE73046BDE8F0816000002010B5031F9A
:104E40004FF080741C601B1F21F001011960191FB5
:104E5000044B0B6014390A60091F6FF002024438DA
:104E60000A6010BD394D00080749A2220A700022CD
:104E70004A708A70CA700871020A4A71020C8A71FB
:104E8000000EC871704700004001002047F2305109
:104E90000A46B7EE001ADFED030AB2EE040A024832
:104EA000FFF7B1BDCDCCCC3DB848002038B50446A5
:104EB0000068016840680090204884421BD1E06B84
:104EC0000068016821F001010160E06B01684A6837
:104ED000062A06D10968090301D5416C00E0C16BBF
:104EE0008847E16B182009684860E06B006801683A
:104EF00041F001010160124884421DD1E06B00685D
:104F0000016821F001010160E06B01684A680D4B06
:104F1000C2F1C8021A700968090301D5416C00E0AA
:104F2000C16B8847E16BC82009684860E06B006886
:104F3000016841F00101016038BD0000C404002097
:104F4000EC030020F4000020D0E9013201699A60EE
:104F5000D0E901235A604A68824201D182684A60DE
:104F6000002202610868401E08600868704700005F
:104F7000034B036003F15400086080201060704709
:104F80004801002000F108014FF0FF32C0E9011292
:104F9000C16001610021016070470021016170471B
:104FA00030B50C68621C02D000F1080202E0026910
:104FB00004E01A4653681D68A542FAD953684B604D
:104FC00099608A60516008610168491C016030BDC8
:104FD00042684A6093688B60936859609160086189
:104FE0000168491C01607047502080F31188BFF3AD
:104FF0004F8FBFF36F8F0A494868401C48600128F3
:105000000CD10848006810F0FF0F07D0502080F343
:105010001188BFF34F8FBFF36F8FFEE7704700001B
:105020008000002004ED00E00849486828B1401ED7
:10503000486001D180F311887047502080F31188B7
:10504000BFF34F8FBFF36F8FFEE70000800000209B
:1050500070B500282AD0164DA0F10804606869696F
:10506000084207D1502080F31188BFF34F8FBFF360
:105070006F8FFEE722683AB1502080F31188BFF3AA
:105080004F8FBFF36F8FFEE78843606000F080F8BA
:1050900060686968084468602046FFF717FE286961
:1050A000401C2861BDE8704000F006BA70BD0000E9
:1050B000600000204FF0E02000210161816105497E
:1050C0004FF47A720968B1FBF2F1491E4161072180
:1050D000016170472000002010B5020014D00F4875
:1050E000006B38B1502080F31188BFF34F8FBFF3AE
:1050F0006F8FFEE700F04CF800211046FFF78CFCA4
:1051000000F0DAF9002807D105494FF08050086017
:10511000BFF34F8FBFF36F8F10BD0000240000203E
:1051200004ED00E010B586B00024039405AA04A99C
:1051300003A80494FFF71CFFDDE903010094CDE907
:10514000011000230EA11048059A00F014F90F4930
:105150000028C86211D0502080F31188BFF34F8F10
:10516000BFF36F8F4FF0FF30886201204861CC6041
:1051700006B0BDE8104000F041B806B010BD000018
:1051800049444C4500000000D94B00082400002091
:105190000248016B491C0163704700002400002095
:1051A000144A106B10B10120D06170470020D0610B
:1051B00010691149B0FA80F0C0F11F0000EB8000C7
:1051C00051F820306BB101EB800000F10803416819
:1051D00049684160994201D149684160C8681060DE
:1051E0007047502080F31188BFF34F8FBFF36F8F4C
:1051F000FEE70000240000200C0800201CB5374802
:105200000168374A914207D1502080F31188BFF3DB
:105210004F8FBFF36F8FFEE700683149491E884208
:1052200007D1502080F31188BFF34F8FBFF36F8FEA
:10523000FEE72C4908780190FF20087008788DF867
:1052400000009DF800009DF8002000F0F000904262
:1052500007D0502080F31188BFF34F8FBFF36F8FBB
:10526000FEE79DF80000204C00F050002070072061
:10527000A06006E0401EA0609DF8000040008DF890
:1052800000009DF800000006A068F3D4032807D0B2
:10529000502080F31188BFF34F8FBFF36F8FFEE76D
:1052A0004FF44070A060019808700C4820300168ED
:1052B00041F470010160016841F070410160FFF745
:1052C000F9FE00206060FBF701F80848016841F032
:1052D00040410160FAF7E6FF00201CBD00ED00E050
:1052E00071C20F4100E400E08000002034EF00E0D4
:1052F00010B5502080F31188BFF34F8FBFF36F8F2D
:1053000000F074F818B104494FF080500860002094
:1053100080F3118810BD000004ED00E02DE9FF5F6F
:105320008346DDE90E87994616468A469000FFF7C8
:1053300017FD05001CD05420FFF712FD040014D007
:105340000020256384F85100CDE90240CDE90087B3
:105350004B46324651465846FFF76CFC2046FFF755
:1053600093FB012004B0BDE8F09F2846FFF770FED4
:105370004FF0FF30F6E7F0B585B00546DDE90B04E8
:105380000A9EA8B1E4B1542700972063022084F854
:1053900051000020CDE9024004AF2846CDE9006766
:1053A000FFF748FC2046FFF76FFB049805B0F0BDFF
:1053B000502080F31188BFF34F8FBFF36F8FFEE74C
:1053C000502080F31188BFF34F8FBFF36F8FFEE73C
:1053D0000548416919B1006B18B1002070470120E0
:1053E0007047022070470000240000202DE9F041A2
:1053F0002F4F0026386B28B1B869401CB861304681
:10540000BDE8F081FD686D1CFD6013D1786B00680C
:1054100038B1502080F31188BFF34F8FBFF36F8FE7
:10542000FEE7786BB96B7963B863386A401C386201
:10543000FFF772FCB86ADFF87C80854209D3786B8D
:105440000068A0B1786BC068C4686068854211D2FA
:10545000B8623868C06A00EB800158F82100012862
:1054600000D90126F8690028C9D00126C7E74FF006
:10547000FF30EDE7201DFFF767FDA06A18B104F1CA
:105480001800FFF761FDE06A01213A69814011438C
:10549000396100EB800108EB8100211DFFF798FDC9
:1054A000E06A3968C96A8842C9D30126C7E70000A3
:1054B000240000200C0800202DE9F0472C4D00248A
:1054C0002746286B38B1FFF78FFD286B401E2863F5
:1054D000286B40B146E0502080F31188BFF34F8F16
:1054E000BFF36F8FFEE7A86822490126D0B3A1F170
:1054F000B4098846D8F80010E9B1D8F80C00C4689F
:1055000004F11800FFF720FD201DFFF71DFDE06AE4
:105510002A6906FA00F11143296100EB800109EBC9
:105520008100211DFFF754FDE06A2968C96A88429D
:10553000E0D3EE61DEE70CB1FFF7EEFBAC693CB106
:10554000FFF754FF00B1EE61641EF9D10020A8619D
:10555000E86938B10849012738070860BFF34F8F61
:10556000BFF36F8FFFF760FD3846BDE8F08700009E
:1055700024000020C008002004ED00E010B51C4805
:105580002DED028BB0F9040000F06BFB9FED191BB1
:1055900053EC112B00F0CCFB9FED181B53EC112B9F
:1055A00000F0D8F9174C41EC180BA06800F0EAFDA8
:1055B00053EC182B00F01AF900F0E6F800EE100A90
:1055C000114910EE100ADFED110A84ED020A88423B
:1055D00002DD30EE600A06E010EE100A0C49884247
:1055E00003D930EE200A84ED020ABDEC028B10BD17
:1055F00054450020333333333333D33F00000000AE
:1056000000A084402C010020000034430000B4437B
:10561000000034C310B5124CA06800F0B3FD9FED3C
:10562000111B53EC112B00F0E1F800F0ADF800EE87
:10563000100A0E4910EE100ADFED0D0A84ED020A81
:10564000884202DD30EE600A06E010EE100A0949D9
:10565000884203D930EE200A84ED020A10BD000012
:105660002C0100209A9999999999B93F00003443E7
:105670000000B443000034C310B514484DF6667101
:105680002DED028B9FED128A0160124C80ED028A93
:1056900080ED038A22461146B0EE481ADFED0E0A6D
:1056A0009FED0E0A0E48FFF7AEF9F0EE480A2246CB
:1056B000BDEC028B11460A48BDE81040B2EE041A58
:1056C000B1EE040A3830FFF79EB900002C0100202B
:1056D00000000000E0930400CDCCCC3D00C0DA45D2
:1056E0008C49002070B519481A4D1B490278184C96
:1056F00009782868012A02D1184E012901D0A0603A
:1057000070BD00F03FFD96ED001B53EC112B00F037
:105710004FFC9FED131B53EC112B00F0CDFA0FD271
:10572000286800F02FFD96ED001B53EC112B00F0C4
:105730003FFC9FED0D1B53EC112B00F0F7FBDFD36B
:1057400095ED000A84ED020A70BD00009000002073
:105750002C0100209400002091000020B0000020C7
:10576000000000000000344000000000000034C0D1
:1057700081F00041704780F00040704721F0004107
:10578000704720F00040704721F00042A2F16052C3
:10579000B2F5801F01F0004328BFD2F17F6C0BD916
:1057A0005FEA001C43EAC20242EB507018BF704728
:1057B00028BF20F001007047B2F5801FBCBF18461B
:1057C00070474FEA410C1CF5001F02D2084600F05A
:1057D0004FBD70B500F056FB00000089FFF7F6BF23
:1057E0004FF00040A0F580007047000010B591EA2E
:1057F000030F48BF83F0004300F1E283841A71EB8A
:10580000030C05D2121943EB0C03001B61EB0C01D6
:10581000DFF824E14FEA1154A4EB135C1EEA430FB6
:1058200018BF9EEA445F73D023EA0E03DCF1200E1A
:1058300021EA045143F4801332D322FA0CFE10EB18
:105840000E0023FA0CFE41EB0E01CCF1200E03FA00
:105850000EFE10EB0E0051F10001B1F5801FCCF1EE
:10586000200E32D201EB045112FA0EF2BDE81040C4
:1058700058BF7047401C38BF5FEA420218BF7047EC
:10588000002814BF20F0010041F100014FEA41035C
:1058900013F5001F38BF7047A1F1C04100F040BBB5
:1058A000012A43EB0302ACF1200CDCF11F0E32BFE6
:1058B0004FF0000E23FA0CF310EB030041EB045100
:1058C000B4EB115FD0D0A1EB045101F58011490870
:1058D0005FEA300001EB04510ED350F1000038BFF5
:1058E00012FA0EFE08D1BDE81040C9E7401C38BFCF
:1058F0005FEA4202CAD1C3E7BDE810404FEA410364
:1059000013F5001F38BF7047A1F1C04100F008BB7C
:105910009EEA445F08D011EA5E0FBDE8104004BF64
:1059200001F0004100207047BDE8104070B500F064
:10593000A9FA00BF64FBBE3E0000E0FF491058BF5B
:10594000C1F140415B1058BFC3F140438B42EFF3BC
:10595000008070472DE9C04130B4DFF8A0C23CEAB6
:10596000111418BF3CEA131400F0EC8081EA03051F
:105970001CEA111444EAD57418BF1CEA131500F090
:10598000C780A4EB05044FF0004545EAC12145EA74
:10599000C32341EA505143EA525304F17F749942C0
:1059A00004F500344FEAC0204FEAC22208BF9042FB
:1059B00000F09C804FEA13650FF24016765D4FEAC7
:1059C000134506FB05F7C7F1807706FB07F74FEA9B
:1059D000D737A7FB03687642C8F58038A7FB06CE09
:1059E00038BFA8F1010807FB08E64FF0000EA6FB40
:1059F000028CE6FB03CEDCF1000CCEF1004E38BF8A
:105A0000AEF1010EA6FB0C584FF000074FF0000559
:105A1000E6FB0E87A1FB08C6A0FB07CE16EB0E0621
:105A200045F10005E1FB076515F1E04E7EBFA4F5E9
:105A300080345FEA46066D4116F1800745F10005A6
:105A40004FEA17274FEA066647EA0567A6F1DE46E2
:105A5000B6F1805F4FEA15251FD9384624F0010CB6
:105A600005EBC471BCF1FE6F01EB0C1102D8F0BC68
:105A7000BDE8008124425CBF01F5801E9EEAC47F20
:105A800002D4F0BCBDE80081244238D4F0BCA1F1BE
:105A9000C041BDE8004100F043BA4FEAD22242EAD9
:105AA00043524FEAD323A7FB02864FEAD02040EAB5
:105AB000415007FB03661EEA0E0F4FEAD12105FB9A
:105AC000026658BFA6EB0056B6EB00564FEA520EE0
:105AD0004EEAC37E18EB0E0E56EB530EBDD518EBF7
