:020000040800F2
:10000000F0490020E9020008A32B0008C5280008D9
:10001000A12B00084305000865310008000000001E
:10002000000000000000000000000000290200089D
:100030007D0900080000000085020008C92B0008A7
:100040000303000803030008030300080303000878
:100050000303000803030008030300080303000868
:100060000303000803030008030300080303000858
:10007000690600080303000875060008030300086A
:1000800003030008030300080303000851050008E8
:1000900045050008030300080303000803030008E4
:1000A0000303000803030008030300080303000818
:1000B00003030008992C0008030300080303000849
:1000C000030300080303000803030008A52B00082E
:1000D000030300080303000803030008992F000826
:1000E00003030008030300080303000803030008D8
:1000F00003030008030300080303000803030008C8
:1001000003030008030300080303000803030008B7
:1001100003030008030300080303000803030008A7
:100120008106000803030008030300088D06000889
:10013000030300080303000803030008690500081F
:100140005D0500080303000803030008030300081B
:100150000303000803030008030300080303000867
:100160000303000803030008030300080303000857
:100170000303000803030008030300080000000055
:10018000030300080303000800F002F800F03CF845
:100190000AA090E8000C82448344AAF10107DA45E2
:1001A00001D100F031F8AFF2090EBAE80F0013F0F8
:1001B000010F18BFFB1A43F001031847D43D00009C
:1001C000F43D0000103A24BF78C878C1FAD852072D
:1001D00024BF30C830C144BF04680C6070470000C1
:1001E0000023002400250026103A28BF78C1FBD840
:1001F000520728BF30C148BF0B6070471FB503F0DE
:100200007FFE1FBD10B510BD00F061F91146FFF76C
:10021000F5FF03F01DF800F07FF903B4FFF7F2FFDC
:1002200003BC00F087F900002C4B19680868B0E89F
:10023000F04F80F30988BFF36F8F4FF0000080F319
:10024000118870470000000008480068006880F3CB
:1002500008884FF0000080F3148862B661B6BFF3DF
:100260004F8FBFF36F8F00DF00BF00BF08ED00E0CE
:10027000DFF80C00016841F470010160704700BFB5
:1002800088ED00E0EFF30980BFF36F8F134B1A681E
:100290001EF0100F08BF20ED108A20E9F04F10600B
:1002A00009B44FF0500080F31188BFF34F8FBFF3B4
:1002B0006F8F03F05DFC4FF0000080F3118809BCE4
:1002C00019680868B0E8F04F1EF0100F08BFB0ECD6
:1002D000108A80F30988BFF36F8F704728000020D1
:1002E000EFF3058070470000094880470948004740
:1002F000FEE7FEE7FEE7FEE7FEE7FEE7FEE7FEE7D6
:10030000FEE7FEE704480549054A064B7047000032
:10031000892C000889010008F0430020F0490020E2
:10032000F0450020F045002053EA020C00F06980FF
:100330002DE9F04B4FF00006002B1FBFB3FA83F5F9
:1003400003FA05F424FA05F65E4012BF1643B2FA2A
:1003500082F502FA05F4C5F120051EBF22FA05FC5C
:1003600044EA0C04203556EA044C4FEA144418BF02
:10037000641C4FF000084FF00009904271EB030C31
:1003800039D3002919BFB1FA81F701FA07F6B0FA9B
:1003900080F700FA07F6C7F120071EBF20FA07FC16
:1003A00046EA0C062037B6FBF4FCA7EB0507103F26
:1003B00007F01F0BCBF120060CFA0BFB2CFA06F60C
:1003C00044BFB3460026202FA4BF5E464FF0000B6B
:1003D0005BEA060C08BF4FF0010B19EB0B09ABFBF6
:1003E000027C48EB0608C01B06FB02CC0BFB03CCCF
:1003F00071EB0C01C1E70B46024641464846BDE899
:10040000F08B13B54FF000004FF00001AFF3008008
:10041000BDE81C40704710B5203AC0F00B80B1E831
:100420001850203AA0E81850B1E81850A0E8185029
:10043000BFF4F5AF5FEA027C24BFB1E81850A0E832
:10044000185044BF18C918C0BDE810405FEA827C4C
:1004500024BF51F8043B40F8043B08BF7047D20763
:1004600028BF31F8023B48BF11F8012B28BF20F804
:10047000023B48BF00F8012B70474FF0000200B567
:10048000134694469646203922BFA0E80C50A0E8B7
:100490000C50B1F12001BFF4F7AF090728BFA0E865
:1004A0000C5048BF0CC05DF804EB890028BF40F831
:1004B000042B08BF704748BF20F8022B11F0804F73
:1004C00018BF00F8012B704770477047704775469A
:1004D00000F02CF8AE4605006946534620F00700B0
:1004E000854618B020B5FFF70DFFBDE820404FF05E
:1004F00000064FF000074FF000084FF0000B21F00E
:100500000701AC46ACE8C009ACE8C009ACE8C009DA
:10051000ACE8C0098D46704710B50446AFF30080C3
:100520002046BDE81040FFF778BE00000048704745
:100530008C43002001491820ABBEFEE726000200D4
:100540007047FEE7014800F098BB00004C03002014
:10055000014800F092BB00004C030020014800F06D
:100560008CBB000074030020014800F086BB000033
:10057000740300202DED068BD4B037483749384D31
:10058000C088088000204AA935F8302021F81020C2
:10059000401C0428F8DB334841F6FF7747F2305619
:1005A00090ED00AAD0ED019A90ED029AD0ED03AA49
:1005B00090ED048AD0ED058A00240DF1040B0DF1B5
:1005C000840ACDE94C6700BF0AEB4410B0EE491A2B
:1005D000F0EE690AB0EE4A0A02F045FFB0EE681A82
:1005E000F0EE480AB0EE6A0A0BEB441002F03BFF53
:1005F000641C042CE8DB40F25558D94600240DF564
:10060000947B00973BF814104D9B01EB080002B25D
:1006100035F9341009EB441002F076FE46A9024683
:1006200041F8240005EBC4000096B0F902100AEB73
:1006300044104C9B02F0C8FE42A941F82400641CFF
:10064000042CDEDB8C469CE80F0002F09DFD0A20A6
:1006500002F024FED2E70000444300200000002006
:100660002C0300200C3F0008014800F0DDBD000015
:100670004C050020014800F0D7BD0000AC0500206B
:10068000014800F0D1BD000048040020014800F0FE
:10069000CBBD0000A80400202DE9F04F85680024A0
:1006A000099E802D18D0894DC563894D456490F809
:1006B0003450012D15D0012580F8345090F8355074
:1006C000012D10D0002180F834100224002180F880
:1006D00034102046BDE8F08F4FF480714165012051
:1006E000F8E70220F6E7022580F835500025456539
:1006F00005682F6847F480272F6005682B61036821
:100700005E608368402B03682AD099600168CA60E4
:10071000714D704E704FDFF8BC81DFF8B891DFF893
:10072000B8A1DFF8B4B1EA14DFF8A8E1016818361F
:1007300030379302A9F148090AF1600A0BF1180B4E
:10074000AEF1300E4FF0006C41452DD9A94205D0D5
:10075000494503D0514501D0B14205D1202220E0C6
:100760009A600268D160D3E759451AD0714518D014
:10077000594D7835A94214D0564D3035A94210D084
:10078000B9420BD0534A183A914207D0524A90329C
:10079000914203D04F4A4832914201D11A4600E0BB
:1007A00062464C494C392EE0DFF82C8108F1A8084C
:1007B00041452AD9A94205D0494503D0514501D028
:1007C000B14201D120221CE059451AD0714518D000
:1007D000414D7835A94214D03E4D3035A94210D054
:1007E000B9420BD03B4A183A914207D03A4A90326C
:1007F000914203D0374A4832914201D11A4600E073
:100800006246344950390A605AE0DFF8CC8008F17A
:10081000480841452AD9A94205D0494503D0514548
:1008200001D0B14201D120221CE059451AD07145B6
:1008300018D0294D7835A94214D0264D3035A9421B
:1008400010D0B9420BD0234A183A914207D0224A1D
:100850009032914203D01F4A4832914201D11A4648
:1008600000E062461C491039CA6029E0A94205D05F
:10087000494503D0514501D0B14201D120221CE0AD
:1008800059451AD0714518D0134D7835A94214D066
:10089000104D3035A94210D0B9420BD00D4A183A4C
:1008A000914207D00C4A9032914203D0094A483213
:1008B000914201D11A4600E06246074910398A6028
:1008C00001680A6842F001020A60FFE6F53100089B
:1008D0001932000858640240106002400168182371
:1008E000CAB2103AB2FBF3F2054B6FF30901032AC7
:1008F0009B5CC36500D9091D8165084670470000EF
:100900005C3F000810B5014600208B698A6A4FF0F1
:10091000C07453B1B3F5005F15D072B1012A0CD089
:10092000022A0AD0032A09D104E01AB1012A06D00A
:10093000022A03D1C96AC90100D5012010BDC96AC4
:10094000A142FAD010BD002AF7D0012AF2D0022A23
:10095000F3D0032AF3D010BD10B501680A68D2069F
:1009600008D5C968C90605D502F0AEFF024801687E
:10097000491C016010BD0000BC000020704772B629
:10098000FEE790F82020012A07D0022A05D0416A0C
:1009900041F48021416201207047006842690A43A6
:1009A000426100207047F0B590F820500468A468B8
:1009B000012D05D0022D03D0416A41F480215DE074
:1009C00014F0406F01D1E50055D5C4F30164022C49
:1009D00003D9416A41F4000150E00125A5401D60A2
:1009E0008D684FF4C0739DB1CE6835434E6845EABB
:1009F000C605066803EB0417F5514FF4C275076886
:100A000005EB04150E697E51097D012905D009E029
:100A10000E88CD6845EA4655EBE701684E5946F425
:100A200080764E511179D579567941EA05619579EB
:100A30002D0445EA062529434FF4C676056806EBE2
:100A40000416A9511178D57841EA05619578527854
:100A50002D0445EA022211434FF4C475026805EBE8
:100A600004155151006803EB0411425842F0010291
:100A700042500020F0BD416A41F400114162012062
:100A8000F0BD000010B590F82020012A07D0022AFE
:100A900005D0416A41F480214162012010BD3B48EC
:100AA000D0F8002242F00102C0F80022D0F8002263
:100AB00022F47C52C0F80022D0F800224B6A42EAAD
:100AC0000322C0F800220A7D02F01F0301229A408F
:100AD000D0F81C329343C0F81C32CB69B3B9D0F8BC
:100AE0000C329343C0F80C328C894B6864F31F437B
:100AF0004C6900EBC404C4F840320C890B6864F301
:100B00001F434C6900EBC404C4F84432CB69012B89
:100B100016D1D0F80C321343C0F80C320C884B6855
:100B200064F31F434C6900EBC404C4F840320C89E1
:100B3000CB6864F31F434C6900EBC404C4F844322F
:100B40008B69002BD0F804320ED01343C0F8043266
:100B50000B69002BD0F8143208D01343C0F81432BC
:100B6000096A012904D008E09343EFE79343F5E7CE
:100B7000D0F81C121143C0F81C12D0F8001221F05A
:100B80000101C0F80012002010BD00000064004008
:100B9000704730B590F82040012C05D0022C03D0CE
:100BA000416A41F480215DE00468002955D0246940
:100BB000A40754D04FF4D874056804EB01142D59E0
:100BC00015F00405956005682D594ED0ED08556067
:100BD00005682C5904F00204D4604FF4DA740568F7
:100BE00004EB01142D5905F00F05156105682D5909
:100BF000C5F30725956105682C59240C54614FF401
:100C0000DC72046802EB0112A4581C700468A4583A
:100C1000240A5C700468A458240C9C700468A258D0
:100C2000120EDA704FF4DE72046802EB0112A4585F
:100C30001C710468A458240A5C710468A458240C2C
:100C40009C710468A258120EDA71006881B10169C2
:100C500041F020010161002030BDE468A8E7416A4D
:100C600041F400114162012030BD6D0D1560AFE708
:100C7000C16841F02001C160EDE72DE9F05F054654
:100C8000006800244669D0F804908768D0F80CB05A
:100C9000D0F810A0D0F81880F10748D0F90714D088
:100CA00001218160B80703D5284600F05CFA0CE00A
:100CB000780702D54FF4006407E0380702D54FF4F7
:100CC000805402E0284600F04DFAF80516D5296850
:100CD0004FF480708860B80503D5284600F045FAC7
:100CE0000CE0780502D544F4005407E0380502D53D
:100CF00044F4804402E0284600F036FAF80316D5A2
:100D000029684FF480308860B80303D5284600F086
:100D10002EFA0CE0780302D544F4004407E03803CF
:100D200002D544F4803402E0284600F01FFA300770
:100D300007D55FEACB6004D52968102044F400741D
:100D4000C86070074FF0080707D55FEA0B7004D53D
:100D50002868C760284600F0A9F9B00706D52868BA
:100D6000C068800702D0284600F0A2F9700607D5B7
:100D70005FEACA6004D52968102044F480640861E1
:100D8000B00607D55FEA0A7004D5286807612846CF
:100D900000F0B8F9F00606D528680069800702D08F
:100DA000284600F0B0F9B00308D55FEAC96005D560
:100DB000296810204860284600F0A6F9F00307D5FE
:100DC0005FEA097004D528684760284600F0D0F92A
:100DD000300446D55FEA497040D5F00504D55FEA96
:100DE000C87001D044F00104B00504D55FEA8870F2
:100DF00001D544F00204700504D55FEA487001D5BE
:100E000044F00404300529D518F0700F26D008F0FE
:100E10007000402815D006DC102809D020280AD000
:100E2000302816D10AE050280ED0602811D10EE0EB
:100E300044F008040DE044F010040AE044F02004FB
:100E400007E044F0400404E044F0800401E044F48E
:100E500080742868816921F070018161296804200B
:100E60004860002C05D0686A204368622846FFF776
:100E70008FFEBDE8F09F70B5040003D094F8200009
:100E800010B104E0012070BD204600F081F8206818
:100E9000016841F00101016000F0FEFB05460526F6
:100EA00004E000F0F9FB401B0A2811D820684068D4
:100EB000C007F6D02068016821F00201016000F04F
:100EC000EBFB05460BE000F0E7FB401B0A2806D9C8
:100ED000606A40F40030606284F82060D2E72068E5
:100EE00040688007EFD4207E0128206801683DD04B
:100EF00021F080010160607E01282068016838D0FF
:100F000021F040010160A07E01282068016833D0F3
:100F100021F020010160E07E0128206801682ED0C8
:100F200041F010010160207F01282068016829D06C
:100F300021F008010160607F01282068016824D049
:100F400021F004010160D4E902010843D4E904124C
:100F5000114308436168491E08432168C8610020A5
:100F60006062012084F82000002070BD41F0800103
:100F7000C0E741F04001C5E741F02001CAE721F098
:100F80001001CFE741F00801D4E741F00401D9E7AF
:100F9000F0B587B0044614216846FFF76EFA3E4B61
:100FA0003E48DFF8F0E01968D4F800C03B4A03255A
:100FB0000226092710300024491CF4452AD1196063
:100FC000012907D1016841F000710160006800F05B
:100FD00000700590106840F0080010601068CDE9BE
:100FE000005600F00800CDE9047069462C48CDE9B0
:100FF000024500F053FA00220521132000F0F8FC0E
:10100000132000F0E7FC00220521142000F0F0FC82
:1010100014203AE0DFF88CE0F44538D1D0F800C075
:101020004CF0806CC0F800C0D0F800C001290CF072
:10103000806CCDF814C0196007D1016841F00071CF
:101040000160006800F000700590106840F0020038
:101050001060106802AB00F0020005906020CDE93E
:10106000000683E8B00069460F4800F017FA002236
:1010700005213F2000F0BCFC3F2000F0ABFC00222B
:101080000521402000F0B4FC402000F0A3FC07B094
:10109000F0BD0000006400400C0000203038024029
:1010A000000C02400068004000040240704700004D
:1010B00000B5124A016889B091421DD107AB6A465A
:1010C0000021FFF766FD0098A0F20520032813D247
:1010D000BDF81C10C0B24ABA094921F83020BDF849
:1010E0001E2001EBC00052BA4280BDF8201049BA60
:1010F00081809DF82210C18009B000BD00680040C9
:101100002C030020704770477047000070B50446FC
:1011100090F82000012804D0606A40F4002060624A
:1011200018E0022084F820002068016821F0010105
:10113000016000F0B1FA05460EE000BF00F0ACFA25
:10114000401B0A2808D9606A40F40030606205201C
:1011500084F82000012070BD20684068C007EDD1F0
:10116000606270BD70477047704770477047704746
:1011700070472DE9F0410446876D00F08DFA064670
:1011800094F835000025022806D08020606584F898
:1011900034500120BDE8F0812068016821F016017B
:1011A00001602068416921F080014161206C08B92B
:1011B000A06C20B12068016821F00801016020685E
:1011C000016821F0010101600CE000F065FA801B6C
:1011D000052807D920206065032084F8350084F8AD
:1011E0003450D7E720680068C007EED194F85C104F
:1011F0003F208840B860012084F8350084F83450DE
:101200000020C7E790F83510022903D080214165FE
:1012100001207047052180F835100068016821F031
:1012200001010160002070472DE9F84304464FF0AA
:101230000009CDF8009063484FF41651A56D006881
:10124000B0FBF1F72E6894F85C10082000FA01F169
:1012500031420FD021680A6852070BD50A6822F084
:1012600004020A6094F85C108840A860606D40F049
:101270000100606594F85C104FF0010808FA01F075
:10128000304208D021684969090604D5A860606D1C
:1012900040F00200606594F85C1004208840304201
:1012A00008D021680968890704D5A860606D40F0FE
:1012B0000400606594F85C1010208840304218D01B
:1012C00021680968090714D5A860206801684903E6
:1012D00004D50068000308D5A16C07E00168C905C2
:1012E00003D4016821F008010160216C09B1204696
:1012F000884794F85C1020208840304231D0216823
:101300000968C9062DD5A86094F83500052820681D
:10131000016806D0490347D5006800031DD4616CFD
:101320001CE021F0160101602068416921F0800174
:101330004161206C08B9A06C20B12068016821F0DF
:101340000801016094F85C103F208840A86084F890
:10135000358084F83490216D1FE0E16B09B120469F
:101360008847606D00282BD0606DC00714D0052021
:1013700084F835002068016821F0010101600098BF
:10138000401C0090B84203D820680068C007F6D11E
:1013900084F8358084F83490E16C002910D001B0D5
:1013A0002046BDE8F04308470168C905D5D4016867
:1013B00021F01001016084F8358084F83490CCE786
:1013C000BDE8F883240000202DE9F041044600F038
:1013D00063F906465CB1022084F83500002584F8E4
:1013E00034502068016821F0010101600DE0012006
:1013F000BDE8F08100F050F9801B052805D92020B8
:101400006065032084F83500F2E720680068C007B3
:10141000F0D12268116820480140D4E90103184343
:10142000D4E903363343184363691843A369184367
:10143000E3691843236A18430843616A042903D106
:10144000D4E90B1319430843106020684069666AA9
:1014500020F0070130460E43012704280CD1A06A72
:101460000643E06A40B12046FFF74CFA20B1402025
:10147000606584F83570BAE7206846612046FFF75A
:101480002DFA94F85C203F2191408160656584F8D5
:1014900035700020ACE700003F8010F02DE9F84FD8
:1014A000DFF8BCA10022012503264FF00F090AF145
:1014B000040BAAF1040E00BF0B6805FA02F42340E6
:1014C000A34270D10F7907F00307012F01D0022F3B
:1014D00016D187684FEA420806FA08FC27EA0C078B
:1014E000D1F80CC00CFA08FC4CEA070CC0F808C094
:1014F0004768A7430C79C4F3001494403C4344600C
:101500000C79E443A4070AD0C4684FEA420C06FAF7
:101510000CF7BC438F6807FA0CF72743C7600C79B8
:1015200004F00304022C12D1D40800EB840CDCF884
:1015300020405707FF0E09FA07F824EA0804D1F8FB
:10154000108008FA07F848EA0408CCF820800468FC
:101550004FEA420C06FA0CF7BC430F7907F0030779
:1015600007FA0CF7274307604C6814F4403F70D02B
:101570003C4C276847F480472760246822F0030723
:1015800004F480440094384C07EB040CDCF8084861
:1015900097074FEA177809FA08F7BC43334FB84268
:1015A00002D1002724E054E0314FB84201D1012795
:1015B0001EE0304FB84201D1022719E02E4FB84249
:1015C00001D1032714E02D4FB84201D104270FE0C9
:1015D0002B4FB84201D105270AE02A4FB84201D16A
:1015E000062705E0284FB84201D1072700E0082769
:1015F00007FA08F72743CCF80878DAF8004057468E
:10160000D1F804C09C435FEACC2C00D51C433C605D
:10161000DBF800405F46D1F804C09C435FEA8C2CA5
:1016200000D51C433C60DEF800407746D1F804C08A
:101630009C435FEA8C3C00D51C433C60084F083F4C
:101640003C68D1F804C09C435FEACC3C00D51C4305
:101650003C60521C102AFFF42FAFBDE8F88F000049
:10166000083C014044380240003001400000024084
:101670000004024000080240000C0240001002403A
:101680000014024000180240001C02400AB18161AF
:1016900070470904FBE700000148806870470000BC
:1016A0001800002070B5040025D094F83D000025F6
:1016B00020B984F83C50204600F0B8F8242084F883
:1016C0003D002068016821F0010101602068016887
:1016D00041F4004101602068016821F4004101608B
:1016E00000F072FA4D4A6168914201D84C4900E01D
:1016F0004C49884201D2012070BD4B492368B0FBA0
:10170000F1F15E6826F03F060E435E606368934227
:1017100006D94FF4967359434FF47A73B1FBF3F142
:101720002368491C1E6A26F03F063143196261682E
:10173000914210D84900401EB0FBF1F2521CC2F396
:101740000B02042A01D2042022E0B0FBF1F0401C7D
:10175000C0F30B001CE0A268F2B301EBC10303EB82
:101760000116431EB3FBF6F35B1C43F480431B05D9
:1017700049D092B301EBC10202EB0111401EB0FB54
:10178000F1F0401CC0F30B0040F4804040F40040F6
:101790002168CA694CF6FF739A431043C861D4E9C3
:1017A000071001432068026822F0C0021143016063
:1017B000D4E9030101432068826848F2FF339A4369
:1017C00011438160D4E9050108432168CA6822F009
:1017D000FF021043C86001E00EE016E020680168D7
:1017E00041F0010101602564202084F83D0025635B
:1017F00084F83E50002070BD01EB4106431EB3FB50
:10180000F6F35B1CB3E70120C2E701EB4101401E88
:10181000B0FBF1F0401CC0F30B00B7E7A08601005D
:1018200080841E0000093D0040420F00F0B587B0E3
:10183000044614216846FEF720FE1D4920688842B0
:1018400033D11C480024016841F0040101600168A3
:1018500001F004010591016841F001010160006897
:10186000122500F0010005904FF40070CDE900054D
:1018700002AA0326042782E8D00069460E48FFF733
:101880000DFEB801CDE9000502AA694682E8D00044
:101890000A48FFF703FE07481030016841F40001D1
:1018A0000160006800F40000059007B0F0BD000082
:1018B000005C004030380240000802400000024056
:1018C0000248816802781144816070471800002046
:1018D0000B4810B5016841F400710160016841F4E2
:1018E00080610160016841F480710160032000F0B3
:1018F0009FF80F2000F006F800F050F8002010BD0F
:10190000003C024030B505461F4887B000240168FE
:1019100041F002010160006806A900F00200009099
:1019200001A800F031F90498A8B100F04DF9400089
:101930001649174AB0FBF1F11648491E026040F201
:10194000E732C0E90324C0E90114846100F0AAFC75
:10195000040003D015E000F037F9E9E70D4800F086
:10196000CFFC04000DD11D2000F034F8102D07D25B
:10197000002229461D2000F03BF80748056000E0E2
:10198000012407B0204630BD4038024040420F00DD
:10199000000400400C0600201C0000200C4882B00F
:1019A000016841F480410160006800F480400090CB
:1019B0000748001F016841F0805101600068002263
:1019C00000F0805000900F21901E02B000F010B87F
:1019D00044380240002809DB00F01F020121914039
:1019E0004009800000F1E020C0F8001170470000BD
:1019F000F0B40E4B1B680C46C3F30223C3F107057A
:101A0000042D00D90425191D072901D2002300E067
:101A1000DB1E012606FA05F1491E214099409E4031
:101A2000761E16403143F0BC01F09DBB0CED00E08A
:101A3000064900F0070208684FF6FF03184040EA25
:101A40000220034A10430860704700000CED00E0DC
:101A50000000FA052DE9F0470E46050065D0DFF8D5
:101A60001481D8F80000F7B200F00700B04207D2A6
:101A700088F80070D8F8000000F00700B04254D198
:101A800028683D4C810712D5400703D5206840F4F3
:101A9000E05020602878000703D5206840F46040BB
:101AA00020602068A96820F0F000084320602878B2
:101AB000C0072DD0304968680839012812D00228A3
:101AC00013D0032811D00968890700292DDA21686D
:101AD00021F0030101432160FFF7DEFD814641F261
:101AE000883A0EE009688903EFE709688901ECE7A5
:101AF000FFF7D2FDA0EB0901514502D90320BDE853
:101B0000F0872068696800F00C00B0EB810FEFD11E
:101B1000D8F80010404601F00701B14207D907701C
:101B2000006800F00700B04201D00120E7E7287804
:101B3000400705D52068E96820F4E050084320609C
:101B40002878000706D52068296920F4604040EA1B
:101B5000C100206000F058F82168084AC1F3031161
:101B6000515CC8400649086006480068FFF7CAFE95
:101B70000020C4E7003C024008380240643F0008EF
:101B8000240000201C0000200F2202600C4A136871
:101B900003F003034360136803F0F00383601368EA
:101BA00003F4E053C36012684FF4E05303EAD20237
:101BB00002610448006800F00700086070470000F8
:101BC00008380240003C02400448054900680968A2
:101BD000044AC1F38221515CC840704724000020B0
:101BE00008380240743F0008044805490068096845
:101BF000044AC1F34231515CC840704724000020C0
:101C000008380240743F0008154810B5006810F00D
:101C10000C02144813D01449042A0FD0082A0ED1FC
:101C20000F4C241F2268236802F03F025B0207D595
:101C30002068C0F38810A0FB010106E0084610BD33
:101C40002168C1F38811A1FB00010023FEF76CFBA2
:101C50002168C1F30141491C4900B0FBF1F010BDFE
:101C6000083802400024F400001BB7002DE9F84FAB
:101C700004006ED02078DFF84C93C007A9F104056A
:101C80004AD009F104000168C1F38101012908D09B
:101C90000068C0F3810002280AD1D9F80000400290
:101CA00006D52868800337D560680028E1D033E086
:101CB0006068B0F5803F10D0B0F5A02F286810D034
:101CC00020F480302860286820F480202860606834
:101CD000A8B1FFF7E1FC06460DE0286840F480302B
:101CE000F4E740F480202860F7E700BFFFF7D4FC5A
:101CF000801B642873D828688003F7D50CE0FFF7B1
:101D0000CBFC064605E000BFFFF7C6FC801B64283D
:101D1000F0D828688003F7D42078DFF8AC828007F9
:101D20004FF0000A3ED5A748001D016811F00C0FC6
:101D300008D00068C0F3810002280BD1D9F8000058
:101D4000400207D42868800716D5E068012800D132
:101D500012E033E1E068B8B10120C8F80000FFF7F5
:101D60009BFC064605E000BFFFF796FC801B02289F
:101D7000C0D828688007F7D52868216920F0F800C6
:101D800040EAC10028600DE0C8F800A0FFF784FC1D
:101D9000064604E0FFF780FC801B02281FD8286855
:101DA0008007F7D42078000722D5864F87486169DD
:101DB000703771B101210160FFF76EFC064604E047
:101DC000FFF76AFC801B022809D838688007F7D51E
:101DD0000EE0C0F800A0FFF75FFC064605E082E0D9
:101DE000FFF75AFC801B02287DD838688007F7D49B
:101DF0002078400768D5DFF8CCB100270BF13C0B09
:101E0000DBF80000C0000BD4DBF8001041F080517B
:101E1000CBF80010DBF80000012700F080500090A4
:101E20006B4E3068C00510D4306840F4807030606C
:101E3000FFF732FC009005E0FFF72EFC0099401AF6
:101E4000022850D83068C005F6D55E4EA0686C36C2
:101E500001280FD00528306810D020F00100306034
:101E6000306820F004003060A068B8B1FFF714FCBF
:101E700000900FE0306840F00100F4E740F004000B
:101E80003060F7E7FFF708FC0099411A41F288300B
:101E9000814266D830688007F4D50EE0FFF7FCFB7E
:101EA000009007E0FFF7F8FB0099411A41F28830F3
:101EB000814256D830688007F4D42FB1DBF8001087
:101EC00021F08051CBF80010A069C8B33D49091D2D
:101ED0000968C1F3810102294AD00228504607D07F
:101EE000C8F8600000E03CE0FFF7D6FB04463BE0AA
:101EF0004746C8F86000FFF7CFFB064605E000BF85
:101F0000FFF7CAFB801B02282BD828688001F7D472
:101F1000D4E907010843A16A2E4A490802EB0141AE
:101F2000626A41EA8211084394F82C1040EA016188
:101F3000C9F8001001203866FFF7AEFB044606E042
:101F40003EE000BFFFF7A8FB001B022809D8286865
:101F50008001F7D534E000BFFFF79EFB001B02288D
:101F600002D90320BDE8F88F28688001F4D427E067
:101F70000128F7D0D9F80000E26900F4800191420D
:101F80001CD1226A00F03F01914217D147F6C0717F
:101F9000626A0140B1EB821F10D1A26A4FF0FF3399
:101FA00000F4403103EB5202B1EB024F06D194F83A
:101FB0002C1000F07060B0EB016F01D00120D1E770
:101FC0000020CFE70438024000004742800E47421D
:101FD000007000400000FFFF7047000038B5016846
:101FE00004464A688868C043430606D5C30704D13F
:101FF000D3435B0601D4216C05E0830708D4D343A7
:102000001B0605D4616C01B02046BDE8304008478E
:10201000830603D5430601D5C30551D4D3439B069C
:102020004ED443060AD494F85130032B49D0636D43
:1020300043F004036365CB688B680093830609D47F
:10204000636D43F0010363658B6800930B6823F0B5
:1020500040030B60C00506D4606D40F00800606569
:10206000206880680090606D002829D02068416851
:1020700021F0E0014160012084F85100900701D473
:10208000D00722D02068416821F003014160114D42
:10209000E06C40B10565E06CFFF7B4F818B1606D15
:1020A00040F040006065A06C002809D00565A06C78
:1020B000FFF7A8F8002803D0606D40F0400060658D
:1020C00038BDC8688868009038BD2046FFF784FF97
:1020D00038BD0000B12B000870B5040009D0606A5B
:1020E000002540B125616561A56294F8510040B1B9
:1020F0000CE0012070BD6068B0F5827FF4D0E5612E
:10210000F2E784F85050204600F044F8022084F8AA
:1021100051002068016821F040010160A0882189F8
:1021200000F4827001F404410843A18901F40061C4
:102130000843217C01F002010843217D01F00101E7
:102140000843218B01F400710843217F01F038011D
:10215000084394F8201001F080010843218D01F418
:102160000051084321680860A069042101EA104079
:1021700094F8241001F01001084321684860206899
:10218000C16921F40061C1616565012084F85100D5
:10219000002070BD2DE9F04387B006461421684643
:1021A000FEF76BF938493068884269D13748002515
:1021B000016841F480510160006800F4805005908E
:1021C00032481438016841F002010160016801F0F1
:1021D00002010591016841F00101016000680224DB
:1021E00000F001000590182001274FF003084FF080
:1021F00005098DE8910369462548FFF74FF98020CE
:102200008DE8910369462348FFF748F9234C22489B
:102210004FF0C0672060C4E901754FF48068C4E9DD
:10222000035865617812A561C4E9075020466562CC
:10223000FFF7CAF808B1FEF7A2FBF464A663174CD7
:10224000154860344830E4E802074020A4E8210142
:10225000C00244F81459A561C4E907500F486562EB
:102260006030FFF7B1F808B1FEF789FBB4640022D3
:1022700005212320A663FFF7BBFB2320FFF7AAFB62
:1022800007B0BDE8F0830000003001404438024050
:102290000004024000000240106402404804002094
:1022A0007047704710B5040003D094F83D0010B19A
:1022B00007E0012010BD002084F83C00204600F01B
:1022C0001EF8022084F83D00211D206800F0EAFC81
:1022D000012084F8460084F83E0084F83F0084F82A
:1022E000400084F8410084F8420084F8430084F8F8
:1022F000440084F8450084F83D00002010BD70477C
:1023000090F83D10012901D001207047022180F88A
:102310003D100168CA6842F00102CA6000681149B4
:10232000884214D0B0F1804F11D00F4988420ED0AE
:102330000E4988420BD00E49884208D00D49884288
:1023400005D00D49884202D00C49884204D18168E9
:1023500001F00701062903D0016841F00101016085
:1023600000207047000001400004004000080040C9
:10237000000C0040000401400040014000180040F3
:10238000704770B50446006801694FF00005C94305
:10239000890715D4C168C943890711D4E91E0161B1
:1023A00001202077206880698007204602D0FFF74F
:1023B000E7FF04E000F098F8204600F096F8257753
:1023C00020680169C943490717D4C168C94349074F
:1023D00013D46FF004010161022020772068806926
:1023E00010F4407F204602D0FFF7CAFF04E000F05F
:1023F0007BF8204600F079F8257720680169C94309
:10240000090716D4C168C943090712D46FF008013F
:102410000161042020772068C0698007204602D02F
:10242000FFF7AEFF04E000F05FF8204600F05DF833
:10243000257720680169C943C90617D4C168C94313
:10244000C90613D46FF010010161082020772068BD
:10245000C06910F4407F204602D0FFF791FF04E0EE
:1024600000F042F8204600F040F825772068016926
:10247000C943C90708D1C168C943C90704D1891E26
:102480000161204600F032F820680169C94309065D
:1024900009D4C168C943090605D46FF08001016100
:1024A0002046FFF7FDFE20680169C943490609D4AB
:1024B000C168C943490605D46FF040010161204657
:1024C00000F01EF820680169C94389060BD4C16871
:1024D000C943890607D46FF0200101612046BDE899
:1024E0007040FFF7DEBE70BD70477047006803495B
:1024F000884201D1FFF7E4B97047000000040040B2
:102500007047704770470000F8B5016804460868D6
:10251000CA684B6910F00F0F4FF0000559D003F057
:10252000010602F49077374365D0C10705D0D10585
:1025300003D5216C41F001012164410705D5D9077C
:1025400003D0216C41F002012164810705D5D90730
:1025500003D0216C41F004012164010707D502F08A
:102560002001314303D0216C41F008012164216C2A
:1025700000293AD0800604D5900602D5204600F006
:1025800024FC20684069216CC0F38010090700D446
:1025900060B3204600F0F2FB20684069400621D578
:1025A0002068143050E8001F21F0400140E800127C
:1025B000002AF5D1A06BA8B16C490165A06BFEF7AC
:1025C00021FE002811D0A06B016D01B0BDE8F040E4
:1025D000084783060FD593060DD52046BDE8F84081
:1025E00000F0F3BB2046FFF78DFFF8BD2046FFF754
:1025F00089FF2564F8BD266B2023012E79D1C606FC
:1026000077D5D60675D508684868009048694006B1
:1026100040D5A16B086840680004000CEAD0A28D88
:102620008242E7D9E085C869B0F5807F2DD0206867
:102630000C3050E8001F21F4807140E80012002A9D
:10264000F5D12068143050E8001F21F0010140E866
:102650000012002AF5D12068143050E8001F21F044
:10266000400140E80012002AF5D184F83E3025638D
:1026700020680C3050E8001F21F0100140E80012E3
:10268000002AF5D1A06BFEF774FDA08DE18D401AF4
:1026900081B229E0A08DE18D401A81B2E08D002841
:1026A000A8D00029A6D020680C3050E8002F22F4D2
:1026B000907240E80026002EF5D12068143050E8D2
:1026C000002F22F0010240E80026002EF5D184F808
:1026D0003E30256320680C3050E8002F22F01002B5
:1026E00040E80023002BF5D12046FFF70AFFF8BD94
:1026F000FFE705062BD5150629D594F83D002128BE
:10270000F5D1A068B0F5805F01D12069B0B1206A31
:10271000411C2162216800784860E08C401E000462
:10272000000CE084E3D12068C16821F08001C16021
:102730002068C16841F04001C160D8E7206A008884
:10274000C0F308004860206A801C2062E5E740066C
:10275000CDD55006CBD5CA68204622F04002CA60CB
:1027600084F83D3000F0ADF8C1E700006D2D0008A1
:1027700070B5040004D094F83D00002510B106E0C7
:10278000012070BD84F83C50204600F023F824203E
:1027900084F83D002068C16821F40051C1602046E2
:1027A00000F074FB2068016921F490410161206808
:1027B000416921F02A0141612068C16841F400515A
:1027C000C1602564202084F83D0084F83E0000208C
:1027D00070BD00002DE9F04387B00646142168461D
:1027E000FDF74BFE3149306888425CD13048002506
:1027F000016841F480210160006800F480200590A8
:102800002B481038016841F00401016000686946F6
:1028100000F0040005904FF4406000900220CDE9E4
:10282000010503200390072004902248FEF736FE9E
:10283000224C21484FF000672060C4E901754FF435
:102840008068C4E9035880156561C4E906504FF4F7
:102850004039C4E908952046FEF7B6FD08B1FEF7F9
:102860008EF8B463A663154C134860343030E4E846
:1028700002074020A4E82101104844F814596030B0
:10288000A561C4E907596562FEF79EFD08B1FEF730
:1028900076F87463002205212720A663FFF7A8F8C5
:1028A0002720FFF797F807B0BDE8F0830048004005
:1028B0004038024000080240286002404C050020D9
:1028C00070477047FEE7000010B51A488AB01849F3
:1028D000016003210024C0E901144FF41021C0E974
:1028E00003414FF400114161047644768476C47646
:1028F00004774477FEF7BFFA08B1FEF740F80120ED
:10290000CDE906400394089004940E2005940990A4
:1029100000940194029469460648FEF7B3F8022138
:102920000448FEF72EF80348FEF7F0FB0AB010BD8E
:10293000006400404C03002010B51A488AB01849C2
:10294000016003210024C0E901144FF41021C0E903
:1029500003414FF400114161047644768476C476D5
:1029600004774477FEF787FA08B1FEF708F80121EB
:102970000E200791CDE9050403940494CDE90810D5
:1029800000940194029469460648FEF77BF8022100
:102990000448FDF7F6FF0348FEF7B8FB0AB010BD88
:1029A0000068004074030020194808B5016841F42C
:1029B00080010160016801F480010091016841F427
:1029C000001101600068002200F400100090052151
:1029D0000C20FFF70DF80C20FEF7FCFF002205216C
:1029E0000E20FFF705F80E20FEF7F4FF0022052168
:1029F0003820FEF7FDFF3820FEF7ECFF002205210E
:102A00003B20FEF7F5FFBDE808403B20FEF7E2BFA4
:102A10003038024010B58EB01C220B496846FDF7D5
:102A2000FAFC0021684600F045FC084C06491C22CF
:102A300060601C3107A8FDF7EEFC002107A800F03C
:102A400039FC20600EB010BD243F000804000020B7
:102A500070B586B014216846FDF70FFD1D480025AE
:102A6000016841F002010160016801F00201059175
:102A7000016841F001010160016801F00101059167
:102A8000016841F008010160016801F00801059149
:102A9000016841F004010160016801F00401059141
:102AA000016841F0800101600068012200F08000AF
:102AB000094E9402059021463046FEF7E7FD0121BC
:102AC000CDE90041CDE9021569463046FEF7E6FC46
:102AD00006B070BD30380240001C02400D4810B5F1
:102AE0000B4901600C49416000214FF48042816034
:102AF000C0E9031241618161C1610162FEF7D2FD4B
:102B0000002803D0BDE81040FDF739BF10BD00001C
:102B1000005C00409C030020801A0600104810B59D
:102B20000E4901604FF482714160002181600122F1
:102B3000C160C0E90412520282611022C0E907217B
:102B4000416281620A21C162FFF7C6FA002803D000
:102B5000BDE81040FDF713BF10BD0000003001407C
:102B6000F00300200C4810B50A4901600B49416090
:102B7000002181600C22C160C0E904128161C16141
:102B8000FFF7F6FD002803D0BDE81040FDF7F7BEC3
:102B900010BD00000048004008050020A08601008C
:102BA000FEE7FEE70148FFF719BA0000F003002036
:102BB00010B5806B0021C187C186FFF70DFA10BDEB
:102BC000012000F06BFBFBE710B5502080F311886B
:102BD000BFF34F8FBFF36F8F01F0CAF818B10449EC
:102BE0004FF080500860002080F3118810BD000075
:102BF00004ED00E030B593B030216846FDF73DFCB0
:102C000014210CA8FDF739FC1D480025016841F08E
:102C100080510160006800F08050119019480168EF
:102C200041F4804101600068022400F4804011906A
:102C300001200090000401908001CDE906400620AB
:102C40000890A820CDE9090404200B906846FFF7FE
:102C50000DF808B172B6FEE70CA90F2081E831002B
:102C60004FF4A0500F904FF48050109005210CA805
:102C7000FEF7F0FE002801D072B6FEE713B030BDBB
:102C800040380240007000400248016841F4700181
:102C90000160704788ED00E00148FFF772BB00005B
:102CA0000C060020F0B50268254C264D264E274F15
:102CB000274B4FF0804CA04209D0604507D0A84276
:102CC00005D0B04203D0B84201D0984204D122F0DE
:102CD000700E4A6842EA0E02A0421BD0604519D02D
:102CE000A84217D0B04215D0B84213D0984211D0A4
:102CF000184DA8420ED0184DA8420BD0174DA8422F
:102D000008D0174DA84205D0164DA84202D0164D46
:102D1000A84203D122F44075CA682A434D6922F0C3
:102D200080022A4302608A68C2620A688262A04204
:102D300001D0984201D10969016301214161F0BDCF
:102D4000000001400004004000080040000C00406A
:102D5000000401400040014000440140004801409F
:102D600000180040001C00400020004010B5806B9F
:102D70000021C185C184FFF7C5FB10BD01680C317E
:102D800051E8002F22F4907241E80023002BF5D186
:102D90000168143151E8002F22F0010241E80023BC
:102DA000002BF5D1016B012909D101680C3151E8E3
:102DB000002F22F0100241E80023002BF5D1202142
:102DC00080F83E1000210163704708B590F83E106E
:102DD000222901D0022008BD82684FF480539A4214
:102DE00001D1016921B1816A9A421BD04AB10AE03E
:102DF0000268816A5268C2F308020A80816A891CEB
:102E000008E0026972B10268526802F07F020A703B
:102E1000816A491C8162C18D491E0904090CC18562
:102E200003D019E002685268F1E70168CA6822F02D
:102E30002002CA600168CA6822F48072CA60016810
:102E40004A6922F001024A61202180F83E10016B9C
:102E5000012903D0FFF734FD002008BD00210163E4
:102E600001680C3151E8002F22F0100241E80023E4
:102E7000002BF5D101680A68D20602D50A684968B4
:102E80000091818DFFF73DFBE6E7000070B5044639
:102E900000680169E26821F4405111430161216930
:102EA000A068E26908436169114308432168CA6860
:102EB00049F20C639A430243CA6020684169A269DF
:102EC00021F440711143416131492068884202D0A8
:102ED0003049884202D1FEF787FE01E0FEF774FE1A
:102EE000E2690023192164253226B2F5004F626899
:102EF00028D0A0FB0101930F9200FDF715FA0146BF
:102F0000B0FBF5F06FF01802504301EB800006EBC8
:102F10000010B0FBF5F000F0F002B1FBF5F002EBB1
:102F20000012B1FBF5F06FF01803584301EB80007D
:102F300006EB0010B0FBF5F000F00F002168104424
:102F4000886070BDA0FB010192185B41FDF7ECF9B0
:102F50000146B0FBF5F00201B1FBF5F06FF018038C
:102F6000584301EB800006EBC000B0FBF5F000F029
:102F7000F80002EB4002B1FBF5F0584301EB800092
:102F800006EBC000B0FBF5F000F00700D6E700004C
:102F9000001001400014014010B50448FDF7DCFCAE
:102FA000BDE810400148FFF7AFBA00000805002057
:102FB0000C4808B501680A684A680092CA6842F07D
:102FC0001002CA6001684A6942F040024A61122157
:102FD00000910168044B806BA3F11802091DFDF7F5
:102FE0005BFB08BD08050020724300202DE9F0417D
:102FF00004460088584DC0F30A03584F2B80607870
:10300000A178C00840EA4110C0F30A066E80A0789B
:10301000E178800940EA81002179A3F5806340EAE4
:103020008120C0F30A01A98020796279400840EA32
:10303000C210C0F30A02EA806079A6F58066C0F388
:103040000110A8726079A1F580618009E872E088BA
:10305000A8812089E88160892882207BA874607B10
:10306000E874E089A882208A2B806E80A980A2F56E
:103070008062EA80A0F5806028810020215C3954BC
:10308000401C0728FADD3321344800F0A1F808205D
:103090003A18215C401C02F8081C0F28F8DD342186
:1030A0002E4800F095F8207C3870607C7870A07C09
:1030B000B8702B48294EB0F90210B0F90A20243E0E
:1030C0001144B0F91220B0F91A00104408444C2100
:1030D00090FBF1F07080010AF97038710020F871EE
:1030E00035211E4800F074F8A07B00F00101B1808A
:1030F00000F00201F18000F00401318100F00801CC
:10310000718100F04001B18100F08001F18100F097
:103110001001318200F020007082A87C3070E87CC1
:103120007070A88A00F48071B18200F40071F1829D
:1031300000F48061318300F40061718300F48051F8
:10314000B18300F40051F18300F48041318400F434
:1031500000407084BDE8F08144430020B4000020AA
:103160002C030020FEE70907090E002804DB00F10C
:10317000E02080F80014704700F00F0000F1E0201C
:1031800080F8141D7047000038B50F4C40F2FF1551
:1031900025600025A560E560082525610B4C050A22
:1031A00025706070080AA070E170100A20716271C9
:1031B000180AA0710449E3716B46224601F16000D0
:1031C000FDF7F1FB38BD00001403002010000020C3
:1031D00000B587B0024600910021029103910821B9
:1031E0000491012369460248FDF7DDFB07B000BDED
:1031F0004C0300200649896B814207D100680168B1
:1032000041F4002101600348FFF7F0BE7047000061
:10321000080500205A4300200649896B814207D1E6
:103220000068016821F4002101600348FFF7DEBE59
:10323000704700000805002072430020884201DD2D
:103240000846704749428842FBDA08B270470000DE
:10325000FEF73EFBFFF7CEFCFFF7FAFBFFF7A4FB00
:10326000FFF76AFBFFF730FBFFF758FCFFF736FC70
:10327000FFF778FC012291020448FEF707FAFFF7F6
:1032800097FEFFF7C7FB00F010F8FEE7001C0240B6
:1032900001460020842900D0C81C704710B500B931
:1032A000012000F001FC002010BD10B500F022FC50
:1032B000002010BD7FB50D4604464169B0F90800F5
:1032C00081B1A16971B1FFF7E3FFD4E905128DE87F
:1032D0000700D4E900102B46226900F01EFD039080
:1032E00004B070BDFFF7D4FF03A9CDE90001208A27
:1032F0002B4682B2D4E9001000F0E2FC012801D094
:103300000020EDE70398EBE710B504460298218210
:103310006282A383E083E389A381531AB3F5805FBC
:1033200003DD41F6FF73194405E013F5805F02DA0F
:10333000A1F5F851FF39218289B2511A09B200EE84
:10334000101AE181D4ED000AB8EEC00A20EE800A1E
:10335000BDEEC00A10EE102AA282B4F9162094ED38
:10336000011A00EE102AF8EEC00A00EE101AB8EEAC
:10337000C00A41EE000ABDEEE00A10EE101A0AB2D1
:103380000146E2821046FFF759FFE0820146B4F998
:103390000E00B4F90C20D4ED020A801A00EE100AD7
:1033A000B8EEC00A20EE200ABDEEC00A10EE100AE8
:1033B0002083A28A1144084400B26083B4F91C102F
:1033C000FFF73CFF608310BD30B50D4603990582C1
:1033D000428283830446C183C089A081501B00B20E
:1033E00000EE100AE081D4ED000AB8EEC00A20EE2B
:1033F000800ABDEEC00A10EE102AA282B4F916208F
:1034000094ED011A00EE102AF8EEC00A00EE100A40
:10341000B8EEC00A41EE000ABDEEE00A10EE100A56
:1034200000B2E082FFF70AFFE0820146B4F90E0025
:10343000B4F90C20D4ED020A801A00EE100AB8EE9E
:10344000C00A20EE200ABDEEC00A10EE100A20834A
:10345000A28A1144084400B26083B4F91C10FFF73B
:10346000EDFE608330BD00218181C18180EC030AC3
:10347000704700002DE9F041184C0F460546E668FC
:103480002068001D00F048FA38B9206890F82C1028
:1034900001208840216981432161681C07D137B12F
:1034A0002168BDE8F0410E48091D00F079BA206896
:1034B0003544B5424560216805D2A06BBDE8F041B6
:1034C000091D00F055BA606B091D00F051FAA06AA1
:1034D000854200D2A562BDE8F081000028000020EE
:1034E000300700202DE9F041054600F065FA2E4C2A
:1034F000A068401CA06020682C4F10B1606940B3E8
:103500002DE02560A068012829D1002606EB860061
:1035100007EB800000F01EFA761C072EF6D3234836
:103520008C3000F017FA2148A03000F013FA1F4841
:10353000B43000F00FFA1D48C83000F00BFA1B48F9
:10354000DC3000F007FA19488C3060631430A06357
:1035500005E02068E96AC06A884200D82560606A90
:10356000401C6062E96A01202269884010432061A2
:1035700001EB810007EB8000291D00F011FA00F03B
:103580003BFA606900280CD02068E96AC06A88426A
:1035900007D207494FF080500860BFF34F8FBFF349
:1035A0006F8FBDE8F0810000280000205406002045
:1035B00004ED00E010B5044690F8510058B1012820
:1035C0000CD002280FD0502080F31188BFF34F8F0A
:1035D000BFF36F8FFEE7206B00F022FA2046BDE8B4
:1035E000104000F01DBA10BD10484FF47051420752
:1035F00006D0C01D0D4920F00700411AC1F57051D9
:103600000B4A00230144C2E900030839183A21F0AB
:10361000070111604B600B600B1AC0E90013936047
:103620004FF0004053605061704700004407002095
:103630007C000020144E154CA6F1C8074FF08058AE
:10364000DFF84C9012E000BF00F0B6F9F068C568F2
:10365000281D00F061F9A068401EA0606068401E4F
:10366000606000F0C9F92846FFF7A4FF60680028F1
:10367000EAD138680128F9D9C9F80080BFF34F8F23
:10368000BFF36F8FF2E700001C0700202800002026
:1036900004ED00E02DE9F0479A46DDE90984814612
:1036A0006FF00303206B03EB82021044089E20F0AE
:1036B0000707780707D0502080F31188BFF34F8F9A
:1036C000BFF36F8FFEE7002561B1002023180A5C6D
:1036D00083F834200A5C12B1401C1028F6D384F819
:1036E000435001E084F83450072E00D30626E662EA
:1036F000C4E91165201D00F038F904F1180000F04C
:1037000034F92461C6F107006462A061E56484F8BD
:10371000505052464946384600F0C0F82060B8F193
:10372000000F01D0C8F80040BDE8F08730B511495E
:1037300000E011460A688242FBD34B685C18844261
:1037400003D1406818444860084643681C189442F6
:1037500009D1084C183C2468A24209D052681A4486
:1037600042600A6812680260814200D0086030BD81
:103770000460F9E77C0000200648416B096829B124
:10378000416BC968C9684968816270474FF0FF3171
:10379000FAE700002800002008484068401C4FF06D
:1037A000500080F3118804D0BFF34F8FBFF36F8FA9
:1037B000FEE7BFF34F8FBFF36F8FFEE7840000205B
:1037C0002DE9F0410546002700F0CAF9324E306875
:1037D00008B9FFF709FF706905424ED1C5B3083536
:1037E00068070ED005F00700C0F10800054468071F
:1037F00007D0502080F31188BFF34F8FBFF36F8F36
:10380000FEE72DB37068854237D82348183001464B
:103810000C6801E020460C466168A94202D221688A
:103820000029F7D131688C4227D0076821680160F0
:1038300060680837411B10290FD96019420708D06A
:10384000502080F31188BFF34F8FBFF36F8FFEE7D7
:1038500013E041606560FFF769FF61687068401AB6
:103860007060B268904200D2B0607069014300207D
:10387000C4E90001F068401CF06000F0DFFA78074E
:1038800007D0502080F31188BFF34F8FBFF36F8FA5
:10389000FEE73846BDE8F0816400002010B5031F44
:1038A0004FF080741C601B1F21F001011960191F6B
:1038B000044B0B6014390A60091F6FF00202443890
:1038C0000A6010BD9937000838B5044600680168E1
:1038D000406800900F4884421BD1A06B00680168CB
:1038E00021F001010160A06B01684A68062A06D137
:1038F0000968090301D5416C00E0C16B8847A16BE1
:10390000182009684860A06B0068016841F0010157
:10391000016038BD08050020D0E9013201699A60D4
:10392000D0E901235A604A68824201D182684A6024
:10393000002202610868401E0860086870470000A5
:10394000034B036003F1540008608020106070474F
:10395000C000002000F108014FF0FF32C0E9011261
:10396000C160016100210160704700210161704761
:1039700030B50B685A1C02D000F1080202E002695F
:1039800004E02246546825689D42FAD953684B608A
:1039900099608A60516008610168491C016030BD0E
:1039A00042684A6093688B609368596091600861CF
:1039B0000168491C01607047502080F31188BFF3F3
:1039C0004F8FBFF36F8F0A494868401C4860012839
:1039D0000CD10848006810F0FF0F07D0502080F38A
:1039E0001188BFF34F8FBFF36F8FFEE77047000062
:1039F0008400002004ED00E00849486828B1401E1A
:103A0000486001D180F311887047502080F31188FD
:103A1000BFF34F8FBFF36F8FFEE7000084000020DD
:103A200070B500282AD0164DA0F1080460686969B5
:103A3000084207D1502080F31188BFF34F8FBFF3A6
:103A40006F8FFEE722683AB1502080F31188BFF3F0
:103A50004F8FBFF36F8FFEE78843606000F080F800
:103A600060686968084468602046FFF75FFE28695F
:103A7000401C2861BDE8704000F0E0B970BD000056
:103A8000640000204FF0E0200021016181610549C0
:103A90004FF47A720968B1FBF2F1491E41610721C6
:103AA000016170472400002010B5020014D00F48B7
:103AB000006B38B1502080F31188BFF34F8FBFF3F4
:103AC0006F8FFEE700F04CF800211046FFF7D2FCA4
:103AD00000F0B4F9002807D105494FF08050086084
:103AE000BFF34F8FBFF36F8F10BD00002800002081
:103AF00004ED00E010B586B00024039405AA04A9E3
:103B000003A80494FFF71CFFDDE903010094CDE94D
:103B1000011000230EA11048059A00F0FEF80F498D
:103B20000028C86211D0502080F31188BFF34F8F56
:103B3000BFF36F8F4FF0FF30886201204861CC6087
:103B400006B0BDE8104000F041B806B010BD00005E
:103B500049444C450000000035360008280000208C
:103B60000248016B491C01637047000028000020D7
:103B70001448016B11B10121C16170470021C1617D
:103B80000169B1FA81F1C1F11F0101EB81020E4916
:103B900051F822306BB101EB820101F108034A6850
:103BA00052684A609A4201D152684A60D168016005
:103BB0007047502080F31188BFF34F8FBFF36F8F92
:103BC000FEE7000028000020540600201CB53748FE
:103BD0000168374A914207D1502080F31188BFF322
:103BE0004F8FBFF36F8FFEE700683149491E88424F
:103BF00007D1502080F31188BFF34F8FBFF36F8F31
:103C0000FEE72C4908780190FF20087008788DF8AD
:103C100000009DF800009DF8002000F0F0009042A8
:103C200007D0502080F31188BFF34F8FBFF36F8F01
:103C3000FEE79DF80000204C00F0500020700720A7
:103C4000A06005E09DF8002052008DF80020401E85
:103C50009DF800201206F5D4A060032807D050205C
:103C600080F31188BFF34F8FBFF36F8FFEE74FF4E0
:103C70004070A060019808700C482030016841F441
:103C800070010160016841F070410160FFF7FAFEC8
:103C900000206060FCF7ECFA0848016841F0404100
:103CA0000160FCF7D1FA00201CBD000000ED00E02F
:103CB00071C20F4100E400E08400002034EF00E016
:103CC0002DE9FF5F8346DDE90E87994616468A4651
:103CD0009000FFF775FD05001CD05420FFF770FD24
:103CE000040014D00020256384F85100CDE902407F
:103CF000CDE900874B46324651465846FFF7CAFC8D
:103D00002046FFF7EFFB012004B0BDE8F09F2846F6
:103D1000FFF786FE4FF0FF30F6E7F0B585B0DDE93E
:103D20000B640A9DA6B1DCB15427009726630226D6
:103D300084F85160002604AFCDE90246CDE9005772
:103D4000FFF7A8FC2046FFF7CDFB049805B0F0BDB7
:103D5000502080F31188BFF34F8FBFF36F8FFEE7C2
:103D6000502080F31188BFF34F8FBFF36F8FFEE7B2
:103D70002DE9F0412F4C0026206B28B1A069401C92
:103D8000A0613046BDE8F081E5686D1CE56013D1A7
:103D9000606B006838B1502080F31188BFF34F8FFB
:103DA000BFF36F8FFEE7606BA16B6163A063206A56
:103DB000401C2062FFF7E0FCA06ADFF87C808542AF
:103DC00009D3606B0068A0B1606BC068C768786891
:103DD000854211D2A0622068C06A00EB800158F8C9
:103DE0002100012800D90126E0690028C9D0012658
:103DF000C7E74FF0FF30EDE7381DFFF78DFDB86ADC
:103E000018B107F11800FFF787FDF96A0120226950
:103E100088401043206101EB810108EB8100391DCE
:103E2000FFF7BEFDF86A2168C96A8842C9D3012636
:103E3000C7E7000028000020540600202DE9F047C5
:103E40002C4D00242746286B38B1FFF7B5FD286BB1
:103E5000401E2863286B40B146E0502080F3118853
:103E6000BFF34F8FBFF36F8FFEE7A968224E01208B
:103E7000D1B3A6F1B40980463068E8B1F068C468EF
:103E800004F11800FFF748FD201DFFF745FDE06A2B
:103E90002A6908FA00F11143296100EB800109EB5E
:103EA0008100211DFFF77CFDE06A2968C96A88420C
:103EB000E2D3C5F81C80DFE70CB1FFF75DFCAC690D
:103EC00044B14646FFF754FF00B1EE61641EF9D1DC
:103ED0000020A861E86938B108490127380708605F
:103EE000BFF34F8FBFF36F8FFFF786FD3846BDE8F6
:103EF000F0870000280000200807002004ED00E003
:103F00004FF04070E1EE100A704700000000803F63
:103F10000AD7233C000000000000803F00000000A2
:103F20000AD7233C843F0008C12B00080000000092
:103F30000000000080000000000000000000000001
:103F40007C3F00087505000800000000000000002C
:103F50000004000000000000000000000006101631
:103F6000000610160000000000000000010203041B
:103F7000060708090000000001020304526563659A
:103F80006976650064656661756C745461736B0075
:103F9000B03F000800000020C0000000C40100087D
:103FA00070400008C000002030490000E001000817
:103FB0000000000000000000000000000000000001
:103FC00000000000000000000100000010000000E0
:103FD000000000000024F4000000000000000000C9
:103FE00000000000000000000000000000000000D1
:103FF00000000000000000000000000000000000C1
:1040000000000000000000000000000000000000B0
:1040100000000000000000000000000000000000A0
:104020000000000000000000000000000000000090
:104030000000000000000000AAAAAAAA00000000D8
:104040000000000000000000000000000000000070
:104050000000000000000000000000000000000060
:104060000000000000000000000000000000000050
:040000050800018965
:00000001FF
