:020000040800F2
:10000000104C0020E90200082F2C0008A929000844
:100010002D2C00085F050008F131000800000000E9
:10002000000000000000000000000000290200089D
:10003000F90900080000000085020008552C00089E
:100040000303000803030008030300080303000878
:100050000303000803030008030300080303000868
:100060000303000803030008030300080303000858
:10007000E506000803030008F10600080303000872
:10008000030300080303000803030008B505000884
:100090009D050008A90500080303000803030008E4
:1000A0000303000803030008030300080303000818
:1000B00003030008252D00080303000803030008BC
:1000C000030300080303000803030008312C0008A1
:1000D0000303000803030008030300082530000899
:1000E00003030008030300080303000803030008D8
:1000F00003030008030300080303000803030008C8
:1001000003030008030300080303000803030008B7
:1001100003030008030300080303000803030008A7
:10012000FD06000803030008030300080907000890
:10013000030300080303000803030008090600087E
:10014000FD0500080303000803030008030300087B
:100150000303000803030008030300080303000867
:100160000303000803030008030300080303000857
:100170000303000803030008030300080000000055
:10018000030300080303000800F002F800F03CF845
:100190000AA090E8000C82448344AAF10107DA45E2
:1001A00001D100F031F8AFF2090EBAE80F0013F0F8
:1001B000010F18BFFB1A43F001031847F873000042
:1001C00018740000103A24BF78C878C1FAD85207D2
:1001D00024BF30C830C144BF04680C6070470000C1
:1001E0000023002400250026103A28BF78C1FBD840
:1001F000520728BF30C148BF0B6070471FB506F0DB
:10020000EAFF1FBD10B510BD00F074F91146FFF7ED
:10021000F5FF05F095F800F092F903B4FFF7F2FF4F
:1002200003BC00F095F900002C4B19680868B0E891
:10023000F04F80F30988BFF36F8F4FF0000080F319
:10024000118870470000000008480068006880F3CB
:1002500008884FF0000080F3148862B661B6BFF3DF
:100260004F8FBFF36F8F00DF00BF00BF08ED00E0CE
:10027000DFF80C00016841F470010160704700BFB5
:1002800088ED00E0EFF30980BFF36F8F134B1A681E
:100290001EF0100F08BF20ED108A20E9F04F10600B
:1002A00009B44FF0500080F31188BFF34F8FBFF3B4
:1002B0006F8F05F079FF4FF0000080F3118809BCC3
:1002C00019680868B0E8F04F1EF0100F08BFB0ECD6
:1002D000108A80F30988BFF36F8F704730000020C9
:1002E000EFF3058070470000094880470948004740
:1002F000FEE7FEE7FEE7FEE7FEE7FEE7FEE7FEE7D6
:10030000FEE7FEE704480549054A064B7047000032
:10031000152D00088901000810460020104C00200F
:10032000104800201048002053EA020C00F06980B9
:100330002DE9F04B4FF00006002B1FBFB3FA83F5F9
:1003400003FA05F424FA05F65E4012BF1643B2FA2A
:1003500082F502FA05F4C5F120051EBF22FA05FC5C
:1003600044EA0C04203556EA044C4FEA144418BF02
:10037000641C4FF000084FF00009904271EB030C31
:1003800039D3002919BFB1FA81F701FA07F6B0FA9B
:1003900080F700FA07F6C7F120071EBF20FA07FC16
:1003A00046EA0C062037B6FBF4FCA7EB0507103F26
:1003B00007F01F0BCBF120060CFA0BFB2CFA06F60C
:1003C00044BFB3460026202FA4BF5E464FF0000B6B
:1003D0005BEA060C08BF4FF0010B19EB0B09ABFBF6
:1003E000027C48EB0608C01B06FB02CC0BFB03CCCF
:1003F00071EB0C01C1E70B46024641464846BDE899
:10040000F08B13B54FF000004FF00001AFF3008008
:10041000BDE81C40704710B5203AC0F00B80B1E831
:100420001850203AA0E81850B1E81850A0E8185029
:10043000BFF4F5AF5FEA027C24BFB1E81850A0E832
:10044000185044BF18C918C0BDE810405FEA827C4C
:1004500024BF51F8043B40F8043B08BF7047D20763
:1004600028BF31F8023B48BF11F8012B28BF20F804
:10047000023B48BF00F8012B70474FF0000200B567
:10048000134694469646203922BFA0E80C50A0E8B7
:100490000C50B1F12001BFF4F7AF090728BFA0E865
:1004A0000C5048BF0CC05DF804EB890028BF40F831
:1004B000042B08BF704748BF20F8022B11F0804F73
:1004C00018BF00F8012B704770477047704710B590
:1004D00000F008F8006810BD10B5044600F002F8FE
:1004E000046010BD00487047B045002000487047C8
:1004F000B04500207546FFF7F9FFAE460500694696
:10050000534620F00700854618B020B5FFF7FAFEE5
:10051000BDE820404FF000064FF000074FF0000804
:100520004FF0000B21F00701AC46ACE8C009ACE885
:10053000C009ACE8C009ACE8C0098D46704710B5E9
:100540000446AFF300802046BDE81040FFF765BECB
:1005500001491820ABBEFEE7260002007047FEE707
:1005600000B58BB000200121CDE906010590009077
:1005700001900290039004900E20CDE90810694686
:10058000054800F0BDFA0221034800F038FA02489D
:1005900000F02EFE0BB000BDD4040020014800F096
:1005A000AABB0000D4040020014800F0A4BB000056
:1005B000D4040020014800F09EBB0000D4040020B9
:1005C00000B58BB001220E2100200792CDE9051065
:1005D00003900490CDE908210090019002906946B3
:1005E000054800F08DFA0221034800F008FA02489D
:1005F00000F0FEFD0BB000BDFC040020014800F03F
:100600007ABB0000FC040020014800F074BB00002D
:10061000FC0400202DED0A8B00252C462D482E4E83
:10062000D0ED00BA90ED01BA90ED029AD0ED039AA8
:10063000D0ED04AA90ED05AA90ED06CA90ED078AC8
:10064000D0ED088AA6F58077A6F1800806EB441065
:10065000B0EE491AF0EE4B0AB0EE6B0A04F0C5FF9B
:10066000B0EE4A1AF0EE6A0AB0EE690A07EB4410DF
:1006700004F0BBFFB0EE681AF0EE480AB0EE4C0A88
:1006800008EB441004F0B1FF641C042CDEDB134CB7
:10069000134E41F68B6740F2427840F6DD6941F235
:1006A000676A2780A4F80280A4F80490A4F806A042
:1006B0006D1CB07A012802D0032803D004E005F0B5
:1006C00079FB01E004F0FEFA0A2004F0A5FE002DFB
:1006D000EFD1E6E7DC720008000200200A000020EB
:1006E000CC440020014800F011BE0000D4060020D8
:1006F000014800F00BBE000034070020014800F064
:1007000005BE0000D0050020014800F0FFBD00003C
:10071000300600202DE9F04F85680024099E802DC9
:1007200018D0894DC563894D456490F83450012D2A
:1007300015D0012580F8345090F83550012D10D097
:10074000002180F834100224002180F83410204663
:10075000BDE8F08F4FF4807141650120F8E7022079
:10076000F6E7022580F835500025456505682F68B5
:1007700047F480272F6005682B6103685E608368FB
:10078000402B03682AD099600168CA60714D704E91
:10079000704FDFF8BC81DFF8B891DFF8B8A1DFF85F
:1007A000B4B1EA14DFF8A8E10168183630379302D3
:1007B000A9F148090AF1600A0BF1180BAEF1300EED
:1007C0004FF0006C41452DD9A94205D0494503D0D1
:1007D000514501D0B14205D1202220E09A60026843
:1007E000D160D3E759451AD0714518D0594D7835A5
:1007F000A94214D0564D3035A94210D0B9420BD081
:10080000534A183A914207D0524A9032914203D04B
:100810004F4A4832914201D11A4600E062464C49A3
:100820004C392EE0DFF82C8108F1A80841452AD97F
:10083000A94205D0494503D0514501D0B14201D16B
:1008400020221CE059451AD0714518D0414D783509
:10085000A94214D03E4D3035A94210D0B9420BD038
:100860003B4A183A914207D03A4A9032914203D01B
:10087000374A4832914201D11A4600E06246344973
:1008800050390A605AE0DFF8CC8008F14808414549
:100890002AD9A94205D0494503D0514501D0B142DA
:1008A00001D120221CE059451AD0714518D0294D9C
:1008B0007835A94214D0264D3035A94210D0B9421E
:1008C0000BD0234A183A914207D0224A90329142E3
:1008D00003D01F4A4832914201D11A4600E06246D5
:1008E0001C491039CA6029E0A94205D0494503D006
:1008F000514501D0B14201D120221CE059451AD006
:10090000714518D0134D7835A94214D0104D3035AB
:10091000A94210D0B9420BD00D4A183A914207D0E3
:100920000C4A9032914203D0094A4832914201D197
:100930001A4600E06246074910398A6001680A6871
:1009400042F001020A60FFE6CD520008F1520008B1
:10095000586402401060024001681823CAB2103A7D
:10096000B2FBF3F2054B6FF30901032A9B5CC365ED
:1009700000D9091D816508467047000038730008DA
:1009800010B5014600208B698A6A4FF0C07453B1DC
:10099000B3F5005F15D072B1012A0CD0022A0AD03B
:1009A000032A09D104E01AB1012A06D0022A03D190
:1009B000C96AC90100D5012010BDC96AA142FAD097
:1009C00010BD002AF7D0012AF2D0022AF3D0032A60
:1009D000F3D010BD10B501680A68D20608D5C96801
:1009E000C90605D505F08CFA02480168491C01606A
:1009F00010BD0000D4000020704772B6FEE790F8EA
:100A00002020012A07D0022A05D0416A41F4802122
:100A1000416201207047006842690A434261002038
:100A20007047F0B590F820500468A468012D05D0F7
:100A3000022D03D0416A41F480215DE014F0406F43
:100A400001D1E50055D5C4F30164022C03D9416AF4
:100A500041F4000150E00125A5401D608D684FF470
:100A6000C0739DB1CE6835434E6845EAC605066839
:100A700003EB0417F5514FF4C275076805EB041535
:100A80000E697E51097D012905D009E00E88CD68E7
:100A900045EA4655EBE701684E5946F480764E51DB
:100AA0001179D579567941EA056195792D0445EAA0
:100AB000062529434FF4C676056806EB0416A951AE
:100AC0001178D57841EA0561957852782D0445EA88
:100AD000022211434FF4C475026805EB041551510D
:100AE000006803EB0411425842F00102425000201A
:100AF000F0BD416A41F4001141620120F0BD0000E7
:100B000010B590F82020012A07D0022A05D0416AAA
:100B100041F480214162012010BD3B48D0F8002201
:100B200042F00102C0F80022D0F8002222F47C52E8
:100B3000C0F80022D0F800224B6A42EA0322C0F833
:100B400000220A7D02F01F0301229A40D0F81C32D5
:100B50009343C0F81C32CB69B3B9D0F80C3293433D
:100B6000C0F80C328C894B6864F31F434C6900EB6E
:100B7000C404C4F840320C890B6864F31F434C6909
:100B800000EBC404C4F84432CB69012B16D1D0F871
:100B90000C321343C0F80C320C884B6864F31F43CB
:100BA0004C6900EBC404C4F840320C89CB6864F390
:100BB0001F434C6900EBC404C4F844328B69002B1A
:100BC000D0F804320ED01343C0F804320B69002B66
:100BD000D0F8143208D01343C0F81432096A01293E
:100BE00004D008E09343EFE79343F5E7D0F81C12F5
:100BF0001143C0F81C12D0F8001221F00101C0F816
:100C00000012002010BD000000640040704730B5A5
:100C100090F82040012C05D0022C03D0416A41F409
:100C200080215DE00468002955D02469A40754D0D0
:100C30004FF4D874056804EB01142D5915F0040520
:100C4000956005682D594ED0ED08556005682C5902
:100C500004F00204D4604FF4DA74056804EB011464
:100C60002D5905F00F05156105682D59C5F30725A8
:100C7000956105682C59240C54614FF4DC720468AA
:100C800002EB0112A4581C700468A458240A5C707A
:100C90000468A458240C9C700468A258120EDA70E0
:100CA0004FF4DE72046802EB0112A4581C71046850
:100CB000A458240A5C710468A458240C9C7104682C
:100CC000A258120EDA71006881B1016941F0200169
:100CD0000161002030BDE468A8E7416A41F40011D9
:100CE0004162012030BD6D0D1560AFE7C16841F074
:100CF0002001C160EDE72DE9F05F054600680024A2
:100D00004669D0F804908768D0F80CB0D0F810A0ED
:100D1000D0F81880F10748D0F90714D0012181607C
:100D2000B80703D5284600F090FA0CE0780702D502
:100D30004FF4006407E0380702D54FF4805402E016
:100D4000284600F081FAF80516D529684FF480701E
:100D50008860B80503D5284600F079FA0CE07805DC
:100D600002D544F4005407E0380502D544F4804429
:100D700002E0284600F06AFAF80316D529684FF415
:100D800080308860B80303D5284600F062FA0CE092
:100D9000780302D544F4004407E0380302D544F454
:100DA000803402E0284600F053FA300707D55FEAA6
:100DB000CB6004D52968102044F40074C860700723
:100DC0004FF0080707D55FEA0B7004D52868C760A5
:100DD000284600F0B1F9B00706D52868C06880073A
:100DE00002D0284600F0AAF9700607D55FEACA606B
:100DF00004D52968102044F480640861B00607D542
:100E00005FEA0A7004D528680761284600F0ECF90B
:100E1000F00606D528680069800702D0284600F051
:100E2000E4F9B00308D55FEAC96005D52968102048
:100E30004860284600F0DAF9F00307D55FEA097048
:100E400004D528684760284600F004FA300446D5E7
:100E50005FEA497040D5F00504D55FEAC87001D05B
:100E600044F00104B00504D55FEA887001D544F070
:100E70000204700504D55FEA487001D544F004040B
:100E8000300529D518F0700F26D008F070004028E2
:100E900015D006DC102809D020280AD0302816D119
:100EA0000AE050280ED0602811D10EE044F008046A
:100EB0000DE044F010040AE044F0200407E044F0A0
:100EC000400404E044F0800401E044F480742868A5
:100ED000816921F070018161296804204860002C3B
:100EE00005D0686A204368622846FFF78FFEBDE898
:100EF000F09F70B5040003D094F8200010B104E016
:100F0000012070BD204600F081F82068016841F0A2
:100F10000101016000F032FC0546052604E000F006
:100F20002DFC401B0A2811D820684068C007F6D065
:100F30002068016821F00201016000F01FFC0546F5
:100F40000BE000F01BFC401B0A2806D9606A40F445
:100F50000030606284F82060D2E720684068800733
:100F6000EFD4207E0128206801683DD021F0800167
:100F70000160607E01282068016838D021F04001BE
:100F80000160A07E01282068016833D021F0200193
:100F90000160E07E0128206801682ED041F0100138
:100FA0000160207F01282068016829D021F0080114
:100FB0000160607F01282068016824D021F00401CD
:100FC0000160D4E902010843D4E904121143084343
:100FD0006168491E08432168C861002060620120E1
:100FE00084F82000002070BD41F08001C0E741F08E
:100FF0004001C5E741F02001CAE721F01001CFE729
:1010000041F00801D4E741F00401D9E7F0B587B019
:10101000044614216846FFF730FA424B4248DFF895
:1010200000E11968D4F800C03F4A032502260927C9
:1010300010300024491CF44532D11960012907D130
:10104000016841F000710160006800F000700590D7
:10105000106840F0080010601068CDE9005600F0FC
:101060000800CDE9047069463048CDE9024500F03A
:1010700087FA00220521132000F02CFD132000F038
:101080001BFD00220521142000F024FD142000F097
:1010900013FD00220521152000F01CFD15203AE06B
:1010A000DFF88CE0F44538D1D0F800C04CF0806C0B
:1010B000C0F800C0D0F800C001290CF0806CCDF859
:1010C00014C0196007D1016841F000710160006827
:1010D00000F000700590106840F002001060106889
:1010E00002AB00F0020005906020CDE9000683E825
:1010F000B00069460F4800F043FA002205213F2066
:1011000000F0E8FC3F2000F0D7FC00220521402041
:1011100000F0E0FC402000F0CFFC07B0F0BD000084
:10112000006400401C00002030380240000C0240E7
:1011300000680040000402407047000070B505469A
:1011400000682649264C8CB0884220D102AB04AA04
:1011500000212846FFF75BFD0498A0F20521032932
:1011600015D8401EC6B2BDF8080040BA05F07CFC98
:1011700004EB0612C2E90001BDF80A0040BA108172
:10118000BDF80C0040BA50819DF80E0090811549C1
:10119000286888421FD16B4602AA00212846FFF723
:1011A00036FD0298A0F20120032814D8C5B2BDF87C
:1011B000000040BA05F058FC04EB0512C2E900013A
:1011C000BDF8020040BA1081BDF8040040BA508159
:1011D0009DF8060090810CB070BD000000680040D2
:1011E00030450020006400407047704770470000A1
:1011F00070B5044690F82000012804D0606A40F4DD
:101200000020606218E0022084F820002068016855
:1012100021F00101016000F0B1FA05460EE000BFC7
:1012200000F0ACFA401B0A2808D9606A40F400308C
:101230006062052084F82000012070BD20684068AD
:10124000C007EDD1606270BD70477047704770474E
:101250007047704770472DE9F0410446876D00F0F4
:101260008DFA064694F835000025022806D0802025
:10127000606584F834500120BDE8F0812068016881
:1012800021F0160101602068416921F0800141616F
:10129000206C08B9A06C20B12068016821F0080119
:1012A00001602068016821F0010101600CE000F09C
:1012B00065FA801B052807D920206065032084F883
:1012C000350084F83450D7E720680068C007EED1B5
:1012D00094F85C103F208840B860012084F8350005
:1012E00084F834500020C7E790F83510022903D065
:1012F0008021416501207047052180F83510006884
:10130000016821F001010160002070472DE9F843D8
:1013100004464FF00009CDF8009063484FF4165191
:10132000A56D0068B0FBF1F72E6894F85C100820FA
:1013300000FA01F131420FD021680A6852070BD53B
:101340000A6822F004020A6094F85C108840A860E1
:10135000606D40F00100606594F85C104FF001088A
:1013600008FA01F0304208D021684969090604D51D
:10137000A860606D40F00200606594F85C10042085
:101380008840304208D021680968890704D5A860E0
:10139000606D40F00400606594F85C101020884097
:1013A000304218D021680968090714D5A860206860
:1013B0000168490304D50068000308D5A16C07E063
:1013C0000168C90503D4016821F008010160216C9E
:1013D00009B12046884794F85C10202088403042AC
:1013E00031D021680968C9062DD5A86094F8350068
:1013F00005282068016806D0490347D50068000326
:101400001DD4616C1CE021F0160101602068416967
:1014100021F080014161206C08B9A06C20B12068E6
:10142000016821F00801016094F85C103F208840B9
:10143000A86084F8358084F83490216D1FE0E16B5A
:1014400009B120468847606D00282BD0606DC00729
:1014500014D0052084F835002068016821F00101CE
:1014600001600098401C0090B84203D820680068D2
:10147000C007F6D184F8358084F83490E16C0029F7
:1014800010D001B02046BDE8F04308470168C90507
:10149000D5D4016821F01001016084F8358084F80A
:1014A0003490CCE7BDE8F8832C0000202DE9F04112
:1014B000044600F063F906465CB1022084F835006A
:1014C000002584F834502068016821F00101016092
:1014D0000DE00120BDE8F08100F050F9801B0528E7
:1014E00005D920206065032084F83500F2E72068E4
:1014F0000068C007F0D12268116820480140D4E993
:1015000001031843D4E9033633431843636918438E
:10151000A3691843E3691843236A18430843616ABF
:10152000042903D1D4E90B13194308431060206840
:101530004069666A20F0070130460E4301270428FF
:101540000CD1A06A0643E06A40B12046FFF718FAC2
:1015500020B14020606584F83570BAE720684661A4
:101560002046FFF7F9F994F85C203F219140816013
:10157000656584F835700020ACE700003F8010F00E
:101580002DE9F84FDFF8BCA10022012503264FF01A
:101590000F090AF1040BAAF1040E00BF0B6805FA4B
:1015A00002F42340A34270D10F7907F00307012F03
:1015B00001D0022F16D187684FEA420806FA08FCCC
:1015C00027EA0C07D1F80CC00CFA08FC4CEA070C0F
:1015D000C0F808C04768A7430C79C4F300149440CE
:1015E0003C4344600C79E443A4070AD0C4684FEA42
:1015F000420C06FA0CF7BC438F6807FA0CF7274336
:10160000C7600C7904F00304022C12D1D40800EB5B
:10161000840CDCF820405707FF0E09FA07F824EA8B
:101620000804D1F8108008FA07F848EA0408CCF852
:10163000208004684FEA420C06FA0CF7BC430F798D
:1016400007F0030707FA0CF7274307604C6814F408
:10165000403F70D03C4C276847F48047276024689F
:1016600022F0030704F480440094384C07EB040C88
:10167000DCF8084897074FEA177809FA08F7BC43DF
:10168000334FB84202D1002724E054E0314FB84232
:1016900001D101271EE0304FB84201D1022719E0E5
:1016A0002E4FB84201D1032714E02D4FB84201D18B
:1016B00004270FE02B4FB84201D105270AE02A4F3B
:1016C000B84201D1062705E0284FB84201D10727CB
:1016D00000E0082707FA08F72743CCF80878DAF87B
:1016E00000405746D1F804C09C435FEACC2C00D59B
:1016F0001C433C60DBF800405F46D1F804C09C43CB
:101700005FEA8C2C00D51C433C60DEF80040774635
:10171000D1F804C09C435FEA8C3C00D51C433C607C
:10172000084F083F3C68D1F804C09C435FEACC3CBA
:1017300000D51C433C60521C102AFFF42FAFBDE8BB
:10174000F88F0000083C014044380240003001405E
:10175000000002400004024000080240000C024069
:10176000001002400014024000180240001C024019
:101770000AB1816170470904FBE7000001488068F5
:10178000704700002000002070B5040025D094F8B8
:101790003D00002520B984F83C50204600F0B8F800
:1017A000242084F83D002068016821F001010160D7
:1017B0002068016841F4004101602068016821F45B
:1017C0000041016000F072FA4D4A6168914201D80F
:1017D0004C4900E04C49884201D2012070BD4B4980
:1017E0002368B0FBF1F15E6826F03F060E435E60B1
:1017F0006368934206D94FF4967359434FF47A7352
:10180000B1FBF3F12368491C1E6A26F03F06314301
:1018100019626168914210D84900401EB0FBF1F294
:10182000521CC2F30B02042A01D2042022E0B0FBB6
:10183000F1F0401CC0F30B001CE0A268F2B301EB16
:10184000C10303EB0116431EB3FBF6F35B1C43F429
:1018500080431B0549D092B301EBC10202EB011199
:10186000401EB0FBF1F0401CC0F30B0040F4804080
:1018700040F400402168CA694CF6FF739A43104354
:10188000C861D4E9071001432068026822F0C00251
:1018900011430160D4E9030101432068826848F2E2
:1018A000FF339A4311438160D4E90501084321685D
:1018B000CA6822F0FF021043C86001E00EE016E0A3
:1018C0002068016841F0010101602564202084F84E
:1018D0003D00256384F83E50002070BD01EB4106B9
:1018E000431EB3FBF6F35B1CB3E70120C2E701EB39
:1018F0004101401EB0FBF1F0401CC0F30B00B7E704
:10190000A086010080841E0000093D0040420F00B7
:10191000F0B587B0044614216846FEF7AEFD1D49B8
:101920002068884233D11C480024016841F004013A
:101930000160016801F004010591016841F00101B5
:1019400001600068122500F0010005904FF400705E
:10195000CDE9000502AA0326042782E8D0006946E3
:101960000E48FFF70DFEB801CDE9000502AA694651
:1019700082E8D0000A48FFF703FE074810300168EC
:1019800041F400010160006800F40000059007B018
:10199000F0BD0000005C004030380240000802400A
:1019A000000002400248816802781144816070475B
:1019B000200000200B4810B5016841F4007101605F
:1019C000016841F480610160016841F48071016047
:1019D000032000F09FF80F2000F006F800F050F808
:1019E000002010BD003C024030B505461F4887B0BE
:1019F0000024016841F002010160006806A900F0BE
:101A00000200009001A800F031F90498A8B100F09C
:101A10004DF940001649174AB0FBF1F11648491E2E
:101A2000026040F2E732C0E90324C0E90114846196
:101A300000F0AAFC040003D015E000F037F9E9E754
:101A40000D4800F0CFFC04000DD11D2000F034F84B
:101A5000102D07D2002229461D2000F03BF8074830
:101A6000056000E0012407B0204630BD4038024048
:101A700040420F0000040040940700202400002092
:101A80000C4882B0016841F480410160006800F4B4
:101A9000804000900748001F016841F080510160BC
:101AA0000068002200F0805000900F21901E02B0CC
:101AB00000F010B844380240002809DB00F01F0293
:101AC000012191404009800000F1E020C0F80011A0
:101AD00070470000F0B40E4B1B680C46C3F30223A2
:101AE000C3F10705042D00D90425191D072901D2CA
:101AF000002300E0DB1E012606FA05F1491E214005
:101B000099409E40761E16403143F0BC01F089BBDF
:101B10000CED00E0064900F0070208684FF6FF03ED
:101B2000184040EA0220034A104308607047000052
:101B30000CED00E00000FA052DE9F0470E46050027
:101B400065D0DFF81481D8F80000F7B200F0070084
:101B5000B04207D288F80070D8F8000000F0070003
:101B6000B04254D128683D4C810712D5400703D5B7
:101B7000206840F4E05020602878000703D52068F2
:101B800040F4604020602068A96820F0F00008431D
:101B900020602878C0072DD03049686808390128AE
:101BA00012D0022813D0032811D009688907002910
:101BB0002DDA216821F0030101432160FFF7DEFDEA
:101BC000814641F2883A0EE009688903EFE7096827
:101BD0008901ECE7FFF7D2FDA0EB0901514502D9DD
:101BE0000320BDE8F0872068696800F00C00B0EBC6
:101BF000810FEFD1D8F80010404601F00701B14243
:101C000007D90770006800F00700B04201D001203A
:101C1000E7E72878400705D52068E96820F4E05018
:101C2000084320602878000706D52068296920F439
:101C3000604040EAC100206000F058F82168084A7E
:101C4000C1F30311515CC8400649086006480068AA
:101C5000FFF7CAFE0020C4E7003C024008380240FB
:101C6000407300082C000020240000200F22026096
:101C70000C4A136803F003034360136803F0F00396
:101C80008360136803F4E053C36012684FF4E053B9
:101C900003EAD20202610448006800F0070008600D
:101CA0007047000008380240003C024004480549E3
:101CB00000680968044AC1F38221515CC84070473A
:101CC0002C000020083802405073000804480549E1
:101CD00000680968044AC1F34231515CC84070474A
:101CE0002C0000200838024050730008154810B539
:101CF000006810F00C02144813D01449042A0FD0C5
:101D0000082A0ED10F4C241F2268236802F03F02DC
:101D10005B0207D52068C0F38810A0FB010106E034
:101D2000084610BD2168C1F38811A1FB0001002302
:101D3000FEF7FAFA2168C1F30141491C4900B0FBE2
:101D4000F1F010BD083802400024F400001BB70079
:101D50002DE9F84F04006ED02078DFF84C93C007CF
:101D6000A9F104054AD009F104000168C1F3810119
:101D7000012908D00068C0F3810002280AD1D9F8EF
:101D80000000400206D52868800337D56068002827
:101D9000E1D033E06068B0F5803F10D0B0F5A02FFF
:101DA000286810D020F480302860286820F4802033
:101DB00028606068A8B1FFF7E1FC06460DE02868DE
:101DC00040F48030F4E740F480202860F7E700BF5B
:101DD000FFF7D4FC801B642873D828688003F7D5EC
:101DE0000CE0FFF7CBFC064605E000BFFFF7C6FCA2
:101DF000801B6428F0D828688003F7D42078DFF8A7
:101E0000AC8280074FF0000A3ED5A748001D01684C
:101E100011F00C0F08D00068C0F3810002280BD12C
:101E2000D9F80000400207D42868800716D5E0687A
:101E3000012800D112E033E1E068B8B10120C8F810
:101E40000000FFF79BFC064605E000BFFFF796FC8D
:101E5000801B0228C0D828688007F7D52868216928
:101E600020F0F80040EAC10028600DE0C8F800A0AA
:101E7000FFF784FC064604E0FFF780FC801B022885
:101E80001FD828688007F7D42078000722D5864F0E
:101E900087486169703771B101210160FFF76EFCFD
:101EA000064604E0FFF76AFC801B022809D8386860
:101EB0008007F7D50EE0C0F800A0FFF75FFC0646EC
:101EC00005E082E0FFF75AFC801B02287DD83868C5
:101ED0008007F7D42078400768D5DFF8CCB1002719
:101EE0000BF13C0BDBF80000C0000BD4DBF800105A
:101EF00041F08051CBF80010DBF80000012700F022
:101F0000805000906B4E3068C00510D4306840F4AB
:101F100080703060FFF732FC009005E0FFF72EFC88
:101F20000099401A022850D83068C005F6D55E4E98
:101F3000A0686C3601280FD00528306810D020F03A
:101F400001003060306820F004003060A068B8B153
:101F5000FFF714FC00900FE0306840F00100F4E758
:101F600040F004003060F7E7FFF708FC0099411AE1
:101F700041F28830814266D830688007F4D50EE09F
:101F8000FFF7FCFB009007E0FFF7F8FB0099411A10
:101F900041F28830814256D830688007F4D42FB19E
:101FA000DBF8001021F08051CBF80010A069C8B315
:101FB0003D49091D0968C1F3810102294AD002285F
:101FC000504607D0C8F8600000E03CE0FFF7D6FBC1
:101FD00004463BE04746C8F86000FFF7CFFB0646E3
:101FE00005E000BFFFF7CAFB801B02282BD828683A
:101FF0008001F7D4D4E907010843A16A2E4A4908B1
:1020000002EB0141626A41EA8211084394F82C1004
:1020100040EA0161C9F8001001203866FFF7AEFB05
:10202000044606E03EE000BFFFF7A8FB001B0228C5
:1020300009D828688001F7D534E000BFFFF79EFB80
:10204000001B022802D90320BDE8F88F2868800110
:10205000F4D427E00128F7D0D9F80000E26900F4B1
:10206000800191421CD1226A00F03F01914217D1B8
:1020700047F6C071626A0140B1EB821F10D1A26ABB
:102080004FF0FF3300F4403103EB5202B1EB024F4B
:1020900006D194F82C1000F07060B0EB016F01D005
:1020A0000120D1E70020CFE704380240000047427A
:1020B000800E4742007000400000FFFF70470000A4
:1020C00038B5016804464A688868C043430606D5A7
:1020D000C30704D1D3435B0601D4216C05E0830719
:1020E00008D4D3431B0605D4616C01B02046BDE87B
:1020F00030400847830603D5430601D5C30551D4B4
:10210000D3439B064ED443060AD494F85130032B94
:1021100049D0636D43F004036365CB688B6800931B
:10212000830609D4636D43F0010363658B680093F4
:102130000B6823F040030B60C00506D4606D40F0CF
:1021400008006065206880680090606D002829D0D4
:102150002068416821F0E0014160012084F85100CD
:10216000900701D4D00722D02068416821F00301F4
:102170004160114DE06C40B10565E06CFFF7B4F8CB
:1021800018B1606D40F040006065A06C002809D077
:102190000565A06CFFF7A8F8002803D0606D40F03B
:1021A0004000606538BDC8688868009038BD20462A
:1021B000FFF784FF38BD00003D2C000870B5040017
:1021C00009D0606A002540B125616561A56294F877
:1021D000510040B10CE0012070BD6068B0F5827F15
:1021E000F4D0E561F2E784F85050204600F044F85E
:1021F000022084F851002068016821F0400101604C
:10220000A088218900F4827001F404410843A18967
:1022100001F400610843217C01F002010843217DA3
:1022200001F001010843218B01F400710843217F73
:1022300001F03801084394F8201001F080010843B0
:10224000218D01F40051084321680860A069042130
:1022500001EA104094F8241001F0100108432168AD
:1022600048602068C16921F40061C1616565012091
:1022700084F85100002070BD2DE9F04387B0064678
:1022800014216846FEF7F9F838493068884269D168
:1022900037480025016841F480510160006800F46E
:1022A0008050059032481438016841F00201016005
:1022B000016801F002010591016841F0010101602E
:1022C0000068022400F001000590182001274FF05B
:1022D00003084FF005098DE8910369462548FFF78B
:1022E0004FF980208DE8910369462348FFF748F9AC
:1022F000234C22484FF0C0672060C4E901754FF4B9
:102300008068C4E9035865617812A561C4E9075083
:1023100020466562FFF7CAF808B1FEF76EFBF46469
:10232000A663174C154860344830E4E802074020A3
:10233000A4E82101C00244F81459A561C4E907507A
:102340000F4865626030FFF7B1F808B1FEF755FB42
:10235000B464002205212320A663FFF7BBFB2320E2
:10236000FFF7AAFB07B0BDE8F08300000030014092
:102370004438024000040240000002401064024061
:10238000D00500207047704710B5040003D094F8C2
:102390003D0010B107E0012010BD002084F83C0092
:1023A000204600F01EF8022084F83D00211D206820
:1023B00000F0BEFC012084F8460084F83E0084F85A
:1023C0003F0084F8400084F8410084F8420084F81B
:1023D000430084F8440084F8450084F83D00002060
:1023E00010BD704790F83D10012901D001207047C1
:1023F000022180F83D100168CA6842F00102CA60FB
:1024000000681149884214D0B0F1804F11D00F49B3
:1024100088420ED00E4988420BD00E49884208D01F
:102420000D49884205D00D49884202D00C498842A6
:1024300004D1816801F00701062903D0016841F049
:1024400001010160002070470000014000040040CD
:1024500000080040000C0040000401400040014022
:1024600000180040704770B50446006801694FF0DD
:102470000005C943890715D4C168C943890711D428
:10248000E91E0161012020772068806980072046CD
:1024900002D0FFF7E7FF04E000F098F8204600F0D4
:1024A00096F8257720680169C943490717D4C168A0
:1024B000C943490713D46FF004010161022020775A
:1024C0002068806910F4407F204602D0FFF7CAFFE1
:1024D00004E000F07BF8204600F079F825772068CA
:1024E0000169C943090716D4C168C943090712D451
:1024F0006FF008010161042020772068C06980071F
:10250000204602D0FFF7AEFF04E000F05FF820465F
:1025100000F05DF8257720680169C943C90617D422
:10252000C168C943C90613D46FF0100101610820C6
:1025300020772068C06910F4407F204602D0FFF762
:1025400091FF04E000F042F8204600F040F82577C3
:1025500020680169C943C90708D1C168C943C907CF
:1025600004D1891E0161204600F032F8206801691B
:10257000C943090609D4C168C943090605D46FF0E7
:10258000800101612046FFF7FDFE20680169C94313
:10259000490609D4C168C943490605D46FF0400112
:1025A0000161204600F01EF820680169C9438906D0
:1025B0000BD4C168C943890607D46FF020010161BB
:1025C0002046BDE87040FFF7DEBE70BD7047704723
:1025D00000680349884201D1FFF7E4B97047000061
:1025E000000400407047704770470000F8B501686C
:1025F00004460868CA684B6910F00F0F4FF00005D9
:1026000059D003F0010602F49077374365D0C10733
:1026100005D0D10503D5216C41F0010121644107AA
:1026200005D5D90703D0216C41F00201216481074F
:1026300005D5D90703D0216C41F0040121640107BD
:1026400007D502F02001314303D0216C41F008018D
:102650002164216C00293AD0800604D5900602D569
:10266000204600F0F8FB20684069216CC0F3801020
:10267000090700D460B3204600F0C6FB206840691B
:10268000400621D52068143050E8001F21F0400199
:1026900040E80012002AF5D1A06BA8B16C49016591
:1026A000A06BFEF721FE002811D0A06B016D01B0D8
:1026B000BDE8F040084783060FD593060DD52046A8
:1026C000BDE8F84000F0C7BB2046FFF78DFFF8BD1E
:1026D0002046FFF789FF2564F8BD266B2023012ED5
:1026E00079D1C60677D5D60675D5086848680090B2
:1026F0004869400640D5A16B086840680004000C9A
:10270000EAD0A28D8242E7D9E085C869B0F5807F22
:102710002DD020680C3050E8001F21F4807140E873
:102720000012002AF5D12068143050E8001F21F073
:10273000010140E80012002AF5D12068143050E869
:10274000001F21F0400140E80012002AF5D184F872
:102750003E30256320680C3050E8001F21F0100146
:1027600040E80012002AF5D1A06BFEF774FDA08DA1
:10277000E18D401A81B229E0A08DE18D401A81B22D
:10278000E08D0028A8D00029A6D020680C3050E8A1
:10279000002F22F4907240E80026002EF5D1206828
:1027A000143050E8002F22F0010240E80026002EED
:1027B000F5D184F83E30256320680C3050E8002FB6
:1027C00022F0100240E80023002BF5D12046FFF74D
:1027D0000AFFF8BDFFE705062BD5150629D594F8A5
:1027E0003D002128F5D1A068B0F5805F01D12069B6
:1027F000B0B1206A411C2162216800784860E08CF9
:10280000401E0004000CE084E3D12068C16821F080
:102810008001C1602068C16841F04001C160D8E713
:10282000206A0088C0F308004860206A801C20628B
:10283000E5E74006CDD55006CBD5CA68204622F044
:102840004002CA6084F83D3000F0ADF8C1E70000F6
:10285000F92D000870B5040004D094F83D0000255F
:1028600010B106E0012070BD84F83C50204600F015
:1028700023F8242084F83D002068C16821F4005129
:10288000C160204600F048FB2068016921F49041B6
:1028900001612068416921F02A0141612068C16815
:1028A00041F40051C1602564202084F83D0084F883
:1028B0003E00002070BD00002DE9F04387B00646C1
:1028C00014216846FDF7D9FD3149306888425CD152
:1028D00030480025016841F480210160006800F45F
:1028E000802005902B481038016841F004010160F8
:1028F0000068694600F0040005904FF440600090C5
:102900000220CDE90105032003900720049022480E
:10291000FEF736FE224C21484FF000672060C4E9E4
:1029200001754FF48068C4E9035880156561C4E9F6
:1029300006504FF44039C4E908952046FEF7B6FD2D
:1029400008B1FEF75AF8B463A663154C1348603417
:102950003030E4E802074020A4E82101104844F8A0
:1029600014596030A561C4E907596562FEF79EFD00
:1029700008B1FEF742F87463002205212720A66300
:10298000FFF7A8F82720FFF797F807B0BDE8F08316
:1029900000480040403802400008024028600240E1
:1029A000D406002070477047FEE700000F4810B5BE
:1029B0000D4901600321416000214FF41022816024
:1029C000C0E903124FF4001242610176417681762C
:1029D000C17601774177FEF78CFA002803D0BDE875
:1029E0001040FEF70AB810BD00640040D404002077
:1029F0000F4810B50D4901600321416000214FF4DB
:102A000010228160C0E903124FF400124261017686
:102A100041768176C17601774177FEF76AFA002820
:102A200003D0BDE81040FDF7E8BF10BD00680040CE
:102A3000FC040020194808B5016841F480010160D8
:102A4000016801F480010091016841F40011016006
:102A50000068002200F40010009005210C20FFF710
:102A600039F80C20FFF728F8002205210E20FFF787
:102A700031F80E20FFF720F8002205213820FFF75B
:102A800029F83820FFF718F8002205213B20FFF72E
:102A900021F8BDE808403B20FFF70EB8303802406F
:102AA00010B58EB01C220B496846FDF7B4FC00211E
:102AB000684602F0BDFC084C06491C2260601C31CF
:102AC00007A8FDF7A8FC002107A802F0B1FC2060D0
:102AD0000EB010BD007300081400002070B586B061
:102AE00014216846FDF7C9FC1D480025016841F026
:102AF00002010160016801F002010591016841F0E5
:102B000001010160016801F001010591016841F0D6
:102B100008010160016801F008010591016841F0B8
:102B200004010160016801F004010591016841F0B0
:102B3000800101600068012200F08000094E9402CB
:102B4000059021463046FEF713FE0121CDE90041F4
:102B5000CDE9021569463046FEF712FD06B070BD9C
:102B600030380240001C02400D4810B50B4901608E
:102B70000C49416000214FF480428160C0E903129A
:102B800041618161C1610162FEF7FEFD002803D051
:102B9000BDE81040FDF731BF10BD0000005C0040F3
:102BA00024050020801A0600104810B50E49016067
:102BB0004FF482714160002181600122C160C0E94F
:102BC0000412520282611022C0E90721416281622F
:102BD0000A21C162FFF7F2FA002803D0BDE81040D5
:102BE000FDF70BBF10BD000000300140780500204C
:102BF0000C4810B50A4901600B4941600021816011
:102C00000C22C160C0E904128161C161FFF722FE9C
:102C1000002803D0BDE81040FDF7EFBE10BD000056
:102C20000048004090060020A0860100FEE7FEE775
:102C30000148FFF745BA00007805002010B5806B09
:102C40000021C187C186FFF739FA10BD012002F0CB
:102C5000E3FBFBE710B5502080F31188BFF34F8FE3
:102C6000BFF36F8F03F0A0FB18B104494FF0805001
:102C70000860002080F3118810BD000004ED00E022
:102C800030B593B030216846FDF7F7FB14210CA84E
:102C9000FDF7F3FB1D480025016841F080510160FC
:102CA000006800F0805011901948016841F480419B
:102CB00001600068022400F480401190012000901F
:102CC000000401908001CDE9064006200890A8206C
:102CD000CDE9090404200B906846FFF739F808B1E4
:102CE00072B6FEE70CA90F2081E831004FF4A05026
:102CF0000F904FF48050109005210CA8FEF71CFF98
:102D0000002801D072B6FEE713B030BD4038024053
:102D1000007000400248016841F470010160704792
:102D200088ED00E00148FFF79EBB000094070020FB
:102D3000F0B50268254C264D264E274F274B4FF005
:102D4000804CA04209D0604507D0A84205D0B042CF
:102D500003D0B84201D0984204D122F0700E4A68E4
:102D600042EA0E02A0421BD0604519D0A84217D0FB
:102D7000B04215D0B84213D0984211D0184DA84295
:102D80000ED0184DA8420BD0174DA84208D0174DB1
:102D9000A84205D0164DA84202D0164DA84203D134
:102DA00022F44075CA682A434D6922F080022A4302
:102DB00002608A68C2620A688262A04201D09842B8
:102DC00001D10969016301214161F0BD00000140A9
:102DD0000004004000080040000C004000040140D6
:102DE00000400140004401400048014000180040FC
:102DF000001C00400020004010B5806B0021C18500
:102E0000C184FFF7F1FB10BD01680C3151E8002FC0
:102E100022F4907241E80023002BF5D101681431AF
:102E200051E8002F22F0010241E80023002BF5D1E8
:102E3000016B012909D101680C3151E8002F22F002
:102E4000100241E80023002BF5D1202180F83E102C
:102E500000210163704708B590F83E10222901D087
:102E6000022008BD82684FF480539A4201D1016963
:102E700021B1816A9A421BD04AB10AE00268816A94
:102E80005268C2F308020A80816A891C08E002695C
:102E900072B10268526802F07F020A70816A491CAE
:102EA0008162C18D491E0904090CC18503D019E056
:102EB00002685268F1E70168CA6822F02002CA601D
:102EC0000168CA6822F48072CA6001684A6922F007
:102ED00001024A61202180F83E10016B012903D0D4
:102EE000FFF760FD002008BD0021016301680C317F
:102EF00051E8002F22F0100241E80023002BF5D109
:102F000001680A68D20602D50A6849680091818D75
:102F1000FFF769FBE6E7000070B504460068016949
:102F2000E26821F44051114301612169A068E2691E
:102F300008436169114308432168CA6849F20C6378
:102F40009A430243CA6020684169A26921F4407132
:102F50001143416131492068884202D0304988429A
:102F600002D1FEF7B3FE01E0FEF7A0FEE269002306
:102F7000192164253226B2F5004F626828D0A0FBE3
:102F80000101930F9200FDF7CFF90146B0FBF5F078
:102F90006FF01802504301EB800006EB0010B0FB0D
:102FA000F5F000F0F002B1FBF5F002EB0012B1FB1E
:102FB000F5F06FF01803584301EB800006EB0010AA
:102FC000B0FBF5F000F00F0021681044886070BD80
:102FD000A0FB010192185B41FDF7A6F90146B0FB89
:102FE000F5F00201B1FBF5F06FF01803584301EB67
:102FF000800006EBC000B0FBF5F000F0F80002EB3B
:103000004002B1FBF5F0584301EB800006EBC00035
:10301000B0FBF5F000F00700D6E70000001001401B
:103020000014014010B50448FDF7D4FCBDE8104081
:103030000148FFF7DBBA0000900600200C4808B5F5
:1030400001680A684A680092CA6842F01002CA60C1
:1030500001684A6942F040024A6112210091016808
:10306000044B806BA3F11802091DFDF753FB08BD4B
:1030700090060020FA4400202DE9F0410446008823
:10308000584DC0F30A03584F2B806078A178C008D0
:1030900040EA4110C0F30A066E80A078E17880090A
:1030A00040EA81002179A3F5806340EA8120C0F3E2
:1030B0000A01A98020796279400840EAC210C0F371
:1030C0000A02EA806079A6F58066C0F30110A87252
:1030D0006079A1F580618009E872E088A881208983
:1030E000E88160892882207BA874607BE874E0898D
:1030F000A882208A2B806E80A980A2F58062EA8057
:10310000A0F5806028810020215C3954401C0728EC
:10311000FADD3321344801F0C3FD08203A18215C60
:10312000401C02F8081C0F28F8DD34212E4801F05D
:10313000B7FD207C3870607C7870A07CB8702B481C
:10314000294EB0F90810B0F91820243E1144B0F906
:103150002820B0F93800104408444C2190FBF1F0CD
:103160007080010AF97038710020F87135211E480D
:1031700001F096FDA07B00F00101B18000F002019A
:10318000F18000F00401318100F00801718100F04C
:103190004001B18100F08001F18100F01001318225
:1031A00000F020007082A87C3070E87C7070A88AE3
:1031B00000F48071B18200F40071F18200F480614A
:1031C000318300F40061718300F48051B18300F415
:1031D0000051F18300F48041318400F40040708498
:1031E000BDE8F081CC440020BC0000203045002028
:1031F000FEE703B401984100009850EAC12018BFCF
:1032000004204A0D18BF40F0010040F2FF72B2EBFB
:10321000515F08BF40F00200012808BF052002B03E
:1032200070470907090E002804DB00F1E02080F850
:103230000014704700F00F0000F1E02080F8141D2A
:10324000704700000000000070B59B482DED020B98
:103250002DED068B079D25F00044A04218DC974811
:10326000844202DC0AD1069840B19DED060BBDEC0C
:10327000068B02B0BDE8704001F082BC002DCCBFCF
:103280009FED8F0B9FED900BBDEC068B02B070BDD8
:103290008F48A04215DD8F48A042D8BF4FF0FF34C1
:1032A00058DD9DED060B51EC100BFFF7A2FF042833
:1032B00008BF01F099FC9DED060BBDEC068B02B03A
:1032C00070BD9DED060B51EC100B02F023F8CDE91B
:1032D000060181489FED828BA0423CDD8248A042DE
:1032E0001FDD00249FED82AB9DED060B53EC1A2BE6
:1032F00051EC100B03F05EF99DED060B41EC190B40
:1033000053EC1A2B51EC100B03F0FEFB53EC182B73
:1033100003F006FE53EC192B03F008FACDE9060181
:1033200049E09DED060B012453EC182B51EC100BDA
:1033300003F040F99DED060B41EC190B53EC182BF3
:1033400051EC100B03F0ECFD53EC192B03F0EEF9EC
:10335000CDE906012FE06848A0421FDD02249FED61
:10336000689B9DED060B53EC192B51EC100B03F0F1
:10337000CBFB53EC182B03F01DF99DED060B41EC34
:10338000180B53EC192B51EC100B03F0C9FD53EC47
:10339000182B03F0CBF9CDE906010CE09DED060BEF
:1033A000032453EC102B9FED580B51EC100B03F042
:1033B000BDF9CDE906019DED060B53EC102B51EC48
:1033C000100B03F0A1FB41EC180B53EC182B03F08E
:1033D0009BFB41EC190B4E480621B0EE490AF0EE7A
:1033E000690A784401F0A0FA53EC182B51EC100B49
:1033F00003F08AFB41EC180B4648B0EE490AF0EEA8
:10340000690A0521784401F08FFA53EC192B51EC2D
:10341000100B03F079FB41EC100B51EC180B53EC43
:10342000102B002C0EDA03F0C5F89DED061B53ECB3
:10343000112B03F069FB9DED061B53EC112B03F0E0
:1034400097FC35E003F0B6F89DED061B53EC112B0D
:1034500003F05AFB41EC100B2F48784400EBC400FA
:1034600090ED001B51EC100B53EC112B03F058FDA9
:103470009DED061B53EC112B03F052FD41EC100B9C
:103480002648784400EBC40090ED001B51EC100B73
:1034900053EC112B03F06CFC41EC100B002DA2BF80
:1034A000BDEC068B02B070BD51EC100B03F044F87C
:1034B00041EC100B01E70000000010440000F07F19
:1034C000182D4454FB21F93F182D4454FB21F9BF1A
:1034D0000000DC3F0000203E0000F33F0000000041
:1034E000000000000000F03F0000E63F0000000088
:1034F00000000000000000400080034000000000C9
:10350000000000000000F83F000000000000F0BFD5
:10351000DA3F0000903F00001A3F0000D23E00005A
:1035200010B52F499FED2C1B2DED020B84B0059893
:1035300020F000408842D8BF9DED040B2DDD2949C5
:10354000884209D1049840B94FF00100FCF7C4FF4C
:1035500001F02AFB06B010BD05DB9DED040B01F068
:103560000FFB06B010BD68469DED040B00F008FF90
:1035700010F0030004BF9DED021B9DED000B0CD06D
:1035800001280ED09DED021B9DED000B022817D0E7
:10359000012001F045FA06B010BD01F00DF906B0AA
:1035A00010BD9DED021B9DED000B012001F038FACE
:1035B00051EC100B02F0C0FF06B041EC100B10BD37
:1035C00001F0FAF851EC100B02F0B6FF06B041EC36
:1035D000100B10BD00000000000000000000000003
:1035E000FB21E93F0000F07F2DE9F04D2DED040BAC
:1035F0002DED0E8B96B0DDE92550279CDDF890A0CF
:1036000025F0004624F00048BAF1000F14BF012154
:10361000002101EB4502FC4953184A1093422AD37A
:10362000002814BF0123002303EB44030B44F74994
:103630008B4220D358EA00019FEDF59B76D0DFF84E
:10364000D8B35D4503D1BAF1000F05D188E0BAF1D6
:10365000000F08BF002100D0012101EB450111F549
:10366000001F08D8002814BF0121002101EB4401EC
:1036700011F5001F0BD99DED261B9DED240B16B0F7
:10368000BDEC0E8B04B0BDE8F04D01F083BA00270D
:10369000002DBCBFE149884521DAE1498845A8BF32
:1036A00002271CDAC3451ADCDE4901EB2851142934
:1036B00008DDC1F1340220FA02F101FA02F282427D
:1036C0000DD108E058B9C1F1140228FA02F101FA4B
:1036D00002F2424503D101F00101C1F1020756EAAD
:1036E0000A0124D1002C22DA002D18BF022F01D0AC
:1036F000012F0AD00220FCF7EFFE16B0BDEC0E8BB6
:1037000004B0BDE8F04D01F023BA0220FCF7E4FE5E
:1037100001F01EFA51EC100B02F00EFF41EC100B01
:1037200016B0BDEC0E8B04B0BDE8F08D18E09FED37
:10373000BEAB9FEDBF8B002871D1B848804522D128
:1037400005F1804010F5801008BFBAF1000F07D0D6
:10375000B3450ADC002CA8BF9DED260BE0DA0DE096
:10376000B0EE490AF0EE690ADAE7002C06DA9DEDC0
:10377000260B51EC100B02F0DFFE6FE0AE487844F0
:1037800090ED000BCCE7D8454DD1002C48DA2EB196
:1037900086423AD1BAF1000F42D126E0BAF1000FC9
:1037A00013D00220FCF798FE01F00EFA8DED020B0B
:1037B0009DED240B8DED000B10EE900A039961F343
:1037C0001E0003909DED020BAAE78DED02AB9DED6F
:1037D000240B1AEE901A10EE900A8DED000B61F397
:1037E0001E0003909DED020B9AE78DED028B9DED7F
:1037F000240B18EE901A10EE900A8DED000B61F379
:103800001E0003909DED020B8AE709DA9DED240B63
:1038100051EC190B53EC102B02F088FF1EE020E056
:103820009DED240B7CE786421BDAB4F1804F0DD06E
:10383000A4F10050B0F1FF5013D1002D11DB9DED2C
:10384000240B51EC100B02F0AFF907E09DED240BB7
:1038500053EC102B51EC100B00F0C2BC41EC100BE0
:103860005EE79DED240B51EC100B01F053FDBAF116
:10387000000FCDE90E0142D19FED710B46B3A6F1C9
:10388000E040B0F17F600CD05E4538D1002D00DA09
:10389000A7B3022F0CBF01204FF0FF3003F0CDF88B
:1038A000DCE7002D01DD002C0DDA002D01DD002C00
:1038B0001FDB002D16DA002C14DB012F08BF9FED53
:1038C000620B3FF42DAFB0EE4A0AF0EE6A0A27E72A
:1038D000022F18BF002D0CD0012F0AD1002DFFF6AA
:1038E0001FAF06E0002DB8BF002C08DA012F3FF40F
:1038F00017AFB0EE480AF0EE680A11E71BE00120AE
:1039000000EBE57050EA070115D0791EB0EE498A48
:10391000F0EE698A084308BF9FED4D8B4E480025A5
:10392000804570DD4D494E48884514DDB0420DDBC1
:10393000002C19DB2FE00120FCF7CEFD16B0BDEC0A
:103940000E8B04B0BDE8F04D01F02EB9B34502DC9A
:10395000002C09DC1FE0864202DA002C1BDA03E0AF
:103960005E452BDD002C16DD0220FCF7B5FD01F0D5
:103970002BF98DED020B53EC1A2B51EC180B03F0C5
:10398000C3F8CDE900010399019861F31E0003908B
:103990009DED020BC4E60220FCF79EFD01F024F928
:1039A00010EE901A18EE900A8DED020B8DED008B43
:1039B00061F31E0003909DED020BB1E69DED0E0B31
:1039C00053EC192B51EC100B03F0AAFA9FED260BC8
:1039D000CDE9080153EC102B9DED080B51EC100BB9
:1039E00003F092F89FED221B53EC112B03F0C0F96A
:1039F0009DED081B53EC112B03F086F89FED1E1B69
:103A000053EC112B3CE08CE0FFFF1F00FFFF0F0089
:103A1000000000000000F03F0000F03F0000F07FD9
:103A20000000404301FCFFFF000000000000F07FA9
:103A30000000000000000000263D00000000000023
:103A40000000000000000080000000000000F0FF07
:103A5000000000000000F0BF0000E0410000F04363
:103A6000FFFFEF3F00000000000000000000D03F1B
:103A7000555555555555D53F000000000000E03F15
:103A800003F076F99DED080B41EC1A0B53EC102B6B
:103A900051EC100B03F038F853EC1A2B03F034F808
:103AA00041EC1A0B9FEDFE0B53EC102B9DED080B18
:103AB00051EC100B03F028F841EC1B0B9FEDFA0BB7
:103AC00051EC1A0B53EC102B03F01EF841EC1A0BBF
:103AD0009FEDF70B53EC102B9DED080B51EC100BE9
:103AE00003F012F853EC1A2B03F01AFA41EC1A0BFC
:103AF00051EC1B0B53EC1A2B02F05CFD0690CDE948
:103B000006519DED060B53EC1B2B51EC100B03F0F3
:103B100007FA53EC1A2B03F02BF941EC100B00F0D1
:103B2000A1B90020B6F5801F0EDA9FEDE30B53EC30
:103B3000102B9DED0E0B51EC100B02F0E5FFCDE9C3
:103B40000E016FF034000E4600EB2650A0F2FF3756
:103B5000C6F31300DA4940F07F6646F040568842CB
:103B6000D8BF002408DDD7498142C8BF012403DC47
:103B70000024A6F580167F1CD348784400EBC400CF
:103B80000F9690ED00CB9DED0E0B53EC1C2B51ECE2
:103B9000100B03F0C5F99DED0E0B41EC1B0B53EC24
:103BA0001C2B51EC100B02F005FD41EC100B51ECFD
:103BB000190B53EC102B02F0B9FD41EC1D0B51EC2D
:103BC0001B0B53EC1D2B02F09FFF41EC1A0BBF485F
:103BD0008DED10AB7844109590ED000B4FF0005038
:103BE00040EA660000EB84408DED080B00F50020F4
:103BF00009909DED080B53EC1C2B51EC100B03F0BE
:103C00008FF99DED0E1B53EC112B03F0B1F841EC35
:103C1000100B53EC102B9DED100B51EC100B02F020
:103C200073FF9DED080B41EC1C0B53EC102B9DED2D
:103C3000100B51EC100B02F067FF53EC1B2B03F041
:103C400097F853EC1C2B03F06BF953EC1D2B02F08F
:103C50005BFF41EC1C0B53EC1A2B51EC1A0B02F0DE
:103C600053FF41EC1B0B9A480621B0EE4B0AF0EED5
:103C70006B0A784400F058FEB0EE401AF0EE601A7D
:103C8000B0EE41DAF0EE61DA53EC1B2B51EC1B0B7A
:103C900002F03AFF53EC1D2B02F036FF9DED100BA6
:103CA00041EC1B0B53EC1A2B51EC100B02F082FC75
:103CB00053EC1C2B02F028FF53EC1B2B02F07AFC78
:103CC0009DED100B41EC1B0B53EC102B51EC100B2A
:103CD00002F01AFF41EC1D0B9FED7FEB53EC1E2B06
:103CE00002F068FC53EC1B2B02F064FC0890CDE959
:103CF00008519DED080B53EC1E2B51EC100B03F0FB
:103D00000FF953EC1D2B03F00BF953EC1B2B03F0B5
:103D10002FF89DED080B41EC1D0B53EC102B9DED86
:103D2000100B51EC100B02F0EFFE41EC1B0B53ECAF
:103D30001A2B51EC1D0B02F0E7FE9DED080B41EC38
:103D40001A0B53EC102B51EC1C0B02F0DDFE53EC64
:103D50001A2B02F02FFC41EC1A0B51EC1B0B53EC0D
:103D60001A2B02F027FC0C90CDE90C519DED0C0BA9
:103D700053EC1B2B51EC100B03F0D2F853EC1A2B25
:103D800002F0F6FF41EC1B0B9FED550B53EC102B93
:103D90009DED0C0B51EC100B02F0B6FE41EC1A0B32
:103DA0009FED510B51EC1B0B53EC102B02F0ACFEB2
:103DB00041EC1B0B9FED4E0B53EC102B9DED0C0BB0
:103DC00051EC100B02F0A0FE53EC1B2B02F0F2FBA7
:103DD00041EC100B4848784400EBC40090ED001B08
:103DE00051EC100B53EC112B02F0E4FB41EC1B0BDC
:103DF000384602F022FECDE9080153EC1B2B51ECB2
:103E00001A0B02F0D7FB41EC100B3C48784400EB56
:103E1000C40090ED00CB51EC100B53EC1C2B02F0C6
:103E2000C9FB9DED081B53EC112B02F0C3FB069060
:103E3000CDE906519DED080B53EC102B9DED060BC3
:103E400051EC100B03F06CF853EC1C2B03F068F8EA
:103E500053EC1A2B03F064F853EC1B2B02F088FF91
:103E600041EC100B9DED261B53EC102B8DED001B30
:103E700000959DED260B51EC100B02F045FE9DEDDB
:103E8000000B41EC1A0B53EC102B9DED260B51EC63
:103E9000100B03F045F89DED061B53EC112B2FE0A2
:103EA000000000604715F73FFE822B654715F73F7E
:103EB00044DF5DF80BAE543E0000000000004043BC
:103EC0008E9803007AB60B0072380000D0380000DC
:103ED000AA370000000000000000000000000840B9
:103EE000000000E009C7EE3FFD033ADC09C7EE3FE2
:103EF000F5015B14E02F3EBE36360000F0350000C1
:103F000002F002FE53EC1A2B02F054FB9DED060B5F
:103F100041EC1A0B53EC102B9DED000B51EC100BE8
:103F200002F0F2FDCDE90C019DED0C0B51EC1A0BEA
:103F300053EC102B02F03EFBCDE902010C46AA49DE
:103F40008C422FDB611A084318D19DED0C0B53EC0A
:103F5000102B9DED020B51EC100B02F0E1FF41EC38
:103F60001B0B9FEDA30B51EC1A0B53EC102B02F023
:103F700021FB53EC1B2B02F0C5FE2DD20220FCF7D7
:103F8000ABFA00F021FE10EE901A18EE900A8DEDBB
:103F9000020B8DED008B61F31E0003909DED020B73
:103FA000FFF7BEBB944A24F00041914214D39349D9
:103FB000214408437FF4EFAC9DED0C0B53EC102B28
:103FC0009DED020B51EC100B02F0AAFF53EC1A2BE3
:103FD00002F098FE7FF6DFAC24F000408849894A61
:103FE000002601EB205182422BDA481C4FF480114D
:103FF00021FA00F02044844AC0F30A517A44A1F225
:10400000FF3192ED000B814A8DED080BCA4020EA8A
:104010000202C0F3130040F48010C1F1140120FA31
:1040200001F60992002CB8BF76429DED080B53ECC7
:10403000102B9DED0C0B51EC100B02F071FFCDE934
:104040000C019DED0C0B51EC1A0B53EC102B02F0F4
:10405000B1FA9FED6F0B0890CDE9085153EC102B8E
:104060009DED080B51EC100B02F04EFD41EC1B0BCB
:104070009FED690B53EC102B9DED080B51EC100BD1
:1040800002F042FD9DED0C0B41EC1C0B53EC102B90
:104090009DED080B51EC100B02F042FF53EC1A2B74
:1040A00002F066FE9FED5E1B53EC112B02F02CFD1F
:1040B00053EC1C2B02F07EFA41EC1A0B51EC1B0B5B
:1040C00053EC1A2B02F076FACDE902019DED020BBA
:1040D00053EC1B2B51EC100B02F022FF53EC1A2B6C
:1040E00002F046FE9DED020B41EC1A0B53EC102B37
:1040F00051EC100B02F008FDCDE908014A489DED96
:10410000080B0521784400F00FFC9DED081B51ECD5
:10411000100B53EC112B02F0F7FC9DED021B53EC3E
:10412000112B02F025FECDE906019DED020B53ECAB
:104130001A2B51EC100B02F0E7FC53EC1A2B02F097
:1041400039FA9FED3B0B41EC1A0B53EC102B9DED14
:10415000060B51EC100B02F0E3FE9DED060B41EC5B
:104160001B0B53EC102B9DED020B51EC100B02F0CE
:10417000CBFC53EC1B2B02F0D9FA53EC1A2B02F0B8
:10418000CFFE9DED021B53EC112B02F0C9FE53EC48
:10419000192B02F0EDFDCDE9020101EB06500115EE
:1041A0000029C8BF039015DC9DED020B324651EC8F
:1041B000100B03F04CF8FFF71CF8042808BF00F0C0
:1041C00013FD32469DED020B51EC100B03F03FF84E
:1041D000CDE902019DED020B51EC180B53EC102BB5
:1041E00002F092FCFFF73ABB000090400000000094
:1041F000FE822B654715973C00CC904000346F3F02
:1042000001FCFFFF0000E03FA8340000FFFF0F00AB
:1042100000000000432EE63F396CA80C615C20BE14
:10422000EF39FAFE422EE63F48330000000000005E
:10423000000000000000004010B52F499FED2C1B2E
:104240002DED020B84B0059820F000408842DCBFC1
:1042500000209DED040B32DD2849884209D10498E5
:1042600040B94FF00100FCF737F900F09DFC06B0B3
:1042700010BD05DB9DED040B00F082FC06B010BD07
:1042800068469DED040B00F07BF810F0030011D0A0
:10429000012818D09DED021B9DED000B02281AD0BD
:1042A00000F08AFA51EC100B02F046F906B041EC2E
:1042B000100B10BD9DED021B9DED000B012000F0C9
:1042C000AFFB06B010BD9DED021B9DED000B00F095
:1042D00073FA06B010BD012000F0A2FB51EC100BE8
:1042E00002F02AF906B041EC100B10BD00000000EE
:1042F0000000000000000000FB21E93F0000F07F0B
:1043000000B52DED048BB0EE409AF0EE609A83B0CC
:1043100051EC190B02F038FD41EC180B18EE100AA5
:1043200018EE901A8DED008B002818BF012008436D
:1043300020F00040C0F17F6000F1E040C00F14D0D9
:1043400019EE101A19EE900A8DED009B002918BF86
:104350000121084320F00040C0F17F6000F1E040FF
:10436000C00F04BF0120FCF7B7F8B0EE480A03B055
:10437000F0EE680ABDEC048B00BD000000000000F8
:104380002DE9F14F04462DED020B2DED088B8AB07F
:104390009FEDE70B80ED020B139EE74826F00045EA
:1043A00085420ADC9DED120B002084ED000B0AB063
:1043B000BDEC088B03B0BDE8F08FE0489FEDE0ABAB
:1043C0009FEDE1BBA84247DDE14F9FEDE39B9FEDF1
:1043D000E48B9DED120B53EC1A2B51EC100B002EBD
:1043E0001CDD02F09DFD41EC100BBD4208D053ECEA
:1043F0001B2B51EC100B02F093FDC4E900010BE004
:1044000053EC192B51EC100B02F08AFD53EC182BD6
:1044100002F086FDC4E900010120C8E702F0CAF8F5
:1044200041EC100BBD4208D053EC1B2B51EC100B90
:1044300002F0C0F8C4E900010BE053EC192B51EC79
:10444000100B02F0B7F853EC182B02F0B3F8C4E9E4
:1044500000014FF0FF30AAE7C348A84279DB9DED89
:10446000120B51EC100B00F055FF41EC180B9FEDB7
:10447000C00B53EC102B02F047FB9FEDBF1B53EC1E
:10448000112B02F097F802F0A9FA074602F0D5FACC
:1044900041EC190B53EC1A2B02F036FB53EC182BA2
:1044A00002F066FC41EC180B53EC1B2B51EC190B82
:1044B00002F02AFBDFF8C8A241EC100B4FEA1558B6
:1044C0000125FA4453EC102B51EC180B02F028FD97
:1044D000032DC4E900013DD0C1F30A5005EB45119D
:1044E000A8EB00001139814234DA0AEB051BB0EE6B
:1044F00048AA9BED000BF0EE68AA53EC102B51EC90
:10450000190B02F001FB41EC1B0B51EC1A0B53ECA5
:104510001B2B02F005FD41EC180B51EC1A0B53EC70
:10452000182B02F0FDFC53EC1B2B02F0F9FC9BED69
:10453000020B41EC1A0B53EC102B51EC190B02F04F
:10454000E3FA53EC1A2B02F0EBFC41EC100B6D1C60
:10455000B8E70EE0002EA8BF3846BFF628AF94EDAE
:10456000000B51EC100B01F0E7FFC4E900017842A9
:104570001DE7C6F3130040F4801EC6F30A50A0F2F4
:10458000F530471100F01F05C5F12000DDF848B0F7
:1045900008900020069007900520EC467949002DF0
:1045A00007EB0002794408BF51F8221009D051F8F6
:1045B000223001EB8201AB404A68089922FA01F1EE
:1045C0001943A1FB0E26A1FB0B131A449A4234BFD8
:1045D0000123002303EB06080CEB8003D3E901A6BB
:1045E0000E448E4234BF0121002192448A4411B10D
:1045F000924502D903E0924501D2012100E0002159
:10460000C3E901A641444CF82010011EA0F10100AD
:10461000C4DC029800F10050850F0298DDE90367C1
:104620008000DDF8148002F008FA41EC1A0B3046E5
:1046300002F01AFA9FED541B53EC112B02F064FAAE
:1046400041EC1B0B384602F00FFA9FED511B53EC67
:10465000112B02F059FA41EC180B404602F004FA13
:104660009FED4D1B53EC112B02F04EFA41EC190B50
:1046700051EC180B53EC192B01F09CFF53EC1B2B46
:1046800001F098FF53EC1A2B01F094FFCDE90801DB
:10469000002008909DED080B53EC1A2B51EC100BE9
:1046A00002F03EFC53EC1B2B02F03AFC53EC182BAF
:1046B00002F036FC53EC192B02F05AFB9FED381B2D
:1046C00053EC112B02F020FA9FED370B41EC180B45
:1046D00053EC102B9DED080B51EC100B02F014FA6B
:1046E00053EC182B01F066FF9FED310B41EC180BDA
:1046F00053EC102B9DED080B51EC100B02F004FA5B
:1047000053EC182B01F056FF41EC100B139810F0EE
:10471000004F06D06D4251EC100B01F00DFF41EC43
:10472000100B284684ED000B41E60000000000005D
:104730000000000000000000FB21E93F7CD902409E
:1047400000004054FB21F93F3163621A61B4D03D4F
:10475000FB21F93F000000000000601A61B4D03D69
:104760007370032E8A19A33BFB213941000000001E
:1047700083C8C96D305FE43F000000000000E03FE7
:10478000EA2F0000382F0000000000000000103E5B
:10479000000000000000103C000000000000103A83
:1047A000182D4454FB21F93D3326A611460B113C2C
:1047B00000000054FB21F93D10B52DED040B2DED4B
:1047C000088B82B0B0EE419AF0EE619A0B9820F01F
:1047D00000449FED4BABB4F1795F11DA9DED0A0B0C
:1047E00051EC100B02F0FAF8002801BFB0EE4A0AB3
:1047F000F0EE6A0A02B0BDEC088B04BF04B010BD35
:104800009DED0A0B53EC102B51EC100B02F07CF9D0
:1048100041EC180B3C480621B0EE480AF0EE680A5D
:10482000784400F081F853EC182B51EC100B02F097
:104830006BF99DED0A0B41EC1B0B53EC192B51EC62
:10484000100B02F061F941EC190B53EC1B2B51ECEE
:10485000180B02F059F953EC192B02F061FB9FED94
:104860002C0B41EC190B53EC102B51EC180B02F0F4
:104870004BF941EC100B2848844210DA53EC192B09
:1048800051EC100B02F04CFB53EC1A2B02F070FAB7
:1048900041EC100B02B0BDEC088B04B010BD1F48FA
:1048A000A042BCBF9FED1E1B8DED001B06DBA4F5D7
:1048B00000100190002000909DED001B51EC100BAA
:1048C00053EC112B02F02CFB9DED000B41EC180B6F
:1048D00053EC102B51EC1A0B02F022FB41EC1A0B9B
:1048E00053EC192B51EC180B02F01AFB53EC1A2B5A
:1048F00002F03EFA41EC100BCCE700000000000093
:10490000000000000000F03F542C000000000000F8
:10491000000000000000E03F3333D33F0000E93FD8
:10492000000000000000D23F70B504462DED028B60
:104930004D1E00EBC500B0EE408AF0EE608A90EDAF
:10494000000B35F0060017D053EC182B51EC100B70
:1049500002F0DAF841EC100B6D1E04EBC50090ED8F
:10496000001B51EC100B53EC112B01F023FE41EC1A
:10497000100B35F00600E7D1022D36D0042D1CD0E7
:10498000062D1CBFBDEC028B70BD53EC182B51ECF7
:10499000100B02F0B9F894ED0A1B53EC112B01F047
:1049A00009FE53EC182B02F0AFF894ED081B53EC02
:1049B000112B01F0FFFD41EC100B53EC182B51ECC7
:1049C000100B02F0A1F894ED061B53EC112B01F033
:1049D000F1FD53EC182B02F097F894ED040B53EC17
:1049E000102B01F0E7FD41EC100B53EC182B51ECB0
:1049F000100B02F089F894ED021B53EC112B01F01F
:104A0000D9FD53EC182B02F07FF894ED001B53EC0A
:104A1000112B01F0CFFDBDEC028B41EC100B70BDF2
:104A200031B504462DED040B2DED0A8BB0EE41BAE5
:104A3000F0EE61BA0B989DED0A0B20F00040B0F14A
:104A4000795F0DDA51EC100BFEF7D3FB042808BF99
:104A500000F0CAF89DED0A0BBDEC0A8B05B030BD25
:104A600053EC102B51EC100B02F04EF841EC180BEC
:104A70009DED0A0B53EC182B51EC100B02F044F88F
:104A800041EC190B2C48B0EE480AF0EE680A0521FB
:104A90007844FFF749FF9FED2ACBB0EE40AAF0EE35
:104AA00060AA9CB353EC1C2B51EC190B02F02CF8B0
:104AB00041EC1C0B53EC1A2B51EC190B02F024F8AF
:104AC0009FED210B41EC190B53EC102B51EC1B0B00
:104AD00002F01AF853EC192B02F022FA53EC182BBF
:104AE00002F012F853EC1B2B02F01AFA53EC1C2BB9
:104AF00002F016FA9DED0A1B53EC112B02F038F967
:104B0000BDEC0A8B05B041EC100B30BDFFE753EC58
:104B10001A2B51EC180B01F0F7FF53EC1C2B01F092
:104B200049FD53EC192B01F0EFFF9DED0A1B53ECEF
:104B3000112B01F03FFDE3E7E42A00000000000034
:104B4000495555555555C5BF000000000000E03FD0
:104B50009FED070B10B553EC102B9FED070B51EC9D
:104B6000100B01F0E3FD41EC100B10BD0000000044
:104B70000000000000000000000000000000F03F06
:104B800010B553EC102B51EC100B01F013FD41EC60
:104B9000100B10BD10B553EC112B51EC100B01F0A4
:104BA00009FD41EC100B10BD9FED050B10B553EC4A
:104BB000102B51EC100B01F0B9FD41EC100B10BDA6
:104BC00000000000000000009FED050B10B553EC45
:104BD000102B51EC100B01F097FF41EC100B10BDA6
:104BE00000000000000000709FED050B10B553ECB5
:104BF000102B51EC100B01F087FF41EC100B10BD96
:104C0000000000000000001038B501246502009487
:104C10000D4C25600025A560E560082525610B4C3D
:104C2000050A25706070080AA070E170100A2071F2
:104C30006271180AA071E3716B462246024904486A
:104C4000FBF7EFFE38BD000018450020D80000201B
:104C5000D404002038B5012400940E4C40F2FF1516
:104C600025600025A560E560082525610A4C050A38
:104C700025706070080AA070E170100A20716271DE
:104C8000180AA071E3716B46224602490348FBF7FC
:104C9000C8FE38BD18450020D8000020FC040020C4
:104CA00000B587B0024600910021029103910821CE
:104CB0000491012369460248FBF7B3FE07B000BD2B
:104CC000D40400202DE9F84FDFF81091B9F9021053
:104CD000B9F9000000F0FEF9DFF804A1414D424FA0
:104CE00000240AF1080B0AF1100800BF05EB0416B6
:104CF00096ED100B51EC100B01F070FE01B23B4829
:104D000030F9140000F046FB4042394900B22AF85D
:104D1000140031F9141000EE101A3749F8EEC00AE9
:104D200000EE100AB1F9002034493248B8EEC00A4A
:104D300000EB4410B1F9001000F0A4FB2BF81400B4
:104D4000B7F900100091B6F9481002462D4E2C48D4
:104D500000EB4410B6F9003000F0F8FB28F814001E
:104D6000641C042CC2DBB9F90210B9F9000000F090
:104D70004FF8AA46B9461A4D0024DFF88CB0234FED
:104D800015F11805B9F9000000900AEB04103BF981
:104D90001420B0F9081007EB4410B6F9003000F009
:104DA000D5FB25F81400641C042CEBDBB8F90630A5
:104DB000B8F90420B8F90210B8F90000FFF74AFF6B
:104DC000B5F90630B5F90420B5F90210B5F90000BF
:104DD00001B0BDE8F04FFFF717BF0000CC44002042
:104DE000E000002030450020080000200A000020DC
:104DF000C400002000010020040000200200002068
:104E00000002002006000020CC00002080010020CD
:104E10002DE9F047A94F04462DED068B0D46B7F955
:104E2000000001F00AFE41EC100BFFF705FAB0EEAE
:104E3000408AF0EE608A284601F0FFFD894649EC81
:104E4000110B064653EC182B51EC110B01F05CFED4
:104E500041EC180BB7F9000001F0EFFD41EC100B2D
:104E6000FEF75EFBB0EE409AF0EE609A204601F04D
:104E7000E4FD884648EC100B044653EC192B51EC2A
:104E8000100B01F041FE53EC182B02F049F801F031
:104E9000A5FD05B2B7F9000001F0CFFD41EC100B04
:104EA000FEF73EFB49EC116B53EC102B51EC110B50
:104EB00001F02AFE41EC180BB7F9000001F0BDFD2E
:104EC00041EC100BFFF7B8F948EC114B53EC102BE9
:104ED00051EC110B01F018FE53EC182B01F06AFB9A
:104EE00001F07CFD00B201F0A8FD884648EC100BF3
:104EF00004469FED738B51EC100B53EC182B01F013
:104F000059FB41EC100B9FED709BB0EE491AF0EE8F
:104F1000691AFEF769FBB0EE40AAF0EE60AA2846D7
:104F200001F08BFD0E4646EC120B054653EC182B98
:104F300051EC120B01F03EFB41EC100BB0EE491AA4
:104F4000F0EE691AFEF750FBB0EE401AF0EE601A70
:104F500053EC1A2B51EC110B01F02CFB41EC100B14
:104F6000FFF7CEF951EC100B01F038FD584F48EC2B
:104F7000104B53EC182B388051EC100B01F01AFB3E
:104F800041EC100BB0EE491AF0EE691AFEF72CFB5B
:104F900046EC125BB0EE40AAF0EE60AA53EC182B80
:104FA00051EC120B01F0BCFF41EC100BB0EE491AB2
:104FB000F0EE691AFEF718FBB0EE401AF0EE601A38
:104FC00053EC1A2B51EC110B01F0F4FA41EC100BDD
:104FD000FFF796F951EC100B01F000FD48EC104B77
:104FE000788053EC182B51EC100B01F099FF41EC39
:104FF000100BB0EE491AF0EE691AFEF7F5FA46EC1E
:10500000125BB0EE40AAF0EE60AA53EC182B51EC04
:10501000120B01F085FF41EC100BB0EE491AF0EED7
:10502000691AFEF7E1FAB0EE401AF0EE601A53EC9E
:105030001A2B51EC110B01F0BDFA41EC100BFFF7EC
:105040005FF951EC100B01F0C9FC48EC104BB88033
:1050500053EC182B51EC100B01F062FF41EC100BDC
:10506000B0EE491AF0EE691AFEF7BEFAB0EE40AAA9
:10507000F0EE60AA46EC105B53EC182B51EC100BD1
:1050800001F098FA41EC100BB0EE491AF0EE691AF3
:10509000FEF7AAFA53EC1A2B51EC100B01F08AFA26
:1050A00041EC100BFFF72CF951EC100B01F096FCC2
:1050B000F880BDEC068BBDE8F08700000000002002
:1050C000219B1F18E9B97C4000000000000000404F
:1050D000CC0000202DE9F047784F04462DED048BDD
:1050E0000D46B7F9000001F0A8FC41EC100BFFF7EA
:1050F000A3F8B0EE408AF0EE608A284601F09DFCED
:10510000894649EC110B064653EC182B51EC110B58
:1051100001F0FAFC41EC180BB7F9000001F08DFC2E
:1051200041EC100BFEF7FCF9B0EE409AF0EE609AFD
:10513000204601F082FC884648EC110B044653ECF3
:10514000192B51EC110B01F0DFFC53EC182B01F083
:10515000E7FE01F043FC05B2B7F9000001F06DFC79
:1051600041EC100BFEF7DCF949EC116B53EC102B02
:1051700051EC110B01F0C8FC41EC180BB7F9000021
:1051800001F05BFC41EC100BFFF756F848EC114BBB
:1051900053EC102B51EC110B01F0B6FC53EC182B17
:1051A00001F008FA01F01AFC00B201F046FC894651
:1051B00049EC100B04469FED428B51EC100B53EC65
:1051C000182B01F0F7F901F009FC06B2284601F0AE
:1051D00034FC884648EC100B054653EC182B51EC78
:1051E000100B01F0E7F901F0F9FB00B2314600F0D5
:1051F0002DFCBDEEC00A344E53EC182B10EE100AF5
:1052000049EC104B308051EC100B01F0D3F901F058
:10521000E5FB48EC105B07B253EC182B51EC100B7C
:1052200001F07EFE01F0DAFB00B2394600F00EFC20
:10523000BDEEC00A53EC182B10EE100A49EC104BCF
:10524000708051EC100B01F06BFE01F0C7FB48ECD5
:10525000105B07B253EC182B51EC100B01F060FE01
:1052600001F0BCFB00B2394600F0F0FBBDEEC00A15
:1052700053EC182B10EE100A49EC104BB08051EC97
:10528000100B01F04DFE01F0A9FB48EC105B04B2DD
:1052900053EC182B51EC100B01F08CF901F09EFB34
:1052A00000B2214600F0D2FBBDEEC00A10EE100A9B
:1052B000F080BDEC048BBDE8F0870000000000200A
:1052C000219B1F18E9B97C40C40000200649896B66
:1052D000814207D10068016841F400210160034860
:1052E000FDF7CABE7047000090060020E24400208F
:1052F0000649896B814207D10068016821F40021C9
:1053000001600348FDF7B8BE70470000900600201A
:10531000FA44002082B0CDE9000121F00040019064
:105320009DED000B02B051EC100B7047884201DD7F
:105330000846704749428842FBDA08B270470000CD
:10534000FCF738FBFDF79CFCFDF7C8FBFDF772FB93
:10535000FDF74EFBFDF72AFBFDF726FCFDF704FCED
:10536000FDF746FCFBF7FCF8FBF72AF90122910256
:105370000448FCF7FDF9FDF761FEFDF791FB00F035
:1053800052F8FEE7001C024001460020842900D0AC
:10539000C81C704730B5431A4FF480559FED1C0A66
:1053A000DFED1C0A1AB241F6FF74A84212D200F5D2
:1053B0008053002905DB994203DA00BF01EE102A71
:1053C00015E099421EDBA1421CDAC1F500510844E8
:1053D00000B20AE0A0F58050A84213D2002912DBE7
:1053E000814210DAA3F5005318B201EE100AB8EEAC
:1053F000C11A21EE000A20EE200ABDEEC00A10EE0E
:10540000100A00B230BD8142FCDBA142D6DB30BDC8
:105410000000B4430000003910B500B9012000F0CD
:105420005FFE002010BD10B500F080FE002010BD12
:105430007FB50D4604464169B0F9080081B1A16904
:1054400071B1FFF7A1FFD4E905128DE80700D4E997
:1054500000102B46226900F07CFF039004B070BD61
:10546000FFF792FF03A9CDE90001208A2B4682B203
:10547000D4E9001000F040FF012801D00020EDE742
:105480000398EBE7BDEEC00A034610B510EE100A14
:10549000BDEEE00A00B210EE104A188224B25C821F
:1054A0009983DA83D9899981211A08B2D881B428DD
:1054B00002DDA0F5B47004E011F1B40F01DA00F5DB
:1054C000B470D88100B200EE100AD3ED000AB8EE35
:1054D000C00A20EE800ABDEEC00A10EE101A9982B2
:1054E000B3F9161093ED011A00EE101A1146F8EEFA
:1054F000C00A00EE100AB8EEC00A41EE000ABDEE86
:10550000E00A10EE100A00B2D882FFF70FFFD8822F
:105510000146B3F90E00B3F90C20D3ED020A801A4C
:1055200000EE100AB8EEC00A20EE200ABDEEC00A56
:1055300010EE100A18839A8A1144084400B2588366
:10554000B3F91C10FFF7F2FE588310BD30B50D46BD
:1055500003990582428283830446C183C089A08166
:10556000501B00B200EE100AE081D4ED000AB8EE44
:10557000C00A20EE800ABDEEC00A10EE102AA282F8
:10558000B4F9162094ED011A00EE102AF8EEC00AC4
:1055900000EE100AB8EEC00A41EE000ABDEEE00AC5
:1055A00010EE100A00B2E082FFF7C0FEE082014672
:1055B000B4F90E00B4F90C20D4ED020A801A00EE02
:1055C000100AB8EEC00A20EE200ABDEEC00A10EEA6
:1055D000100A2083A28A1144084400B26083B4F9FF
:1055E0001C10FFF7A3FE608330BD00218181C181C3
:1055F00080EC030A704700002DE9F041184C0F467B
:105600000546E6682068001D00F0A2FC38B9206855
:1056100090F82C1001208840216981432161681C89
:1056200007D137B12168BDE8F0410E48091D00F0EF
:10563000D3BC20683544B5424560216805D2A06BD3
:10564000BDE8F041091D00F0AFBC606B091D00F022
:10565000ABFCA06A854200D2A562BDE8F0810000E3
:1056600030000020B80800202DE9F041054600F088
:10567000BFFC2E4CA068401CA06020682C4F10B1CD
:10568000606940B32DE02560A068012829D100267B
:1056900006EB860007EB800000F078FC761C072EF6
:1056A000F6D323488C3000F071FC2148A03000F084
:1056B0006DFC1F48B43000F069FC1D48C83000F094
:1056C00065FC1B48DC3000F061FC19488C306063DD
:1056D0001430A06305E02068E96AC06A884200D8F7
:1056E0002560606A401C6062E96A01202269884086
:1056F0001043206101EB810007EB8000291D00F0C1
:105700006BFC00F095FC606900280CD02068E96A09
:10571000C06A884207D207494FF080500860BFF343
:105720004F8FBFF36F8FBDE8F08100003000002085
:10573000DC07002004ED00E010B5044690F85100AD
:1057400058B101280CD002280FD0502080F31188C6
:10575000BFF34F8FBFF36F8FFEE7206B00F07CFC31
:105760002046BDE8104000F077BC10BD10484FF453
:105770007051420706D0C01D0D4920F00700411AA4
:10578000C1F570510B4A00230144C2E900030839F6
:10579000183A21F0070111604B600B600B1AC0E949
:1057A000001393604FF00040536050617047000059
:1057B000CC08002084000020144E154CA6F1C80728
:1057C0004FF08058DFF84C9012E000BF00F010FC62
:1057D000F068C568281D00F0BBFBA068401EA060F3
:1057E0006068401E606000F023FC2846FFF7A4FFBD
:1057F00060680028EAD138680128F9D9C9F8008022
:10580000BFF34F8FBFF36F8FF2E70000A4080020B3
:105810003000002004ED00E02DE9F0479A46DDE974
:10582000098481466FF00303206B03EB820210446E
:10583000089E20F00707780707D0502080F31188D2
:10584000BFF34F8FBFF36F8FFEE7002561B10020DC
:1058500023180A5C83F834200A5C12B1401C10281B
:10586000F6D384F8435001E084F83450072E00D377
:105870000626E662C4E91165201D00F092FB04F1E2
:10588000180000F08EFB2461C6F107006462A0617D
:10589000E56484F8505052464946384600F0C0F856
:1058A0002060B8F1000F01D0C8F80040BDE8F087D3
:1058B00030B5114900E011460A688242FBD34B68BB
:1058C0005C18844203D14068184448600846436825
:1058D0001C18944209D1084C183C2468A24209D0F3
:1058E00052681A4442600A6812680260814200D01D
:1058F000086030BD0460F9E7840000200648416B71
:10590000096829B1416BC968C968496881627047F3
:105910004FF0FF31FAE700003000002008484068EF
:10592000401C4FF0500080F3118804D0BFF34F8F1C
:10593000BFF36F8FFEE7BFF34F8FBFF36F8FFEE7AD
:105940008C0000202DE9F0410546002700F024FCE2
:10595000324E306808B9FFF709FF706905424ED131
:10596000C5B3083568070ED005F00700C0F1080080
:105970000544680707D0502080F31188BFF34F8F8C
:10598000BFF36F8FFEE72DB37068854237D8234889
:10599000183001460C6801E020460C466168A942B7
:1059A00002D221680029F7D131688C4227D00768DC
:1059B0002168016060680837411B10290FD9601900
:1059C000420708D0502080F31188BFF34F8FBFF3F8
:1059D0006F8FFEE713E041606560FFF769FF616864
:1059E0007068401A7060B268904200D2B06070690E
:1059F00001430020C4E90001F068401CF06000F0A1
:105A000039FD780707D0502080F31188BFF34F8FFE
:105A1000BFF36F8FFEE73846BDE8F0816C000020D1
:105A200010B5031F4FF080741C601B1F21F0010193
:105A30001960191F044B0B6014390A60091F6FF0BD
:105A4000020244380A6010BD1D59000810B52DED42
:105A5000048B9FED4F8A9FED4F9B002928DD00EEC0
:105A6000100AF8EEC00A00EE101AB8EEC01A80EE66
:105A7000810A10EE100A01F03DFB41EC100BFDF71E
:105A8000E3FB51EC100B00F063FD00EE100A20EE7A
:105A9000080A10EE100A01F02DFB53EC192B00F050
:105AA00045FE00F055FD00EE100ABDEC048B10BD64
:105AB00000282ADA00295EDA00EE100AF8EEC00AA1
:105AC00000EE101AB8EEC01A80EE810A10EE100A2D
:105AD00001F010FB41EC100BFDF7B6FB51EC100B85
