:020000040800F2
:1000000098530020290300087F4F0008DD3F0008B7
:100010007D4F0008750A0008D55D0008000000004B
:10002000000000000000000000000000690200085D
:10003000CD0F000800000000C5020008895200082A
:100040004303000843030008430300084303000878
:100050004303000843030008430300084303000868
:1000600043030008CF0F0008D50F00084303000822
:100070002D0C000843030008390C00084303000856
:10008000430300084303000843030008C10A0008B3
:10009000B50A00084303000843030008DD0F000809
:1000A00059530008430300084303000843030008B2
:1000B00075530008815300084303000843030008F8
:1000C000430300084303000843030008814F00086E
:1000D00043030008915A000843030008C95A000866
:1000E0004303000843030008430300088D5300083E
:1000F0009953000843030008430300084303000822
:1001000043030008430300084303000843030008B7
:1001100043030008430300084303000843030008A7
:10012000450C0008510C00085D0C0008690C000823
:10013000430300084303000843030008150B0008AD
:10014000090B0008430300084303000843030008A9
:1001500043030008750C0008810C0008B15C00081E
:100160004303000843030008430300084303000857
:100170004303000843030008430300080000000095
:10018000430300084303000800F002F800F05CF8A5
:100190000AA090E8000C82448344AAF10107DA45E2
:1001A00001D100F051F8AFF2090EBAE80F0013F0D8
:1001B000010F18BFFB1A43F001031847D0AD000030
:1001C000F0AD00000A444FF0000C10F8013B13F0B2
:1001D000070408BF10F8014B1D1108BF10F8015BA0
:1001E000641E05D010F8016B641E01F8016BF9D193
:1001F00013F0080F1EBF10F8014BAD1C0C1B09D1EA
:100200006D1E58BF01F801CBFAD505E014F8016B5B
:1002100001F8016B6D1EF9D59142D6D370470000ED
:100220000023002400250026103A28BF78C1FBD8FF
:10023000520728BF30C148BF0B6070471FB50AF096
:100240001CFB1FBD10B510BD00F0E4F91146FFF70F
:10025000F5FF08F02FFA00F002FA03B4FFF7F2FFFF
:1002600003BC00F005FA00002C4B19680868B0E8E0
:10027000F04F80F30988BFF36F8F4FF0000080F3D9
:10028000118870470000000008480068006880F38B
:1002900008884FF0000080F3148862B661B6BFF39F
:1002A0004F8FBFF36F8F00DF00BF00BF08ED00E08E
:1002B000DFF80C00016841F470010160704700BF75
:1002C00088ED00E0EFF30980BFF36F8F134B1A68DE
:1002D0001EF0100F08BF20ED108A20E9F04F1060CB
:1002E00009B44FF0500080F31188BFF34F8FBFF374
:1002F0006F8F09F0ABFA4FF0000080F3118809BC52
:1003000019680868B0E8F04F1EF0100F08BFB0EC95
:10031000108A80F30988BFF36F8F70472400002094
:10032000EFF30580704700000948804709480047FF
:10033000FEE7FEE7FEE7FEE7FEE7FEE7FEE7FEE795
:10034000FEE7FEE704480549054A064B70470000F2
:100350004953000889010008984D00209853002057
:10036000984F0020984F002053EA020C00F069805B
:100370002DE9F04B4FF00006002B1FBFB3FA83F5B9
:1003800003FA05F424FA05F65E4012BF1643B2FAEA
:1003900082F502FA05F4C5F120051EBF22FA05FC1C
:1003A00044EA0C04203556EA044C4FEA144418BFC2
:1003B000641C4FF000084FF00009904271EB030CF1
:1003C00039D3002919BFB1FA81F701FA07F6B0FA5B
:1003D00080F700FA07F6C7F120071EBF20FA07FCD6
:1003E00046EA0C062037B6FBF4FCA7EB0507103FE6
:1003F00007F01F0BCBF120060CFA0BFB2CFA06F6CC
:1004000044BFB3460026202FA4BF5E464FF0000B2A
:100410005BEA060C08BF4FF0010B19EB0B09ABFBB5
:10042000027C48EB0608C01B06FB02CC0BFB03CC8E
:1004300071EB0C01C1E70B46024641464846BDE858
:10044000F08B13B54FF000004FF00001AFF30080C8
:10045000BDE81C407047032A40F2308010F0030CC6
:1004600000F0158011F8013BBCF1020F624498BF07
:1004700011F801CB00F8013B38BF11F8013BA2F1A4
:10048000040298BF00F801CB38BF00F8013B11F01F
:10049000030300F02580083AC0F0088051F8043BBF
:1004A000083A51F804CBA0E80810F5E7121D5CBF2C
:1004B00051F8043B40F8043BAFF30080D20724BF5F
:1004C00011F8013B11F801CB48BF11F8012B24BFF3
:1004D00000F8013B00F801CB48BF00F8012B704742
:1004E00010B5203AC0F00B80B1E81850203AA0E8CF
:1004F0001850B1E81850A0E81850BFF4F5AF5FEA03
:10050000027C24BFB1E81850A0E8185044BF18C9B5
:1005100018C0BDE810405FEA827C24BF51F8043B5C
:1005200040F8043B08BF7047D20728BF31F8023BB0
:1005300048BF11F8012B28BF20F8023B48BF00F844
:10054000012B704702F0FF0343EA032242EA024212
:1005500000F037B84FF0000200B5134694469646B7
:10056000203922BFA0E80C50A0E80C50B1F12001C6
:10057000BFF4F7AF090728BFA0E80C5048BF0CC074
:100580005DF804EB890028BF40F8042B08BF7047D2
:1005900048BF20F8022B11F0804F18BF00F8012B44
:1005A000704770477047704710B500F02BF800682F
:1005B00010BD10B5044600F025F8046010BD4FF0E2
:1005C00000020429C0F0128010F0030C3FF4C4AF05
:1005D000CCF1040CBCF1020F18BF00F8012BA8BF2E
:1005E00020F8022BA1EB0C01FFF7B6BF5FEAC17C3C
:1005F00024BF00F8012B00F8012B48BF00F8012BA5
:100600007047000000487047384D00200048704790
:10061000384D00207546FFF7F9FFAE4605006946E4
:10062000534620F00700854618B020B5FFF78AFE34
:10063000BDE820404FF000064FF000074FF00008E3
:100640004FF0000B21F00701AC46ACE8C009ACE864
:10065000C009ACE8C009ACE8C0098D46704710B5C8
:100660000446AFF300802046BDE81040FFF7F5BD1B
:1006700001491820ABBEFEE72600020070470000CB
:10068000B7EE000A80ED100A9FED040A80ED110A12
:1006900080ED120A80ED130A704700000000000090
:1006A00010B5B6217E2000F06FF80A2001F0DAFACA
:1006B00004217D2000F068F80A2001F0D3FA00211F
:1006C0007C2000F061F80A2001F0CCFA00214120E2
:1006D00000F05AF80A2001F0C5FA0821532000F072
:1006E00053F80A2001F0BEFA0421582000F04CF81B
:1006F000BDE810400A2001F0B5BA00002DE9FC4128
:10070000DFF87C8015460E4607460024224610215D
:10071000404601F0BFFB47F080008DF80400012245
:1007200001A9184802F008FD164802F0F2F8032863
:10073000FAD001226946134802F0FEFA114802F08D
:10074000E8F80428FAD04FF47A77AC4210D23B464E
:10075000012269460B4802F041FA0A4802F0D9F832
:100760000428FAD09DF800003055641CE4B2ECE790
:1007700001221021404601F08DFBBDE8FC81000004
:10078000000002403805002013B5114C0022102152
:10079000204601F07FFB012269460E4802F0CCFCA6
:1007A0000C4802F0B6F80328FAD0012201A9094842
:1007B00002F0C2FC074802F0ACF80328FAD001208E
:1007C00001F050FA01221021204601F063FB1CBD0C
:1007D000000002403805002010B5B621142000F0BA
:1007E00053F81E2001F03EFA00210F2000F04CF8D3
:1007F0000A2001F037FA0021162000F045F80A20FF
:1008000001F030FA0121182000F03EF8BDE8104058
:100810000A2001F027BA00002DE9FC41184E0D46D0
:100820000746002422460121304601F033FB47F001
:1008300080008DF8000001226946124802F07CFC1D
:10084000104802F066F80328FAD04FF47A773B4656
:10085000012201A90B4802F0C1F90A4802F059F837
:100860000428FAD09DF804002855641CE4B2062C34
:10087000EDD301221146304601F00CFBBDE8FC81AE
:10088000000402403805002013B5104C002201215D
:10089000204601F0FFFA012269460D4802F04CFCA7
:1008A0000B4802F036F80328FAD0012201A90848C3
:1008B00002F042FC064802F02CF80328FAD001228C
:1008C0001146204601F0E6FA1CBD0000000402407B
:1008D000380500207CB50546002016460C460090E1
:1008E0000190062269461220FFF708FF9DF80100DB
:1008F0009DF80010000200B2084300EE100AF8EE66
:10090000C00A9FED550A60EE800AC5ED000A9DF809
:1009100003009DF80210000200B2084300EE900AA6
:10092000F8EEE00A60EE800AC5ED010A9DF80500C8
:100930009DF80410000200B2084300EE900A6946D8
:100940000220F8EEE00A20EE800A85ED020AFFF7A9
:1009500063FF9DF801009DF80010000200B20843FB
:1009600000EE100A0222F8EEC00A9FED3C0A60EE8B
:10097000800AC4ED000A9DF803009DF802100002F1
:1009800000B2084300EE900AF8EEE00A60EE800A3A
:10099000C4ED010A9DF805009DF80410000200B2A4
:1009A000084300EE900A69462220F8EEE00A20EEA5
:1009B000800A84ED020AFFF7A1FE9DF800009DF871
:1009C0000110C00040EA5110B0F5806F01DBA0F5C6
:1009D000006009F084FB9FED221B53EC112B09F002
:1009E000E5FB9FED211B53EC112B09F035F909F0C4
:1009F00001F930601E4895ED000AD0ED000A30EE96
:100A0000600A85ED000A95ED010AD0ED010A30EE8D
:100A1000600A85ED010A95ED020AD0ED020A30EE7A
:100A2000600A85ED020A94ED000AD0ED030A30EE6B
:100A3000600A84ED000A94ED010AD0ED040A30EE5C
:100A4000600A84ED010A94ED020AD0ED050A30EE49
:100A5000600A84ED020A7CBDE7416B3A58A08B3AEC
:100A6000000000000000C03F000000000000374010
:100A700044480020FEE7000000B58BB000200121B3
:100A8000CDE906010590009001900290039004903A
:100A90000E20CDE908106946054800F073FB0221DD
:100AA000034800F0EFFA024800F0DCFE0BB000BD96
:100AB00094040020014800F060BC00009404002071
:100AC000014800F05ABC00009404002000B58BB02F
:100AD00001220E2100200792CDE905100390049019
:100AE000CDE908210090019002906946054800F088
:100AF00049FB0221034800F0C5FA024800F0B2FEAB
:100B00000BB000BDBC040020014800F036BC000062
:100B1000BC040020014800F030BC0000BC040020F0
:100B20002DED0A8B00252C462F48304E00F10C018C
:100B3000D0ED00BA90ED01BAD0ED02AA90ED06CA50
:100B400090ED078AD0ED088AA6F5807791EC039A9C
:100B5000A6F1800806EB4410B0EE6A1AF0EE4B0ADC
:100B6000B0EE6B0A07F065FFB0EE4A1AF0EE690AC4
:100B7000B0EE490A07EB441007F05BFFB0EE681ACD
:100B8000F0EE480AB0EE4C0A08EB441007F051FFB3
:100B9000641C042CDEDB164C164E41F68B6740F2CB
:100BA000427840F6DD6941F2676A2780A4F8028046
:100BB000A4F80490A4F806A06D1CB07A012804D013
:100BC000032805D0022806D007E008F00FFC04E057
:100BD00007F0B2F801E008F043FA0A2007F0ECFD54
:100BE000002DEAD1E1E7000000AA0008A04900209A
:100BF00034010020164D00200B48B0EE401A9FED46
:100C0000092A90ED0D0AD0ED042ADFED051A00EE59
:100C1000A20A22EE000A01EE810A80ED0D0A704759
:100C20000AD7A33C48E17A3F8C000020014800F03D
:100C3000A7BE000044090020014800F0A1BE00004A
:100C4000A4090020014800F09BBE00009005002090
:100C5000014800F095BE0000040A0020014800F0A1
:100C60008FBE000084080020014800F089BE00000B
:100C7000F0050020014800F083BE0000640A002057
:100C8000014800F07DBE0000E40800202DE9F04F8F
:100C900085680024099E802D18D0894DC563894D33
:100CA000456490F83450012D15D0012580F834505A
:100CB00090F83550012D10D0002180F83410022416
:100CC000002180F834102046BDE8F08F4FF4807189
:100CD00041650120F8E70220F6E7022580F835504B
:100CE0000025456505682F6847F480272F60056853
:100CF0002B6103685E608368402B03682AD099608B
:100D00000168CA60714D704E704FDFF8BC81DFF82A
:100D1000B891DFF8B8A1DFF8B4B1EA14DFF8A8E1C0
:100D20000168183630379302A9F148090AF1600AC0
:100D30000BF1180BAEF1300E4FF0006C41452DD980
:100D4000A94205D0494503D0514501D0B14205D152
:100D5000202220E09A600268D160D3E759451AD07A
:100D6000714518D0594D7835A94214D0564D3035BB
:100D7000A94210D0B9420BD0534A183A914207D039
:100D8000524A9032914203D04F4A4832914201D1A7
:100D90001A4600E062464C494C392EE0DFF82C81BF
:100DA00008F1A80841452AD9A94205D0494503D0F0
:100DB000514501D0B14201D120221CE059451AD041
:100DC000714518D0414D7835A94214D03E4D30358B
:100DD000A94210D0B9420BD03B4A183A914207D0F1
:100DE0003A4A9032914203D0374A4832914201D177
:100DF0001A4600E06246344950390A605AE0DFF88A
:100E0000CC8008F1480841452AD9A94205D0494576
:100E100003D0514501D0B14201D120221CE05945F7
:100E20001AD0714518D0294D7835A94214D0264DD5
:100E30003035A94210D0B9420BD0234A183A91421A
:100E400007D0224A9032914203D01F4A4832914241
:100E500001D11A4600E062461C491039CA6029E0F7
:100E6000A94205D0494503D0514501D0B14201D135
:100E700020221CE059451AD0714518D0134D783501
:100E8000A94214D0104D3035A94210D0B9420BD030
:100E90000D4A183A914207D00C4A9032914203D041
:100EA000094A4832914201D11A4600E06246074998
:100EB00010398A6001680A6842F001020A60FFE6A0
:100EC000418300088D83000858640240106002408E
:100ED00001681823CAB2103AB2FBF3F2054B6FF364
:100EE0000901032A9B5CC36500D9091D8165084679
:100EF00070470000D4A9000810B5014600208B6996
:100F00008A6A4FF0C07453B1B3F5005F15D072B167
:100F1000012A0CD0022A0AD0032A09D104E01AB10E
:100F2000012A06D0022A03D1C96AC90100D50120CD
:100F300010BDC96AA142FAD010BD002AF7D0012A1B
:100F4000F2D0022AF3D0032AF3D010BD30B50468E2
:100F5000256825F480252560046863608368402B3C
:100F6000036803D099600068C26030BD9A60006871
:100F7000C16030BD094A016882B091420BD1084975
:100F800009680A68D243D20605D40A684968009104
:100F900002B002F0EDBF02B0704700000010014047
:100FA000B807002001680A68D20604D5C968C906D6
:100FB00001D508F0C1BA704701680A68D20604D5A5
:100FC000C968C90601D508F0B7BA7047704708204C
:100FD00000F05CBE102000F059BE0000124800B5C1
:100FE000006887B0800514D5FF208DF818006620B2
:100FF000009000200290039001200346049006AA6E
:1010000069460A4800F050F809480A490088B4388F
:101010000880202000F03AFE07B04FF400705DF821
:1010200004EB00F033BE0000143C014094040020A7
:10103000240100203201002072B6FEE710B558B13D
:10104000084C491E0BD310F8013B5340DBB234F877
:10105000133083EA1222F4E74FF6FF7010BD1046FA
:1010600010BD000024AB000810B5054C04E000BF23
:1010700010F8013B5340E25C491EF9D2104610BD06
:1010800024AA000890F82020012A07D0022A05D0BF
:10109000416A41F480214162012070470068426941
:1010A0000A43426100207047F0B590F82050046870
:1010B000A468012D05D0022D03D0416A41F480219E
:1010C0005DE014F0406F01D1E50055D5C4F3016433
:1010D000022C03D9416A41F4000150E00125A540EA
:1010E0001D608D684FF4C0739DB1CE6835434E6866
:1010F00045EAC605066803EB0417F5514FF4C275BF
:10110000076805EB04150E697E51097D012905D09C
:1011100009E00E88CD6845EA4655EBE701684E596F
:1011200046F480764E511179D579567941EA0561B8
:1011300095792D0445EA062529434FF4C6760568BE
:1011400006EB0416A9511178D57841EA0561957826
:1011500052782D0445EA022211434FF4C475026807
:1011600005EB04155151006803EB0411425842F09D
:10117000010242500020F0BD416A41F40011416279
:101180000120F0BD10B590F82020012A07D0022AD6
:1011900005D0416A41F480214162012010BD3B48E5
:1011A000D0F8002242F00102C0F80022D0F800225C
:1011B00022F47C52C0F80022D0F800224B6A42EAA6
:1011C0000322C0F800220A7D02F01F0301229A4088
:1011D000D0F81C329343C0F81C32CB69B3B9D0F8B5
:1011E0000C329343C0F80C328C894B6864F31F4374
:1011F0004C6900EBC404C4F840320C890B6864F3FA
:101200001F434C6900EBC404C4F84432CB69012B82
:1012100016D1D0F80C321343C0F80C320C884B684E
:1012200064F31F434C6900EBC404C4F840320C89DA
:10123000CB6864F31F434C6900EBC404C4F8443228
:101240008B69002BD0F804320ED01343C0F804325F
:101250000B69002BD0F8143208D01343C0F81432B5
:10126000096A012904D008E09343EFE79343F5E7C7
:10127000D0F81C121143C0F81C12D0F8001221F053
:101280000101C0F80012002010BD00000064004001
:10129000704730B590F82040012C05D0022C03D0C7
:1012A000416A41F480215DE00468002955D0246939
:1012B000A40754D04FF4D874056804EB01142D59D9
:1012C00015F00405956005682D594ED0ED08556060
:1012D00005682C5904F00204D4604FF4DA740568F0
:1012E00004EB01142D5905F00F05156105682D5902
:1012F000C5F30725956105682C59240C54614FF4FA
:10130000DC72046802EB0112A4581C700468A45833
:10131000240A5C700468A458240C9C700468A258C9
:10132000120EDA704FF4DE72046802EB0112A45858
:101330001C710468A458240A5C710468A458240C25
:101340009C710468A258120EDA71006881B10169BB
:1013500041F020010161002030BDE468A8E7416A46
:1013600041F400114162012030BD6D0D1560AFE701
:10137000C16841F02001C160EDE72DE9F05F05464D
:10138000006800244669D0F804908768D0F80CB053
:10139000D0F810A0D0F81880F10748D0F90714D081
:1013A00001218160B80703D5284600F088FA0CE0D7
:1013B000780702D54FF4006407E0380702D54FF4F0
:1013C000805402E0284600F079FAF80516D529681D
:1013D0004FF480708860B80503D5284600F071FA94
:1013E0000CE0780502D544F4005407E0380502D536
:1013F00044F4804402E0284600F062FAF80316D56F
:1014000029684FF480308860B80303D5284600F07F
:101410005AFA0CE0780302D544F4004407E038039C
:1014200002D544F4803402E0284600F04BFA30073D
:1014300007D55FEACB6004D52968102044F4007416
:10144000C86070074FF0080707D55FEA0B7004D536
:101450002868C760284600F0A9F9B00706D52868B3
:10146000C068800702D0284600F0A2F9700607D5B0
:101470005FEACA6004D52968102044F480640861DA
:10148000B00607D55FEA0A7004D5286807612846C8
:1014900000F0E4F9F00606D528680069800702D05C
:1014A000284600F0DCF9B00308D55FEAC96005D52D
:1014B000296810204860284600F0D2F9F00307D5CB
:1014C0005FEA097004D528684760284600F0FCF9F7
:1014D000300446D55FEA497040D5F00504D55FEA8F
:1014E000C87001D044F00104B00504D55FEA8870EB
:1014F00001D544F00204700504D55FEA487001D5B7
:1015000044F00404300529D518F0700F26D008F0F7
:101510007000402815D006DC102809D020280AD0F9
:10152000302816D10AE050280ED0602811D10EE0E4
:1015300044F008040DE044F010040AE044F02004F4
:1015400007E044F0400404E044F0800401E044F487
:1015500080742868816921F0700181612968042004
:101560004860002C05D0686A204368622846FFF76F
:101570008FFEBDE8F09F70B5040003D094F8200002
:1015800010B104E0012070BD204600F081F8206811
:10159000016841F00101016000F082FC054605266A
:1015A00004E000F07DFC401B0A2811D82068406848
:1015B000C007F6D02068016821F00201016000F048
:1015C0006FFC05460BE000F06BFC401B0A2806D9B7
:1015D000606A40F40030606284F82060D2E72068DE
:1015E00040688007EFD4207E0128206801683DD044
:1015F00021F080010160607E01282068016838D0F8
:1016000021F040010160A07E01282068016833D0EC
:1016100021F020010160E07E0128206801682ED0C1
:1016200041F010010160207F01282068016829D065
:1016300021F008010160607F01282068016824D042
:1016400021F004010160D4E902010843D4E9041245
:10165000114308436168491E08432168C86100209E
:101660006062012084F82000002070BD41F08001FC
:10167000C0E741F04001C5E741F02001CAE721F091
:101680001001CFE741F00801D4E741F00401D9E7A8
:10169000F0B587B0044614216846FEF75BFF3E4B69
:1016A0003E48DFF8F0E01968D4F800C03B4A032553
:1016B0000226092710300024491CF4452AD119605C
:1016C000012907D1016841F000710160006800F054
:1016D00000700590106840F0080010601068CDE9B7
:1016E000005600F00800CDE9047069462C48CDE9A9
:1016F000024500F0D7FA00220521132000F014FE65
:10170000132000F003FE00220521142000F00CFE3F
:1017100014203AE0DFF88CE0F44538D1D0F800C06E
:101720004CF0806CC0F800C0D0F800C001290CF06B
:10173000806CCDF814C0196007D1016841F00071C8
:101740000160006800F000700590106840F0020031
:101750001060106802AB00F0020005906020CDE937
:10176000000683E8B00069460F4800F09BFA0022AB
:1017700005213F2000F0D8FD3F2000F0C7FD0022EA
:101780000521402000F0D0FD402000F0BFFD07B053
:10179000F0BD0000006400400C0000203038024022
:1017A000000C024000680040000402407047000046
:1017B00070B5054600682649264C8CB0884220D179
:1017C00002AB04AA00212846FFF763FD0498A0F2AB
:1017D0000521032915D8401EC6B2BDF8080040BA3D
:1017E00008F094FC04EB0612C2E90001BDF80A00FF
:1017F00040BA1081BDF80C0040BA50819DF80E002F
:1018000090811549286888421FD16B4602AA0021A1
:101810002846FFF73EFD0298A0F20120032814D8C5
:10182000C5B2BDF8000040BA08F070FC04EB051228
:10183000C2E90001BDF8020040BA1081BDF8040001
:1018400040BA50819DF8060090810CB070BD000038
:1018500000680040F84B002000640040704770476B
:101860007047000070B5044690F82000012804D0AD
:10187000606A40F40020606218E0022084F82000D2
:101880002068016821F00101016000F009FB0546B4
:101890000EE000BF00F004FB401B0A2808D9606A74
:1018A00040F400306062052084F82000012070BD03
:1018B00020684068C007EDD1606270BD7047704716
:1018C000704770477047704770472DE9F0410446F4
:1018D000876D00F0E5FA064694F8350000250228E9
:1018E00006D08020606584F834500120BDE8F08186
:1018F0002068016821F0160101602068416921F02B
:1019000080014161206C08B9A06C20B12068016899
:1019100021F0080101602068016821F001010160E7
:101920000CE000F0BDFA801B052807D92020606577
:10193000032084F8350084F83450D7E72068006825
:10194000C007EED194F85C103F208840B8600120B9
:1019500084F8350084F834500020C7E790F835103B
:10196000022903D08021416501207047052180F8BC
:1019700035100068016821F0010101600020704706
:101980002DE9F84304464FF00009CDF80090634874
:101990004FF41651A56D0068B0FBF1F72E6894F86E
:1019A0005C10082000FA01F131420FD021680A686A
:1019B00052070BD50A6822F004020A6094F85C1002
:1019C0008840A860606D40F00100606594F85C108C
:1019D0004FF0010808FA01F0304208D02168496947
:1019E000090604D5A860606D40F00200606594F8B7
:1019F0005C1004208840304208D0216809688907BB
:101A000004D5A860606D40F00400606594F85C1037
:101A100010208840304218D021680968090714D581
:101A2000A86020680168490304D50068000308D550
:101A3000A16C07E00168C90503D4016821F0080121
:101A40000160216C09B12046884794F85C10202081
:101A50008840304231D021680968C9062DD5A86078
:101A600094F8350005282068016806D0490347D559
:101A7000006800031DD4616C1CE021F016010160B8
:101A80002068416921F080014161206C08B9A06C97
:101A900020B12068016821F00801016094F85C1011
:101AA0003F208840A86084F8358084F83490216D08
:101AB0001FE0E16B09B120468847606D00282BD0FC
:101AC000606DC00714D0052084F8350020680168D7
:101AD00021F0010101600098401C0090B84203D839
:101AE00020680068C007F6D184F8358084F8349007
:101AF000E16C002910D001B02046BDE8F043084752
:101B00000168C905D5D4016821F01001016084F88D
:101B1000358084F83490CCE7BDE8F88320000020BD
:101B20002DE9F041044600F0BBF906465CB1022005
:101B300084F83500002584F834502068016821F0CD
:101B4000010101600DE00120BDE8F08100F0A8F97D
:101B5000801B052805D920206065032084F8350006
:101B6000F2E720680068C007F0D1226811682048B9
:101B70000140D4E901031843D4E903363343184341
:101B800063691843A3691843E3691843236A184338
:101B90000843616A042903D1D4E90B1319430843AC
:101BA000106020684069666A20F0070130460E43E5
:101BB000012704280CD1A06A0643E06A40B1204600
:101BC000FFF79AF920B14020606584F83570BAE7D4
:101BD000206846612046FFF77BF994F85C203F219E
:101BE00091408160656584F835700020ACE70000A5
:101BF0003F8010F02DE9F0410446866D90F83400E6
:101C0000002501280DD0012084F8340094F83570A7
:101C10000020012F07D084F8340002252846BDE8B3
:101C2000F0810220FBE7022784F8357060652046CA
:101C3000FFF78CF994F85C103F208840B060206872
:101C4000016841F016010160206C20B12068016834
:101C500041F0080101602068016841F00101016064
:101C6000DCE7000070B5044600F01AF90546601C78
:101C700002D004480078044400F012F9401BA0424E
:101C8000FAD370BD1400002070470000044910B55D
:101C90000A68024202D00860FFF7F6FF10BD00009C
:101CA000143C01402DE9F84FDFF8BCA100220125CA
:101CB00003264FF00F090AF1040BAAF1040E00BF2E
:101CC0000B6805FA02F42340A34270D10F7907F0A4
:101CD0000307012F01D0022F16D187684FEA42086F
:101CE00006FA08FC27EA0C07D1F80CC00CFA08FC2D
:101CF0004CEA070CC0F808C04768A7430C79C4F346
:101D0000001494403C4344600C79E443A4070AD097
:101D1000C4684FEA420C06FA0CF7BC438F6807FA16
:101D20000CF72743C7600C7904F00304022C12D18E
:101D3000D40800EB840CDCF820405707FF0E09FAAA
:101D400007F824EA0804D1F8108008FA07F848EAEE
:101D50000408CCF8208004684FEA420C06FA0CF71D
:101D6000BC430F7907F0030707FA0CF72743076016
:101D70004C6814F4403F70D03C4C276847F48047CF
:101D80002760246822F0030704F480440094384C50
:101D900007EB040CDCF8084897074FEA177809FAB4
:101DA00008F7BC43334FB84202D1002724E054E087
:101DB000314FB84201D101271EE0304FB84201D166
:101DC000022719E02E4FB84201D1032714E02D4F0E
:101DD000B84201D104270FE02B4FB84201D10527AB
:101DE0000AE02A4FB84201D1062705E0284FB84241
:101DF00001D1072700E0082707FA08F72743CCF8A6
:101E00000878DAF800405746D1F804C09C435FEAEE
:101E1000CC2C00D51C433C60DBF800405F46D1F879
:101E200004C09C435FEA8C2C00D51C433C60DEF868
:101E300000407746D1F804C09C435FEA8C3C00D553
:101E40001C433C60084F083F3C68D1F804C09C43E9
:101E50005FEACC3C00D51C433C60521C102AFFF4C6
:101E60002FAFBDE8F88F0000083C01404438024025
:101E7000003001400000024000040240000802401F
:101E8000000C024000100240001402400018024002
:101E9000001C02400AB1816170470904FBE70000A1
:101EA00001488068704700001400002070B50400ED
:101EB00025D094F83D00002520B984F83C502046F8
:101EC00000F050F9242084F83D002068016821F0DA
:101ED000010101602068016841F40041016020684F
:101EE000016821F40041016000F00AFB4D4A61687D
:101EF000914201D84C4900E04C49884201D201206E
:101F000070BD4B492368B0FBF1F15E6826F03F06D7
:101F10000E435E606368934206D94FF4967359434B
:101F20004FF47A73B1FBF3F12368491C1E6A26F063
:101F30003F06314319626168914210D84900401E42
:101F4000B0FBF1F2521CC2F30B02042A01D20420AE
:101F500022E0B0FBF1F0401CC0F30B001CE0A268D3
:101F6000F2B301EBC10303EB0116431EB3FBF6F31F
:101F70005B1C43F480431B0549D092B301EBC102C3
:101F800002EB0111401EB0FBF1F0401CC0F30B004E
:101F900040F4804040F400402168CA694CF6FF7369
:101FA0009A431043C861D4E90710014320680268CE
:101FB00022F0C00211430160D4E90301014320680B
:101FC000826848F2FF339A4311438160D4E90501E6
:101FD00008432168CA6822F0FF021043C86001E08C
:101FE0000EE016E02068016841F0010101602564FF
:101FF000202084F83D00256384F83E50002070BD09
:1020000001EB4106431EB3FBF6F35B1CB3E7012073
:10201000C2E701EB4101401EB0FBF1F0401CC0F3F0
:102020000B00B7E7A086010080841E0000093D0078
:1020300040420F002DE9FF4F83B09A46DDE911972A
:1020400093460446DDF84080FFF72AFF054694F8E2
:102050003D0020287FD119230122404920460095C8
:1020600002F04EF8002876D194F83C00012872D096
:10207000012084F83C0020680168C90703D1016889
:1020800041F0010101602068016821F400610160F4
:10209000212084F83D00402084F83E00002626647C
:1020A000C4F82480A4F82A90608D20852C48E06232
:1020B000CDE9007553465A462046049901F0A6FF23
:1020C00070B930E02A463946204602F098F858B1F7
:1020D000206C042804D12068016841F4007101607B
:1020E000012007B0BDE8F08F606A216800780861C0
:1020F000606A401C6062218D491E89B22185628D13
:10210000521E628522685369DB435B070BD469B1B9
:1021100000781061606A401C6062208D401E20853E
:10212000608D401E6085208D0028CBD12A4639461F
:10213000204601F0BFFF0028CAD154F83D0B0168CA
:1021400041F400710160202004F81E09E6776677EB
:102150000020C6E7FFE70220C3E7000002001000EE
:102160000000FFFFF0B587B0044614216846FEF773
:10217000F1F91D492068884233D11C4800240168C8
:1021800041F004010160016801F00401059101685A
:1021900041F0010101600068122500F00100059086
:1021A0004FF40070CDE9000502AA0326042782E857
:1021B000D00069460E48FFF775FDB801CDE900056E
:1021C00002AA694682E8D0000A48FFF76BFD07487B
:1021D0001030016841F400010160006800F4000063
:1021E000059007B0F0BD0000005C004030380240B0
:1021F0000008024000000240024881680278114451
:1022000081607047140000200B4810B5016841F44C
:1022100000710160016841F480610160016841F46E
:1022200080710160032000F09FF80F2000F006F895
:1022300000F050F8002010BD003C024030B50546CB
:102240001F4887B00024016841F002010160006866
:1022500006A900F00200009001A800F031F90498EE
:10226000A8B100F04DF940001649174AB0FBF1F152
:102270001648491E026040F2E732C0E90324C0E973
:102280000114846101F012F8040003D015E000F09D
:1022900037F9E9E70D4801F09FF804000DD11D2042
:1022A00000F034F8102D07D2002229461D2000F03E
:1022B0003BF80748056000E0012407B0204630BD28
:1022C0004038024040420F0000040040C40A002091
:1022D000180000200C4882B0016841F48041016080
:1022E000006800F4804000900748001F016841F03A
:1022F000805101600068002200F0805000900F21A2
:10230000901E02B000F010B844380240002809DBEB
:1023100000F01F02012191404009800000F1E020FF
:10232000C0F8001170470000F0B40E4B1B680C465B
:10233000C3F30223C3F10705042D00D90425191D99
:10234000072901D2002300E0DB1E012606FA05F171
:10235000491E214099409E40761E16403143F0BCF4
:1023600003F096BD0CED00E0064900F00702086896
:102370004FF6FF03184040EA0220034A104308606A
:10238000704700000CED00E00000FA052DE9F04771
:102390000E46050065D0DFF81481D8F80000F7B2CA
:1023A00000F00700B04207D288F80070D8F80000AB
:1023B00000F00700B04254D128683D4C810712D587
:1023C000400703D5206840F4E050206028780007DB
:1023D00003D5206840F4604020602068A96820F0A0
:1023E000F000084320602878C0072DD03049686885
:1023F0000839012812D0022813D0032811D0096807
:10240000890700292DDA216821F0030101432160A9
:10241000FFF746FD814641F2883A0EE009688903DC
:10242000EFE709688901ECE7FFF73AFDA0EB090146
:10243000514502D90320BDE8F0872068696800F0A3
:102440000C00B0EB810FEFD1D8F80010404601F03E
:102450000701B14207D90770006800F00700B042D9
:1024600001D00120E7E72878400705D52068E96812
:1024700020F4E050084320602878000706D5206843
:10248000296920F4604040EAC100206000F058F85B
:102490002168084AC1F30311515CC840064908602D
:1024A00006480068FFF7CAFE0020C4E7003C02406F
:1024B00008380240DCA90008200000201800002095
:1024C0000F2202600C4A136803F003034360136891
:1024D00003F0F0038360136803F4E053C3601268F1
:1024E0004FF4E05303EAD20202610448006800F0AE
:1024F000070008607047000008380240003C0240B6
:102500000448054900680968044AC1F38221515C06
:10251000C84070472000002008380240ECA900089D
:102520000448054900680968044AC1F34231515C16
:10253000C84070472000002008380240ECA900087D
:10254000154810B5006810F00C02144813D0144957
:10255000042A0FD0082A0ED10F4C241F22682368AA
:1025600002F03F025B0207D52068C0F38810A0FB91
:10257000010106E0084610BD2168C1F38811A1FBE6
:1025800000010023FDF7F0FE2168C1F30141491C61
:102590004900B0FBF1F010BD083802400024F400FF
:1025A000001BB7002DE9F84F04006ED02078DFF84B
:1025B0004C93C007A9F104054AD009F10400016851
:1025C000C1F38101012908D00068C0F3810002280D
:1025D0000AD1D9F80000400206D52868800337D513
:1025E00060680028E1D033E06068B0F5803F10D02B
:1025F000B0F5A02F286810D020F48030286028681B
:1026000020F4802028606068A8B1FFF749FC0646E6
:102610000DE0286840F48030F4E740F48020286022
:10262000F7E700BFFFF73CFC801B642873D82868DD
:102630008003F7D50CE0FFF733FC064605E000BF4A
:10264000FFF72EFC801B6428F0D828688003F7D49D
:102650002078DFF8AC8280074FF0000A3ED5A7480B
:10266000001D016811F00C0F08D00068C0F3810054
:1026700002280BD1D9F80000400207D4286880074F
:1026800016D5E068012800D112E033E1E068B8B166
:102690000120C8F80000FFF703FC064605E000BF74
:1026A000FFF7FEFB801B0228C0D828688007F7D5FB
:1026B0002868216920F0F80040EAC10028600DE098
:1026C000C8F800A0FFF7ECFB064604E0FFF7E8FBC4
:1026D000801B02281FD828688007F7D420780007BD
:1026E00022D5864F87486169703771B10121016039
:1026F000FFF7D6FB064604E0FFF7D2FB801B02285B
:1027000009D838688007F7D50EE0C0F800A0FFF7B9
:10271000C7FB064605E082E0FFF7C2FB801B0228EC
:102720007DD838688007F7D42078400768D5DFF86F
:10273000CCB100270BF13C0BDBF80000C0000BD440
:10274000DBF8001041F08051CBF80010DBF80000FE
:10275000012700F0805000906B4E3068C00510D407
:10276000306840F480703060FFF79AFB009005E01D
:10277000FFF796FB0099401A022850D83068C00530
:10278000F6D55E4EA0686C3601280FD0052830685B
:1027900010D020F001003060306820F0040030607C
:1027A000A068B8B1FFF77CFB00900FE0306840F004
:1027B0000100F4E740F004003060F7E7FFF770FB3A
:1027C0000099411A41F28830814266D8306880070A
:1027D000F4D50EE0FFF764FB009007E0FFF760FB25
:1027E0000099411A41F28830814256D830688007FA
:1027F000F4D42FB1DBF8001021F08051CBF8001099
:10280000A069C8B33D49091D0968C1F381010229C6
:102810004AD00228504607D0C8F8600000E03CE0EB
:10282000FFF73EFB04463BE04746C8F86000FFF771
:1028300037FB064605E000BFFFF732FB801B02288E
:102840002BD828688001F7D4D4E907010843A16A8E
:102850002E4A490802EB0141626A41EA82110843AB
:1028600094F82C1040EA0161C9F800100120386684
:10287000FFF716FB044606E03EE000BFFFF710FB43
:10288000001B022809D828688001F7D534E000BF72
:10289000FFF706FB001B022802D90320BDE8F88FD2
:1028A00028688001F4D427E00128F7D0D9F8000087
:1028B000E26900F4800191421CD1226A00F03F01DC
:1028C000914217D147F6C071626A0140B1EB821F95
:1028D00010D1A26A4FF0FF3300F4403103EB5202F3
:1028E000B1EB024F06D194F82C1000F07060B0EB01
:1028F000016F01D00120D1E70020CFE7043802406A
:1029000000004742800E4742007000400000FFFF79
:10291000704790F85100704738B5016804464A681E
:102920008868C043430606D5C30704D1D3435B067A
:1029300001D4216C05E0830708D4D3431B0605D4DA
:10294000616C01B02046BDE830400847830603D5DE
:10295000430601D5C30551D4D3439B064ED4430649
:102960000AD494F85130032B49D0636D43F004032B
:102970006365CB688B680093830609D4636D43F06D
:10298000010363658B6800930B6823F040030B60C1
:10299000C00506D4606D40F008006065206880685E
:1029A0000090606D002829D02068416821F0E00186
:1029B0004160012084F85100900701D4D00722D053
:1029C0002068416821F003014160114DE06C40B185
:1029D0000565E06CFEF7C2FF18B1606D40F0400085
:1029E0006065A06C002809D00565A06CFEF7B6FFF5
:1029F000002803D0606D40F04000606538BDC868B5
:102A00008868009038BD2046FFF782FF38BD00007F
:102A10008D4F000870B5040009D0606A002540B1F0
:102A200025616561A56294F8510040B10CE0012078
:102A300070BD6068B0F5827FF4D0E561F2E784F89C
:102A40005050204600F044F8022084F851002068DD
:102A5000016821F040010160A088218900F48270A2
:102A600001F404410843A18901F400610843217C79
:102A700001F002010843217D01F001010843218B8F
:102A800001F400710843217F01F03801084394F8F4
:102A9000201001F080010843218D01F4005108430A
:102AA00021680860A069042101EA104094F824100C
:102AB00001F010010843216848602068C16921F4D1
:102AC0000061C1616565012084F85100002070BD7E
:102AD0002DE9F04186B0064614216846FDF73AFD1F
:102AE0003849306888426AD137480024016841F487
:102AF00080510160006800F480500590324814381D
:102B0000016841F002010160016801F002010591D4
:102B1000016841F0010101600068022500F0010038
:102B200005901820CDE9000502AA03274FF00508FB
:102B300082E8900169462548FFF7B4F88020CDE986
:102B4000000502AA694682E890012148FFF7AAF829
:102B5000214D20487F062860C5E901744FF4806844
:102B6000C5E903486C61AC61EC612C6228466C627B
:102B7000FEF7D6FF08B1FEF75FFAF564AE63164DB7
:102B8000144860354830E5E802074020A5E8110107
:102B9000114845F814496030AC61EC612C626C62FC
:102BA000FEF7BEFF08B1FEF747FAB5640022052123
:102BB0002320AE63FFF7B8FB2320FFF7A7FB06B087
:102BC000BDE8F0810030014044380240000402407A
:102BD0000000024010640240900500202DE9F84FEB
:102BE000044640680025984616460F464FF0040BF1
:102BF000B0F5827F01D1A06888B194F85000012817
:102C000018D0012084F85000FFF74AF9814694F863
:102C100051004FF0000A01280ED0022582E084F80E
:102C200051B013460A462046CDF8008000F000F966
:102C3000BDE8F88F0220FBE7002F72D0002E70D085
:102C400084F851B0C4F854A0A763A687E687C4F8F7
:102C500030A0A4F834A0A4F836A0C4F840A0C4F86A
:102C600044A0A068B0F5004F09D12068016821F0A8
:102C7000400101602068016821F480410160206802
:102C80000168490603D4016841F040010160E06831
:102C9000D8B139E020688168C90709D0007BA16BF1
:102CA0000870A06B401CA063E08F401EE0870CE022
:102CB000FFF7F6F8A0EB0901414503D3B8F1FF3F58
:102CC00003D036E0B8F1000F33D0E08F0028E1D117
:102CD0001DE020688168C90709D0C068A16B088021
:102CE000A06B801CA063E08F401EE0870CE0FFF724
:102CF000D7F8A0EB0901414503D3B8F1FF3F03D05A
:102D000017E0B8F1000F14D0E08F0028E1D14A4657
:102D10004146204602F0F6F908B120206065606D5A
:102D200000B10125012084F8510084F850A0284604
:102D30007EE70325F6E700002DE9F0410446002672
:102D40008068042318B96568B5F5827F0ED094F8C1
:102D50005050012D13D0012784F8507094F851C0C1
:102D60000025BCF1010F0DD0022654E084F851304B
:102D70002046BDE8F04113460A4600F04BB9022058
:102D8000BDE8F08171B16AB184F851306565A16325
:102D9000A287E28725646564A586E586B0F5004FC5
:102DA00002D00BE0012636E02068016821F04001E6
:102DB00001602068016821F480410160E16C1848DD
:102DC0000864E16C1748C863E16C1748C864E06C9C
:102DD0000565E38F2168A26B0C31E06CFEF70AFFFA
:102DE00038B1606D40F010006065012684F85170C4
:102DF00011E020680168490603D4016841F04001F0
:102E000001602068416841F020014160206841680C
:102E100041F00101416084F850503046B0E70000B5
:102E2000BF4F0008DD4F00089D4F000870477047F6
:102E30002DE9F84F044690F8500000270A9E1D46E1
:102E400092468B464FF0010901280ED0012084F8EC
:102E50005000FFF725F8804694F85100616801287A
:102E60000CD0B1F5827F07D102E00220BDE8F88FD7
:102E7000A16809B9042801D00227C2E0BBF1000F04
:102E800027D0BAF1000F24D01DB394F851000428C4
:102E900002D0052084F8510000206065C4F838A0F5
:102EA000E587A587C4F830B0E586A5862064606410
:102EB00020680168490603D4016841F040010160BF
:102EC000E068B0F5006F606805D0E8B3012D46D02A
:102ED0007FE0012795E008B1012D39D1206B2168F1
:102EE0000088C860206B801C2063E08E401EE08656
:102EF0002EE02068816889070FD5E18E69B1B9F1AC
:102F0000010F0AD1216B0988C160206B801C2063EE
:102F1000E08E401EE0864FF0000920688168C907F6
:102F20000CD0E18F51B1C068A16B0880A06B801CF0
:102F3000A063E08F401EE0874FF00109FEF7B0FF6D
:102F4000A0EB0800B04200E009E001D3701C50D1B2
:102F5000E08E0028CDD1E08F0028CAD13FE0206B61
:102F6000216800780873206B401C2063E08E401EAF
:102F7000E0862EE02068816889070FD5E18E69B16F
:102F8000B9F1010F0AD1216B09780173206B401C44
:102F90002063E08E401EE0864FF0000920688168C3
:102FA000C9070CD0E18F51B1C068A16B0870A06B4C
:102FB000401CA063E08F401EE0874FF00109FEF740
:102FC0006FFFA0EB0800B04202D3701C01D010E0EC
:102FD0007EB1E08E0028CDD1E08F0028CAD14246D4
:102FE0003146204602F0BCF828B101272020606558
:102FF00007E0032705E0A06818B92068C168806869
:103000000090012084F85100002084F850003846D8
:103010002CE700002DE9F041044690F8500000260E
:1030200001280DD0012784F8507094F85100002534
:10303000D4F804C001280FD0BCF5827F0AD102E089
:103040000220BDE8F081D4F808C0BCF1000F01D126
:10305000042801D0022660E049B342B33BB394F8A0
:103060005100042802D0052084F8510065652163D1
:10307000A386E386A263A387E3872564656494F847
:103080005100042815D0E16C264808642648E16CFC
:10309000C863E16C2548C864E06C0565E38F21686E
:1030A000A26B0C31E06CFEF7A5FDE0B906E001264D
:1030B00033E0E16C1E4808641E48E8E72068416878
:1030C00041F001014160A06C0564A06CC563A06C77
:1030D000C564A06C0565E38E2268216B0C32A06C80
:1030E000FEF788FD38B1606D40F010006065012684
:1030F00084F8517011E020680168490603D4016822
:1031000041F0400101602068416841F020014160C8
:103110002068416841F00201416084F85050304617
:103120008FE70000D34F0008AB5000089D4F000808
:10313000BF4F0008DD4F00082DE9F041044690F82C
:1031400050000026012809D0012784F8507094F817
:1031500051000025012804D002264EE00220BDE8DF
:10316000F08189B182B1032084F851006565216343
:10317000A286E286A56365642564A587E587A068C5
:10318000B0F5004F02D00BE0012636E02068016860
:1031900021F0400101602068016841F48041016034
:1031A000A16C18480864A16C1748C863A16C174843
:1031B000C864A06C0565E38E2268216B0C32A06C9C
:1031C000FEF718FD38B1606D40F010006065012613
:1031D00084F8517011E020680168490603D4016841
:1031E00041F0400101602068416841F020014160E8
:1031F0002068416841F00201416084F85050304637
:10320000ADE70000C94F0008475000089D4F000877
:1032100070477047704770477047704770B590F8B7
:103220003C20012A32D0012480F83C40022280F860
:103230003D2003685A689D6822F070060A68324390
:103240005A60134B02689A4214D0B2F1804F11D0E9
:10325000104B9A420ED0104B9A420BD00F4B9A4211
:1032600008D00F4B9A4205D00E4B9A4202D00E4B1B
:103270009A4204D1496825F080031943916080F88F
:103280003D40002180F83C10084670BD022070BD12
:10329000000001400004004000080040000C004015
:1032A00000040140004001400018004010B5040037
:1032B00003D094F83D0010B107E0012010BD0020BC
:1032C00084F83C00204600F01FF8022084F83D00FE
:1032D000211D206802F092F8012084F8460084F84D
:1032E0003E0084F83F0084F8400084F8410084F8F0
:1032F000420084F8430084F8440084F8450084F8D0
:103300003D00002010BD000008B52E4A01682E487F
:10331000914207D1016841F001010160006800F0AD
:10332000010037E0B1F1804F19D0284A914227D1EE
:10333000016841F0020101600068002200F0020013
:10334000009005212B20FEF7EFFF2B20FEF7DEFF7C
:10335000002205212C20FEF7E7FF2C2021E01A484F
:10336000001F016841F0010101600068002200F0C7
:103370000100009005211C20FEF7D6FF1C2010E064
:10338000134A914211D1016841F480310160006813
:1033900000F480300090002205211820FEF7C4FFC1
:1033A0001820BDE80840FEF7B1BF0A4A914207D194
:1033B000016841F400310160006800F400300090C1
:1033C00008BD0000000001404438024000040140F4
:1033D000004001400044014090F83D10012901D017
:1033E00001207047022180F83D100168CA6842F050
:1033F0000102CA6000681149884214D0B0F1804FC0
:1034000011D00F4988420ED00E4988420BD00E4988
:10341000884208D00D49884205D00D49884202D023
:103420000C49884204D1816801F00701062903D0C4
:10343000016841F001010160002070470000014077
:103440000004004000080040000C0040000401405F
:1034500000400140001800400168CA6822F00102E3
:10346000CA6001680A6A41F211131A4207D10A6A56
:103470009B101A4203D10A6822F001020A6001215E
:1034800080F83D100020704770B5044690F83C006D
:103490000025012817D0012684F83C60022084F81A
:1034A0003D002068826822F0770222F47F42826029
:1034B0000868502838D00DDC20284FD005DC90B3A8
:1034C000102811D14AE0022070BD302846D0402893
:1034D0000AD13BE060282FD070280DD0B0F5805F76
:1034E00003D0B0F5005F12D0012584F83D600020C4
:1034F00084F83C00284670BDCB68D1E901212068E2
:1035000001F0EDFF2068816841F0770109E0CB68A8
:10351000D1E90121206801F0E2FF2068816841F4CF
:1035200080418160E1E719E0CA684968206802F0DB
:10353000ABF85021206806E0CA684968206802F0AC
:10354000B4F86021206801F0D4FFCEE7CA6849686A
:10355000206802F099F840212068F4E722680146CB
:103560001046F0E7704770B50446006801694FF0F7
:103570000005C943890715D4C168C943890711D417
:10358000E91E0161012020772068806980072046BC
:1035900002D0FFF7E7FF04E000F0C2F8204600F099
:1035A00054F9257720680169C943490717D4C168D0
:1035B000C943490713D46FF0040101610220207749
:1035C0002068806910F4407F204602D0FFF7CAFFD0
:1035D00004E000F0A5F8204600F037F925772068D0
:1035E0000169C943090716D4C168C943090712D440
:1035F0006FF008010161042020772068C06980070E
:10360000204602D0FFF7AEFF04E000F089F8204624
:1036100000F01BF9257720680169C943C90617D452
:10362000C168C943C90613D46FF0100101610820B5
:1036300020772068C06910F4407F204602D0FFF751
:1036400091FF04E000F06CF8204600F0FEF82577CA
:1036500020680169C943C90708D1C168C943C907BE
:1036600004D1891E0161204600F054F920680169E7
:10367000C943090609D4C168C943090605D46FF0D6
:10368000800101612046FFF7C7FD20680169C94339
:10369000490609D4C168C943490605D46FF0400101
:1036A0000161204600F040F920680169C94389069C
:1036B0000BD4C168C943890607D46FF020010161AA
:1036C0002046BDE87040FFF7A8BD70BD10B586B0BC
:1036D000044614216846FCF73DFF0E4920688842E5
:1036E00015D10D48016841F02001016000680121F9
:1036F00000F020000590402000900220CDE901015B
:1037000003900320049069460448FEF7CBFA06B004
:1037100010BD000000440140303802400014024057
:10372000704770B5044690F83C0000260D4601280D
:103730000FD0012084F83C006AB1042A1DD0082A69
:103740002FD00C2A3FD00126002084F83C003046C0
:1037500070BD022070BD206801F0D4FE2068816930
:1037600041F0080181612068816921F004018161D3
:10377000206881692A69114311E0206801F0F2FE96
:103780002068816941F4006181612068816921F4C8
:1037900080618161206881692A6941EA0221816131
:1037A000D2E7206801F014FF2068C16941F00801E8
:1037B000C1612068C16921F00401C1612068C1694B
:1037C0002A69114311E0206801F036FF2068C169C1
:1037D00041F40061C1612068C16921F48061C16167
:1037E0002068C1692A6941EA0221C161ACE710B5CC
:1037F000040003D094F83D0010B107E0012010BD93
:10380000002084F83C00204600F01EF8022084F8D6
:103810003D00211D206801F0F1FD012084F84600E3
:1038200084F83E0084F83F0084F8400084F84100AA
:1038300084F8420084F8430084F8440084F845008A
:1038400084F83D00002010BD7047704710B5044655
:10385000022249B104290ED0082913D094F841005E
:10386000012816D0012010BD94F83E000128F9D19E
:1038700084F83E200FE094F83F000128F2D184F84C
:103880003F2008E094F840000128EBD184F8402064
:1038900001E084F841200122206801F013FE16495E
:1038A0002068164A884201D0904203D1436C43F409
:1038B000004343642068884213D0B0F1804F10D099
:1038C0000F4988420DD00F4988420AD00E498842DC
:1038D00007D0904205D00D49884202D00C49884259
:1038E00004D1816801F00701062903D0016841F085
:1038F00001010160002010BD0000014000040140F2
:103900000004004000080040000C0040004001405E
:103910000018004000680349884201D1FEF76CBCE2
:1039200070470000000400407047704710B504461F
:103930000068406994F83D10C0F3C010212911D1EE
:1039400080B12068143050E8001F21F0800140E869
:103950000012002AF5D1606B08B1FDF7B6FF2046D2
:1039600001F057FF2068406994F83E10C0F38010C2
:10397000222911D180B12068143050E8001F21F0B5
:10398000400140E80012002AF5D1A06B08B1FDF714
:103990009CFF204601F016FF002010BD704700007C
:1039A000F8B5016804460868CA684B6910F00F0F43
:1039B0004FF0000559D003F0010602F49077374329
:1039C00065D0C10705D0D10503D5216C41F00101B7
:1039D0002164410705D5D90703D0216C41F00201CC
:1039E0002164810705D5D90703D0216C41F004017A
:1039F0002164010707D502F02001314303D0216C77
:103A000041F008012164216C00293AD0800604D5D8
:103A1000900602D5204601F00AFF20684069216C1B
:103A2000C0F38010090700D460B3204601F0CAFE3D
:103A300020684069400621D52068143050E8001FF6
:103A400021F0400140E80012002AF5D1A06BA8B196
:103A50006C490165A06BFDF781FF002811D0A06BB8
:103A6000016D01B0BDE8F040084783060FD593060D
:103A70000DD52046BDE8F84001F0D9BE2046FFF73D
:103A80008DFFF8BD2046FFF789FF2564F8BD266B42
:103A90002023012E79D1C60677D5D60675D50868BC
:103AA000486800904869400640D5A16B08684068A6
:103AB0000004000CEAD0A28D8242E7D9E085C869F3
:103AC000B0F5807F2DD020680C3050E8001F21F425
:103AD000807140E80012002AF5D12068143050E8C7
:103AE000001F21F0010140E80012002AF5D12068F2
:103AF000143050E8001F21F0400140E80012002A75
:103B0000F5D184F83E30256320680C3050E8001F62
:103B100021F0100140E80012002AF5D1A06BFDF75A
:103B2000D4FEA08DE18D401A81B229E0A08DE18DF7
:103B3000401A81B2E08D0028A8D00029A6D02068C4
:103B40000C3050E8002F22F4907240E80026002E3E
:103B5000F5D12068143050E8002F22F0010240E82F
:103B60000026002EF5D184F83E30256320680C3005
:103B700050E8002F22F0100240E80023002BF5D17E
:103B80002046FFF7D2FEF8BDFFE705062BD5150648
:103B900029D594F83D002128F5D1A068B0F5805FC3
:103BA00001D12069B0B1206A411C216221680078EE
:103BB0004860E08C401E0004000CE084E3D12068E3
:103BC000C16821F08001C1602068C16841F04001F6
:103BD000C160D8E7206A0088C0F308004860206A06
:103BE000801C2062E5E74006CDD55006CBD5CA68DB
:103BF000204622F04002CA6084F83D3000F0EDF922
:103C0000C1E70000CF56000870B5040004D094F856
:103C10003D00002510B106E0012070BD84F83C5045
:103C2000204600F023F8242084F83D002068C16875
:103C300021F40051C160204601F05AFE206801695C
:103C400021F4904101612068416921F02A0141611C
:103C50002068C16841F40051C1602564202084F8C7
:103C60003D0084F83E00002070BD00002DE9F04FBB
:103C700087B0044614216846FCF76CFCA648DFF8C0
:103C8000948214380322D4F800C0A34B02211704F5
:103C9000002506154FF0070E4FF04009C4456FD1BF
:103CA000D3F800C04CF0100CC3F800C01B6803F040
:103CB00010030593036843F002030360036803F0F5
:103CC00002030593036843F00103036000688A461A
:103CD00000F0010005908020CDE9000ACDE90252F4
:103CE0009346F0466946CDF810E08C48FDF7DAFFC0
:103CF0007010CDE9000ACDE9025B6946CDF810806D
:103D00008748FDF7CFFFDFF820B2864958464FF0CD
:103D1000006802C00915E0E802858E10E0E8035152
:103D2000BA4640F8045C80E860045846CBF824505A
:103D3000FDF7F6FE08B1FDF77FF97B4F7948C4F82F
:103D400038B060377830CBF8384087E80103001589
:103D5000C7E9035007F118007D6180E86004384628
:103D60007D62FDF7DDFE08B1FDF766F967630022AD
:103D700005212520BC63FEF7D7FA252062E0FFE786
:103D8000DFF8A881C44562D1634BAA461B1FD3F854
:103D900000C04CF4802CC3F800C01B6803F48023DF
:103DA0000593036843F004030360006800F0040017
:103DB00005904FF440608DE82300CDE9032E69465D
:103DC0005B48FDF76FFFDFF860815A4908F1C008D2
:103DD0004046C8F800104FF0006BC0E901B5C0E9DB
:103DE0000356C8F820708915C8F81450C8E9065160
:103DF000C8F82450FDF794FE08B1FDF71DF94E4DAB
:103E0000C4F838804B48C8F838403030C5F80890BE
:103E1000C5E9000BC5E903A6C5F814A0C5F818A0AC
:103E2000C5E907A72846C5F824A0FDF779FE08B123
:103E3000FDF702F96563002205212720AC63FEF738
:103E400073FA2720FEF762FA07B0BDE8F08FDFF8BB
:103E5000EC80C445F8D1D3F800C04CF0200CC3F876
:103E600000C01B6803F020030593036843F0400380
:103E70000360006800F0400005904FF48440CDE9F5
:103E800000010120CDE902020820049069462C4877
:103E9000FDF708FFDFF8A080224908F16008183913
:103EA00040464FF0206AC8F80010C0E901A5C0E9FB
:103EB0000356C8F81450C8F81850C8E90757C8F88E
:103EC0002450FDF72DFE08B1FDF7B6F81A4FC4F8DF
:103ED0003880C037C8F83840C7F80890C7E903569B
:103EE00010487D616030BD61C7E9000A4FF4803041
:103EF000C7E9075038467D62FDF712FE08B1FDF7AD
:103F00009BF86763002205214720BC63FEF70CFA8B
:103F1000472097E700100140443802400004024067
:103F20000000024040640240840800200048004035
:103F30000008024028600240A4090020001401404B
:103F40000018024090F83E30202B0ED159B152B1EA
:103F500090F83C30012B08D0012380F83C3000233E
:103F6000036301F04BBD0120704702207047000041
:103F700010B500681349884222D11348FFF7D6FCD8
:103F80001148806B006840681049C0F1800088705B
:103F90000F480B7802789A4212D1427849788A42C7
:103FA0000ED10C4950F82F2F0A6042684A60806891
:103FB0008860BDE81040802205490348FFF7C2BF72
:103FC00010BD000000100140B8070020880100204B
:103FD000C00100202C4D002070477047FEE70168AB
:103FE0004A69D24352050FD46FF480624A610021BE
:103FF00040F8301F202242738173026942F00402AC
:104000000261017301207047002070472DE9F843D9
:10401000044600680D46DDE9089701689846164693
:1040200041F4807101604B4600224FF0011120469F
:10403000009700F065F848B120680068C00502D517
:104040004FF4007020640320BDE8F883216805F078
:10405000FE0008613B464A461549204600F084F8B8
:1040600088B920684169806900903A4649462046EF
:1040700000F0C5F848B1206C042804D1206801681C
:1040800041F4007101600120DEE7F5B2B8F1010FE3
:1040900009D02168300A08613A464946204600F0B6
:1040A000AEF80028E7D1206805610020CCE70000C9
:1040B0000200010070B516460D4604460DE020468C
:1040C000FFF78DFF08B1012070BD681C05D0FDF71A
:1040D000E7FE801BA84207D835B120684069C0437D
:1040E0004007ECD4002070BD002044F8300F2021A0
:1040F0006173A073216941F0200121612073E2E71F
:104100002DE9F0471E4690460D460446C1F3074789
:10411000DDF8209008E0701C06D0FDF7C1FEA0EB92
:104120000900B0420FD876B12068012F18D08069FD
:1041300025EA00000004000C14D000214145EAD01B
:104140000020BDE8F087002044F8300F2021617383
:10415000A073216941F02001216120730120F0E763
:104160004069E5E70121E9E72DE9F0479A469146E4
:104170000E46044600254FF02008C1F3074725E00E
:1041800020684069C043400514D42068016841F4A8
:104190000071016021686FF480604861256384F8D4
:1041A0003D8084F83E50206C40F00400206484F888
:1041B0003C501FE0B9F1FF3F08D0FDF771FEA0EBC6
:1041C0000A0149450CD8B9F1000F09D02068012F28
:1041D00013D0806926EA00000004000C0BD0CFE762
:1041E00044F8305F84F80D80A573206940F020000A
:1041F000206125730120BDE8F0874069EAE770B5CA
:1042000016460D4604460DE02046FFF7E8FE08B1CD
:10421000012070BD681C05D0FDF742FE801BA8423E
:1042200007D835B120684069C0430006ECD40020AF
:1042300070BD002044F8300F20216173A073216904
:1042400041F0200121612073E2E700002DE9F047F1
:10425000384C00252DED088B04F1240904F12808C1
:1042600004F1180640F6B8379FED33BB4A46414685
:104270003046FCF72FFB94ED0A0A79EE809A94ED14
:104280000B0A3AEE00AA94ED0C0A7AEE80AA94ED9D
:10429000060A78EE808A94ED070A39EE009A94EDCA
:1042A000080A38EE000A10EE100A06F075FA53EC10
:1042B0001B2B06F087F905F09DFC08EE100ABD42A5
:1042C00033D100EE105AB8EEC00AC9EE800A00EEF3
:1042D000105AB8EEC00AC4ED030ACAEE000A00EE96
:1042E000105AB8EEC00AC4ED040ACAEE800A00EE05
:1042F000105AB8EEC00AC4ED050AC8EE800A00EEF6
:10430000105AB8EEC00AC4ED000AC9EE000A00EE69
:10431000105AB8EEC00AC4ED010AC8EE000AC4ED96
:10432000020ABDEC088BBDE8F0876D1CBD429DDD27
:10433000F7E700004448002014AE47E17A94234098
:1043400086B0072004F038FAFCF7AAF9FCF744FA23
:1043500004F07AF9FFF77AFF6148FCF791F941F22E
:10436000301000905E4841F294135E4A00214838B4
:1043700004F05FFB5A4A2432111DA1F110008DE8B0
:104380000700FCF7A7FADDE9001004F0A9F8544C87
:10439000554E04F11C000490103003900C3804F1C9
:1043A000500504F1300B04F13C0A04F1380904F122
:1043B000340804F1400705909DE80700FCF78AFAED
:1043C00094ED090A04F0CEF8DDE9001004F088F855
:1043D000306B58B994ED060A85ED000A94ED070A92
:1043E00085ED010A94ED080A85ED020A95ED000AB3
:1043F000D6ED0B0A96ED041A60EE201A31EE200A73
:1044000081EE802AD4ED061A61EE811AC1EE802A6F
:1044100072EE221AC5ED001A95ED012A62EE202AED
:1044200082EE802AD4ED072A62EE812A82EE803A5B
:1044300032EE032A85ED012AD5ED022A62EEA02A8A
:10444000C2EE800AD4ED082A22EE811AC1EE002ABB
:1044500030EEA20A85ED020AC4ED061A84ED072AA1
:1044600084ED080ADDE9001000F012F9DDE903012E
:1044700000F00EF95846059900F00AF904F12801F8
:10448000384691EC030A1039D1EC031A00F084FC91
:1044900053464A464146384603F0A8FFD4ED0A0A7F
:1044A00094ED0D0AFCF7A8FBD4ED0B0A94ED0E0A6F
:1044B000FCF7A2FBD4ED0C0A94ED0F0AFCF79CFB71
:1044C000306B401C306394ED0D0A002086ED0F0A1E
:1044D00005F094F8B063012004F06EF96CE7000079
:1044E00044480020F4A900088C0000202DE9F04782
:1044F0000E4607460025DFF89491C0E0785DA528B8
:1045000073D178190446052101F084FC00286CD091
:104510006078A17840EA012805EB08000930B04234
:1045200046D8204608F1090101F056FC00285CD06D
:104530006079A17940EA012040F20221A0F2022232
:10454000884261D018DCB0F5817F40D00ADC0128B8
:104550001BD0032820D005282BD0A0F5807001386F
:1045600022D12DE0B0F5827F38D0A0F580700538DB
:104570003CD0FC2818D140E0092A15D2DFE802F02F
:10458000144B525960676E7577000B2080460246C7
:104590003E48E11D8F3805E02020804602463B481A
:1045A000E11D8338FBF757FF05EB08000930C5B262
:1045B00065E00D20804602463448E11D6338F1E78E
:1045C0000420804602463148E11D5638EAE70420BF
:1045D000804602462D48E11D5238E3E7022080461E
:1045E00002462A48E11D4E38DCE746E001208046BD
:1045F00002462648E11D4C38D4E71B20804602467F
:104600002248E11D4B38CDE71020804602461F4866
:10461000E11D3038C6E71020804602461B48E11DE8
:104620002038BFE70120804602461848E11D1038B7
:10463000B8E70120804602461448E11D0F38B1E773
:104640000120804602461148E11D0E38AAE70720E6
:10465000804602460D48E11D0D38A3E7062080463E
:1046600002460A48E11D801F9CE7042000E0062066
:1046700080460246E11D484694E76D1CEDB2B54206
:10468000FFF43CAFBDE8F04701F03CBB0C4D00200F
:1046900091ED000ADFED2F0A2F4A90ED001A70EE1F
:1046A000600AD2ED041A02F1400041EE210AC1ED88
:1046B000000AD0ED030AD2ED041A92ED011AD0EDF2
:1046C000012A90ED022A00EEA11A31EE621A72EE72
:1046D000E02A31EE423A90ED001A32EE602A03EE03
:1046E000211A80ED001AC0ED012A80ED022AD2EDD8
:1046F000022A42EEA10AC0ED030AD2ED030A71EECE
:10470000201AC1EE210A82EE211AD1ED001A30EEF4
:10471000610A40EE801AB7EE000A30EE600AC1ED81
:10472000001AD0ED001A61EE800AC0ED000AD0ED4B
:10473000011A21EE800A80ED010AD0ED021A40EE46
:10474000C11AC0ED021AD0ED030A40EE410AC0EDD5
:10475000030A704717B751398C0000200F4810B575
:104760000D4901600321416000214FF41022816056
:10477000C0E903124FF4001242610176417681765E
:10478000C17601774177FCF7F6FE002803D0BDE83B
:104790001040FCF751BC10BD0064004094040020A0
:1047A0000F4810B50D4901600321416000214FF40D
:1047B00010228160C0E903124FF4001242610176B9
:1047C00041768176C17601774177FCF7D4FE0028E7
:1047D00003D0BDE81040FCF72FBC10BD00680040BE
:1047E000BC040020294808B5016841F4800101603B
:1047F000016801F480010091016841F40011016039
:104800000068002200F40010009005210C20FDF744
:104810008BFD0C20FDF77AFD002205210E20FDF70F
:1048200083FD0E20FDF772FD002205213820FDF7E3
:104830007BFD3820FDF76AFD002205213920FDF7B8
:1048400073FD3920FDF762FD002205213A20FDF7B6
:104850006BFD3A20FDF75AFD002205213B20FDF7B4
:1048600063FD3B20FDF752FD002205214520FDF7A9
:104870005BFD4520FDF74AFD002205214620FDF79E
:1048800053FDBDE808404620FDF740BD30380240EA
:1048900010B596B01C2211496846FBF721FE002195
:1048A000684603F095FF0E4C0C491C22A0601C3199
:1048B00007A8FBF715FE002107A803F089FF0749A9
:1048C00020601C2238310EA8FBF70AFE00210EA83A
:1048D00003F07EFF606016B010BD000080A90008E4
:1048E000000000202DE9F04786B014216846FBF750
:1048F00031FE5C484FF0000A016841F0020101609E
:10490000016801F002010591016841F04001016078
:10491000016801F040010591016841F00101016069
:10492000016801F001010591016841F00801016091
:10493000016801F008010591016841F0040101607E
:10494000016801F004010591016841F080010160F6
:10495000016801F080010591016841F020010160CA
:10496000016801F020010591016841F0100101602A
:1049700000683D4E00F010000590012240213046B5
:10498000FDF788FA394F4FF4E055002229463846A2
:10499000FDF780FADFF8D880012210214046FDF7AC
:1049A00079FADFF8D090012211464846FDF772FAF5
:1049B00001244020CDE90004029469463046039466
:1049C000FDF770F9CDE90054CDE9024A6946384651
:1049D000FDF768F908204FF48815CDE90005694610
:1049E00002943046FDF75EF91020CDE9000402265E
:1049F000CDE9024669464046FDF754F93020CDE93D
:104A00000005694602941C48FDF74CF96002CDE9A7
:104A10000005694602941948FDF744F9CDE90246BC
:104A20000094694648460194FDF73CF900220521AF
:104A30000920FDF779FC0920FDF768FC002205211B
:104A40000A20FDF771FC0A20FDF760FC0022052119
:104A50001720FDF769FC1720FDF758FC06B0BDE8EC
:104A6000F08700003038024000180240001C02406D
:104A70000000024000040240000802400010024012
:104A80000D4810B50B4901600C49416000214FF4FD
:104A900080428160C0E9031241618161C1610162AC
:104AA000FDF704FA002803D0BDE81040FCF7C4BAB3
:104AB00010BD0000005C0040E4040020801A0600E5
:104AC000104810B50E4901604FF482714160002119
:104AD00002228160C0E90312012242615202826116
:104AE0001022C0E90721416281620A21C162FDF7FB
:104AF00091FF002803D0BDE81040FCF79DBA10BD1F
:104B0000003001403805002010B588B01C216846EF
:104B1000FBF720FD144813490024C0E9001441F2BA
:104B20008731C0E9024104618461FEF7BFFB08B12F
:104B3000FCF782FA0C48FEF75AFE08B1FCF77CFA43
:104B40006020CDE9000402940022694606480494DE
:104B5000FEF7E7FD08B1FCF76FFA0348FEF7B6FD74
:104B600008B010BD004401407007002010B586B0A9
:104B70000024174800940194029403940494134968
:104B80000594016044F29F11C0E901146321C0E95A
:104B9000031444618461FEF789FB08B1FCF74CFA09
:104BA0004FF48050009069460948FEF76DFC08B14B
:104BB000FCF742FA049404A905480594FEF72EFB7D
:104BC000002801D0FCF738FA06B010BD0000014003
:104BD0005006002010B586B00024164800940194B9
:104BE0000294039404944FF080410594016042F2D2
:104BF000D001C0E901146321C0E903148461FEF708
:104C000055FB08B1FCF718FA4FF480500090694644
:104C10000848FEF739FC08B1FCF70EFA049404A921
:104C200004480594FEF7FAFA002801D0FCF704FACC
:104C300006B010BD9806002010B586B000241748B5
:104C40000094019402940394049413490594016020
:104C500044F29F11C0E901146321C0E903144461C7
:104C60008461FEF723FB08B1FCF7E6F94FF48050AE
:104C7000009069460948FEF707FC08B1FCF7DCF92B
:104C8000049404A905480594FEF7C8FA002801D049
:104C9000FCF7D2F906B010BD00040140E006002088
:104CA0001FB5002110480091019102910D4A039116
:104CB000026044F29F12C0E901216322C0E903218E
:104CC0008161FEF7F3FA08B1FCF7B6F94FF48050B2
:104CD000009069460448FEF7D7FB002801D0FCF796
:104CE000ABF91FBD00400140280700200C4810B55B
:104CF0000A4901604FF4E1314160002181600C22DA
:104D0000C160C0E904128161C161FEF77DFF002826
:104D100003D0BDE81040FCF78FB910BD0010014072
:104D2000B80700200C4810B50A4901600B494160E2
:104D3000002181600C22C160C0E904128161C1615F
:104D4000FEF762FF002803D0BDE81040FCF774B9FD
:104D500010BD000000480040FC070020A0860100B4
:104D60000C4810B50A4901604FF4E131416000215F
:104D700081600C22C160C0E904128161C161FEF74B
:104D800043FF002803D0BDE81040FCF755B910BD23
:104D90000014014040080020F5EEC01AB0EE413A80
:104DA000F0EE603AB0EE404AF1EE10FA00B502467D
:104DB00009D1B5EEC02AF1EE10FA04D1F5EEC02A01
:104DC000F1EE10FA78D021EEA10A02EE020A02EE0C
:104DD000A20A03F011FC21EE805A62EE004A92ED25
:104DE000011AD2ED030A22EE800AD2ED002A21EE4A
:104DF000202AD2ED021A22EE811A5C4802EEE12A44
:104E000001EEA01AF6EE001A52EEA21A40EEA01A17
:104E100060EE020A64EEA12A45EE610A40EE412AE4
:104E200025EE010A90ED071A04EEC20AB5EEC01A8B
:104E3000F1EE10FA2CDD90ED071AD0ED081A21EEF4
:104E4000222A9FED4B1A42EE011AC0ED081AD0ED4E
:104E5000071A21EEA02AD0ED091A42EE011AC0ED80
:104E6000091AD0ED071A21EE802AD0ED0A1A42EE77
:104E7000011AC0ED0A1A90ED081A34EE014A90EDBD
:104E8000091A73EE813A90ED0A1A33EE013A07E0FF
:104E90009FED381A80ED081A80ED091A80ED0A1A84
:104EA00090ED061A01EE224A90ED061A41EE203AE4
:104EB000D0ED060A00EE803A9FED2F0AD2ED021ADD
:104EC00024EE002A63EE802A23EE001A92EC020AF6
:104ED00092ED033A60EEC23A41EEE23A43EE413AD5
:104EE00073EE804A60EE023AC2ED004A41EE813A2A
:104EF00043EE623A33EEA04A60EE223A20EE010A17
:104F000082ED014A40EEC13A00EEA20A43EE023AB7
:104F100001EEC20A73EEA13A70EE030A24EEA40A6F
:104F2000C2ED023AC2ED030A04EE040A03EEA30A3C
:104F300000EEA00A03F060FBD2ED000A60EE800AEA
:104F4000C2ED000AD2ED010A60EE800AC2ED010A4C
:104F5000D2ED020A60EE800AC2ED020AD2ED030A27
:104F600020EE800A82ED030A00BD00008C000020C4
:104F70006F12833A000000006F12033AFEE7FEE76B
:104F80000148FDF7C9BC00003805002010B5806B52
:104F90000021C187C186FDF7BBFC10BD10B5806B39
:104FA00001684A6822F003024A60416D41F0100135
:104FB0004165012180F85110FDF7AAFC10BD10B524
:104FC000806BFDF734FF10BD10B5806BFEF721F943
:104FD00010BD10B5806BFEF71EF910BD70B505460B
:104FE000846BFCF75DFF024628680068C00526D484
:104FF0002068416821F020014160A06818B960680C
:10500000B0F5827F16D02068416821F0010141602F
:105010006421204600F076F808B120206065002069
:10502000E087012084F85100606D40B12046FDF713
:105030006FFC70BD2068416821F00301E7E720465E
:10504000FDF7F4FE70BD38B50546846BFCF728FF0C
:10505000024628680068C00523D42068416821F012
:10506000200141602068416821F002014160642113
:10507000204600F075F818B1606D40F020006065C2
:10508000A068002118B92068C26880680090E18695
:10509000012084F85100606D18B12046FDF738FCFE
:1050A00038BD2046FEF7B4F838BD70B50546846BB0
:1050B000FCF7F6FE024628680068C0051ED420688A
:1050C000416821F0200141606421204600F048F849
:1050D00018B1606D40F0200060652068416821F0E3
:1050E000030141600020E086E087012084F8510040
:1050F000606D18B12046FDF70BFC70BD2046FEF731
:1051000089F870BDF8B5044640684FF48273984240
:1051100021D1A0684FF48065B0F5004F01D0A842BE
:105120000AD12068066826F040060660606898424A
:1051300011D1A068A8420ED000920B460022802117
:10514000204600F039F8002804D0606D40F02000BF
:1051500060650320F8BD00920B4600220121EFE7B5
:1051600038B504461248134B0068B0FBF3F04FF417
:105170007A73584300906068B0F5827F0DD10B467A
:10518000009200228021204600F016F870B1606D78
:1051900040F020006065032038BD009830B1401E0B
:1051A000009020688068C0430006F6D5002038BD16
:1051B0002000002000366E012DE9F8431E4691467E
:1051C00088460446089DFCF76BFE401B351AFCF729
:1051D00067FE074625480068C0F3CB30684338E0D7
:1051E000701C37D0FCF75CFEC01BA84203D215B17F
:1051F000009860B32CE02068416821F0E001416034
:105200006068B0F5827F0BD1A068B0F5004F02D086
:10521000B0F5806F04D12068016821F04001016081
:10522000A06AB0F5005F09D12068016821F400513F
:1052300001602068016841F400510160012084F898
:105240005100002084F850000320BDE8F8830025B9
:10525000401E00902068816838EA010004D00021D7
:105260004945BDD10020F0E70121F9E720000020E9
:105270000122D1020348FCF70DFE012003F09CFA45
:10528000FBE70000001C024010B5502080F311889D
:10529000BFF34F8FBFF36F8F04F0D8FB18B10449F1
:1052A0004FF080500860002080F3118810BD00008E
:1052B00004ED00E030B593B030216846FBF74AF9C1
:1052C00014210CA8FBF746F91D480025016841F0A0
:1052D00080510160006800F0805011901948016809
:1052E00041F4804101600068022400F48040119084
:1052F00001200090000401908001CDE906400620C5
:105300000890A820CDE9090404200B906846FDF719
:1053100049F908B172B6FEE70CA90F2081E8310007
:105320004FF4A0500F904FF48050109005210CA81E
:10533000FDF72CF8002801D072B6FEE713B030BD9F
:1053400040380240007000400248016841F470019A
:105350000160704788ED00E010B50448FEF703F9DE
:10536000BDE810400248FEF7FEB8000050060020DD
:10537000280700200148FEF7F6B800009806002034
:105380000148FEF7F0B80000C40A00200148FEF70B
:10539000EAB80000E006002070B51349087801283B
:1053A0001CD11248124B0288521C94B204804288CD
:1053B000A4F50075521C92B2428000208A3D00D1B3
:1053C00018700C4CF02A00D1207018782278104305
:1053D00004D1022008700848FEF73EF8BDE870408E
:1053E0000548FEF7C0B80000490100201000002069
:1053F0002601002027010020E0060020F0B5026809
:10540000254C264D264E274F274B4FF0804CA0426F
:1054100009D0604507D0A84205D0B04203D0B842B9
:1054200001D0984204D122F0700E4A6842EA0E027E
:10543000A0421BD0604519D0A84217D0B04215D069
:10544000B84213D0984211D0184DA8420ED0184D32
:10545000A8420BD0174DA84208D0174DA84205D03E
:10546000164DA84202D0164DA84203D122F4407531
:10547000CA682A434D6922F080022A4302608A6882
:10548000C2620A688262A04201D0984201D10969D1
:10549000016301214161F0BD0000014000040040B2
:1054A00000080040000C00400004014000400140A2
:1054B000004401400048014000180040001C00402A
:1054C0000020004010B501F01F030121046A99403B
:1054D0008C430462016A9A401143016210BD10B509
:1054E000846842EA032224F47F440A432243826010
:1054F00010BD826822F070020A4342F00701816009
:1055000070470000F0B5026A22F001020262036AED
:1055100042688469124E24F073050C682C4323F012
:1055200002058B682B430D4DA84201D0B04205D136
:1055300023F00807CB683B4323F00403A84201D0C3
:10554000B04205D14D6922F4407215438A692A435D
:1055500042608461496841630362F0BD000001401C
:1055600000040140F0B5026A22F010020262026AF1
:10557000436884690D6824F4E64444EA05248D6890
:1055800022F0200242EA05120F4D104EA84201D02F
:10559000B04206D1CF6822F0800242EA071222F020
:1055A0004002A84201D0B04207D14D6923F44063C4
:1055B00043EA85038D6943EA850343608461496852
:1055C00081630262F0BD0000000001400004014060
:1055D000F0B5026A22F480720262026A4368C4690A
:1055E00022F4007224F073050C68124E2C438D686F
:1055F00042EA05220E4DA84201D0B04206D1CF6842
:1056000022F4006242EA072222F48062A84201D01A
:10561000B04207D14D6923F4405343EA05138D6925
:1056200043EA05134360C4614968C1630262F0BD87
:10563000000001400004014030B5026A22F48052AB
:105640000262046A4268C3690D6823F4E64343EAD0
:1056500005238D6824F4005444EA0534084DA8421B
:1056600002D0084DA84204D14D6922F4804242EA9A
:1056700085124260C36149680164046230BD000064
:10568000000001400004014010B5036A046A24F0E0
:1056900001040462846924F0F00444EA021423F053
:1056A0000A020A438461026210BD10B5036A23F046
:1056B000100303628369046A23F4704343EA0232ED
:1056C00024F0A00343EA01118261016210BD10B50C
:1056D000806B0021C185C184FEF760F910BD70B5F3
:1056E000846B2068406994F83D10C0F3C010002519
:1056F000212904D118B1E584204600F08AF82068F9
:10570000406994F83E10C0F38010222904D118B1EA
:10571000E585204600F056F8206C40F0100020642B
:105720002046FEF73BF970BD10B50146806B096855
:105730000968C9052FD40021C18501680C3151E8E1
:10574000002F22F4807241E80023002BF5D101687C
:10575000143151E8002F22F0010241E80023002B10
:10576000F5D10168143151E8002F22F0400241E8E0
:105770000023002BF5D1202180F83E10016B012978
:1057800009D101680C3151E8002F22F0100241E8E4
:105790000023002BF5D1016B012902D0FEF7E8FBB5
:1057A00010BD818DFEF7C1F810BD10B5806B016B87
:1057B000012902D0FEF710FC10BD818D4908FEF7CB
:1057C000B4F810BD01680C3151E8002F22F490723A
:1057D00041E80023002BF5D10168143151E8002F76
:1057E00022F0010241E80023002BF5D1016B0129D1
:1057F00009D101680C3151E8002F22F0100241E874
:105800000023002BF5D1202180F83E1000210163F8
:10581000704701680C3151E8002F22F0C00241E8C6
:105820000023002BF5D1202180F83D10704708B5EA
:1058300090F83E10222901D0022008BD82684FF462
:1058400080539A4201D1016921B1816A9A421BD0E9
:105850004AB10AE00268816A5268C2F308020A800B
:10586000816A891C08E0026972B10268526802F01C
:105870007F020A70816A491C8162C18D491E090438
:10588000090CC18503D019E002685268F1E701688C
:10589000CA6822F02002CA600168CA6822F48072D5
:1058A000CA6001684A6922F001024A61202180F839
:1058B0003E10016B012903D0FEF75AFB002008BD02
:1058C0000021016301680C3151E8002F22F0100221
:1058D00041E80023002BF5D101680A68D20602D501
:1058E0000A6849680091818DFEF71FF8E6E700001D
:1058F00070B5044600680169E26821F44051114323
:1059000001612169A068E2690843616911430843A4
:105910002168CA6849F20C639A430243CA6020684E
:105920004169A26921F44071114341613149206804
:10593000884202D03049884202D1FCF7F1FD01E0F3
:10594000FCF7DEFDE2690023192164253226B2F559
:10595000004F626828D0A0FB0101930F9200FAF774
:1059600003FD0146B0FBF5F06FF01802504301EB68
:10597000800006EB0010B0FBF5F000F0F002B1FB88
:10598000F5F002EB0012B1FBF5F06FF0180358438D
:1059900001EB800006EB0010B0FBF5F000F00F000B
:1059A00021681044886070BDA0FB010192185B4122
:1059B000FAF7DAFC0146B0FBF5F00201B1FBF5F0B5
:1059C0006FF01803584301EB800006EBC000B0FBFA
:1059D000F5F000F0F80002EB4002B1FBF5F058439F
:1059E00001EB800006EBC000B0FBF5F000F0070013
:1059F000D6E70000001001400014014038B5816274
:105A000082850025134604460564222084F83E0062
:105A1000A26B1C48D063A26B1B481064A26B1B488E
:105A2000D064A06B0A4605652168A06B091DFCF7D0
:105A3000E1F8206801684068009084F83C502069D3
:105A400048B120680C3050E8001F41F4807140E8F4
:105A50000012002AF5D12068143050E8001F41F0F0
:105A6000010140E80012002AF5D12068143050E806
:105A7000001F41F0400140E80012002AF5D100204B
:105A800038BD000029570008AB570008DF56000852
:105A900010B50448FDF784FFBDE810400148FBF74E
:105AA00069BA0000B807002005480068C16841F0E5
:105AB0001001C1600348802201780148FEF742BA14
:105AC000B8070020C001002010B50448FBF76AFAAF
:105AD000BDE810400148FDF763BF0000FC0700204F
