:020000040800F2
:10000000805600202903000897460008713B00082D
:1000100095460008490A000829570008000000001A
:10002000000000000000000000000000690200085D
:100030002D0C000800000000C5020008394D000822
:100040004303000843030008430300084303000878
:1000500043030008430300082F0C00084303000873
:1000600043030008350C00083B0C0008430300085C
:100070007D0A000843030008890A000843030008BA
:10008000430300084303000843030008590A00081B
:100090004D0A00084303000843030008410C000810
:1000A000094E0008254E00084303000843030008DA
:1000B000D94E0008114F000843030008430300080D
:1000C000430300084303000843030008514B0008A2
:1000D000430300081956000843030008615600084E
:1000E0004303000843030008430300081D4F0008B2
:1000F000294F000843030008430300084303000896
:1001000043030008430300084303000843030008B7
:1001100043030008430300084303000843030008A7
:1001200043030008950A0008A10A0008B50A000860
:10013000430300084303000843030008710A000852
:10014000650A00084303000843030008430300084E
:10015000C10A0008CD0A0008D90A00081D57000886
:100160004303000843030008430300084303000857
:100170004303000843030008430300080000000095
:10018000430300084303000800F002F800F05CF8A5
:100190000AA090E8000C82448344AAF10107DA45E2
:1001A00001D100F051F8AFF2090EBAE80F0013F0D8
:1001B000010F18BFFB1A43F0010318477C820000AF
:1001C0009C8200000A444FF0000C10F8013B13F031
:1001D000070408BF10F8014B1D1108BF10F8015BA0
:1001E000641E05D010F8016B641E01F8016BF9D193
:1001F00013F0080F1EBF10F8014BAD1C0C1B09D1EA
:100200006D1E58BF01F801CBFAD505E014F8016B5B
:1002100001F8016B6D1EF9D59142D6D370470000ED
:100220000023002400250026103A28BF78C1FBD8FF
:10023000520728BF30C148BF0B6070471FB508F098
:1002400058F81FBD10B510BD00F0BEF91146FFF7FC
:10025000F5FF06F063FB00F0DCF903B4FFF7F2FFF3
:1002600003BC00F0DDF900002C4B19680868B0E809
:10027000F04F80F30988BFF36F8F4FF0000080F3D9
:10028000118870470000000008480068006880F38B
:1002900008884FF0000080F3148862B661B6BFF39F
:1002A0004F8FBFF36F8F00DF00BF00BF08ED00E08E
:1002B000DFF80C00016841F470010160704700BF75
:1002C00088ED00E0EFF30980BFF36F8F134B1A68DE
:1002D0001EF0100F08BF20ED108A20E9F04F1060CB
:1002E00009B44FF0500080F31188BFF34F8FBFF374
:1002F0006F8F07F041F94FF0000080F3118809BCBF
:1003000019680868B0E8F04F1EF0100F08BFB0EC95
:10031000108A80F30988BFF36F8F70472800002090
:10032000EFF30580704700000948804709480047FF
:10033000FEE7FEE7FEE7FEE7FEE7FEE7FEE7FEE795
:10034000FEE7FEE704480549054A064B70470000F2
:10035000F94D0008890100088050002080560020D7
:10036000805200208052002053EA020C00F0698085
:100370002DE9F04B4FF00006002B1FBFB3FA83F5B9
:1003800003FA05F424FA05F65E4012BF1643B2FAEA
:1003900082F502FA05F4C5F120051EBF22FA05FC1C
:1003A00044EA0C04203556EA044C4FEA144418BFC2
:1003B000641C4FF000084FF00009904271EB030CF1
:1003C00039D3002919BFB1FA81F701FA07F6B0FA5B
:1003D00080F700FA07F6C7F120071EBF20FA07FCD6
:1003E00046EA0C062037B6FBF4FCA7EB0507103FE6
:1003F00007F01F0BCBF120060CFA0BFB2CFA06F6CC
:1004000044BFB3460026202FA4BF5E464FF0000B2A
:100410005BEA060C08BF4FF0010B19EB0B09ABFBB5
:10042000027C48EB0608C01B06FB02CC0BFB03CC8E
:1004300071EB0C01C1E70B46024641464846BDE858
:10044000F08B13B54FF000004FF00001AFF30080C8
:10045000BDE81C40704710B5431C02E010F8011BBA
:1004600071B18107FAD14FF0013202C88C1A8C4366
:1004700014EAC211F9D0C01A0A0603D0C01E10BD7A
:10048000C01A10BD0A0401D0801E10BD0902FCD0A4
:10049000401E10BD10B5203AC0F00B80B1E81850D6
:1004A000203AA0E81850B1E81850A0E81850BFF45E
:1004B000F5AF5FEA027C24BFB1E81850A0E81850FD
:1004C00044BF18C918C0BDE810405FEA827C24BF51
:1004D00051F8043B40F8043B08BF7047D20728BFDF
:1004E00031F8023B48BF11F8012B28BF20F8023B2E
:1004F00048BF00F8012B704702F0FF0343EA0322D4
:1005000042EA024200F037B84FF0000200B513464D
:1005100094469646203922BFA0E80C50A0E80C5023
:10052000B1F12001BFF4F7AF090728BFA0E80C50D4
:1005300048BF0CC05DF804EB890028BF40F8042BCD
:1005400008BF704748BF20F8022B11F0804F18BF3A
:1005500000F8012B704770477047704710B500F0E6
:100560002BF8006810BD10B5044600F025F80460B3
:1005700010BD4FF000020429C0F0128010F0030CEF
:100580003FF4C4AFCCF1040CBCF1020F18BF00F86B
:10059000012BA8BF20F8022BA1EB0C01FFF7B6BF7F
:1005A0005FEAC17C24BF00F8012B00F8012B48BF93
:1005B00000F8012B704700000048704720500020D1
:1005C00000487047205000207546FFF7F9FFAE46FF
:1005D00005006946534620F00700854618B020B54F
:1005E000FFF7B0FEBDE820404FF000064FF00007D7
:1005F0004FF000084FF0000B21F00701AC46ACE8CB
:10060000C009ACE8C009ACE8C009ACE8C0098D4637
:1006100070470446AFF300802046FFF71EFE00003F
:1006200001491820ABBEFEE726000200704700001B
:10063000B7EE000A80ED000A9FED040A80ED010A82
:1006400080ED020A80ED030A704700000000000000
:1006500001221021014801F0A3BC0000000002406B
:1006600000221021014801F09BBC00000000024064
:100670007047000001221146014801F091BC0000C2
:100680000004024000220121014801F089BC000061
:100690000004024030B5437804781B021BB22343A8
:1006A00000EE103A194CB8EEC00AD4ED010A20EE63
:1006B000200A81ED000AC37885781B021BB22B4308
:1006C00000EE103AF8EEC00A94ED010A60EE800ADE
:1006D000C1ED010A437904791B021BB2234300EEEA
:1006E000903AF8EEE00A20EE800ADFED090A81ED8B
:1006F000020AD0F8060020F07F4000EE100AB8EEA3
:10070000400A20EE200A82ED000A30BD9801002048
:1007100000401C42704706F049B905F07DBE00005C
:1007200010B542780378120212B21A4300EE102A72
:10073000124BB8EEC00AD3ED020A20EE200A81ED7A
:10074000000AC2788478120212B2224300EE102A04
:10075000F8EEC00A93ED020A60EE800AC1ED010ACC
:1007600042790079120212B2024300EE902AF8EEAA
:10077000E00A20EE800A81ED020A10BD98010020F7
:1007800010B5FFF775FFFFF7C5FF05F0A9FB08B12E
:10079000802402E005F010FB044605F077FD10B15F
:1007A00044F0400010BD05F003FD204310BD0000E3
:1007B0002DE9FC410546002016460C4600900190AC
:1007C000FFF74EFF922000F0BDF806226946122086
:1007D00000F09AF8FFF73CFF9DF801009DF800102B
:1007E000000200B2084300EE100A464FB8EEC00AFD
:1007F000D7ED010A20EE200A84ED000A9DF80300DF
:100800009DF80210000200B2084300EE100AF8EE54
:10081000C00A97ED010A60EE800AC4ED010A9DF856
:1008200005009DF80410000200B2084300EE900A93
:10083000F8EEE00A20EE800A84ED020AFFF722FFBC
:1008400008226946002000F05FF8FFF713FF9DF8CB
:1008500000000F2830D19DF803009DF8021000021F
:1008600000B2084300EE100AD7ED020AB8EEC00A43
:1008700020EE200A85ED000A9DF805009DF8041081
:10088000000200B2084300EE100AF8EEC00A97ED2D
:10089000020A60EE800AC5ED010A9DF807009DF886
:1008A0000610000200B2084300EE900AF8EEE00ADB
:1008B00020EE800A85ED020AFFF7D2FEA22000F0AA
:1008C00041F802226946222000F01EF8FFF7C0FE20
:1008D0009DF800009DF80110C00040EA5110B0F5ED
:1008E000806F01DBA0F5006000EE100AB4EE001A84
:1008F000F8EEC00AB3EE070A00EE810A86ED000AA0
:10090000BDE8FC819801002070B514460D4640F00A
:10091000800000F017F806E0552000F013F8641E80
:1009200005F8010BE4B2002CF6D170BD10B50C46F1
:1009300040F0800000F006F8552000F003F8207029
:1009400010BD000001B582B04FF47A700090012311
:1009500001AA02A9024802F023F99DF804000EBD85
:100960005C0B002002784078D20042EA5010B0F5CB
:10097000806F01DBA0F5006000EE100AB4EE001AF3
:10098000F8EEC00AB3EE070A00EE810A81ED000A14
:10099000704710B50C46FFF7D5FF2046BDE8104064
:1009A000FFF7D0BF70B5144C0546B4F9360000EE21
:1009B000100A1248F8EEC00A00EE105AB8EEC00A4B
:1009C00006F03AF8BDEEC00A10EE100A6086B4F9DF
:1009D000420000EE100A6842F8EEC00A00EE100A6B
:1009E0000648B8EEC00A343006F026F8BDEEC00A5C
:1009F00010EE100AE08770BD000200208403002082
:100A000000B589B040F2FF1000210090029108204B
:100A10000B4ACDE90310508E030A8DF818308DF87B
:100A20001900D08F0791020A8DF81A208DF81B004B
:100A3000012306AA6946034800F022FB09B000BD65
:100A400000020020B80A0020FEE70000014800F084
:100A500076BC0000B80A0020014800F070BC00001D
:100A6000B80A0020014800F06ABC0000E00A00203B
:100A7000014800F064BC0000E00A0020014800F0DA
:100A8000F3BF0000680F0020014800F0EDBF000038
:100A9000C80F0020014800F0E7BF00002810002028
:100AA00010B500F01FF8BDE81040014800F0DCBFB1
:100AB000B40B0020014800F0D7BF0000140C002048
:100AC000014800F0D1BF0000A80E0020014800F04E
:100AD000CBBF000088100020014800F0C5BF000017
:100AE000080F002070B523480068800240D52149D6
:100AF0004FF0F460083108601F4C207880070CD557
:100B0000207820F002002070207840F0040020704F
:100B100001221146194801F043FA6078184D800708
:100B20000CD5607820F002006070607840F004001E
:100B3000607001221021284601F032FAA078800767
:100B40000CD5A07820F00200A070A07840F004003E
:100B5000A07001221021284601F022FA05F008FEBB
:100B60002078400704D50748016841F00101016081
:100B700070BD000000640240080100200004024033
:100B800000000240103C014001681823CAB2103A2C
:100B9000B2FBF3F2054B6FF30901032A9B5CC365BB
:100BA00000D9091D816508467047000006830008CA
:100BB00010B5014600208B698A6A4FF0C07453B1AA
:100BC000B3F5005F15D072B1012A0CD0022A0AD009
:100BD000032A09D104E01AB1012A06D0022A03D15E
:100BE000C96AC90100D5012010BDC96AA142FAD065
:100BF00010BD002AF7D0012AF2D0022AF3D0032A2E
:100C0000F3D010BD30B50468256825F48025256033
:100C1000046863608368402B036803D099600068B0
:100C2000C26030BD9A600068C16030BD704701206D
:100C300001F0C2B8082001F0BFB8102001F0BCB824
:100C4000202001F0B9B872B6FEE70000214D08205F
:100C50002DED028B287020480068C16841F010011A
:100C6000C16064221D491C4802F022FF1C4E9FED0A
:100C70001D8A0027A5F114044FF0010896ED000A23
:100C8000552130EE080ABCEEC00A10EE100AA08012
:100C90006870000AA8700F4805F098FB00F0A6F9EC
:100CA00000F0B6F903F0EEFF94ED030AB5EEC00ACA
:100CB000F1EE10FA06D194ED040AB5EEC00AF1EE99
:100CC00010FA02D084F800806770012005F06EFEF3
:100CD000D4E70000FC000020DC0D0020804E002046
:100CE000C00000200000344370B5284D9FED260A57
:100CF000DFED270A274C85EC020A85ED020AC5EDD7
:100D0000030AB4F9060000EE900A2348F8EEE00A60
:100D100005F092FEBDEEC00A10EE100A6080B4F934
:100D2000120000EE100A1C48F8EEC00A95ED010A08
:100D3000343005F081FEBDEEC00A10EE100AE081ED
:100D4000B4F91E0000EE100A1348F8EEC00A95ED43
:100D5000020A683005F070FEBDEEC00A10EE100AFF
:100D60006083B4F92A0000EE100A0B48F8EEC00ABE
:100D700095ED030A9C3005F05FFEBDEEC00A10EE53
:100D8000100AE08470BD000000D0CFC5E40100204F
:100D900000D0CF45600200208C05002070B5284DA2
:100DA0009FED260A274C85ED000A85ED010A85EDA9
:100DB000020A85ED030AB4F9060000EE900A224803
:100DC000F8EEE00A05F038FEBDEEC00A10EE100A9B
:100DD0006080B4F9120000EE100A1B48F8EEC00A59
:100DE00095ED010A343005F027FEBDEEC00A10EE85
:100DF000100AE081B4F91E0000EE100A1248F8EE65
:100E0000C00A95ED020A683005F016FEBDEEC00A74
:100E100010EE100A6083B4F92A0000EE100A0A48A6
:100E2000F8EEC00A95ED030A9C3005F005FEBDEE14
:100E3000C00A10EE100AE08470BD0000000000003F
:100E4000E4010020600200208C05002010B5B7EE00
:100E5000001A2DED048B9FED2E8ADFED2E8A9FED7B
:100E60002E9AB0EE482AF0EE481AF0EE680AB0EE7C
:100E7000490A2A4805F09EFE2848B0EE482AF0EEBE
:100E8000481AB7EE001AF0EE680AB0EE490A34309C
:100E900005F090FE2148B0EE482AF0EE481AB7EE71
:100EA000001AF0EE680AB0EE490A683005F082FEDA
:100EB0001A48B0EE482AF0EE481AB7EE001AF0EEE3
:100EC000680AB0EE490A9C3005F074FEDFED148A22
:100ED000B0EE482AF0EE481AB6EE001AF0EE680AB4
:100EE000B3EE040A0F4805F065FEB0EE482AF0EEB6
:100EF000481AF0EE680ABDEC048BB6EE001AB3EEA9
:100F0000040A0848BDE81040343005F053BE000024
:100F100000008046CDCC4C3F000020428C050020D4
:100F20008FC2F53C8403002000B589B04FF40070F7
:100F300002900020049005901149082006904888EE
:100F40000123020A8DF800208DF80100C889020AE9
:100F50008DF802208DF80300488B020A8DF80420DA
:100F60008DF80500C88C6A46010A8DF806108DF8C8
:100F7000070002A9034800F083F809B000BD000093
:100F800060020020E00A0020FFF760FF144D154EBC
:100F9000154CA87A022809D0FFF700FFFFF7C4FF1D
:100FA000E87A01280DD0022809D016E0FFF79CFE50
:100FB000F4E7B4F9020008E0B4F9040005E0307881
:100FC00058B120780028F7D1F3E7FFF7EBFCFFF7E3
:100FD00017FD012005F0EAFCDBE70020F5E7000043
:100FE000204E0020E8000020E000002007480649CD
:100FF000828A0A80827C4A80C27C8A808289CA80F6
:10100000C089088170470000004F0020204E00205A
:1010100070B50F4CE078012818D10E4D28780128C2
:1010200002D1284606F02EF80021E170084602E0C1
:101030002954401CC0B2A2789042F9D3A170BDE8F7
:10104000704064220349044802F032BD70BD0000C4
:10105000E8000020804E0020DC0D002090F82020C9
:10106000012A07D0022A05D0416A41F48021416259
:1010700001207047006842690A43426100207047BE
:10108000F0B590F820500468A468012D05D0022D19
:1010900003D0416A41F4802153E014F0406F01D144
:1010A000E5004BD5C4F30164022C03D9416A41F435
:1010B000000146E00125A5401D608B684FF4C07516
:1010C0009BB1CE6833434E6843EAC603066805EB1E
:1010D0000417F3514FF4C273076803EB04130E694E
:1010E000FE50097D012905D009E00E88CB6843EA4E
:1010F0004653EBE70168CE5846F48076CE5011791E
:10110000D2F805304FF4C67641EA0323016806EBB6
:1011100004168B511178D2F801204FF4C47341EAC0
:101120000221026803EB0413D150006805EB04119F
:10113000425842F0010242500020F0BD416A41F4A1
:10114000001141620120F0BD10B590F82020012A65
:1011500007D0022A05D0416A41F480214162012072
:1011600010BD3B48D0F8002242F00102C0F8002236
:10117000D0F8002222F47C52C0F80022D0F80022DD
:101180004B6A42EA0322C0F800220A7D02F01F03E4
:1011900001229A40D0F81C329343C0F81C32CB692C
:1011A000B3B9D0F80C329343C0F80C328C894B6839
:1011B00064F31F434C6900EBC404C4F840320C894B
:1011C0000B6864F31F434C6900EBC404C4F8443259
:1011D000CB69012B16D1D0F80C321343C0F80C3276
:1011E0000C884B6864F31F434C6900EBC404C4F8DB
:1011F00040320C89CB6864F31F434C6900EBC40494
:10120000C4F844328B69002BD0F804320ED013435B
:10121000C0F804320B69002BD0F8143208D0134305
:10122000C0F81432096A012904D008E09343EFE7BB
:101230009343F5E7D0F81C121143C0F81C12D0F804
:10124000001221F00101C0F80012002010BD0000C2
:1012500000640040704730B590F82040012C05D064
:10126000022C03D0416A41F480215DE0046800292A
:1012700055D02469A40754D04FF4D874056804EB02
:1012800001142D5915F00405956005682D594ED0AF
:10129000ED08556005682C5904F00204D4604FF441
:1012A000DA74056804EB01142D5905F00F0515617A
:1012B00005682D59C5F30725956105682C59240C3F
:1012C00054614FF4DC72046802EB0112A4581C70E4
:1012D0000468A458240A5C700468A458240C9C7008
:1012E0000468A258120EDA704FF4DE72046802EB42
:1012F0000112A4581C710468A458240A5C71046883
:10130000A458240C9C710468A258120EDA7100686B
:1013100081B1016941F020010161002030BDE46824
:10132000A8E7416A41F400114162012030BD6D0D12
:101330001560AFE7C16841F02001C160EDE72DE91C
:10134000F05F0546006800244669D0F8049087687D
:10135000D0F80CB0D0F810A0D0F81880F10748D021
:10136000F90714D001218160B80703D5284600F0A1
:101370001AFB0CE0780702D54FF4006407E0380749
:1013800002D54FF4805402E0284600F00BFBF8052C
:1013900016D529684FF480708860B80503D52846B3
:1013A00000F003FB0CE0780502D544F4005407E09C
:1013B000380502D544F4804402E0284600F0F4FAEF
:1013C000F80316D529684FF480308860B80303D538
:1013D000284600F0ECFA0CE0780302D544F400440F
:1013E00007E0380302D544F4803402E0284600F0D8
:1013F000DDFA300707D55FEACB6004D529681020F5
:1014000044F40074C86070074FF0080707D55FEA1E
:101410000B7004D52868C760284600F0A7F9B0070C
:1014200006D52868C068800702D0284600F0A0F9D9
:10143000700607D55FEACA6004D52968102044F415
:1014400080640861B00607D55FEA0A7004D5286891
:101450000761284600F078FAF00606D5286800698A
:10146000800702D0284600F070FAB00308D55FEA82
:10147000C96005D5296810204860284600F066FA42
:10148000F00307D55FEA097004D52868476028464D
:1014900000F08EFA300446D55FEA497040D5F00579
:1014A00004D55FEAC87001D044F00104B00504D54A
:1014B0005FEA887001D544F00204700504D55FEA44
:1014C000487001D544F00404300529D518F0700F98
:1014D00026D008F07000402815D006DC102809D06E
:1014E00020280AD0302816D10AE050280ED06028D3
:1014F00011D10EE044F008040DE044F010040AE0BD
:1015000044F0200407E044F0400404E044F0800488
:1015100001E044F480742868816921F070018161E0
:10152000296804204860002C05D0686A204368625E
:101530002846FFF78FFEBDE8F09F70B5040003D08A
:1015400094F8200010B104E0012070BD204600F0A6
:1015500081F82068016841F00101016000F026FD7A
:101560000546052604E000F021FD401B0A2811D89D
:1015700020684068C007F6D02068016821F00201A9
:10158000016000F013FD05460BE000F00FFD401B6D
:101590000A2806D9606A40F40030606284F820604E
:1015A000D2E7206840688007EFD4207E01282068B9
:1015B00001683DD021F080010160607E0128206833
:1015C000016838D021F040010160A07E0128206828
:1015D000016833D021F020010160E07E01282068FD
:1015E00001682ED041F010010160207F01282068A1
:1015F000016829D021F008010160607F012820687E
:10160000016824D021F004010160D4E902010843FB
:10161000D4E90412114308436168491E0843216854
:10162000C86100206062012084F82000002070BDA5
:1016300041F08001C0E741F04001C5E741F02001E1
:10164000CAE721F01001CFE741F00801D4E741F0EB
:101650000401D9E7F0B587B0044614216846FEF7C7
:1016600053FF3D493D4ADFF8ECE00868D4F800C07C
:101670003A4B03240225092610320027401CF4456A
:1016800029D10860012807D1106840F0007010606F
:10169000106800F000700590186840F008001860AD
:1016A00018688DE8B00000F00800CDE904606946D4
:1016B00003942B4800F08CFB00220521132000F03E
:1016C00021FE132000F010FE00220521142000F05E
:1016D00019FE142039E0DFF88CE0F44537D1D2F858
:1016E00000C04CF0806CC2F800C0D2F800C00128E5
:1016F0000CF0806CCDF814C0086007D1106840F081
:1017000000701060106800F000700590186840F0DC
:10171000020018601868694600F002000590602019
:101720008DE8A100CDE903460F4800F051FB0022EF
:1017300005213F2000F0E6FD3F2000F0D5FD00220E
:101740000521402000F0DEFD402000F0CDFD07B077
:10175000F0BD0000006400400C0000203038024062
:10176000000C024000680040000402407047000086
:1017700010B50446006867498AB0884278D1664B44
:101780006A4600212046FFF766FD0098634A6249D9
:10179000332808D034282BD0352834D066283FD0C1
:1017A000102849D04EE00888C0F30A00108048781D
:1017B000C308887843EA4013C3F30A035380CB7805
:1017C000800940EA8303087943EA8023C3F30A03CC
:1017D00093804308487943EAC013C3F30A03D380D4
:1017E000C0F3011393728009D072C888908129E0F8
:1017F0000888D08148881082087990744879D0741C
:10180000C88890821EE008881081B1F80300444A1D
:1018100040BA1080B1F80500424A40BA108011E089
:101820000878FF280ED1404A012010709FED3F0A32
:101830003F4880ED000A05E03E4A087810703E4AB5
:101840004878107000983D4AA0F20120072810D275
:10185000C0B20B8800EB400002EB80005BBA8380D3
:101860004A8852BAC2808A8852BA028189798172C2
:1018700010E00098A0F500730A3B0BD1088840BA2D
:1018800022F84C0F488840BA5080888840BA90802F
:10189000887990712A492068884238D107AB6A4616
:1018A00000212046FFF7D7FC00982649A0F201202E
:1018B000042813D2C0B2BDF81C2000EB400001EB9D
:1018C000800052BA8280BDF81E2052BAC280BDF894
:1018D000202052BA02819DF8222082720098A0F244
:1018E00005200A2813D2C0B2BDF81C2000EB40002E
:1018F00001EB800052BA8280BDF81E1049BAC18047
:10190000BDF8201049BA01819DF8221081720AB0F9
:1019100010BD00000064004000000020204E0020A8
:10192000B800002090000020C80000200000000047
:10193000C400002005010020040100200002002056
:10194000006800406002002070477047704770B523
:10195000044690F82000012804D0606A40F400207A
:10196000606217E0022084F820002068016821F0FE
:101970000101016000F01AFB05460DE000F016FBC6
:10198000401B0A2808D9606A40F4003060620520D4
:1019900084F82000012070BD20684068C007EDD1A8
:1019A000606270BD704770477047704770477047FE
:1019B00070472DE9F0410446876D00F0F7FA0546BF
:1019C00094F835000026022806D08020606584F84F
:1019D00034600120BDE8F0812068016821F0160123
:1019E00001602068416921F080014161206C08B9E3
:1019F000A06C20B12068016821F008010160206816
:101A0000016821F0010101600CE000F0CFFA401BF9
:101A1000052807D920206065032084F8350084F864
:101A20003460D7E720680068C007EED194F85C10F6
:101A30003F208840B860012084F8350084F8346085
:101A40000020C7E790F83510022903D080214165B6
:101A500001207047052180F835100068016821F0E9
:101A600001010160002070472DE9F84304464FF062
:101A70000009CDF8009063484FF41651A56D006839
:101A8000B0FBF1F72E6894F85C20082101FA02F00F
:101A900030420FD02068026852070BD5026822F04E
:101AA0000402026094F85C008140A960606D40F01F
:101AB0000100606594F85C104FF0010808FA01F02D
:101AC000304208D021684969090604D5A860606DD4
:101AD00040F00200606594F85C10042088403042B9
:101AE00008D021680968890704D5A860606D40F0B6
:101AF0000400606594F85C1010208840304218D0D3
:101B000021680968090714D5A8602068016849039D
:101B100004D50068000308D5A16C07E00168C90579
:101B200003D4016821F008010160216C09B120464D
:101B3000884794F85C1020208840304231D02168DA
:101B40000968C9062DD5A86094F8350005282068D5
:101B5000016806D0490347D5006800031DD4616CB5
:101B60001CE021F0160101602068416921F080012C
:101B70004161206C08B9A06C20B12068016821F097
:101B80000801016094F85C103F208840A86084F848
:101B9000358084F83490216D1FE0E16B09B1204657
:101BA0008847606D00282BD0606DC00714D00520D9
:101BB00084F835002068016821F001010160009877
:101BC000401C0090B84203D820680068C007F6D1D6
:101BD00084F8358084F83490E16C002910D001B08D
:101BE0002046BDE8F04308470168C905D5D401681F
:101BF00021F01001016084F8358084F83490CCE73E
:101C0000BDE8F883240000202DE9F041044600F0EF
:101C1000CDF905465CB1022084F83500002684F831
:101C200034602068016821F0010101600DE00120AD
:101C3000BDE8F08100F0BAF9401B052805D9202045
:101C40006065032084F83500F2E720680068C0076B
:101C5000F0D121680A6820480240D4E90103184302
:101C6000D4E903352B43184363691843A369184328
:101C7000E3691843236A18431043626A042A03D1B4
:101C8000D4E90B231A431043086020684069656A51
:101C900020F0070128460D43012704280CD1A06A33
:101CA0000543E06A40B12046FEF782FF20B14020A4
:101CB000606584F83570BAE7206845612046FEF714
:101CC00063FF94F85C203F2191408160666584F851
:101CD00035700020ACE700003F8010F02DE9F041A6
:101CE0000446866D90F83400002501280DD00120AF
:101CF00084F8340094F835700020012F07D084F860
:101D0000340002252846BDE8F0810220FBE70227C7
:101D100084F8357060652046FEF774FF94F85C1017
:101D20003F208840B0602068016841F016010160E2
:101D3000206C20B12068016841F008010160206832
:101D4000016841F001010160DCE7000010B5184CAA
:101D5000102818D020281FD0012813D105F050FDDD
:101D600001280FD004F12001606A05F06DFB206AA4
:101D7000002807D00F494FF080500860BFF34F8F05
:101D8000BFF36F8F10BD607840F001006070A078E5
:101D900040F00100A07003E0207840F001002070C6
:101DA000E0780028EED0BDE8104004F0E1BC00006F
:101DB0000801002004ED00E0044910B50A68024261
:101DC00002D00860FFF7C2FF10BD0000143C0140C4
:101DD0002DE9F84FDFF89C910022A9F1040B0327AD
:101DE0004FF00F0C09F1040AABF1040E01250B684A
:101DF00095402B40AB426ED10C7904F00304012CCA
:101E000001D0022C15D18668540007FA04F826EA9E
:101E10000806D1F80C8008FA04F848EA0608C0F869
:101E200008804468AC430D79C5F3001595402543FF
:101E300045600C79E443A40708D0C568540007FA4C
:101E400004F6B5438E68A6402E43C6600C7904F0B4
:101E50000304022C11D1D40800EB8406356A540720
:101E6000E40E0CFA04F825EA0805D1F8108008FA07
:101E700004F848EA0508C6F820800568540007FA07
:101E800004F6B5430E7906F00306A6402E4306601D
:101E90004C6814F4403F66D0374C256845F48045C3
:101EA0002560246822F0030504F480440094334C38
:101EB00005EB0408D8F808589407260F0CFA06F426
:101EC000A5432F4CA04201D1002424E02D4CA04278
:101ED00002D101241FE046E02B4CA04201D1022494
:101EE00019E02A4CA04201D1032414E0284CA0425E
:101EF00001D104240FE0274CA04201D105240AE0BF
:101F0000254CA04201D1062405E0244CA04201D179
:101F1000072400E00824B4402C43C8F80848D9F846
:101F200000404D464E689C43F60200D51C432C6091
:101F3000DAF8004055464E689C43B60200D51C4373
:101F40002C60DBF800405D464E689C43B60300D52C
:101F50001C432C60DEF8004075464E689C43F60337
:101F600000D51C432C60521C102AFFF43FAFBDE883
:101F7000F88F0000083C0140443802400030014026
:101F8000000002400004024000080240000C024031
:101F9000001002400014024000180240001C0240E1
:101FA0000AB1816170470904FBE7000001488068BD
:101FB000704700001800002070B5040025D094F888
:101FC0003D00002520B984F83C50204600F0B8F8C8
:101FD000242084F83D002068016821F0010101609F
:101FE0002068016841F4004101602068016821F423
:101FF0000041016000F072FA4D4B6168994201D8CE
:102000004C4900E04C49884201D2012070BD4B4947
:102010002268B0FBF1F1566826F03F060E43566089
:1020200062689A4206D94FF4967251434FF47A721D
:10203000B1FBF2F12268491C166A26F03F063143D3
:1020400011626168994210D84900401EB0FBF1F25C
:10205000521CC2F30B02042A01D2042022E0B0FB7E
:10206000F1F0401CC0F30B001CE0A268F2B301EBDE
:10207000C10303EB0116431EB3FBF6F35B1C43F4F1
:1020800080431B0549D092B301EBC10202EB011161
:10209000401EB0FBF1F0401CC0F30B0040F4804048
:1020A00040F400402168CA694CF6FF739A4310431C
:1020B000C861D4E9071001432068026822F0C00219
:1020C00011430160D4E9030101432068826848F2AA
:1020D000FF339A4311438160D4E90510014320681E
:1020E000C26822F0FF021143C16001E00EE016E079
:1020F0002068016841F0010101602564202084F816
:102100003D00256384F83E50002070BD01EB410680
:10211000431EB3FBF6F35B1CB3E70120C2E701EB00
:102120004101401EB0FBF1F0401CC0F30B00B7E7CB
:10213000A086010080841E0000093D0040420F007F
:10214000F0B587B0044614216846FEF7DDF91D4955
:102150002068884233D11C480025016841F0040101
:102160000160016801F004010591016841F001017D
:1021700001600068122600F0010005904FF4007025
:10218000CDE90006032704240295CDE903746946CE
:102190000E48FFF71DFEA001CDE900060295CDE92E
:1021A000037469460A48FFF713FE074810300168B8
:1021B00041F400010160006800F40000059007B0E0
:1021C000F0BD0000005C00403038024000080240D2
:1021D0000000024002488168027811448160704723
:1021E000180000200B4810B5016841F4007101602F
:1021F000016841F480610160016841F4807101600F
:10220000032000F09FF80F2000F006F800F050F8CF
:10221000002010BD003C024030B505461F4887B085
:102220000024016841F002010160006806A900F085
:1022300002000590684600F031F90398A8B100F05B
:102240004DF940001649174AB0FBF1F11648491EF6
:10225000026040F2E732C0E90324C0E9011484615E
:1022600000F0D6FD040003D015E000F037F9E9E7EF
:102270000D4800F085FE04000DD11D2000F034F85B
:10228000102D07D2002229461D2000F03BF80748F8
:10229000056000E0012407B0204630BD4038024010
:1022A00040420F0000040040E81000201C00002005
:1022B0000C4882B0016841F480410160006800F47C
:1022C000804000900748001F016841F08051016084
:1022D0000068002200F0805000900F21901E02B094
:1022E00000F010B844380240002809DB00F01F025B
:1022F000012191404009800000F1E020C0F8001168
:1023000070470000F0B40E4B1B68C3F30223C3F107
:102310000704042C00D904241D1D072D01D200231D
:1023200000E0DB1E012606FA04F56D1E0D409D40FF
:102330009E40761E164045EA0601F0BC03F057BBEE
:102340000CED00E0064A00F0070110684FF6FF03AD
:10235000184040EA0120034908431060704700001C
:102360000CED00E00000FA052DE9F0470D460400F1
:1023700065D0DFF81491D9F80000EFB200F0070043
:10238000A84207D289F80070D9F8000000F00700D1
:10239000A84254D120683D4E810712D5400703D58D
:1023A000306840F4E05030602078000703D5306892
:1023B00040F4604030603068A16820F0F0000843CD
:1023C00030602078C0072DD0304960680839012876
:1023D00012D0022813D0032811D0096889070029D8
:1023E0002DDA316821F0030101433160FFF7DEFD92
:1023F000804641F2883A0EE009688903EFE70968F0
:102400008901ECE7FFF7D2FDA0EB0801514502D9A5
:102410000320BDE8F0873068616800F00C00B0EB85
:10242000810FEFD1D9F80010484601F00701A94209
:1024300007D90770006800F00700A84201D001200A
:10244000E7E72078400705D53068E16820F4E050E0
:10245000084330602078000706D53068216920F4F1
:10246000604040EAC100306000F058F83168084A26
:10247000C1F30311515CC840064908600648006872
:10248000FFF7CAFE0020C4E7003C024008380240C3
:102490000E830008240000201C0000200F22026090
:1024A0000C4A136803F003034360136803F0F0035E
:1024B0008360136803F4E053C36012684FF4E05381
:1024C00003EAD20202610448006800F007000860D5
:1024D0007047000008380240003C024004480549AB
:1024E00000680968044AC1F38221515CC840704702
:1024F00024000020083802401E83000804480549D3
:1025000000680968044AC1F34231515CC840704711
:1025100024000020083802401E830008154810B52A
:10252000006810F00C01144813D0144B04290FD08C
:1025300008290ED10F4C241F216801F03F022168A9
:10254000490207D52068C0F38810A0FB030106E00C
:10255000184610BD2168C1F38811A1FB00010023BA
:10256000FDF702FF2168C1F30141491C4900B0FB9E
:10257000F1F010BD083802400024F400001BB70041
:102580002DE9F84F040075D02078DFF838A3C00794
:10259000AAF1040548D00AF104000168C1F38101E1
:1025A000012908D00068C0F3810002280AD1DAF8B6
:1025B0000000400206D52868800335D560680028F1
:1025C000E1D031E06068B0F5803F10D0B0F5A02FC9
:1025D000286810D020F480302860286820F48020FB
:1025E00028606068A0B1FFF7E1FC06460CE02868AF
:1025F00040F48030F4E740F480202860F7E7FFF7EC
:10260000D5FC801B642871D828688003F7D50BE0BF
:10261000FFF7CCFC064604E0FFF7C8FC801B6428EB
:10262000F1D828688003F7D42078DFF89C928007DF
:102630004FF0000B3DD5A348001D016811F00C0FB1
:1026400008D00068C0F3810002280AD1DAF800003F
:10265000400206D42868800715D5E068012809D112
:1026600011E0E068B8B10120C9F80000FFF79EFC56
:10267000064605E022E1FFF799FC801B0228C2D83C
:1026800028688007F7D52868216920F0F80040EA1B
:10269000C10028600DE0C9F800B0FFF787FC0646CE
:1026A00004E0FFF783FC801B02281FD828688007FE
:1026B000F7D42078000722D5824F844861697037AB
:1026C00071B101210160FFF771FC064604E0FFF7DC
:1026D0006DFC801B022809D838688007F7D50EE00A
:1026E000C0F800B0FFF762FC064605E082E0FFF7A5
:1026F0005DFC801B02287DD838688007F7D42078DD
:10270000400765D56F484FF000083C300068C000B6
:102710000BD46C483C30016841F080510160006886
:102720004FF0010800F080500090694F3868C005F4
:102730000FD4386840F480703860FFF737FC0646E5
:1027400004E0FFF733FC801B022853D83868C0052B
:10275000F7D55C4FA0686C3701280FD00528386882
:1027600010D020F001003860386820F00400386094
:10277000A068B0B1FFF71AFC06460EE0386840F0DA
:102780000100F4E740F004003860F7E7FFF70EFCC3
:10279000811B41F28830814263D838688007F5D5C3
:1027A0000DE0FFF703FC064606E0FFF7FFFB811B89
:1027B00041F28830814254D838688007F5D4B8F1A6
:1027C000000F05D03F483C30016821F08051016086
:1027D000A069B8B33B49091D0968C1F38101022909
:1027E00046D00228584606D0C9F86000FFF7DEFB45
:1027F000044639E035E04F46C9F86000FFF7D6FBE4
:10280000064604E0FFF7D2FB801B022829D828687F
:102810008001F7D4D4E907010843A16A2D4A490889
:1028200002EB0141626A41EA8211084394F82C10DC
:1028300040EA0161CAF8001001203866FFF7B6FBD4
:10284000044605E03CE0FFF7B1FB001B022808D876
:1028500028688001F7D533E0FFF7A8FB001B0228AA
:1028600002D90320BDE8F88F28688001F4D427E05E
:102870000128F7D0DAF80000E26900F48001914203
:102880001CD1226A00F03F01914217D147F6C07176
:10289000626A0140B1EB821F10D1A26A4FF0FF3390
:1028A00000F4403103EB5202B1EB024F06D194F831
:1028B0002C1000F07060B0EB016F01D00120D1E767
:1028C0000020CFE70438024000004742800E474214
:1028D000007000400000FFFF7047000038B501683D
:1028E00004464A688868C043430606D5C30704D136
:1028F000D3435B0601D4216C05E0830708D4D3439E
:102900001B0605D4616C01B02046BDE83040084785
:10291000830603D5430601D5C30551D4D3439B0693
:102920004ED443060AD494F85130032B49D0636D3A
:1029300043F004036365CB688B680093830609D476
:10294000636D43F0010363658B6800930B6823F0AC
:1029500040030B60C00506D4606D40F00800606560
:10296000206880680090606D002829D02068416848
:1029700021F0E0014160012084F85100900701D46A
:10298000D00722D02068416821F003014160114D39
:10299000E06C40B10565E06CFFF754F818B1606D6C
:1029A00040F040006065A06C002809D00565A06C6F
:1029B000FFF748F8002803D0606D40F040006065E4
:1029C00038BDC8688868009038BD2046FFF784FF8E
:1029D00038BD00005D4B000870B5040009D0606A86
:1029E000002540B125616561A56294F8510040B1B0
:1029F0000CE0012070BD6068B0F5827FF4D0E56125
:102A0000F2E784F85050204600F044F8022084F8A1
:102A100051002068016821F040010160A0882189EF
:102A200000F4827001F404410843A18901F40061BB
:102A30000843217C01F002010843217D01F00101DE
:102A40000843218B01F400710843217F01F0380114
:102A5000084394F8201001F080010843218D01F40F
:102A60000051084321680860A069042101EA104070
:102A700094F8241001F01001084321684860206890
:102A8000C16921F40061C1616565012084F85100CC
:102A9000002070BD2DE9F04387B00446142168463C
:102AA000FDF732FD38492068884269D13748002552
:102AB000016841F480510160006800F48050059085
:102AC00032481438016841F002010160016801F0E8
:102AD00002010591016841F00101016000680226D0
:102AE00000F001000590182001274FF003084FF077
:102AF00005098DE8C10369462548FFF769F980207B
:102B00008DE8C10369462348FFF762F9234E224846
:102B10004FF0C0673060C6E901754FF48068C6E9C0
:102B2000035875617812B561C6E907503046756281
:102B3000FFF76AF808B1FEF786F8E664B463174E4B
:102B4000154860361830E6E802074020A6E8210163
:102B5000C00246F81459B561C6E907500F487562BE
:102B60006030FFF751F808B1FEF76DF8A664002257
:102B700005212320B463FFF7C5FB2320FFF7B4FB37
:102B800007B0BDE8F0830000003001404438024047
:102B9000000402400000024040640240B40B0020E8
:102BA0002DE9F84F044690F8500001250A9E1F4673
:102BB00092468B464FF0000801280ED0012084F881
:102BC0005000FFF7F3F9814694F85100616801283D
:102BD0000CD0B1F5827F07D102E00220BDE8F88F6A
:102BE000A16809B9042801D00220B6E0BBF1000FAA
:102BF00027D0BAF1000F24D01FB394F85100042855
:102C000002D0052084F8510000206065C4F838A087
:102C1000E787A787C4F830B0E786A786206460649A
:102C200020680168490603D4016841F04001016051
:102C3000E068B0F5006F606805D0E8B3012F43D0BD
:102C400079E0012089E008B1012F34D1206B21689F
:102C50000088C860206B801C2063E08E401EE086E8
:102C600029E02068816889070DD5E18E59B1012DD1
:102C700009D1216B0988C160206B801C2063E08E24
:102C8000401EE086002520688168C9070BD0E18FCF
:102C900049B1C068A16B0880A06B801CA063E08F65
:102CA000401EE0870125FFF781F9A0EB0900B04243
:102CB00001D3701C50D100E006E0E08E0028D0D196
:102CC000E08F0028CDD13CE0206B216800780873AC
:102CD000206B401C2063E08E401EE0862BE02068C5
:102CE000816889070DD5E18E59B1012D09D1216B7C
:102CF00009780173206B401C2063E08E401EE08643
:102D0000002520688168C9070BD0E18F49B1C068F0
:102D1000A16B0870A06B401CA063E08F401EE08791
:102D20000125FFF743F9A0EB0900B04202D3701C64
:102D300001D011E086B1E08E0028D0D1E08F0028CC
:102D4000CDD14A463146204601F010FF38B120204F
:102D50004FF00108606508E00320804605E0A068A8
:102D600018B92068C16880680090012084F851007B
:102D7000002084F85000404630E77047704700005C
:102D800070B590F83C20012A32D0012580F83C50E3
:102D9000022280F83D2002685368946823F0700690
:102DA0000B6833435360134B02689A4214D0B2F15C
:102DB000804F11D0104B9A420ED0104B9A420BD03C
:102DC0000F4B9A4208D00F4B9A4205D00E4B9A42B5
:102DD00002D00E4B9A4204D1496824F08003194373
:102DE000916080F83D50002180F83C10084670BD8D
:102DF000022070BD000001400004004000080040B7
:102E0000000C004000040140004001400018004058
:102E100010B5040003D094F83D0010B107E0012084
:102E200010BD002084F83C00204600F01FF802206E
:102E300084F83D00211D206802F07CF8012084F810
:102E4000460084F83E0084F83F0084F8400084F88F
:102E5000410084F8420084F8430084F8440084F878
:102E6000450084F83D00002010BD000008B5006852
:102E70003E4A3F49904223D1086840F00100086073
:102E80000868002200F00100009005211820FFF7DB
:102E900039FA1820FFF728FA002205211920FFF738
:102EA00031FA1920FFF720FA002211461820FFF707
:102EB00029FA0022BDE8084011461920FFF722BA7E
:102EC000B0F1804F19D02B4A904227D1086840F0CA
:102ED000020008600868002200F00200009005214E
:102EE0002B20FFF70FFA2B20FFF7FEF90022052118
:102EF0002C20FFF707FA2C2033E01D48001F016843
:102F000041F0010101600068002200F00100009022
:102F100005211C20FFF7F6F91C2022E0164A9042FA
:102F20000ED1086840F4803008600868002200F480
:102F30008030009005211820FFF7E4F9182010E0F8
:102F40000E4A904211D1086840F4003008600868C9
:102F5000002200F40030009005211920FFF7D2F97B
:102F60001920BDE80840FFF7BFB908BD00000140C7
:102F70004438024000040140004001400044014048
:102F800090F83D10012901D001207047022180F8FE
:102F90003D100168CA6842F00102CA600068114928
:102FA000884214D0B0F1804F11D00F4988420ED022
:102FB0000E4988420BD00E49884208D00D498842FC
:102FC00005D00D49884202D00C49884204D181685D
:102FD00001F00701062903D0016841F001010160F9
:102FE000002070470000014000040040000800403D
:102FF000000C004000040140004001400018004067
:1030000070B5044690F83C000025012817D0012631
:1030100084F83C60022084F83D002068826822F039
:10302000770222F47F4282600868502838D00DDC95
:1030300020284FD005DC90B3102811D14AE002209F
:1030400070BD302846D040280AD13BE060282FD000
:1030500070280DD0B0F5805F03D0B0F5005F12D0BE
:10306000012584F83D60002084F83C00284670BDAE
:10307000CB68D1E90121206801F0CDFF206881688B
:1030800041F0770109E0CB68D1E90121206801F026
:10309000C2FF2068816841F480418160E1E719E066
:1030A000CA684968206802F08BF85021206806E061
:1030B000CA684968206802F094F86021206801F02D
:1030C000B4FFCEE7CA684968206802F079F8402169
:1030D0002068F4E7226801461046F0E7704770B5B3
:1030E0000446006801694FF00005C943890715D4FB
:1030F000C168C943890711D4E91E01610120207705
:10310000206880698007204602D0FFF7E7FF04E0CF
:1031100000F0C2F8204600F054F9257720680169D4
:10312000C943490717D4C168C943490713D46FF08D
:1031300004010161022020772068806910F4407F3B
:10314000204602D0FFF7CAFF04E000F0A5F82046B1
:1031500000F037F9257720680169C943090716D4BB
:10316000C168C943090712D46FF008010161042046
:1031700020772068C0698007204602D0FFF7AEFFA5
:1031800004E000F089F8204600F01BF9257720685C
:103190000169C943C90617D4C168C943C90613D414
:1031A0006FF010010161082020772068C06910F4D9
:1031B000407F204602D0FFF791FF04E000F06CF85A
:1031C000204600F0FEF8257720680169C943C90749
:1031D00008D1C168C943C90704D1891E01612046CD
:1031E00000F058F920680169C943090609D4C1688B
:1031F000C943090605D46FF0800101612046FFF73D
:10320000BCFD20680169C943490609D4C168C943A6
:10321000490605D46FF040010161204600F044F9F1
:1032200020680169C94389060BD4C168C94389066E
:1032300007D46FF0200101612046BDE87040FFF720
:103240009DBD70BD10B586B0044614216846FDF7DB
:103250005BF90E492068884215D10D48016841F09C
:10326000200101600068012100F02000059040204D
:1032700000900220CDE901010390032004906946EB
:103280000448FEF7A5FD06B010BD00000044014053
:103290003038024000140240704770B5044690F880
:1032A0003C0000260D4601280FD0012084F83C0088
:1032B0006AB1042A1DD0082A2FD00C2A3FD001263B
:1032C000002084F83C00304670BD022070BD2068AC
:1032D00001F0B4FE2068816941F008018161206835
:1032E000816921F004018161206881692A691143A3
:1032F00011E0206801F0D2FE2068816941F400618C
:1033000081612068816921F480618161206881691F
:103310002A6941EA02218161D2E7206801F0F4FEC6
:103320002068C16941F00801C1612068C16921F0CC
:103330000401C1612068C1692A69114311E0206854
:1033400001F016FF2068C16941F40061C161206885
:10335000C16921F48061C1612068C1692A6941EABB
:103360000221C161ACE710B5040003D094F83D0020
:1033700010B107E0012010BD002084F83C00204679
:1033800000F01EF8022084F83D00211D206801F0A5
:10339000D1FD012084F8460084F83E0084F83F0007
:1033A00084F8400084F8410084F8420084F8430027
:1033B00084F8440084F8450084F83D00002010BDE6
:1033C0007047704710B5044649B104290AD008294E
:1033D0000BD094F8410001280AD0012010BD94F8C8
:1033E0003E00F8E794F83F00F5E794F84000F2E774
:1033F0000220B1B3042938D0082939D084F841001B
:103400000122206801F0FAFD1B4920681B4A88420E
:1034100001D0904203D1436C43F4004343642068DD
:10342000884213D0B0F1804F10D0154988420DD09A
:10343000144988420AD01449884207D0904205D0E6
:103440001249884202D01249884204D1816801F0B1
:103450000701062903D0016841F001010160002045
:1034600010BDFFE784F83E00CAE784F83F00C7E7D5
:1034700084F84000C4E7000000000140000401405F
:103480000004004000080040000C004000400140E3
:103490000018004000680349884201D1FEF79ABE37
:1034A00070470000000400407047704710B50446A4
:1034B0000068406994F83D10C0F3C010212911D173
:1034C00080B12068143050E8001F21F0800140E8EE
:1034D0000012002AF5D1606B08B1FEF76AFA2046A7
:1034E00001F059FF2068406994F83E10C0F3801045
:1034F000222911D180B12068143050E8001F21F03A
:10350000400140E80012002AF5D1A06B08B1FEF797
:1035100050FA204601F018FF002010BD704700004F
:10352000F8B5016804460868CA684B6910F00F0FC7
:103530004FF000055AD003F0010602F490773743AC
:1035400065D0C10705D0D10503D5216C41F001013B
:103550002164410705D5D90703D0216C41F0020150
:103560002164810705D5D90703D0216C41F00401FE
:103570002164010707D502F02001314303D0216CFB
:1035800041F008012164216C00293BD0800604D55C
:10359000900602D5204601F00CFF20684069216C9E
:1035A000C0F3801001F00801014320462BD001F048
:1035B000CBFE20684069400621D52068143050E8D1
:1035C000001F21F0400140E80012002AF5D1A06B55
:1035D000A8B16C490165A06BFEF734FA002811D040
:1035E000A06B016D01B0BDE8F040084783060ED521
:1035F00093060CD52046BDE8F84001F0DABE20461F
:10360000FFF78CFFF8BDFFF789FF2564F8BD266B37
:103610002023012E79D1C60677D5D60675D5086840
:10362000486800904869400640D5A16B086840682A
:103630000004000CEAD0A28D8242E7D9E085C86977
:10364000B0F5807F2DD020680C3050E8001F21F4A9
:10365000807140E80012002AF5D12068143050E84B
:10366000001F21F0010140E80012002AF5D1206876
:10367000143050E8001F21F0400140E80012002AF9
:10368000F5D184F83E30256320680C3050E8001FE7
:1036900021F0100140E80012002AF5D1A06BFEF7DE
:1036A00088F9A08DE18D401A81B229E0A08DE18DCD
:1036B000401A81B2E08D0028A8D00029A6D0206849
:1036C0000C3050E8002F22F4907240E80026002EC3
:1036D000F5D12068143050E8002F22F0010240E8B4
:1036E0000026002EF5D184F83E30256320680C308A
:1036F00050E8002F22F0100240E80023002BF5D103
:103700002046FFF7D2FEF8BDFFE705062BD51506CC
:1037100029D594F83D002128F5D1A068B0F5805F47
:1037200001D12069B0B1206A411C21622168007872
:103730004860E08C401E0004000CE084E3D1206867
:10374000C16821F08001C1602068C16841F040017A
:10375000C160D8E7206A0088C0F308004860206A8A
:10376000801C2062E5E74006CDD55006CBD5CA685F
:10377000204622F04002CA6084F83D3000F0F6F99D
:10378000C1E700000752000870B5040004D094F8A7
:103790003D00002510B106E0012070BD84F83C50CA
:1037A000204600F023F8242084F83D002068C168FA
:1037B00021F40051C160204601F05CFE20680169DF
:1037C00021F4904101612068416921F02A014161A1
:1037D0002068C16841F40051C1602564202084F84C
:1037E0003D0084F83E00002070BD00002DE9F04F40
:1037F00087B0044614216846FCF786FEA148DFF82E
:1038000080821438D4F800C09E4B02210322871511
:10381000002506154FF0070A4FF04009C4456CD14A
:10382000D3F800C04CF0100CC3F800C01B6803F0C4
:1038300010030593036843F002030360036803F079
:1038400002030593036843F00103036000688846A0
:1038500000F0010005908020CDE90008CDE902527A
:1038600093466946CDF810A08748FEF7B1FA70106C
:10387000CDE90008CDE9025B6946CDF810A0834888
:10388000FEF7A6FADFF80C82814940464FF0006A45
:10389000C8F80010C0E901A5C0E90356C8F81450E3
:1038A000C0E90657C8F82050C8F82450FEF7ACF914
:1038B00008B1FDF7C8F9774FC4F838806037C8F809
:1038C0003840C7F80890C7E903567D61BD6170486C
:1038D000FD613D6230307D62C7E9000A3846FEF77F
:1038E00093F908B1FDF7AFF96763002205212520A0
:1038F000BC63FEF707FD25205EE0DFF89C81C44530
:103900005FD1604B1B1FD3F800C04CF4802CC3F870
:1039100000C01B6803F480230593036843F004038D
:103920000360006800F0040005904FF440608DE8EB
:103930002300CDE9032A69465848FEF749FADFF823
:103940005481574908F1C0084046C8F800104FF0AC
:10395000006AC0E901A5C0E90356C8F814504FF445
:103960004031C8F81850C8E90771C8F82450FEF76C
:103970004BF908B1FDF767F94A4FC4F83880C8F829
:103980003840C7F80890C7E903567D61BD614448D7
:10399000FD613D6230307D62C7E9000A3846FEF7BE
:1039A00033F908B1FDF74FF967630022052127209D
:1039B000BC63FEF7A7FC2720FEF796FC07B0BDE826
:1039C000F08FDFF8E480C445F8D1D3F800C04CF0A4
:1039D000200CC3F800C01B6803F0200305930368A4
:1039E00043F040030360006800F0400005904FF48E
:1039F00084408DE823000820CDE9032069462B4848
:103A0000FEF7E6F9DFF89C80214908F1600860398B
:103A100040464FF0206AC8F80010C0E901A5C0E98F
:103A20000356C8F81450C0E90657C8F82050C8F823
:103A30002450FEF7E9F808B1FDF705F9194FC4F86D
:103A40003880C037C8F83840C7F80890C7E903562F
:103A50007D61BD610E48FD613D6218307D62C7E940
:103A6000000A3846FEF7D0F808B1FDF7ECF86763B6
:103A7000002205214720BC63FEF744FC47209BE75A
:103A8000001001404438024000040240000002409F
:103A900088640240A80E0020004800400008024050
:103AA00028600240C80F00200014014000180240A6
:103AB00090F83E30202B0ED159B152B190F83C30E5
:103AC000012B08D0012380F83C300023036301F070
:103AD00057BD0120704702207047704770470000B3
:103AE000F7B5044690F83D00202837D1019991B3ED
:103AF0008AB394F83C00012830D0012084F83C00BF
:103B00002162A284E28400252564212084F83D00FE
:103B1000636B1348D863636B12481864636B124875
:103B2000D864606B134605652668606B321DFEF72E
:103B3000D5F821686FF04000086084F83C50206898
:103B4000143050E8001F41F0800140E80012002AC4
:103B5000F5D10020FEBDFFE70120FBE70220F9E7D9
:103B6000FD5200083F530008175200087047704785
:103B7000FEE7000008B5072000E0642002F016FF11
:103B8000FCF7FEFD0028F8D1714A0092A2F1100561
:103B9000101D291D8346FCF70BFE00F0EBF82A46AA
:103BA000A2F14001A1F10C0002F092FDDFED690AE3
:103BB0009FED690A694A002105F1300000F000FE1E
:103BC000A5F13402A2F10C0101F11800FCF730FD5F
:103BD000A5F14009A5F1580799ED000AA5F1640483
:103BE00087ED000AA4F10C0884ED000A88ED000AB4
:103BF00099ED010A002087ED010A84ED010A88EDA4
:103C0000010A99ED020A87ED020A84ED020A88EDA5
:103C1000020A02F001FF03F0B1FD514E51497062FA
:103C20001020C8610846FEF7D7FE08B1FDF70BF873
:103C30004B4908223431A1F1080000F009FF0120AE
:103C4000F0704FF0FF3A5146012003F0B1FA01281D
:103C5000F9D13078400708D5307820F00400307072
:103C60003F4859463530FCF75BFD707840070AD570
:103C7000707820F004007070354A291D1032A2F1CE
:103C80002A00FCF707FDB07840070CD5B07820F08B
:103C90000400B070324800992A30FCF763FE95EDBD
:103CA000040A02F0E7FD2A4A103AA2F14001A1F10C
:103CB0000C0002F00DFD94ED000A9FED2B1A88ED2B
:103CC000000AD7ED000A9FED293AC4ED000A60EE24
:103CD000811ADFED273A1E4840EE031A99ED000ADB
:103CE0005C3840EE231AC7ED001A94ED010A88ED06
:103CF000010AD7ED010AC4ED010A20EE812A00EE87
:103D0000032A99ED010A00EE232A87ED012A94ED9A
:103D1000020A88ED020AD7ED020AC4ED020A60EE3B
:103D2000812A40EE032A99ED020A40EE232AC7EDCC
:103D3000022A90EC030A243000F0B8FB044B203B2D
:103D40001A1F111FA1F1100002F080FB7BE7000099
:103D5000AC4F00200080894500A08C45D08300082E
:103D6000080100205C0B00205AF8F63F5D896EBF09
:103D7000D5A9183B2DE9F04100252DED048B44F623
:103D8000206743E0254AA2F11006311D101DFCF703
:103D90000FFD706904F03CFA9FED218B53EC182B5A
:103DA00004F04EF806F1780441EC190B206804F099
:103DB0002FFA53EC192B04F041F903F0F7FD2060C2
:103DC000B06904F025FA53EC182B04F039F841ECF3
:103DD000190B606804F01CFA53EC192B04F02EF94F
:103DE00003F0E4FD6060F06904F012FA53EC182B64
:103DF00004F026F841EC180BA06804F009FA53EC23
:103E0000182B04F01BF903F0D1FDA06028466D1CAF
:103E1000B842B7DBBDEC048BBDE8F081AC4F0020AD
:103E20002D431CEBE2360A3F0F4810B50D490160E7
:103E30000321416000214FF410228160C0E9031288
:103E40004FF400124261017641768176C1760177A6
:103E50004177FDF772FB002803D0BDE81040FCF766
:103E6000F2BE10BD00640040B80A00200F4810B533
:103E70000D4901600321416000214FF4102281604F
:103E8000C0E903124FF40012426101764176817657
:103E9000C17601774177FDF750FB002803D0BDE8DC
:103EA0001040FCF7D0BE10BD00680040E00A0020C2
:103EB000294808B5016841F480010160016801F4F6
:103EC00080010091016841F4001101600068002246
:103ED00000F40010009005210C20FEF713FA0C20CE
:103EE000FEF702FA002205210E20FEF70BFA0E2043
:103EF000FEF7FAF9002205213920FEF703FA3920EE
:103F0000FEF7F2F9002205213A20FEF7FBF93A20EC
:103F1000FEF7EAF9002205213B20FEF7F3F93B20EA
:103F2000FEF7E2F9002205214420FEF7EBF94420D8
:103F3000FEF7DAF9002205214520FEF7E3F94520D6
:103F4000FEF7D2F9002205214620FEF7DBF9BDE895
:103F500008404620FEF7C8B93038024010B5AAB074
:103F60001C2221496846FCF795FA0021684602F0B8
:103F700029FD1E4C1C491C22A0601C3107A8FCF71F
:103F800089FA002107A802F01DFD174960601C2274
:103F900038310EA8FCF77EFA00210EA802F012FDBF
:103FA0001149E0601C22543115A8FCF773FA002176
:103FB00015A802F007FD0C4920611C2270311CA8D5
:103FC000FCF768FA00211CA802F0FCFC06496061BD
:103FD0001C228C3123A8FCF75DFA002123A802F0F3
:103FE000F1FC20602AB010BD288300089C0000204E
:103FF0002DE9F04786B014216846FCF785FA5E4843
:104000004FF0000A016841F002010160016801F00F
:1040100002010591016841F040010160016801F071
:1040200040010591016841F001010160016801F062
:1040300001010591016841F008010160016801F08A
:1040400008010591016841F004010160016801F077
:1040500004010591016841F080010160016801F0EF
:1040600080010591016841F0200101600068434E24
:1040700000F020000590012240213046FDF790FF1E
:104080003F4F4FF4E055002229463846FDF788FFA0
:10409000DFF8F080012210214046FDF781FFDFF8B4
:1040A000E890012241F201014846FDF779FF012421
:1040B0004020CDE900040294694630460394FDF7A0
:1040C00087FECDE90054CDE9024A69463846FDF73E
:1040D0007FFE092000904FF48810CDE90104694665
:1040E0003046FDF775FE1020CDE900040225694633
:1040F0004046CDE90245FDF76BFE302000904FF4BD
:104100000410CDE9010469462048FDF761FE200353
:10411000CDE900040294694648460394FDF758FE31
:104120000094694648460194CDE90245FDF750FEEA
:10413000062100220846FEF7E5F80620FEF7D4F82F
:10414000002205210920FEF7DDF80920FEF7CCF852
:10415000002205210A20FEF7D5F80A20FEF7C4F850
:10416000002205211720FEF7CDF81720FEF7BCF836
:1041700006B0BDE8F0870000303802400018024069
:10418000001C0240000002400004024000080240FF
:104190000D4810B50B4901600C49416000214FF4F6
:1041A00080428160C0E9031241618161C1610162A5
:1041B000FDF702FF002803D0BDE81040FCF743BD27
:1041C00010BD0000005C0040080B0020801A0600B3
:1041D000104810B50E4901604FF482714160002112
:1041E00002228160C0E9031201224261520282610F
:1041F0001022C0E90721416281620A21C162FEF7F3
:10420000EBFB002803D0BDE81040FCF71CBD10BD3F
:10421000003001405C0B002010B588B01C216846BE
:10422000FCF772F9144813490024C0E900144FF652
:10423000FF71C0E9024104618461FEF7E9FD08B144
:10424000FCF701FD0C48FFF78EF808B1FCF7FBFC0A
:104250006020CDE9000402940022694606480494D7
:10426000FFF71BF808B1FCF7EEFC0348FEF7EAFF86
:1042700008B010BD00440140940D002010B586B078
:104280000024174800940194029403940494134961
:104290000594016044F29F11C0E901146321C0E953
:1042A000031444618461FEF7B3FD08B1FCF7CBFC55
:1042B0004FF48050009069460948FEF7A1FE08B10E
:1042C000FCF7C1FC049404A905480594FEF758FDC9
:1042D000002801D0FCF7B7FC06B010BD000001407B
:1042E000740C002010B586B0002416480094019488
:1042F0000294039404944FF080410594016042F2CB
:10430000D001C0E901146321C0E903148461FEF700
:104310007FFD08B1FCF797FC4FF480500090694690
:104320000848FEF76DFE08B1FCF78DFC049404A963
:1043300004480594FEF724FD002801D0FCF783FC17
:1043400006B010BDBC0C002010B586B00024174884
:104350000094019402940394049413490594016019
:1043600044F29F11C0E901146321C0E903144461C0
:104370008461FEF74DFD08B1FCF765FC4FF48050F9
:10438000009069460948FEF73BFE08B1FCF75BFC6C
:10439000049404A905480594FEF7F2FC002801D016
:1043A000FCF751FC06B010BD00040140040D0020D4
:1043B0001FB5002011490090019002900E4A039011
:1043C0000A6044F29F12C1E901206322C1E903207F
:1043D00088610846FEF71CFD08B1FCF734FC4FF479
:1043E0008050009069460548FEF70AFE002801D07B
:1043F000FCF729FC1FBD0000004001404C0D0020CF
:104400000C4810B50A4901604FF4E13141600021C8
:1044100081600C22C160C0E904128161C161FFF7B3
:10442000B3F9002803D0BDE81040FCF70CBC10BD68
:1044300000100140DC0D00200C4810B50A49016055
:104440000B494160002181600C22C160C0E9041267
:104450008161C161FFF798F9002803D0BDE81040E1
:10446000FCF7F1BB10BD000000480040200E00200A
:10447000A08601000C4810B50A4901604FF4E131F3
:104480004160002181600C22C160C0E90412816199
:10449000C161FFF779F9002803D0BDE81040FCF7AF
:1044A000D2BB10BD00140140640E0020F5EEC01A0E
:1044B000B0EE413AF0EE603AB0EE404AF1EE10FA5A
:1044C00000B5024609D1B5EEC02AF1EE10FA04D1CA
:1044D000F5EEC02AF1EE10FA78D021EEA10A02EE34
:1044E000020A02EEA20A02F003FA61EE804AD2ED5D
:1044F000011AD2ED030A22EE005A62EE802A92EDF2
:10450000000A21EEA02A92ED021A60EE211A5D48FF
:1045100000EE412A41EE201AB6EE001A10EE001A03
:1045200022EE820A00EEA01A65EE010A04EEC10A2C
:1045300024EEA11A42EEE10AD0ED041A05EE421A69
:10454000F5EEC01AF1EE10FA2CDDD0ED041A90ED64
:10455000052A61EEA02ADFED4C1A02EEA12A80EDB9
:10456000052A90ED042A62EE002A90ED062A02EE5A
:10457000A12A80ED062A90ED042A62EE012A90ED30
:10458000072A02EEA12A80ED072AD0ED051A34EEA3
:10459000214AD0ED061A73EEA13AD0ED071A33EE98
:1045A000213A07E0DFED391AC0ED051AC0ED061A11
:1045B000C0ED071AD0ED031A01EEA04AD0ED030AB0
:1045C00040EE803A90ED030A00EE013A9FED301A7A
:1045D00092ED012AD2ED021A24EE010A63EE810A5D
:1045E00023EE011A92ED033A62EE403AD2ED002A30
:1045F00041EEE03A43EE413A73EEA24A62EE803A6F
:10460000C2ED004A41EE813A43EE603A33EE824A0F
:1046100062EEA03A82ED014A42EE413A22EE811A60
:1046200002EE201A43EE003A01EEC01A24EEA40A6C
:1046300073EEA13A04EE040A71EE030AC2ED023AE7
:10464000C2ED030A03EEA30A00EEA00A02F050F93D
:10465000D2ED000A60EE800AC2ED000AD2ED010A36
:1046600060EE800AC2ED010AD2ED020A60EE800A15
:10467000C2ED020AD2ED030A20EE800A82ED030A9F
:1046800000BD0000080100206F12833A0000000006
:104690006F12033AFEE7FEE7A0B1D0ED101AC0EDAD
:1046A000111A90ED0F1A80ED101AC0ED060A80ED78
:1046B000070A30EEC00A80ED0F0A017829B10129FE
:1046C0003BD078E09FED3D0A7047D0ED010A60EEE7
:1046D000801AC0ED091AD0ED0A0A90ED022A42EEC6
:1046E000000A30EE410AC0ED0A0A90ED0D2A80ED75
:1046F0000E2A90ED0C2A80ED0D2A80ED0C0A90ED2B
:10470000031A21EE001A80ED0B1A90ED050AF4EE63
:10471000C00AF1EE10FA09DCB1EE400AF4EEC00A6C
:10472000F1EE10FA02D390ED0A0A01E080ED0A0AD8
:1047300031EE800A30EE010A2BE070EE410A90ED76
:10474000012A60EE820AC0ED090A90ED022A22EEEB
:10475000002A80ED0A2AD0ED0D2A70EE820AC0ED03
:104760000E2AD0ED0C2AC0ED0D2AF0EE002A01EE43
:10477000620A30EE210A80ED0C0A90ED031A21EE58
:10478000000A80ED0B0A30EE800AD0ED080A30EE08
:10479000200A80ED080AD0ED040AB4EEE00AF1EE3A
:1047A00010FA06DCF1EE600AB4EEE00AF1EE10FA5F
:1047B00001D2C0ED080A90ED080A70470000000021
:1047C000002828D0002A26D0017092ED001A80ED32
:1047D000011A92ED011A80ED021A92ED021A80ED93
:1047E000031A80ED040A9FED0C0AC0ED050A80ED66
:1047F0000E0A80ED0D0A80ED0C0A80ED080A80EDAE
:104800000B0A80ED0A0A80ED090A80ED110A80ED9D
:10481000100A80ED0F0A7047000000002DED048B98
:1048200082B001F0B1FE9FED448ADFF81081DFF81D
:104830001091444FDFED448ADFF810A1444D454EFE
:10484000454C46489FED469ADFF818B1009085ED3B
:10485000048A85ED058AB08E2080B6F8400060801D
:1048600098ED010A84ED010A99ED010A84ED020A2E
:10487000F87A032804D0012802D0022803D01AE0D5
:1048800001F0EEFE02E03848007810B101F0D4FEED
:1048900011E036480078012802D002280BD104E04C
:1048A00094ED030A30EE680A03E094ED030A30EE5B
:1048B000280A84ED030AE068504509D994ED010AFD
:1048C000B5EEC00AF1EE10FA02D0BAEE040A0BE01F
:1048D000274988420ADB94ED010AB5EEC00AF1EEE1
:1048E00010FA03D0B3EE040A84ED030AD4ED010AF2
:1048F00094ED030A009802F0F3F8D5ED040A584647
:1049000030EEC00A85ED040AD4ED020A60EE890A91
:10491000C4ED040AF1EE600A02F08EF8BDEEC00AA2
:1049200010EE100A70864042F08701F009FE012067
:1049300002F03CF88BE7000000000000844F0020EC
:10494000504F0020204E00208FC2F53C000020C1B7
:10495000E401002060020020CC000020C8070020F5
:10496000CDCC18415C060020E8000020100000209B
:104970000000A0412DE9F74F314C8E4620680168B8
:1049800021F0010101602F4B1868016821F001013D
:10499000016020680168C907F7D103E0016821F0D0
:1049A0000101016018680168C907F7D1DFF898C0F4
:1049B000264DDFF89480DFF894B02168ACF14C0C00
:1049C000DFF88890B83D4FF40016ACF1040AABF163
:1049D000600B414502D9CCF8006009E0494502D995
:1049E000CAF8006004E0594501D9EE6000E0AE600D
:1049F0001F684FF00066474502D9CCF8006009E017
:104A0000484502D9CAF8006004E0584501D9EE6073
:104A100000E0AE60C1F80CE019680098C86020683A
:104A20004260186842602068016841F0010101603D
:104A30001868016841F001010160BDE8FE8F0000C7
:104A4000B40B0020140C002058640240B8600240EF
:104A50002DE9F04F384B83461868446844F002044F
:104A600044601868446844F00104446018680368AE
:104A700043F040030360DFF8C4C0DCF800000368C3
:104A800023F001030360DCF800000368DB07F6D1C4
:104A90002B4D2C4B2A4C4C3DDFF8A8A0294EB83B9F
:104AA0004FF40017A5F10409AAF1600AA04201D948
:104AB0002F6009E0B04202D9C9F8007004E0504507
:104AC00001D9DF6000E09F601F4F8760DCF80000C5
:104AD000C160DCF800004260DCF80000016841F0D1
:104AE0001001016019490868D0F800C02CF0010CD1
:104AF000C0F800C00868D0F800C05FEACC7CF3D1F1
:104B00004FF0006CA04202D9C5F800C00BE0B042E3
:104B100002D9C9F800C006E0504502D9C3F80CC05C
:104B200001E0C3F808C087600B68C3F80CB00868E0
:104B30004260BDE8F08F00005C0B0020B40B002049
:104B400058640240B86002400C300140140C002050
:104B50000148FDF7C3BE00005C0B002010B5806B60
:104B60000021C187C186FDF7B7FE10BD38B50446E8
:104B70001248134D4FF47A730068B0FBF5F05843B8
:104B800000906068B0F5827F0DD10B460092002244
:104B90008021204600F016F870B1606D40F02000D2
:104BA0006065032038BD009830B1401E0090206839
:104BB0008068C0430006F6D5002038BD24000020E0
:104BC00000366E012DE9F8431E469146884604469C
:104BD000089DFDF7EBF9401B351AFDF7E7F907468D
:104BE00025480068C0F3CB30684338E0701C37D0EC
:104BF000FDF7DCF9C01BA84203D215B1009860B3E1
:104C00002CE02068416821F0E00141606068B0F567
:104C1000827F0BD1A068B0F5004F02D0B0F5806F55
:104C200004D12068016821F040010160A06AB0F55C
:104C3000005F09D12068016821F4005101602068FB
:104C4000016841F400510160012084F85100002006
:104C500084F850000320BDE8F8830025401E009032
:104C60002068816838EA010004D000204845BDD1A1
:104C70000020F0E70120F9E724000020012001F0E6
:104C800095FEFBE710B50122D1022648FDF788F911
:104C900025485A239FED260A037041784AF6AA2434
:104CA00021F0FE0141F00102204918324270D1ED9D
:104CB000020A80EE801A80ED011AD1ED010A80EE21
:104CC000801A80ED021AD1ED000A80EE801AB6EE4D
:104CD000000A80ED031A80ED040A80ED050AB1EEAA
:104CE000040A80ED060A84838C3800F1800180F884
:104CF000643080F865200A6940F8662F4A6942608E
:104D00008A698260CA69C2600A6A0261496A41614D
:104D1000048305491C22BDE8104028390548FEF7E8
:104D2000DFBE0000001C02400C4F0020844F00201A
:104D300033336542DC0D002010B5502080F311881C
:104D4000BFF34F8FBFF36F8F02F068FD18B10449B6
:104D50004FF080500860002080F3118810BD0000E3
:104D600004ED00E030B593B030216846FBF7CCFB92
:104D700014210CA8FBF7C8FB1D480025016841F071
:104D800080510160006800F080501190194801685E
:104D900041F4804101600068022400F480401190D9
:104DA00001200090000401908001CDE9064006201A
:104DB0000890A820CDE9090404200B906846FDF76F
:104DC000DFFB08B172B6FEE70CA90F2081E83100C5
:104DD0004FF4A0500F904FF48050109005210CA874
:104DE000FDF7C2FA002801D072B6FEE713B030BD5D
:104DF00040380240007000400248016841F47001F0
:104E00000160704788ED00E010B50448FEF767F9CF
:104E1000BDE810400248FEF762B90000740C0020A3
:104E20004C0D0020254810B500680069C04380077C
:104E30003BD4234B0022187838B122490878401C13
:104E4000C0B20870C82800D11A701F48B0F93600E7
:104E5000002800DA40421D4C01231D495F2806DA74
:104E60004878401CC0B24870142808D000E04A704E
:104E7000887840B1C0B2401E8870237004E00720DB
:104E800088704A70F6E722708888401C80B288805B
:104E900064280AD18A800878012802D0022803D029
:104EA00003E00220087000E00B700448FEF717F9D9
:104EB000BDE810400748FEF712B90000740C00204E
:104EC000E8000020E900002000020020E0000020AF
:104ED00010000020940D002010B5094C206803F04C
:104EE00097F99FED081B53EC112B02F091FD02F096
:104EF0005DFD2060BDE810400448FEF7F0B80000FA
:104F000008000020F168E388B5F8E43EBC0C0020FE
:104F10000148FEF7E4B80000E81000200148FEF761
:104F2000DEB80000040D00200148FEF7D8B80000EC
:104F3000040D0020F0B50268254D264E264FDFF8FF
:104F40009CC0274B4FF0804EA84209D0704507D037
:104F5000B04205D0B84203D0604501D0984203D199
:104F600022F070044A682243A8421BD0704519D031
:104F7000B04217D0B84215D0604513D0984211D036
:104F8000184CA0420ED0184CA0420BD0174CA04297
:104F900008D0174CA04205D0164CA04202D0164CA7
:104FA000A04203D122F44074CA6822434C6922F023
:104FB0008002224302608A68C2620A688262A84252
:104FC00001D0984201D10969016301214161F0BD1D
:104FD000000001400004004000080040000C0040B8
:104FE00000040140004001400044014000480140ED
:104FF00000180040001C00400020004010B501F0E7
:105000001F010123046A8B409C430462036A8A40A7
:105010001343036210BD10B5846842EA032224F4EE
:105020007F440A432243826010BD826822F07002EE
:105030000A4342F00701816070470000F0B5026A40
:1050400022F001020262026A43688469114E24F070
:1050500073050C68104F2C4322F002058A682A431E
:10506000B04201D0B84205D122F00805CA682A43EF
:1050700022F00402B04201D0B84205D14D6923F4B8
:1050800040731D438B692B434360846149684163CE
:105090000262F0BD0000014000040140F0B5026A68
:1050A00022F010020262026A436884690D6824F4E7
:1050B000E64444EA05248D6822F0200242EA051203
:1050C0000F4D104EA84201D0B04206D1CF6822F059
:1050D000800242EA071222F04002A84201D0B04208
:1050E00007D14D6923F4406343EA85038D6943EAA0
:1050F000850343608461496881630262F0BD0000FA
:105100000000014000040140F0B5026A22F4807200
:105110000262026A4368C46922F4007224F07305D3
:105120000C68124E2C438D6842EA05220E4DA842AF
:1051300001D0B04206D1CF6822F4006242EA0722D1
:1051400022F48062A84201D0B04207D14D6923F415
:10515000405343EA05138D6943EA05134360C46174
:105160004968C1630262F0BD0000014000040140D3
:1051700030B5026A22F480520262036A4268C4694E
:105180000D6824F4E64444EA05248D6823F40053B2
:1051900043EA0533084DA84202D0084DA84204D185
:1051A0004D6922F4804242EA85124260C461496836
:1051B0000164036230BD00000000014000040140B2
:1051C00010B5046A036A23F001030362836923F0C4
:1051D000F00343EA021324F00A020A4383610262E5
:1051E00010BD10B5036A23F0100303628469036ADB
:1051F00024F4704444EA023223F0A00343EA01118C
:105200008261016210BD10B5806B0021C185C1842F
:10521000FEF784F910BD70B5846B2068406994F87E
:105220003D10C0F3C0100025212904D118B1E58438
:10523000204600F0B0F82068406994F83E10C0F3B2
:105240008010222904D118B1E585204600F07CF8B1
:10525000206C40F0100020642046FEF75FF970BD1E
:1052600010B50146806B09680968C9052FD4002173
:10527000C18501680C3151E8002F22F4807241E8A9
:105280000023002BF5D10168143151E8002F22F0E2
:10529000010241E80023002BF5D10168143151E8E7
:1052A000002F22F0400241E80023002BF5D12021FD
:1052B00080F83E10016B012909D101680C3151E8D9
:1052C000002F22F0100241E80023002BF5D1016BE2
:1052D000012902D0FEF701FC10BD818DFEF7E5F833
:1052E00010BD10B5806B016B012902D0FEF7F6FBF3
:1052F00010BD818D4908FEF7D8F810BD10B50146E4
:10530000806B09680968C90516D40021C184016849
:10531000143151E8002F22F0800241E80023002BD5
:10532000F5D101680C3151E8002F42F0400241E80C
:105330000023002BF5D110BDFEF718FC10BD10B5F1
:10534000806BFEF714FC10BD01680C3151E8002F92
:1053500022F4907241E80023002BF5D1016814314A
:1053600051E8002F22F0010241E80023002BF5D183
:10537000016B012909D101680C3151E8002F22F09D
:10538000100241E80023002BF5D1202180F83E10C7
:1053900000210163704701680C3151E8002F22F0B1
:1053A000C00241E80023002BF5D1202180F83D10F8
:1053B000704708B590F83E10222901D0022008BDA0
:1053C00081684FF48053994201D1026922B1826A07
:1053D00099421BD049B10AE00268816A5268C2F35F
:1053E00008020A80816A891C08E0016971B10168BC
:1053F000496801F07F011170816A491C8162C18D89
:10540000491E0904090CC18503D019E001684968E7
:10541000F1E70168CA6822F02002CA600168CA6820
:1054200022F48072CA6001684A6922F001024A616E
:10543000202180F83E10016B012903D0FEF74DFBBF
:10544000002008BD0021016301680C3151E8002FE4
:1054500022F0100241E80023002BF5D101680A6810
:10546000D20602D50A6849680091818DFEF71DF8C1
:10547000E6E7000070B5044600680169E26821F4BF
:10548000405111430161A1682069E26901436069EB
:10549000104301432068C26849F20C639A430A43EF
:1054A000C26020684169A26921F4407111434161E1
:1054B00031492068884202D03049884202D1FDF744
:1054C0001DF801E0FDF70AF8E269002319216425BF
:1054D0003226B2F5004F626828D0A0FB0101930F7D
:1054E0009200FAF741FF0146B0FBF5F06FF01802A9
:1054F000504301EB800006EB0010B0FBF5F000F02C
:10550000F002B1FBF5F002EB0012B1FBF5F06FF029
:105510001803584301EB800006EB0010B0FBF5F0D8
:1055200000F00F0021681044886070BDA0FB0101ED
:1055300092185B41FAF718FF0146B0FBF5F0020143
:10554000B1FBF5F06FF01803584301EB800006EB58
:10555000C000B0FBF5F000F0F80002EB4002B1FB38
:10556000F5F0584301EB800006EBC000B0FBF5F00E
:1055700000F00700D6E700000010014000140140D1
:1055800037B582B01346039A8262838500250446AC
:105590000564222084F83E00A16B1C48C863A16BFF
:1055A0001B480864A16B1B48C864A06B0565216893
:1055B000A06B091DFCF792FB206801684068009011
:1055C00084F83C50206948B120680C3050E8001F36
:1055D00041F4807140E80012002AF5D120681430AF
:1055E00050E8001F41F0010140E80012002AF5D107
:1055F0002068143050E8001F41F0400140E80012DC
:10560000002AF5D105B0002030BD0000615200082D
:10561000E3520008175200080D4808B500680168F9
:10562000C1F3001179B10168406800900848FDF7A6
:105630003DFF0848006840680749C0F164000870F1
:10564000064901200870BDE808400148FDF768BF21
:10565000DC0D0020A80E0020EA000020EB00002056
:1056600010B500F007F8BDE810400148FDF758BF3D
:10567000200E0020234818B400680168890604D56C
:1056800001684068009018BC70471F490968C90646
:10569000F9D5016840681D4A0090106801681C4CEB
:1056A000090301684FF0240321F001010160116832
:1056B0004868C0F1240080B220804B600FD411688C
:1056C0000B6843F400230B6011680A6842F0010282
:1056D0000A601228D7D10F4901F116000EE00E49D9
:1056E0008B6A23F400238B6211680A6842F001027E
:1056F0000A601228C7D1074901F13A0018BC01F02D
:10570000EDBC0000200E002000480040680F002083
:10571000B4000020204E0020006002400148FDF748
:10572000FFBE0000640E0020FEE700001249DFED1E
:10573000130AB1F9000000EE100AB8EEC00A20EE1C
:10574000200AF1EE0E0A20EE200AF3EE0E0A80EE99
:10575000201ABDEEC10A10EE100A00B2488000EE19
:10576000100A0749B8EEC00AD1ED060A30EE800AE9
:1057700081ED060A70470000B8000020A4709D3F2C
:10578000C8010020064807499FED071A90ED030A5B
:10579000D1ED000A00EEC10A80ED030A7047000057
:1057A000B8000020F4000020A69B443B10B515482B
:1057B0002DED028BB0F90000A0F5A271B1F5AA6F32
:1057C0001CD8A0F5806002F023FB9FED0F1B53EC6B
:1057D000112B02F0C5F99FED0E1B53EC112B02F0BB
:1057E0002FFB0D4C41EC180BE06802F011FD53EC5F
:1057F000182B02F023FC02F0D9F8E060BDEC028B1C
:1058000010BD0000204E00200000000000A08440D9
:10581000000000000000E03FB80000202DED048BE8
:105820008AB09FED588AB0EE482AF0EE481A9FEDF4
:10583000569AB0EE491ADFED550A9FED550A5548C4
:10584000099001F0B7F95448B0EE482AF0EE481A32
:10585000B2EE041AF0EE490AB3EE040A089001F021
:10586000A9F94E4CDFF838A1DFF8389194ED020A1F
:10587000DFF834B184ED030A0127DFED4C8A4C4D8B
:10588000DFF830810026B3EE048A85ED069A9AEDA2
:10589000000A84ED020A99F80B00022804D00128BE
:1058A00022D0032820D026E0B5EEC00AF1EE10FA8F
:1058B00021D04148007860B1FFF738FF60680128C7
:1058C00004D194ED020A84ED030A6660FFF75AFFE3
:1058D00011E0FFF72BFF94ED030ADFED380A30EEFD
:1058E000600A84ED030A05E0FFF720FFFFF75EFF83
:1058F000FFF748FF676094ED030A10EE100A584561
:1059000002DD30EE680A06E0B5EEC00AF1EE10FAEC
:1059100003D230EE280A84ED030AD4ED020A089877
:1059200001F0DEF8D5ED060A254830EE200A85EDB7
:10593000060AD0ED020A099860EE880A01F07CF8A8
:10594000BDEEC00A40F2FF21012310EE100A06AAA4
:10595000A8F84A00009102960821CDE903618DF86C
:1059600018608DF81960010A8DF81A108DF81B0067
:10597000694614480796FBF783FB012001F016F8EF
:1059800083E700000060EA46000000000AD7233CDD
:105990000000AF43EC03002058050020B8000020B1
:1059A000844F0020204E00200000B4430000B44388
:1059B000C801002000020020E8000020CDCC4C3DB2
:1059C000504F0020B80A00204100080218BF0420F0
:1059D0000A0E18BF40F001004FF07F4232EA010189
:1059E00008BF40F00200012808BF052070470907E2
:1059F000090E002804DB00F1E02080F80014704755
:105A000000F00F0000F1E02080F8141D7047000046
:105A100010B54FF00E402DED028BB0EE408A18EE1F
:105A2000104A00EB4400B0F1506F4AD84FF0FC40F0
:105A3000B0EB440F22D2B0EEC80AF7EE000A30EE07
:105A4000C00AF6EE000A60EE208A18EE900A01F015
:105A500090FB01EE100A14F0004F1DBFDFED2D0A80
:105A60009FED2D0AB1EE411ADFED2C0A08BF9FED24
:105A70002C0AF8EE001A21EE218A05E0DFED290A52
:105A800068EE088AB0EE600A9FED271ADFED271A4C
:105A900030EE080A48EE811A9FED251A08EEA11A89
:105AA000DFED241A48EE811A9FED231A08EEA11AA1
:105AB00068EE281ABDEC028B01EE810A30EE200A56
:105AC00010BD4FF0E440B0EB440F0CD918EE100AB3
:105AD000FFF77AFF042808BF00F066F9B0EE480A25
