:020000040800F2
:10000000307D00248D03000841A10008C18C000848
:1000100039A10008590A0008C9D5000800000000ED
:10002000000000000000000000000000E1AB00083C
:10003000E90D00080000000061A1000819AC0008EB
:10004000A7030008A7030008A7030008A7030008E8
:10005000A7030008A7030008A7030008A7030008D8
:10006000A7030008A7030008A7030008790B0008EE
:10007000890B0008990B0008A90B0008B90B0008B0
:10008000C90B0008D90B0008A7030008390F0008A6
:10009000B90F0008A7030008A7030008A70300087A
:1000A000A7030008A7030008A7030008A703000888
:1000B000A7030008A7030008A1AD0008A7030008D4
:1000C000A7030008A7030008A7030008A703000868
:1000D000F1AA0008A703000801B7000811B700083B
:1000E000A7030008A703000800000000A7030008FA
:1000F000A7030008A7030008A7030008A703000838
:10010000A7030008A7030008D9AD0008A70300084B
:10011000A7030008A7030008A7030008A703000817
:10012000A7030008A7030008A7030008A703000807
:10013000A7030008A7030008A7030008A7030008F7
:1001400000000000000000000000000000000000AF
:10015000A7030008A7030008A7030008A7030008D7
:10016000A7030008A7030008A7030008A7030008C7
:10017000A703000849A10008A70300080000000029
:10018000A7030008A7030008A7030008A7030008A7
:10019000A7030008A7030008A7030008A703000897
:1001A000A7030008A7030008A70300080000000039
:1001B000A7030008A7030008A7030008A703000877
:1001C000A7030008A70300080000000000000000CB
:1001D0000000000000000000A7030008000000006D
:1001E000000000000000000000000000000000000F
:1001F0000000000000000000A7030008A70300089B
:10020000A7030008A703000800000000A7030008D8
:10021000A7030008A7030008A7030008A703000816
:10022000A703000800000000A7030008000000006A
:10023000A7030008A703000800000000A7030008A8
:10024000A7030008A7030008A7030008A7030008E6
:10025000A7030008A7030008A7030008A7030008D6
:10026000A7030008A7030008A7030008A7030008C6
:10027000A7030008A7030008A70300080000000068
:10028000A7030008A7030008A7030008A7030008A6
:1002900000000000A7030008A703000800000000FA
:1002A00000000000A7030008A7030008A703000838
:1002B000A7030008A7030008A703000839100008D7
:1002C00049100008A7030008A703000800F002F87F
:1002D00000F04CF80AA090E8000C82448344AAF194
:1002E0000107DA4501D100F041F8AFF2090EBAE892
:1002F0000F0013F0010F18BFFB1A43F0010318475A
:10030000FC0E01001C0F01000A4410F8014B14F010
:100310000F0508BF10F8015B240908BF10F8014B56
:100320006D1E05D010F8013B6D1E01F8013BF9D19F
:10033000641E03D0641E01F8015BFBD19142E4D33B
:10034000704700000023002400250026103A28BF33
:1003500078C1FBD8520728BF30C148BF0B60704737
:100360001FB510F04EFD1FBD10B510BD00F085F992
:100370001146FFF7F5FF0EF0D7F900F0A3F903B42B
:10038000FFF7F2FF03BC00F0A7F90000094880471F
:1003900009480047FEE7FEE7FEE7FEE7FEE7FEE767
:1003A000FEE7FEE7FEE7FEE704480549054A064B7F
:1003B00070470000F1AC0008CD020008307700243F
:1003C000307D0024307900243079002453EA020C77
:1003D00000F069802DE9F04B4FF00006002B1FBFA5
:1003E000B3FA83F503FA05F424FA05F65E4012BF6A
:1003F0001643B2FA82F502FA05F4C5F120051EBFD4
:1004000022FA05FC44EA0C04203556EA044C4FEA73
:10041000144418BF641C4FF000084FF000099042CC
:1004200071EB030C39D3002919BFB1FA81F701FA36
:1004300007F6B0FA80F700FA07F6C7F120071EBFEB
:1004400020FA07FC46EA0C062037B6FBF4FCA7EBC3
:100450000507103F07F01F0BCBF120062CFA06F61C
:100460000CFA0BFB44BFB3460026202FA4BF5E4608
:100470004FF0000B5BEA060C08BF4FF0010B19EBC5
:100480000B0948EB0608ABFB027C06FB02CC0BFB1E
:1004900003CCC01B71EB0C01C1E70B460246414681
:1004A0004846BDE8F08B13B5084318BF4FF0FF3046
:1004B0000146AFF30080BDE81C407047032A40F2BC
:1004C000308010F0030C00F0158011F8013BBCF1F6
:1004D000020F624498BF11F801CB00F8013B38BF0E
:1004E00011F8013BA2F1040298BF00F801CB38BF1C
:1004F00000F8013B11F0030300F02580083AC0F03A
:10050000088051F8043B083A51F804CBA0E80810E1
:10051000F5E7121D5CBF51F8043B40F8043BAFF314
:100520000080D20724BF11F8013B11F801CB48BF6E
:1005300011F8012B24BF00F8013B00F801CB48BFA4
:1005400000F8012B704710B5203AC0F00B80B1E8DD
:100550001850A0E81850B1E81850A0E81850203AF8
:10056000BFF4F5AF5FEA027C24BFB1E81850A0E801
:10057000185044BF18C918C0BDE810405FEA827C1B
:1005800024BF51F8043B40F8043B08BF7047D20732
:1005900028BF31F8023B48BF11F8012B28BF20F8D3
:1005A000023B48BF00F8012B704702F0FF0343EA0B
:1005B000032242EA024200F024B84FF0000204296C
:1005C000C0F0128010F0030C00F01B80CCF1040C82
:1005D000BCF1020F18BF00F8012BA8BF20F8022BB6
:1005E000A1EB0C0100F00DB85FEAC17C24BF00F85C
:1005F000012B00F8012B48BF00F8012B70474FF08A
:10060000000200B5134694469646203922BFA0E862
:100610000C50A0E80C50B1F12001BFF4F7AF09076E
:1006200028BFA0E80C5048BF0CC05DF804EB89005F
:1006300028BF40F8042B08BF704748BF20F8022BA2
:1006400011F0804F18BF00F8012B704770477047BA
:10065000704710B500F00CF8006810BD10B50446E6
:1006600000F006F8046010BD00487047380100240F
:10067000004870473801002470477546FFF7F4FFC3
:10068000AE4605006946534620F00700854618B07F
:1006900020B5FFF789FEBDE820404FF000064FF07F
:1006A00000074FF000084FF0000BAC46ACE8C00963
:1006B000ACE8C009ACE8C009ACE8C00921F007010A
:1006C0008D46704710B50446AFF300802046BDE864
:1006D0001040FFF754BE000001491820ABBEFEE7F2
:1006E000260002000000000010B50446006842F237
:1006F000001140F48070C4F20201884204D142F239
:100700000830C4F2020003E046F20830C5F60200E9
:10071000006810F4403F0FD005F0B6FF6168B1F5F6
:10072000803F05D0B1F5403F21D0B1F5003F1FD14A
:10073000090CB0FBF1F01BE04FF40020002104F0A5
:10074000CFFF6168A1F580224FEAB2420A2A0FD892
:10075000DFE802F0060606060606383A3C3E400090
:100760006FF0010202EA5141B0FBF1F000E08008B5
:100770004BF62141C0F2BE01884205D8206881684D
:1007800021F44071816010BD47F64101C0F27D1136
:10079000884206D820680122816862F309218160BD
:1007A00010BD21684FF28102C0F2FA22904288689F
:1007B00004D8022262F30920886010BD40F4407022
:1007C000886010BD0009D3E74009D1E78009CFE771
:1007D000C009CDE7000ACBE740F600000121C5F6CD
:1007E0000200012203F0ACBD40F600000121C5F675
:1007F0000200002203F0A4BD7047000000000000CA
:1008000040F600000821C5F60200012203F098BD61
:1008100040F600000821C5F60200002203F090BD5A
:10082000704700000000000010B5002808BF10BD90
:100830004EF2180145F2003CCEF20001C0F2070C66
:1008400051F804EC0B6800220C68A342FCD01A4457
:10085000A342A2EB0402234698BF72446245F3D33D
:1008600001380204ECD110BD80B54EF21801C0EB86
:100870000010CEF200014FEA401E002351F804CCD4
:100880000A6800BF08688242FCD013448242A3EB8E
:100890000003024698BF63447345F3D380BD000054
:1008A00010B5FFF7A9FFFFF7BBFF0DF0CDFC044625
:1008B0000DF056FD204310BD2DE9F04383B0002319
:1008C000019390460E4681460093FFF78DFF9220DC
:1008D00000F0AAF8922000F0A7F868460624451E0A
:1008E0002F4600BF552000F09FF8013C07F8010F8C
:1008F0002006F7D1FFF770FFBDF90000BDF9042015
:10090000BDF9021000EE100A40F20000C2F20040F1
:10091000B8EEC00A90ED001A21EE000A01EE101A9E
:1009200086ED000A00EE102A90ED002AB8EEC11AFA
:10093000B8EEC00A22EE011A22EE000A86ED011A74
:1009400086ED020AFFF764FF802000F06DF80824AE
:100950002E4600BF552000F067F8013C06F8010F55
:100960002006F7D1FFF74CFF9DF800000F2825D196
:10097000BDF90200BDF90410BDF9062000EE100A11
:1009800040F20400C2F20040B8EEC00A90ED001A36
:1009900021EE000A01EE101A89ED000A00EE102A7D
:1009A00090ED002AB8EEC11AB8EEC00A22EE011A84
:1009B00022EE000A89ED011A89ED020AFFF714FF01
:1009C000A22000F031F8A22000F02EF8022400BF8F
:1009D000552000F029F8013C05F8010F2006F7D159
:1009E000FFF7FAFE9DF800004FF600039DF8011096
:1009F0000022C000CFF6FF73B4EE001AB3EE072A50
:100A000040EA5111B2EB902F18BF194300EE101AB3
:100A1000B8EEC00AA0EE012A88ED002A03B0BDE8B6
:100A2000F08300000000000080B582B08DF8070060
:100A300042F2DC60C2F200400DF107010DF1060246
:100A400001234FF47A7CCDF800C006F00DFD9DF82F
:100A5000060002B080BD0000FEE7000000000000BC
:100A600000207047000000000020704700000000D8
:100A700010B541F6CC0440F6A471C2F20044C2F2B3
:100A80000041002220460BF023F840F2A4712046DA
:100A9000C2F200410BF00CF8002010BD0000000075
:100AA00070B541F6CC060446C2F200460D4630460B
:100AB00021460AF0FDFF30460AF0D6FF42F69410B8
:100AC0002968C2F2004001702078A5282CD140F29C
:100AD000D425608BC2F200451A214FF6FF72A8831D
:100AE000204600F0F9FAA98B41F2BA72C2F2004234
:100AF0008142108018D160786870E078A178E87041
:100B00006079A97021796871D4F80600A860D4F8DA
:100B10000A00E860D4F80E002861D4F81200686179
:100B20002971D4F81600A86180212046FFF745FD01
:100B3000002070BD00000000002070470000000091
:100B400010B541F6CC02C2F20042D2F8BC22D2F873
:100B50001422002A1CBF012010BD41F6CC040A4615
:100B6000C2F20044014620460AF0B2FF2046BDE82A
:100B700010400BF04DB8000041F60850C2F20040A2
:100B800001F00EBB0000000041F69040C2F20040B0
:100B900001F006BB0000000041F6F850C2F2004030
:100BA00001F0FEBA0000000041F67060C2F20040A1
:100BB00001F0F6BA0000000041F6E860C2F2004021
:100BC00001F0EEBA0000000041F61840C2F2004009
:100BD00001F0E6BA0000000041F68050C2F2004089
:100BE00001F0DEBA0000000040F20F42D0F800C071
:100BF000C4F20202944510DC6F22C4F20202944552
:100C000020DC3F22C4F20202944536DC1022C4F2FA
:100C10000202944554D028224EE040F26F42C4F2C2
:100C2000020294451ADC40F23F42C4F202029445AB
:100C30002ADC40F21042C4F20202944540D040F255
:100C4000284239E09F22C4F20202944525DC70223A
:100C5000C4F20202944533D088222DE040F29F4234
:100C6000C4F2020294451FDC40F27042C4F2020258
:100C7000944525D040F288421EE04022C4F2020290
:100C800094451DD0582217E040F24042C4F20202BF
:100C9000944515D040F258420EE0A022C4F2020260
:100CA00094450DD0B82207E040F2B842C4F20202E7
:100CB000944505D040F2A042C4F20202944517D1F7
:100CC0000CF0F8024AF6AB23103ACAF6AA23A2FBAC
:100CD000033109A35F2AC1F302115B5C40F2FF31CB
:100CE0002CEA0101C36588BF04318165084670475D
:100CF0002CF0FF01F9E700BF0006101600061016E1
:100D000080B582B041F2040C40F2A412CEF2000C85
:100D1000C2F20042DCF800100091DDF800E0036848
:100D2000126800990160DCF8000040F2B01CC2F2C9
:100D3000004C01900199DCF80000814206D240F29B
:100D4000B410C2F20040016801310160AEEB030053
:100D500001EE102A00EE100A0198CCF80000B8EE5F
:100D6000411AB8EE400A80EE010A02B080BD0000D0
:100D70004EF6FC51CEF200010A6842F080720A6021
:100D800041F200010022CEF200014A600B6843F0FC
:100D900001030B6044F24021C0F20F01484340F2CE
:100DA000A411C2F20041086044F6D351C1F26201BD
:100DB000A0FB01134DF68361C4F21B31A0FB0101BE
:100DC00040F2A810C2F200409B090360880C40F278
:100DD000AC11C2F20041086040F2B410C2F200400F
:100DE0000260704700000000704700000000000033
:100DF000EFF3108072B600BFFEE7000000000000B5
:100E000040F2543547F21C7942F6445A47F2207BAF
:100E100042F6485740F22834C2F200454FF4AD760E
:100E2000C2F20049C2F2004AC2F2004BC2F20047CD
:100E30004FF0AA08C2F2004447F2107099ED001A70
:100E4000C2F200409BED003AB7EEC11A3968B7EE26
:100E5000C33A696190ED000BDAF80000E860B7EE84
:100E6000C02BC4F80A0030EE011BC4F8121030EE9B
:100E7000030B162185ED012AB7EEC11B2E80B7EEBC
:100E8000C00B85F81A8085ED021A85ED040A6A68A0
:100E9000C4F802202680AA68C4F806202869C4F88D
:100EA0000E004FF6FF72204600F016F92883192134
:100EB000E082A87E20762046FFF742FE0FF0E0FC9D
:100EC00001200DF0ADFCB7E710B58AB00024022078
:100ED00004900120CDE9050441F6687002A9C2F230
:100EE00000400794CDE9024402F04EFA08B1FFF742
:100EF0007FFF41F668700221C2F200400222002307
:100F0000009402F085FA08B1FFF772FF41F66870AD
:100F10000121C2F20040002202F0C2F908B1FFF73D
:100F200067FF41F66870C2F2004003F0F5F808B1BF
:100F3000FFF75EFF0AB010BD41F66870C2F20040D4
:100F400002F056BB0000000010B58AB001200390EB
:100F5000022002A9CDE9040042F208000024C2F2F6
:100F600000400294CDE9064402F00EFA08B1FFF702
:100F70003FFF42F208000221C2F200400222002399
:100F8000009402F045FA08B1FFF732FF42F2080080
:100F90001021C2F20040002202F082F908B1FFF7EE
:100FA00027FF42F20800C2F2004003F0B5F808B192
:100FB000FFF71EFF0AB010BD42F20800C2F2004067
:100FC00002F016BB0000000010B58AB00024022019
:100FD00004900120CDE9050442F2A80002A9C2F262
:100FE00000400794CDE9024402F0CEF908B1FFF7C2
:100FF000FFFE42F2A8000221C2F2004002220023BA
:10100000009402F005FA08B1FFF7F2FE42F2A800E0
:101010000121C2F20040002202F042F908B1FFF7BC
:10102000E7FE42F2A800C2F2004003F075F808B1F2
:10103000FFF7DEFE0AB010BD42F2A800C2F2004087
:1010400002F0D6BA0000000042F2A800C2F200404E
:1010500002F0CEBA00000000F0B5D1E900C4D1F82A
:1010600008E00D692CB14EEA0C04254345F0804C94
:1010700003E045EA8C4444EA0E0C856ED0F8847097
:10108000D1E907466B438D6944EA0660D1F814E064
:101090000543CC6807EB830045EA0E0647F823C0FA
:1010A00046EA04034360CB68B3F5803F38BFF0BD28
:1010B00040F69C6C083001320023C0F6010C00BFE2
:1010C000D71857F8017CC750CF8904331CF8077034
:1010D000BB42F5D3F0BD0000A0B189B140F6B27CAF
:1010E0000138C0F6010C00BF10F8013F013983EA56
:1010F0000203DBB292B23CF8133083EA1222F3D13E
:1011000090B270474FF6FF7290B270470000000037
:1011100070B582B090F85C20012A01D102213FE035
:1011200042F20835012280F85C2000230193C4F2CA
:1011300002050093A5F542740368A34228D14FF637
:10114000006ECFF6FF7E55F80E409A682243520794
:101150001ED4D1F800C02A68BCF1000F22F440442C
:1011600021D043F4807242F20013C4F202034E68AD
:101170009A4244EA06022A6029D14FF60052CFF67D
:10118000FF72AA5855F80E301343DA073DD125E017
:10119000016E41F0200101660121002280F85C20EF
:1011A000084602B070BD42F2001243F48071C4F2EE
:1011B00002022C6091421AD14FF60051CFF6FF7116
:1011C000695855F80E201143C9071ED116E046F2A2
:1011D0000802C5F602021368DA0716D12A6840F63B
:1011E0001F739A438968114341EA0C010AE046F2F1
:1011F0000801C5F602010968C90706D1296840F649
:101200001F72914329600021C7E70021C5E7000054
:101210002DE9F04381B00022009290F85C20012A71
:1012200001D1022102E20268012380F85C30936858
:101230005B0700F1F38146F2083C4FF6FF7EC5F6EE
:10124000020CC0F20F0EACF54278424510D00C688B
:1012500014EA0E0F94FAA4F5B5FA85F508BFA50EA9
:1012600005F01F04012505FA04F4D5692C43D46167
:101270004C680E681F27C4F3012504F01F04A74023
:1012800002EB8505C6F384662B6B06FA04F4BB43B8
:1012900023432B639368946803F0040304F0080469
:1012A0001B1940F00A810B6807268D684245C3F37D
:1012B0004064C3F3045302EB840406FA03F667693F
:1012C00005FA03F327EA060643EA0603636111D031
:1012D00041F20003C5F600431B6803F07043B3F10D
:1012E000805F16D14B69D4680E2505EA540403FAD1
:1012F00004F41BE04FF604544B69CFF6FF74062547
:101300005CF8044005EA940403FA04F94FF0004441
:101310000DE0D3684C69D568DB064FEA550502D469
:1013200005F00E0301E005F008039C40A1460F699B
:10133000042F25D1424553D0136E0C6803F0F843B7
:10134000A406A34203D1136E23F000431366536E29
:1013500003F0F843A34203D1536E23F000435366D6
:10136000936E03F0F843A34203D1936E23F000433E
:101370009366D36E03F0F843A34200F082809CE0B2
:1013800002F160060B6803F0F843424556F8275017
:1013900005F000451D4408BF49EA030545EA04037A
:1013A00046F827300C6971D091F821300D7E56F83F
:1013B000247027F00047012B08BF07F100476B1E80
:1013C000B3FA83F346F824705B090C69DB021569F4
:1013D00004F01F0425F4F045A3402B4313616CE097
:1013E0004FF65853CFF6FF735CF80330136E0C685A
:1013F000C3F3846314EA0E0F94FAA4F5B5FA85F5E5
:1014000008BFC4F38465AB4203D1136E23F00043DD
:101410001366536E536E0C6814EA0E0F94FAA4F51B
:10142000B5FA85F508BFC4F38465C3F38463AB42A2
:1014300003D1536E23F000435366936E936E0C6892
:1014400014EA0E0F94FAA4F5B5FA85F508BFC4F3B3
:101450008465C3F38463AB4203D1936E23F00043EE
:101460009366D36ED36E0C6814EA0E0F94FAA4F54B
:10147000B5FA85F508BFC4F38465C3F38463AB4252
:101480001BD1D36E23F00043D36616E0ACF52A726D
:10149000CB6952F8245025F080752B4342F8243054
:1014A0000B6991F8204052F82350012C25F000756B
:1014B00008BF05F1007542F8235002689368DB0706
:1014C0005DD142450C68CD680DD005F01806D2F804
:1014D000C03004EA0E072EFA06F6BB43264033431B
:1014E000C2F8C03012E04FF6A85905F01807CFF641
:1014F000FF7904EA0E032EFA07F75CF8096026EA82
:10150000030307EA040633434CF809300023C4F20E
:10151000FF739D422FD194FAA4F314EA0E0FB3FA8D
:1015200083F34FF0010608BFA30E013303F01F073A
:1015300003F01E030A2B07EB470506FA07F740F2F4
:101540000006CFF6206606EB055646EA070646F08B
:10155000007638BF47EA055607258F68C6F3406313
:10156000C6F3045602EB8303B5405C69B74024EA36
:1015700005052F435F610968B1F1FF3F01DD0021DF
:1015800051E042F2000642F20015C4F20206C4F233
:10159000020506F5807306F542779A42634608BF56
:1015A0003B46B24208BF3B4642F48077AF421C68DC
:1015B0002CD1B368D6F808711F43FB072ED1002346
:1015C00004F0E07ECCF25273994208BF14F4000399
:1015D00030D00023CCF22133994208BF14F080733D
:1015E00052D00023CCF6843399424FF000011AD137
:1015F00014F4800308BF424515D1DCF8001021F037
:10160000E07141EA0E0141F4800148E04FF60053D9
:10161000CFF6FF735CF80370FB07D0D0016E41F08A
:10162000200101660121002280F85C20084601B0FB
:10163000BDE8F0834245A2D1DCF8001042F66352C7
:1016400021F0E071C0F23E5241EA0E0141F4000186
:10165000CCF8001040F22C01C2F20041096889095F
:10166000A1FB02129109022202EB410100910099B3
:1016700000293FF484AF00990139009100990029B5
:101680004FF00001F7D1CEE742457FF478AFDCF8A8
:10169000001021F0E07141EA0E0141F08071CCF8B8
:1016A00000106CE700000000B0B582B004460028CE
:1016B0004FF00000019040D0206E30B9204600F07D
:1016C00033F90020606684F85C0020688168890036
:1016D0004FF6C071C5F6FF7102D582680A4082607C
:1016E0008268D2001CD4826801F18051114042F618
:1016F000635241F08051816040F22C01C0F23E52B1
:10170000C2F2004109688909A1FB0212012101EB23
:10171000921100BF0191019911B101990139F9E7C5
:101720008168C9000BD4216E012541F010012166AA
:10173000616E41F00101616602E00125EEE00025E5
:101740008168226E02F0100201F004018918216EF6
:1017500036D121F4817146F2000C02312166816894
:10176000C5F6020CC90722D142F2001240F4807182
:10177000C4F20202914242F20001C4F202012DD1F0
:101780008A68D1F808311A43D20710D101F5807266
:101790009042624608BF0A46884208BF0246616816
:1017A000D2F8083323F47C131943C2F80813617E7E
:1017B000E26B604542EA413206D0A16811431BE06A
:1017C00041F010000125A8E0A168E36808290AD0CB
:1017D0000C290AD01C290AD110210BE0DCF80820C2
:1017E000D207D3D0E3E7002104E0082102E0182962
:1017F00018BF00211943114394F82020012A41EA1F
:10180000024206D1616A0023CFF6FE7303EB414129
:101810000A43A16A21B101F47871E36A19430A43CA
:10182000604508D04CF20303C168CFF6F07319404D
:101830001143C1600EE044F20703DCF80C10CFF650
:10184000F07319401143C1600169626B21F040617E
:10185000114301618168826801F0040102F008020D
:1018600089184BD1217E60454FEA813102D0226B2D
:10187000114303E094F8382041EA4201C26844F27F
:1018800003039A431143C16094F84410012917D10E
:101890004FF61E016045CFF6004115D0026902EAFD
:1018A000010E0121D4E91223CFF6FF7101EB0241B1
:1018B00043EA0E02236D1143626D1943114310E098
:1018C000016921F001010CE0DCF810201140D4E99D
:1018D00012231143226D1943636D1143194341F0E3
:1018E0000101016160450169226C21F0704141EA0A
:1018F0000201016102D02046FEF7F6FE2068216950
:10190000026B012922F00F0102D1E269013A114371
:1019100001630121206E61F301002066284602B0B8
:10192000B0BD00000000000070B5B6B0044602A8CB
:10193000B8210025CDE93455CDE932553195FEF772
:101940005EFE42F200012068C4F20201884201D02A
:1019500036B070BD4FF40020029013200490812017
:10196000059002200395CDE90600CDE9080502A8FF
:101970002026CDE90A652A9504F09AF808B1FFF708
:1019800037FA44F2D840C5F60200016841F0200160
:101990000160016801F0200101910199816841F025
:1019A00001018160806831A900F001000190019877
:1019B000032032900020C5F60200319600263396AF
:1019C00002F0EEFB41F618458820C2F20045C4F251
:1019D000020028600920C5E901064FF480602861F3
:1019E0004FF4006068614FF40050A8614FF48070BC
:1019F000EE60C5E9070628466E6201F01DF908B1E0
:101A0000FFF7F6F9A565AC6336B070BD00000000C5
:101A10002DE9F041044602F09BFC14B3054694F80E
:101A20003500022820D140F20F462768C4F2020692
:101A300040F26F48B7426FF00E00C4F2020817DCA4
:101A40006F21C4F202018F4223DC3F21C4F2020164
:101A50008F4239DC1021C4F202018F4258D0282174
:101A600051E00120BDE8F08180206065012040E266
:101A700047451ADC40F23F41C4F202018F422ADCA2
:101A800040F21041C4F202018F4241D040F228419D
:101A900039E09F21C4F202018F4225DC7021C4F29B
:101AA00002018F4234D088212DE040F29F41C4F2E0
:101AB00002018F421FDC40F27041C4F202018F42EA
:101AC00026D040F288411EE04021C4F202018F423C
:101AD0001ED0582117E040F24041C4F202018F426B
:101AE00016D040F258410EE0A021C4F202018F420C
:101AF0000ED0B82107E040F2B841C4F202018F4293
:101B000006D040F2A041C4F202018F42394607D10B
:101B10003946386820F01E0041F8140B6FF0800041
:101B20000A68474500EA0200086019DC9F20C4F2F9
:101B30000200874231DC5720C4F20200874256DCA3
:101B40001020C4F20200874200F091802820C4F2E5
:101B50000200874200F08B804020C4F2020084E043
:101B600045F22F40C5F6020087422BDC40F2B74019
:101B7000C4F20200874248DC40F27040C4F2020026
:101B8000874274D040F28840C4F2020087426ED08F
:101B900040F2A040C4F2020067E040F22740C4F2E5
:101BA0000200874240DCA020C4F2020087425ED0DF
:101BB000B820C4F20200874259D040F21040C4F26B
:101BC000020052E045F26B40C5F6020087423CDC61
:101BD00045F23040C5F60200874248D045F2444005
:101BE000C5F60200874242D045F258403BE05820FB
:101BF000C4F2020087423AD07020C4F20200874249
:101C000035D08820C4F202002FE040F2B840C4F280
:101C1000020087422BD045F20840C5F602008742F9
:101C200025D045F21C401EE040F22840C4F20200DC
:101C300087421CD040F24040C4F20200874216D0D6
:101C400040F25840C4F202000FE045F26C40C5F685
:101C5000020087420BD045F29440C5F6020087424D
:101C600005D045F28040C5F60200874204D1206EBF
:101C7000016821F480710160386820F0010038604B
:101C80003868C0070BD002F063FB401B0628F7D36F
:101C900020206065032084F83500012029E12068B8
:101CA000B04210DC6F21C4F2020188421CDC3F21EB
:101CB000C4F20201884232DC1021C4F202018842DF
:101CC00050D028214AE040451ADC40F23F41C4F29E
:101CD000020188422ADC40F21041C4F2020188422B
:101CE00040D040F2284139E09F21C4F202018842ED
:101CF00025DC7021C4F20201884233D088212DE016
:101D000040F29F41C4F2020188421FDC40F2704160
:101D1000C4F20201884225D040F288411EE04021F1
:101D2000C4F2020188421DD0582117E040F2404120
:101D3000C4F20201884215D040F258410EE0A021C1
:101D4000C4F2020188420DD0B82107E040F2B84148
:101D5000C4F20201884205D040F2A041C4F202015F
:101D6000884259D1D4E9161202F01F023F2303FA28
:101D700002F28A60404559DC9F21C4F20201884288
:101D800014DC5721C4F20201884226DC1021C4F27F
:101D90000201884200F09D802821C4F2020188429D
:101DA00000F097804021C4F2020190E040F2274108
:101DB000C4F2020188421EDCA021C4F20201884262
:101DC00000F08780B821C4F20201884200F08180CF
:101DD00040F21041C4F2020179E05821C4F202013C
:101DE000884276D07021C4F20201884271D08821E5
:101DF000C4F202016BE040F22841C4F202018842C1
:101E000067D040F24041C4F20201884261D040F202
:101E10005841C4F202015AE0D4E9161202F01F023E
:101E2000012303FA02F24A604045A5DD45F22F4145
:101E3000C5F60201884216DC40F2B741C4F2020145
:101E4000884225DC40F27041C4F20201884240D051
:101E500040F28841C4F2020188423AD040F2A041E7
:101E6000C4F2020133E045F26B41C5F6020188423B
:101E70001DDC45F23041C5F60201884229D045F209
:101E80004441C5F60201884223D045F258411CE086
:101E900040F2B841C4F2020188421AD045F208412A
:101EA000C5F60201884214D045F21C410DE045F20E
:101EB0006C41C5F6020188420BD045F29441C5F64B
:101EC0000201884205D045F28041C5F602018842F0
:101ED0000BD1616EA26EE06E4A6030B1016821F4F0
:101EE00080710160D4E91C014160012084F8350053
:101EF0000020002184F83410BDE8F08100000000CB
:101F000080B5D8B190F83510022919D140F20F42AE
:101F10000168C4F20202914216DC6F23C4F202038C
:101F2000994226DC3F23C4F2020399423CDC102391
:101F3000C4F2020399425AD0282354E0012080BD04
:101F400080214165012080BD40F26F43C4F202034D
:101F500099421ADC40F23F43C4F2020399422ADC60
:101F600040F21043C4F20203994240D040F22843A9
:101F700039E09F23C4F20203994225DC7023C4F2A6
:101F80000203994233D088232DE040F29F43C4F2EC
:101F9000020399421FDC40F27043C4F202039942EB
:101FA00025D040F288431EE04023C4F20203994248
:101FB0001DD0582317E040F24043C4F20203994277
:101FC00015D040F258430EE0A023C4F20203994218
:101FD0000DD0B82307E040F2B843C4F2020399429F
:101FE00005D040F2A043C4F2020399426ED191425F
:101FF0004FF0040280F8352010DC6F20C4F202009C
:10200000814220DC3F20C4F20200814236DC1020F5
:10201000C4F20200814253D028204EE040F26F40CB
:10202000C4F2020081421ADC40F23F40C4F20200D6
:1020300081422ADC40F21040C4F2020081423FD0CB
:1020400040F2284039E09F20C4F20200814225DCA2
:102050007020C4F20200814232D088202DE040F28C
:102060009F40C4F2020081421FDC40F27040C4F283
:102070000200814224D040F288401EE04020C4F299
:10208000020081421CD0582017E040F24040C4F2C8
:102090000200814214D040F258400EE0A020C4F269
:1020A000020081420CD0B82007E040F2B840C4F2F0
:1020B0000200814204D040F2A040C4F202008142FA
:1020C000086820F001000860002080BD0A6822F046
:1020D0000E020A6045F25742C5F6020291420A68B2
:1020E00022F001020A600EDC45F22F42C5F6020220
:1020F000914217DC45F20842C5F60202914226D011
:1021000045F21C421FE045F27F42C5F602029142B1
:1021100011DC45F25842C5F60202914217D045F251
:102120006C4210E045F23042C5F6020291420ED0F8
:1021300045F2444207E045F29442C5F6020291425C
:1021400005D045F28042C5F6020291421AD1D0E98B
:10215000181CD0E916E30A6822F480720A6003F0C2
:102160001F01012202FA01F1CEF80410816ECCF8B1
:102170000410C16E31B10A6822F480720A60D0E99D
:102180001C124A60012180F83510026D002180F890
:1021900034100AB190470021084680BD00000000BD
:1021A0002DE9F04381B00021009140F22C0104465A
:1021B000C2F2004148F2B512C1F64E32A56D09686F
:1021C00040F26F490068C4F20209A1FB02184845B9
:1021D0002E682A6815DC9F21C4F2020188422BDC9C
:1021E0005721C4F2020188424FDC1021C4F20201DF
:1021F000884278D02821C4F20201884273D040215D
:102200006CE045F22F41C5F60201884227DC40F21E
:10221000B741C4F20201884243DC40F27041C4F28B
:10222000020188425FD040F28841C4F20201884234
:1022300059D040F2A04151E040F22741C4F20201DE
:1022400088423DDCA021C4F2020188424BD0B82173
:10225000C4F20201884246D040F210413EE045F20D
:102260006B41C5F60201884275DC45F23041C5F686
:102270000201884200F0828045F24441C5F6020125
:1022800088427BD045F2584173E05821C4F20201E4
:10229000884228D07021C4F20201884223D08821CC
:1022A0001CE040F2B841C4F2020188421BD045F262
:1022B0000841C5F60201884260D045F21C4158E051
:1022C00040F22841C4F2020188420CD040F2404161
:1022D000C4F20201884206D040F25841C4F2020121
:1022E000884240F05884E16D082201F01F018A40C5
:1022F000324200F0168140F20F43C4F202039842CA
:102300004FF0040313DC6F27C4F20207B84200F356
:1023100091803F27C4F20207B84200F3D280102711
:10232000C4F20207B84200F0F0802827E8E04845F0
:1023300000F38C8040F23F47C4F20207B84200F33A
:10234000C78040F21047C4F20207B84200F0DD80B7
:1023500040F22847D4E045F26C41C5F602018842BC
:102360000CD045F28041C5F60201884206D045F204
:102370009441C5F60201884240F00D840368E16D86
:1023800001F01F01042707FA01F6164218BF13F0E7
:1023900004072CD1022707FA01F6164218BF13F0E2
:1023A00002076AD1CA40120740F1F58313F0080210
:1023B00000F0F18340F20F42C4F2020290426FF04B
:1023C0001C0200F3FF826F23C4F20203984200F361
:1023D00031833F23C4F20203984200F36683102343
:1023E000C4F20203984200F0988328238FE3190473
:1023F0006E603AD4990600F1CA8340F20F41C4F2EC
:10240000020188426FF0080100F301836F22C4F2D9
:102410000202904200F32D833F22C4F20202904256
:1024200000F38D831022C4F20202904200F0AC83CC
:102430002822A3E39F27C4F20207B84251DC702789
:10244000C4F20207B84260D0882759E040F29F47A3
:10245000C4F20207B8424BDC40F27047C4F20207F4
:10246000B84252D040F288474AE0D80300F1A68231
:10247000A16C002940F09D828DE319046E6000F18B
:10248000B482990600F1D38340F20F41C4F20201F5
:1024900088426FF0140100F30F836F22C4F202022E
:1024A000904200F37B833F22C4F20202904200F389
:1024B00090831022C4F20202904200F0AF832822DF
:1024C000A6E34027C4F20207B8421ED0582717E0FF
:1024D00040F24047C4F20207B84216D040F25847D3
:1024E0000EE0A027C4F20207B8420ED0B82707E0DA
:1024F00040F2A047C4F20207B84206D040F2B84703
:10250000C4F20207B84218BF082307681F4208D068
:10251000036823F004030360AA60626D42F00102C5
:10252000626501228A4032426FD040F20F43C4F20A
:102530000203984210DC6F23C4F2020398421CDCB1
:102540003F23C4F20203984232DC1023C4F2020398
:10255000984251D028234AE048451ADC40F23F43D4
:10256000C4F2020398422ADC40F21043C4F2020390
:10257000984241D040F2284339E09F23C4F202033D
:10258000984225DC7023C4F20203984234D0882399
:102590002DE040F29F43C4F2020398421FDC40F258
:1025A0007043C4F20203984226D040F288431EE0F2
:1025B0004023C4F2020398421ED0582317E040F291
:1025C0004043C4F20203984216D040F258430EE052
:1025D000A023C4F2020398420ED0B82307E040F2D1
:1025E000B843C4F20203984206D040F2A043C4F2BA
:1025F0000203984240F0FF81436903F0800323B156
:10260000AA60626D42F00202626504228A40324290
:102610006FD040F20F43C4F20203984210DC6F23E4
:10262000C4F2020398421CDC3F23C4F20203984226
:1026300032DC1023C4F20203984251D028234AE02E
:1026400048451ADC40F23F43C4F2020398422ADCB8
:1026500040F21043C4F20203984241D040F22843B2
:1026600039E09F23C4F20203984225DC7023C4F2B0
:102670000203984234D088232DE040F29F43C4F2F5
:10268000020398421FDC40F27043C4F202039842F6
:1026900026D040F288431EE04023C4F20203984251
:1026A0001ED0582317E040F24043C4F20203984280
:1026B00016D040F258430EE0A023C4F20203984221
:1026C0000ED0B82307E040F2B843C4F202039842A8
:1026D00006D040F2A043C4F20203984240F0918138
:1026E000036803F0020323B1AA60626D42F00402A2
:1026F0006265102202FA01F131427DD040F20F42B0
:10270000C4F2020290424FF0080210DC6F23C4F2C0
:10271000020398421CDC3F23C4F20203984232DCDD
:102720001023C4F20203984251D028234AE04845BE
:102730001ADC40F23F43C4F2020398422ADC40F222
:102740001043C4F20203984241D040F2284339E0DA
:102750009F23C4F20203984225DC7023C4F20203D3
:10276000984234D088232DE040F29F43C4F2020304
:1027700098421FDC40F27043C4F20203984226D014
:1027800040F288431EE04023C4F2020398421ED068
:10279000582317E040F24043C4F20203984216D097
:1027A00040F258430EE0A023C4F2020398420ED038
:1027B000B82307E040F2A043C4F20203984206D0D7
:1027C00040F2B843C4F20203984218BF04220368DF
:1027D000134211D0A96001684903016806D4C905F4
:1027E00006D4016821F00801016001E0080352D419
:1027F000216C09B120468847E06D00F01F012020C0
:1028000000FA01F2324200F0AB8040F20F43206840
:10281000C4F2020398424FF0100310DC6F27C4F299
:102820000207B8421CDC3F27C4F20207B84236DC7C
:102830001027C4F20207B84255D028274EE0484579
:102840001ADC40F23F47C4F20207B8422EDC40F2E5
:102850001047C4F20207B84245D040F228473DE095
:102860009F27C4F20207B84229DC7027C4F202078E
:10287000B84238D0882731E040F29F47C4F20207BF
:10288000B84223DC40F27047C4F20207B8422AD0B3
:1028900040F2884722E0A16C0029ABD1ACE7402789
:1028A000C4F20207B8421ED0582717E040F2404752
:1028B000C4F20207B84216D040F258470EE0A027F3
:1028C000C4F20207B8420ED0B82707E040F2A04792
:1028D000C4F20207B84206D040F2B847C4F2020779
:1028E000B84218BF022307681F4239D0AA6094F883
:1028F0003520042A02681BD122F0160202604269C8
:1029000022F080024261226C0AB9A26C1AB10268FC
:1029100022F0080202603F208840A860012084F86D
:102920003500216D0020002984F8340041D132E1C6
:10293000510301680CD4C9050ED4016821F01001BF
:102940000160012084F83500002084F8340003E0A1
:10295000080301D4616C00E0E16B09B120468847AF
:10296000606D002800F01781606DC0071DD0042045
:1029700084F8350020684FEA9821026822F00102AD
:10298000026000BF009A013200928A4202D80268B7
:10299000D207F7D10068C0074FF0030008BF01203D
:1029A00084F83500002084F83400E16C002900F040
:1029B000F280204601B0BDE8F0430847216C0029B1
:1029C000F7D1E8E0484541DC40F23F43C4F202035E
:1029D000984200F3848040F21043C4F2020398420C
:1029E00000F09B8040F2284391E0D8033DD4616C15
:1029F0000029DED1CFE003680023002B7FF400AE76
:102A000003E603680023002B7FF46EAE71E64845B1
:102A10003CDC40F23F42C4F20202904200F3968056
:102A200040F21042C4F20202904200F0AD8040F247
:102A30002842A3E09F23C4F20203984258DC70238B
:102A4000C4F20203984268D0882360E040F29F43BA
:102A5000C4F20203984252DC40F27043C4F2020313
:102A600098425AD040F2884351E0E16B0029A0D14E
:102A700091E09F22C4F20202904270DC7022C4F204
:102A80000202904200F08080882277E040F29F426C
:102A9000C4F20202904269DC40F27042C4F20202C7
:102AA000904271D040F2884268E04023C4F20203B1
:102AB000984232D058232AE048457BDC40F23F421E
:102AC000C4F20202904200F38B8040F21042C4F242
:102AD0000202904200F0A28040F2284298E040F2C8
:102AE0004043C4F20203984217D040F258430EE02C
:102AF000A023C4F2020398420FD0B82307E040F2AB
:102B0000A043C4F20203984207D040F2B843C4F293
:102B10000203984218BF6FF00E0203681A40026069
:102B2000012000FA01F16960606584F83500002039
:102B3000E16C84F8340000297FF43BAF2BE04022A5
:102B4000C4F2020290421FD0582217E040F24042E5
:102B5000C4F20202904217D040F258420EE0A02286
:102B6000C4F2020290420FD0B82207E040F2A04225
:102B7000C4F20202904207D040F2B842C4F202020C
:102B8000904218BF6FF00401026811400160216C8F
:102B900000297FF40EAF01B0BDE8F0839F22C4F29C
:102BA0000202904225DC7022C4F20202904235D02B
:102BB00088222DE040F29F42C4F2020290421FDCC4
:102BC00040F27042C4F20202904227D040F28842A2
:102BD0001EE04022C4F2020290421FD0582217E0A9
:102BE00040F24042C4F20202904217D040F25842F2
:102BF0000EE0A022C4F2020290420FD0B82207E0F9
:102C000040F2A042C4F20202904207D040F2B84221
:102C1000C4F20202904218BF6FF00A01026811402C
:102C20000160012084F83500002084F83400E16B55
:102C300000297FF4BEAEAEE72DE9F041044601F075
:102C400087FBECB140F26F4805462068C4F20208E9
:102C5000404518DC9F21C4F2020188422EDC572136
:102C6000C4F20201884254DC1021C4F202018842FD
:102C70007ED02821C4F20201884279D0402172E03E
:102C80000120BDE8F08145F22F41C5F602018842DE
:102C900027DC40F2B741C4F20201884245DC40F231
:102CA0007041C4F20201884262D040F28841C4F20D
:102CB000020188425CD040F2A04154E040F227413A
:102CC000C4F20201884240DCA021C4F20201884221
:102CD0004ED0B821C4F20201884249D040F21041DE
:102CE00041E045F26B41C5F60201884200F3B8802D
:102CF00045F23041C5F60201884200F0C38045F23A
:102D00004441C5F60201884200F0BC8045F25841BA
:102D1000B4E05821C4F20201884229D07021C4F2E3
:102D20000201884224D088211DE040F2B841C4F25B
:102D3000020188421CD045F20841C5F602018842D2
:102D400000F0A08045F21C4198E040F22841C4F216
:102D5000020188420CD040F24041C4F20201884294
:102D600006D040F25841C4F20201884240F0DE80B1
:102D7000022184F83510002184F83410016821F014
:102D80000101016020680168C9070CD001F0E0FA78
:102D9000401B0628F6D320206065032084F8350008
:102DA0000120BDE8F08148F23F0204F10807016804
:102DB000CFF61062114066698CCF1143D4F818C069
:102DC0001943E3693943276A0E43616A334304298F
:102DD00043EA070343EA0C0303D1D4E90B763743F4
:102DE0003B436568A5F12906292E00F2A180012741
:102DF000DFE806F01515151515159E9E9E9E9E9EE4
:102E00009E9E9E9E9E9E9E9E9E9E151515159E9E06
:102E10009E9E15159E9E9E9E9E9E15151515002F15
:102E200018BF43F4801304290360426922F00702AB
:102E300041EA020140F09080D4E90A53002B41EAB4
:102E4000050100F08980BCF5005F5FD0BCF1000F88
:102E500068D1022D74D0012D5ED0002D70D072E0AB
:102E600045F26C41C5F6020188420BD045F2804123
:102E7000C5F60201884205D045F29441C5F602012B
:102E8000884253D104F1080E022184F83510002144
:102E900084F834100168A3699EE80450A2F180050B
:102EA000E769B5FA85F566696D09402A4FEA853507
:102EB00043EA07026FF3101142EA060208BF102529
:102EC00041EADC0142EA0E022943236A41EAD201C7
:102ED0004AF6F832CAF2FD724CF6CD470244CCF6FF
:102EE000CC4741EA1311A2FB072301606FF00300F6
:102EF00000EA9300E0652046FDF776FEE16D0122D1
:102F000001F01F0102FA01F1416030E0032D1AD8EF
:102F1000DFE805F00A160A02A3F1C072B2FA82F2E3
:102F2000520911E0032D0AD201220DE0402033E7BF
:102F300025F00302743AB2FA82F257096FE702D120
:102F4000C3F3006200E0002232B14020606501203E
:102F500084F83500BDE8F08141612046FDF744FE6C
:102F6000E16D3F2201F01F0102FA01F1816020684A
:102F7000404519DC9F21C4F20201884231DC57210F
:102F8000C4F20201884256DC1021C4F202018842D8
:102F900000F092802821C4F20201884200F08C8067
:102FA0004021C4F2020184E045F22F41C5F602013E
:102FB00088422BDC40F2B741C4F20201884248DC6F
:102FC00040F27041C4F20201884275D040F288415B
:102FD000C4F2020188426FD040F2A041C4F2020163
:102FE00067E040F22741C4F20201884240DCA021A0
:102FF000C4F2020188425FD0B821C4F202018842C3
:103000005AD040F21041C4F2020152E045F26B4145
:10301000C5F6020188423CDC45F23041C5F60201AA
:10302000884249D045F24441C5F60201884243D066
:1030300045F258413BE05821C4F2020188423BD09E
:103040007021C4F20201884236D08821C4F2020104
:103050002FE040F2B841C4F2020188422CD045F280
:103060000841C5F60201884226D045F21C411EE007
:1030700040F22841C4F2020188421DD040F2404192
:10308000C4F20201884217D040F25841C4F2020152
:103090000FE045F26C41C5F6020188420CD045F2C2
:1030A0009441C5F60201884206D045F28041C5F63A
:1030B0000201884240F0D08045F2574C45F6FC01B1
:1030C000C5F6020CC5F6020160450EDC45F22F4341
:1030D000C5F60203984217DC45F20843C5F6020321
:1030E000984226D045F21C431FE045F27F43C5F6C7
:1030F0000203984211DC45F25843C5F60203984298
:1031000017D045F26C4310E045F23043C5F6020398
:1031100098420ED045F2444307E045F29443C5F689
:103120000203984205D045F28043C5F60203984257
:1031300050D100F0FC034CF6CD47083BCCF6CC4711
:10314000A3FB0737A1F1FC05A1F17C063B0905EBC8
:1031500083022266A26803F01F030127802A6666A5
:1031600007FA03F2A26601D1002262606268A56ECE
:10317000D4E91876D3B2013A072A3B60756015D8B6
:103180005E1E072E62D8604501F1440213DC45F251
:103190002F47C5F60207B8423CDC45F20847C5F6A2
:1031A0000207B8424BD045F21C4744E0002060675C
:1031B000C4E91B0050E045F27F47C5F60207B8425C
:1031C00031DC45F25847C5F60207B84237D045F220
:1031D0006C4730E000F0F8034AF6AB27103BCAF624
:1031E000AA27A3FB073740F20F43C4F202030825C6
:1031F0003E09984203F1AA02334688BF05EB171334
:1032000040F600059042C4F2020528BF334605F19E
:1032100080069CE745F23047C5F60207B8420ED05B
:1032200045F2444707E045F28047C5F60207B84239
:1032300005D045F29447C5F60207B84213D101EB19
:103240008300E06601202267B040606704F16C02F1
:10325000002307CA03604A6000206065012184F8EA
:103260003510BDE8F08140F60000C4F2020000F124
:10327000FC0100F5A072E2E7B0B5044601F068F881
:1032800040F228110546C2F20041621C097818BFBD
:103290000C4400BF01F05CF8401BA042FAD3B0BD63
:1032A00090F89830013B012B0BD80068836D0B42DE
:1032B0000CD0836D0B408B420CD1C36D43F00203E5
:1032C00009E000F19C010120022221E0C36D43F0DE
:1032D000010300E00323C3658B0504D5D0F8E0307B
:1032E0001343C0F8E0304B0504D5D0F8E4301A435E
:1032F000C0F8E4204FF6FF72436DC3F6CF720A4068
:103300001A4342658A0F4AF614010020C4F20001F4
:103310000B681A430A607047B0B5044690F89800ED
:1033200002281AD12068D0F8C03013F07C5F19D081
:10333000D0F8C4309B021AD4D0F8C400C0F30445BE
:1033400020462B46FDF788FE20680121A940C0F8E1
:10335000D0100020C4F89410B0BDD4F89C0040F008
:10336000080008E0D4F89C0040F0200003E0D4F806
:103370009C0040F40070C4F89C000120B0BD000027
:10338000704700000000000080B590F89820013AD6
:10339000012A0AD80A68002ACA680ED00B69072ACF
:1033A00043EA427E16D18B6919E0D0F89C1041F0B7
:1033B0000201C0F89C10012080BD072A18D10A69BB
:1033C000D1F81CC012048B6942EA0C221A4342F065
:1033D000605217E0D1F808C04B6943EA8C73006F64
:1033E000496800EBC10240F831E00020536080BD25
:1033F0008B68D1F810C09B0743EAC2624B6942EA6E
:103400000C421A434968C06E40F82120002080BD5C
:1034100090F898C0BCF1010F0DD19200006842EA0B
:103420000111DDF800C041EA430141EA0C01C0F896
:10343000801000207047D0F89C1041F00401C0F8C3
:103440009C10012070470000704700000000000041
:10345000704700000000000070B590F89850022DF1
:103460001CD140291FD10568D5F8A04014F4FE0FE7
:1034700000F08F80D5F8A440640600F09680D5F85F
:10348000A440E40148BFD5F8A040D5F8A45000F10D
:103490007404C5F3052E456CF44629E0D0F89C1061
:1034A00041F0080185E0412918D10568D5F8B04000
:1034B00014F4FE0F6DD0D5F8B440640675D0D5F87D
:1034C000B440E40148BFD5F8B040D5F8B45000F19D
:1034D0007804C5F3052EC56CF44609E0056D8D42F0
:1034E00057D900F17C04D0F854E04FF0000C0D46A1
:1034F00005FB0EF6246854F8265015F080455560FB
:1035000054F826E02EF0604508BFCEF38A4504EB60
:10351000860E156054F8265005F00055956054F855
:10352000264004F000441461BEF80440D461DEF883
:10353000044004F47024D460DEF80450B4F5803FF5
:1035400005F480155561DEF8045005F40015956109
:103550009EF8075005F07F051562DEF804504FEA2B
:10356000D57454620ED30EF1080540F69C6E00240B
:10357000C0F6010E2E5D1E550134D6891EF8066078
:10358000B442F7D3402909D10068C0F8A8C0002090
:1035900070BDD0F89C1041F020010AE041290CD107
:1035A0000068C0F8B8C0002070BDD0F89C1041F48D
:1035B0008071C0F89C10012070BD1F2907D80068D9
:1035C000012202FA01F1C0F89810002070BD0068D5
:1035D00001F01F01012202FA01F1C0F89C10002045
:1035E00070BD0000000000007047000000000000F7
:1035F0002DE9F04F89B004464AF61000C4F20000ED
:1036000001684AF61400C4F200000268206802EA69
:103610000108056DD0F85490036D0293436D01933A
:10362000036D0493436D0393036D0893436D0793F8
:10363000036D0693436D0593D0F854A0D0F850B0B5
:103640005FEACA530ED51BF480710BD04FF4807122
:1036500001654AF610010020C4F20001086020460E
:10366000FFF7C2FF05EA09064AF610095FEA4A5069
:10367000C4F200094FEA887711D51BF480600ED0A0
:103680002068D0F8DC10D0F8E42011404FF48062BC
:1036900002650020C9F80000204600F071FDDDE958
:1036A000011000EA010506F4704657B120680021B8
:1036B000016508F00300C9F8000020463946FFF70D
:1036C0005FFEDDE9031000EA010705F00F0546B1D2
:1036D0002068314606650020C9F80000204600F049
:1036E00057FD07F0F00645B1206829460565002022
:1036F000C9F80000204600F0E7FB46B120683146DB
:1037000006650020C9F80000204600F0C1FC5FEA11
:103710000A500CD51BF4006009D020684FF40061FA
:1037200001650020C9F80000204600F035FD5FEA81
:103730008A5011D51BF400700ED02068D0F8D81034
:10374000D0F8E02011404FF4007202650020C9F863
:103750000000204600F018FD5FEA0A300CD51BF48B
:10376000002009D020684FF4002101650020C9F82D
:103770000000204600F0A4FB5FEACA300CD51BF421
:10378000803009D020684FF4803101650020C9F8ED
:103790000000204600F0F0FC5FEA4A30DDE9051049
:1037A00000EA01050CD51BF4802009D020684FF4F5
:1037B000802101650020C9F80000204600F0D8FCF7
:1037C0005FEA8A30DDE9071000EA010005F0607168
:1037D0000FD51BF400320CD022684FF40033136570
:1037E0000022C9F80020D4F89C2042F08002C4F8DE
:1037F0009C2000F0715539B1206801650020C9F89E
:1038000000002046FFF724FE4DB12068056500202A
:10381000C9F80000D4F89C002843C4F89C00206834
:10382000A9F50161884209D0D4F89C00002867D02E
:10383000204609B0BDE8F04FFFF706BE606881681A
:103840008907F1D0016A426A036A476A114003EAB4
:10385000070202F03005D0F82080D0F82490D0F88C
:1038600020B0D0F824A0026A089211F00F01426A39
:103870000792466A026A069203D00162204600F06F
:103880006BFC08EA09072DB16068294605622046ED
:1038900000F06AFC70060BEA0A0607F4C0750ED544
:1038A000069810F040000AD060684023C16BC26BDC
:1038B000090C02F03F020362204600F051FCDDE9F2
:1038C000071000EA010706F4FC462DB1606829469E
:1038D0000562204600F03CFC07F4F02036B1616838
:1038E0000E62D4F89C103143C4F89C1000289BD081
:1038F00061680862D4F89C100843C4F89C0093E700
:1039000009B0BDE8F08F00002DE9F04F85B0002828
:1039100040D04AF200080446C4F20008006840455E
:1039200002D108F58070606094F8980028B90020F2
:1039300084F89900204600F0CBF92068816921F0D5
:103940001001816100F004FD054600BF2068816917
:10395000090705D500F0FCFC401B0B28F6D310E04E
:10396000816941F00101816100F0F2FC054600BF70
:1039700020688169C90711D100F0EAFC401B0B28BF
:10398000F6D30120D4F89C100843C4F89C0003200F
:1039900084F89800012005B0BDE8F08F816941F0FE
:1039A00002018161217C826922F04002012918BF55
:1039B00040328261617C826922F48042012908BF21
:1039C00002F580428261A17C826922F48052012941
:1039D00018BF02F580528261816921F44073D4E9F5
:1039E00002120B438361836923F0A403836103699B
:1039F00023F0100303619AB1012A0DD0022A09D0E5
:103A00008369032A43F080038361036943F0100252
:103A1000026105D1202200E0042283691A438261F9
:103A2000D4E90572E369561E6FF0FF02256A02EBC6
:103A30000323B1F5407F43EA4663A5F1010646EA58
:103A4000030640F20003CFF6FF7303EB074746EA95
:103A50000701C16110D1D4E90B65D4E90917013F11
:103A600002EB06226FF00F063A4306EB05173A43C6
:103A700003EB01411143C160236E2BB1616ED0F89D
:103A8000C0201143C0F8C010E16DCDE90313D94245
:103A900040F61C61C0F6010109D0D0F8C820A36E21
:103AA00022F0070251F823301A43C0F8C820D4F896
:103AB00040A0BAF1000F09D0D0F8BC20636C22F00E
:103AC000070251F823301A43C0F8BC20A76C57B145
:103AD000D0F8BC20E36C22F0700251F8233042EAA7
:103AE0000312C0F8BC20D4F850C0BCF1000F0AD0BB
:103AF000D0F8BC20636D22F4E06251F8231042EA52
:103B00000121C0F8BC10404504D161688A6822F0E8
:103B100003028A600021C4F89410C4F89C100121AB
:103B200084F898104FF6FC72D0F88410D4F83C90CA
:103B300021EA0203656CD4E90D120292019543EA71
:103B40008103C0F88430D0F8843023F47F0343EA43
:103B50000243C0F884305318D0F888606FF38F06A2
:103B600046EA8306C0F88860D0F8886003EB490312
:103B700026F4FE0646EA0946C0F88860D0F8A06040
:103B80006FF38F0646EA8306C0F8A060D0F8A06005
:103B900005FB0A3326F4FE0646EA0A46C0F8A06092
:103BA000D0F8B0606FF38F0646EA8306C0F8B060C5
:103BB000D0F8B06026F4FE0646EA0746C0F8B060CA
:103BC000E66CD0F8AC506FF38F0506FB07337E43ED
:103BD00045EA8305C0F8AC50D4F8548008FB0C3596
:103BE000D0F8F0306FF38F0308FB0CFC43EA850339
:103BF000C0F8F030D0F8F0E0A36D2EF47C1242EA69
:103C00000342C0F8F02005EB4302D0F8C0506FF338
:103C10008F0545EA8202C0F8C020D0F8C020DDF848
:103C20000CB022F47C1242EA0B42C0F8C020019A88
:103C3000D0F8C05025F07C5502FB0AFE4AF2000283
:103C4000C4F20002DDF810A002EB8101029A01F536
:103C5000406145EA0A6501EB8207C0F8C05007EBF6
:103C6000C902A56E02EB8E00626700EB86060BFBB5
:103C700005F2276706EB8C07C4E91E060AFB05F070
:103C800007EBC30303EB8202C4F884304DF2FC332C
:103C9000E16602EB8000C4F200039842C4F8807031
:103CA000C4F88820C4F8900001D920206AE6814237
:103CB00009D2002041F8040BD4F890209142F9D3A6
:103CC00005B0BDE8F08F002005B0BDE8F08F000022
:103CD000B0B5B6B0044602A8B8210025CDE93455E8
:103CE000CDE932553195FCF78AFC4DF20041206850
:103CF000C4F2000188424DD04AF20041C4F20001F2
:103D0000884200F08F804AF20001C4F2000188422C
:103D100040F0D180002003904FF4004002904FF01B
:103D200080501D9002A801F0C3FE08B1FDF760F8B5
:103D300040F2C41144F2E040C2F20041C5F6020074
:103D40000A68002A02F101020A6008D1C16841F440
:103D50008071C160C16801F48071019101990168AD
:103D600041F008010160006831A900F008000190ED
:103D7000019803203190022032900020CDE93300D9
:103D80000920359040F60040C5F6020000F008FA20
:103D9000132488E04FF4004002904FF080501D90B3
:103DA00002A8039501F084FE08B1FDF721F840F266
:103DB000C41144F2E040C2F20041C5F602000A68B4
:103DC000002A02F101020A6008D1C16841F4807141
:103DD000C160C16801F4807101910199016841F0ED
:103DE00008010160006831A900F008000190019805
:103DF0004FF440503190022032900020CDE9330042
:103E00000520359040F60040C5F6020000F0C8F9E4
:103E10009F200521002200F03BFB9F2000F028FBA3
:103E2000A02440E0002003904FF4004002904FF0A7
:103E300080501D9002A801F03BFE08B1FCF7D8FFAE
:103E400040F2C41144F2E040C2F20041C5F6020063
:103E50000A68002A02F101020A6008D1C16841F42F
:103E60008071C160C16801F480710191019901689C
:103E700041F002010160006840F6004100F00200DC
:103E80000190C5F602010198602031900220329025
:103E90000020CDE9330009203590A1F5006031A95B
:103EA00000F07EF9142405210022204600F0F0FAEB
:103EB000204600F0DDFA36B0B0BD00000000000082
:103EC0007047000000000000F0B581B0C90741D084
:103ED0004AF200070546C4F200070068B84234D130
:103EE00041F2EC744021C2F200442046FCF787FB0B
:103EF00040F25C264021C2F2004628463246234664
:103F0000FFF7AAFA3068A0F2052103291DD8FB307B
:103F10002188C2B242F640235200C2F2004352FA54
:103F200080F0628809BAA688090C23F8201051BADB
:103F300000EE101A03EB800031BAB8EEC00A090C8B
:103F40000181A17980ED010A4181286807F550516E
:103F5000884201D001B0F0BD41F66C044021C2F2AC
:103F600000442046FCF74BFB40F2AC264021C2F255
:103F70000046284632462346FFF76EFA306830384E
:103F80000728E7D8DFE800F0051B2B0404043F6492
:103F9000E0E7208843F2BC226188C2F20042A38895
:103FA00000BA09BA000C1080080C508019BAE088D9
:103FB000090C918000BA000CD08001B0F0BD2088BF
:103FC00043F2BC21C2F20041A28800BA000C088171
:103FD0006088488110BA000C888201B0F0BD20884A
:103FE00043F2BC226188A388C2F2004200BA09BA37
:103FF000000C9081080CD08119BA080C1082E0885E
:10400000508201B0F0BD208840F2F4226188C2F2F3
:10401000004200BA000C108108BA40F20831C2F226
:104020000041000CE279088141F66470C2F2004060
:104030002179017043F22031C2F20041B4F8050049
:10404000088041F2E970C2F20040027001B0F0BD98
:104050002078022809D001287FF47CAF40F2F421B7
:10406000D4F80220C2F2004105E040F20831D4F851
:104070000220C2F200416078887210BA00EE100A85
:10408000B8EEC00A81ED030A01B0F0BD00000000E7
:1040900070B5C90607D54AF2004105460068C4F26A
:1040A0000001884200D070BD41F62C044021C2F2CC
:1040B00000442046FCF7A3FA40F284264121C2F2D4
:1040C0000046284632462346FFF7C6F93068A0F27C
:1040D0000121072988BF70BD01382188C2B242F68C
:1040E000A0235200C2F2004352FA80F0628809BA5B
:1040F000A688090C23F8201051BA00EE101A03EB21
:10410000800031BAB8EEC00A090C0181A17980EDB6
:10411000010A418170BD000090F8981001290CD16E
:10412000022180F8981001688A6922F001028A61F0
:104130000021C0F89C1008467047D0F89C1041F050
:104140000401C0F89C10012070470000000000002E
:1041500070470000000000007047000000000000F1
:1041600070470000000000007047000000000000E1
:1041700070470000000000007047000000000000D1
:1041800070470000000000007047000000000000C1
:1041900070470000000000007047000000000000B1
:1041A0002DE9F04F82B00C68002C00F0C58000F1C2
:1041B000264242F2004302F1FF72C5F602030A27CB
:1041C00098424FEAB22540F2040E08BF0927082D95
:1041D000C5F6000E38BF4FEAB22700224FF0030C9D
:1041E00000970026002709E001370C6834FA07F32E
:1041F00006F1020602F1040200F09E80012303FA98
:1042000007FA14EA0A09EFD0D1F804B00BF003045E
:10421000A4F10108B8F1010F11D8D0F808800CFA08
:1042200006F3CD6828EA0303B5402B438360CBF344
:104230000015436823EA0A03BD402B434360032C67
:104240001DD0C3680CFA06F5AB438D68B540022C4F
:1042500043EA0503C36012D16FF0030302F01C05AB
:1042600003EA57030F24034404FA05FAD3F8208025
:104270000C6928EA0A08AC4044EA08041C62036896
:104280000CFA06F44D68A34305F0030415F4403F0F
:1042900004FA06F443EA04030360A5D044F2F444AC
:1042A00040F2084AC5F60204C5F6000A0F25236845
:1042B00043F002032360236803F00203019327F015
:1042C0000303019C02F00C0453F80A80A54028EA7D
:1042D0000508009D05FA04F444EA080443F80A407E
:1042E0004FF0B04ADAF800804C6848EA0905E3026A
:1042F00058BF28EA0905A302CAF80050DEF800807A
:1043000048EA090558BF28EA0905A303CEF800507A
:10431000DEF8808048EA090558BF28EA0905E40369
:10432000CEF88050DEF87C3043EA090558BF23EA16
:104330000905CEF87C5057E702B0BDE8F08F0000C9
:10434000002A08BF090481617047000000000000D6
:1043500046F62C70C2F20040006870470000000072
:1043600040F2281046F62C71C2F20040C2F2004121
:1043700000780A68104408607047000000000000E0
:1043800080B5032000F0B4F802F006FA44F21841B8
:1043900040F67463C5F60201C0F601030A680968B5
:1043A00001F00F01C2F30322595C9A5C01F01F0176
:1043B00002F01F02D04040F23002C2F2004220FA66
:1043C00001F1116040F22C01C2F2004108600F209F
:1043D00000F00AF800281CBF012080BD00F030F872
:1043E000002080BD00000000B0B540F22811C2F2EC
:1043F0000041097801B3044640F22C00C2F20040AB
:104400004FF47A72B2FBF1F10068B0FBF1F003F007
:104410006BF90F2C4FF001050CD858B94FF0FF3055
:1044200000222146002500F033F840F22C10C2F2A1
:10443000004004602846B0BD0120B0BD000000006F
:1044400081B044F2F4400022C5F60200016841F058
:104450000201016000680F2100F0020000906FF07F
:104460000100009B01B000F013B800000000000044
:10447000002848BF704700F01F01012202FA01F135
:104480004EF200124009CEF2000242F820107047AE
:1044900070B54EF60C5C4FF0FF36CEF2000C00F11A
:1044A000604505F56445DCF80030C3F3022E8EF05C
:1044B0000703042B28BF0423BEF1030406FA03F309
:1044C00021EA030100F00F0338BF0024043B002859
:1044D000634406FA04F048BF03F10C05A14022EA48
:1044E000000008430001287070BD000000000000BB
:1044F0004EF60C514FF6FF03CEF200010A681A4047
:1045000060F30A2242F0806040F0FD70086070475E
:1045100001680122C0F80025002280F8F42488698F
:1045200040F000608861486D40F08052002042F009
:1045300003024A6570470000704700000000000059
:104540000268002051627047B0B5D0F800E0DEF894
:104550002400D1B1DEF82830B1F1010C00EB134397
:104560000BD05FFA8CF10EF58070002450F8045FD8
:1045700001348C4203EB1543F8D30EEB8C0043EA75
:104580000241C0F804110020B0BD40EA0240CEF85C
:1045900028000020B0BD0000D0F8080507F088BD55
:1045A00001EBC10200EB8202D0F80805926C07F023
:1045B000EBBC00000000000001EBC10200EB820236
:1045C000D0F80805D2F8882207F036BD00000000B8
:1045D000D0F8080507F070BD10B54AB2044601F0E6
:1045E0000F00B2F1FF3F00EBC00104EB810205DDDB
:1045F00002F51F71002382F87D3204E002F13C01D4
:10460000012382F83D3094F8BC240870012A01D1BE
:10461000022010BD012084F8BC04206808F02CFBA7
:10462000002084F8BC0410BDB0B5044601F00F00B2
:104630006268824201D20120B0BD49B2B1F1FF3FB0
:1046400009DD00EBC001002304EB810202F51F71BC
:1046500082F87D3208E000EBC001012304EB810207
:1046600002F13C0182F83D3094F8BC2400258D70A5
:10467000012A087001D10220B0BD012084F8BC04D9
:10468000206808F089FC284684F8BC54B0BD0000BE
:1046900001F00F0101EBC10100EB8100D0F89002A5
:1046A000704700000000000070B54CB2064601F0F3
:1046B0000F00B4F1FF3F00EBC00107DD06EB810402
:1046C000002504F51F7184F87D5206E006EB810C8D
:1046D00001240CF13C018CF83D404D7808708A6053
:1046E000002D0B7118BF4883022B01D100204871A7
:1046F00096F8BC04012801D1022070BD012086F883
:10470000BC04306808F0D8F9002086F8BC0470BDFD
:1047100080B501F00F0E0EEBCE0100EB810C0021F5
:10472000CCE9A331C368CCF888228CF87D12012B28
:104730008CF87CE20CF51F7108BFCCF89822DAB235
:10474000006808F071FC002080BD0000000000003F
:10475000B0B5044601F00F054068854201D901203B
:10476000B0BD48B2B0F1FF3F09DD01EBC10000224E
:1047700004EB800000F51F7180F87D2208E005EB56
:10478000C500012204EB800000F13C0180F83D20CF
:1047900094F8BC2401208870012A0D7001D10220F8
:1047A000B0BD84F8BC04206808F01EFC2DB9217B44
:1047B000206804F2C44208F0BFFB002084F8BC0467
:1047C000B0BD00000000000080B501F00F0E0EEB40
:1047D000CE0100EB810C614601F83CEF4FF0000E7A
:1047E000C1F814E04FF0010E81F801E0D0F80CE0C0
:1047F000CA60BEF1010F0B6108BFCCF858205FFA08
:104800008EF2006808F010FC002080BD000000005F
:104810002DE9F04F89B005688246284608F084FDEE
:1048200010B109B0BDE8F08FDAF8000008F0ACFD77
:104830000028F6D0D5F80808C0F30D20CAF8FC040B
:10484000DAF8000008F0A0FD800705D5DAF80000CE
:10485000416901F002014161DAF8000005F50066E6
:1048600008F092FDC00605953ED5DAF80000816992
:1048700021F0100181612C6A04F00F05C4F343405C
:10488000062819D0022828D147F6F07014EA00084B
:1048900023D005EBC5004FEA18140AEB80070598F2
:1048A0002246D7F8881208F073FDD7F8880200EB8B
:1048B0001810C7F8880207E00AF2C44108220598D8
:1048C00008F066FDC4F30A1405EBC5000AEB80008E
:1048D000D0F890122144C0F89012DAF800008169F3
:1048E00041F010018161059DDAF80000049608F09E
:1048F0004BFD0003CDF820A040F10381DAF8000061
:1049000008F01EFD002800F0FC8006464FF43068D9
:1049100000244FF0000B0AF2C440079009E000BFEA
:104920000BF1010B760808F1200804F1240400F0D3
:10493000E880F007F4D05FFA8BF9DAF80000494616
:1049400008F01AFD8246C0076CD005EB0800012173
:104950008160089F386808EB0001036C8A68FF6873
:10496000012F2AD117073BD4970658D412F0280FED
:10497000059D57D143F20B07C4F65477BB4202D3CF
:1049800012F4004248D1089F002C07EB0402D2F831
:104990009C3209696FF3DF41A3EB0101C2F8901269
:1049A00040F0AD80D2F88C32002B00F0A380D2F81A
:1049B00088020844C2F88802A0E043F20B07C4F65C
:1049C0005477FF37BB4219D1100425D49006059DBA
:1049D00001D52020886008984946FFF7EDFD21E0C9
:1049E00043F20B00059DC4F6547083421AD312F4AF
:1049F000004017D04FF40040886013E03CB908999C
:104A0000D1F88C1219B90021079A08F095FA089884
:104A10004946FFF7D1FD04E04FF4004000E02020BC
:104A20008860059D5FEA0A7026D505EB080008211D
:104A3000816043F20B010898C4F654714F1E006860
:104A4000056C4044BD42816805D911F400411CBF8A
:104A50004FF400418160089800F0FAFBBD42059DCB
:104A60000AD90898C068012806D108980121079A38
:104A7000006808F061FA00BF5FEACA6016D45FEA16
:104A80008A701AD45FEA8A6003D505EB08002021FA
:104A900081605FEA8A40DDF820A07FF541AF05EB39
:104AA00008004FF4005181603AE700BF05EB0800B1
:104AB000102181605FEA8A70E4D56869000604D538
:104AC0000499486840F4806048600898204490F851
:104AD0007F12012906D1002180F87F1208984946EB
:104AE00000F0A6FA05EB0800022181605FEA8A6007
:104AF000CBD4CEE70121079A08F01EFA089F38466A
:104B000086E7DAF80000AB4608F03EFC400340F1CF
:104B1000E380DAF8000008F00BFC002800F0DC80ED
:104B2000064600270BF5106003900AF2C44002907D
:104B300005E000BF760807F1010700F0CD80F0071F
:104B4000F8D0F9B2DAF80000079108F001FC044649
:104B5000C007039D0AD1200732D4E00636D4600690
:104B60003AD4A0073ED42006E4D554E0049B07F0D5
:104B70000F004FF0010C05EB47120CFA00F0596BD7
:104B800021EA00005863C2F808C0DAF80C000128D6
:104B900010D107EBC7000AEB8000D0E911121144D5
:104BA00081643FB9C06C28B9DAF800000121029A8B
:104BB00008F0C2F950460799FFF7F2FC2007CCD560
:104BC00005EB471008218160E006C8D505EB4710CA
:104BD000102181606006C4D505EB4710402181603B
:104BE000A007C0D55846394608F066FB07EBC7005A
:104BF0000AEB800010F83F1F012905D10021017048
:104C00005046079900F010FA05EB47100221816029
:104C100020067FF58FAF07EBC7000AEB80008146C7
:104C200059F84C1FC84658F8042F9142FFF482AF40
:104C30008346DAF80030891A5BF8442F914238BF76
:104C40000A4603EB471106930332D1F818399BB299
:104C5000B3EB920F28D301F5106A00F1480500BFAD
:104C6000D8F80000D9F8001081421DD9081A089917
:104C7000DBF80040A0420A7B38BF04462968009256
:104C8000A3B2DDE9060208F07FFC28682044286012
:104C9000D8F800002044C8F80000E01CDAF818102A
:104CA00089B2B1EB900FDBD2D9F80000D8F8001030
:104CB0008842DDF820A0DDF814B03FF63BAF069A3D
:104CC00007F00F00012101FA00F0D2F8341821EAB0
:104CD0000000C2F834082DE7DAF8000008F054FBB1
:104CE000B0F1FF3F049C18DC606820F001006060B8
:104CF0009AF8F404012807D100208AF8F40400216E
:104D00005046FFF719FC02E0504600F085FADAF849
:104D10000000416901F000414161DAF8000008F04B
:104D200033FB00050BD5A068C00702D0504600F049
:104D3000B7FADAF80000416901F400614161DAF87C
:104D4000000008F021FB000118D5DAF800004169E5
:104D500001F0006141619AF8F41419B1504600F075
:104D60009FFA0BE001218AF8F414406D0121C0F391
:104D70008300CAF8F8045046FFF7DEFBDAF80000BB
:104D800008F002FBC00453D56068102120F0010038
:104D90006060DAF8000008F08FFADAF80400D0B1A9
:104DA0000BF510614FF67F328A6001380B6823F4EF
:104DB00000130B60C1F80822D1F8003223F400136D
:104DC000C1F80032D1F8003243F00063C1F800327C
:104DD00001F12001E8D1E06940F00110E061DAF86A
:104DE000300040B1D4F8840040F00B00C4F88400D7
:104DF00004F1440006E0606942F22B01084360615F
:104E000004F1100001680AF2C44241F00B01016094
:104E1000206820F4FE6020609AF80C10DAF8000098
:104E200008F08AF8DAF80000416901F48051416124
:104E3000DAF8000008F0A8FA80041CD5DAF80000BF
:104E400007F07EFEDAF8000008F05EFACAF81000FB
:104E5000DAF8004001F018FC9AF8102001462046CC
:104E600008F006FB504600F0BFF9DAF8000041698F
:104E700001F400514161DAF8000008F085FA0007FA
:104E800008D5504600F0CCF9DAF80000416901F08D
:104E900008014161DAF8000008F076FA000629D529
:104EA0000599886920F080008861DAF804000228FA
:104EB00020D3012440F2A32507E000BF0134DAF833
:104EC0000400844205F1240514D21AF805000128D3
:104ED000F4D104F00F00220600EBC0000AEB8000C2
:104EE00000F13C0158BF00F51F71DAF8000008F02E
:104EF00097F9E3E7DAF8000008F046FAC00230D587
:104F0000DAF80400022826D305980AF1640500F5B2
:104F100012640126012708E00137DAF8040087420D
:104F200004F1200405F1240515D22068297801290F
:104F3000F2D1B0F1FF3FEFDC07F00F0005F8016C94
:104F400000EBC0000AEB800000F13C01DAF8000041
:104F500008F066F9E0E7DAF80000416901F4801131
:104F60004161DAF8000008F00FFA800235D5DAF86E
:104F70000410059D02292AD305F5326001390AF58E
:104F80002972012306E000BF013900F1200002F17F
:104F900024021CD007681678012EF5D1B7F1FF3F27
:104FA000F2DCDAF8FC6407F4803706F00106B74259
:104FB000EAD102F8013CAF6947F08007AF616F6941
:104FC0003F06E1D40499486840F400704860DAF87C
:104FD0000000416901F400114161DAF8000008F0B5
:104FE000D3F9400008D55046FFF7D6FADAF80000AA
:104FF000416901F080414161DAF8000008F0C4F92C
:1050000040077FF50EACDAF800004468600702D56F
:105010005046FFF7DDFADAF80000416821434160AD
:1050200009B0BDE8F08F0000D0F8080507F0A8B877
:10503000D0F8080507F0B8B82DE9F04F8BB000287C
:1050400000F083800446056890F8BD0428B900206C
:1050500084F8BC04204600F08FF8032084F8BD04D7
:10506000E86BC00501D40020E060206807F05CFF19
:1050700020680A9004F1040E04F11C0AD4E90C50D3
:105080009EE80E589AE8C007CDE9085003A88DE8BD
:10509000005880E8C0070A9807F062FD002851D147
:1050A00020680021002508F09BF9616861B304F1D4
:1050B00056000122002300BFDFB200F81A3C013382
:1050C0000780DFB200F8192C00F8165CB94240F8EE
:1050D000125C40F80E5C40F80A5C00F12400EBD84A
:1050E00004F523700022002300F8103C0133DFB2E6
:1050F00000F80F2CB94200F80C2C40F8082C40F8AE
:10510000042C40F8242BEFD804F1140E04F1240AE7
:105110002268A0680A90D4E903379EE840589AE8CC
:105120000007D4E90C50CDE9085002A8CDE900767B
:1051300080E8005805A880E8000710460A9A07F0A2
:10514000FFFD30B1022084F8BD0401200BB0BDE8A2
:10515000F08F002084F83800012084F8BD04606AD4
:10516000012802D12046FFF7D3F9206807F0D8FDC7
:1051700000200BB0BDE8F08F10B5B0B0044602A817
:10518000B821FBF73CFA00212068C4F204018842F0
:1051900001D030B010BD002003904FF48020029069
:1051A0004FF44010239002A800F082FC08B1FBF7F6
:1051B0001FFE00F0B5F844F2D8400022C5F6020008
:1051C000016841F0007101600068052100F0007085
:1051D000019001984D20FFF75BF94D20FFF748F94A
:1051E00030B010BD0000000010B50446006918B1D1
:1051F000022803D1012104E0002102E0FBF7F8FDC1
:105200000121D4F8080507F05BF8D4F80805BDE8DB
:10521000104007F005B80000D0F8080507F034B8D2
:10522000D0F8080507F03CB810B5044690F8BC0467
:10523000012801D1022010BD012084F8BC0484F8AB
:105240003810206808F000F9002084F8BC0410BD74
:10525000D0F8082500F2C441104607F049B8000014
:1052600010B5044690F8BC04012801D1022010BDFD
:105270002068012184F8BC14C16BC90506D4A16A59
:10528000012903D1816B41F48031816308F00CF86E
:10529000206807F035FD002084F8BC0410BD000034
:1052A00010B50446D0F8080507F07AF82068D0F861
:1052B000001E41F00101C0F8001E206A002808BF4E
:1052C00010BD4EF61050CEF20000016841F006010C
:1052D000016010BD00000000B0B544F60C05C5F635
:1052E000020529684907296805D401F00701081A51
:1052F00018BF0120B0BD21F0070108432860FFF767
:1053000027F8044655F8080C800407D4FFF720F866
:10531000001BB0F57A7FF5D90120B0BD0020B0BDEB
:1053200044F60C00C5F60200016841F0807101608E
:10533000704700000000000080B501F0A5F944F2BC
:10534000204140F67462C5F60201C0F60102096808
:10535000C1F30211515C01F01F01C84080BD000083
:1053600080B544F2304EC5F6020E5EF8083C5EF899
:10537000081CC1F3051C5EF8041CBCF1000FDEF82C
:10538000042018D001F0010103F003034942022B6D
:1053900001EAD2016FF35F3100EE101AB8EE400A55
:1053A0000ED0012B0FD01BB95EF8301C89060DD42E
:1053B0009FED341A18E000218160C0E9001180BD22
:1053C0009FED2F1A10E09FED2D1A0DE05EF8301CB6
:1053D00049F20002C0F2D032C1F3C10122FA01F158
:1053E00001EE101AB8EE411ADEF800109FED263AD1
:1053F0006FF35F2102EE101ADEF80010C1F34621B0
:10540000B8EE422A00EE032A00EE10CAB7EE003AC8
:10541000B8EE400A81EE000A32EE031A02EE101ACC
:10542000B8EE422A20EE010A32EE031A80EE011A8B
:10543000BCEEC11A80ED001ADEF80010C1F306417F
:1054400001EE101AB8EE411A31EE031A80EE011A7D
:10545000BCEEC11A80ED011ADEF80010C1F306613E
:1054600001EE101AB8EE411A31EE031A80EE010A6D
:10547000BCEEC00A10EE101A816080BD0024744A90
:10548000001BB74B0024744C0000003900000000E2
:1054900080B544F2384EC5F6020E5EF8103C5EF858
:1054A000101C5EF80C2CC1F3053CDEF80410BCF1B6
:1054B000000F15D0C908D20601EAE2716FF35F311F
:1054C00000EE101A03F003010229B8EE400A0CD0D6
:1054D00071B95EF8381C89060DD49FED351A18E0B5
:1054E00000218160C0E9001180BD9FED301A10E0FD
:1054F0009FED2D1A0DE05EF8381C49F20002C0F253
:10550000D032C1F3C10122FA01F101EE101AB8EE56
:10551000411ADEF800109FED273A6FF35F2102EE8B
:10552000101ADEF80010C1F34621B8EE422A00EE50
:10553000032A00EE10CAB7EE003AB8EE400A81EE38
:10554000000A32EE031A02EE101AB8EE422A20EEDA
:10555000010A32EE031A80EE011ABCEEC11A80ED88
:10556000001ADEF80010C1F3064101EE101AB8EE81
:10557000411A31EE031A80EE011ABCEEC11A80ED19
:10558000011ADEF80010C1F3066101EE101AB8EE40
:10559000411A31EE031A80EE010ABCEEC00A10EE89
:1055A000101A816080BD00BF0024744A001BB74BF5
:1055B0000024744C0000003980B544F2404EC5F61A
:1055C000020E5EF8183C5EF8181C5EF8142CC1F34D
:1055D000055CDEF80410BCF1000F15D0C908D20537
:1055E00001EAE2716FF35F3100EE101A03F003017C
:1055F0000229B8EE400A0CD071B95EF8401C890649
:105600000DD49FED351A18E000218160C0E900112A
:1056100080BD9FED301A10E09FED2D1A0DE05EF871
:10562000401C49F20002C0F2D032C1F3C10122FA9B
:1056300001F101EE101AB8EE411ADEF800109FEDEC
:10564000273A6FF35F2102EE101ADEF80010C1F363
:105650004621B8EE422A00EE032A00EE10CAB7EE49
:10566000003AB8EE400A81EE000A32EE031A02EE6A
:10567000101AB8EE422A20EE010A32EE031A80EE2A
:10568000011ABCEEC11A80ED001ADEF80010C1F359
:10569000064101EE101AB8EE411A31EE031A80EEFF
:1056A000011ABCEEC11A80ED011ADEF80010C1F338
:1056B000066101EE101AB8EE411A31EE031A80EEBF
:1056C000010ABCEEC00A10EE101A816080BD00BF56
:1056D0000024744A001BB74B0024744C00000039AE
:1056E00010B584B0024641F6FF7300209B1A70EBA0
:1056F00001032CDA47F6FF739B1A70EB010380F26B
:105700008E8082F400430B4300F0B48082F4803337
:105710000B4300F0FB8082F40022114340F03981FA
:1057200044F20040C5F60200816D01F44031B1F54C
:10573000003F00F03C81B1F5803F00F01A81002964
:1057400040F02C810068000140F1288102E140F224
:10575000FF739B1A70EB010330DB82F480730B4301
:1057600000F09B8082F48062114340F0128144F289
:105770000041C5F60201886DC0F34252042A00F2CE
:105780000D8148F20000C0F2BB00DFE812F0BD005E
:10579000E000E70002010500C86C0A68520700F04B
:1057A0004052086802D5002A00F04F81C00540F140
:1057B0001781B2F1805F00F0618111E182F4006332
:1057C0000B4300F08F8082F48052114340F0E1805F
:1057D00044F20041C5F60201086DC0F30232042A0A
:1057E00000F2DC8048F20000C0F2BB00DFE812F0FB
:1057F0008C00AF00B600D1000500C86C0A685207E3
:1058000000F04052086802D5002A00F01E81C00551
:1058100040F1E680B2F1805F00F03081E0E082F498
:1058200000530B4300F0808082F48042114340F02B
:10583000B08044F20044C5F60204A06DC0F30270CB
:10584000052800F2AB80DFE810F00600DC00DE0087
:10585000E000E500E70000F017FF216A40F67462FF
:10586000C0F60102C1F30211515C01F01F01C840F2
:1058700004B010BD44F20040C5F60200016D01F015
:105880004051B1F1005F00F07D80B1F1805F00F028
:105890008280002940F0828069E044F20041C5F630
:1058A0000201086D00F00702042A00F2778048F236
:1058B0000000C0F2BB00DFE802F0274A516C030091
:1058C000C86C0A68520700F04052086802D5002AE6
:1058D00000F0BB80C00540F18380B2F1805F00F032
:1058E000CD807DE044F20041C5F60201886DC0F331
:1058F0000262042A52D848F20000C0F2BB00DFE87E
:1059000002F003262D486200086845E044F200409A
:10591000C5F60200C16C0068C9033DD500013DD544
:1059200001A8FFF7B5FD2AE044F20040C5F60200E9
:10593000016DC1F30241052930D8DFE801F003749D
:105940007B82901804B0BDE8104000F0C5BE086826
:10595000000123D501A8FFF79BFD05E00868800042
:105960001CD501A8FFF728FE019804B010BD0068FF
:1059700053E00068800011D501A8FFF71DFE0398D1
:1059800004B010BD0068000108D501A8FFF780FD34
:10599000029804B010BD0068800102D4002004B059
:1059A00010BD01A8FFF7DCFC029804B010BDC16C6B
:1059B0000268520701F0405102685AD5002958D1B7
:1059C000C2F3C10043E0C86C0A68520700F04052BD
:1059D000086800D5CAB3C00502D5B2F1805F4DD0CA
:1059E0000868B2F1005F00F400314FF0000004BF1E
:1059F00043F20060C0F26E10002908BF084604B0F0
:105A000010BD206810E0206815E020684007C5D56B
:105A100020681AE0206823E0206843F200618003D8
:105A2000C0F26E1121E000680001B7D501A8FFF7B0
:105A30002FFDB9E700688000B0D501A8FFF7BCFDD5
:105A4000B2E701684907A9D50068C0F3C10049F26F
:105A50000001C0F2D03121FA00F004B010BD00689E
:105A600040F60011C005C0F23D0101EAE07004B04B
:105A700010BDD20508D5B1F1805F05D140F6001008
:105A8000C0F23D0004B010BD0068B1F1005F00F449
:105A900000324FF0000004BF43F20060C0F26E100D
:105AA000002A08BF104604B010BD0000000000002E
:105AB0002DE9F04381B00446C07844F22C49000738
:105AC000C5F6020901D400252EE0606E4FEA305081
:105AD00003280DD80025DFE800F0020E1714D9F8CE
