:020000040800F2
:100000007856002025030008994400086F3D000839
:10001000954400089B0500085953000800000000A3
:100020000000000000000000000000006502000861
:10003000DD08000800000000C10200089148000827
:100040003F0300083F0300083F0300083F03000888
:100050003F0300083F0300083F0300083F03000878
:100060003F0300083F0300083F0300086106000843
:10007000710600088106000891060008A106000824
:10008000B1060008C10600083F030008C1050008CA
:10009000A1050008B10500083F0300083F03000860
:1000A0003F0300083F0300083F0300083F03000828
:1000B0003F0300083F0300083F0300083F03000818
:1000C0003F0300083F0300083F0300083F03000808
:1000D0003F030008FD5100080D520008215200089E
:1000E0003F0300083F0300083F0300083F030008E8
:1000F0003F0300088D4900083F030008D1060008AF
:100100003F0300083F0300083F0300083F030008C7
:10011000754A0008194B00083F0300083F03000818
:100120003F0300083F0300083F0300083F030008A7
:100130003F0300080000000000000000F105000877
:10014000D1050008E10500083F0300083F0300084F
:10015000E10600083F030008F10600083F0300081D
:100160003F0300083F0300083F0300083F03000867
:100170003F0300083F0300083F03000800000000A1
:10018000000000003F030008000000000000000025
:100190003F03000800000000000000003F030008CB
:1001A0000000000000000000000000003F03000805
:1001B0003F0300083F0300083F0300083F03000817
:1001C0003F03000800F002F800F03CF80AA090E8B5
:1001D000000C82448344AAF10107DA4501D100F002
:1001E00031F8AFF2090EBAE80F0013F0010F18BF93
:1001F000FB1A43F001031847188B0000388B0000EE
:10020000103A24BF78C878C1FAD8520724BF30C842
:1002100030C144BF04680C60704700000023002414
:1002200000250026103A28BF78C1FBD8520728BF06
:1002300030C148BF0B6070471FB508F042FB1FBDBF
:1002400010B510BD00F074F91146FFF7F5FF06F088
:100250008BF900F092F903B4FFF7F2FF03BC00F052
:1002600095F900002C4B19680868B0E8F04F80F34E
:100270000988BFF36F8F4FF0000080F3118870473B
:100280000000000008480068006880F308884FF00C
:10029000000080F3148862B661B6BFF34F8FBFF3DE
:1002A0006F8F00DF00BF00BF08ED00E0DFF80C003B
:1002B000016841F470010160704700BF88ED00E003
:1002C000EFF30980BFF36F8F134B1A681EF0100F06
:1002D00008BF20ED108A20E9F04F106009B44FF0FC
:1002E000500080F31188BFF34F8FBFF36F8F07F07B
:1002F000B1FA4FF0000080F3118809BC1968086852
:10030000B0E8F04F1EF0100F08BFB0EC108A80F379
:100310000988BFF36F8F704728000020EFF3058036
:10032000704700000948804709480047FEE7FEE79C
:10033000FEE7FEE7FEE7FEE7FEE7FEE7FEE7FEE795
:1003400004480549054A064B7047000079490008F2
:10035000C50100087850002078560020785200200F
:100360007852002053EA020C00F069802DE9F04B2E
:100370004FF00006002B1FBFB3FA83F503FA05F414
:1003800024FA05F65E4012BF1643B2FA82F502FA6D
:1003900005F4C5F120051EBF22FA05FC44EA0C0451
:1003A000203556EA044C4FEA144418BF641C4FF041
:1003B00000084FF00009904271EB030C39D300297B
:1003C00019BFB1FA81F701FA07F6B0FA80F700FA1F
:1003D00007F6C7F120071EBF20FA07FC46EA0C0605
:1003E0002037B6FBF4FCA7EB0507103F07F01F0B07
:1003F000CBF120060CFA0BFB2CFA06F644BFB346F1
:100400000026202FA4BF5E464FF0000B5BEA060CCF
:1004100008BF4FF0010B19EB0B09ABFB027C48EB5B
:100420000608C01B06FB02CC0BFB03CC71EB0C01D6
:10043000C1E70B46024641464846BDE8F08B13B57E
:100440004FF000004FF00001AFF30080BDE81C400A
:10045000704710B5203AC0F00B80B1E81850203A30
:10046000A0E81850B1E81850A0E81850BFF4F5AF54
:100470005FEA027C24BFB1E81850A0E8185044BFDE
:1004800018C918C0BDE810405FEA827C24BF51F84B
:10049000043B40F8043B08BF7047D20728BF31F83F
:1004A000023B48BF11F8012B28BF20F8023B48BF90
:1004B00000F8012B70474FF0000200B51346944638
:1004C0009646203922BFA0E80C50A0E80C50B1F1AC
:1004D0002001BFF4F7AF090728BFA0E80C5048BFC0
:1004E0000CC05DF804EB890028BF40F8042B08BF5E
:1004F000704748BF20F8022B11F0804F18BF00F85A
:10050000012B704770477047704710B500F008F82E
:10051000006810BD10B5044600F002F8046010BD7C
:1005200000487047185000200048704718500020BD
:100530007546FFF7F9FFAE4605006946534620F0C1
:100540000700854618B020B5FFF7FAFEBDE8204049
:100550004FF000064FF000074FF000084FF0000B7F
:1005600021F00701AC46ACE8C009ACE8C009ACE832
:10057000C009ACE8C0098D46704710B50446AFF31A
:1005800000802046BDE81040FFF765BE01491820F5
:10059000ABBEFEE726000200704700BFFEE700008A
:1005A00010B5024800F0E6FF10BD00000004002076
:1005B00010B5024800F0DEFF10BD0000000400206E
:1005C00010B5024800F0D6FF10BD00000004002066
:1005D00010B5024800F0CEFF10BD00002804002036
:1005E00010B5024800F0C6FF10BD0000280400202E
:1005F00010B5024800F0BEFF10BD00002804002026
:1006000013B588B0044604F5A07002900020049051
:10061000059008200690A2208DF8000000208DF89B
:1006200001008DF802008DF803009DF824008DF87C
:1006300004009DF825008DF805009DF826008DF832
:1006400006009DF827008DF8070002236A4602A9DC
:10065000024800F094FD0AB010BD000028040020FC
:1006600010B5024801F006FC10BD00006406002031
:1006700010B5024801F0FEFB10BD0000A4080020E8
:1006800010B5024801F0F6FB10BD0000A4050020E3
:1006900010B5024801F0EEFB10BD00000409002077
:1006A00010B5024801F0E6FB10BD00000406002072
:1006B00010B5024801F0DEFB10BD0000E407002089
:1006C00010B5024801F0D6FB10BD00004408002020
:1006D00010B5024801F0CEFB10BD0000C40600209A
:1006E00010B5024801F0C6FB10BD00002407002031
:1006F00010B5024801F0BEFB10BD000084070020C9
:100700000146087810381823B0FBF3F20848805CE3
:10071000C865032A05D908686FF30900001D8865BC
:1007200003E008686FF309008865886D7047000072
:1007300064890008014600208A6A8B69CBB932B10E
:10074000012A0DD0022A03D0032A10D10EE000BFE7
:10075000CB6A03F08073B3F1807F00D1012007E002
:10076000CB6AB3F1C07F00D1012001E000E000BFFF
:1007700034E08B69B3F5005F1AD132B1012A07D09A
:10078000022A03D0032A11D10AE000BF01200EE0A3
:10079000CB6A03F08073B3F1807F00D1012006E0C3
:1007A000CB6AB3F1C07F00D1012000E000BF15E0AB
:1007B00032B1012A05D0022A04D0032A0CD103E069
:1007C00000BF00BF012008E0CB6A03F08073B3F1E3
:1007D000807F00D1012000E000BF00BF704730B52E
:1007E0000468246824F4802405682C60046863602D
:1007F0008468402C04D10468A2600468E16003E0CE
:100800000468A1600468E26030BD000038B50446A9
:100810000D492068884215D10C4800680068C0F373
:10082000001078B100BF0020009008480068006800
:100830000090064800684068009000BF00BF204656
:1008400003F080F938BD0000004400401C05002082
:1008500038B504461D492068884235D11C480068D7
:100860000068C0F3001078B300BF00200090184863
:10087000006800680090164800684068009000BF5B
:1008800000BF134802F054FC12480078A52816D186
:1008900011481049497881700E49897801710D49D4
:1008A000D1F8031081610B49D1F807104161094962
:1008B000D1F80B1001610749D1F80F10C1628022F5
:1008C0000449034803F01CF938BD00000050004003
:1008D000940400202B010020E44700207047000012
:1008E00010B52DED088BB0EE408A9FED210AF0EE99
:1008F000408A9FED200AB0EE409A89EE080A10EE79
:10090000104A204607F06CFF41EC1B0BB0EE4B0A7F
:10091000F0EE6B0A05F064FBB0EE40AAF0EE60AAC0
:1009200051EC1A0B07F052FA00EE100ADFED120A32
:1009300020EE200AF0EE408A18EE900A07F050FFF1
:1009400041EC1B0BB0EE4B0AF0EE6B0A05F0F8FC25
:10095000B0EE40AAF0EE60AA51EC1A0B07F036FA9E
:1009600008EE900AB0EE680ABDEC088B10BD0000DE
:100970000000000010B1D13D3333654210B588B09E
:10098000044604F5A0700290002004900590082011
:10099000069090208DF8000000208DF801008DF861
:1009A00002008DF803008DF804008DF805008DF825
:1009B00006008DF8070002236A4602A9024800F0EB
:1009C000DEFB08B010BD00002804002072B600BF96
:1009D000FEE7000004F0C2FC03F03AFE0C48006899
:1009E000C06840F010000A490968C86064220949DB
:1009F000074803F085F800BF012005F07DFE03F0F5
:100A0000E7FD00F023F803F0E1F903F0CFFEF3E790
:100A1000500400209C46002030B5034613B94FF621
:100A2000FF7030BD09E013F8014B82EA0400C0B248
:100A3000054D35F8100080EA2222081EA1F10101BF
:100A4000F1D11046EDE70000868A00080B480C49FA
:100A5000898A01800A48807C084948800848C17C0E
:100A6000064881800648808981B20448C1800448D4
:100A7000C08981B2014801817047000018480020F8
:100A80003849002000B589B040F2FF1003900020E3
:100A9000059006900820079016484088000A8DF8B7
:100AA0000400144880788DF805001248C089000AB7
:100AB0008DF806000F48807B8DF807000D48408BAD
:100AC000000A8DF808000B48807E8DF8090009485F
:100AD000C08C000A8DF80A00064890F826008DF8B0
:100AE0000B00022301AA03A9034800F048FB09B048
:100AF00000BD0000D84800202804002010B59FED5C
:100B0000212ADFED201A9FED201ADFED200A9FED4C
:100B1000200A204806F056F99FED1A2ADFED191A2F
:100B20009FED1D1ADFED180AB3EE0E0A1B4806F002
:100B300049F99FED142ADFED131A9FED131ADFED2B
:100B4000130A9FED130A1348343006F03BF99FED6A
:100B50000D2ADFED0C1A9FED101ADFED0B0AB3EE34
:100B60000E0A0E48343006F02DF900F01DFA9FED04
:100B7000060A0B4880ED000A9FED030A094880ED44
:100B8000000A10BD0060EA4600000000CDCCCC3D5C
:100B900000004843404D00200000C842E04E0020C5
:100BA000C8000020CC00002010B52DED0A8B1E4897
:100BB000B0F9020010F5257F32DB1B48B0F90200C6
:100BC000B0F5257F2CDC1849B1F9020007F030FBA5
:100BD00041EC1C0B9FED150B53EC102B07F0D0F9DB
:100BE00041EC1B0B9FED130B53EC102B07F038FB64
:100BF00041EC190B1148006807F0F2FD41EC1A0BAB
:100C000053EC192B07F002FD41EC180B07F0DEF84E
:100C10000A490860084690ED000A094880ED000A7C
:100C2000BDEC0A8B10BD0000384900200000000018
:100C300000A08440000000A09999C93FC80000208E
:100C4000CC00002010B52DED0A8B5D48407821289E
:100C500002D1FFF7A9FFAFE0594840780D2866D1CF
:100C60005848B0F9020010F5257F2CDB5548B0F943
:100C70000200B0F5257F26DC5249B1F9020007F0E9
:100C8000D7FA41EC1C0B9FED500B53EC102B07F0E7
:100C900077F941EC1B0B9FED4E0B53EC102B07F03B
:100CA000DFFA41EC190B4C48006807F099FD41EC64
:100CB0001A0B53EC192B07F0A9FC41EC180B07F0A9
:100CC00085F8454908603F48B0F9060010F5257FD2
:100CD00072DB3C48B0F90600B0F5257F6CDC394981
:100CE000B1F9060007F0A4FA41EC1C0B9FED360B9E
:100CF00053EC102B07F044F941EC1B0B9FED340B28
:100D000053EC102B07F0ACFA41EC190B3348006898
:100D100007F066FD41EC1A0B53EC192B07F076FC3B
:100D200041EC180B07F052F82C49086044E02448C5
:100D30004078162840D12248007810B900F052F8C7
:100D40003AE01F480078012820D11D48807858B12A
:100D5000234890ED020A204880ED000A90ED000A39
:100D60001E4880ED000A0DE01548C07850B11C48BF
:100D700090ED040A194880ED000A90ED000A16482B
:100D800080ED000A02200E49087015E00C4800783A
:100D9000032811D10A48807828B1114890ED020A41
:100DA0000D4880ED000A0648C07828B10C4890ED47
:100DB000040A0A4880ED000ABDEC0A8B10BD000051
:100DC00022480020384900200000000000A0844094
:100DD000000000A09999C93FC8000020CC00002065
:100DE000E447002010B52DED048B6A488079012876
:100DF00030D16948006807F0F3FC41EC190B9FED16
:100E0000670B53EC102B07F001FC41EC180B06F0BC
:100E1000DDFF61490860084690ED000AFBEE0E0A0E
:100E2000B4EEE00AF1EE10FA48D2006807F0D8FC00
:100E300041EC190B9FED590B53EC102B06F0F8FF0A
:100E400041EC180B06F0C2FF5349086002205149DB
:100E5000887133E04F48807902282FD14E480068CE
:100E600007F0BEFC41EC190B9FED4C0B53EC102B23
:100E700006F0DEFF41EC180B06F0A8FF46490860BB
:100E8000084690ED000AF3EE090AB4EEE00AF1EE2E
:100E900010FA13DD006807F0A3FC41EC190B9FED7D
:100EA0003F0B53EC102B07F0B1FB41EC180B06F095
:100EB0008DFF394908600120364988713548C0796D
:100EC000012830D13748006807F08AFC41EC190B43
:100ED0009FED320B53EC102B07F098FB41EC180BF5
:100EE00006F074FF2F490860084690ED000AFBEEFB
:100EF0000E0AB4EEE00AF1EE10FA48D2006807F0EC
:100F00006FFC41EC190B9FED250B53EC102B06F0F9
:100F10008FFF41EC180B06F059FF224908600220B0
:100F20001C49C87133E01B48C07902282FD11D48E5
:100F3000006807F055FC41EC190B9FED180B53ECC2
:100F4000102B06F075FF41EC180B06F03FFF15491A
:100F50000860084690ED000AF3EE090AB4EEE00AD4
:100F6000F1EE10FA13DD006807F03AFC41EC190BC2
:100F70009FED0A0B53EC102B07F048FB41EC180BCC
:100F800006F024FF0749086001200249C871BDEC42
:100F9000048B10BD22480020C80000209A9999991E
:100FA0009999A93FCC00002010B50C48808B01B264
:100FB0000B48B0F9000005F029FBB1EE400A0948E2
:100FC00080ED000A0548008D01B20748B0F9000025
:100FD00005F01CFB054880ED000A10BDD848002034
:100FE000C4000020D0000020C6000020D400002053
:100FF0001D4890ED000AF3EE090AB4EEE00AF1EEA6
:1010000010FA04DDB3EE090A80ED000A0DE016487F
:1010100090ED000AFBEE0E0AB4EEE00AF1EE10FAD3
:1010200003D2BBEE0E0A80ED000A104890ED000AD4
:10103000F3EE090AB4EEE00AF1EE10FA04DDB3EEC5
:10104000090A80ED000A0DE0084890ED000AFBEE69
:101050000E0AB4EEE00AF1EE10FA03D2BBEE0E0A6D
:1010600080ED000A70470000C8000020CC0000207E
:1010700010B52948D0ED000A284890ED000A28480C
:1010800005F0FAFB2748D0ED020A30EE200A80ED89
:10109000020A2548B0F91E0001EE100AB8EEC11A86
:1010A000F0EE410A1F4890ED021AB0EE410A1F48C7
:1010B00005F062FBBDEEC00A10EE100A01B21A483C
:1010C00041831B48D0ED000A1A4890ED000A1448ED
:1010D000343005F0D1FB1348D0ED030A30EEC00ADE
:1010E00080ED030A1048B0F92A0001EE100AB8EEAC
:1010F000C11AF0EE410A0B4890ED031AB0EE410A16
:101100000A48343005F038FBBDEEC00A10EE100A74
:1011100001B20548C18410BDD0000020C8000020E5
:10112000E04E002058480020D8480020404D0020C4
:10113000D4000020CC0000209FED040A044880ED7C
:10114000020A9FED020A80ED030A704700000000CA
:101150005848002010B5024692F82030012B01D0EB
:10116000022B06D1106840690843146860610020B2
:1011700010BD506A40F4802050620120F8E7F0B5BD
:1011800004460D461E4694F8207020688368A868BF
:1011900000B900E000BF012F01D0022F7CD103F085
:1011A000806030B903F0006018B903F08050002867
:1011B00073D0C3F30161022905D9606A40F40000CD
:1011C00060620120F0BD012088403060A86860B9ED
:1011D000B5F800C0E86840EA4C5C206800F5C070D3
:1011E00000EB0110C0F800C00FE0D5E901C040EAF3
:1011F000CC00D5F80CC040EA0C00D4F800C00CF5C7
:10120000C07C0CEB011CCCF80000D5F810C02068A5
:1012100000F5C07000EB0110C0F804C0287D012863
:101220000ED1206800F5C07000EB0110406840F45A
:10123000807C206800F5C07000EB0110C0F804C08D
:10124000D079000692F806C040EA0C4092F805C03A
:1012500040EA0C2C10794CEA000C206800F5C070B4
:1012600000EB0110C0F80CC0D078000692F802C064
:1012700040EA0C4092F801C040EA0C2092F800C00D
:1012800040EA0C00D4F800C00CF5C07C0CEB011C4B
:10129000CCF80800206801E016E00FE000F5C0700F
:1012A00000EB0110006840F0010C206800F5C070F0
:1012B00000EB0110C0F800C0002083E7606A40F432
:1012C0000010606201207DE7606A40F48020606267
:1012D000012077E7F0B504460A46216894F82050CB
:1012E000012D01D0022D7ED1424901F5007108681F
:1012F00040F001000860086820F47C50086008682D
:10130000566A40EA06200860107D00F01F060120A2
:1013100000FA06F3C8699843C861A1F50071D06965
:10132000C8B9D1F80C029843C1F80C02908880B279
:10133000968940EA064601F51070576940F8376013
:10134000108880B2168940EA064601F51070576988
:1013500000EBC7004660D069012819D1D1F80C0212
:101360001843C1F80C02908880B2168840EA0646FD
:1013700001F51070576940F83760908980B216897E
:1013800040EA064601F51070576900EBC700466059
:10139000906928B9D1F804029843C1F8040204E026
:1013A000D1F804021843C1F80402106928B9D1F831
:1013B00014029843C1F8140204E0D1F8140218434F
:1013C000C1F81402106A012804D1D1F81C02184394
:1013D000C1F81C02D1F8000220F00100C1F800029F
:1013E0000020F0BDFFE7606A40F4802060620120C9
:1013F000F7E7000000640040704770B5044694F8B9
:101400002050012D01D0022D7DD151B92068C06836
:1014100000F0030080B9606A40F4001060620120AF
:1014200070BD2068006900F0030028B9606A40F4CC
:10143000001060620120F3E7206800F5D87000EB2F
:101440000110006800F004009060906840B92068C6
:1014500000F5D87000EB01100068400D106007E047
:10146000206800F5D87000EB01100068C0085060DB
:10147000206800F5D87000EB0110006800F0020051
:10148000D060206800F5D87000EB0110406800F0D3
:101490000F001061206800F5D87000EB0110406863
:1014A00000F47F40000A9061206800F5D87000EBDE
:1014B00001104068000C5061206800F5D87000EB06
:1014C000011080681870206800F5D87000EB0110DA
:1014D000806800F47F40000A5870206800F5D870DA
:1014E00000EB0110806800F47F00000C9870206809
:1014F00000F5D87000EB01108068000ED8702068ED
:1015000000F5D87000E02FE000EB0110C068187102
:10151000206800F5D87000EB0110C06800F47F402F
:10152000000A5871206800F5D87000EB0110C068FF
:1015300000F47F00000C9871206800F5D87000EB73
:101540000110C068000ED87131B92068C06840F041
:1015500020002668F06005E02068006940F0200067
:101560002668306100205BE7606A40F4802060629A
:10157000012055E72DE9F05F044600252068466903
:101580002068D0F80490206887682068D0F80CA004
:101590002068D0F810B02068D0F8188006F001005C
:1015A000002855D007F00100C0B1012021688860F3
:1015B00007F0020018B1204600F0EBFB0EE007F048
:1015C000040010B145F4006508E007F0080010B110
:1015D00045F4805502E0204600F0DAFB07F4807005
:1015E000C8B14FF480702168886007F4007018B1AA
:1015F000204600F0D0FB0EE007F4806010B145F407
:10160000005508E007F4006010B145F4804502E0A1
:10161000204600F0BFFB07F48030C8B14FF48030A3
:101620002168886007F4003018B1204600F0B5FB4F
:101630000EE007F4802010B145F4004508E007F4FF
:10164000002010B145F4803502E0204600F0A4FBF4
:1016500006F0080038B10AF0100020B145F400751A
:1016600010202168C86006F0040040B10AF00800AC
:1016700028B108202168C860204600F02DFA06F045
:10168000020038B12068C06800F0030010B12046A5
:1016900000F024FA06F0400038B10BF0100020B141
:1016A00045F4806510202168086106F0200040B1F3
:1016B0000BF0080028B1082021680861204600F0DE
:1016C00035FB06F0100038B12068006900F0030017
:1016D00010B1204600F02BFB06F4003040B109F0B9
:1016E000100028B1102021684860204600F020FB3F
:1016F00006F4803040B109F0080028B108202168C4
:101700004860204600F04AFB06F4004088B309F028
:10171000040078B306F4807020B108F0010008B12D
:1017200045F0010506F4007020B108F0020008B190
:1017300045F0020506F4806020B108F0040008B10D
:1017400045F0040506F40060A0B108F0700088B10F
:1017500008F07000402817D006DC10280BD0202895
:101760000CD0302819D10CE0502810D0602814D1AA
:1017700010E01DE019E045F008050FE045F0100508
:101780000CE045F0200509E045F0400506E045F095
:10179000800503E045F4807500E000BF00BF2068CD
:1017A000806920F070002168886104202168486009
:1017B0002DB1606A284360622046FFF71DFEBDE838
:1017C000F09F70B504460CB9012070BD94F820005C
:1017D00010B9204600F0B0F82068006840F0010021
:1017E0002168086000F01EFE05460DE000F01AFEBC
:1017F000401B0A2808D9606A40F400306062052066
:1018000084F820000120E0E72068406800F0010033
:101810000028EBD02068006820F0020021680860F2
:1018200000F000FE05460DE000F0FCFD401B0A281C
:1018300008D9606A40F400306062052084F8200016
:101840000120C2E72068406800F002000028EBD1C8
:10185000207E012806D12068006840F080002168C1
:10186000086005E02068006820F0800021680860BA
:10187000607E012806D12068006840F040002168A1
:10188000086005E02068006820F0400021680860DA
:10189000A07E012806D12068006840F02000216861
:1018A000086005E02068006820F0200021680860DA
:1018B000E07E012806D12068006820F01000216831
:1018C000086005E02068006840F0100021680860AA
:1018D000207F012806D12068006840F008002168B8
:1018E000086005E02068006820F0080021680860B2
:1018F000607F012806D12068006840F0040021685C
:10190000086005E02068006820F004002168086095
:10191000D4E9020108432169084361690843616809
:10192000491E08432168C86100206062012084F8D4
:101930002000002049E7000010B586B004461421BD
:1019400001A8FEF7B8FD5F492068884252D15E4881
:101950000068401C5C4908600846006801280FD1F7
:1019600000BF002000905948006840F000705749BF
:1019700008600846006800F00070009000BF00BFDB
:1019800000BF0020009051481038006840F002006D
:101990004E49103908600846006800F002000090C7
:1019A00000BF00BF4FF44070019002200290002061
:1019B0000390032004900920059001A9444800F0F9
:1019C00039FC00220521132000F0F0FD132000F067
:1019D000DDFD00220521142000F0E8FD142000F0B8
:1019E000D5FD00220521152000F0E0FD152000F0B6
:1019F000CDFD65E037492068884261D100BF0020F5
:101A000000903248006840F0806030490860084625
:101A1000006800F08060009000BF00BF2A480068A6
:101A2000401C294908600846006801280FD100BF02
:101A3000002000902548006840F0007023490860AD
:101A40000846006800F00070009000BF00BF00BFB3
:101A5000002000901D481038006840F002001B492B
:101A6000103908600846006800F00200009000BFCE
:101A700000BF4FF4405001900220029000200390DC
:101A8000032004900920059001A9114800F0D2FB21
:101A9000002205213F2000F089FD3F2000F076FD67
:101AA00000220521402000F081FD402000F06EFD65
:101AB00000220521412000F079FD412000F066FD63
:101AC00006B010BD00640040140000204038024001
:101AD00000040240006800407047000010B58AB062
:101AE00004468D49206888427DD101AB03AA0021BC
:101AF0002046FFF782FC0398302823D19DF805008B
:101B00009DF8041040EA012000B2844908809DF845
:101B100007009DF8061040EA012000B27F49488086
:101B20009DF809009DF8081040EA012000B27B49A9
:101B300088809DF80B009DF80A1040EA012000B251
:101B40007649C8800398312817D19DF805009DF883
:101B5000041040EA012000B2704908819DF8060097
:101B600088729DF807106D48C1729DF809009DF8B4
:101B7000081040EA0120694988820398322820D160
:101B80009DF805009DF8041040EA012000B2634969
:101B900088819DF807009DF8061040EA012001B2F7
:101BA0005E48C1819DF809009DF8081040EA0120B7
:101BB00001B25A4801829DF80A1081749DF80B10F9
:101BC000C1740398542813D19DF804005449087235
:101BD0009DF8050048729DF8060088729DF8070080
:101BE0009DF8081000E01EE040EA01204C49888181
:101BF0000398552817D19DF804009DF8051040EA78
:101C000001204749C8819DF806009DF8071040EA69
:101C10000120434908829DF808009DF8091040EA18
:101C200001203F4948823F492068884271D101AB79
:101C300003AA00212046FFF7E0FB0398B0F5017FDF
:101C400033D940F20B21039888422ED20399491FC1
:101C5000C8B29DF805109DF8042041EA022100EB6E
:101C60004002314B03EB820291809DF807109DF8F2
:101C7000062041EA022109B200EB400203EB820296
:101C8000D1809DF809109DF8082041EA022109B28F
:101C900000EB400203EB820211819DF80A1000EB79
:101CA000400203EB8202917200BF40F2411103989F
:101CB00088422ED19DF80400A2281DD19DF806006F
:101CC0009DF8071040EA012001B21748A0F85C1007
:101CD0009DF808009DF8091040EA012001B2124861
:101CE000A0F85A109DF80A009DF80B1040EA012157
:101CF0000D48A0F858100CE09DF80400902808D179
:101D00009DF806009DF8071040EA01210648A0F85A
:101D100058100AB010BD000000640040384900208F
:101D20002248002000680040D848002070477047D3
:101D3000704770B5044694F82000012822D1022093
:101D400084F820002068006820F001002168086005
:101D500000F068FB05460DE000F064FB401B0A281C
:101D600008D9606A40F400306062052084F82000E1
:101D7000012070BD2068406800F001000028EBD110
:101D80006062F6E7606A40F4002060620120F0E7DC
:101D9000704770477047704770477047704770B51D
:101DA0000446A56D00F03EFB064694F83500022877
:101DB00008D08020606500BF002084F8340000BF98
:101DC000012070BD2068006820F0160021680860BE
:101DD0002068406920F0800021684861206C08B9C3
:101DE000A06C28B12068006820F008002168086015
:101DF0002068006820F001002168086010E000F011
:101E000011FB801B05280BD920206065032084F876
:101E1000350000BF002084F8340000BF0320D0E765
:101E20002068006800F001000028E8D194F85C10F8
:101E30003F208840A860012084F8350000BF0020C2
:101E400084F8340000BF00BFBBE7014691F83500BD
:101E5000022803D08020486501207047052081F8C2
:101E600035000868006820F001000A681060002052
:101E7000F3E70000F8B50446002000908C480068A5
:101E80004FF41651B0FBF1F7A56D2E6894F85C1075
:101E900008208840304098B12068006800F00400B5
:101EA00070B12068006820F004002168086094F890
:101EB0005C1008208840A860606D40F001006065FB
:101EC00094F85C1001208840304068B12068406977
:101ED00000F0800040B194F85C1001208840A860B8
:101EE000606D40F00200606594F85C10042088404A
:101EF000304068B12068006800F0020040B194F8FA
:101F00005C1004208840A860606D40F004006065AB
:101F100094F85C1010208840304078B32068006846
:101F200000F0080050B394F85C1010208840A860BE
:101F30002068006800F4802080B12068006800F408
:101F4000002028B9206CC8B12046216C884715E0D4
:101F5000A06C98B12046A16C88470FE0206800680B
:101F600000F4807028B92068006820F0080021681B
:101F70000860206C10B12046216C884794F85C10F2
:101F8000202088403040002865D02068006800F09C
:101F9000100000285FD094F85C1020208840A860D2
:101FA00094F83500052828D12068006820F0160034
:101FB000216808602068406920F08000216848613D
:101FC000206C08B9A06C28B12068006820F00800D7
:101FD0002168086094F85C103F208840A8600120C8
:101FE00084F8350000BF002084F8340000BF206D65
:101FF00010B12046216D8847F8BD2068006800F4C4
:10200000802080B12068006800F4002028B9606C4E
:1020100010B12046616C88471DE0E06BD8B12046C6
:10202000E16B884717E02068006800F4807068B9A9
:102030002068006820F0100021680860012084F802
:10204000350000BF002084F8340000BFE06B10B101
:102050002046E16B8847606D38B3606D00F0010089
:10206000F0B1052084F835002068006820F00100F8
:102070002168086000BF0098401C0090B84200D959
:1020800005E02068006800F001000028F3D100BFDF
:10209000012084F8350000BF002084F8340000BF20
:1020A000E06C10B12046E16C884700BFA4E7000057
:1020B000240000202DE9F0410446002500F0B2F98B
:1020C000074614B90120BDE8F081606A00B100BF85
:1020D000022084F8350000BF002084F8340000BFDF
:1020E0002068006820F00100216808600AE000F024
:1020F00099F9C01B052805D920206065032084F8C4
:102100003500E0E72068006800F001000028EED10B
:102110002068056821480540D4E901010843E168C9
:1021200008432169084361690843A1690843E169DB
:102130000843216A08430543606A042803D1D4E9AF
:102140000B0108430543206805602068456925F0B8
:102150000705606A0543606A04280DD1A06A05433B
:10216000E06A48B12046FEF7E5FA28B140206065F4
:10217000012084F83500A6E7206845612046FEF777
:10218000BFFA064694F85C103F208840B0600020FB
:102190006065012084F83500002094E73F8010F04E
:1021A0002DE9F04704460D4616461F464FF000083D
:1021B000D4F8589000BF94F83400012802D10220CE
:1021C000BDE8F087012084F8340000BF94F83500A2
:1021D000012825D1022084F83500002060653B46A7
:1021E000324629462046FEF7FAFA94F85C103F2062
:1021F0008840C9F808002068006840F0160021688F
:102200000860206C28B12068006840F00800216850
:1022100008602068006840F001002168086006E05E
:1022200000BF002084F8340000BF4FF00208404691
:10223000C6E70000F8B502460B4600250024002042
:102240000021D1E0012606FA01F51E6806EA050420
:10225000AC4274D11E7906F00306012E04D01E791B
:1022600006F00306022E13D190684F000326BE40ED
:10227000B0434F00DE68BE40304390605068012696
:102280008E40B0431E79C6F300168E403043506036
:102290001E7906F00306032E09D0D0684F000326EE
:1022A000BE40B0434F009E68BE403043D0601E79B0
:1022B00006F00306022E13D1CF0802F1200656F8CD
:1022C00027004E07F70E0F26BE40B0434F07FF0E04
:1022D0001E69BE403043CF0802F1200646F82700B1
:1022E00010684F000326BE40B0431E7906F0030677
:1022F0004F00BE40304310605E6806F44036002E4A
:1023000071D000BF00260096394E366846F48046EC
:10231000374F3E603E46366806F48046009600BF62
:1023200000BF344E8F0856F827008E07370F0F2650
:10233000BE40B043304EB24202D100261FE052E010
:102340002E4EB24201D1012619E02D4EB24201D1EA
:10235000022614E02B4EB24201D103260FE02A4E92
:10236000B24201D104260AE0284EB24201D105262C
:1023700005E0274EB24201D1062600E007268F076E
:102380003F0FBE4030431B4E8F0846F82700214EBA
:102390003068A0435E6806F4801606B120431D4EE7
:1023A0003060361D3068A0435E6806F4001606B142
:1023B0002043184E361D3060164E361F3068A0433D
:1023C0005E6806F4003606B12043124E361F3060B8
:1023D000361F3068A0435E6806F4803606B120439D
:1023E0000C4E083E3060491C1029FFF42BAFF8BD9D
:1023F0004438024008380140000002400004024016
:1024000000080240000C024000100240001402408C
:1024100000180240083C01400AB1816101E00B0450
:102420008361704701480068704700001800002071
:102430000348006803490978084401490860704767
:10244000180000202000002010B50D48006840F45E
:1024500000700B4908600846006840F4806008601E
:102460000846006840F480700860032000F0DCF843
:102470000F2000F007F800F05FF8002010BD00000A
:10248000003C02402DE9F04188B004460027B846E0
:1024900000BF002001902348006840F4807021496B
:1024A00008600846006800F48070019000BF00BF1B
:1024B00002A903A800F08EF9069F1FB900F0B2F937
:1024C000054602E000F0AEF945001748B5FBF0F014
:1024D000A0F1010815481649086040F2E731144898
:1024E000C160C0F80480002101618160816100F059
:1024F000BBFC064696B90E4800F0EAFC06466EB9EB
:102500002D2000F043F8102C07D2002221462D2068
:1025100000F04CF80748046000E00126304608B09F
:10252000BDE8F0814038024040420F0000200040EA
:10253000640900201C00002008B500BF00200090A6
:102540001148006840F480400F4908600846006860
:1025500000F48040009000BF00BF00BF002000904A
:10256000081F006840F08050091F08600846006896
:1025700000F08050009000BF00BF00220F21901E8D
:1025800000F014F808BD0000443802400146084637
:10259000002809DB00F01F0301229A4043099B0039
:1025A00003F1E023C3F8002100BF70472DE9F05F7D
:1025B00080460D461646002703F0F6FC07463946CE
:1025C0002A46334601F00700C0F1070ABAF1040FAA
:1025D00002D94FF0040A01E0C0F1070AD14600F128
:1025E000040ABAF1070F02D24FF0000A01E0A0F18D
:1025F000030AD4464FF0010A0AFA09FAAAF1010ABD
:102600000AEA020A0AFA0CFA4FF0010B0BFA0CFB69
:10261000ABF1010B0BEA030B4AEA0B0421464046DF
:1026200003F0CAFCBDE8F09F00BF00F00702064BB4
:1026300019684FF6FF031940044B0B4343EA02218C
:10264000014B196000BF70470CED00E00000FA0577
:1026500070B504460D460CB9012070BD584800689D
:1026600000F00F00A84209D255490D7008460068D5
:1026700000F00F00A84201D00120EEE7207800F022
:10268000020002281DD1207800F00400042805D1A2
:102690004C48006840F4E0504A490860207800F057
:1026A0000800082805D14748006840F460404549C3
:1026B00008604448006820F0F000A16808434149E0
:1026C0000860207800F00100A8B36068012807D1F5
:1026D0003C4808380068C0F34040B8B90120BCE766
:1026E0006068022802D06068032807D1354808389E
:1026F0000068C0F3406048B90120AEE731480838AF
:102700000068C0F3400008B90120A6E72D48006822
:1027100020F00300616808432A490860FFF782FE41
:10272000064609E0FFF77EFE801B41F288318842B1
:1027300002D9032091E707E02248006800F00C006E
:102740006168B0EB810FEDD11D48006800F00F000B
:10275000A84209D91A490D700846006800F00F0018
:10276000A84201D0012078E7207800F00400042876
:1027700007D11448006820F4E050E168084311498B
:102780000860207800F00800082808D10D4800688B
:1027900020F46040216940EAC1000A49086000F065
:1027A00061F808490968C1F30311074A515CC84040
:1027B0000649086006480068FFF764FE00204CE701
:1027C000003C0240083802406C89000824000020C8
:1027D0001C0000200F2202600D4A126802F0030262
:1027E00042600B4A126802F0F0028260084A1268E6
:1027F00002F4E052C260064A126802F46042D20853
:102800000261044A126802F00F020A607047000079
:1028100008380240003C0240014800687047000050
:102820002400002000B5FFF7F7FF04490968C1F351
:102830008221034A515CC84000BD000008380240B4
:102840007C89000800B5FFF7E7FF04490968C1F378
:102850004231034A515CC84000BD000008380240C4
:102860007C8900082DE9F047002400250026A146B8
:10287000A2463F48006800F00C0030B1042807D0A1
:10288000082808D00C286BD138E0DFF8E8A06AE00F
:10289000DFF8E4A067E03648001F006800F03F045E
:1028A0003348001F006800F4800078B13248304996
:1028B000091F0968C1F38811A0FB01700146224677
:1028C00000233846FDF74EFD05460DE0294828490E
:1028D000091F0968C1F38811A0FB0171224600237A
:1028E0003846FDF73FFD05462148001F0068C0F34C
:1028F0000140401C4600B5FBF6FA34E01C48001FBE
:10290000006800F03F041A48001F006800F48000CF
:1029100078B119481649091F0968C1F38811A0FB4D
:1029200001700146224600233846FDF71BFD05468F
:102930000EE010480E49091F0968C1F38811A0FB79
:1029400001700146224600233846FDF70BFD05467F
:102950000748001F0068C0F30279B5FBF9FA02E0EE
:10296000DFF810A000BF00BF5046BDE8F0870000B0
:10297000083802400024F400001BB700F8B50446F4
:102980000CB90120F8BD207800F0010000286FD0BC
:10299000FE48006800F00C0004281BD0FB480068CB
:1029A00000F00C00082807D1F848001F006800F468
:1029B0008000B0F5800F0DD0F448006800F00C00E6
:1029C0000C2813D1F148001F006800F48000B0F516
:1029D000800F0BD1ED4808380068C0F34040002854
:1029E00059D06068002856D10120CBE700BF60684D
:1029F000B0F5803F08D1E5480838006840F48030E1
:102A0000E249083908601EE06068B0F5A02F0DD1DA
:102A1000DE480838006840F48020DC490839086046
:102A20000846006840F4803008600CE0D748083859
:102A3000006820F48030D5490839086008460068ED
:102A400020F48020086000BF606890B1FFF7EAFCC6
:102A5000054606E0FFF7E6FC401B642801D9032089
:102A600090E7CA4808380068C0F340400028F1D019
:102A700011E0FFF7D7FC054606E0FFF7D3FC401B4B
:102A8000642801D903207DE7C04808380068C0F3F6
:102A900040400028F1D1207800F0020002286BD1DC
:102AA000BA48006800F00C00B8B1B848006800F0FF
:102AB0000C00082805D1B548001F006800F480000C
:102AC00058B1B248006800F00C000C281CD1AF4887
:102AD000001F006800F48000B0B9AC4808380068F6
:102AE000C0F3400020B1E068012801D0012049E78F
:102AF000A6480838006820F0F800216940EAC100C3
:102B0000A2490839086037E0E06800B30120A04915
:102B10000860FFF787FC054606E0FFF783FC401BD3
:102B2000022801D903202DE7984808380068C0F32F
:102B300040000028F1D095480838006820F0F800DF
:102B4000216940EAC10091490839086014E0002079
:102B50008F490860FFF766FC054606E0FFF762FC58
:102B6000401B022801D903200CE788480838006878
:102B7000C0F340000028F1D1207800F008000828B8
:102B80002CD16069A8B1012082490860FFF74AFC96
:102B9000054606E0FFF746FC401B022801D903204A
:102BA000F0E67A486C300068C0F340000028F1D0AD
:102BB00014E0002077490860FFF734FC054606E082
:102BC000FFF730FC401B022801D90320DAE66F48EA
:102BD0006C300068C0F340000028F1D1207800F08C
:102BE0000400042870D1002768483830006800F0DD
:102BF000805090B900BF00200090644838300068D1
:102C000040F080506149383108600846006800F0A3
:102C10008050009000BF00BF01275F48006800F4AB
:102C20008070B0B95C48006840F480705A49086010
:102C3000FFF7F8FB054606E0FFF7F4FB401B022810
:102C400001D903209EE65448006800F480700028F3
:102C5000F2D000BFA068012808D14C486830006855
:102C600040F001004949683108601DE0A06805286E
:102C70000DD146486830006840F00400434968318F
:102C800008600846006840F0010008600CE03F481A
:102C90006830006820F001003C496831086008464F
:102CA000006820F00400086000BFA068A8B1FFF72A
:102CB000B9FB054609E0FFF7B5FB401B41F288313F
:102CC000884202D903205DE626E03048683000687B
:102CD000C0F340000028EED013E0FFF7A3FB054649
:102CE00008E0FFF79FFB401B41F28831884201D981
:102CF000032047E6254868300068C0F340000028FC
:102D0000EFD1012F07D121483830006820F08050E2
:102D10001E493831086000BFA069002851D01B4807
:102D2000006800F00C00082861D0A069022849D191
:102D3000002017490866FFF775FB054606E0FFF718
:102D400071FB401B022801D903201BE60F480838FD
:102D50000068C0F340600028F1D1D4E907010843BE
:102D6000616A40EA81110122A06AC2EB500041EA87
:102D700000412C20005D41EA00613020005D41EA05
:102D800000700249091F0860012007E0083802406E
:102D900000004742800E4742007000402F490866FD
:102DA000FFF740FB054606E0FFF73CFB401B02280F
:102DB00001D90320E6E52A480068C0F340600028F6
:102DC000F2D048E0002025490866FFF72BFB0546B6
:102DD00006E0FFF727FB401B022801D90320D1E5BD
:102DE0001F480068C0F340600028F2D133E0A069BA
:102DF000012800D1C6E51A48001D0668A06901280F
:102E000027D006F48001E069814222D106F03F011B
:102E1000206A81421DD147F6C0703040616AB0EB34
:102E2000811F16D106F440310122A06AC2EB500086
:102E3000B1EB004F0DD106F070612C20005DB1EBBD
:102E4000006F06D106F0E0413020005DB1EB007F5D
:102E500001D0012096E5002094E5000000004742E3
:102E6000003802407047704710B504460CB9012085
:102E700010BD94F83D0028B9002084F83C0020469D
:102E800000F025F8022084F83D00211D206801F0A3
:102E900085FD012084F8460000BF84F83E00012132
:102EA0003F200155402001554120015500BF00BF82
:102EB000012084F84200432001554420015545205B
:102EC000015500BF012084F83D000020D0E7704785
:102ED000014691F83D00012801D0012070470220F1
:102EE00081F83D000868C06840F001000B68D860B8
:102EF0001A4B086898421BD00868B0F1804F17D071
:102F0000174B0868984213D0164B086898420FD0A8
:102F1000154B086898420BD0144B0868984207D0AC
:102F2000134B0868984203D0124B086898420CD1A2
:102F30000868806800F00702062A0CD0086800685C
:102F400040F001000B68186005E00868006840F078
:102F500001000B6818600020C0E70000000001407D
:102F60000004004000080040000C00400004014044
:102F70000040014000180040704710B5044620682A
:102F80000069C0F34000D8B12068C068C0F34000B9
:102F9000B0B16FF00200216808610120207720683D
:102FA000806900F0030018B12046FFF7E5FF05E057
:102FB000204600F0ADF8204600F0ABF80020207766
:102FC00020680069C0F38000D8B12068C068C0F3F1
:102FD0008000B0B16FF00400216808610220207702
:102FE0002068806900F4407018B12046FFF7C4FFE4
:102FF00005E0204600F08CF8204600F08AF800201A
:10300000207720680069C0F3C000D8B12068C0688C
:10301000C0F3C000B0B16FF008002168086104205F
:1030200020772068C06900F0030018B12046FFF740
:10303000A3FF05E0204600F06BF8204600F069F899
:103040000020207720680069C0F30010D8B1206804
:10305000C068C0F30010B0B16FF0100021680861C3
:10306000082020772068C06900F4407018B120461D
:10307000FFF782FF05E0204600F04AF8204600F006
:1030800048F8002020772068006900F0010058B15E
:103090002068C06800F0010030B16FF001002168C5
:1030A0000861204600F036F820680069C0F3C010BF
:1030B00058B12068C068C0F3C01030B16FF0800014
:1030C000216808612046FFF7CDFE20680069C0F343
:1030D000801058B12068C068C0F3801030B16FF024
:1030E000400021680861204600F020F8206800694F
:1030F000C0F3401058B12068C068C0F3401030B130
:103100006FF02000216808612046FFF7ACFE10BD7B
:103110007047704710B5044603492068884201D1C2
:10312000FFF786F910BD000000200040704770478F
:1031300070B50446002520684069C0F3C01594F8B6
:103140003D00212817D1B5B100BF00BF216814315F
:1031500051E8001F21F080002168143141E800028D
:10316000002AF3D100BF606B10B1606BFEF717FE51
:10317000204601F0BBFD20684069C0F3801594F83B
:103180003E00222817D1B5B100BF00BF216814311D
:1031900051E8001F21F040002168143141E800028D
:1031A000002AF3D100BFA06B10B1A06BFEF7F7FDB2
:1031B000204601F055FD002070BD70472DE9F84F05
:1031C0000446206805682068C668206847694FF093
:1031D0000009CA4605F00F09B9F1000F0AD105F040
:1031E000200038B106F0200020B1204601F091FD0A
:1031F000BDE8F88FB9F1000F7CD007F0010018B9D5
:1032000006F49070002875D005F0010030B106F486
:10321000807018B1206C40F00100206405F00400BB
:1032200030B107F0010018B1206C40F002002064BA
:1032300005F0020030B107F0010018B1206C40F039
:103240000400206405F0080048B106F0200010B921
:1032500007F0010018B1206C40F008002064206CD9
:10326000002846D005F0200028B106F0200010B15B
:10327000204601F04EFD20684069C0F3801A206CA2
:1032800000F0080010B9BAF1000F2DD0204601F06F
:10329000E7FC2068406900F04000402820D100BFD2
:1032A00000BF2168143151E8001F21F0400021685F
:1032B000143141E80002002AF3D100BFA06B50B1E5
:1032C0007548A16B0865A06BFEF7BFFD88B1A06BC8
:1032D000016D88470DE02046FFF76FFF09E009E028
:1032E0002046FFF76AFF04E02046FFF766FF002054
:1032F00020647DE7206B012876D105F010000028BE
:1033000072D006F010000028FAD000BF0020009014
:1033100020680068009020684068009000BF00BFEF
:103320002068406900F0400040285ED1A06B006832
:1033300040681FFA80F8B8F1000F54D0A08D4045C6
:1033400051DDA4F82E80A06BC069B0F5807F43D01A
:1033500000BF00BF21680C3151E8001F21F48070CC
:1033600021680C3141E80002002AF3D100BF00BF00
:1033700000BF2168143151E8001F21F001002168CD
:10338000143141E80002002AF3D100BF00BF00BFA2
:103390002168143151E8001F21F0400021681431E8
:1033A00041E80002002AF3D100BF202084F83E004B
:1033B0000020206300BF00BF21680C3151E8001FCE
:1033C00021F0100021680C3141E80002002AF3D1FD
:1033D00000BFA06BFEF7E3FCA08DE28D801A81B2E6
:1033E0002046FFF7A4FE03E740E0A08DE18D401AE0
:1033F0001FFA80F8E08DC0B3B8F1000F35D000BFE0
:1034000000BF21680C3151E8001F21F49070216841
:103410000C3141E80002002AF3D100BF00BF00BF19
:103420002168143151E8001F21F001002168143196
:1034300041E80002002AF3D100BF202084F83E00BA
:103440000020206300BF00BF21680C3151E8001F3D
:1034500021F0100021680C3141E80002002AF3D16C
:1034600000BF41462046FFF762FEC1E605F080003E
:1034700030B106F0800018B1204601F045FEB7E6F5
:1034800005F0400030B106F0400018B1204601F0D0
:103490001DFCADE600BFABE62D4B000810B50446A1
:1034A0000CB9012010BDA06900B100E000BF94F884
:1034B0003D0028B9002084F83C00204600F028F8A0
:1034C000242084F83D002068C06820F40050216862
:1034D000C860204601F09AFC2068006920F4904002
:1034E000216808612068406920F02A00216848614D
:1034F0002068C06840F400502168C8600020206443
:10350000202084F83D0084F83E000020CAE7000037
:1035100010B586B00446142101A8FCF7CCFFFD4984
:10352000206888427BD100BF00200090FA480068E4
:1035300040F40020F84908600846006800F40020C4
:10354000009000BF00BF00BF00200090F24810387C
:10355000006840F00400F04910390860084600682F
:1035600000F00400009000BF00BF4FF440600190E5
:103570000220029000200390032004900820059070
:1035800001A9E648FEF756FEE548E6490860400511
:1035900048600021E3488160C1604FF480610161AF
:1035A0000021416181614FF48071C161002101629C
:1035B0004162FEF77FFD08B1FDF708FA00BFD94868
:1035C000A063846300BFD6483030D74908604FF00D
:1035D000006048604021D44881600021C1604FF400
:1035E000806101610021416181614FF48071C1619D
:1035F000002101624162FEF75DFD08B1FDF7E6F9C9
:1036000000BFC9486063846300BF002205213420E5
:10361000FEF7CCFF3420FEF7B9FF5FE2FFE7C349B6
:10362000206888427ED100BF00200090BA48006820
:1036300040F48010B84908600846006800F4801023
:10364000009000BF00BF00BF00200090B2481038BB
:10365000006840F00400B04910390860084600686E
:1036600000F00400009000BF00BF00BF00200090E9
:103670000846006840F0080008600846006800F04E
:103680000800009000BF00BF881401900220029043
:1036900000200390032004900820059001A99F4872
:1036A000FEF7C8FD04200190022002900020039044
:1036B000032004900820059001A99D48FEF7BAFD5B
:1036C000974830389B490860C005486000219948F8
:1036D0008160C1604FF480610161002141618161BD
:1036E0004FF48071C161002101624162FEF7E2FC8A
:1036F00008B1FDF76BF900BF8E48A063846300BF7B
:10370000874878308C4908604FF00060486040215D
:10371000894881600021C1604FF48061016100210E
:10372000416100E019E081614FF48071C1610021C5
:1037300001624162FEF7BEFC08B1FDF747F900BF28
:103740007D486063846300BF002205213520FEF7B9
:103750002DFF3520FEF71AFFC0E178492068884226
:1037600078D100BF002000906B48001D006840F039
:1037700010006949091D08600846006800F0100043
:10378000009000BF00BF00BF0020009062481038CA
:10379000006840F001006049103908600846006880
:1037A00000F00100009000BF00BF4FF4C060019026
:1037B000022002900020039003200490072005902F
:1037C00001A95F48FEF736FD5E485F4908604FF08B
:1037D0000060486000215C488160C1604FF48061F6
:1037E0000161002141618161C16101624162FEF7B5
:1037F00061FC08B1FDF7EAF800BF5348A063846399
:1038000000BF50483030514908604FF000604860B8
:1038100040214E4881600021C1604FF48061016108
:10382000002141618161C16101624162FEF742FC98
:1038300008B1FDF7CBF800BF44486063846300BF64
:10384000002205212520FEF7B1FE2520FEF79EFE71
:1038500044E1FFE73E49206888427FD100BF002055
:1038600000902D48006840F400302B49086008465D
:10387000006800F40030009000BF00BF00BF0020CF
:10388000009025481038006840F0010022491039A6
:1038900008600846006800F00100009000BF00BF0B
:1038A0000C2001900220029000200390032004903D
:1038B0000720059001A92248FEF7BCFC18484830B3
:1038C000244908604FF00060486000212148816071
:1038D000C1604FF4806101610021416181614FF459
:1038E0008071C161002101624162FEF7E3FB08B112
:1038F000FDF76CF800BF1748A063846300BF084859
:103900006030154908604FF000604860402112485F
:10391000816024E0004C0040403802400008024032
:1039200040600240A4050020040600200050004032
:10393000000C024064060020C40600200010014074
:103940000000024088640240240700208407002011
:1039500000440040E40700204408002020E000214B
:10396000C1604FF4806101610021416181614FF4C8
:103970008071C161002101624162FEF79BFB08B1C9
:10398000FDF724F800BF56486063846300BF00223F
:1039900005212620FEF70AFE2620FEF7F7FD9DE012
:1039A000504920688842FAD100BF002000904E485C
:1039B000006840F480204C4908600846006800F424
:1039C0008020009000BF00BF00BF0020009046484C
:1039D0001038006840F00400434910390860084678
:1039E000006800F00400009000BF00BF00BF00208E
:1039F00000900846006840F0020008600846006831
:103A000000F00200009000BF00BF202001900220C3
:103A1000029000200390032004900720059001A944
:103A20003248FEF707FC4FF48060019002200290BC
:103A300000200390032004900720059001A92C4842
:103A4000FEF7F8FB2B482C4908604FF000604860F7
:103A5000002129488160C1604FF48061016100212B
:103A6000416181614FF48071C1614FF44031016265
:103A700000214162FEF71EFB08B1FCF7A7FF00BF63
:103A80001D48A063846300BF1A4830301B4908609A
:103A90004FF0006048604021184881600021C160FB
:103AA0004FF480610161002141618161C1614FF486
:103AB0004031016200214162FEF7FCFA08B1FCF7D7
:103AC00085FF00BF0D486063846300BF00220521AD
:103AD0002720FEF76BFD2720FEF758FD06B010BD2E
:103AE00044080020004800404038024000080240DE
:103AF0000004024028600240A408002004090020BD
:103B000070B504460D46164694F83E00202816D19E
:103B100005B10EB9012070BD00BF94F83C0001282A
:103B200001D10220F7E7012084F83C0000BF00200B
:103B3000206332462946204601F07EFAEBE7022058
:103B4000E9E7000010B52DED068B044645492068D5
:103B500088427DD14448FFF7EBFA4448007850286A
:103B600075D142484078032871D1404909793F4ACC
:103B7000D27841EA022004F05BFB41EC1A0B9FED86
:103B80003C0B53EC102B04F0FBF941EC190B9FEDAF
:103B90003A0B53EC102B04F063FB41EC180B04F0D0
:103BA00015F93749086031498979304A527941EA33
:103BB000022004F03DFB41EC1A0B9FED2D0B53EC62
:103BC000102B04F0DDF941EC190B9FED2B0B53EC9E
:103BD000102B04F045FB41EC180B04F0F7F82949D1
:103BE00008602249097A214AD27941EA022004F088
:103BF0001FFB41EC1A0B9FED1E0B53EC102B04F036
:103C0000BFF941EC190B9FED1C0B53EC102B04F08A
:103C100027FB41EC180B04F0D9F81B490860084653
:103C200090ED000ADFED190AB4EEE00AF1EE10FAA9
:103C300007DD90ED000ADFED160A30EE600A80ED38
:103C4000000A114890ED000A124880ED000A00E0D9
:103C500004E00B2205490448FFF752FFBDEC068B38
:103C600010BD0000004400401C0500202001002081
:103C7000000000000000E0400000000000806640FE
:103C8000100100201401002018010020000034431E
:103C90000000B443AC00002070472DE9F84F044603
:103CA0000E46174699464FF0000A94F83D0020282A
:103CB0005AD106B117B90120BDE8F88F00BF94F8BA
:103CC0003C00012801D10220F6E7012084F83C00E5
:103CD00000BF00202064212084F83D00FEF7A2FBF5
:103CE0008246A784E784A068B0F5805F04D120698C
:103CF00010B90025B04602E035464FF0000800BF7D
:103D0000002084F83C0000BF1BE0534600228021C5
:103D10002046CDF8009001F027FA08B10320CBE748
:103D200045B9B8F80000C0F308002168486008F100
:103D3000020803E02878216848606D1CE08C401E72
:103D4000E084E08C0028E0D1534600224021204648
:103D5000CDF8009001F008FA08B10320ACE720206C
:103D600084F83D000020A7E70220A5E7704700BFC8
:103D7000FEE7000000BF0122D1031048FEF74CFB14
:103D8000012208210E48FEF747FBFF2308220D49B8
:103D90000D48FFF782FF00224FF400410748FEF76D
:103DA0003BFB002208210648FEF736FB052002F007
:103DB000A3FC012002F0A0FCDDE7000000080240A7
:103DC00000040240DC0000201C0500206D48C07A81
:103DD000012807D16B48807A012803D10B206A495A
:103DE000487068E06748C07A012807D16548807A42
:103DF000032803D10D20644948705CE06148C07A13
:103E0000012807D15F48807A022803D10C205E493F
:103E1000487050E05B48C07A032807D15948807A3F
:103E2000012803D11F205849487044E05548C07A02
:103E3000032807D15348807A032803D1212052490F
:103E4000487038E04F48C07A032807D14D48807A3F
:103E5000022803D120204C4948702CE04948C07A00
:103E6000022807D14748807A012803D11520464906
:103E7000487020E04348C07A022807D14148807A40
:103E8000032803D117204049487014E03D48C07A08
:103E9000022807D13B48807A022803D116203A49EC
:103EA000487008E03748C07A28B93648807A10B997
:103EB000162035494870354890ED020AB5EEC00A23
:103EC000F1EE10FA0AD090ED030AB5EEC00AF1EE59
:103ED00010FA03D001202C49887002E000202A4902
:103EE00088702A4890ED040AB5EEC00AF1EE10FA87
:103EF0000AD090ED050AB5EEC00AF1EE10FA03D033
:103F000001202149C87002E000201F49C8701E48E6
:103F10008078012803D01C48C07801280AD11A48AB
:103F2000007838B90120184908700020887108719C
:103F3000C87148711448807840B91348C07828B9CE
:103F40001148007810B100200F4908700E48007821
:103F5000B8B90D48807910B901200B4988710A4819
:103F6000007910B90120084908710748C07910B9D3
:103F700001200549C8710448407910B9012002495F
:103F8000487170473849002022480020E44700204B
:103F900030B5541C04EBD4756B10002830DB98420C
:103FA0002EDA002914DBC4188C4211DD411A00EE10
:103FB000101AB8EEC00A9FED2D1A20EE011A00EE7D
:103FC000102AB8EEC00AC1EE000AB0EE600A30BD99
:103FD000C4188C4248DC914246DA541A211800EE8B
:103FE000101AB8EEC00A9FED211A20EE011A00EE59
:103FF000102AB8EEC00AC1EE000AB0EE600AE6E789
:10400000984231DB90422FDA002916DBC41A8C4229
:1040100013DD54420444611A00EE101AB8EEC00ACF
:104020009FED121A20EE011A00EE102AB8EEC00A17
:10403000C1EE000AB0EE600AC9E7C41A8C4213DC74
:10404000914211DA411A00EE101AB8EEC00A9FED43
:10405000071A20EE011A00EE102AB8EEC00AC1EECF
:10406000000AB0EE600AB2E700BFB0E70000B44358
:1040700010B50E480E4908600320486000210C4826
:104080008160C1604FF4102101614FF40011416162
:104090000021017641768176C17601774177FDF77F
:1040A00090FB08B1FCF792FC10BD000000640040DA
:1040B0000004002010B50E480E4908600320486037
:1040C00000210C488160C1604FF4102101614FF460
:1040D000001141610021017641768176C176017738
:1040E0004177FDF76EFB08B1FCF770FC10BD0000D6
:1040F000006800402804002008B500BF00200090A0
:104100003648006840F400103449086008460068EA
:1041100000F40010009000BF00BF00BF002000901E
:104120000846006840F4800008600846006800F413
:104130008000009000BF00BF002205210B20FEF789
:1041400035FA0B20FEF722FA002205210C20FEF79B
:104150002DFA0C20FEF71AFA002205210D20FEF799
:1041600025FA0D20FEF712FA002205210E20FEF797
:104170001DFA0E20FEF70AFA002205210F20FEF795
:1041800015FA0F20FEF702FA002205211020FEF793
:104190000DFA1020FEF7FAF9002205211120FEF792
:1041A00005FA1120FEF7F2F9002205212F20FEF773
:1041B000FDF92F20FEF7EAF9002205214420FEF741
:1041C000F5F94420FEF7E2F9002205214620FEF72A
:1041D000EDF94620FEF7DAF908BD0000303802405C
:1041E00000B5A3B01C221E491CA8FCF732F900211F
:1041F0001CA802F092FA1B4908601C2218491C31C5
:1042000015A8FCF726F9002115A802F086FA164930
:1042100008601C22124938310EA8FCF71AF9002157
:104220000EA802F07AFA114908601C220C49543198
:1042300007A8FCF70EF9002107A802F06EFA0C4956
:1042400008601C22064970316846FCF702F900211B
:10425000684602F062FA0749086023B000BD00001A
:10426000D88800080000002004000020080000207A
:104270000C0000201000002000B587B0142102A817
:10428000FCF719F900BF002001903948006840F0A0
:104290000400374908600846006800F004000190F7
:1042A00000BF00BF00BF002001900846006840F03A
:1042B000800008600846006800F08000019000BFA0
:1042C00000BF00BF002001900846006840F00100D8
:1042D00008600846006800F00100019000BF00BFC0
:1042E00000BF002001900846006840F0020008600E
:1042F0000846006800F00200019000BF00BF00BF48
:10430000002001900846006840F008000860084658
:10431000006800F00800019000BF00BF012246F2D3
:1043200011011448FEF778F800224FF400411148BB
:10433000FEF772F8002208210F48FEF76DF84EF2E2
:10434000110002900120039004900020059002A922
:104350000848FDF76FFF08200290012003900490A9
:104360000020059002A90448FDF764FF07B000BDD6
:1043700030380240000802400004024010B50B48EB
:104380000B4908604FF4E130486000210848816023
:10439000C16001610C21416100218161C161FFF7B0
:1043A0007DF808B1FCF712FB10BD0000004C004086
:1043B0005004002010B50B480B4908604FF4E13061
:1043C0004860002108488160C16001610C214161A1
:1043D00000218161C161FFF761F808B1FCF7F6FACD
:1043E00010BD0000005000409404002010B50B48A0
:1043F0000B4908604FF4E1304860002108488160B3
:10440000C16001610C21416100218161C161FFF73F
:1044100045F808B1FCF7DAFA10BD000000100140C1
:10442000D804002010B50B480B4908604FF4E13068
:104430004860002108488160C16001610C21416130
:1044400000218161C161FFF729F808B1FCF7BEFACC
:1044500010BD0000004400401C05002010B50A48B3
:104460000A4908600A484860002108488160C16024
:1044700001610C21416100218161C161FFF70EF8EA
:1044800008B1FCF7A3FA10BD004800406005002009
:10449000A086010000BFFEE700BFFEE7FCF72EFB91
:1044A0004FF4FA6002F028F900BFFCF745FEFCF774
:1044B0007BFDFCF7C7FBFCF79BFDFCF7D9FDFCF788
:1044C000E1FA012002F018F9EFE7000010B5234BE4
:1044D0001B685B6943F04003204C246863611F4BF9
:1044E0001B68DB6843F010031C4C2468E3601C4B22
:1044F0001B681B6823F00103194C2468236007E044
:10450000174B1B681B6823F00103154C24682360BC
:10451000134B1B681B6803F00103002BF0D1114BF8
:104520000F4C2468A3600E4B1B68D8600C4B1B68B3
:1045300019610B4B1B685A60094B1B681B6843F4DD
:104540008023074C24682360054B1B681B6843F0DD
:104550000103034C2468236010BD000060050020A7
:10456000A40800200448004010B52DED048B13482A
:10457000006804F035F941EC190B9FED110B53EC79
:10458000102B03F055FC41EC180B03F01FFC0B49FA
:104590000860084690ED000ADFED0B0AB4EEE00A71
:1045A000F1EE10FA07DD90ED000ADFED080A30EEBB
:1045B000600A80ED000ABDEC048B10BDA000002055
:1045C0009A9999999999A93F000034430000B443FE
:1045D0001CB500200090019019480068009019480F
:1045E000007F8DF804005121684601F09DFF0120F5
:1045F00002F082F81348006A00901248406A019065
:104600005221684601F090FF012002F075F80E4833
:1046100000788DF800000C4880788DF801000A4879
:10462000C0788DF8020009480068CDF803005321D6
:10463000684601F079FF012002F05EF81CBD000021
:10464000AC000020E447002022480020B0000020F9
:104650000020064908708870C870087248720120EE
:10466000087148718871C8717047000022480020A5
:1046700010B52DED0A8B2D48B0F9000010F5257FFF
:1046800051DB2A48B0F90000B0F5257F4BDC274903
:10469000B1F9000003F0CCFD41EC1C0B9FED240BA5
:1046A00053EC102B03F06CFC41EC1B0B9FED220B29
:1046B00053EC102B03F0D4FD41EC190B204800689B
:1046C00004F08EF841EC1A0B53EC192B03F09EFF0B
:1046D00041EC180B03F07AFB19490860084690ED8D
:1046E000000ADFED180AB4EEE00AF1EE10FA08DD78
:1046F00090ED000ADFED140A30EE600A80ED000A4A
:1047000011E00F4890ED000ADFED100AB4EEE00A68
:10471000F1EE10FA07D290ED000ADFED0B0A30EE51
:10472000200A80ED000ABDEC0A8B10BD384900203C
:104730000000000000A08440000000000000E03FF6
:10474000A0000020000034430000B443000034C344
:1047500000BF012001F0D0FFFBE7000010B588B0DA
:10476000044604F5A07002900020049005900820F3
:10477000069088208DF8000000208DF801008DF84B
:1047800002008DF803008DF804008DF805008DF807
:1047900006008DF8070002236A4602A90248FCF7CA
:1047A000EEFC08B010BD00002804002010B52E4813
:1047B00090ED000A2D4880ED010A2D4890ED000A89
:1047C0002A4880ED020A2B4890ED000A274880ED28
:1047D000030A294890ED000A244880ED040A27487E
:1047E0002249097801702649497A41701F49896830
:1047F000C0F802101D494968C0F806104FF6FF7254
:104800000A21FCF709F9194988821C48898A4181E3
:104810001649097E0173FF230D2201461948FFF74F
:104820003CFA19481149097801701549497A4170D3
:104830000E490969C0F802100C49C968C0F8061091
:104840004FF6FF720A21FCF7E7F80849C8820E48C4
:10485000C98A41810549097E0173FF230D22014662
:104860000A48FFF71AFA10BDD0000020C847002000
:10487000BC000020D4000020C00000200047002021
:1048800022480020500400206447002094040020A7
:1048900010B500BF502080F31188BFF34F8FBFF3D6
:1048A0006F8F00BF03F060F918B14FF080500449DA
:1048B000086000BF002080F3118800BF10BD000019
:1048C00004ED00E000B593B0342106A8FBF7F3FD3A
:1048D000142101A8FBF7EFFD00BF00200090244841
:1048E000006840F08050224908600846006800F0E7
:1048F0008050009000BF00BF00BF002000901D4806
:10490000006840F440401B4908600846006800F415
:104910004040009000BF00BF0120069000040790B7
:1049200002200C9041050D9106210E91A8210F91B6
:10493000022110911191129106A8FEF71FF808B1FB
:10494000FCF744F80F200190022002900020039011
:104950004FF4A05004904FF480500590052101A819
:10496000FDF776FE08B1FCF731F813B000BD00008A
:1049700040380240007000400348006840F4700076
:10498000014908607047000088ED00E010B502485A
:10499000FEF7F3FA10BD00006409002010B50268AC
:1049A000294B98420ED0B0F1804F0BD0274B984244
:1049B00008D0274B984205D0264B984202D0264B70
:1049C000984203D122F070024B681A431E4B984262
:1049D00020D0B0F1804F1DD01C4B98421AD01C4BF8
:1049E000984217D01B4B984214D01B4B984211D0C1
:1049F0001A4B98420ED01A4B98420BD0194B984242
:104A000008D0194B984205D0184B984202D0184B49
:104A1000984203D122F44072CB681A4322F08003FB
:104A20004C6943EA040202608B68C3620B688362CC
:104A3000054B984202D0084B984201D10B690363A1
:104A40000123436110BD000000000140000400404C
:104A500000080040000C00400004014000400140FC
:104A6000004401400048014000180040001C004084
:104A70000020004038B50025224800680068C0F3D7
:104A80000015002D35D000BF002000901D480068A3
:104A9000006800901B4800684068009000BF00BF9D
:104AA0001848FEF745FB184800684468C4F16400E4
:104AB0001649087001201649087008460078012838
:104AC00017D114480078A52802D1124800F06EFCD6
:104AD00000200F49087000BF04E000210D4A115466
:104AE000411CC8B2094909788842F6DB0020074911
:104AF0000870642207490348FFF702F80148FEF7EF
:104B00005DFB38BD5004002024070020D8000020A1
:104B1000D90000209C46002010B50348FBF798FE02
:104B20000148FEF74BFB10BD9404002070B505460C
:104B3000AC6B0020E085E0842046FEF73EFB70BDB4
:104B400070B506460025B46B20684069C0F3C015F7
:104B500094F83D00212805D125B10020E0842046AD
:104B600000F0C4F820684069C0F3801594F83E0056
:104B7000222805D125B10020E085204600F070F8FC
:104B8000206C40F0100020642046FEF716FB70BD3C
:104B900070B50546AC6B2868006800F4807000288A
:104BA00042D1E08500BF00BF21680C3151E8001FF1
:104BB00021F4807021680C3141E80002002AF3D111
:104BC00000BF00BF00BF2168143151E8001F21F071
:104BD00001002168143141E80002002AF3D100BF2E
:104BE00000BF00BF2168143151E8001F21F04000D0
:104BF0002168143141E80002002AF3D100BF2020CF
:104C000084F83E00206B01280ED100BF00BF216850
:104C10000C3151E8001F21F0100021680C3141E8EF
:104C20000002002AF3D100BF206B012804D1A18D1E
:104C30002046FEF77CFA02E02046FEF783FF70BDB7
:104C400070B50546AC6B206B012805D1A08D4108DD
:104C50002046FEF76CFA02E02046FFF71DF870BD13
:104C600000BF00BF02680C3252E8002F22F490719E
:104C700002680C3242E80013002BF3D100BF00BFE2
:104C800000BF0268143252E8002F22F001010268CE
:104C9000143242E80013002BF3D100BF016B01294D
:104CA0000ED100BF00BF02680C3252E8002F22F084
:104CB000100102680C3242E80013002BF3D100BF50
:104CC000202180F83E1000210163704710B5044692
:104CD0002068C06820F040002168C860202084F867
:104CE0003D002046FFF742F8002010BD00BF00BF86
:104CF00002680C3252E8002F22F0C00102680C3228
:104D000042E80013002BF3D100BF202180F83D10B2
:104D10007047F8B5044694F83E00222873D1A06885
:104D2000B0F5805F0CD1206950B90025A66A2068D3
:104D30004068C0F308003080A06A801CA06215E0C3
:104D4000A56A0026A068B0F5805F03D0A06828B9E6
:104D5000206918B920684068287004E0206840681D
:104D600000F07F002870A06A401CA062E08D401E09
:104D700080B2E085002844D12068C06820F020007F
:104D80002168C8602068C06820F480702168C8600D
:104D90002068406920F0010021684861202084F8E3
:104DA0003E00206B012826D10020206300BF00BFF9
:104DB00021680C3151E8001F21F0100021680C31EE
:104DC00041E80002002AF3D100BF2068006800F02B
:104DD000100010280AD100BF002000902068006851
:104DE000009020684068009000BF00BFA18D204661
:104DF000FEF79DF902E02046FEF7A4FE0020F8BD74
:104E000001E00020FBE70220F9E700002DE9F84F60
:104E100004462068006920F44050E1680843216896
:104E200008612169A068084361690843E169084392
:104E300000902068C06849F20C61884300990843DB
:104E40002168C8602068406920F44070A169084367
:104E50002168486176492068884203D075492068F6
:104E6000884203D1FDF7EEFC814602E0FDF7DAFC53
:104E70008146E069B0F5004F6CD102206168A0FB6B
:104E8000015003461920A9FB007001462A46384606
:104E9000FBF768FA6421B0FBF1F04FEA001A022038
:104EA0006168A0FB01510B461920A9FB00712A463D
:104EB0003846FBF757FA834602206168A0FB015091
:104EC00003461920A9FB00712A463846FBF74AFA27
:104ED0006421B0FBF1F000EBC00101EB0010ABEB83
:104EE0008000322101EBC0006421B0FBF1F000F042
:104EF000F8000AEB400A02206168A0FB015003465B
:104F00001920A9FB007001462A463846FBF72AFA09
:104F1000834602206168A0FB015003461920A9FBCB
:104F200000712A463846FBF71DFA6421B0FBF1F008
:104F300000EBC00101EB0010ABEB8000322101EB74
:104F4000C0006421B0FBF1F000F00700504421687C
:104F500088606AE004206168A0FB015003461920C4
:104F6000A9FB007001462A463846FBF7FBF982464A
:104F700004206168A0FB015003461920A9FB0070C2
:104F800001462A463846FBF7EDF96421B0FBF1F003
:104F900000EBC00101EB0010AAEB8000322101EB15
:104FA00000106421B0FBF1F000F0F00A0420616809
:104FB000A0FB017003461920A9FB00513A46284680
:104FC000FBF7D0F96421B0FBF1F00AEB001A0420E2
:104FD0006168A0FB01510B461920A9FB00712A460C
:104FE0003846FBF7BFF9834604206168A0FB0150F7
:104FF00003461920A9FB007001462A463846FBF7F4
:10500000B1F96421B0FBF1F000EBC00101EB00103D
:10501000ABEB8000322101EB00106421B0FBF1F01A
:1050200000F00F00504421688860BDE8F88F000050
:10503000001001400014014077B581B004461546C8
:105040000298A062A58500202064222084F83E00FA
:105050002A48A16BC8632A48A16B08642948A16B40
:10506000C8640020A16B086502AE32682368191D70
:105070002B46A06BFDF794F800BF0020009020683D
:105080000068009020684068009000BF00BF00BF2B
:10509000002084F83C0000BF206970B100BF00BF51
:1050A00021680C3151E8001F41F4807021680C31F7
:1050B00041E80002002AF3D100BF00BF00BF216811
:1050C000143151E8001F41F001002168143141E81A
:1050D0000002002AF3D100BF00BF00BF21681431D5
:1050E00051E8001F41F040002168143141E80002FE
:1050F000002AF3D100BF002004B070BD914B00081E
:10510000414C0008414B0008014691F83D00212820
:1051100028D18868B0F5805F0BD1086948B90A6A60
:105120001088C0F308000B685860086A801C086289
:1051300005E00B6A581C086218780B685860C88C28
:10514000401E80B2C88458B90868C06820F080004A
:105150000B68D8600868C06840F040000B68D860F1
:10516000002070470220FCE72DE9F04104460D467F
:1051700017469846069E34E0701C88B32EB1FDF7A2
:1051800051F9A0EB0800B0422BD900BF00BF216845
:105190000C3151E8001F21F4D07021680C3141E836
:1051A0000002002AF3D100BF00BF00BF2168143104
:1051B00051E8001F21F001002168143141E800028C
:1051C000002AF3D100BF202084F83D0084F83E007F
:1051D00000BF002084F83C0000BF0320BDE8F08140
:1051E000FFE7206800682840A84201D1012000E0C4
:1051F0000020B842C0D00020F0E7000010B50248FF
:10520000FDF7DCFF10BD0000D804002010B50348F6
:10521000FDF7D4FF0148FBF7F9FA10BD1C0500208B
:1052200010B500F007F80248FDF7C8FF10BD0000F8
:105230006005002008B541480068006800F02000C3
:1052400060B100BF002000903C48006800680090FA
:105250003A4800684068009000BF6EE03848006837
:1052600000F01000002868D000BF002000903348F4
:10527000006800680090314800684068009000BFF6
:1052800000BF30480068006800F4002058BB2D487B
:105290000068006820F001002A4909680860294870
:1052A00000684068C0F1240027490880242025496F
:1052B0000968486023480068006840F400202149DC
:1052C000096808601F480068006840F001001D4937
:1052D000096808601C48008812282ED11B491C4808
:1052E00002F082F829E017480068006820F0010009
:1052F000144909680860134800684068C0F1240038
:105300001149088024200F49096848601148806AC3
:1053100020F400200F4988620A480068006840F0C5
:10532000010008490968086007480088122804D16C
:1053300006490748243002F057F808BD60050020F0
:1053400000480040A40800201C010020384900202B
:105350004E4900200060024000BFFEE75A200E497F
:1053600008700E4890ED000A084680ED010A0C48CE
:1053700090ED000A084680ED020A0A4890ED000A06
:10538000084680ED030A084890ED000A084680EDC3
:10539000040AAA2008767047C8470020D0000020E1
:1053A000BC000020D4000020C00000200B4942783F
:1053B0004A708278CA70D0F80320CA60D0F80720FB
:1053C0008A60D0F80B208A62427C0A77D0F81220DB
:1053D0000A62D0F816204A6270470000E4470020B5
:1053E00010B51548D0ED000A144890ED000A144895
:1053F00001F042FA1348D0ED070A30EE200A80EDA2
:10540000070A1148B0F95A0001EE100AB8EEC11AA5
:10541000F0EE410A0B4890ED071AB0EE410A0B4836
:1054200001F0AAF9BDEEC00A10EE100A01B206485A
:10543000A0F8561010BD0000AC000020A000002015
:10544000E44F002058480020D8480020444E002057
:1054500000B589B040F2FF1003900020059006903F
:105460000820079016484088000A8DF80400144868
:1054700080788DF805001248C089000A8DF8060072
:105480000F48807B8DF807000D48408B000A8DF88F
:1054900008000B48807E8DF809000948C08C000A7E
:1054A0008DF80A00064890F826008DF80B000223BC
:1054B00001AA03A90348FBF762FE09B000BD000082
:1054C000D84800202804002010B59FED482ADFEDC1
:1054D000471A9FED471ADFED470A9FED470A4748F5
:1054E00001F070FC9FED412ADFED401AB3EE041A83
:1054F000DFED3F0AB1EE060A414801F063FC9FED83
:105500003B2ADFED3A1A9FED3A1ADFED3A0A9FED9A
:105510003D0A3D4801F056FC9FED342ADFED331A79
:10552000B2EE041ADFED320AB3EE090A374801F091
:1055300049FC9FED2E2ADFED2D1A9FED2D1ADFED90
:105540002D0A9FED300A3048343001F03BFC9FEDCE
:10555000272ADFED261AB2EE041ADFED250AB3EE94
:10556000090A2A48343001F02DFC2949B1F85410B9
:1055700008B2FBF703FA2648B0F858104FF6FF724E
:105580002448B0F90000FEF703FD234880ED000A2F
:105590001F48808801B22148B0F9000001F036F8B8
:1055A000B1EE400A1E4880ED000A1948008A01B297
:1055B0001C48B0F9000001F029F8B1EE400A1A4881
:1055C00080ED000A194890ED000A194880ED000AA4
:1055D000134890ED000A174880ED000A124890ED3C
:1055E000000A154880ED000A10BD00000060EA4680
:1055F000000000000AD7233C00004844444E00202D
:10560000E44F002000004843D84C0020784E002092
:10561000D8480020A8000020B0000020A4000020EE
:10562000B4000020A6000020B8000020AC0000203C
:10563000A000002090000020940000209FED060AAA
:10564000064880ED070A9FED040A80ED000A9FEDF1
:10565000020A80ED010A704700000000584800204F
:1056600010B58248407821281AD1FFF701F89FED44
:10567000800A804880ED000A9FED7D0A7E4880ED1B
:10568000000A7C4890ED000A7C4880ED000A7A48C8
:1056900090ED000A7A4880ED000A00F019FBE3E083
:1056A000724840780D2809D19FED710A754880ED48
:1056B000000A00F0F5F800F00BFBD5E06B484078ED
:1056C0001628ECD16948007880B9FEF74DFF00F04C
:1056D00071F9684890ED000A684880ED000A664854
:1056E00090ED000A664880ED000ABDE05F48007852
:1056F000022834D15D48807868B1634890ED030A90
:10570000604880ED000A6048D0ED0A0AB0EE600AF9
:10571000FBF7E6F80FE05548C07860B15A4890EDC5
:10572000060A584880ED000A5748D0ED0B0AB0EE43
:10573000600AFBF7D5F8B1EE480A504880ED000A40
:105740004F4880ED008AB1EE480A4A4880ED000AD1
:10575000494880ED008A03204449087084E04348AA
:10576000007803287DD14148807850B1464890EDBB
:10577000030A4648D0ED000A30EE600A3F4880ED4B
:10578000000A3A48C07850B13F4890ED050A3F48BA
:10579000D0ED000A30EE600A394880ED000A374843
:1057A00090ED000ADFED3A0AB4EEE00AF1EE10FAED
:1057B00008DD90ED000ADFED370A30EE600A80ED7B
:1057C000000A11E02D4890ED000ADFED330AB4EE37
:1057D000E00AF1EE10FA07D290ED000ADFED2D0A93
:1057E00030EE200A80ED000A254890ED000ADFED3A
:1057F000280AB4EEE00AF1EE10FA08DD90ED000A96
:10580000DFED240A30EE600A80ED000A11E01C484A
:1058100090ED000ADFED200AB4EEE00AF1EE10FA96
:1058200007D290ED000ADFED1B0A30EE200A80ED72
:10583000000A134890ED000AFAEE040AB4EEE00AFA
:10584000F1EE10FA10D290ED000ADFED140AB4EE7A
:10585000E00AF1EE10FA07DD0B4890ED060A094860
:1058600000E001E080ED000A10BD000022480020A9
:1058700000000000980000209C0000209000002004
:1058800094000020A0000020E4470020AC0000208D
:10589000000034430000B443000034C300002AC3B6
:1058A00010B52DED0A8B3A48B0F9040010F5257FAC
:1058B00032DB3748B0F90400B0F5257F2CDC3449E1
:1058C000B1F9040002F0B4FC41EC1C0B9FED310B6C
:1058D00053EC102B02F054FB41EC1B0B9FED2F0BF4
:1058E00053EC102B02F0BCFC41EC190B2D48006866
:1058F00002F076FF41EC1A0B53EC192B02F098FAE8
:1059000041EC180B02F062FA26490860084690ED57
:10591000000A254880ED000A1D48B0F9000010F586
:10592000257F32DB1A48B0F90000B0F5257F2CDC6A
:105930001749B1F9000002F07BFC41EC1C0B9FED14
:10594000150B53EC102B02F01BFB41EC1B0B9FEDD6
:10595000130B53EC102B02F083FC41EC190B134892
:10596000006802F03DFF41EC1A0B53EC192B02F0DA
:105970005FFA41EC180B02F029FA0C49086008465E
:1059800090ED000A0A4880ED000ABDEC0A8B10BDBC
:10599000384900200000000000A084400000000002
:1059A0000000E03F98000020900000209C000020B4
:1059B0009400002010B52DED048B6C48007901286F
:1059C00031D16B48006802F00BFF41EC190B9FEDE1
:1059D000690B53EC102B02F02BFA41EC180B02F080
:1059E000F5F963490860084690ED000AF2EE040AF2
:1059F000B4EEE00AF1EE10FA4ADB02205B490871CE
:105A00005B48006802F0ECFE41EC190B9FED590B6E
:105A100053EC102B02F0FAFD41EC180B02F0D6F912
:105A20005349086034E051480079022830D1504889
:105A3000006802F0D5FE41EC190B9FED4E0B53ECC4
:105A4000102B02F0E3FD41EC180B02F0BFF94849BE
:105A50000860084690ED000ADFED480AB4EEE00A5F
:105A6000F1EE10FA14D8012040490871404800684E
:105A700002F0B6FE41EC190B9FED3E0B53EC102BE0
:105A800002F0D6F941EC180B02F0A0F93849086091
:105A900036484079012831D13948006802F0A0FE2B
:105AA00041EC190B9FED330B53EC102B02F0AEFDC4
:105AB00041EC180B02F08AF931490860084690ED74
:105AC000000AFAEE040AB4EEE00AF1EE10FA4AD83F
:105AD0000220264948712A48006802F081FE41EC04
