:020000040800F2
:100000002852002025030008A13A000865350008A1
:100010009D3A0008970500089D4800080000000070
:100020000000000000000000000000006502000861
:10003000BF07000800000000C10200083D3E0008A4
:100040003F0300083F0300083F0300083F03000888
:100050003F0300083F0300083F0300083F03000878
:100060003F0300083F0300083F0300083F03000868
:10007000750600083F030008850600083F030008D6
:100080003F0300083F0300083F030008BD050008C8
:100090009D050008AD0500083F0300083F03000868
:1000A0003F0300083F0300083F0300083F03000828
:1000B0003F0300083F0300083F0300083F03000818
:1000C0003F0300083F0300083F0300083F03000808
:1000D0003F030008C14600083F03000865470008C9
:1000E0003F0300083F0300083F0300083F030008E8
:1000F0003F030008393F00083F0300083F030008A2
:100100003F0300083F0300083F0300083F030008C7
:100110003F0300083F0300083F0300083F030008B7
:100120003F0300083F0300083F0300083F030008A7
:100130003F0300080000000000000000ED0500087B
:10014000CD050008DD0500083F0300083F03000857
:10015000950600083F030008A50600083F030008B5
:100160003F0300083F0300083F0300083F03000867
:100170003F0300083F0300083F03000800000000A1
:10018000000000003F030008000000000000000025
:100190003F03000800000000000000003F030008CB
:1001A0000000000000000000000000003F03000805
:1001B0003F0300083F0300083F0300083F03000817
:1001C0003F03000800F002F800F03CF80AA090E8B5
:1001D000000C82448344AAF10107DA4501D100F002
:1001E00031F8AFF2090EBAE80F0013F0010F18BF93
:1001F000FB1A43F001031847D07C0000F07C00009C
:10020000103A24BF78C878C1FAD8520724BF30C842
:1002100030C144BF04680C60704700000023002414
:1002200000250026103A28BF78C1FBD8520728BF06
:1002300030C148BF0B6070471FB507F0B2FD1FBD4E
:1002400010B510BD00F074F91146FFF7F5FF05F089
:100250003FFC00F092F903B4FFF7F2FF03BC00F09B
:1002600093F900002C4B19680868B0E8F04F80F350
:100270000988BFF36F8F4FF0000080F3118870473B
:100280000000000008480068006880F308884FF00C
:10029000000080F3148862B661B6BFF34F8FBFF3DE
:1002A0006F8F00DF00BF00BF08ED00E0DFF80C003B
:1002B000016841F470010160704700BF88ED00E003
:1002C000EFF30980BFF36F8F134B1A681EF0100F06
:1002D00008BF20ED108A20E9F04F106009B44FF0FC
:1002E000500080F31188BFF34F8FBFF36F8F06F07C
:1002F00021FD4FF0000080F3118809BC19680868DF
:10030000B0E8F04F1EF0100F08BFB0EC108A80F379
:100310000988BFF36F8F704724000020EFF305803A
:10032000704700000948804709480047FEE7FEE79C
:10033000FEE7FEE7FEE7FEE7FEE7FEE7FEE7FEE795
:1003400004480549054A064B70470000253F000850
:10035000C5010008284C002028520020284E00200B
:10036000284E002053EA020C00F069802DE9F04B82
:100370004FF00006002B1FBFB3FA83F503FA05F414
:1003800024FA05F65E4012BF1643B2FA82F502FA6D
:1003900005F4C5F120051EBF22FA05FC44EA0C0451
:1003A000203556EA044C4FEA144418BF641C4FF041
:1003B00000084FF00009904271EB030C39D300297B
:1003C00019BFB1FA81F701FA07F6B0FA80F700FA1F
:1003D00007F6C7F120071EBF20FA07FC46EA0C0605
:1003E0002037B6FBF4FCA7EB0507103F07F01F0B07
:1003F000CBF120060CFA0BFB2CFA06F644BFB346F1
:100400000026202FA4BF5E464FF0000B5BEA060CCF
:1004100008BF4FF0010B19EB0B09ABFB027C48EB5B
:100420000608C01B06FB02CC0BFB03CC71EB0C01D6
:10043000C1E70B46024641464846BDE8F08B13B57E
:100440004FF000004FF00001AFF30080BDE81C400A
:10045000704710B5203AC0F00B80B1E81850203A30
:10046000A0E81850B1E81850A0E81850BFF4F5AF54
:100470005FEA027C24BFB1E81850A0E8185044BFDE
:1004800018C918C0BDE810405FEA827C24BF51F84B
:10049000043B40F8043B08BF7047D20728BF31F83F
:1004A000023B48BF11F8012B28BF20F8023B48BF90
:1004B00000F8012B70474FF0000200B51346944638
:1004C0009646203922BFA0E80C50A0E80C50B1F1AC
:1004D0002001BFF4F7AF090728BFA0E80C5048BFC0
:1004E0000CC05DF804EB890028BF40F8042B08BF5E
:1004F000704748BF20F8022B11F0804F18BF00F85A
:10050000012B704770477047704710B500F008F82E
:10051000006810BD10B5044600F002F8046010BD7C
:1005200000487047C44B002000487047C44B00206F
:100530007546FFF7F9FFAE4605006946534620F0C1
:100540000700854618B020B5FFF7FAFEBDE8204049
:100550004FF000064FF000074FF000084FF0000B7F
:1005600021F00701AC46ACE8C009ACE8C009ACE832
:10057000C009ACE8C0098D4670470446AFF300805F
:100580002046FFF768FE000001491820ABBEFEE7D9
:1005900026000200704700BFFEE7000010B50248C9
:1005A00000F05AFE10BD00002803002010B50248DC
:1005B00000F052FE10BD00002803002010B50248D4
:1005C00000F04AFE10BD00002803002010B50248CC
:1005D00000F042FE10BD00005003002010B502489C
:1005E00000F03AFE10BD00005003002010B5024894
:1005F00000F032FE10BD00005003002013B588B09B
:10060000044604F5A0700290002004900590082094
:100610000690A1208DF8000000208DF801008DF8D3
:1006200002008DF803009DF824008DF804009DF869
:1006300025008DF8050000208DF806008DF80700D4
:1006400002236A4602A9024800F00BFC0AB010BD62
:10065000500300200146B1F5006F02DD4FF4006049
:1006600005E011F5006F01DA014800E00846704727
:1006700000F8FFFF10B5024801F06EFA10BD00004F
:10068000C004002010B5024801F066FA10BD000059
:100690002005002010B5024801F05EFA10BD0000F0
:1006A0000004002010B5024801F056FA10BD000009
:1006B000600400200146087810381823B0FBF3F2DC
:1006C0000848805CC865032A05D908686FF30900EB
:1006D000001D886503E008686FF309008865886D70
:1006E00070470000287E0008014600208A6A8B6956
:1006F000CBB932B1012A0DD0022A03D0032A10D17E
:100700000EE000BFCB6A03F08073B3F1807F00D1AD
:10071000012007E0CB6AB3F1C07F00D1012001E0E6
:1007200000E000BF34E08B69B3F5005F1AD132B14D
:10073000012A07D0022A03D0032A11D10AE000BF00
:1007400001200EE0CB6A03F08073B3F1807F00D10B
:10075000012006E0CB6AB3F1C07F00D1012000E0A8
:1007600000BF15E032B1012A05D0022A04D0032AC5
:100770000CD103E000BF00BF012008E0CB6A03F00A
:100780008073B3F1807F00D1012000E000BF00BF83
:10079000704730B50468246824F4802405682C6010
:1007A000046863608468402C04D10468A260046813
:1007B000E16003E00468A1600468E26030BD704756
:1007C00010B52DED088BB0EE408A9FED210AF0EEBA
:1007D000408A9FED200AB0EE409A89EE080A10EE9A
:1007E000104A204607F06CFA41EC1B0BB0EE4B0AA6
:1007F000F0EE6B0A04F0A8FEB0EE40AAF0EE60AA9C
:1008000051EC1A0B06F052FD00EE100ADFED120A51
:1008100020EE200AF0EE408A18EE900A07F050FA17
:1008200041EC1B0BB0EE4B0AF0EE6B0A05F03CF806
:10083000B0EE40AAF0EE60AA51EC1A0B06F036FDBD
:1008400008EE900AB0EE680ABDEC088B10BD0000FF
:100850000000000010B1D13D3333654210B588B0BF
:10086000044604F5A0700290002004900590082032
:10087000069090208DF8000000208DF801008DF882
:1008800002008DF803008DF804008DF805008DF846
:1008900006008DF8070002236A4602A9024800F00C
:1008A000E0FA08B010BD00005003002072B600BF8F
:1008B000FEE7000003F0F4FF03F0C8F90C480068FD
:1008C000C06840F010000A490968C86064220949FC
:1008D000074802F0CBFD00BF012005F099F903F0B5
:1008E0007BF900F009F802F03FFE03F057FAF3E756
:1008F00078030020B84200200B480C49898A018007
:100900000A48807C084948800848C17C06488180A4
:100910000648808981B20448C1800448C08981B2F8
:100920000148018170470000C4430020E4440020D6
:1009300000B589B040F2FF100390002005900690AA
:100940000820079016484088000A8DF804001448D3
:1009500080788DF805001248C089000A8DF80600DD
:100960000F48807B8DF807000D48408B000A8DF8FA
:1009700008000B48807E8DF809000948C08C000AE9
:100980008DF80A00064890F826008DF80B00022327
:1009900001AA03A9034800F064FA09B000BD0000F1
:1009A000844400205003002010B59FED222ADFED83
:1009B000211A9FED211ADFED210AB3EE0E0A20481D
:1009C00005F070FC9FED1B2ADFED1A1AB7EE001A36
:1009D000DFED190AB0EE080A1A4805F063FC9FED36
:1009E000152ADFED141A9FED141ADFED140AB3EE89
:1009F0000E0A1348343005F055FC9FED0E2ADFED4A
:100A00000D1AB7EE001ADFED0C0AB0EE080A0D4819
:100A1000343005F047FC00F037F90B4890ED000A40
:100A20000A4880ED000A0A4890ED000A094880ED66
:100A3000000A10BD0060EA46000000006F12833A11
:100A4000EC4800208C4A0020C8000020C000002094
:100A5000CC000020C400002010B52DED0A8B1E48EC
:100A6000B0F9020010F5257F32DB1B48B0F9020017
:100A7000B0F5257F2CDC1849B1F9060006F048FED8
:100A800041EC1C0B9FED150B53EC102B06F0E8FC12
:100A900041EC1B0B9FED130B53EC102B06F050FE9B
:100AA00041EC190B1148006807F00AF941EC1A0BE8
:100AB00053EC192B07F01AF841EC180B06F0F6FB73
:100AC0000A490860084690ED000A094880ED000ACE
:100AD000BDEC0A8B10BD0000E444002000000000C3
:100AE00000A08440000000A09999C93FC0000020E8
:100AF000C400002010B52DED0A8B5A4840782128FB
:100B000002D1FFF7A9FFA9E0564840780D2866D129
:100B10005548B0F9020010F5257F2CDB5248B0F99A
:100B20000200B0F5257F26DC4F49B1F9020006F03E
:100B3000EFFD41EC1C0B9FED4D0B53EC102B06F021
:100B40008FFC41EC1B0B9FED4B0B53EC102B06F075
:100B5000F7FD41EC190B4948006807F0B1F841EC8A
:100B60001A0B53EC192B06F0C1FF41EC180B06F0E1
:100B70009DFB424908603C48B0F9060010F5257F0E
:100B80006CDB3948B0F90600B0F5257F66DC3649E4
:100B9000B1F9060006F0BCFD41EC1C0B9FED330BD8
:100BA00053EC102B06F05CFC41EC1B0B9FED310B62
:100BB00053EC102B06F0C4FD41EC190B30480068D3
:100BC00007F07EF841EC1A0B53EC192B06F08EFF60
:100BD00041EC180B06F06AFB294908603EE0214809
:100BE000407816283AD11F48007800B31D48007895
:100BF00001281DD11B48807858B1224890ED020A87
:100C00001F4880ED000A90ED000A1C4880ED000AA4
:100C100024E01448C07850B11A4890ED040A1748EF
:100C200080ED000A90ED000A154880ED000A15E0FD
:100C30000C480078022811D10A48807828B1114860
:100C400090ED020A0E4880ED000A0648C07828B1EF
:100C50000C4890ED040A094880ED000ABDEC0A8BAF
:100C600010BD0000CE430020E4440020000000003E
:100C700000A08440000000A09999C93FC400002052
:100C8000C00000208043002010B50C48808B01B2CA
:100C90000B48B0F9000004F045FFB1EE400A0948E6
:100CA00080ED000A0548008D01B20748B0F9000048
:100CB00004F038FF054880ED000A10BD8444002090
:100CC000BC000020C8000020BE000020CC00002096
:100CD0001D4890ED000AF3EE090AB4EEE00AF1EEC9
:100CE00010FA04DDB3EE090A80ED000A0DE01648A3
:100CF00090ED000ADFED150AB4EEE00AF1EE10FA0D
:100D000003D29FED120A80ED000A114890ED000A0F
:100D1000F3EE090AB4EEE00AF1EE10FA04DDB3EEE8
:100D2000090A80ED000A0DE0094890ED000ADFEDA8
:100D3000070AB4EEE00AF1EE10FA03D29FED030ABF
:100D400080ED000A70470000C0000020000020C2B3
:100D5000C400002010B52948D0ED000A284890EDC5
:100D6000000A284805F014F82748D0ED020A30EEB2
:100D7000200A80ED020A2548D0ED000A244890EDB3
:100D8000000A2048343005F003F81F48D0ED030A6C
:100D900030EEC00A80ED030A1E48B0F91E0001EED5
:100DA000100AB8EEC11AF0EE410A174890ED021A87
:100DB000B0EE410A184804F06BFFBDEEC00A10EE19
:100DC000100A01B213484183B0F92A0001EE100A5B
:100DD000B8EEC11AF0EE410A0B4890ED031AB0EEDE
:100DE000410A0D48343004F053FFBDEEC00A10EE46
:100DF000100A01B20748C18410BD0000C8000020DD
:100E0000C00000208C4A002004440020CC000020B8
:100E1000C400002084440020EC4800209FED040A18
:100E2000044880ED020A9FED020A80ED030A704734
:100E3000000000000444002010B5024692F8203063
:100E4000012B01D0022B06D11068406908431468B9
:100E50006061002010BD506A40F480205062012083
:100E6000F8E7F0B504460D461E4694F82070206859
:100E70008368A86800B900E000BF012F01D0022FED
:100E80007CD103F0806030B903F0006018B903F042
:100E90008050002873D0C3F30161022905D9606A2C
:100EA00040F4000060620120F0BD01208840306005
:100EB000A86860B9B5F800C0E86840EA4C5C2068F2
:100EC00000F5C07000EB0110C0F800C00FE0D5E9DC
:100ED00001C040EACC00D5F80CC040EA0C00D4F8C0
:100EE00000C00CF5C07C0CEB011CCCF80000D5F860
:100EF00010C0206800F5C07000EB0110C0F804C0FD
:100F0000287D01280ED1206800F5C07000EB01108B
:100F1000406840F4807C206800F5C07000EB011050
:100F2000C0F804C0D079000692F806C040EA0C4030
:100F300092F805C040EA0C2C10794CEA000C2068AD
:100F400000F5C07000EB0110C0F80CC0D0780006AE
:100F500092F802C040EA0C4092F801C040EA0C202E
:100F600092F800C040EA0C00D4F800C00CF5C07C38
:100F70000CEB011CCCF80800206801E016E00FE043
:100F800000F5C07000EB0110006840F0010C206813
:100F900000F5C07000EB0110C0F800C0002083E72E
:100FA000606A40F40010606201207DE7606A40F4EE
:100FB00080206062012077E7F0B504460A46216888
:100FC00094F82050012D01D0022D7ED1424901F527
:100FD0000071086840F001000860086820F47C5047
:100FE00008600868566A40EA06200860107D00F034
:100FF0001F06012000FA06F3C8699843C861A1F5ED
:101000000071D069C8B9D1F80C029843C1F80C023C
:10101000908880B2968940EA064601F510705769BB
:1010200040F83760108880B2168940EA064601F51C
:101030001070576900EBC7004660D069012819D1CC
:10104000D1F80C021843C1F80C02908880B21688BF
:1010500040EA064601F51070576940F837609089FC
:1010600080B2168940EA064601F51070576900EB18
:10107000C7004660906928B9D1F804029843C1F8C6
:10108000040204E0D1F804021843C1F80402106914
:1010900028B9D1F814029843C1F8140204E0D1F839
:1010A00014021843C1F81402106A012804D1D1F8BF
:1010B0001C021843C1F81C02D1F8000220F0010004
:1010C000C1F800020020F0BDFFE7606A40F4802014
:1010D00060620120F7E7000000640040704770B5CF
:1010E000044694F82050012D01D0022D7DD151B934
:1010F0002068C06800F0030080B9606A40F4001006
:101100006062012070BD2068006900F0030028B90A
:10111000606A40F4001060620120F3E7206800F587
:10112000D87000EB0110006800F004009060906837
:1011300040B9206800F5D87000EB01100068400D40
:10114000106007E0206800F5D87000EB011000681F
:10115000C0085060206800F5D87000EB01100068EE
:1011600000F00200D060206800F5D87000EB01109C
:10117000406800F00F001061206800F5D87000EBA7
:101180000110406800F47F40000A9061206800F57B
:10119000D87000EB01104068000C5061206800F529
:1011A000D87000EB011080681870206800F5D870C6
:1011B00000EB0110806800F47F40000A587020683E
:1011C00000F5D87000EB0110806800F47F00000C7F
:1011D0009870206800F5D87000EB01108068000E50
:1011E000D870206800F5D87000E02FE000EB011007
:1011F000C0681871206800F5D87000EB0110C06855
:1012000000F47F40000A5871206800F5D87000EBA8
:101210000110C06800F47F00000C9871206800F590
:10122000D87000EB0110C068000ED87131B9206889
:10123000C06840F020002668F06005E02068006982
:1012400040F020002668306100205BE7606A40F4CF
:1012500080206062012055E72DE9F05F04460025FB
:10126000206846692068D0F8049020688768206864
:10127000D0F80CA02068D0F810B02068D0F8188002
:1012800006F00100002855D007F00100C0B1012090
:101290002168886007F0020018B1204600F0EBFBDF
:1012A0000EE007F0040010B145F4006508E007F017
:1012B000080010B145F4805502E0204600F0DAFB4A
:1012C00007F48070C8B14FF480702168886007F41B
:1012D000007018B1204600F0D0FB0EE007F48060EB
:1012E00010B145F4005508E007F4006010B145F472
:1012F000804502E0204600F0BFFB07F48030C8B113
:101300004FF480302168886007F4003018B120461F
:1013100000F0B5FB0EE007F4802010B145F4004565
:1013200008E007F4002010B145F4803502E02046C3
:1013300000F0A4FB06F0080038B10AF0100020B15C
:1013400045F4007510202168C86006F0040040B123
:101350000AF0080028B108202168C860204600F083
:101360002DFA06F0020038B12068C06800F00300D2
:1013700010B1204600F024FA06F0400038B10BF01E
:10138000100020B145F4806510202168086106F046
:10139000200040B10BF0080028B108202168086146
:1013A000204600F035FB06F0100038B120680069D7
:1013B00000F0030010B1204600F02BFB06F40030D3
:1013C00040B109F0100028B1102021684860204683
:1013D00000F020FB06F4803040B109F0080028B18D
:1013E000082021684860204600F04AFB06F40040CF
:1013F00088B309F0040078B306F4807020B108F0D7
:10140000010008B145F0010506F4007020B108F0B4
:10141000020008B145F0020506F4806020B108F032
:10142000040008B145F0040506F40060A0B108F01E
:10143000700088B108F07000402817D006DC102832
:101440000BD020280CD0302819D10CE0502810D017
:10145000602814D110E01DE019E045F008050FE008
:1014600045F010050CE045F0200509E045F0400589
:1014700006E045F0800503E045F4807500E000BF1C
:1014800000BF2068806920F0700021688861042016
:10149000216848602DB1606A284360622046FFF7EA
:1014A0001DFEBDE8F09F70B504460CB9012070BD6B
:1014B00094F8200010B9204600F0B0F820680068C9
:1014C00040F001002168086000F01EFE05460DE0B6
:1014D00000F01AFE401B0A2808D9606A40F4003068
:1014E0006062052084F820000120E0E72068406861
:1014F00000F001000028EBD02068006820F0020016
:101500002168086000F000FE05460DE000F0FCFDDB
:10151000401B0A2808D9606A40F400306062052048
:1015200084F820000120C2E72068406800F0020033
:101530000028EBD1207E012806D12068006840F009
:1015400080002168086005E02068006820F08000C5
:1015500021680860607E012806D12068006840F09C
:1015600040002168086005E02068006820F0400025
:1015700021680860A07E012806D12068006840F03C
:1015800020002168086005E02068006820F0200045
:1015900021680860E07E012806D12068006820F0FC
:1015A00010002168086005E02068006840F0100025
:1015B00021680860207F012806D12068006840F07B
:1015C00008002168086005E02068006820F0080035
:1015D00021680860607F012806D12068006840F01B
:1015E00004002168086005E02068006820F004001D
:1015F00021680860D4E90201084321690843616950
:1016000008436168491E08432168C8610020606280
:10161000012084F82000002049E7000010B586B0C2
:101620000446142101A8FEF746FF5F49206888425E
:1016300052D15E480068401C5C490860084600685A
:1016400001280FD100BF002000905948006840F0E9
:101650000070574908600846006800F0007000906C
:1016600000BF00BF00BF0020009051481038006844
:1016700040F002004E49103908600846006800F04A
:101680000200009000BF00BF4FF4407001900220A4
:10169000029000200390032004900920059001A9E6
:1016A000444800F039FC00220521132000F0F0FD31
:1016B000132000F0DDFD00220521142000F0E8FDDC
:1016C000142000F0D5FD00220521152000F0E0FDDA
:1016D000152000F0CDFD65E037492068884261D1D2
:1016E00000BF002000903248006840F08060304920
:1016F00008600846006800F08060009000BF00BFEE
:101700002A480068401C29490860084600680128EA
:101710000FD100BF002000902548006840F0007005
:10172000234908600846006800F00070009000BF80
:1017300000BF00BF002000901D481038006840F036
:1017400002001B49103908600846006800F00200DA
:10175000009000BF00BF4FF4405001900220029063
:1017600000200390032004900920059001A911484E
:1017700000F0D2FB002205213F2000F089FD3F2030
:1017800000F076FD00220521402000F081FD402080
:1017900000F06EFD00220521412000F079FD41207E
:1017A00000F066FD06B010BD00640040100000208F
:1017B00040380240000402400068004070470000CA
:1017C00010B58AB004468D49206888427DD101ABAE
:1017D00003AA00212046FFF782FC0398302823D17A
:1017E0009DF805009DF8041040EA012000B28449EC
:1017F00008809DF807009DF8061040EA012000B21D
:101800007F4948809DF809009DF8081040EA0120B2
:1018100000B27B4988809DF80B009DF80A1040EAD1
:10182000012000B27649C8800398312817D19DF86D
:1018300005009DF8041040EA012000B270490881BB
:101840009DF8060088729DF807106D48C1729DF8DA
:1018500009009DF8081040EA012069498882039830
:10186000322820D19DF805009DF8041040EA01209F
:1018700000B2634988819DF807009DF8061040EA90
:10188000012001B25E48C1819DF809009DF8081051
:1018900040EA012001B25A4801829DF80A10817481
:1018A0009DF80B10C1740398542813D19DF80400BF
:1018B000544908729DF8050048729DF80600887228
:1018C0009DF807009DF8081000E01EE040EA0120A6
:1018D0004C4988810398552817D19DF804009DF83C
:1018E000051040EA01204749C8819DF806009DF88F
:1018F000071040EA0120434908829DF808009DF83E
:10190000091040EA01203F4948823F492068884247
:1019100071D101AB03AA00212046FFF7E0FB039839
:10192000B0F5017F33D940F20B21039888422ED2C3
:101930000399491FC8B29DF805109DF8042041EA9B
:10194000022100EB4002314B03EB820291809DF8B3
:1019500007109DF8062041EA022109B200EB40027F
:1019600003EB8202D1809DF809109DF8082041EA1E
:10197000022109B200EB400203EB820211819DF8C3
:101980000A1000EB400203EB8202917200BF40F2AA
:101990004111039888422ED19DF80400A1281DD141
:1019A0009DF806009DF8071040EA012001B2174893
:1019B000A0F85C109DF808009DF8091040EA01208D
:1019C00001B21248A0F85A109DF80A009DF80B10B9
:1019D00040EA01210D48A0F858100CE09DF80400E1
:1019E000902808D19DF806009DF8071040EA0121D3
:1019F0000648A0F858100AB010BD0000006400406E
:101A0000E4440020CE4300200068004084440020CD
:101A100070477047704770B5044694F8200001285D
:101A200022D1022084F820002068006820F0010004
:101A30002168086000F068FB05460DE000F064FBDB
:101A4000401B0A2808D9606A40F400306062052013
:101A500084F82000012070BD2068406800F001007B
:101A60000028EBD16062F6E7606A40F40020606213
:101A70000120F0E770477047704770477047704724
:101A8000704770B50446A56D00F03EFB064694F81D
:101A90003500022808D08020606500BF002084F84F
:101AA000340000BF012070BD2068006820F01600DF
:101AB000216808602068406920F080002168486142
:101AC000206C08B9A06C28B12068006820F00800DC
:101AD000216808602068006820F001002168086023
:101AE00010E000F011FB801B05280BD92020606559
:101AF000032084F8350000BF002084F8340000BFC4
:101B00000320D0E72068006800F001000028E8D139
:101B100094F85C103F208840A860012084F83500CC
:101B200000BF002084F8340000BF00BFBBE70146BF
:101B300091F83500022803D08020486501207047C5
:101B4000052081F835000868006820F001000A6867
:101B500010600020F3E70000F8B504460020009074
:101B60008C4800684FF41651B0FBF1F7A56D2E6854
:101B700094F85C1008208840304098B120680068D4
:101B800000F0040070B12068006820F004002168B3
:101B9000086094F85C1008208840A860606D40F0F0
:101BA0000100606594F85C1001208840304068B105
:101BB0002068406900F0800040B194F85C1001207A
:101BC0008840A860606D40F00200606594F85C1089
:101BD00004208840304068B12068006800F00200AE
:101BE00040B194F85C1004208840A860606D40F01B
:101BF0000400606594F85C1010208840304078B391
:101C00002068006800F0080050B394F85C101020C1
:101C10008840A8602068006800F4802080B12068B7
:101C2000006800F4002028B9206CC8B12046216C5F
:101C3000884715E0A06C98B12046A16C88470FE05A
:101C40002068006800F4807028B92068006820F0DF
:101C5000080021680860206C10B12046216C88477C
:101C600094F85C10202088403040002865D020681F
:101C7000006800F0100000285FD094F85C1020206D
:101C80008840A86094F83500052828D120680068AD
:101C900020F01600216808602068406920F080006C
:101CA00021684861206C08B9A06C28B120680068E0
:101CB00020F008002168086094F85C103F208840FC
:101CC000A860012084F8350000BF002084F83400AB
:101CD00000BF206D10B12046216D8847F8BD2068F7
:101CE000006800F4802080B12068006800F40020C3
:101CF00028B9606C10B12046616C88471DE0E06B2C
:101D0000D8B12046E16B884717E02068006800F4EE
:101D1000807068B92068006820F0100021680860B1
:101D2000012084F8350000BF002084F8340000BF93
:101D3000E06B10B12046E16B8847606D38B3606D91
:101D400000F00100F0B1052084F83500206800683B
:101D500020F001002168086000BF0098401C00903E
:101D6000B84200D905E02068006800F001000028B2
:101D7000F3D100BF012084F8350000BF002084F8B3
:101D8000340000BFE06C10B12046E16C884700BF12
:101D9000A4E70000200000202DE9F04104460025C2
:101DA00000F0B2F9074614B90120BDE8F081606A7D
:101DB00000B100BF022084F8350000BF002084F885
:101DC000340000BF2068006820F00100216808602E
:101DD0000AE000F099F9C01B052805D920206065AC
:101DE000032084F83500E0E72068006800F0010077
:101DF0000028EED12068056821480540D4E901019A
:101E00000843E16808432169084361690843A169FF
:101E10000843E1690843216A08430543606A0428CE
:101E200003D1D4E90B01084305432068056020680D
:101E3000456925F00705606A0543606A04280DD1ED
:101E4000A06A0543E06A48B12046FEF74DFC28B180
:101E500040206065012084F83500A6E720684561D0
:101E60002046FEF727FC064694F85C103F20884089
:101E7000B06000206065012084F83500002094E700
:101E80003F8010F02DE9F04704460D4616461F46E8
:101E90004FF00008D4F8589000BF94F8340001289F
:101EA00002D10220BDE8F087012084F8340000BF91
:101EB00094F83500012825D1022084F8350000204F
:101EC00060653B46324629462046FEF762FC94F8A0
:101ED0005C103F208840C9F808002068006840F086
:101EE000160021680860206C28B12068006840F066
:101EF0000800216808602068006840F0010021683F
:101F0000086006E000BF002084F8340000BF4FF0F6
:101F100002084046C6E70000F8B502460B46002519
:101F2000002400200021D1E0012606FA01F51E68F8
:101F300006EA0504AC4274D11E7906F00306012EB0
:101F400004D01E7906F00306022E13D190684F00CC
:101F50000326BE40B0434F00DE68BE403043906071
:101F6000506801268E40B0431E79C6F300168E409D
:101F7000304350601E7906F00306032E09D0D06866
:101F80004F000326BE40B0434F009E68BE40304322
:101F9000D0601E7906F00306022E13D1CF0802F19D
:101FA000200656F827004E07F70E0F26BE40B04316
:101FB0004F07FF0E1E69BE403043CF0802F12006D6
:101FC00046F8270010684F000326BE40B0431E7934
:101FD00006F003064F00BE40304310605E6806F412
:101FE0004036002E71D000BF00260096394E36686C
:101FF00046F48046374F3E603E46366806F48046DB
:10200000009600BF00BF344E8F0856F827008E0799
:10201000370F0F26BE40B043304EB24202D10026E9
:102020001FE052E02E4EB24201D1012619E02D4EA2
:10203000B24201D1022614E02B4EB24201D1032656
:102040000FE02A4EB24201D104260AE0284EB242E5
:1020500001D1052605E0274EB24201D1062600E057
:1020600007268F073F0FBE4030431B4E8F0846F8B0
:102070002700214E3068A0435E6806F4801606B142
:1020800020431D4E3060361D3068A0435E6806F464
:10209000001606B12043184E361D3060164E361F0E
:1020A0003068A0435E6806F4003606B12043124E45
:1020B000361F3060361F3068A0435E6806F48036F5
:1020C00006B120430C4E083E3060491C1029FFF435
:1020D0002BAFF8BD443802400838014000000240F0
:1020E0000004024000080240000C024000100240C0
:1020F0000014024000180240083C01400AB181610E
:1021000001E00B04836170470148006870470000DC
:102110001400002003480068034909780844014975
:1021200008607047140000201C00002010B50D4806
:10213000006840F400700B4908600846006840F4ED
:10214000806008600846006840F4807008600320E2
:1021500000F0DCF80F2000F007F800F05FF8002036
:1021600010BD0000003C02402DE9F04188B004465B
:102170000027B84600BF002001902348006840F4C3
:102180008070214908600846006800F48070019062
:1021900000BF00BF02A903A800F08EF9069F1FB977
:1021A00000F0B2F9054602E000F0AEF9450017482C
:1021B000B5FBF0F0A0F1010815481649086040F29F
:1021C000E7311448C160C0F80480002101618160DA
:1021D000816100F0BBFC064696B90E4800F0EAFCAF
:1021E00006466EB92D2000F043F8102C07D20022CD
:1021F00021462D2000F04CF80748046000E001263D
:10220000304608B0BDE8F0814038024040420F003F
:1022100000200040800500201800002008B500BF05
:10222000002000901148006840F480400F49086089
:102230000846006800F48040009000BF00BF00BF67
:1022400000200090081F006840F08050091F0860BF
:102250000846006800F08050009000BF00BF0022D8
:102260000F21901E00F014F808BD00004438024011
:1022700001460846002809DB00F01F0301229A40AE
:1022800043099B0003F1E023C3F8002100BF70471E
:102290002DE9F05F80460D461646002703F036F91B
:1022A000074639462A46334601F00700C0F1070ABF
:1022B000BAF1040F02D94FF0040A01E0C0F1070A95
:1022C000D14600F1040ABAF1070F02D24FF0000A1A
:1022D00001E0A0F1030AD4464FF0010A0AFA09FA14
:1022E000AAF1010A0AEA020A0AFA0CFA4FF0010BF3
:1022F0000BFA0CFBABF1010B0BEA030B4AEA0B04E4
:102300002146404603F00AF9BDE8F09F00BF00F007
:102310000702064B19684FF6FF031940044B0B43A5
:1023200043EA0221014B196000BF70470CED00E049
:102330000000FA0570B504460D460CB9012070BDC9
:102340005848006800F00F00A84209D255490D70A6
:102350000846006800F00F00A84201D00120EEE717
:10236000207800F0020002281DD1207800F004003F
:10237000042805D14C48006840F4E0504A49086000
:10238000207800F00800082805D14748006840F48C
:102390006040454908604448006820F0F000A168AA
:1023A000084341490860207800F00100A8B3606844
:1023B000012807D13C4808380068C0F34040B8B94C
:1023C0000120BCE76068022802D06068032807D1BA
:1023D000354808380068C0F3406048B90120AEE7CE
:1023E000314808380068C0F3400008B90120A6E76A
:1023F0002D48006820F00300616808432A490860FE
:10240000FFF782FE064609E0FFF77EFE801B41F2E1
:102410008831884202D9032091E707E0224800680A
:1024200000F00C006168B0EB810FEDD11D48006831
:1024300000F00F00A84209D91A490D70084600683B
:1024400000F00F00A84201D0012078E7207800F0CA
:102450000400042807D11448006820F4E050E16823
:10246000084311490860207800F00800082808D1C6
:102470000D48006820F46040216940EAC1000A4923
:10248000086000F061F808490968C1F30311074AC0
:10249000515CC8400649086006480068FFF764FEC2
:1024A00000204CE7003C024008380240307E000823
:1024B00020000020180000200F2202600D4A126840
:1024C00002F0030242600B4A126802F0F0028260DE
:1024D000084A126802F4E052C260064A126802F426
:1024E0006042D2080261044A126802F00F020A60D8
:1024F0007047000008380240003C02400148006874
:10250000704700002000002000B5FFF7F7FF0449E6
:102510000968C1F38221034A515CC84000BD000034
:1025200008380240407E000800B5FFF7E7FF044985
:102530000968C1F34231034A515CC84000BD000044
:1025400008380240407E00082DE9F04700240025AD
:102550000026A146A2463F48006800F00C0030B1BA
:10256000042807D0082808D00C286BD138E0DFF801
:10257000E8A06AE0DFF8E4A067E03648001F0068E2
:1025800000F03F043348001F006800F4800078B179
:1025900032483049091F0968C1F38811A0FB017056
:1025A0000146224600233846FDF7DCFE05460DE0D5
:1025B00029482849091F0968C1F38811A0FB017146
:1025C000224600233846FDF7CDFE05462148001F70
:1025D0000068C0F30140401C4600B5FBF6FA34E049
:1025E0001C48001F006800F03F041A48001F0068E4
:1025F00000F4800078B119481649091F0968C1F331
:102600008811A0FB01700146224600233846FDF7E1
:10261000A9FE05460EE010480E49091F0968C1F3DE
:102620008811A0FB01700146224600233846FDF7C1
:1026300099FE05460748001F0068C0F30279B5FB04
:10264000F9FA02E0DFF810A000BF00BF5046BDE875
:10265000F0870000083802400024F400001BB70097
:10266000F8B504460CB90120F8BD207800F001004F
:1026700000286FD0FE48006800F00C0004281BD032
:10268000FB48006800F00C00082807D1F848001F3C
:10269000006800F48000B0F5800F0DD0F4480068A9
:1026A00000F00C000C2813D1F148001F006800F462
:1026B0008000B0F5800F0BD1ED4808380068C0F3FA
:1026C0004040002859D06068002856D10120CBE74F
:1026D00000BF6068B0F5803F08D1E5480838006861
:1026E00040F48030E249083908601EE06068B0F5C7
:1026F000A02F0DD1DE480838006840F48020DC4966
:10270000083908600846006840F4803008600CE032
:10271000D7480838006820F48030D5490839086067
:102720000846006820F48020086000BF606890B10F
:10273000FFF7EAFC054606E0FFF7E6FC401B6428CD
:1027400001D9032090E7CA4808380068C0F3404028
:102750000028F1D011E0FFF7D7FC054606E0FFF7AF
:10276000D3FC401B642801D903207DE7C04808380A
:102770000068C0F340400028F1D1207800F002004A
:1027800002286BD1BA48006800F00C00B8B1B84814
:10279000006800F00C00082805D1B548001F00684B
:1027A00000F4800058B1B248006800F00C000C281A
:1027B0001CD1AF48001F006800F48000B0B9AC48DD
:1027C00008380068C0F3400020B1E068012801D05B
:1027D000012049E7A6480838006820F0F800216980
:1027E00040EAC100A2490839086037E0E06800B358
:1027F0000120A0490860FFF787FC054606E0FFF7C7
:1028000083FC401B022801D903202DE79848083893
:102810000068C0F340000028F1D0954808380068EF
:1028200020F0F800216940EAC100914908390860A8
:1028300014E000208F490860FFF766FC054606E0BB
:10284000FFF762FC401B022801D903200CE78848EF
:1028500008380068C0F340000028F1D1207800F06B
:10286000080008282CD16069A8B1012082490860BD
:10287000FFF74AFC054606E0FFF746FC401B02282E
:1028800001D90320F0E67A486C300068C0F34000BC
:102890000028F1D014E0002077490860FFF734FCED
:1028A000054606E0FFF730FC401B022801D9032053
:1028B000DAE66F486C300068C0F340000028F1D1C0
:1028C000207800F00400042870D1002768483830D0
:1028D000006800F0805090B900BF0020009064486C
:1028E0003830006840F0805061493831086008464F
:1028F000006800F08050009000BF00BF01275F48D3
:10290000006800F48070B0B95C48006840F48070E2
:102910005A490860FFF7F8FB054606E0FFF7F4FBAD
:10292000401B022801D903209EE65448006800F4A9
:1029300080700028F2D000BFA068012808D14C4860
:102940006830006840F001004949683108601DE0C6
:10295000A06805280DD146486830006840F00400A2
:102960004349683108600846006840F0010008608B
:102970000CE03F486830006820F001003C496831B5
:1029800008600846006820F00400086000BFA068E6
:10299000A8B1FFF7B9FB054609E0FFF7B5FB401BFF
:1029A00041F28831884202D903205DE626E03048B2
:1029B00068300068C0F340000028EED013E0FFF755
:1029C000A3FB054608E0FFF79FFB401B41F288315F
:1029D000884201D9032047E6254868300068C0F3E3
:1029E00040000028EFD1012F07D12148383000687E
:1029F00020F080501E493831086000BFA0690028CF
:102A000051D01B48006800F00C00082861D0A06974
:102A1000022849D1002017490866FFF775FB0546D3
:102A200006E0FFF771FB401B022801D903201BE6DB
:102A30000F4808380068C0F340600028F1D1D4E99D
:102A400007010843616A40EA81110122A06AC2EBD2
:102A5000500041EA00412C20005D41EA0061302035
:102A6000005D41EA00700249091F0860012007E08B
:102A70000838024000004742800E47420070004084
:102A80002F490866FFF740FB054606E0FFF73CFBD1
:102A9000401B022801D90320E6E52A480068C0F35C
:102AA00040600028F2D048E0002025490866FFF782
:102AB0002BFB054606E0FFF727FB401B022801D948
:102AC0000320D1E51F480068C0F340600028F2D120
:102AD00033E0A069012800D1C6E51A48001D066848
:102AE000A069012827D006F48001E069814222D143
:102AF00006F03F01206A81421DD147F6C070304088
:102B0000616AB0EB811F16D106F440310122A06A40
:102B1000C2EB5000B1EB004F0DD106F070612C20DC
:102B2000005DB1EB006F06D106F0E0413020005DA2
:102B3000B1EB007F01D0012096E5002094E5000074
:102B400000004742003802407047704710B5044605
:102B50000CB9012010BD94F83D0028B9002084F87C
:102B60003C00204600F025F8022084F83D00211D9D
:102B7000206801F0E9F9012084F8460000BF84F8DC
:102B80003E0001213F2001554020015541200155C3
:102B900000BF00BF012084F84200432001554420BB
:102BA00001554520015500BF012084F83D0000205B
:102BB000D0E77047014691F83D00012801D001207F
:102BC0007047022081F83D000868C06840F00100AD
:102BD0000B68D8601A4B086898421BD00868B0F19F
:102BE000804F17D0174B0868984213D0164B0868CF
:102BF00098420FD0154B086898420BD0144B0868C8
:102C0000984207D0134B0868984203D0124B0868CB
:102C100098420CD10868806800F00702062A0CD0A0
:102C20000868006840F001000B68186005E008685B
:102C3000006840F001000B6818600020C0E7000049
:102C4000000001400004004000080040000C00406B
:102C5000000401400040014000180040704710B5DA
:102C6000044620680069C0F34000D8B12068C068FD
:102C7000C0F34000B0B16FF002002168086101208C
:102C800020772068806900F0030018B12046FFF724
:102C9000E5FF05E0204600F0ADF8204600F0ABF877
:102CA0000020207720680069C0F38000D8B1206838
:102CB000C068C0F38000B0B16FF004002168086103
:102CC000022020772068806900F4407018B1204607
:102CD000FFF7C4FF05E0204600F08CF8204600F026
:102CE0008AF80020207720680069C0F3C000D8B1BE
:102CF0002068C068C0F3C000B0B16FF00800216860
:102D00000861042020772068C06900F0030018B132
:102D10002046FFF7A3FF05E0204600F06BF82046B1
:102D200000F069F80020207720680069C0F30010E7
:102D3000D8B12068C068C0F30010B0B16FF01000C7
:102D400021680861082020772068C06900F440707D
:102D500018B12046FFF782FF05E0204600F04AF850
:102D6000204600F048F8002020772068006900F035
:102D7000010058B12068C06800F0010030B16FF068
:102D8000010021680861204600F036F820680069DB
:102D9000C0F3C01058B12068C068C0F3C01030B193
:102DA0006FF08000216808612046FFF7CDFE2068A3
:102DB0000069C0F3801058B12068C068C0F380106B
:102DC00030B16FF0400021680861204600F020F823
:102DD00020680069C0F3401058B12068C068C0F393
:102DE000401030B16FF02000216808612046FFF7E5
:102DF000ACFE10BD7047704710B50446034920680B
:102E0000884201D1FFF786F910BD00000020004084
:102E10007047704770B50446002520684069C0F3CC
:102E2000C01594F83D00212817D1B5B100BF00BFEF
:102E30002168143151E8001F21F08000216814310D
:102E400041E80002002AF3D100BF606B10B1606B53
:102E5000FEF717FE204601F0F6F920684069C0F33E
:102E6000801594F83E00222817D1B5B100BF00BFED
:102E70002168143151E8001F21F04000216814310D
:102E800041E80002002AF3D100BFA06B10B1A06B93
:102E9000FEF7F7FD204601F090F9002070BD704765
:102EA0002DE9F84F0446206805682068C668206848
:102EB00047694FF00009CA4605F00F09B9F1000F44
:102EC0000AD105F0200038B106F0200020B12046DC
:102ED00001F0CCF9BDE8F88FB9F1000F7CD007F014
:102EE000010018B906F49070002875D005F00100B3
:102EF00030B106F4807018B1206C40F001002064FD
:102F000005F0040030B107F0010018B1206C40F06A
:102F10000200206405F0020030B107F0010018B192
:102F2000206C40F00400206405F0080048B106F071
:102F3000200010B907F0010018B1206C40F0080023
:102F40002064206C002846D005F0200028B106F04F
:102F5000200010B1204601F089F920684069C0F3D3
:102F6000801A206C00F0080010B9BAF1000F2DD0C3
:102F7000204601F022F92068406900F04000402816
:102F800020D100BF00BF2168143151E8001F21F09B
:102F900040002168143141E80002002AF3D100BF4B
:102FA000A06B50B17548A16B0865A06BFEF7BFFD23
:102FB00088B1A06B016D88470DE02046FFF76FFFD9
:102FC00009E009E02046FFF76AFF04E02046FFF72A
:102FD00066FF002020647DE7206B012876D105F094
:102FE0001000002872D006F010000028FAD000BFB0
:102FF00000200090206800680090206840680090E1
:1030000000BF00BF2068406900F0400040285ED14A
:10301000A06B006840681FFA80F8B8F1000F54D028
:10302000A08D404551DDA4F82E80A06BC069B0F59D
:10303000807F43D000BF00BF21680C3151E8001FE2
:1030400021F4807021680C3141E80002002AF3D19C
:1030500000BF00BF00BF2168143151E8001F21F0FC
:1030600001002168143141E80002002AF3D100BFB9
:1030700000BF00BF2168143151E8001F21F040005B
:103080002168143141E80002002AF3D100BF20205A
:1030900084F83E000020206300BF00BF21680C318F
:1030A00051E8001F21F0100021680C3141E80002B6
:1030B000002AF3D100BFA06BFEF7E3FCA08DE28DE8
:1030C000801A81B22046FFF7A4FE03E740E0A08DFE
:1030D000E18D401A1FFA80F8E08DC0B3B8F1000FFF
:1030E00035D000BF00BF21680C3151E8001F21F42A
:1030F000907021680C3141E80002002AF3D100BF32
:1031000000BF00BF2168143151E8001F21F0010009
:103110002168143141E80002002AF3D100BF2020C9
:1031200084F83E000020206300BF00BF21680C31FE
:1031300051E8001F21F0100021680C3141E8000225
:10314000002AF3D100BF41462046FFF762FEC1E6E8
:1031500005F0800030B106F0800018B1204601F083
:103160007FFAB7E605F0400030B106F0400018B134
:10317000204601F058F8ADE600BFABE6214000085C
:1031800010B504460CB9012010BDA06900B100E0E3
:1031900000BF94F83D0028B9002084F83C00204688
:1031A00000F028F8242084F83D002068C06820F44E
:1031B00000502168C860204601F0D4F820680069FA
:1031C00020F49040216808612068406920F02A00BE
:1031D000216848612068C06840F400502168C860D8
:1031E00000202064202084F83D0084F83E00002068
:1031F000CAE7000010B586B00446142101A8FDF707
:103200005AF98E492068884276D100BF002000908C
:103210008B48006840F01000894908600846006843
:1032200000F01000009000BF00BF00BF0020009021
:1032300083481438006840F001008149143908605F
:103240000846006800F00100009000BF00BF4FF486
:10325000C06001900220029000200390032004909F
:103260000720059001A97748FEF756FE7648774972
:1032700008604FF000604860002174488160C160C0
:103280004FF480610161002141618161C16101628E
:103290004162FEF781FD08B1FDF708FB00BF6B48F6
:1032A000A063846300BF68483030694908604FF00C
:1032B000006048604021664881600021C1604FF491
:1032C00080610161002141618161C16101624162EE
:1032D000FEF762FD08B1FDF7E9FA00BF5C486063E4
:1032E000846300BF002205212520FEF7D1FF2520A1
:1032F000FEF7BEFFA0E0FFE7564920688842F9D1FB
:1033000000BF002000904E48001F006840F480205D
:103310004B49091F08600846006800F480200090AF
:1033200000BF00BF00BF002000904548143800686F
:1033300040F004004249143908600846006800F073
:103340000400009000BF00BF00BF002000900846AE
:10335000006840F0020008600846006800F00200C3
:10336000009000BF00BF20200190022002900020AA
:103370000390032004900720059001A93648FEF72A
:10338000CBFD4FF48060019002200290002003905A
:10339000032004900720059001A93048FEF7BCFDEA
:1033A0002F48304908604FF00060486000212D48E8
:1033B0008160C1604FF480610161002141618161E0
:1033C0004FF48071C1614FF44031016200214162CC
:1033D000FEF7E2FC08B1FDF769FA00BF2148A063DF
:1033E000846300BF1E4830301F4908604FF0006002
:1033F000486040211C4881600021C1604FF4806119
:103400000161002141618161C1614FF4403101627C
:1034100000214162FEF7C0FC08B1FDF747FA00BF8A
:1034200011486063846300BF002205212720FEF756
:103430002FFF2720FEF71CFF06B010BD0010014033
:10344000443802400000024088640240000400202A
:1034500060040020004800400008024000040240D0
:1034600028600240C00400202005002070B50446FA
:103470000D46164694F83E00202816D105B10EB927
:10348000012070BD00BF94F83C00012801D102204A
:10349000F7E7012084F83C0000BF0020206332469B
:1034A0002946204601F074F8EBE70220E9E770476F
:1034B00070470000F7B50446154694F83D002028F3
:1034C00046D1019800B10DB90120FEBD00BF94F8AE
:1034D0003C00012801D10220F7E7012084F83C00DC
:1034E00000BF01982062A584E5840020206421208B
:1034F00084F83D001748616BC8631748616B086426
:103500001648616BC8640020616B086501AE2368D2
:103510001A1D31682B46606BFEF7B4FC6FF040005B
:103520002168086000BF002084F83C0000BF00BF95
:1035300000BF2168143151E8001F41F0800021686C
:10354000143141E80002002AF3D100BF0020BCE79B
:103550000220BAE755410008AD4100083540000897
:103560007047704700BFFEE76648C07A012807D160
:103570006448807A012803D10B206349487068E0D1
:103580006048C07A012807D15E48807A032803D1B9
:103590000D205D4948705CE05A48C07A012807D187
:1035A0005848807A022803D10C205749487050E0CF
:1035B0005448C07A032807D15248807A012803D1A1
:1035C0001F205149487044E04E48C07A032807D173
:1035D0004C48807A032803D121204B49487038E0B9
:1035E0004848C07A032807D14648807A022803D188
:1035F0002020454948702CE04248C07A022807D173
:103600004048807A012803D115203F49487020E0C6
:103610003C48C07A022807D13A48807A032803D16F
:1036200017203949487014E03648C07A022807D17B
:103630003448807A022803D116203349487008E0C4
:103640003048C07A28B92F48807A10B916202E4900
:1036500048702E4890ED010AB5EEC00AF1EE10FA5E
:103660000AD090ED020AB5EEC00AF1EE10FA03D0CE
:1036700001202549887002E00020234988702348F2
:1036800090ED030AB5EEC00AF1EE10FA0AD090ED03
:10369000040AB5EEC00AF1EE10FA03D001201A496F
:1036A000C87002E000201849C870174880780128C7
:1036B00003D01548C078012807D1012012490870AD
:1036C000002088710871C87148710F480078B8B936
:1036D0000D48807910B901200B4988710A4800799A
:1036E00010B90120084908710748C07910B90120B4
:1036F0000549C8710448407910B901200249487150
:1037000070470000E4440020CE43002080430020A6
:1037100030B5541C04EBD4756B10002830DB984294
:103720002EDA002914DBC4188C4211DD411A00EE98
:10373000101AB8EEC00A9FED2D1A20EE011A00EE05
:10374000102AB8EEC00AC1EE000AB0EE600A30BD21
:10375000C4188C4248DC914246DA541A211800EE13
:10376000101AB8EEC00A9FED211A20EE011A00EEE1
:10377000102AB8EEC00AC1EE000AB0EE600AE6E711
:10378000984231DB90422FDA002916DBC41A8C42B2
:1037900013DD54420444611A00EE101AB8EEC00A58
:1037A0009FED121A20EE011A00EE102AB8EEC00AA0
:1037B000C1EE000AB0EE600AC9E7C41A8C4213DCFD
:1037C000914211DA411A00EE101AB8EEC00A9FEDCC
:1037D000071A20EE011A00EE102AB8EEC00AC1EE58
:1037E000000AB0EE600AB2E700BFB0E70000B443E1
:1037F00010B50E480E4908600320486000210C48AF
:103800008160C1604FF4102101614FF400114161EA
:103810000021017641768176C17601774177FDF707
:1038200042FE08B1FDF742F810BD00000064004000
:103830002803002010B50E480E4908600320486098
:1038400000210C488160C1604FF4102101614FF4E8
:10385000001141610021017641768176C1760177C0
:103860004177FDF720FE08B1FDF720F810BD0000FC
:10387000006800405003002008B500BF0020009001
:103880001E48006840F400101C49086008460068A3
:1038900000F40010009000BF00BF00BF00200090A7
:1038A0000846006840F4800008600846006800F49C
:1038B0008000009000BF00BF002205210C20FEF711
:1038C000E7FC0C20FEF7D4FC002205210E20FEF7B9
:1038D000DFFC0E20FEF7CCFC002211464420FEF750
:1038E000D7FC4420FEF7C4FC002205214620FEF749
:1038F000CFFC4620FEF7BCFC08BD0000303802407B
:1039000000B59DB01C22184916A8FCF7A2FD0021A5
:1039100016A802F08EF9154908601C2212491C31C4
:103920000FA8FCF796FD00210FA802F082F91049BC
:1039300008601C220C49383108A8FCF78AFD0021D8
:1039400008A802F076F90B4908601C220649543198
:1039500001A8FCF77EFD002101A802F06AF90649E2
:1039600008601DB000BD0000B87D00080000002008
:1039700004000020080000200C00002000B587B0E3
:10398000142102A8FCF797FD00BF002001902548F4
:10399000006840F08000234908600846006800F095
:1039A0008000019000BF00BF00BF002001900846CA
:1039B000006840F0040008600846006800F0040059
:1039C000019000BF00BF00BF0020019008460068C2
:1039D00040F0020008600846006800F00200019014
:1039E00000BF00BF00BF002001900846006840F003
:1039F000010008600846006800F00100019000BF67
:103A000000BF012211460848FEF778FB0120029012
:103A1000039004900020059002A90348FEF77CFA69
:103A200007B000BD303802400008024010B50B4816
:103A30000B4908604FF4E13048600021084881607C
:103A4000C16001610C21416100218161C161FFF709
:103A500097FB08B1FCF72AFF10BD000000100140E1
:103A60007803002010B50A480A4908600A484860EF
:103A7000002108488160C16001610C214161002181
:103A80008161C161FFF77CFB08B1FCF70FFF10BD3E
:103A900000480040BC030020A086010000BFFEE7F4
:103AA00000BFFEE7FCF780FF4FF4FA6002F0B0F8C9
:103AB00000BFFDF7B3F9FDF7E7F8FDF71BF8FDF7D9
:103AC00007F9FDF747F9FCF733FF012002F0A0F8F2
:103AD000EFE7000010B5234B1B685B6943F0400320
:103AE000204C246863611F4B1B68DB6843F01003A4
:103AF0001C4C2468E3601C4B1B681B6823F001030B
:103B0000194C2468236007E0174B1B681B6823F0DF
:103B10000103154C24682360134B1B681B6803F0DA
:103B20000103002BF0D1114B0F4C2468A3600E4B06
:103B30001B68D8600C4B1B6819610B4B1B685A60E3
:103B4000094B1B681B6843F48023074C24682360DF
:103B5000054B1B681B6843F00103034C246823607A
:103B600010BD0000BC030020C00400200448004039
:103B700010B52DED048B1348006804F0A1F841EC5A
:103B8000190B9FED110B53EC102B03F0C1FB41EC13
:103B9000180B03F08BFB0B490860084690ED000AF8
:103BA000DFED0B0AB4EEE00AF1EE10FA07DD90ED5E
:103BB000000ADFED080A30EE600A80ED000ABDEC75
:103BC000048B10BD9C0000209A9999999999B93F4E
:103BD000000034430000B4431CB500200090019065
:103BE00017480068CDF801001648007D8DF80500E3
:103BF0005121684601F04CFF012002F009F81148FC
:103C0000806900900F48C06901905221684601F018
:103C10003FFF012001F0FCFF0B4800788DF8000009
:103C2000094880788DF801000748C0788DF80200B7
:103C30005321684601F02CFF012001F0E9FF1CBD73
:103C4000A800002098430020CE4300200020034914
:103C500008708870C870087248727047CE430020A0
:103C600010B52DED0A8B2D48B0F9000010F5257F19
:103C700051DB2A48B0F90000B0F5257F4BDC27491D
:103C8000B1F9000003F044FD41EC1C0B9FED240B47
:103C900053EC102B03F0E4FB41EC1B0B9FED220BCC
:103CA00053EC102B03F04CFD41EC190B204800683D
:103CB00004F006F841EC1A0B53EC192B03F016FF35
:103CC00041EC180B03F0F2FA19490860084690ED30
:103CD000000ADFED180AB4EEE00AF1EE10FA08DD92
:103CE00090ED000ADFED140A30EE600A80ED000A64
:103CF00011E00F4890ED000ADFED100AB4EEE00A83
:103D0000F1EE10FA07D290ED000ADFED0B0A30EE6B
:103D1000200A80ED000ABDEC0A8B10BDE4440020AF
:103D20000000000000A08440000000000000E03F10
:103D30009C000020000034430000B443000034C362
:103D400000BF012001F064FFFBE7000010B588B060
:103D5000044604F5A070029000200490059008200D
:103D6000069088208DF8000000208DF801008DF865
:103D700002008DF803008DF804008DF805008DF821
:103D800006008DF8070002236A4602A90248FDF7E3
:103D900068F808B010BD00005003002010B51F489F
:103DA00090ED000A1E4880ED010A1E4890ED000AC1
:103DB0001B4880ED020A1C4890ED000A184880ED6F
:103DC000030A1A4890ED000A154880ED040A1848C5
:103DD00013490978017012494968C0F80110104967
:103DE0008968C0F805100E49C968C0F809100C4967
:103DF0000969C0F80D100F49097841740D49097A15
:103E000081740C49497AC1740549898A81821622D4
:103E100001460948FFF74EFB10BD0000C800002016
:103E200080430020B4000020CC000020B800002017
:103E30001C430020CE4300207803002010B500BFB3
:103E4000502080F31188BFF34F8FBFF36F8F00BFF7
:103E500003F0FAF818B14FF080500449086000BF31
:103E6000002080F3118800BF10BD000004ED00E0C9
:103E700000B593B0342106A8FCF71DFB142101A85E
:103E8000FCF719FB00BF002000902448006840F0B8
:103E90008050224908600846006800F08050009079
:103EA00000BF00BF00BF002000901D48006840F424
:103EB00040401B4908600846006800F440400090FC
:103EC00000BF00BF012006900004079002200C9064
:103ED00041050D9106210E91A8210F91022110910B
:103EE0001191129106A8FEF7BBFB08B1FCF7DEFCAE
:103EF0000F20019002200290002003904FF4A05068
:103F000004904FF480500590052101A8FEF712FAA5
:103F100008B1FCF7CBFC13B000BD000040380240F4
:103F2000007000400348006840F4700001490860D8
:103F30007047000088ED00E010B50248FEF78FFEE4
:103F400010BD00008005002010B50268294B984282
:103F50000ED0B0F1804F0BD0274B984208D0274BA2
:103F6000984205D0264B984202D0264B984203D166
:103F700022F070024B681A431E4B984220D0B0F1D9
:103F8000804F1DD01C4B98421AD01C4B984217D022
:103F90001B4B984214D01B4B984211D01A4B98429D
:103FA0000ED01A4B98420BD0194B984208D0194B9F
:103FB000984205D0184B984202D0184B984203D132
:103FC00022F44072CB681A4322F080034C6943EA22
:103FD000040202608B68C3620B688362054B9842DF
:103FE00002D0084B984201D10B690363012343615E
:103FF00010BD000000000140000400400008004027
:10400000000C004000040140004001400044014019
:104010000048014000180040001C00400020004003
:1040200070B50546AC6B0020E085E0842046FEF7C5
:1040300036FF70BD70B506460025B46B2068406938
:10404000C0F3C01594F83D00212805D125B100200A
:10405000E084204600F0F7F820684069C0F380153E
:1040600094F83E00222805D125B10020E0852046A5
:1040700000F0A3F8206C40F0100020642046FEF70A
:104080000EFF70BD70B50546AC6B2868006800F483
:104090008070002842D1E08500BF00BF21680C314C
:1040A00051E8001F21F4807021680C3141E80002C2
:1040B000002AF3D100BF00BF00BF2168143151E8CE
:1040C000001F21F001002168143141E80002002A9C
:1040D000F3D100BF00BF00BF2168143151E8001FB9
:1040E00021F040002168143141E80002002AF3D198
:1040F00000BF202084F83E00206B01280ED100BFB5
:1041000000BF21680C3151E8001F21F01000216828
:104110000C3141E80002002AF3D100BF206B0128D6
:1041200004D1A18D2046FEF774FE02E02046FFF781
:10413000BEF970BD70B50546AC6B206B012805D18A
:10414000A08D41082046FEF764FE02E02046FFF7FE
:10415000AFF970BD70B50546AC6B2868006800F417
:104160008070F8B90020E08400BF00BF21681431DE
:1041700051E8001F21F080002168143141E800025D
:10418000002AF3D100BF00BF00BF21680C3151E805
:10419000001F41F0400021680C3141E80002002A74
:1041A000F3D102E02046FFF7DBF970BD70B504469D
:1041B000A56B2846FFF7D5F970BD00BF00BF0268A8
:1041C0000C3252E8002F22F4907102680C3242E85F
:1041D0000013002BF3D100BF00BF00BF02681432F0
:1041E00052E8002F22F001010268143242E8001365
:1041F000002BF3D100BF016B01290ED100BF00BF1E
:1042000002680C3252E8002F22F0100102680C32D2
:1042100042E80013002BF3D100BF202180F83E10AC
:1042200000210163704710B504462068C06820F083
:1042300040002168C860202084F83D002046FFF738
:104240008FF9002010BD00BF00BF02680C3252E899
:10425000002F22F0C00102680C3242E80013002B4C
:10426000F3D100BF202180F83D107047F8B5044617
:1042700094F83E00222873D1A068B0F5805F0CD17D
:10428000206950B90025A66A20684068C0F308007C
:104290003080A06A801CA06215E0A56A0026A06894
:1042A000B0F5805F03D0A06828B9206918B92068EC
:1042B0004068287004E02068406800F07F002870A3
:1042C000A06A401CA062E08D401E80B2E0850028FC
:1042D00044D12068C06820F020002168C8602068B0
:1042E000C06820F480702168C8602068406920F0B0
:1042F000010021684861202084F83E00206B0128DD
:1043000026D10020206300BF00BF21680C3151E896
:10431000001F21F0100021680C3141E80002002A42
:10432000F3D100BF2068006800F0100010280AD107
:1043300000BF00200090206800680090206840685E
:10434000009000BF00BFA18D2046FEF762FD02E095
:104350002046FFF7ACF80020F8BD01E00020FBE7A5
:104360000220F9E72DE9F84F04462068006920F49F
:104370004050E1680843216808612169A06808434A
:1043800061690843E169084300902068C06849F208
:104390000C618843009908432168C860206840691F
:1043A00020F44070A169084321684861764920687B
:1043B000884203D075492068884203D1FEF7B4F8DB
:1043C000814602E0FEF7A0F88146E069B0F5004FB3
:1043D0006CD102206168A0FB015003461920A9FBA3
:1043E000007001462A463846FBF7BCFF6421B0FB4B
:1043F000F1F04FEA001A02206168A0FB01510B4660
:104400001920A9FB00712A463846FBF7ABFF83460B
:1044100002206168A0FB015003461920A9FB00712E
:104420002A463846FBF79EFF6421B0FBF1F000EB13
:10443000C00101EB0010ABEB8000322101EBC000AA
:104440006421B0FBF1F000F0F8000AEB400A022012
:104450006168A0FB015003461920A9FB00700146CA
:104460002A463846FBF77EFF834602206168A0FBA0
:10447000015003461920A9FB00712A463846FBF774
:1044800071FF6421B0FBF1F000EBC00101EB001003
:10449000ABEB8000322101EBC0006421B0FBF1F0F6
:1044A00000F007005044216888606AE004206168D9
:1044B000A0FB015003461920A9FB007001462A46C3
:1044C0003846FBF74FFF824604206168A0FB01508D
:1044D00003461920A9FB007001462A463846FBF71F
:1044E00041FF6421B0FBF1F000EBC00101EB0010D3
:1044F000AAEB8000322101EB00106421B0FBF1F047
:1045000000F0F00A04206168A0FB01700346192046
:10451000A9FB00513A462846FBF724FF6421B0FB73
:10452000F1F00AEB001A04206168A0FB01510B4670
:104530001920A9FB00712A463846FBF713FF834672
:1045400004206168A0FB015003461920A9FB0070FC
:1045500001462A463846FBF705FF6421B0FBF1F01F
:1045600000EBC00101EB0010ABEB8000322101EB4E
:1045700000106421B0FBF1F000F00F0050442168FE
:104580008860BDE8F88F0000001001400014014071
:1045900077B581B0044615460298A062A585002033
:1045A0002064222084F83E002A48A16BC8632A4870
:1045B000A16B08642948A16BC8640020A16B086541
:1045C00002AE32682368191D2B46A06BFDF75AFC1A
:1045D00000BF0020009020680068009020684068BC
:1045E000009000BF00BF00BF002084F83C0000BF67
:1045F000206970B100BF00BF21680C3151E8001F75
:1046000041F4807021680C3141E80002002AF3D1A6
:1046100000BF00BF00BF2168143151E8001F41F006
:1046200001002168143141E80002002AF3D100BFE3
:1046300000BF00BF2168143151E8001F41F0400065
:104640002168143141E80002002AF3D100BF0020A4
:1046500004B070BD854000083541000835400008B1
:10466000014691F83D00212828D18868B0F5805F87
:104670000BD1086948B90A6A1088C0F308000B68B2
:104680005860086A801C086205E00B6A581C0862C2
:1046900018780B685860C88C401E80B2C88458B91E
:1046A0000868C06820F080000B68D8600868C0689F
:1046B00040F040000B68D860002070470220FCE703
:1046C00038B50025224800680068C0F30015002DA9
:1046D00035D000BF002000901D48006800680090A1
:1046E0001B4800684068009000BF00BF1848FEF7F4
:1046F00091FB184800684468C4F1640016490870CA
:1047000001201649087008460078012817D114487E
:104710000078A52802D1124800F0ECF800200F49DB
:10472000087000BF04E000210D4A1154411CC8B2BA
:10473000094909788842F6DB00200749087064229D
:1047400007490348FEF792FE0148FEF7A9FB38BD72
:104750007803002000040020D0000020D1000020B9
:10476000B842002010B500F007F80248FEF798FBA9
:1047700010BD0000BC03002008B541480068006877
:1047800000F0200060B100BF002000903C480068AD
:10479000006800903A4800684068009000BF6EE0F2
:1047A0003848006800F01000002868D000BF0020E2
:1047B0000090334800680068009031480068406805
:1047C000009000BF00BF30480068006800F400207F
:1047D00058BB2D480068006820F001002A4909688C
:1047E0000860294800684068C0F124002749088013
:1047F000242025490968486023480068006840F47F
:1048000000202149096808601F480068006840F0DE
:1048100001001D49096808601C48008812282ED133
:104820001B491C4802F050F829E01748006800684E
:1048300020F00100144909680860134800684068C6
:10484000C0F124001149088024200F4909684860FC
:104850001148806A20F400200F4988620A480068E5
:10486000006840F0010008490968086007480088AE
:10487000122804D106490748243002F025F808BD63
:10488000BC03002000480040C0040020D2000020EB
:10489000E4440020FA4400200060024000BFFEE72C
:1048A0005A200F4908700F4890ED000A084680ED25
:1048B000010A0D4890ED000A084680ED020A0B48F7
:1048C00090ED000A084680ED030A094890ED000AC1
:1048D000084680ED040A4AF6AA2088827047000044
:1048E00080430020C8000020B4000020CC0000203D
:1048F000B80000200F49801C10F8022C0A7050F8F4
:10490000012C4A60D0F803208A60D0F80720CA60E2
:10491000D0F80B200A61C27B0A7502698A6142697C
:10492000CA6182690A62C2694A62028C801E0A8573
:10493000704700009843002010B51948D0ED000AD8
:10494000184890ED000A184801F022FA1748D0EDF7
:10495000070A30EEC00A80ED070A1548B0F95A0080
:1049600001EE100AB8EEC11AF0EE410A0F4890EDC0
:10497000071AB0EE410A0F4801F08AF9BDEEC00AED
:1049800010EE100A01B20A48A0F856100146B1F91B
:104990005600FBF75FFE0649A1F8560010BD000067
:1049A000A80000209C000020904B00200444002020
:1049B00084440020F049002000B589B040F2FF1087
:1049C0000390002005900690082007901648408824
:1049D000000A8DF80400144880788DF8050012480C
:1049E000C089000A8DF806000F48807B8DF807000B
:1049F0000D48408B000A8DF808000B48807E8DF82A
:104A000009000948C08C000A8DF80A00064890F891
:104A100026008DF80B00022301AA03A90348FCF726
:104A200020FA09B000BD000084440020500300209B
:104A300010B59FED462ADFED451A9FED451ADFEDD3
:104A4000440AB7EE000A434801F02CFC9FED3F2AD0
:104A5000DFED3E1A9FED3E1ADFED3F0AB1EE040A8C
:104A60003E4801F01FFC9FED3E2ADFED3D1A9FED11
:104A7000381ADFED3C0AB3EE0E0A3B4801F012FC97
:104A80009FED372ADFED361AB7EE001ADFED300A58
:104A9000B0EE080A354801F005FC9FED312ADFED44
:104AA000301A9FED2B1ADFED2F0AB3EE0E0A2E48B7
:104AB000343001F0F7FB9FED2A2ADFED291AB7EE1B
:104AC000001ADFED230AB0EE080A2848343001F05E
:104AD000E9FB2749B1F8541008B2FBF7BFFE2448A0
:104AE000B0F858104FF6FF722248B0F90000FEF7F8
:104AF0000FFE214880ED000A1D48808801B21F4842
:104B0000B0F9000001F00EF81D4880ED000A1848C9
:104B1000008A01B21B48B0F9000001F003F81A48FE
:104B200080ED000A144890ED000A184880ED000A54
:104B3000134890ED000A164880ED000A124890EDE7
:104B4000000A144880ED000A10BD00000000004576
:104B500000000000F04900200AD7233C904B0020C1
:104B60000060EA466F12833A84480020244A0020FD
:104B700084440020A4000020A8000020A000002001
:104B8000AC000020A2000020B00000209C0000200B
:104B90008C000020900000209FED060A064880ED62
:104BA000070A9FED040A80ED000A9FED020A80EDDE
:104BB000010A7047000000000444002010B5854839
:104BC000407821280ED1FFF74BF89FED830A8348E8
:104BD00080ED000A9FED800A814880ED000A00F018
:104BE00029FBF5E07B4840780D2809D19FED7A0A32
:104BF0007C4880ED000A00F00BF900F01BFBE7E0B9
:104C0000744840781628ECD17248007830B9FEF725
:104C1000AFFF00F087F900F00DFBD9E06D48007898
:104C2000012837D16B48807868B16F4890ED020A4F
:104C30006C4880ED000A6D48D0ED080AB0EE600ABD
:104C4000FBF7BEFD0FE06348C07860B1664890EDA9
:104C5000040A644880ED000A6448D0ED090AB0EE09
:104C6000600AFBF7ADFDB1EE480A614880ED000A2D
:104C7000604880ED008AB1EE480A584880ED000A8D
:104C8000574880ED008A012000F0C2FF0220514900
:104C900008709DE04F48007802287CD14D4880780C
:104CA00050B1514890ED020A5348D0ED000A30EE61
:104CB000600A4F4880ED000A4648C07850B14A4823
:104CC00090ED040A4C48D0ED000A30EE600A4948E5
:104CD00080ED000A464890ED000ADFED480AB4EE88
:104CE000E00AF1EE10FA08DD90ED000ADFED440A6B
:104CF00030EE600A80ED000A11E03D4890ED000AB8
:104D0000DFED400AB4EEE00AF1EE10FA07D290EDC2
:104D1000000ADFED3B0A30EE200A80ED000A35483C
:104D200090ED000ADFED350AB4EEE00AF1EE10FA7C
:104D300008DD90ED000ADFED320A30EE600A80ED0A
:104D4000000A11E02B4890ED000ADFED2E0AB4EEC8
:104D5000E00AF1EE10FA07D290ED000ADFED280A22
:104D600030EE200A80ED000A214890ED000AFBEEAB
:104D7000040AB4EEE00AF1EE10FA08D290ED000A4F
:104D8000DFED210AB4EEE00AF1EE10FA14DC194866
:104D900090ED000A00E01BE0F3EE040AB4EEE00A36
:104DA000F1EE10FA0BDD90ED000ADFED180AB4EE1B
:104DB000E00AF1EE10FA02D2012006490870054817
:104DC000807828B90348C07810B9002001490870DC
:104DD00010BD0000CE430020000000009400002021
:104DE000980000209C000020804300209843002071
:104DF0008C00002090000020A80000200000344318
:104E00000000B443000034C3000020C3000020436E
:104E100010B52DED0A8B3A48B0F9000010F5257F4A
:104E200032DB3748B0F90000B0F5257F2CDC34497F
:104E3000B1F9000002F06CFC41EC1C0B9FED310B52
:104E400053EC102B02F00CFB41EC1B0B9FED2F0BD6
:104E500053EC102B02F074FC41EC190B2D48006848
:104E600002F02EFF41EC1A0B53EC192B02F03EFE20
:104E700041EC180B02F01AFA26490860084690ED3A
:104E8000000A254880ED000A1D48B0F9040010F51D
:104E9000257F32DB1A48B0F90400B0F5257F2CDC01
:104EA0001749B1F9040002F033FC41EC1C0B9FEDF3
:104EB000150B53EC102B02F0D3FA41EC1B0B9FEDBA
:104EC000130B53EC102B02F03BFC41EC190B134875
:104ED000006802F0F5FE41EC1A0B53EC192B02F0BE
:104EE00005FE41EC180B02F0E1F90C490860084698
:104EF00090ED000A0A4880ED000ABDEC0A8B10BD57
:104F0000E44400200000000000A0844000000000F5
:104F10000000E03F940000208C000020980000205A
:104F20009000002010B52DED048B6C48007901280D
:104F300031D16B48006802F0C3FE41EC190B9FEDC4
:104F4000690B53EC102B02F0D1FD41EC180B02F071
:104F5000ADF963490860084690ED000AFBEE040ACB
:104F6000B4EEE00AF1EE10FA4AD802205B4908716B
:104F70005B48006802F0A4FE41EC190B9FED590B51
:104F800053EC102B02F0C4F941EC180B02F08EF92F
:104F90005349086034E051480079022830D1504824
:104FA000006802F08DFE41EC190B9FED4E0B53ECA7
:104FB000102B02F0ADF941EC180B02F077F94849DB
:104FC0000860084690ED000ADFED480AB4EEE00AFA
:104FD000F1EE10FA14DB01204049087140480068E6
:104FE00002F06EFE41EC190B9FED3E0B53EC102BC3
:104FF00002F07CFD41EC180B02F058F938490860CA
:1050000036484079012831D13948006802F058FE0D
:1050100041EC190B9FED330B53EC102B02F078F998
:1050200041EC180B02F042F931490860084690ED56
:10503000000AF3EE040AB4EEE00AF1EE10FA4ADBDD
:105040000220264948712A48006802F039FE41ECE6
:10505000190B9FED240B53EC102B02F047FD41EC94
:10506000180B02F023F92249086034E01B4840790C
:10507000022830D11E48006802F022FE41EC190BD4
:105080009FED180B53EC102B02F030FD41EC180B88
:1050900002F00CF916490860084690ED000ADFEDB1
:1050A000150AB4EEE00AF1EE10FA14D801200B490B
:1050B00048710F48006802F003FE41EC190B9FEDA8
:1050C000090B53EC102B02F023F941EC180B02F002
:1050D000EDF807490860BDEC048B10BDCE430020FD
:1050E000940000200AD7A3703D0AB73F0000484350
:1050F00098000020000048C310B54248B0F858108E
:105100004FF6FF724048B0F90000FEF701FB3F4840
:1051100080ED000A3B48808801B23D48B0F90000AC
:1051200000F000FD3B4880ED000A3648008A01B2DD
:105130003948B0F9000000F0F5FC384880ED000A6D
:10514000344890ED000A3148D0ED000A30EE200AD4
:10515000334880ED000A314890ED000A2B48D0ED2D
:10516000000A30EE200A2F4880ED000A2C4890ED0E
:10517000000ADFED2D0AB4EEE00AF1EE10FA08DDC8
:1051800090ED000ADFED290A30EE600A80ED000A9A
:1051900011E0234890ED000ADFED250AB4EEE00AA5
:1051A000F1EE10FA07D290ED000ADFED200A30EEA2
:1051B000200A80ED000A1B4890ED000ADFED1A0A74
:1051C000B4EEE00AF1EE10FA08DD90ED000ADFED32
:1051D000170A30EE600A80ED000A11E0114890EDE8
:1051E000000ADFED130AB4EEE00AF1EE10FA07D27E
:1051F00090ED000ADFED0D0A30EE200A80ED000A86
:1052000010BD000084440020A4000020A80000205D
:10521000A0000020AC000020A2000020B000002070
:10522000B4000020B8000020000034430000B44364
:10523000000034C3354890ED000AFBEE040AB4EEDA
:10524000E00AF1EE10FA09D2BBEE040A80ED000A82
:1052500090ED000A2E4880ED000A20E02B4890EDEA
:10526000000ADFED2C0AB4EEE00AF1EE10FA16DDCA
:1052700090ED000ADFED280AB4EEE00AF1EE10FA34
:1052800003DD9FED250A80ED000A204890ED000A1D
:10529000DFED220A30EE600A1D4880ED000A20484A
:1052A00090ED000AF3EE040AB4EEE00AF1EE10FA13
:1052B00009DDB3EE040A80ED000A90ED000A1948FA
:1052C00080ED000A20E0164890ED000ADFED160A96
:1052D000B4EEE00AF1EE10FA16D290ED000ADFED1E
:1052E000130AB4EEE00AF1EE10FA03D29FED0F0AB2
:1052F00080ED000A0A4890ED000ADFED080A30EE62
:10530000200A084880ED000A704700009400002041
:105310008C00002000003443000048430000B443E8
:105320009800002090000020000034C3000048C313
:1053300010B51148D0ED000A104890ED000A104851
:1053400000F0CCFD0F48D0ED000A30EEC00A80ED31
:10535000000A0D48D0ED000A0C4890ED000A0848FC
:10536000343000F0ADFE0748D0ED010A30EEC00A3F
:1053700080ED010A10BD0000AC0000208C00002070
:10538000244A002004440020B000002090000020A7
:10539000174890ED000AFBEE040AB4EEE00AF1EEC5
:1053A00010FA0CD290ED000ADFED120AB4EEE00A1A
:1053B000F1EE10FA03DD9FED100A80ED000A0F48B0
:1053C00090ED000AF3EE040AB4EEE00AF1EE10FAF2
:1053D0000CDD90ED000ADFED0A0AB4EEE00AF1EE12
:1053E00010FA03D29FED040A80ED000A7047000016
:1053F0008C000020000020C300000000900000206E
:10540000000020434FF4FA6000F002FC012015492F
:10541000A1F85400B1F8541008B2FEF797FCFFF75A
:1054200007FB0A2000F0F4FB00BFFFF7B5FBFFF716
:1054300063FEFFF7C3FBFFF7ABFFFFF779FF00F059
:1054400013F8FFF7B9FAFFF777FA064AB2F95610E0
:10545000B2F8542010B2FBF7D1F8012000F0D8FBCD
:10546000E3E700008444002010B51948B0F90600B5
:1054700001EE100AB8EEC11AF0EE410A154890ED9F
:10548000001AB0EE410A144800F002FCBDEEC00A5A
:1054900010EE100A00B20E4948800846B0F912001A
:1054A00001EE100AB8EEC11AF0EE410A094890ED7B
:1054B000011AB0EE410A0848343000F0E9FBBDEEB5
:1054C000C00A10EE100A01B20148C18110BD0000EF
:1054D00084440020044400208448002003B4019840
:1054E0004100009850EAC12018BF04204A0D18BF9F
:1054F00040F0010040F2FF72B2EB515F08BF40F094
:105500000200012808BF052002B070470248006869
:10551000C0F30220704700000CED00E010B5002839
:1055200004DB0A07130E054A135406E00A07140E9B
:10553000034A00F00F031B1FD45410BD00E400E029
:1055400018ED00E00000000070B5C1482DED020B21
:105550002DED0E8B82B0119D25F000449FEDBEDB3A
:105560009FEDBFEB84423EDBA4F140511098A1F1C6
:105570007F6108430FD0BC48844202DC28D11098D8
:1055800030B39DED100B02B0BDEC0E8B02B0BDE848
:10559000704000F00FBA9DED100B53EC1D2B51EC39
:1055A000100B02F0CDF89DED100B41EC180B53ECF5
:1055B0001E2B51EC100B02F0C3F853EC182B01F02A
:1055C000A7FE41EC100B02B0BDEC0E8B02B070BD1B
:1055D0000120FAF79FFF02B0BDEC0E8B02B0BDE8D0
:1055E000704000F0F1B9A1489FEDA18B844256DADA
:1055F0009DED100BB4F1795F0ADA51EC100BFFF757
:105600006DFF042808BF00F0EFF99DED100BDAE7FD
:1056100053EC102B51EC100B02F092F841EC190BEB
:1056200095480621B0EE490AF0EE690A784400F088
:1056300045F953EC192B51EC100B02F081F841ECB9
:105640001A0B8E48B0EE490AF0EE690A042178443C
:1056500000F034F953EC192B51EC100B02F070F8F8
:1056600053EC182B01F054FE41EC100B51EC1A0BCB
:1056700053EC102B01F0F4FECDE900019DED000B81
:1056800053EC102B9DED100B51EC100B02F058F861
:105690009DED101B53EC112B01F03AFED2E09DED75
:1056A000100B51EC100B00F007FA53EC182B02F022
:1056B00045F99FED730BCDE9000153EC102B9DEDE7
:1056C000000B51EC100B02F03BF841EC190B6E484B
:1056D0000621B0EE490AF0EE690A784400F0EEF8CF
:1056E00053EC192B51EC100B02F02AF841EC1B0B78
:1056F0006648B0EE490AF0EE690A0421784400F0E9
:10570000DDF853EC192B51EC100B02F019F853ECA7
:10571000182B01F0FDFD41EC1C0B51EC190B01F0B5
:1057200040F941EC180B5A489FED5BABA04222DCDC
:1057300053EC1C2B51EC1B0B01F092FECDE9000148
:105740009DED000B51EC180B53EC102B01F0F8FF02
:1057500053EC182B01F0DCFD53EC1A2B01F0F0FF99
:1057600053EC1D2B02F0C2F953EC1E2B02F0E6F8AD
:1057700041EC100B5FE08DED008B002000909DED63
:10578000000B51EC180B53EC102B01F0C1FD9DEDFB
:10579000000B41EC1E0B53EC102B51EC100B01F0E5
:1057A000CFFF53EC192B02F0C9F853EC1E2B01F07C
:1057B00057FE41EC190B53EC1C2B51EC1B0B01F069
:1057C0004FFE41EC1B0B53EC1A2B51EC190B01F063
:1057D000B7FF53EC1D2B02F0B1F841EC190B53EC61
:1057E0001A2B51EC180B01F0ABFF53EC1B2B01F003
:1057F000A7FF53EC192B02F079F99DED000B41EC5A
:10580000180B53EC1A2B51EC100B01F099FF9FED84
:10581000249B53EC192B02F091F841EC100B51EC46
:10582000180B53EC102B02F061F953EC192B02F01A
:1058300085F841EC100B002D3FF7C5AE51EC100B75
:1058400001F028FD41EC100BBDE600000000000057
:105850000000F03F00000000075C143326A6913CD6
:10586000182D4454FB21F93F0000F07F0000E03F79
:10587000000000000000F03F18280000262800006B
:10588000000000000000E03F6A27000078270000C9
:105890003333EF3F00000000000000000000004034
:1058A000182D4454FB21E93F2DED020B019820F007
:1058B000004001909DED000B02B0704770B50446AA
:1058C0002DED028B4D1E00EBC500B0EE408AF0EED0
:1058D000608A90ED000B35F0060017D053EC182BC2
:1058E00051EC100B01F02CFF41EC100B6D1E04EB82
:1058F000C50090ED001B51EC100B53EC112B01F087
:1059000007FD41EC100B35F00600E7D1022D36D033
:10591000042D1CD0062D1CBFBDEC028B70BD53ECBA
:10592000182B51EC100B01F00BFF94ED0A1B53ECFC
:10593000112B01F0EDFC53EC182B01F001FF94ED5D
:10594000081B53EC112B01F0E3FC41EC100B53EC62
:10595000182B51EC100B01F0F3FE94ED061B53ECE9
:10596000112B01F0D5FC53EC182B01F0E9FE94ED5E
:10597000040B53EC102B01F0CBFC41EC100B53EC5F
:10598000182B51EC100B01F0DBFE94ED021B53ECD5
:10599000112B01F0BDFC53EC182B01F0D1FE94ED5E
:1059A000001B53EC112B01F0B3FCBDEC028B41EC5E
:1059B000100B70BD10B553EC102B51EC100B01F017
:1059C000A7FC41EC100B10BD9FED050B10B553EC7F
:1059D000102B51EC100B01F043FD41EC100B10BDEE
:1059E00000000000000000009FED050B10B553EC17
:1059F000102B51EC100B01F0A3FE41EC100B10BD6D
:105A0000000000000000001010B58AB0044600201D
:105A100005900690012007900020009001900290D0
:105A200003900490012008900E20099069462046BA
:105A3000FBF7C2FA0448FBF7EEFF02210248FBF72E
:105A4000FBF90AB010BD00002803002010B58AB091
:105A500004460E20059000200690012007900020AB
:105A600000900190029003900490012008900E2075
:105A7000099069462046FBF79FFA0448FBF7CBFFE5
:105A800002210248FBF7D8F90AB010BD50030020EC
:105A900030B587B004460D46019500200390049070
:105AA000082005900123224601A90248FBF7D9F9F5
:105AB00007B030BD2803002082B0CDE9000121F0FD
:105AC000004001909DED000B02B051EC100B7047AF
:105AD000FCF72CFBFEF7CCF9FDF750FFFDF7CCFEF1
