:020000040800F2
:10000000E0530020290300081B480008513C000869
:1000100099470008E5090008615700080000000042
:10002000000000000000000000000000690200085D
:10003000B912000800000000C5020008994C000831
:100040004303000843030008430300084303000878
:100050004303000843030008BB12000843030008E1
:100060004303000843030008C112000843030008CB
:10007000010F0008430300080D0F000843030008A8
:100080004303000843030008430300083D0A000837
:10009000250A0008310A000843030008C7120008B7
:1000A0004303000843030008430300084303000818
:1000B00043030008694D0008430300084303000898
:1000C000430300084303000843030008654B00088E
:1000D000430300089D53000843030008B55300087C
:1000E00043030008430300084303000843030008D8
:1000F00043030008430300084303000843030008C8
:1001000043030008430300084303000843030008B7
:1001100043030008430300084303000843030008A7
:1001200043030008190F0008250F0008390F0008C5
:10013000430300084303000843030008910A000832
:10014000850A00084303000843030008430300082E
:10015000450F0008510F00085D0F00089955000871
:100160004303000843030008430300084303000857
:100170004303000843030008430300080000000095
:10018000430300084303000800F002F800F05CF8A5
:100190000AA090E8000C82448344AAF10107DA45E2
:1001A00001D100F051F8AFF2090EBAE80F0013F0D8
:1001B000010F18BFFB1A43F001031847B4B6000043
:1001C000D4B600000A444FF0000C10F8013B13F0C5
:1001D000070408BF10F8014B1D1108BF10F8015BA0
:1001E000641E05D010F8016B641E01F8016BF9D193
:1001F00013F0080F1EBF10F8014BAD1C0C1B09D1EA
:100200006D1E58BF01F801CBFAD505E014F8016B5B
:1002100001F8016B6D1EF9D59142D6D370470000ED
:100220000023002400250026103A28BF78C1FBD8FF
:10023000520728BF30C148BF0B6070471FB50AF096
:1002400072FF1FBD10B510BD00F0D8F91146FFF7C1
:10025000F5FF08F07FFB00F0F6F903B4FFF7F2FFBB
:1002600003BC00F0F9F900002C4B19680868B0E8ED
:10027000F04F80F30988BFF36F8F4FF0000080F3D9
:10028000118870470000000008480068006880F38B
:1002900008884FF0000080F3148862B661B6BFF39F
:1002A0004F8FBFF36F8F00DF00BF00BF08ED00E08E
:1002B000DFF80C00016841F470010160704700BF75
:1002C00088ED00E0EFF30980BFF36F8F134B1A68DE
:1002D0001EF0100F08BF20ED108A20E9F04F1060CB
:1002E00009B44FF0500080F31188BFF34F8FBFF374
:1002F0006F8F09F075FE4FF0000080F3118809BC84
:1003000019680868B0E8F04F1EF0100F08BFB0EC95
:10031000108A80F30988BFF36F8F70472400002094
:10032000EFF30580704700000948804709480047FF
:10033000FEE7FEE7FEE7FEE7FEE7FEE7FEE7FEE795
:10034000FEE7FEE704480549054A064B70470000F2
:10035000594D000889010008E04D0020E0530020BD
:10036000E04F0020E04F002053EA020C00F06980CB
:100370002DE9F04B4FF00006002B1FBFB3FA83F5B9
:1003800003FA05F424FA05F65E4012BF1643B2FAEA
:1003900082F502FA05F4C5F120051EBF22FA05FC1C
:1003A00044EA0C04203556EA044C4FEA144418BFC2
:1003B000641C4FF000084FF00009904271EB030CF1
:1003C00039D3002919BFB1FA81F701FA07F6B0FA5B
:1003D00080F700FA07F6C7F120071EBF20FA07FCD6
:1003E00046EA0C062037B6FBF4FCA7EB0507103FE6
:1003F00007F01F0BCBF120060CFA0BFB2CFA06F6CC
:1004000044BFB3460026202FA4BF5E464FF0000B2A
:100410005BEA060C08BF4FF0010B19EB0B09ABFBB5
:10042000027C48EB0608C01B06FB02CC0BFB03CC8E
:1004300071EB0C01C1E70B46024641464846BDE858
:10044000F08B13B54FF000004FF00001AFF30080C8
:10045000BDE81C40704710B5431C02E010F8011BBA
:1004600071B18107FAD14FF0013202C88C1A8C4366
:1004700014EAC211F9D0C01A0A0603D0C01E10BD7A
:10048000C01A10BD0A0401D0801E10BD0902FCD0A4
:10049000401E10BD032A40F2308010F0030C00F023
:1004A000158011F8013BBCF1020F624498BF11F8AE
:1004B00001CB00F8013B38BF11F8013BA2F1040267
:1004C00098BF00F801CB38BF00F8013B11F00303DF
:1004D00000F02580083AC0F0088051F8043B083A43
:1004E00051F804CBA0E80810F5E7121D5CBF51F8E5
:1004F000043B40F8043BAFF30080D20724BF11F85F
:10050000013B11F801CB48BF11F8012B24BF00F8C3
:10051000013B00F801CB48BF00F8012B704710B534
:10052000203AC0F00B80B1E81850203AA0E81850EB
:10053000B1E81850A0E81850BFF4F5AF5FEA027CAC
:1005400024BFB1E81850A0E8185044BF18C918C01B
:10055000BDE810405FEA827C24BF51F8043B40F8BC
:10056000043B08BF7047D20728BF31F8023B48BFA1
:1005700011F8012B28BF20F8023B48BF00F8012BDF
:1005800070474FF0000200B5134694469646203956
:1005900022BFA0E80C50A0E80C50B1F12001BFF43C
:1005A000F7AF090728BFA0E80C5048BF0CC05DF8A2
:1005B00004EB890028BF40F8042B08BF704748BFF0
:1005C00020F8022B11F0804F18BF00F8012B704764
:1005D00070477047704710B500F008F8006810BD0C
:1005E00010B5044600F002F8046010BD00487047E2
:1005F0007C4D0020004870477C4D00207546FFF779
:10060000F9FFAE4605006946534620F007008546CF
:1006100018B020B5FFF796FEBDE820404FF0000669
:100620004FF000074FF000084FF0000B21F00701DA
:10063000AC46ACE8C009ACE8C009ACE8C009ACE81D
:10064000C0098D46704710B50446AFF300802046C0
:10065000BDE81040FFF701BE01491820ABBEFEE720
:100660002600020070470000B7EE000A80ED000A85
:100670009FED040A80ED010A80ED020A80ED030A75
:10068000704700000000000001221021014801F025
:1006900025BE00000000024000221021014801F0A8
:1006A0001DBE0000000002407047000001221146FC
:1006B000014801F013BE00000004024000220121A5
:1006C000014801F00BBE00000004024030B5437841
:1006D00004781B021BB2234300EE103A1B4CB8EE09
:1006E000C00AD4ED010A20EE200A81ED000AC37889
:1006F00085781B021BB22B4300EE103AD4ED010AA1
:10070000B8EEC00A20EE200A81ED010A437904798F
:100710001B021BB2234300EE103AB8EEC00A20EED3
:10072000200ADFED0B0A81ED020A017AC379090480
:10073000807941EA0321014300EE101AB8EE400A25
:1007400020EE200A82ED000A30BD00007C0100206E
:1007500000401C42704708F03DBA07F0DFBE0000C1
:1007600010B542780378120212B21A4300EE102A32
:10077000124BB8EEC00AD3ED020A20EE200A81ED3A
:10078000000AC2788478120212B2224300EE102AC4
:10079000D3ED020AB8EEC00A20EE200A81ED010A6C
:1007A00042790079120212B2024300EE102AB8EE2A
:1007B000C00A20EE200A81ED020A10BD7C01002053
:1007C00010B5FFF771FFFFF7C5FF06F0EBFF08B1AB
:1007D000802402E006F052FF044607F0BBF910B196
:1007E00044F0400010BD07F047F9204310BD000061
:1007F0002DE9FC410746002016460D460090019069
:10080000FFF74AFF922000F0BDF806226946122049
:1008100000F09AF8FFF738FF9DF801009DF80010EE
:10082000000200B2084300EE100A464CB8EEC00ABF
:10083000D4ED010A20EE200A85ED000A9DF80300A0
:100840009DF80210000200B2084300EE100AD4ED39
:10085000010AB8EEC00A20EE200A85ED010A9DF8D3
:1008600005009DF80410000200B2084300EE100AD3
:10087000B8EEC00A20EE200A85ED020AFFF71EFF3F
:1008800008226946002000F05FF8FFF70FFF9DF88F
:1008900000000F2830D19DF803009DF802100002DF
:1008A00000B2084300EE100AD4ED020AB8EEC00A06
:1008B00020EE200A87ED000A9DF805009DF804103F
:1008C000000200B2084300EE100AD4ED020AB8EEAE
:1008D000C00A20EE200A87ED010A9DF807009DF866
:1008E0000610000200B2084300EE100AB8EEC00A7B
:1008F00020EE200A87ED020AFFF7CEFEA22000F0CC
:1009000041F802226946222000F01EF8FFF7BCFEE3
:100910009DF800009DF80110C00040EA5110B0F5AC
:10092000806F01DBA0F5006000EE100AB4EE001A43
:10093000F8EEC00AB3EE070A00EE810A86ED000A5F
:10094000BDE8FC817C01002070B514460D4640F0E6
:10095000800000F017F806E0552000F013F8641E40
:1009600005F8010BE4B2002CF6D170BD10B50C46B1
:1009700040F0800000F006F8552000F003F82070E9
:1009800010BD000001B582B04FF47A7000900123D1
:1009900001AA02A9024802F0ABFA9DF804000EBDBC
:1009A000BC05002002784078D20042EA5010B0F531
:1009B000806F01DBA0F5006000EE100AB4EE001AB3
:1009C000F8EEC00AB3EE070A00EE810A81ED000AD4
:1009D000704710B50C46FFF7D5FF2046BDE8104024
:1009E000FFF7D0BFFEE7000000B58BB0002001216B
:1009F000CDE90601059000900190029003900490CB
:100A00000E20CDE908106946054800F0BBFD022123
:100A1000034800F037FD024801F026F90BB000BD95
:100A200018050020014800F0A8BE000018050020AD
:100A3000014800F0A2BE000018050020014800F0A7
:100A40009CBE00001805002000B58BB001220E21CD
:100A500000200792CDE9051003900490CDE908210C
:100A60000090019002906946054800F08BFD02213C
:100A7000034800F007FD024801F0F6F80BB000BD96
:100A800040050020014800F078BE0000400500202D
:100A9000014800F072BE00004005002000F0E6F9B9
:100AA0001B4840F2A6611B4C018041F6D361418096
:100AB00041F21E61818040F66561174DC18000BF23
:100AC00004F082FEA07A032802D002280BD018E09E
:100AD000E07A032815D1208910B108F0B9FC10E0A4
:100AE00008F0A8FF0DE0E07A012802D0022803D028
:100AF00007E007F0F5F804E02879012805D008F0B0
:100B00004BFD022008F066F8DAE707F0AFFFF8E7E0
:100B10006C01002060470020D848002070B5C14C0F
:100B2000C1492DED088BB0EE409AF0EE609A94ED3D
:100B3000000A84ED020AD1F81900E060B1F817103C
:100B400000EE101AB8EE400A84ED040A9FEDB70AD1
:100B5000B749B84D84ED050A04F15806884208DD0E
:100B6000BDEC088B30464FF48051BDE8704003F077
:100B700015BEB6F90600B5F91A10401A09F005FFBE
:100B800041EC100B05F048FAB6F90400B5F9121063
:100B9000B0EE408AF0EE608A401A09F0F6FE41ECB1
:100BA000100B05F039FAB6F90200B5F90A10B0EEEB
:100BB00040BAF0EE60BA401A09F0E7FE41EC100BC3
:100BC00005F02AFAB0EE401AF0EE601AB6F900000D
:100BD000B5F90210B0EE41AAF0EE61AA401A09F090
:100BE000D4FE41EC100B05F017FA53EC1A2B51EC24
:100BF000100B09F04BFC53EC1B2B09F047FC53EC9A
:100C0000182B09F043FC41EC100B84ED0E0B9FED0B
:100C10008A1B53EC112B09F04DFE36D0B6F90000BB
:100C2000B5F90210401A09F0B0FE94ED0E8B53ECAA
:100C3000182B09F0E7FCC4E90601B6F90200B5F982
:100C40000A10401A09F0A1FE53EC182B09F0DAFC47
:100C5000C4E90801B6F90400B5F91210401A09F008
:100C600094FE53EC182B09F0CDFCC4E90A01B6F947
:100C70000600B5F91A10401A09F087FE53EC182B3C
:100C800009F0C0FCC4E90C0109E09FED6D1B84ED87
:100C9000061B84ED081B84ED0A1B84ED0C1B94EDF0
:100CA0000E0B53EC192B51EC100B09F0ABFC09F0B7
:100CB000BBFBF7EE000A2060B0F17E5F02DDC4ED01
:100CC000000A06E010F1814F03D9BFEE000A84ED5F
:100CD000000A94ED040A5C4910EE100A0844B0F5CD
:100CE000201F02D29FED590A34E010EE100A584935
:100CF0000844B0F5A01F02D29FED560A2AE010EE7C
:100D0000100A55490844B0F5E01F02D2B6EE000AB9
:100D100020E010EE100A51490844B0F5A00F02D2AD
:100D20009FED4F0A16E010EE100A4E490844B0F548
:100D3000000F02D2B5EE000A0CE010EE100A49498D
:100D40004942884209DAB5EEC00AF1EE10FA04DB36
:100D50009FED450A84ED010A01E0C4ED010A6068D7
:100D600005460AF06FF994ED050AD4ED000A41EC4E
:100D7000190B20EE208A18EE100A0AF063F994EDA0
:100D8000061B53EC112B09F067FE53EC192B09F0ED
:100D900063FE09F0CBFD308028460AF053F941ECA0
:100DA000190B18EE100A0AF04DF994ED081B53ECDC
:100DB000112B09F051FE53EC192B09F04DFE09F0EF
:100DC000B5FD708028460AF03DF941EC190B18EE8C
:100DD000100A0AF037F994ED0A1B53EC112B09F0B5
:100DE0003BFE53EC192B09F037FE09F09FFDB08054
:100DF00028460AF027F941EC190B18EE100A0AF000
:100E000021F994ED0C1B53EC112B09F025FE53EC4A
:100E1000192B09F021FE09F089FDF080BDEC088B4B
:100E200070BD0000000100204C4800200000004779
:100E30000000E1439848002000000000000000008E
:100E4000000000000000D03F0000E0BDCDCC4C3FD2
:100E50000000F4BD3333333F000010BE000060BE1D
:100E60009A99993E0000E0BECDCCCC3D2DE9F041F1
:100E70002148224E00242DED0A8BA6F5A077A6F17D
:100E8000A008D0ED00BA90ED01BAD0ED02AA90ED25
:100E9000039A90ED04AAD0ED059A90ED06CA90ED64
:100EA000078AD0ED088A00BF04EB840506EBC50075
:100EB000B0EE6A1AF0EE4B0AB0EE6B0A07F075FF5F
:100EC000B0EE691AF0EE4A0AB0EE490A07EBC50027
:100ED00007F06BFFB0EE681AF0EE480AB0EE4C0A6D
:100EE00008EBC50007F061FF641C042CDCDBBDECE3
:100EF0000A8BBDE8F0810000BCB50008E84B00207B
:100F0000014800F03FBF0000A8080020014800F0A1
:100F100039BF000008090020014800F033BF00007D
:100F20006809002010B504F061FBBDE810400148DD
:100F300000F028BF74060020014800F023BF000025
:100F400014060020014800F01DBF0000E807002043
:100F5000014800F017BF0000C8090020014800F058
:100F600011BF0000480800202DE9F04F85680024DB
:100F7000099E802D18D0894DC563894D456490F830
:100F80003450012D15D0012580F8345090F835509B
:100F9000012D10D0002180F834100224002180F8A7
:100FA00034102046BDE8F08F4FF480714165012078
:100FB000F8E70220F6E7022580F835500025456560
:100FC00005682F6847F480272F6005682B61036848
:100FD0005E608368402B03682AD099600168CA600C
:100FE000714D704E704FDFF8BC81DFF8B891DFF8BB
:100FF000B8A1DFF8B4B1EA14DFF8A8E10168183647
:1010000030379302A9F148090AF1600A0BF1180B75
:10101000AEF1300E4FF0006C41452DD9A94205D0FC
:10102000494503D0514501D0B14205D1202220E0ED
:101030009A600268D160D3E759451AD0714518D03B
:10104000594D7835A94214D0564D3035A94210D0AB
:10105000B9420BD0534A183A914207D0524A9032C3
:10106000914203D04F4A4832914201D11A4600E0E2
:1010700062464C494C392EE0DFF82C8108F1A80873
:1010800041452AD9A94205D0494503D0514501D04F
:10109000B14201D120221CE059451AD0714518D027
:1010A000414D7835A94214D03E4D3035A94210D07B
:1010B000B9420BD03B4A183A914207D03A4A903293
:1010C000914203D0374A4832914201D11A4600E09A
:1010D0006246344950390A605AE0DFF8CC8008F1A2
:1010E000480841452AD9A94205D0494503D0514570
:1010F00001D0B14201D120221CE059451AD07145DE
:1011000018D0294D7835A94214D0264D3035A94242
:1011100010D0B9420BD0234A183A914207D0224A44
:101120009032914203D01F4A4832914201D11A466F
:1011300000E062461C491039CA6029E0A94205D086
:10114000494503D0514501D0B14201D120221CE0D4
:1011500059451AD0714518D0134D7835A94214D08D
:10116000104D3035A94210D0B9420BD00D4A183A73
:10117000914207D00C4A9032914203D0094A48323A
:10118000914201D11A4600E06246074910398A604F
:1011900001680A6842F001020A60FFE65185000812
:1011A0009D850008586402401060024001681823C1
:1011B000CAB2103AB2FBF3F2054B6FF30901032AEE
:1011C0009B5CC36500D9091D816508467047000016
:1011D0009CB2000810B5014600208B698A6A4FF066
:1011E000C07453B1B3F5005F15D072B1012A0CD0B1
:1011F000022A0AD0032A09D104E01AB1012A06D032
:10120000022A03D1C96AC90100D5012010BDC96AEB
:10121000A142FAD010BD002AF7D0012AF2D0022A4A
:10122000F3D0032AF3D010BD30B50468256825F447
:1012300080252560046863608368402B036803D0C1
:1012400099600068C26030BD9A600068C16030BDBE
:10125000094A016882B091420BD1084909680A68BD
:10126000D243D20605D40A684968009102B002F060
:10127000B9BC02B070470000001001401C070020FC
:1012800010B501680A68D20608D5C968C90605D52F
:1012900008F074FC02484168491C416010BD000020
:1012A000F400002001680A68D20604D5C968C9069E
:1012B00001D508F063BC70477047012000F00ABFF9
:1012C000102000F007BF202000F004BF72B6FEE738
:1012D000574D584C584E00BF95F82C00207095F88B
:1012E0002F00607095F82B00542100F00F00A070C3
:1012F000B5F82D00E070000A207168886071000A5E
:10130000A0714C4806F0D8FC012007F063FCE88887
:101310002070000A60702889A070000AE070688957
:101320002071000A6071688EA071000AE07161216D
:10133000404806F0C1FC012007F04CFCD5F8220023
:1013400000EE100ABDEEC00A10EE101A00EE100AF0
:101350002170BDEEC00A10EE101A00EE100A090A44
:10136000BDEEC00A617010EE101A00EE100A090CF2
:10137000BDEEC00AA170622110EE100A000EE070EE
:10138000B5F81D002071000A607195F82100A07168
:10139000284806F091FC012007F01CFCA889207069
:1013A000000A6070E889A070000AE070288A207145
:1013B000000A6071F078A07163211E4806F07CFC81
:1013C000012007F007FCD5F8270000EE100ABDEE5B
:1013D000C00A10EE101A00EE100A2170BDEEC00A0D
:1013E00010EE101A00EE100A090ABDEEC00A617074
:1013F00010EE101A00EE100A090CBDEEC00AA17022
:10140000642110EE100A000EE070B5F81F00207184
:10141000000A607195F82600A071064806F04CFCA1
:10142000012007F0D7FB012007F0D4FB54E70000B0
:101430004C48002074010020E800002010B558B18D
:10144000084C491E0BD310F8013B5340DBB234F873
:10145000133083EA1222F4E74FF6FF7010BD1046F6
:1014600010BD0000BCB3000810B5054C04E000BF7F
:1014700010F8013B5340E25C491EF9D2104610BD02
:10148000BCB2000890F82020012A07D0022A05D01B
:10149000416A41F48021416201207047006842693D
:1014A0000A43426100207047F0B590F8205004686C
:1014B000A468012D05D0022D03D0416A41F480219A
:1014C0005DE014F0406F01D1E50055D5C4F301642F
:1014D000022C03D9416A41F4000150E00125A540E6
:1014E0001D608D684FF4C0739DB1CE6835434E6862
:1014F00045EAC605066803EB0417F5514FF4C275BB
:10150000076805EB04150E697E51097D012905D098
:1015100009E00E88CD6845EA4655EBE701684E596B
:1015200046F480764E511179D579567941EA0561B4
:1015300095792D0445EA062529434FF4C6760568BA
:1015400006EB0416A9511178D57841EA0561957822
:1015500052782D0445EA022211434FF4C475026803
:1015600005EB04155151006803EB0411425842F099
:10157000010242500020F0BD416A41F40011416275
:101580000120F0BD10B590F82020012A07D0022AD2
:1015900005D0416A41F480214162012010BD3B48E1
:1015A000D0F8002242F00102C0F80022D0F8002258
:1015B00022F47C52C0F80022D0F800224B6A42EAA2
:1015C0000322C0F800220A7D02F01F0301229A4084
:1015D000D0F81C329343C0F81C32CB69B3B9D0F8B1
:1015E0000C329343C0F80C328C894B6864F31F4370
:1015F0004C6900EBC404C4F840320C890B6864F3F6
:101600001F434C6900EBC404C4F84432CB69012B7E
:1016100016D1D0F80C321343C0F80C320C884B684A
:1016200064F31F434C6900EBC404C4F840320C89D6
:10163000CB6864F31F434C6900EBC404C4F8443224
:101640008B69002BD0F804320ED01343C0F804325B
:101650000B69002BD0F8143208D01343C0F81432B1
:10166000096A012904D008E09343EFE79343F5E7C3
:10167000D0F81C121143C0F81C12D0F8001221F04F
:101680000101C0F80012002010BD000000640040FD
:10169000704730B590F82040012C05D0022C03D0C3
:1016A000416A41F480215DE00468002955D0246935
:1016B000A40754D04FF4D874056804EB01142D59D5
:1016C00015F00405956005682D594ED0ED0855605C
:1016D00005682C5904F00204D4604FF4DA740568EC
:1016E00004EB01142D5905F00F05156105682D59FE
:1016F000C5F30725956105682C59240C54614FF4F6
:10170000DC72046802EB0112A4581C700468A4582F
:10171000240A5C700468A458240C9C700468A258C5
:10172000120EDA704FF4DE72046802EB0112A45854
:101730001C710468A458240A5C710468A458240C21
:101740009C710468A258120EDA71006881B10169B7
:1017500041F020010161002030BDE468A8E7416A42
:1017600041F400114162012030BD6D0D1560AFE7FD
:10177000C16841F02001C160EDE72DE9F05F054649
:10178000006800244669D0F804908768D0F80CB04F
:10179000D0F810A0D0F81880F10748D0F90714D07D
:1017A00001218160B80703D5284600F08AFA0CE0D1
:1017B000780702D54FF4006407E0380702D54FF4EC
:1017C000805402E0284600F07BFAF80516D5296817
:1017D0004FF480708860B80503D5284600F073FA8E
:1017E0000CE0780502D544F4005407E0380502D532
:1017F00044F4804402E0284600F064FAF80316D569
:1018000029684FF480308860B80303D5284600F07B
:101810005CFA0CE0780302D544F4004407E0380396
:1018200002D544F4803402E0284600F04DFA300737
:1018300007D55FEACB6004D52968102044F4007412
:10184000C86070074FF0080707D55FEA0B7004D532
:101850002868C760284600F0B1F9B00706D52868A7
:10186000C068800702D0284600F0AAF9700607D5A4
:101870005FEACA6004D52968102044F480640861D6
:10188000B00607D55FEA0A7004D5286807612846C4
:1018900000F0E6F9F00606D528680069800702D056
:1018A000284600F0DEF9B00308D55FEAC96005D527
:1018B000296810204860284600F0D4F9F00307D5C5
:1018C0005FEA097004D528684760284600F0FEF9F1
:1018D000300446D55FEA497040D5F00504D55FEA8B
:1018E000C87001D044F00104B00504D55FEA8870E7
:1018F00001D544F00204700504D55FEA487001D5B3
:1019000044F00404300529D518F0700F26D008F0F3
:101910007000402815D006DC102809D020280AD0F5
:10192000302816D10AE050280ED0602811D10EE0E0
:1019300044F008040DE044F010040AE044F02004F0
:1019400007E044F0400404E044F0800401E044F483
:1019500080742868816921F0700181612968042000
:101960004860002C05D0686A204368622846FFF76B
:101970008FFEBDE8F09F70B5040003D094F82000FE
:1019800010B104E0012070BD204600F081F820680D
:10199000016841F00101016000F0A6FC0546052642
:1019A00004E000F0A1FC401B0A2811D82068406820
:1019B000C007F6D02068016821F00201016000F044
:1019C00093FC05460BE000F08FFC401B0A2806D96B
:1019D000606A40F40030606284F82060D2E72068DA
:1019E00040688007EFD4207E0128206801683DD040
:1019F00021F080010160607E01282068016838D0F4
:101A000021F040010160A07E01282068016833D0E8
:101A100021F020010160E07E0128206801682ED0BD
:101A200041F010010160207F01282068016829D061
:101A300021F008010160607F01282068016824D03E
:101A400021F004010160D4E902010843D4E9041241
:101A5000114308436168491E08432168C86100209A
:101A60006062012084F82000002070BD41F08001F8
:101A7000C0E741F04001C5E741F02001CAE721F08D
:101A80001001CFE741F00801D4E741F00401D9E7A4
:101A9000F0B587B0044614216846FEF772FD424B4C
:101AA0004248DFF800E11968D4F800C03F4A032536
:101AB0000226092710300024491CF44532D1196050
:101AC000012907D1016841F000710160006800F050
:101AD00000700590106840F0080010601068CDE9B3
:101AE000005600F00800CDE9047069463048CDE9A1
:101AF000024500F0FBFA00220521132000F0A0FDB2
:101B0000132000F08FFD00220521142000F098FD25
:101B1000142000F087FD00220521152000F090FD23
:101B200015203AE0DFF88CE0F44538D1D0F800C059
:101B30004CF0806CC0F800C0D0F800C001290CF057
:101B4000806CCDF814C0196007D1016841F00071B4
:101B50000160006800F000700590106840F002001D
:101B60001060106802AB00F0020005906020CDE923
:101B7000000683E8B00069460F4800F0B7FA00227B
:101B800005213F2000F05CFD3F2000F04BFD0022CE
:101B90000521402000F054FD402000F043FD07B037
:101BA000F0BD00000064004010000020303802400A
:101BB000000C024000680040000402407047000032
:101BC00010B50446006823498AB088421BD107AB90
:101BD0006A4600212046FFF75CFD00981E49532805
:101BE00004D0512806D0522809D00CE0DDF81E00A0
:101BF000886508E09DF8200081F85C0003E0079804
:101C00000866089848661549206888421FD107ABC6
:101C10006A4600212046FFF73CFD0098A0F2012013
:101C2000072814D8BDF81C10C0B24ABA0A491831A6
:101C300021F83020BDF81E2001EBC00052BA4280CE
:101C4000BDF8201049BA81809DF82210C1800AB0E9
:101C500010BD000000640040804800200068004083
:101C6000704770477047000070B5044690F8200038
:101C7000012804D0606A40F40020606218E002206D
:101C800084F820002068016821F00101016000F063
:101C90002BFB05460EE000BF00F026FB401B0A2888
:101CA00008D9606A40F400306062052084F82000A2
:101CB000012070BD20684068C007EDD1606270BD32
:101CC00070477047704770477047704770472DE9FD
:101CD000F0410446876D00F007FB064694F8350096
:101CE0000025022806D08020606584F83450012049
:101CF000BDE8F0812068016821F0160101602068CC
:101D0000416921F080014161206C08B9A06C20B1CB
:101D10002068016821F0080101602068016821F055
:101D2000010101600CE000F0DFFA801B052807D9F3
:101D300020206065032084F8350084F83450D7E70C
:101D400020680068C007EED194F85C103F208840FE
:101D5000B860012084F8350084F834500020C7E7CB
:101D600090F83510022903D0802141650120704789
:101D7000052180F835100068016821F0010101603B
:101D8000002070472DE9F84304464FF00009CDF8D4
:101D9000009063484FF41651A56D0068B0FBF1F751
:101DA0002E6894F85C10082000FA01F131420FD03F
:101DB00021680A6852070BD50A6822F004020A60FB
:101DC00094F85C108840A860606D40F00100606588
:101DD00094F85C104FF0010808FA01F0304208D086
:101DE00021684969090604D5A860606D40F00200C9
:101DF000606594F85C1004208840304208D0216867
:101E00000968890704D5A860606D40F0040060652A
:101E100094F85C1010208840304218D0216809687E
:101E2000090714D5A86020680168490304D5006833
:101E3000000308D5A16C07E00168C90503D4016857
:101E400021F008010160216C09B12046884794F80F
:101E50005C1020208840304231D021680968C906D2
:101E60002DD5A86094F8350005282068016806D0B3
:101E7000490347D5006800031DD4616C1CE021F0C4
:101E8000160101602068416921F080014161206CE8
:101E900008B9A06C20B12068016821F00801016038
:101EA00094F85C103F208840A86084F8358084F85E
:101EB0003490216D1FE0E16B09B120468847606DC9
:101EC00000282BD0606DC00714D0052084F83500A1
:101ED0002068016821F0010101600098401C009019
:101EE000B84203D820680068C007F6D184F835806E
:101EF00084F83490E16C002910D001B02046BDE890
:101F0000F04308470168C905D5D4016821F01001E4
:101F1000016084F8358084F83490CCE7BDE8F8831C
:101F2000200000202DE9F041044600F0DDF90646CE
:101F30005CB1022084F83500002584F83450206814
:101F4000016821F0010101600DE00120BDE8F08190
:101F500000F0CAF9801B052805D920206065032000
:101F600084F83500F2E720680068C007F0D12268E5
:101F7000116820480140D4E901031843D4E903362D
:101F80003343184363691843A3691843E36918434B
:101F9000236A18430843616A042903D1D4E90B1367
:101FA00019430843106020684069666A20F0070101
:101FB00030460E43012704280CD1A06A0643E06A8C
:101FC00040B12046FFF706F920B14020606584F853
:101FD0003570BAE7206846612046FFF7E7F894F8C5
:101FE0005C203F2191408160656584F83570002058
:101FF000ACE700003F8010F02DE9F0410446866D0B
:1020000090F83400002501280DD0012084F8340018
:1020100094F835700020012F07D084F83400022591
:102020002846BDE8F0810220FBE7022784F83570DE
:1020300060652046FFF7F8F894F85C103F20884070
:10204000B0602068016841F016010160206C20B189
:102050002068016841F0080101602068016841F0D2
:1020600001010160DCE7000010B5184C102818D001
:1020700020281FD0012813D108F0F4F801280FD030
:1020800004F12001606A07F013FF206A002807D0DE
:102090000F494FF080500860BFF34F8FBFF36F8F31
:1020A00010BD607840F001006070A07840F0010041
:1020B000A07003E0207840F001002070E078002854
:1020C000EED0BDE8104006F065BB0000B401002072
:1020D00004ED00E0044910B50A68024202D008602D
:1020E000FFF7C2FF10BD0000143C01402DE9F84F7E
:1020F000DFF8BCA10022012503264FF00F090AF1E9
:10210000040BAAF1040E00BF0B6805FA02F4234089
:10211000A34270D10F7907F00307012F01D0022FDE
:1021200016D187684FEA420806FA08FC27EA0C072E
:10213000D1F80CC00CFA08FC4CEA070CC0F808C037
:102140004768A7430C79C4F3001494403C434460AF
:102150000C79E443A4070AD0C4684FEA420C06FA9B
:102160000CF7BC438F6807FA0CF72743C7600C795C
:1021700004F00304022C12D1D40800EB840CDCF828
:1021800020405707FF0E09FA07F824EA0804D1F89F
:10219000108008FA07F848EA0408CCF820800468A0
:1021A0004FEA420C06FA0CF7BC430F7907F003071D
:1021B00007FA0CF7274307604C6814F4403F70D0CF
:1021C0003C4C276847F480472760246822F00307C7
:1021D00004F480440094384C07EB040CDCF8084805
:1021E00097074FEA177809FA08F7BC43334FB8420C
:1021F00002D1002724E054E0314FB84201D1012739
:102200001EE0304FB84201D1022719E02E4FB842EC
:1022100001D1032714E02D4FB84201D104270FE06C
:102220002B4FB84201D105270AE02A4FB84201D10D
:10223000062705E0284FB84201D1072700E008270C
:1022400007FA08F72743CCF80878DAF80040574631
:10225000D1F804C09C435FEACC2C00D51C433C6001
:10226000DBF800405F46D1F804C09C435FEA8C2C49
:1022700000D51C433C60DEF800407746D1F804C02E
:102280009C435FEA8C3C00D51C433C60084F083FF0
:102290003C68D1F804C09C435FEACC3C00D51C43A9
:1022A0003C60521C102AFFF42FAFBDE8F88F0000ED
:1022B000083C014044380240003001400000024028
:1022C0000004024000080240000C024000100240DE
:1022D0000014024000180240001C02400AB1816153
:1022E00070470904FBE70000014880687047000060
:1022F0001400002070B5040025D094F83D0000259E
:1023000020B984F83C50204600F0B8F8242084F826
:102310003D002068016821F001010160206801682A
:1023200041F4004101602068016821F4004101602E
:1023300000F072FA4D4A6168914201D84C4900E0C0
:102340004C49884201D2012070BD4B492368B0FB43
:10235000F1F15E6826F03F060E435E6063689342CB
:1023600006D94FF4967359434FF47A73B1FBF3F1E6
:102370002368491C1E6A26F03F06314319626168D2
:10238000914210D84900401EB0FBF1F2521CC2F33A
:102390000B02042A01D2042022E0B0FBF1F0401C21
:1023A000C0F30B001CE0A268F2B301EBC10303EB26
:1023B0000116431EB3FBF6F35B1C43F480431B057D
:1023C00049D092B301EBC10202EB0111401EB0FBF8
:1023D000F1F0401CC0F30B0040F4804040F400409A
:1023E0002168CA694CF6FF739A431043C861D4E967
:1023F000071001432068026822F0C0021143016007
:10240000D4E9030101432068826848F2FF339A430C
:1024100011438160D4E9050108432168CA6822F0AC
:10242000FF021043C86001E00EE016E0206801687A
:1024300041F0010101602564202084F83D002563FE
:1024400084F83E50002070BD01EB4106431EB3FBF3
:10245000F6F35B1CB3E70120C2E701EB4101401E2C
:10246000B0FBF1F0401CC0F30B00B7E7A086010001
:1024700080841E0000093D0040420F00F0B587B087
:10248000044614216846FEF77CF81D4920688842FE
:1024900033D11C480024016841F004010160016847
:1024A00001F004010591016841F00101016000683B
:1024B000122500F0010005904FF40070CDE90005F1
:1024C00002AA0326042782E8D00069460E48FFF7D7
:1024D0000DFEB801CDE9000502AA694682E8D000E8
:1024E0000A48FFF703FE07481030016841F4000175
:1024F0000160006800F40000059007B0F0BD000026
:10250000005C0040303802400008024000000240F9
:1025100002488168027811448160704714000020ED
:102520000B4810B5016841F400710160016841F485
:1025300080610160016841F480710160032000F056
:102540009FF80F2000F006F800F050F8002010BDB2
:10255000003C024030B505461F4887B000240168A2
:1025600041F002010160006806A900F0020000903D
:1025700001A800F031F90498A8B100F04DF940002D
:102580001649174AB0FBF1F11648491E026040F2A5
:10259000E732C0E90324C0E90114846100F09BFD27
:1025A000040003D015E000F037F9E9E70D4800F02A
:1025B000D3FD04000DD11D2000F034F8102D07D2FA
:1025C000002229461D2000F03BF80748056000E086
:1025D000012407B0204630BD4038024040420F0081
:1025E00000040040280A0020180000200C4882B097
:1025F000016841F480410160006800F4804000906F
:102600000748001F016841F0805101600068002206
:1026100000F0805000900F21901E02B000F010B822
:1026200044380240002809DB00F01F0201219140DC
:102630004009800000F1E020C0F800117047000060
:10264000F0B40E4B1B680C46C3F30223C3F107051D
:10265000042D00D90425191D072901D2002300E00B
:10266000DB1E012606FA05F1491E214099409E40D5
:10267000761E16403143F0BC03F0FDB80CED00E0CF
:10268000064900F0070208684FF6FF03184040EAC9
:102690000220034A10430860704700000CED00E080
:1026A0000000FA052DE9F0470E46050065D0DFF879
:1026B0001481D8F80000F7B200F00700B04207D24A
:1026C00088F80070D8F8000000F00700B04254D13C
:1026D00028683D4C810712D5400703D5206840F497
:1026E000E05020602878000703D5206840F460405F
:1026F00020602068A96820F0F00008432060287856
:10270000C0072DD0304968680839012812D0022846
:1027100013D0032811D00968890700292DDA216810
:1027200021F0030101432160FFF7DEFD814641F204
:10273000883A0EE009688903EFE709688901ECE748
:10274000FFF7D2FDA0EB0901514502D90320BDE8F6
:10275000F0872068696800F00C00B0EB810FEFD1C2
:10276000D8F80010404601F00701B14207D90770C0
:10277000006800F00700B04201D00120E7E72878A8
:10278000400705D52068E96820F4E0500843206040
:102790002878000706D52068296920F4604040EABF
:1027A000C100206000F058F82168084AC1F3031105
:1027B000515CC8400649086006480068FFF7CAFE39
:1027C0000020C4E7003C024008380240A4B20008E0
:1027D00020000020180000200F2202600C4A13681D
:1027E00003F003034360136803F0F003836013688E
:1027F00003F4E053C36012684FF4E05303EAD202DB
:1028000002610448006800F007000860704700009B
:1028100008380240003C0240044805490068096845
:10282000044AC1F38221515CC84070472000002057
:1028300008380240B4B20008044805490068096835
:10284000044AC1F34231515CC84070472000002067
:1028500008380240B4B20008154810B5006810F0FE
:102860000C02144813D01449042A0FD0082A0ED1A0
:102870000F4C241F2268236802F03F025B0207D539
:102880002068C0F38810A0FB010106E0084610BDD7
:102890002168C1F38811A1FB00010023FDF764FD4D
:1028A0002168C1F30141491C4900B0FBF1F010BDA2
:1028B000083802400024F400001BB7002DE9F84F4F
:1028C00004006ED02078DFF84C93C007A9F104050E
:1028D0004AD009F104000168C1F38101012908D03F
:1028E0000068C0F3810002280AD1D9F80000400234
:1028F00006D52868800337D560680028E1D033E02A
:102900006068B0F5803F10D0B0F5A02F286810D0D7
:1029100020F480302860286820F4802028606068D7
:10292000A8B1FFF7E1FC06460DE0286840F48030CE
:10293000F4E740F480202860F7E700BFFFF7D4FCFD
:10294000801B642873D828688003F7D50CE0FFF754
:10295000CBFC064605E000BFFFF7C6FC801B6428E1
:10296000F0D828688003F7D42078DFF8AC8280079D
:102970004FF0000A3ED5A748001D016811F00C0F6A
:1029800008D00068C0F3810002280BD1D9F80000FC
:10299000400207D42868800716D5E068012800D1D6
:1029A00012E033E1E068B8B10120C8F80000FFF799
:1029B0009BFC064605E000BFFFF796FC801B022843
:1029C000C0D828688007F7D52868216920F0F8006A
:1029D00040EAC10028600DE0C8F800A0FFF784FCC1
:1029E000064604E0FFF780FC801B02281FD82868F9
:1029F0008007F7D42078000722D5864F8748616981
:102A0000703771B101210160FFF76EFC064604E0EA
:102A1000FFF76AFC801B022809D838688007F7D5C1
:102A20000EE0C0F800A0FFF75FFC064605E082E07C
:102A3000FFF75AFC801B02287DD838688007F7D43E
:102A40002078400768D5DFF8CCB100270BF13C0BAC
:102A5000DBF80000C0000BD4DBF8001041F080511F
:102A6000CBF80010DBF80000012700F08050009048
:102A70006B4E3068C00510D4306840F48070306010
:102A8000FFF732FC009005E0FFF72EFC0099401A9A
:102A9000022850D83068C005F6D55E4EA0686C3666
:102AA00001280FD00528306810D020F001003060D8
:102AB000306820F004003060A068B8B1FFF714FC63
:102AC00000900FE0306840F00100F4E740F00400AF
:102AD0003060F7E7FFF708FC0099411A41F28830AF
:102AE000814266D830688007F4D50EE0FFF7FCFB22
:102AF000009007E0FFF7F8FB0099411A41F2883097
:102B0000814256D830688007F4D42FB1DBF800102A
:102B100021F08051CBF80010A069C8B33D49091DD0
:102B20000968C1F3810102294AD00228504607D022
:102B3000C8F8600000E03CE0FFF7D6FB04463BE04D
:102B40004746C8F86000FFF7CFFB064605E000BF28
:102B5000FFF7CAFB801B02282BD828688001F7D416
:102B6000D4E907010843A16A2E4A490802EB014152
:102B7000626A41EA8211084394F82C1040EA01612C
:102B8000C9F8001001203866FFF7AEFB044606E0E6
:102B90003EE000BFFFF7A8FB001B022809D8286809
:102BA0008001F7D534E000BFFFF79EFB001B022831
:102BB00002D90320BDE8F88F28688001F4D427E00B
:102BC0000128F7D0D9F80000E26900F480019142B1
:102BD0001CD1226A00F03F01914217D147F6C07123
:102BE000626A0140B1EB821F10D1A26A4FF0FF333D
:102BF00000F4403103EB5202B1EB024F06D194F8DE
:102C00002C1000F07060B0EB016F01D00120D1E713
:102C10000020CFE70438024000004742800E4742C0
:102C2000007000400000FFFF7047000038B50168E9
:102C300004464A688868C043430606D5C30704D1E2
:102C4000D3435B0601D4216C05E0830708D4D3434A
:102C50001B0605D4616C01B02046BDE83040084732
:102C6000830603D5430601D5C30551D4D3439B0640
:102C70004ED443060AD494F85130032B49D0636DE7
:102C800043F004036365CB688B680093830609D423
:102C9000636D43F0010363658B6800930B6823F059
:102CA00040030B60C00506D4606D40F0080060650D
:102CB000206880680090606D002829D020684168F5
:102CC00021F0E0014160012084F85100900701D417
:102CD000D00722D02068416821F003014160114DE6
:102CE000E06C40B10565E06CFFF73AF818B1606D33
:102CF00040F040006065A06C002809D00565A06C1C
:102D0000FFF72EF8002803D0606D40F040006065AA
:102D100038BDC8688868009038BD2046FFF784FF3A
:102D200038BD0000714B000870B5040009D0606A1E
:102D3000002540B125616561A56294F8510040B15C
:102D40000CE0012070BD6068B0F5827FF4D0E561D1
:102D5000F2E784F85050204600F044F8022084F84E
:102D600051002068016821F040010160A08821899C
:102D700000F4827001F404410843A18901F4006168
:102D80000843217C01F002010843217D01F001018B
:102D90000843218B01F400710843217F01F03801C1
:102DA000084394F8201001F080010843218D01F4BC
:102DB0000051084321680860A069042101EA10401D
:102DC00094F8241001F0100108432168486020683D
:102DD000C16921F40061C1616565012084F8510079
:102DE000002070BD2DE9F04387B0064614216846E7
:102DF000FDF7C7FB38493068884269D1374800255C
:102E0000016841F480510160006800F48050059031
:102E100032481438016841F002010160016801F094
:102E200002010591016841F001010160006802247E
:102E300000F001000590182001274FF003084FF023
:102E400005098DE8910369462548FFF74FF9802071
:102E50008DE8910369462348FFF748F9234C22483F
:102E60004FF0C067E4E8020740204FF48068A4E810
:102E70002101C00244F81459A561C4E907501B4858
:102E80006562FFF74FF808B1FEF720FAB464A66355
:102E9000164C1548603418382060C4E90175C4E93F
:102EA000035865614FF44030A561C4E907502046DE
:102EB0006562FFF737F808B1FEF708FAF4640022FC
:102EC00005212320A663FFF7BBFB2320FFF7AAFB06
:102ED00007B0BDE8F08300000030014044380240F4
:102EE0000004024000000240586402401406002022
:102EF0002DE9F84F044690F8500000270A9E1D4621
:102F000092468B464FF0010901280ED0012084F82B
:102F10005000FFF7E9F9804694F8510061680128F4
:102F20000CD0B1F5827F07D102E00220BDE8F88F16
:102F3000A16809B9042801D00227C2E0BBF1000F43
:102F400027D0BAF1000F24D01DB394F85100042803
:102F500002D0052084F8510000206065C4F838A034
:102F6000E587A587C4F830B0E586A586206460644F
:102F700020680168490603D4016841F040010160FE
:102F8000E068B0F5006F606805D0E8B3012D46D069
:102F90007FE0012795E008B1012D39D1206B216830
:102FA0000088C860206B801C2063E08E401EE08695
:102FB0002EE02068816889070FD5E18E69B1B9F1EB
:102FC000010F0AD1216B0988C160206B801C20632E
:102FD000E08E401EE0864FF0000920688168C90736
:102FE0000CD0E18F51B1C068A16B0880A06B801C30
:102FF000A063E08F401EE0874FF00109FFF774F9EE
:10300000A0EB0800B04200E009E001D3701C50D1F1
:10301000E08E0028CDD1E08F0028CAD13FE0206BA0
:10302000216800780873206B401C2063E08E401EEE
:10303000E0862EE02068816889070FD5E18E69B1AE
:10304000B9F1010F0AD1216B09780173206B401C83
:103050002063E08E401EE0864FF000092068816802
:10306000C9070CD0E18F51B1C068A16B0870A06B8B
:10307000401CA063E08F401EE0874FF00109FFF77E
:1030800033F9A0EB0800B04202D3701C01D010E06D
:103090007EB1E08E0028CDD1E08F0028CAD1424613
:1030A0003146204601F06CFD28B1012720206065E3
:1030B00007E0032705E0A06818B92068C1688068A8
:1030C0000090012084F85100002084F85000384618
:1030D0002CE77047704710B5040003D094F83D000A
:1030E00010B107E0012010BD002084F83C0020460C
:1030F00000F01EF8022084F83D00211D206801F038
:1031000039FE012084F8460084F83E0084F83F0030
:1031100084F8400084F8410084F8420084F84300B9
:1031200084F8440084F8450084F83D00002010BD78
:1031300008B500680649884208D10648016841F48C
:1031400000310160006800F40030009008BD00000C
:10315000004401404438024090F83D10012901D05C
:1031600001207047022180F83D100168CA6842F0D2
:103170000102CA6000681149884214D0B0F1804F42
:1031800011D00F4988420ED00E4988420BD00E490B
:10319000884208D00D49884205D00D49884202D0A6
:1031A0000C49884204D1816801F00701062903D047
:1031B000016841F0010101600020704700000140FA
:1031C0000004004000080040000C004000040140E2
:1031D0000040014000180040704770B50446006888
:1031E00001694FF00005C943890715D4C168C94377
:1031F000890711D4E91E01610120207720688069C8
:103200008007204602D0FFF7E7FF04E000F0C2F895
:10321000204600F054F9257720680169C943490721
:1032200017D4C168C943490713D46FF00401016181
:10323000022020772068806910F4407F204602D069
:10324000FFF7CAFF04E000F0A5F8204600F037F9C8
:10325000257720680169C943090716D4C168C943A5
:10326000090712D46FF0080101610420207720685B
:10327000C0698007204602D0FFF7AEFF04E000F0EF
:1032800089F8204600F01BF9257720680169C943B9
:10329000C90617D4C168C943C90613D46FF0100119
:1032A0000161082020772068C06910F4407F204623
:1032B00002D0FFF791FF04E000F06CF8204600F028
:1032C000FEF8257720680169C943C90708D1C1689C
:1032D000C943C90704D1891E0161204600F054F991
:1032E00020680169C943090609D4C168C9430906B0
:1032F00005D46FF0800101612046FFF7EAFE2068E7
:103300000169C943490609D4C168C943490605D4BE
:103310006FF040010161204600F040F9206801692A
:10332000C94389060BD4C168C943890607D46FF025
:10333000200101612046BDE87040FFF7CBBE70BDA3
:1033400010B586B0044614216846FDF71AF90E49F7
:103350002068884215D10D48016841F020010160C4
:103360000068012100F0200005904020009002201C
:10337000CDE9010103900320049069460448FEF75B
:10338000B5FE06B010BD00000044014030380240D8
:1033900000140240704770B5044690F83C000026C7
:1033A0000D4601280FD0012084F83C006AB1042AA0
:1033B0001DD0082A2FD00C2A3FD00126002084F8E7
:1033C0003C00304670BD022070BD206801F044FD15
:1033D0002068816941F0080181612068816921F0DC
:1033E00004018161206881692A69114311E0206824
:1033F00001F062FD2068816941F40061816120680B
:10340000816921F480618161206881692A6941EACA
:1034100002218161D2E7206801F084FD2068C16942
:1034200041F00801C1612068C16921F00401C16156
:103430002068C1692A69114311E0206801F0A6FDE6
:103440002068C16941F40061C1612068C16921F44B
:103450008061C1612068C1692A6941EA0221C161B4
:10346000ACE710B5040003D094F83D0010B107E0BC
:10347000012010BD002084F83C00204600F01EF81A
:10348000022084F83D00211D206801F073FC01201A
:1034900084F8460084F83E0084F83F0084F8400039
:1034A00084F8410084F8420084F8430084F8440022
:1034B00084F8450084F83D00002010BD7047704737
:1034C00010B50446022249B104290ED0082913D0B0
:1034D00094F84100012816D0012010BD94F83E0058
:1034E0000128F9D184F83E200FE094F83F0001282C
:1034F000F2D184F83F2008E094F840000128EBD195
:1035000084F8402001E084F841200122206801F085
:1035100095FC16492068164A884201D0904203D192
:10352000436C43F4004343642068884213D0B0F1F5
:10353000804F10D00F4988420DD00F4988420AD0E1
:103540000E49884207D0904205D00D49884202D0EA
:103550000C49884204D1816801F00701062903D093
:10356000016841F001010160002010BD0000014030
:10357000000401400004004000080040000C00402E
:10358000004001400018004000680349884201D112
:10359000FEF7BEBF70470000000400407047704750
:1035A00010B504460068406994F83D10C0F3C0109F
:1035B000212911D180B12068143050E8001F21F07A
:1035C000800140E80012002AF5D1606B08B1FEF7D7
:1035D0007EFB204601F0A4FD2068406994F83E106F
:1035E000C0F38010222911D180B12068143050E836
:1035F000001F21F0400140E80012002AF5D1A06B25
:1036000008B1FEF764FB204601F063FD002010BD09
:1036100070470000F8B5016804460868CA684B693D
:1036200010F00F0F4FF0000559D003F0010602F41F
:103630009077374365D0C10705D0D10503D5216CFC
:1036400041F001012164410705D5D90703D0216C60
:1036500041F002012164810705D5D90703D0216C0F
:1036600041F004012164010707D502F02001314334
:1036700003D0216C41F008012164216C00293AD06B
:10368000800604D5900602D5204601F057FD20683B
:103690004069216CC0F38010090700D460B3204654
:1036A00001F017FD20684069400621D520681430DC
:1036B00050E8001F21F0400140E80012002AF5D137
:1036C000A06BA8B16C490165A06BFEF749FB00280F
:1036D00011D0A06B016D01B0BDE8F0400847830632
:1036E0000FD593060DD52046BDE8F84001F026BD64
:1036F0002046FFF78DFFF8BD2046FFF789FF2564C0
:10370000F8BD266B2023012E79D1C60677D5D606C3
:1037100075D50868486800904869400640D5A16B97
:10372000086840680004000CEAD0A28D8242E7D904
:10373000E085C869B0F5807F2DD020680C3050E856
:10374000001F21F4807140E80012002AF5D12068A2
:10375000143050E8001F21F0010140E80012002A57
:10376000F5D12068143050E8001F21F0400140E8F6
:103770000012002AF5D184F83E30256320680C3011
:1037800050E8001F21F0100140E80012002AF5D196
:10379000A06BFEF79CFAA08DE18D401A81B229E062
:1037A000A08DE18D401A81B2E08D0028A8D00029BB
:1037B000A6D020680C3050E8002F22F4907240E828
:1037C0000026002EF5D12068143050E8002F22F09A
:1037D000010240E80026002EF5D184F83E30256332
:1037E00020680C3050E8002F22F0100240E800233F
:1037F000002BF5D12046FFF7D2FEF8BDFFE7050606
:103800002BD5150629D594F83D002128F5D1A068BF
:10381000B0F5805F01D12069B0B1206A411C2162FE
:10382000216800784860E08C401E0004000CE084B1
:10383000E3D12068C16821F08001C1602068C168BF
:1038400041F04001C160D8E7206A0088C0F3080059
:103850004860206A801C2062E5E74006CDD550060E
:10386000CBD5CA68204622F04002CA6084F83D30B9
:1038700000F0EDF9C1E70000DD4F000870B504006D
:1038800004D094F83D00002510B106E0012070BD81
:1038900084F83C50204600F023F8242084F83D00B2
:1038A0002068C16821F40051C160204601F0A6FCE7
:1038B0002068016921F4904101612068416921F08B
:1038C0002A0141612068C16841F40051C16025644A
:1038D000202084F83D0084F83E00002070BD0000E8
:1038E0002DE9F04F87B0044614216846FCF749FEE5
:1038F000A648DFF894821438D4F800C0A34B022104
:1039000003224027002506154FF00709C44574D14E
:10391000D3F800C0AA464CF0100CC3F800C01B68D6
:1039200003F010030593036843F002030360036888
:1039300003F002030593036843F00103036000688A
:10394000884600F0010005908020CDE90008CDE90F
:10395000025293466946CDF810908D48FEF7C6FB9B
:103960007010CDE90008CDE9025B6946CDF81090F2
:103970008848FEF7BBFBDFF82492874948464FF0A2
:103980000068C9F80010C0E90185C0E90356C9F80C
:103990001450C9F81850C9F81C50C9F82050C9F87B
:1039A0002450FEF7BFFA08B1FDF790FC7B4DC4F838
:1039B000389079486035C9F838403030AF60C5E993
:1039C0000008C5E903A6C5F814A0C5F818A0C5F8F5
:1039D0001CA0C5F820A02846C5F824A0FEF7A2FA2E
:1039E00008B1FDF773FC6563002205212520AC6357
:1039F000FEF726FE252062E0FFE7DFF8A4814FF402
:103A0000807BC44560D1614BAA461B1FD3F800C020
:103A10004CF4802CC3F800C01B6803F4802305938A
:103A2000036843F004030360006800F0040005909D
:103A30004FF440608DE82300CDE9032969465948D9
:103A4000FEF754FBDFF85491574909F1C009484685
:103A50004FF00068C9F80010C0E90185C0E90356BD
:103A6000C9F81450C0E9065B4FF4403BC9E908B5FA
:103A7000FEF758FA08B1FDF729FC4C4DC4F8389010
:103A80004948C9F838403030AF60C5E90008C5E999
:103A900003A6C5F814A0C5F818A0C5E907AB2846C9
:103AA000C5F824A0FEF73EFA08B1FDF70FFC6563E8
:103AB000002205212720AC63FEF7C2FD2720FEF778
:103AC000B1FD07B0BDE8F08FDFF8E480C445F8D160
:103AD000D3F800C04CF0200CC3F800C01B6803F002
:103AE00020030593036843F040030360006800F07F
:103AF000400005904FF484408DE823000820CDE974
:103B0000032069462B48FEF7F1FADFF8A09022491E
:103B100009F16009603948464FF0206AC9F8001081
:103B2000C0E901A5C0E90356C9F81450C0E9065B15
:103B3000C9F82050B046C9F82450FEF7F3F908B18F
:103B4000FDF7C4FB194EC4F83890C036C9F83840A8
:103B5000C6E90275C6E90485B5610F48F5613562AD
:103B600018307562C6E9000A3046FEF7DBF908B185
:103B7000FDF7ACFB6663002205214720B463FEF726
:103B80005FFD47209BE700000010014044380240E1
:103B9000000402400000024088640240E807002060
:103BA0000048004000080240286002400809002048
:103BB000001401400018024090F83E30202B0ED136
:103BC00059B152B190F83C30012B08D0012380F854
:103BD0003C300023036301F097BB012070470220B3
:103BE0007047000010B500681349884222D113487D
:103BF000FFF7D6FC1148806B006840681049C0F19F
:103C0000800088700F480B7802789A420BD1427876
:103C100049788A4207D10C4950F82F2F0A60426830
:103C20004A6080688860BDE81040802205490348EA
:103C3000FFF7C2BF10BD0000001001401C070020AC
:103C4000CC000020440200207847002070477047D5
:103C5000FEE700002DE9F04100262DED048B44F62F
:103C6000206743E0254AA2F11005291D101DFCF72D
:103C7000BFFD686907F0E6F99FED218B53EC182B27
:103C800006F0EAFE05F1780441EC190B206807F014
:103C9000D9F953EC192B07F0EBF806F0C5FB2060BF
:103CA000A86907F0CFF953EC182B06F0D5FE41ECCC
:103CB000190B606807F0C6F953EC192B07F0D8F818
:103CC00006F0B2FB6060E86907F0BCF953EC182B12
:103CD00006F0C2FE41EC180BA06807F0B3F953ECF4
:103CE000182B07F0C5F806F09FFBA0603046761C45
:103CF000B842B7DBBDEC048BBDE8F081084D002075
:103D00002D431CEBE2360A3F08B5072000E0642093
:103D100004F060FFFCF754FD0028F8D1714A0092CE
:103D2000A2F11009101D09F104018346FCF760FDA2
:103D3000FFF790FF4A46A2F14001A1F10C0004F008
:103D4000D7FCDFED690A9FED690A694A002109F194
:103D5000300000F0F7FDA9F13402A2F10C0101F1ED
:103D60001800FCF781FCA9F14007A7F1180597EDB1
:103D7000000AA5F10C0685ED000AA5F1180886EDEC
:103D8000000A88ED000A97ED010A002085ED010A7E
:103D900086ED010A88ED010A97ED020A85ED020A17
:103DA00086ED020A88ED020A04F04AFF06F018FACE
:103DB000504C102160625048C161FEF7B5FF08B158
:103DC000FDF784FA4B4908223431A1F1080000F0D4
:103DD00051FE0120E0704FF0FF3A5146012005F0FE
:103DE0001BFF0128F9D12078400708D5207820F062
:103DF000040020703F4859463530FCF7B1FC60782C
:103E000040070BD5607820F004006070354A09F156
:103E100004011032A2F12A00FCF758FCA0784007F8
:103E20000CD5A07820F00400A070324800992A3008
:103E3000FCF7B8FD99ED040A04F030FD294A103A68
:103E4000A2F14001A1F10C0004F052FC96ED000A31
:103E5000DFED2A2A88ED000AD5ED000A9FED281A29
:103E6000C6ED000A60EEA21ADFED260A1D4840EEFC
:103E7000011A97ED000A5C3840EE201AC5ED001AD1
:103E800096ED013A88ED013A95ED010A86ED010AB9
:103E900020EE222A97ED010A03EE012A00EE202AE5
:103EA00085ED012A96ED023A88ED023A95ED020A77
:103EB00086ED020A60EE222A97ED020A43EE012AFD
:103EC00040EE202AC5ED022A90EC030A243000F0CF
:103ED00071FB044B203B1A1F111FA1F1100004F0CD
:103EE0008DFB7AE7084D00200080894500A08C45B5
:103EF000F4B50008B4010020BC0500205AF8F63FD4
:103F00005D896EBFD5A9183B2DE9F0410E460746E5
:103F10000025E6E0785DA5286FD1781904460521D3
:103F200001F03EFC002868D06078A17840EA0128C2
:103F300005EB08000930B042EBD8204608F1090132
:103F400001F010FC0028EED06079A17940EA012050
:103F5000B0F5017F76D01DDCB0F5827F4ED00EDC4F
:103F6000052835D004DC01281FD003282BD122E0FE
:103F7000A0F58070013832D0012824D136E0A0F5B8
:103F80008070053841D0FC2846D0FD284BD0FE2853
:103F900019D14FE0A0F205200A2814D2DFE800F082
:103FA0005960676E757C838A91980B208046024623
:103FB000E11D4F4805E02020804602464C48E11DA7
:103FC0000C30FCF767FA05EB08000930C5B288E051
:103FD0000D20804602464648E11D2C30F1E70420C2
:103FE000804602464248E11D3930EAE70420804617
:103FF00002463F48E11D3D30E3E770E00320804684
:1040000002463B48E11D4130DBE703208046024683
:104010003748E11D4430D4E70D208046024634483D
:10402000E11D4730CDE71020804602463048E11DB3
:104030005430C6E70C20804602462D48E11D64300E
:10404000BFE7FFE70620804602462948E11D7030A1
:10405000B7E70220804602462548E11D7630B0E7EA
:104060000120804602462248E11D7830A9E707205A
:10407000804602461E48E11D7930A2E706208046B0
:1040800002461B48E11D80309BE704208046024623
:104090001748E11D863094E7062080460246144802
:1040A000E11D8A308DE72820804602461048E11D38
:1040B000903086E70620804602460D48E11DB83064
:1040C0007FE70420804602460948E11DBE3078E7BC
:1040D0000120804602460648E11DC23071E76D1C92
:1040E000EDB2B542FFF416AFBDE8F04101F0D0BA31
:1040F000894700200F4810B50D4901600321416038
:1041000000214FF410228160C0E903124FF4001225
:104110004261017641768176C17601774177FDF77C
:104120002AFC002803D0BDE81040FDF7CFB810BD31
:1041300000640040180500200F4810B50D490160CB
:104140000321416000214FF410228160C0E9031275
:104150004FF400124261017641768176C176017793
:104160004177FDF708FC002803D0BDE81040FDF7BB
:10417000ADB810BD0068004040050020294808B5D2
:10418000016841F480010160016801F4800100913F
:10419000016841F4001101600068002200F4001081
:1041A000009005210C20FEF74BFA0C20FEF73AFA9E
:1041B000002205210E20FEF743FA0E20FEF732FA08
:1041C000002205213920FEF73BFA3920FEF72AFAB2
:1041D000002205213A20FEF733FA3A20FEF722FAB0
:1041E000002205213B20FEF72BFA3B20FEF71AFAAE
:1041F000002205214420FEF723FA4420FEF712FA9C
:10420000002205214520FEF71BFA4520FEF70AFA99
:10421000002205214620FEF713FABDE8084046209B
:10422000FEF700BA3038024010B59CB01C22164987
:104230006846FCF774F90021684604F0D7FC134C7B
:1042400011491C22E0601C3107A8FCF768F9002125
:1042500007A804F0CBFC0C4920601C2238310EA8C2
:10426000FCF75DF900210EA804F0C0FC064960606F
:104270001C22543115A8FCF752F9002115A804F0AE
:10428000B5FCA0601CB010BD2CB2000800000020DE
:104290002DE9F04F87B014216846FCF772F95948B0
:1042A0004FF0000B016841F002010160016801F06C
:1042B00002010591016841F040010160016801F0CF
:1042C00040010591016841F001010160016801F0C0
:1042D00001010591016841F008010160016801F0E8
:1042E00008010591016841F004010160016801F0D5
:1042F00004010591016841F080010160016801F04D
:1043000080010591016841F02001016000683E4F85
:1043100000F020000590012240213846FDF7DEFF25
:104320000122DFF8E880960231464046FDF7D6FFCD
:10433000DFF8DC90012210214846FDF7CFFFDFF8BF
:10434000D4A0012241F201015046FDF7C7FF01242C
:104350004020CDE900040294694638460394FDF7F5
:10436000C5FE09204FF48815CDE900056946029481
:104370003846FDF7BBFECDE90064CDE9024B694646
:104380004046FDF7B3FE1020CDE900040226CDE93A
:10439000024669464846FDF7A9FE3020CDE90005F2
:1043A000694602941C48FDF7A1FE2003CDE90004F4
:1043B0000294694650460394FDF798FECDE9024603
:1043C0000094694650460194FDF790FE06210022B4
:1043D0000846FEF735F90620FEF724F900220521EC
:1043E0000A20FEF72DF90A20FEF71CF9002205210C
:1043F0001720FEF725F91720FEF714F907B0BDE8DE
:10440000F08F00003038024000180240001C0240CB
:104410000000024000040240000802400D4810B5B0
:104420000B4901600C49416000214FF480428160DA
:10443000C0E9031241618161C1610162FDF75AFF68
:10444000002803D0BDE81040FCF740BF10BD0000BD
:10445000005C004068050020801A0600104810B576
:104460000E4901604FF48271416000210222816097
:10447000C0E9031201224261520282611022C0E9A6
:104480000721416281620A21C162FEF74DFC0028CA
:1044900003D0BDE81040FCF719BF10BD003001404B
:1044A000BC05002010B588B01C216846FCF769F8EF
:1044B000144813490024C0E900144FF6FF71C0E905
:1044C000024104618461FEF706FE08B1FCF7FEFEBE
:1044D0000C48FEF7C6FF08B1FCF7F8FE6020CDE9F6
:1044E000000402940022694606480494FEF753FF34
:1044F00008B1FCF7EBFE0348FEF722FF08B010BD41
:1045000000440140D40600200C4810B50A4901605F
:104510004FF4E1314160002181600C22C160C0E9AB
:1045200004128161C161FFF7A9F9002803D0BDE839
:104530001040FCF7CBBE10BD001001401C0700204E
:104540000C4810B50A4901600B49416000218160A7
:104550000C22C160C0E904128161C161FFF78EF9CC
:10456000002803D0BDE81040FCF7B0BE10BD00002D
:104570000048004060070020A08601000C4810B5EC
:104580000A4901604FF4E1314160002181600C2251
:10459000C160C0E904128161C161FFF76FF90028B1
:1045A00003D0BDE81040FCF791BE10BD00140140DF
:1045B000A4070020F5EEC01AB0EE413AF0EE603AE2
:1045C000B0EE404AF1EE10FA00B5024609D1B5EE60
:1045D000C02AF1EE10FA04D1F5EEC02AF1EE10FA7D
:1045E00078D021EEA10A02EE020A02EEA20A04F03D
:1045F00093F921EE805A62EE004A92ED011AD2ED53
:10460000030A22EE800AD2ED002A21EE202AD2ED02
:10461000021A22EE811A5C4802EEE12A01EEA01A8B
:10462000F6EE001A52EEA21A40EEA01A60EE020A4E
:1046300064EEA12A45EE610A40EE412A25EE010A08
:1046400090ED041A04EEC20AB5EEC01AF1EE10FAAB
:104650002CDD90ED041AD0ED051A21EE222A9FEDF3
:104660004B1A42EE011AC0ED051AD0ED041A21EEE4
:10467000A02AD0ED061A42EE011AC0ED061AD0EDBE
:10468000041A21EE802AD0ED071A42EE011AC0ED7D
:10469000071A90ED051A34EE014A90ED061A73EEF2
:1046A000813A90ED071A33EE013A07E09FED381A90
:1046B00080ED051A80ED061A80ED071A90ED031AB9
:1046C00001EE224A90ED031A41EE203AD0ED030AA2
:1046D00000EE803A9FED2F0AD2ED021A24EE002A56
:1046E00063EE802A23EE001A92EC020A92ED033A5E
:1046F00060EEC23A41EEE23A43EE413A73EE804A4E
:1047000060EE023AC2ED004A41EE813A43EE623A6F
:1047100033EEA04A60EE223A20EE010A82ED014A11
:1047200040EEC13A00EEA20A43EE023A01EEC20A9E
:1047300073EEA13A70EE030A24EEA40AC2ED023A27
:10474000C2ED030A04EE040A03EEA30A00EEA00A77
:1047500004F0E2F8D2ED000A60EE800AC2ED000A31
:10476000D2ED010A60EE800AC2ED010AD2ED020A22
:1047700060EE800AC2ED020AD2ED030A20EE800A42
:1047800082ED030A00BD0000B40100206F12833ADD
:10479000000000006F12033AFEE7000070B5044607
:1047A00000202DED028B02464FEA010534F910106E
:1047B000002934F9101000DC494209B2914200DDB1
:1047C0000A46401CC0B20428F0D3AA4222DD10469B
:1047D00006F0DBF841EC180B284606F0D6F853EC4F
:1047E000182B05F00FFF05F01FFE00EE100A002049
:1047F00034F9101000EE901AF8EEE00A60EE800A2C
:10480000FDEEE00A10EE901A24F81010401CC0B221
:104810000428EDD3BDEC028B70BDFEE7A0B1D0ED56
:10482000101AC0ED111A90ED0F1A80ED101AC0ED9C
:10483000060A80ED070A30EEC00A80ED0F0A017803
:1048400029B101293BD078E09FED3D0A7047D0EDBA
:10485000010A60EE801AC0ED091AD0ED0A0A90ED47
:10486000022A42EE000A30EE410AC0ED0A0A90ED3B
:104870000D2A80ED0E2A90ED0C2A80ED0D2A80ED98
:104880000C0A90ED031A21EE001A80ED0B1A90ED40
:10489000050AF4EEC00AF1EE10FA09DCB1EE400AA6
:1048A000F4EEC00AF1EE10FA02D390ED0A0A01E02C
:1048B00080ED0A0A31EE800A30EE010A2BE070EE3C
:1048C000410A90ED012A20EE822A80ED092AD0EDDE
:1048D000020A60EE800AC0ED0A0AD0ED0D2A72EEDF
:1048E000200AC0ED0E2AD0ED0C2AC0ED0D2AF0EE04
:1048F000002A01EE620A30EE210A80ED0C0A90EDEA
:10490000031A21EE000A80ED0B0A30EE800AD0ED8A
:10491000080A30EE200A80ED080AD0ED040AB4EE51
:10492000E00AF1EE10FA06DCF1EE600AB4EEE00AFD
:10493000F1EE10FA01D2C0ED080A90ED080A7047B6
:1049400000000000002828D0002A26D0017092ED37
:10495000001A80ED011A92ED011A80ED021A92ED13
:10496000021A80ED031A80ED040A9FED0C0AC0EDD7
:10497000050A80ED0E0A80ED0D0A80ED0C0A80ED2F
:10498000080A80ED0B0A80ED0A0A80ED090A80ED25
:10499000110A80ED100A80ED0F0A70470000000038
:1049A0002DE9F74F8E462F490868036823F001036D
:1049B00003602D4803681C6824F001041C600B6828
:1049C0001C68E407F7D103E01C6824F001041C60B4
:1049D00003681C68E407F7D1244F254DDFF88CC02D
:1049E0004C3FDFF88CB00C68DFF88490B83D4FF492
:1049F0000016A7F1040AABF1600B644501D93E60D3
:104A000009E04C4502D9CAF8006004E05C4501D9D0
:104A1000EE6000E0AE60D0F800804FF00066E04548
:104A200001D93E6009E04B4502D9CAF8006004E0B4
:104A30005B4501D9EE6000E0AE60C4F80CE00468AC
:104A4000009BE3600B685A6003685A6009680A6853
:104A500042F001020A600068016841F00101016052
:104A6000BDE8FE8F74060020140600205864024042
:104A7000B86002402DE9F04F8346344803685C6813
:104A800044F002045C6003685C6844F001045C600C
:104A90000068036843F0400303602D4803681C6806
:104AA00024F001041C6003681C68E407F7D1294E58
:104AB000294C284D4C3EDFF8A0A0274FB83C4FF4BE
:104AC000001CA6F10409AAF1600AAB4202D9C6F89B
:104AD00000C00BE0BB4202D9C9F800C006E0534554
:104AE00002D9C4F80CC001E0C4F808C0DFF86CC0FB
:104AF000C3F808C00368D96001684A6000680168AB
:104B000041F010010160164801680B6823F00103B1
:104B10000B6001680B68DB07F7D14FF00063A94217
:104B200001D9336009E0B94202D9C9F8003004E084
:104B3000514501D9E36000E0A360C1F808C00368F3
:104B4000C3F80CB000684260BDE8F08FBC050020DF
:104B50007406002058640240B86002400C300140E6
:104B6000140600200148FEF761B80000BC050020D3
:104B700010B5806B0021C187C186FEF755F810BDC6
:104B800038B504461248134B0068B0FBF3F04FF4FD
:104B90007A73584300906068B0F5827F0DD10B4660
:104BA000009200228021204600F016F870B1606D5E
:104BB00040F020006065032038BD009830B1401EF1
:104BC000009020688068C0430006F6D5002038BDFC
:104BD0002000002000366E012DE9F8431E46914664
:104BE00088460446089DFDF77FFB401B351AFDF7FC
:104BF0007BFB074625480068C0F3CB30684338E0AC
:104C0000701C37D0FDF770FBC01BA84203D215B152
:104C1000009860B32CE02068416821F0E001416019
:104C20006068B0F5827F0BD1A068B0F5004F02D06C
:104C3000B0F5806F04D12068016821F04001016067
:104C4000A06AB0F5005F09D12068016821F4005125
:104C500001602068016841F400510160012084F87E
:104C60005100002084F850000320BDE8F88300259F
:104C7000401E00902068816838EA010004D00021BD
:104C80004945BDD10020F0E70121F9E720000020CF
:104C9000012003F09FFFFBE710B5502080F311883F
:104CA000BFF34F8FBFF36F8F05F0EAFA18B10449D5
:104CB0004FF080500860002080F3118810BD000084
:104CC00004ED00E030B593B030216846FBF759FCA5
:104CD00014210CA8FBF755FC1D480025016841F084
:104CE00080510160006800F08050119019480168FF
:104CF00041F4804101600068022400F4804011907A
:104D000001200090000401908001CDE906400620BA
:104D10000890A820CDE9090404200B906846FDF70F
:104D2000CDFD08B172B6FEE70CA90F2081E8310075
:104D30004FF4A0500F904FF48050109005210CA814
:104D4000FDF7B0FC002801D072B6FEE713B030BD0D
:104D500040380240007000400248016841F4700190
:104D60000160704788ED00E00148FEF736BA0000A8
:104D7000280A0020F0B50268254C264D264E274F04
:104D8000274B4FF0804CA04209D0604507D0A84285
:104D900005D0B04203D0B84201D0984204D122F0ED
:104DA000700E4A6842EA0E02A0421BD0604519D03C
:104DB000A84217D0B04215D0B84213D0984211D0B3
:104DC000184DA8420ED0184DA8420BD0174DA8423E
:104DD00008D0174DA84205D0164DA84202D0164D56
:104DE000A84203D122F44075CA682A434D6922F0D3
:104DF00080022A4302608A68C2620A688262A04214
:104E000001D0984201D10969016301214161F0BDDE
:104E1000000001400004004000080040000C004079
:104E200000040140004001400044014000480140AE
:104E300000180040001C00400020004010B501F0A8
:104E40001F030121046A99408C430462016A9A405D
:104E50001143016210BD0000F0B5026A22F00102A8
:104E60000262036A42688469124E24F073050C687A
:104E70002C4323F002058B682B430D4DA84201D033
:104E8000B04205D123F00807CB683B4323F004036D
:104E9000A84201D0B04205D14D6922F440721543B9
:104EA0008A692A4342608461496841630362F0BDB4
:104EB0000000014000040140F0B5026A22F0100237
:104EC0000262026A436884690D6824F4E64444EA95
:104ED00005248D6822F0200242EA05120F4D104E83
:104EE000A84201D0B04206D1CF6822F0800242EA47
:104EF000071222F04002A84201D0B04207D14D690A
:104F000023F4406343EA85038D6943EA85034360E4
:104F10008461496881630262F0BD000000000140C5
:104F200000040140F0B5026A22F480720262026A53
:104F30004368C46922F4007224F073050C68124EB1
:104F40002C438D6842EA05220E4DA84201D0B042A2
:104F500006D1CF6822F4006242EA072222F480627E
:104F6000A84201D0B04207D14D6923F4405343EA2F
:104F700005138D6943EA05134360C4614968C16341
:104F80000262F0BD000001400004014030B5026A39
:104F900022F480520262046A4268C3690D6823F4F5
:104FA000E64343EA05238D6824F4005444EA0534BB
:104FB000084DA84202D0084DA84204D14D6922F400
:104FC000804242EA85124260C3614968016404621A
:104FD00030BD0000000001400004014010B5806BAE
:104FE0000021C185C184FEF713FB10BD70B5846B31
:104FF0002068406994F83D10C0F3C01000252129B5
:1050000004D118B1E584204600F08AF82068406990
:1050100094F83E10C0F38010222904D118B1E58520
:10502000204600F056F8206C40F010002064204626
:10503000FEF7EEFA70BD10B50146806B096809688D
:10504000C9052FD40021C18501680C3151E8002F1A
:1050500022F4807241E80023002BF5D1016814315D
:1050600051E8002F22F0010241E80023002BF5D186
:105070000168143151E8002F22F0400241E800237A
:10508000002BF5D1202180F83E10016B012909D1B8
:1050900001680C3151E8002F22F0100241E8002392
:1050A000002BF5D1016B012902D0FEF79BFD10BD4D
:1050B000818DFEF774FA10BD10B5806B016B01296C
:1050C00002D0FEF7C3FD10BD818D4908FEF767FAD7
:1050D00010BD01680C3151E8002F22F4907241E8B4
:1050E0000023002BF5D10168143151E8002F22F084
:1050F000010241E80023002BF5D1016B012909D100
:1051000001680C3151E8002F22F0100241E8002321
:10511000002BF5D1202180F83E100021016370475B
:1051200001680C3151E8002F22F0C00241E8002351
:10513000002BF5D1202180F83D10704708B590F87C
:105140003E10222901D0022008BD82684FF480530E
:105150009A4201D1016921B1816A9A421BD04AB1B8
:105160000AE00268816A5268C2F308020A80816A12
:10517000891C08E0026972B10268526802F07F027D
:105180000A70816A491C8162C18D491E0904090C9B
:10519000C18503D019E002685268F1E70168CA6866
:1051A00022F02002CA600168CA6822F48072CA60D4
:1051B00001684A6922F001024A61202180F83E100C
:1051C000016B012903D0FEF70DFD002008BD002171
:1051D000016301680C3151E8002F22F0100241E810
:1051E0000023002BF5D101680A68D20602D50A68AF
:1051F00049680091818DFEF7D2F9E6E770B5044663
:1052000000680169E26821F440511143016121699C
:10521000A068E26908436169114308432168CA68CC
:1052200049F20C639A430243CA6020684169A2694B
:1052300021F440711143416131492068884202D014
:105240003049884202D1FDF7F7FA01E0FDF7E4FAB0
:10525000E2690023192164253226B2F5004F626805
:1052600028D0A0FB0101930F9200FBF77DF80146C7
:10527000B0FBF5F06FF01802504301EB800006EB35
:105280000010B0FBF5F000F0F002B1FBF5F002EB1E
:105290000012B1FBF5F06FF01803584301EB8000EA
:1052A00006EB0010B0FBF5F000F00F002168104491
:1052B000886070BDA0FB010192185B41FBF754F8B8
:1052C0000146B0FBF5F00201B1FBF5F06FF01803F9
:1052D000584301EB800006EBC000B0FBF5F000F096
:1052E000F80002EB4002B1FBF5F0584301EB8000FF
:1052F00006EBC000B0FBF5F000F00700D6E70000B9
:10530000001001400014014038B5816282850025FB
:10531000134604460564222084F83E00A26B1C4814
:10532000D063A26B1B481064A26B1B48D064A06BB7
:105330000A4605652168A06B091DFCF75DFE206823
:1053400001684068009084F83C50206948B12068AA
:105350000C3050E8001F41F4807140E80012002A30
:10536000F5D12068143050E8001F41F0010140E8F9
:105370000012002AF5D12068143050E8001F41F0D7
:10538000400140E80012002AF5D1002038BD00009D
:1053900037500008B9500008ED4F000810B5044818
:1053A000FEF738F9BDE810400148FBF751BF000097
:1053B0001C07002010B50448FBF762FFBDE8104051
:1053C0000148FEF727B90000600700200C4808B527
:1053D00001680A684A680092CA6842F01002CA600E
:1053E00001684A6942F040024A6112210091016855
:1053F000044B806BA3F11802091DFBF7B5FD08BD36
:1054000060070020904A002070B505460088604C77
:10541000C0F30A0323806878A978C00840EA4110E5
:10542000C0F30A026280A878E978800940EA810026
:105430002979A3F5806340EA8120C0F30A06A6809B
:1054400028796979400840EAC110C0F30A00E08079
:105450006979A2F58062C1F30111A1726979A6F59B
:1054600080668909E172E988A1812989E1816989D8
:105470002182297BA174697BE174E989A182298A4F
:1054800023806280A680A0F58060E080A1F5806125
:10549000404A21810020C10772D0411E01EBD17129
:1054A00021F00101095D1154401C0828F3DB302173
:1054B000384802F001FC218936480A0A0830027097
:1054C000417002216218127A4254491C0429F9DB06
:1054D000A18A0A0A027141712E483121083002F076
:1054E000EBFB2C48A18910300A0A02704170E18957
:1054F0000A0A8270C170218A0A0A02714171A17C74
:105500008171E17CC171322102F0D6FB2148A97B77
:10551000223801F00102428001F00202828001F093
:105520000402C28001F00802028101F040024281BF
:1055300001F08002828101F01002C28101F020019D
:105540000182A17C0170E17C4170A18A01F480722A
:10555000428201F40072828201F48062C28201F40C
:105560000062028301F48052428301F4005282837C
:1055700001F48042C28301F40041018470BDFFE761
:1055800000EBD07121F0010121440988090A8AE762
:1055900060470020AE00002010B50448FBF782FEF3
:1055A000BDE810400148FEF735B80000A407002010
:1055B0000C4808B501680A684A680092CA6842F057
:1055C0001002CA6001684A6942F040024A61C8217B
:1055D00000910168044B806BA3F1C802091DFBF721
:1055E000C3FC08BDA4070020B049002070B52348C3
:1055F0000068800240D521494FF0F460083108600E
:105600001F4C207880070CD5207820F002002070F5
:10561000207840F004002070012211461948FCF760
:105620005DFE6078184D80070CD5607820F0020090
:105630006070607840F004006070012210212846FC
:10564000FCF74CFEA07880070CD5A07820F0020073
:10565000A070A07840F00400A0700122102128461C
:10566000FCF73CFE03F096F82078400704D5074885
:10567000016841F00101016070BD0000006402405A
:10568000B40100200004024000000240103C014030
:1056900030B5314901F1C80091F84C30437091F8B0
:1056A0004D200270B1F86120A0F81720D1F85D20DC
:1056B000C0F81920B1F86320A0F81D20B1F86520CA
:1056C000A0F81F2091F87F400A46847592F8805018
:1056D000D2F88120012C02D0022C05D008E080F8FD
:1056E0002150C0F8222003E080F82650C0F827207F
:1056F00091F87D2090F82B4062F30304120962F3C5
:10570000071480F82B404A79144C120980F82C2099
:10571000CA88A0F82D20D1F83E2022606260072BB5
:1057200002D06B2B09D011E0012280F82F20B1F8B4
:105730001B204280B1F81F2007E0022280F82F20B2
:10574000B1F82B204280B1F82F20428691F8451005
:1057500080F8311030BD000084470020E4000020B4
:10576000FEE7000030B50C46050014D0022C12D91B
:105770000A48A11E02882846FBF760FE2919C2B21A
:1057800011F8023C9A4206D111F8011CB1EB102F1E
:1057900001D1012030BD002030BD0000E00000201C
:1057A00030B50C4605000CD0022C0AD9FF22611E30
:1057B000FBF75AFE291911F8011C814201D1012081
:1057C00030BD002030BD00000E4810B590ED000A3D
:1057D000DFED0D0A0D4C30EEC00A10EE100A05F098
:1057E00031FC9FED0B1B53EC112B05F035F99FEDB0
:1057F0000A1B53EC112B04F005FF04F015FE20608A
:1058000010BD0000D848002000003443680100208B
:105810004AD8124DFB21094000000000008066407C
:1058200003B401984100009850EAC12018BF042039
:105830004A0D18BF40F0010040F2FF72B2EB515F19
:1058400008BF40F00200012808BF052002B07047E1
:105850004100080218BF04200A0E18BF40F00100E2
:105860004FF07F4232EA010108BF40F002000128F8
:1058700008BF052070470907090E002804DB00F166
:10588000E02080F80014704700F00F0000F1E020E5
:1058900080F8141D7047000010B54FF00E402DED3C
:1058A000028BB0EE408A18EE104A00EB4400B0F1D3
:1058B000506F4AD84FF0FC40B0EB440F22D2B0EE0C
:1058C000C80AF7EE000A30EEC00AF6EE000A60EEF3
:1058D000208A18EE900A03F030FF01EE100A14F04F
:1058E000004F1DBFDFED2D0A9FED2D0AB1EE411ACD
:1058F000DFED2C0A08BF9FED2C0AF8EE001A21EE0E
:10590000218A05E0DFED290A68EE088AB0EE600A18
:105910009FED271ADFED271A30EE080A48EE811AAC
:105920009FED251A08EEA11ADFED241A48EE811A20
:105930009FED231A08EEA11A68EE281ABDEC028B1F
:1059400001EE810A30EE200A10BD4FF0E440B0EBCA
:10595000440F0CD918EE100AFFF77AFF042808BF8D
:1059600001F084FEB0EE480ABDEC028B10BD4FF092
:105970007F40B0EB440F07D2B0EE480ABDEC028B7B
:10598000BDE8104001F064BE0120FAF729FEBDEC2D
:10599000028BBDE8104001F061BE00000000C9BFED
:1059A00022AAFDB90000C93F22AAFD39000000006B
:1059B00024FE1C3DC78AD83C1E67383D1B93993D89
:1059C000AFAA2A3E0000000070B59B482DED020BE7
:1059D0002DED068B079D25F00044A04218DC97486A
:1059E000844202DC0AD1069840B19DED060BBDEC65
:1059F000068B02B0BDE8704001F0E6BD002DCCBFC3
:105A00009FED8F0B9FED900BBDEC068B02B070BD30
:105A10008F48A04215DD8F48A042D8BF4FF0FF3419
:105A200058DD9DED060B51EC100BFFF7F9FE042835
:105A300008BF01F0FDFD9DED060BBDEC068B02B02D
:105A400070BD9DED060B51EC100B02F0CBFDCDE9C6
:105A5000060181489FED828BA0423CDD8248A04236
:105A60001FDD00249FED82AB9DED060B53EC1A2B3E
:105A700051EC100B04F00AFD9DED060B41EC190BE7
:105A800053EC1A2B51EC100B04F0E6FF53EC182BDF
:105A900005F0EEF953EC192B04F0B4FDCDE9060145
:105AA00049E09DED060B012453EC182B51EC100B33
:105AB00004F0ECFC9DED060B41EC190B53EC182B9C
:105AC00051EC100B05F0D4F953EC192B04F09AFDAE
:105AD000CDE906012FE06848A0421FDD02249FEDBA
