:020000040800F2
:1000000010540020290300082D470008753A000805
:1000100029470008C5090008C15700080000000072
:10002000000000000000000000000000690200085D
:10003000830C000800000000C5020008854E00087F
:100040004303000843030008430300084303000878
:100050004303000843030008850C0008430300081D
:1000600043030008430300088F0C00084303000803
:10007000510A000843030008610A0008430300080E
:100080004303000843030008430300084303000838
:10009000C90900084303000843030008990C00083D
:1000A0004303000843030008430300084303000818
:1000B00043030008814F000843030008430300087E
:1000C00043030008430300084303000843030008F8
:1000D00043030008695600084303000879560008E6
:1000E00043030008430300084303000843030008D8
:1000F00043030008430300084303000843030008C8
:1001000043030008430300084303000843030008B7
:1001100043030008430300084303000843030008A7
:1001200043030008710A0008810A0008650B0008F3
:10013000430300084303000843030008E9090008DB
:10014000D9090008430300084303000843030008DB
:10015000750B0008850B0008950B0008B1570008C7
:100160004303000843030008430300084303000857
:100170004303000843030008430300080000000095
:10018000430300084303000800F002F800F05CF8A5
:100190000AA090E8000C82448344AAF10107DA45E2
:1001A00001D100F051F8AFF2090EBAE80F0013F0D8
:1001B000010F18BFFB1A43F001031847D88B00004A
:1001C000F88B00000A444FF0000C10F8013B13F0CC
:1001D000070408BF10F8014B1D1108BF10F8015BA0
:1001E000641E05D010F8016B641E01F8016BF9D193
:1001F00013F0080F1EBF10F8014BAD1C0C1B09D1EA
:100200006D1E58BF01F801CBFAD505E014F8016B5B
:1002100001F8016B6D1EF9D59142D6D370470000ED
:100220000023002400250026103A28BF78C1FBD8FF
:10023000520728BF30C148BF0B6070471FB508F098
:1002400040FD1FBD10B510BD00F094F91146FFF739
:10025000F5FF06F0F1FC00F0B2F903B4FFF7F2FF8E
:1002600003BC00F0B3F900002C4B19680868B0E833
:10027000F04F80F30988BFF36F8F4FF0000080F3D9
:10028000118870470000000008480068006880F38B
:1002900008884FF0000080F3148862B661B6BFF39F
:1002A0004F8FBFF36F8F00DF00BF00BF08ED00E08E
:1002B000DFF80C00016841F470010160704700BF75
:1002C00088ED00E0EFF30980BFF36F8F134B1A68DE
:1002D0001EF0100F08BF20ED108A20E9F04F1060CB
:1002E00009B44FF0500080F31188BFF34F8FBFF374
:1002F0006F8F07F031FD4FF0000080F3118809BCCB
:1003000019680868B0E8F04F1EF0100F08BFB0EC95
:10031000108A80F30988BFF36F8F70472000002098
:10032000EFF30580704700000948804709480047FF
:10033000FEE7FEE7FEE7FEE7FEE7FEE7FEE7FEE795
:10034000FEE7FEE704480549054A064B70470000F2
:100350006D4F000889010008104E00201054002045
:10036000105000201050002053EA020C00F0698069
:100370002DE9F04B4FF00006002B1FBFB3FA83F5B9
:1003800003FA05F424FA05F65E4012BF1643B2FAEA
:1003900082F502FA05F4C5F120051EBF22FA05FC1C
:1003A00044EA0C04203556EA044C4FEA144418BFC2
:1003B000641C4FF000084FF00009904271EB030CF1
:1003C00039D3002919BFB1FA81F701FA07F6B0FA5B
:1003D00080F700FA07F6C7F120071EBF20FA07FCD6
:1003E00046EA0C062037B6FBF4FCA7EB0507103FE6
:1003F00007F01F0BCBF120060CFA0BFB2CFA06F6CC
:1004000044BFB3460026202FA4BF5E464FF0000B2A
:100410005BEA060C08BF4FF0010B19EB0B09ABFBB5
:10042000027C48EB0608C01B06FB02CC0BFB03CC8E
:1004300071EB0C01C1E70B46024641464846BDE858
:10044000F08B13B54FF000004FF00001AFF30080C8
:10045000BDE81C40704710B5431C02E010F8011BBA
:1004600071B18107FAD14FF0013202C88C1A8C4366
:1004700014EAC211F9D0C01A0A0603D0C01E10BD7A
:10048000C01A10BD0A0401D0801E10BD0902FCD0A4
:10049000401E10BD10B5203AC0F00B80B1E81850D6
:1004A000203AA0E81850B1E81850A0E81850BFF45E
:1004B000F5AF5FEA027C24BFB1E81850A0E81850FD
:1004C00044BF18C918C0BDE810405FEA827C24BF51
:1004D00051F8043B40F8043B08BF7047D20728BFDF
:1004E00031F8023B48BF11F8012B28BF20F8023B2E
:1004F00048BF00F8012B70474FF0000200B51346CB
:1005000094469646203922BFA0E80C50A0E80C5033
:10051000B1F12001BFF4F7AF090728BFA0E80C50E4
:1005200048BF0CC05DF804EB890028BF40F8042BDD
:1005300008BF704748BF20F8022B11F0804F18BF4A
:1005400000F8012B704770477047704710B500F0F6
:1005500009F8006810BD10B5044600F003F8046007
:1005600010BD000000487047AC4D002000487047A7
:10057000AC4D00207546FFF7F9FFAE460500694611
:10058000534620F00700854618B020B5FFF7DAFE85
:10059000BDE820404FF000064FF000074FF0000884
:1005A0004FF0000B21F00701AC46ACE8C009ACE805
:1005B000C009ACE8C009ACE8C0098D4670470446E4
:1005C000AFF300802046FFF748FE000001491820E5
:1005D000ABBEFEE72600020070470000B7EE000A3F
:1005E00080ED000A9FED060A80ED010A9FED040AE6
:1005F00080ED020A9FED020A80ED030A70470000B9
:100600000000000010B501221021024801F0E6FCB4
:1006100010BD00000000024010B500221021024869
:1006200001F0DCFC10BD000000000240704700003B
:1006300010B501221146024801F0D0FC10BD0000A7
:100640000004024010B500220121024801F0C6FC5E
:1006500010BD00000004024010B543781B021BB21D
:100660000478234300EE103AB8EEC01A1C4BD3EDC9
:10067000001A21EE211A81ED001AC3781B021BB269
:100680008478234300EE103AB8EEC01A144BD3ED31
:10069000001A21EE211A81ED011A43791B021BB2C7
:1006A0000479234300EE103AB8EEC01A0C4BD3ED98
:1006B000001A21EE211A81ED021A037A1B04C47973
:1006C00043EA04238479234300EE903AB8EE601A9B
:1006D000DFED041A21EE211A82ED001A10BD000090
:1006E0008800002000401C42704710B50446204698
:1006F00006F060FB10BD10B50446204606F03EF83B
:1007000010BD00004278120212B203781A4300EEC4
:10071000102AF8EEC00A144A92ED001A60EE810A1F
:10072000C1ED000AC278120212B283781A4300EEB9
:10073000102AF8EEC00A0C4A92ED001A60EE810A07
:10074000C1ED010A4279120212B203791A4300EE96
:10075000102AF8EEC00A044A92ED001A60EE810AEF
:10076000C1ED020A704700008C00002010B5002483
:10077000FFF75CFFFFF7B8FF05F03EFD10B144F056
:10078000800402E005F09EFC044305F033FF10B145
:1007900044F0400402E005F0B3FE0443204610BDDF
:1007A0002DE9FC4105460E461746002000900190B9
:1007B000FFF732FF922000F0D1F80622694612209E
:1007C00000F0ACF8FFF71EFF9DF80100000200B238
:1007D0009DF8001040EA010400EE104AB8EEC00A8D
:1007E0004C48D0ED000A20EE200A86ED000A9DF864
:1007F0000300000200B29DF8021040EA010400EE7E
:10080000104AB8EEC00A4348D0ED000A20EE200A94
:1008100086ED010A9DF80500000200B29DF8041063
:1008200040EA010400EE104AB8EEC00A3948D0EDA3
:10083000000A20EE200A86ED020AFFF703FF0822D5
:100840006946002000F06AF8FFF7F2FE9DF800000C
:100850000F2838D19DF80300000200B29DF8021065
:1008600040EA010400EE104AB8EEC00A2A48D0ED72
:10087000000A20EE200A85ED000A9DF8050000021E
:1008800000B29DF8041040EA010400EE104AB8EEF0
:10089000C00A2148D0ED000A20EE200A85ED010AA9
:1008A0009DF80700000200B29DF8061040EA01041E
:1008B00000EE104AB8EEC00A1748D0ED000A20EE4C
:1008C000200A85ED020AFFF7A7FEA22000F046F8F5
:1008D00002226946222000F021F8FFF793FE9DF8DE
:1008E0000000C0009DF8011040EA6114B4F5806F6B
:1008F00002DBA4F5006004B200EE104AF8EEC00A74
:10090000B4EE001AB3EE070A00EE810A87ED000A82
:10091000BDE8FC81880000208C00002070B50646F0
:100920000C46154646F0800000F018F806E0552009
:1009300000F014F82070641C681EC5B2002DF6D1BA
:1009400070BD70B504460D4644F0800000F006F816
:10095000552000F003F8287070BD000001B582B08A
:100960004FF47A70012301AA02A90090024802F014
:1009700011F99DF804000EBD2404002010B50246B4
:100980001378DB00547843EA6410B0F5806F02DB23
:10099000A0F5006318B200EE100AF8EEC00AB4EE3B
:1009A000001AB3EE070A00EE810A81ED000A10BDBD
:1009B00070B505460C462846FFF7D0FF2046FFF7E6
:1009C000CDFF70BD00BFFEE710B5024800F0A6FBEA
:1009D00010BD0000D403002010B5024800F09EFBBB
:1009E00010BD0000FC03002010B5024800F096FB8B
:1009F00010BD0000FC03002013B588B0044604F5C8
:100A0000A070029000200490059008200690A1207C
:100A10008DF8000000208DF801008DF802008DF89F
:100A200003009DF824008DF804009DF825008DF842
:100A3000050000208DF806008DF8070002236A46A5
:100A400002A9024800F06EF90AB010BDD4030020DC
:100A500010B5024800F0DCFF10BD000010070020B8
:100A600010B5024800F0D4FF10BD00007007002050
:100A700010B5024800F0CCFF10BD0000D0070020E8
:100A800010B500F007F8024800F0C2FF10BD0000EA
:100A90007C04002010B52C48006800F400100028E9
:100AA00050D04FF0F460284908310860274800789A
:100AB00000F0020078B12548007820F002002349B8
:100AC00008700846007840F00400087001221146C2
:100AD0001F4801F083FA1F48007800F0020078B147
:100AE0001C48007820F002001A4908700846007877
:100AF00040F00400087001221021174801F06EFA3E
:100B00001648007800F0020078B11448007820F010
:100B10000200124908700846007840F0040008708E
:100B2000012210210C4801F059FA05F05BFF07483B
:100B3000007800F0040028B10948006840F0010086
:100B40000749086010BD000000640240E900002071
:100B500000040240EA00002000000240EB000020F8
:100B6000103C014010B5024800F052FF10BD0000DB
:100B7000DC04002010B5024800F04AFF10BD000060
:100B8000B006002010B5024800F042FF10BD000082
:100B90003008002010B5024800F03AFF10BD0000F8
:100BA000500600200146087810381823B0FBF3F2F5
:100BB0000848805CC865032A05D908686FF30900F6
:100BC000001D886503E008686FF309008865886D7B
:100BD000704700002C8D0008014600208A6A8B694E
:100BE000CBB932B1012A0DD0022A03D0032A10D189
:100BF0000EE000BFCB6A03F08073B3F1807F00D1B9
:100C0000012007E0CB6AB3F1C07F00D1012001E0F1
:100C100000E000BF34E08B69B3F5005F1AD132B158
:100C2000012A07D0022A03D0032A11D10AE000BF0B
:100C300001200EE0CB6A03F08073B3F1807F00D116
:100C4000012006E0CB6AB3F1C07F00D1012000E0B3
:100C500000BF15E032B1012A05D0022A04D0032AD0
:100C60000CD103E000BF00BF012008E0CB6A03F015
:100C70008073B3F1807F00D1012000E000BF00BF8E
:100C80007047704710B5012001F0A0F810BD10B5F5
:100C9000102001F09BF810BD10B5202001F096F84F
:100CA00010BD000010B588B0044604F5A070029095
:100CB0000020049005900820069090208DF80000F8
:100CC00000208DF801008DF802008DF803008DF8EA
:100CD00004008DF805008DF806008DF8070002234A
:100CE0006A4602A9024800F01DF808B010BD0000D5
:100CF000D403002072B600BFFEE710B5024692F89A
:100D00002030012B01D0022B06D110684069084326
:100D100014686061002010BD506A40F48020506269
:100D20000120F8E7F0B504460D461E4694F8207001
:100D300020688368A86800B900E000BF012F01D0D7
:100D4000022F7CD103F0806030B903F0006018B945
:100D500003F08050002873D0C3F30161022905D944
:100D6000606A40F4000060620120F0BD012088400C
:100D70003060A86860B9B5F800C0E86840EA4C5C2B
:100D8000206800F5C07000EB0110C0F800C00FE053
:100D9000D5E901C040EACC00D5F80CC040EA0C000F
:100DA000D4F800C00CF5C07C0CEB011CCCF80000A2
:100DB000D5F810C0206800F5C07000EB0110C0F835
:100DC00004C0287D01280ED1206800F5C07000EB1A
:100DD0000110406840F4807C206800F5C07000EB92
:100DE0000110C0F804C0D079000692F806C040EAAD
:100DF0000C4092F805C040EA0C2C10794CEA000C2B
:100E0000206800F5C07000EB0110C0F80CC0D0786D
:100E1000000692F802C040EA0C4092F801C040EA95
:100E20000C2092F800C040EA0C00D4F800C00CF589
:100E3000C07C0CEB011CCCF80800206801E016E037
:100E40000FE000F5C07000EB0110006840F0010CED
:100E5000206800F5C07000EB0110C0F800C0002051
:100E600083E7606A40F40010606201207DE7606AF9
:100E700040F480206062012077E70000F0B504466E
:100E80000A46216894F82050012D01D0022D7ED110
:100E9000424901F50071086840F0010008600868E7
:100EA00020F47C5008600868566A40EA0620086012
:100EB000107D00F01F06012000FA06F3C869984370
:100EC000C861A1F50071D069C8B9D1F80C02984386
:100ED000C1F80C02908880B2968940EA064601F576
:100EE0001070576940F83760108880B2168940EA60
:100EF000064601F51070576900EBC7004660D069DF
:100F0000012819D1D1F80C021843C1F80C029088BD
:100F100080B2168840EA064601F51070576940F81D
:100F20003760908980B2168940EA064601F5107054
:100F3000576900EBC7004660906928B9D1F80402F0
:100F40009843C1F8040204E0D1F804021843C1F840
:100F50000402106928B9D1F814029843C1F81402A8
:100F600004E0D1F814021843C1F81402106A0128F1
:100F700004D1D1F81C021843C1F81C02D1F80002B8
:100F800020F00100C1F800020020F0BDFFE7606A18
:100F900040F4802060620120F7E700000064004018
:100FA000704770B5044694F82050012D01D0022DF1
:100FB0007DD151B92068C06800F0030080B9606A33
:100FC00040F400106062012070BD2068006900F0EC
:100FD000030028B9606A40F4001060620120F3E762
:100FE000206800F5D87000EB0110006800F00400E4
:100FF0009060906840B9206800F5D87000EB01104F
:101000000068400D106007E0206800F5D87000EB24
:1010100001100068C0085060206800F5D87000EB2F
:101020000110006800F00200D060206800F5D87060
:1010300000EB0110406800F00F001061206800F51F
:10104000D87000EB0110406800F47F40000A906106
:10105000206800F5D87000EB01104068000C50616A
:10106000206800F5D87000EB0110806818702068C7
:1010700000F5D87000EB0110806800F47F40000A92
:101080005870206800F5D87000EB0110806800F4FB
:101090007F00000C9870206800F5D87000EB0110FC
:1010A0008068000ED870206800F5D87000E02FE04E
:1010B00000EB0110C0681871206800F5D87000EBD3
:1010C0000110C06800F47F40000A5871206800F5E4
:1010D000D87000EB0110C06800F47F00000C98711C
:1010E000206800F5D87000EB0110C068000ED871C0
:1010F00031B92068C06840F020002668F06005E043
:101100002068006940F020002668306100205BE71D
:10111000606A40F480206062012055E72DE9F05FAD
:1011200004460025206846692068D0F804902068AD
:1011300087682068D0F80CA02068D0F810B020682C
:10114000D0F8188006F00100002855D007F0010003
:10115000C0B101202168886007F0020018B1204664
:1011600000F0E5FB0EE007F0040010B145F4006567
:1011700008E007F0080010B145F4805502E0204671
:1011800000F0D4FB07F48070C8B14FF48070216880
:10119000886007F4007018B1204600F0CAFB0EE02A
:1011A00007F4806010B145F4005508E007F40060D2
:1011B00010B145F4804502E0204600F0B9FB07F489
:1011C0008030C8B14FF480302168886007F4003067
:1011D00018B1204600F0AFFB0EE007F4802010B1FC
:1011E00045F4004508E007F4002010B145F48035CF
:1011F00002E0204600F09EFB06F0080038B10AF03D
:10120000100020B145F4007510202168C86006F078
:10121000040040B10AF0080028B108202168C86025
:10122000204600F015FA06F0020038B12068C068C8
:1012300000F0030010B1204600F00CFA06F0400068
:1012400038B10BF0100020B145F480651020216802
:10125000086106F0200040B10BF0080028B108201A
:1012600021680861204600F02FFB06F0100038B11D
:101270002068006900F0030010B1204600F025FB53
:1012800006F4003040B109F0100028B110202168A8
:101290004860204600F01AFB06F4803040B109F0A7
:1012A000080028B1082021684860204600F044FB6F
:1012B00006F4004088B309F0040078B306F48070A7
:1012C00020B108F0010008B145F0010506F40070F6
:1012D00020B108F0020008B145F0020506F4806074
:1012E00020B108F0040008B145F0040506F40060E0
:1012F000A0B108F0700088B108F07000402817D045
:1013000006DC10280BD020280CD0302819D10CE096
:10131000502810D0602814D110E01DE019E045F0ED
:1013200008050FE045F010050CE045F0200509E048
:1013300045F0400506E045F0800503E045F4807582
:1013400000E000BF00BF2068806920F070002168C5
:1013500088610420216848602DB1606A284360627A
:101360002046FFF71DFEBDE8F09F70B504460CB99E
:10137000012070BD94F8200010B9204600F0B0F8AC
:101380002068006840F001002168086000F02CFE31
:1013900005460DE000F028FE401B0A2808D9606AC7
:1013A00040F400306062052084F820000120E0E76E
:1013B0002068406800F001000028EBD02068006839
:1013C00020F002002168086000F00EFE05460DE0E6
:1013D00000F00AFE401B0A2808D9606A40F4003079
:1013E0006062052084F820000120C2E72068406880
:1013F00000F002000028EBD1207E012806D12068F1
:10140000006840F080002168086005E020680068FE
:1014100020F0800021680860607E012806D12068E5
:10142000006840F040002168086005E0206800681E
:1014300020F0400021680860A07E012806D12068C5
:10144000006840F020002168086005E0206800681E
:1014500020F0200021680860E07E012806D1206885
:10146000006820F010002168086005E0206800682E
:1014700040F0100021680860207F012806D1206814
:10148000006840F008002168086005E020680068F6
:1014900020F0080021680860607F012806D12068DC
:1014A000006840F004002168086005E020680068DA
:1014B00020F0040021680860D4E902010843216992
:1014C0000843616908436168491E08432168C8618F
:1014D00000206062012084F82000002049E700001D
:1014E00010B586B00446142101A8FFF705F852494B
:1014F0002068884241D151480068401C4F4908602B
:101500000846006801280FD100BF002000904C4819
:10151000006840F000704A4908600846006800F022
:101520000070009000BF00BF00BF00200090444842
:101530001038006840F0080041491039086008463A
:10154000006800F00800009000BF00BF0320019079
:1015500002200290002003900320049009200590AF
:1015600001A9384800F040FC00220521142000F0B9
:10157000FFFD142000F0ECFD5CE033492068884258
:1015800058D100BF002000902D48006840F08060D6
:101590002B4908600846006800F08060009000BF9A
:1015A00000BF26480068401C2449086008460068BF
:1015B00001280FD100BF002000902148006840F0B2
:1015C00000701F4908600846006800F00070009035
:1015D00000BF00BF00BF002000901948103800680D
:1015E00040F002001649103908600846006800F013
:1015F0000200009000BF00BF602001900220029016
:1016000000200390032004900920059001A90F48B1
:1016100000F0EAFB002205213F2000F0A9FD3F2059
:1016200000F096FD00220521402000F0A1FD4020A1
:1016300000F08EFD06B010BD006400400C000020DC
:1016400040380240000C02400068004000040240A4
:101650007047000010B58AB0044696492068884259
:101660007ED101AB03AA00212046FFF79AFC039824
:10167000332842D19DF804009DF8051040EA01206E
:10168000C0F30A008C4908809DF80500C0089DF849
:10169000061040EA4110C0F30A00874948809DF8CF
:1016A000060080099DF8071040EA81009DF80810A7
:1016B00040EA8120C0F30A007F4988809DF8080035
:1016C00040089DF8091040EAC110C0F30A007A49A9
:1016D000C8809DF80900C0F3011088729DF80900C8
:1016E000001181087448C1729DF80A009DF80B1022
:1016F00040EA012000B270498881039834281FD144
:101700009DF804009DF8051040EA012001B26A48E6
:10171000C1819DF806009DF8071040EA012001B242
:10172000654801829DF8081081749DF80910C17404
:101730009DF80A009DF80B1040EA01205E4988825E
:101740000398352808D19DF804009DF8051040EA5B
:10175000012000B2584908810398B0F5007F00E0ED
:1017600056E032D90398B0F5027F2ED20399491E74
:10177000C8B29DF805109DF8042041EA022100EB53
:1017800040024E4B03EB820291809DF807109DF8BA
:10179000062041EA022109B200EB400203EB82027B
:1017A000D1809DF809109DF8082041EA022109B274
:1017B00000EB400203EB820211819DF80A1000EB5E
:1017C000400203EB8202917200BF40F24111039884
:1017D00088422AD19DF80400A1281AD19DF806005C
:1017E0009DF8071040EA012000B2344908819DF8B5
:1017F00008009DF8091040EA012000B22F49C88076
:101800009DF80A009DF80B1040EA01202B498880C2
:101810000BE09DF80400902807D19DF806009DF884
:10182000071040EA01202549888025492068884220
:101830003DD101AB03AA00212046FFF7B2FB03987C
:10184000B0F5017F33D940F20F21039888422ED2A0
:101850000399491FC8B29DF805109DF8042041EA7C
:10186000022100EB4002174B03EB820291809DF8AE
:1018700007109DF8062041EA022109B200EB400260
:1018800003EB8202D1809DF809109DF8082041EAFF
:10189000022109B200EB400203EB820211819DF8A4
:1018A0000A1000EB400203EB8202917200BF0AB003
:1018B00010BD000000640040584C0020B04B0020D8
:1018C00000680040044C002070477047704770B5B6
:1018D000044694F82000012822D1022084F8200038
:1018E0002068006820F001002168086000F07CFB9F
:1018F00005460DE000F078FB401B0A2808D9606A15
:1019000040F400306062052084F82000012070BDA2
:101910002068406800F001000028EBD16062F6E723
:10192000606A40F4002060620120F0E77047704771
:101930007047704770477047704770B50446A56D93
:1019400000F052FB064694F83500022808D08020AB
:10195000606500BF002084F8340000BF012070BD26
:101960002068006820F0160021680860206840693F
:1019700020F0800021684861206C08B9A06C28B173
:101980002068006820F0080021680860206800686E
:1019900020F001002168086010E000F025FB801BAA
:1019A00005280BD920206065032084F8350000BF8E
:1019B000002084F8340000BF0320D0E720680068CE
:1019C00000F001000028E8D194F85C103F20884026
:1019D000A860012084F8350000BF002084F834009E
:1019E00000BF00BFBBE7014691F83500022803D0D5
:1019F0008020486501207047052081F8350008687F
:101A0000006820F001000A6810600020F3E7000081
:101A1000F8B50446002000908C4800684FF4165139
:101A2000B0FBF1F7A56D2E6894F85C100820884093
:101A3000304098B12068006800F0040070B1206860
:101A4000006820F004002168086094F85C10082009
:101A50008840A860606D40F00100606594F85C10FB
:101A600001208840304068B12068406900F0800063
:101A700040B194F85C1001208840A860606D40F08F
:101A80000200606594F85C1004208840304068B122
:101A90002068006800F0020040B194F85C10042057
:101AA0008840A860606D40F00400606594F85C10A8
:101AB00010208840304078B32068006800F00800AB
:101AC00050B394F85C1010208840A860206800682B
:101AD00000F4802080B12068006800F4002028B95C
:101AE000206CC8B12046216C884715E0A06C98B1E5
:101AF0002046A16C88470FE02068006800F48070E1
:101B000028B92068006820F0080021680860206C6F
:101B100010B12046216C884794F85C102020884042
:101B20003040002865D02068006800F010000028D0
:101B30005FD094F85C1020208840A86094F83500AD
:101B4000052828D12068006820F016002168086068
:101B50002068406920F0800021684861206C08B945
:101B6000A06C28B12068006820F008002168086097
:101B700094F85C103F208840A860012084F835006C
:101B800000BF002084F8340000BF206D10B1204653
:101B9000216D8847F8BD2068006800F4802080B17E
:101BA0002068006800F4002028B9606C10B120465D
:101BB000616C88471DE0E06BD8B12046E16B884737
:101BC00017E02068006800F4807068B92068006839
:101BD00020F0100021680860012084F8350000BF63
:101BE000002084F8340000BFE06B10B12046E16BA8
:101BF0008847606D38B3606D00F00100F0B10520DA
:101C000084F835002068006820F001002168086031
:101C100000BF0098401C0090B84200D905E0206841
:101C2000006800F001000028F3D100BF012084F813
:101C3000350000BF002084F8340000BFE06C10B114
:101C40002046E16C884700BFA4E700001C0000208C
:101C50002DE9F0410446002500F0C6F9074614B905
:101C60000120BDE8F081606A00B100BF022084F865
:101C7000350000BF002084F8340000BF20680068F1
:101C800020F00100216808600AE000F0ADF9C01BF7
:101C9000052805D920206065032084F83500E0E799
:101CA0002068006800F001000028EED12068056877
:101CB00021480540D4E901010843E168084321694E
:101CC000084361690843A1690843E1690843216A3F
:101CD00008430543606A042803D1D4E90B01084393
:101CE0000543206805602068456925F00705606A9E
:101CF0000543606A04280DD1A06A0543E06A48B133
:101D00002046FEF769FF28B140206065012084F875
:101D10003500A6E7206845612046FEF743FF0646EA
:101D200094F85C103F208840B0600020606501207E
:101D300084F83500002094E73F8010F010B5044689
:101D4000102C11D11A48007840F001001849087091
:101D50001848007840F001001649087016480078CD
:101D600028B304F03FFE22E0202C0BD1134800786A
:101D700040F00100114908700F480078B8B104F034
:101D800031FE14E0012C12D106F0C2F901280ED068
:101D90000B490C48006805F007FF0948006830B19E
:101DA000200709490860BFF34F8FBFF36F8F10BD45
:101DB000EA000020EB000020EC000020E9000020F9
:101DC00054010020C400002004ED00E010B50446DA
:101DD00004480068204020B1024804602046FFF714
:101DE000ADFF10BD143C0140F8B502460B4600257E
:101DF000002400200021D6E0012606FA01F51E6825
:101E000006EA0504AC4274D11E7906F00306012EE1
:101E100004D01E7906F00306022E13D190684F00FD
:101E20000326BE40B0434F00DE68BE4030439060A2
:101E3000506801268E40B0431E79C6F300168E40CE
:101E4000304350601E7906F00306032E09D0D06897
:101E50004F000326BE40B0434F009E68BE40304353
:101E6000D0601E7906F00306022E13D1CF0802F1CE
:101E7000200656F827004E07F70E0F26BE40B04347
:101E80004F07FF0E1E69BE403043CF0802F1200607
:101E900046F8270010684F000326BE40B0431E7965
:101EA00006F003064F00BE40304310605E6806F443
:101EB0004036002E76D000BF002600963C4E366895
:101EC00046F480463A4F3E603E46366806F4804609
:101ED000009600BF00BF374E8F0856F827008E07C8
:101EE000370F0F26BE40B043334EB24202D1002618
:101EF00024E057E0314EB24201D101261EE0304EBF
:101F0000B24201D1022619E02E4EB24201D103267F
:101F100014E02D4EB24201D104260FE02B4EB24206
:101F200001D105260AE02A4EB24201D1062605E07B
:101F3000284EB24201D1072600E008268F073F0F46
:101F4000BE4030431B4E8F0846F82700224E3068B3
:101F5000A0435E6806F4801606B120431E4E306032
:101F6000361D3068A0435E6806F4001606B12043B3
:101F7000194E361D3060184E361F3068A0435E681B
:101F800006F4003606B12043134E361F3060361F6C
:101F90003068A0435E6806F4803606B120430E4EDA
:101FA000083E3060491C1029FFF426AFF8BD000040
:101FB000443802400838014000000240000402405A
:101FC00000080240000C02400010024000140240D1
:101FD00000180240001C0240083C01400AB1816127
:101FE00001E00B04836170470148006870470000FE
:101FF000100000200348006803490978084401499B
:1020000008607047100000201800002010B50D482F
:10201000006840F400700B4908600846006840F40E
:10202000806008600846006840F480700860032003
:1020300000F0DCF80F2000F007F800F05FF8002057
:1020400010BD0000003C02402DE9F04188B004467C
:102050000027B84600BF002001902348006840F0E8
:102060000200214908600846006800F00200019063
:1020700000BF00BF02A903A800F08EF9069F1FB998
:1020800000F0B2F9054602E000F0AEF9450017484D
:10209000B5FBF0F0A0F1010815481649086040F2C0
:1020A000E7311448C160C0F80480002101618160FB
:1020B000816100F086FE064696B90E4800F0CEFE1D
:1020C00006466EB91D2000F043F8102C07D20022FE
:1020D00021461D2000F04CF80748046000E001266E
:1020E000304608B0BDE8F0814038024040420F0061
:1020F00000040040900800201400002008B500BF34
:10210000002000901148006840F480400F490860AA
:102110000846006800F48040009000BF00BF00BF88
:1021200000200090081F006840F08050091F0860E0
:102130000846006800F08050009000BF00BF0022F9
:102140000F21901E00F014F808BD00004438024032
:1021500001460846002809DB00F01F0301229A40CF
:1021600043099B0003F1E023C3F8002100BF70473F
:102170002DE9F05F80460D461646002703F0B2FDBC
:10218000074639462A46334601F00700C0F1070AE0
:10219000BAF1040F02D94FF0040A01E0C0F1070AB6
:1021A000D14600F1040ABAF1070F02D24FF0000A3B
:1021B00001E0A0F1030AD4464FF0010A0AFA09FA35
:1021C000AAF1010A0AEA020A0AFA0CFA4FF0010B14
:1021D0000BFA0CFBABF1010B0BEA030B4AEA0B0405
:1021E0002146404603F086FDBDE8F09F00BF00F0A9
:1021F0000702064B19684FF6FF031940044B0B43C7
:1022000043EA0221014B196000BF70470CED00E06A
:102210000000FA0570B504460D460CB9012070BDEA
:102220005848006800F00700A84209D255490D70CF
:102230000846006800F00700A84201D00120EEE740
:10224000207800F0020002281DD1207800F0040060
:10225000042805D14C48006840F4E0504A49086021
:10226000207800F00800082805D14748006840F4AD
:102270006040454908604448006820F0F000A168CB
:10228000084341490860207800F00100A8B3606865
:10229000012807D13C4808380068C0F34040B8B96D
:1022A0000120BCE76068022802D06068032807D1DB
:1022B000354808380068C0F3406048B90120AEE7EF
:1022C000314808380068C0F3400008B90120A6E78B
:1022D0002D48006820F00300616808432A4908601F
:1022E000FFF782FE064609E0FFF77EFE801B41F203
:1022F0008831884202D9032091E707E0224800682C
:1023000000F00C006168B0EB810FEDD11D48006852
:1023100000F00700A84209D91A490D700846006864
:1023200000F00700A84201D0012078E7207800F0F3
:102330000400042807D11448006820F4E050E16844
:10234000084311490860207800F00800082808D1E7
:102350000D48006820F46040216940EAC1000A4944
:10236000086000F061F808490968C1F30311074AE1
:10237000515CC8400649086006480068FFF764FEE3
:1023800000204CE7003C024008380240348D000831
:102390001C000020140000200F2202600D4A126869
:1023A00002F0030242600B4A126802F0F0028260FF
:1023B000084A126802F4E052C260064A126802F447
:1023C0006042D2080261044A126802F007020A6001
:1023D0007047000008380240003C02400148006895
:1023E000704700001C00002000B5FFF7F7FF04490C
:1023F0000968C1F38221034A515CC84000BD000056
:1024000008380240448D000800B5FFF7E7FF044993
:102410000968C1F34231034A515CC84000BD000065
:1024200008380240448D00082DE9F04700240025BB
:102430000026A1462548006800F00C0020B10428C1
:1024400005D008283AD105E0DFF8849039E0DFF8BC
:10245000849036E01D48001F006800F03F041B48D0
:10246000001F006800F4800078B11A481749091F5E
:102470000968C1F38811A0FB0170014622460023C0
:102480003846FDF771FF05460EE011480F49091F58
:102490000968C1F38811A0FB0170014622460023A0
:1024A0003846FDF761FF05460848001F0068C0F385
:1024B0000140401C4600B5FBF6F902E0DFF8109041
:1024C00000BF00BF4846BDE8F08700000838024062
:1024D0000024F400001BB700F8B504460CB9012035
:1024E000F8BD207800F00100002874D0F948006899
:1024F00000F00C0004280DD0F648006800F00C0035
:10250000082813D1F348001F006800F48000B0F5DC
:10251000800F0BD1EF4808380068C0F34040002816
:1025200059D06068002856D10120D9E700BF606803
:10253000B0F5803F08D1E7480838006840F48030A3
:10254000E449083908601EE06068B0F5A02F0DD19D
:10255000E0480838006840F48020DE490839086007
:102560000846006840F4803008600CE0D94808381C
:10257000006820F48030D7490839086008460068B0
:1025800020F48020086000BF606890B1FFF72CFD48
:10259000054606E0FFF728FD401B642801D903200B
:1025A0009EE7CC4808380068C0F340400028F1D0CE
:1025B00011E0FFF719FD054606E0FFF715FD401B8A
:1025C000642801D903208BE7C24808380068C0F3AB
:1025D00040400028F1D1207800F0020002285FD1AD
:1025E000BC48006800F00C0058B1BA48006800F020
:1025F0000C0008281CD1B748001F006800F48000B8
:10260000B0B9B44808380068C0F3400020B1E068B1
:10261000012801D0012063E7AE480838006820F0A7
:10262000F800216940EAC100AA490839086037E08A
:10263000E06800B30120A8490860FFF7D5FC054613
:1026400006E0FFF7D1FC401B022801D9032047E731
:10265000A04808380068C0F340000028F1D09D4829
:102660000838006820F0F800216940EAC100994963
:102670000839086014E0002097490860FFF7B4FCAF
:10268000054606E0FFF7B0FC401B022801D90320F5
:1026900026E7904808380068C0F340000028F1D1D0
:1026A000207800F0080008282CD16069A8B101202A
:1026B0008A490860FFF798FC054606E0FFF794FC9E
:1026C000401B022801D903200AE782486C300068C9
:1026D000C0F340000028F1D014E000207F490860DA
:1026E000FFF782FC054606E0FFF77EFC401B022850
:1026F00001D90320F4E677486C300068C0F340004D
:102700000028F1D1207800F00400042870D10027BF
:1027100070483830006800F0805090B900BF002049
:1027200000906C483830006840F08050694938317A
:1027300008600846006800F08050009000BF00BFAD
:1027400001276748006800F48070B0B964480068E9
:1027500040F4807062490860FFF746FC054606E0D9
:10276000FFF742FC401B022801D90320B8E65C4871
:10277000006800F480700028F2D000BFA068012833
:1027800008D154486830006840F001005149683170
:1027900008601DE0A06805280DD14E48683000682B
:1027A00040F004004B49683108600846006840F07A
:1027B000010008600CE047486830006820F0010024
:1027C0004449683108600846006820F00400086049
:1027D00000BFA068A8B1FFF707FC054609E0FFF7B6
:1027E00003FC401B41F28831884202D9032077E67E
:1027F00026E0384868300068C0F340000028EED07A
:1028000013E0FFF7F1FB054608E0FFF7EDFB401B87
:1028100041F28831884201D9032061E62D486830B1
:102820000068C0F340000028EFD1012F07D12948EC
:102830003830006820F0805026493831086000BFE9
:10284000A069002845D02348006800F00C00082843
:102850005DD0A069022845D100201F490866FFF716
:10286000C3FB054606E0FFF7BFFB401B022801D96A
:10287000032035E6174808380068C0F34060002898
:10288000F1D1D4E907010843616A40EA81110122CC
:10289000A06AC2EB500041EA00412C20005D41EAF1
:1028A00000600C49091F086001200B490866FFF70A
:1028B0009BFB054606E0FFF797FB401B022801D96A
:1028C00003200DE6034808380068C0F34060002884
:1028D000F1D049E00838024000004742800E4742EC
:1028E00000700040002021490866FFF77DFB054687
:1028F00006E0FFF779FB401B022801D90320EFE532
:102900001B480068C0F340600028F2D12CE0A069A9
:10291000012800D1E4E51648001D0668A0690128D9
:1029200020D006F48001E06981421BD106F03F010E
:10293000206A814216D147F6C0703040616AB0EB20
:10294000811F0FD106F440310122A06AC2EB500072
:10295000B1EB004F06D106F070612C20005DB1EBA9
:10296000006F01D00120BBE50020B9E5000047421F
:102970000038024010B504460CB9012010BD606A51
:1029800038B96068B0F5827F00D105E00021E161CF
:1029900002E00021216161610021A16294F85100EF
:1029A00028B9002084F85000204600F047F80220A3
:1029B00084F851002068006820F040002168086019
:1029C000A08800F48270218901F404410843A189A0
:1029D00001F400610843217C01F002010843217DDC
:1029E00001F001010843218B01F400710843217FAC
:1029F00001F0380108432021095D01F080010843FE
:102A0000218D01F400510843216808600421A06968
:102A100001EA104094F8241001F0100108432168E5
:102A200048602068C06920F400602168C861002007
:102A30006065012084F8510000209FE710B586B042
:102A40000446142101A8FDF757FD4B492068884230
:102A50007ED100BF002000904848006840F48050BC
:102A6000464908600846006800F48050009000BFA6
:102A700000BF00BF0020009040481438006840F0BC
:102A800002003E49143908600846006800F0020060
:102A9000009000BF00BF00BF002000900846006803
:102AA00040F0010008600846006800F00100009056
:102AB00000BF00BF18200190022002900120039067
:102AC000032004900520059001A92D48FFF78CF9FB
:102AD00080200190022002900120039003200490A6
:102AE0000520059001A92748FFF77EF926482749C8
:102AF00008604FF0C0604860002124488160C160D8
:102B00004FF480610161002141618161C1614FF435
:102B10004031016200214162FFF79AF808B1FEF7E7
:102B2000E9F800BF1948E064846300BF1648183014
:102B3000174908604FF0C060486040211448816028
:102B40000021C1604FF4806101610021416100E01A
:102B500010E08161C1614FF40031016200214162E6
:102B6000FFF776F808B1FEF7C5F800BF0848A06483
:102B7000846300BF06B010BD0030014044380240FD
:102B80000004024000000240406402407C04002037
:102B9000DC0400202DE9FF5F0446884691461D466F
:102BA0000E9E012002900020019000BF94F850007A
:102BB000012803D1022004B0BDE8F09F012084F871
:102BC000500000BFFFF710FA074694F851B0606854
:102BD0000390AA46BBF1010F0BD00398B0F5827F9A
:102BE00004D1A06810B9BBF1040F02D002200190FB
:102BF000DBE0B8F1000F03D0B9F1000F00D015B938
:102C000001200190D1E094F85100042802D0052061
:102C100084F8510000206065C4F83890E587A587E6
:102C2000C4F83080E586A58620646064206800686A
:102C300000F04000402805D02068006840F04000C7
:102C400021680860E068B0F5006F4AD1606810B193
:102C5000BAF1010F09D1206B00882168C860206B90
:102C6000801C2063E08E401EE08633E02068806890
:102C700000F00200022810D1E08E70B10298012805
:102C80000BD1206B00882168C860206B801C2063FA
:102C9000E08E401EE086002002902068806800F0F0
:102CA000010068B1E08F58B12068C068A16B08804E
:102CB000A06B801CA063E08F401EE0870120029083
:102CC000FFF792F9C01BB04204D3701C10B103206F
:102CD00001906AE0E08E0028C8D1E08F0028C5D1BD
:102CE0004AE0606810B1BAF1010F09D1206B007899
:102CF00021680873206B401C2063E08E401EE08634
:102D000034E02068806800F00200022810D1E08ED4
:102D100070B1029801280BD1206B007821680873EC
:102D2000206B401C2063E08E401EE0860020029055
:102D30002068806800F0010068B1E08F58B1206819
:102D4000C068A16B0870A06B401CA063E08F401EA0
:102D5000E08701200290FFF747F9C01BB04201D382
:102D6000701C00B916B9032001901EE0E08E002807
:102D7000C7D1E08F0028C4D13A463146204601F041
:102D8000B1FF20B101200190202060650DE0A06816
:102D900050B900BF002000902068C06800902068F3
:102DA0008068009000BF00BF00BF012084F8510080
:102DB00000BF002084F8500000BF0198FBE6704778
:102DC000704710B504460CB9012010BD94F83D00C1
:102DD00028B9002084F83C00204600F025F80220A5
:102DE00084F83D00211D206802F0D2F8012084F80B
:102DF000460000BF84F83E0001213F2001554020DD
:102E000001554120015500BF00BF012084F8420058
:102E100043200155442001554520015500BF0120A4
:102E200084F83D000020D0E708B50A4A01689142C5
:102E30000FD100BF002100910749096841F400311A
:102E4000054A11601146096801F40031009100BF84
:102E500000BF08BD0044014044380240014691F8DB
:102E60003D00012801D001207047022081F83D007B
:102E70000868C06840F001000B68D8601A4B086809
:102E800098421BD00868B0F1804F17D0174B0868E4
:102E9000984213D0164B086898420FD0154B08681B
:102EA00098420BD0144B0868984207D0134B08681F
:102EB000984203D0124B086898420CD10868806889
:102EC00000F00702062A0CD00868006840F00100F4
:102ED0000B68186005E00868006840F001000B68A6
:102EE00018600020C0E7000000000140000400401E
:102EF00000080040000C0040000401400040014078
:102F000000180040704710B5044620680069C0F3FF
:102F10004000D8B12068C068C0F34000B0B16FF085
:102F2000020021680861012020772068806900F094
:102F3000030018B12046FFF7E5FF05E0204600F04A
:102F4000DDF8204600F091F9002020772068006924
:102F5000C0F38000D8B12068C068C0F38000B0B171
:102F60006FF00400216808610220207720688069E2
:102F700000F4407018B12046FFF7C4FF05E020467A
:102F800000F0BCF8204600F070F90020207720689F
:102F90000069C0F3C000D8B12068C068C0F3C000A9
:102FA000B0B16FF008002168086104202077206824
:102FB000C06900F0030018B12046FFF7A3FF05E049
:102FC000204600F09BF8204600F04FF900202077C3
:102FD00020680069C0F30010D8B12068C068C0F351
:102FE0000010B0B16FF01000216808610820207750
:102FF0002068C06900F4407018B12046FFF782FFD6
:1030000005E0204600F07AF8204600F02EF9002076
:1030100020772068006900F0010058B12068C0687E
:1030200000F0010030B16FF0010021680861204616
:1030300000F0A2F920680069C0F3C01058B1206800
:10304000C068C0F3C01030B16FF080002168086123
:103050002046FFF7B4FE20680069C0F3801058B125
:103060002068C068C0F3801030B16FF04000216864
:103070000861204600F08CF920680069C0F3401018
:1030800058B12068C068C0F3401030B16FF0200024
:10309000216808612046FFF793FE10BD10B586B089
:1030A0000446142101A8FDF727FA11492068884237
:1030B0001CD100BF002000900E48006840F00200C4
:1030C0000C4908600846006800F00200009000BF4C
:1030D00000BF881501900220029000200390049008
:1030E0000320059001A90448FEF77EFE06B010BD3E
:1030F00000440140303802400004024070472DE98E
:10310000F04104460D461646002700BF94F83C00E7
:10311000012802D10220BDE8F081012084F83C00A2
:1031200000BF36B1042E1BD0082E31D00C2E5ED13C
:1031300045E02946206801F0A9FF2068806940F039
:103140000800216888612068806920F004002168F7
:10315000886120688069296908432168886148E09E
:103160002946206801F0CAFF2068806940F40060A9
:10317000216888612068806920F480602168886106
:1031800020688069296940EA01202168886130E06F
:103190002946206801F0F0FF2068C06940F008006F
:1031A0002168C8612068C06920F004002168C861F6
:1031B0002068C069296908432168C86119E0294667
:1031C000206802F015F82068C06940F400602168AA
:1031D000C8612068C06920F480602168C8612068E7
:1031E000C069296940EA01202168C86101E001271E
:1031F00000BF00BF00BF002084F83C0000BF38467D
:1032000089E710B504460CB9012010BD94F83D00C3
:1032100028B9002084F83C00204600F025F8022060
:1032200084F83D00211D206801F0B2FE012084F8E1
:10323000460000BF84F83E0001213F200155402098
:1032400001554120015500BF00BF012084F8420014
:1032500043200155442001554520015500BF012060
:1032600084F83D000020D0E77047704770B50446F1
:103270000D4615B994F83E000BE0042D02D13F2015
:10328000005D06E0082D02D14020005D01E04120F4
:10329000005D012801D0012070BD1DB9022084F815
:1032A0003E000EE0042D03D102213F20015508E02D
:1032B000082D03D102214020015502E002214120C6
:1032C000015501222946206801F0CEFE23492068DD
:1032D000884203D022492068884201D1012000E0C1
:1032E000002028B12068406C40F400402168486408
:1032F0001A49206888421BD02068B0F1804F17D04F
:1033000018492068884213D01749206888420FD096
:103310001649206888420BD011492068884207D09E
:1033200013492068884203D01249206888420CD192
:103330002068806800F00706062E0CD02068006820
:1033400040F001002168086005E02068006840F056
:1033500001002168086000209EE700000000014095
:10336000000401400004004000080040000C004040
:10337000004001400018004010B504460349206891
:10338000884201D1FEF736FE10BD00000004004067
:1033900070477047704700002DE9F84F04462068D9
:1033A00005682068C668206847694FF00009CA466A
:1033B00005F00F09B9F1000F0AD105F0200038B16E
:1033C00006F0200020B1204601F08CFFBDE8F88F08
:1033D000B9F1000F7CD007F0010018B906F4907025
:1033E000002875D005F0010030B106F4807018B1E6
:1033F000206C40F00100206405F0040030B107F0BB
:10340000010018B1206C40F00200206405F00200B9
:1034100030B107F0010018B1206C40F004002064C6
:1034200005F0080048B106F0200010B907F00100CF
:1034300018B1206C40F008002064206C002846D0B1
:1034400005F0200028B106F0200010B1204601F060
:1034500049FF20684069C0F3801A206C00F0080022
:1034600010B9BAF1000F2DD0204601F0F5FE20680A
:10347000406900F04000402820D100BF00BF216813
:10348000143151E8001F21F040002168143141E857
:103490000002002AF3D100BFA06B50B17548A16BA8
:1034A0000865A06BFEF79FFA88B1A06B016D884795
:1034B0000DE02046FFF76EFF09E009E02046FFF728
:1034C00069FF04E02046FFF765FF002020647DE7E8
:1034D000206B012876D105F01000002872D006F08C
:1034E00010000028FAD000BF00200090206800687B
:1034F000009020684068009000BF00BF20684069CD
:1035000000F0400040285ED1A06B006840681FFAC0
:1035100080F8B8F1000F54D0A08D404551DDA4F8DB
:103520002E80A06BC069B0F5807F43D000BF00BF84
:1035300021680C3151E8001F21F4807021680C31A2
:1035400041E80002002AF3D100BF00BF00BF21689C
:10355000143151E8001F21F001002168143141E8C5
:103560000002002AF3D100BF00BF00BF2168143160
:1035700051E8001F21F040002168143141E80002A9
:10358000002AF3D100BF202084F83E0000202063F1
:1035900000BF00BF21680C3151E8001F21F010006E
:1035A00021680C3141E80002002AF3D100BFA06B72
:1035B000FEF7C3F9A08DE28D801A81B22046FFF795
:1035C000E8FE03E740E0A08DE18D401A1FFA80F885
:1035D000E08DC0B3B8F1000F35D000BF00BF216847
:1035E0000C3151E8001F21F4907021680C3141E842
:1035F0000002002AF3D100BF00BF00BF21681431D0
:1036000051E8001F21F001002168143141E8000257
:10361000002AF3D100BF202084F83E000020206360
:1036200000BF00BF21680C3151E8001F21F01000DD
:1036300021680C3141E80002002AF3D100BF414665
:103640002046FFF7A6FEC1E605F0800030B106F087
:10365000800018B1204601F0D7FFB7E605F0400022
:1036600030B106F0400018B1204601F02BFEADE667
:1036700000BFABE64552000810B504460CB9012066
:1036800010BDA06900B100E000BF94F83D0028B96A
:10369000002084F83C00204600F028F8242084F81C
:1036A0003D002068C06820F400502168C8602046B2
:1036B00001F094FE2068006920F4904021680861C0
:1036C0002068406920F02A00216848612068C068AD
:1036D00040F400502168C86000202064202084F855
:1036E0003D0084F83E000020CAE7000010B586B017
:1036F0000446142101A8FCF7FFFECD49206888424A
:103700007DD100BF00200090CA48006840F0100042
:10371000C84908600846006800F01000009000BF2B
:1037200000BF00BF00200090C2481438006840F07D
:103730000200C049143908600846006800F0020021
:10374000009000BF00BF00BF002000900846006846
:1037500040F0010008600846006800F00100009099
:1037600000BF00BF80200190022002900020039043
:10377000032004900720059001A9AF48FEF734FB11
:103780004FF400700190022002900020039003206B
:1037900004900720059001A9A848FEF725FBA8483A
:1037A000A84908604FF0006048604021A54881604A
:1037B0000021C1604FF4806101610021416181619C
:1037C000C16101624162FEF743FA08B1FDF792FA66
:1037D00000BF9C486063846300BF994830389A49B1
:1037E00008604FF000604860002197488160C16028
:1037F0004FF48061016100214161816100E018E0C6
:103800004FF48071C161002101624162FEF720FA2C
:1038100008B1FDF76FFA00BF8B48A063846300BF57
:10382000002205212520FEF7A3FC2520FEF790FCB1
:10383000FBE08649206888427BD100BF00200090D1
:103840007C48001F006840F480207A49091F086006
:103850000846006800F48020009000BF00BF00BF51
:103860000020009073481438006840F0040071494B
:10387000143908600846006800F00400009000BF9A
:1038800000BF4FF44060019002200290002003909E
:10389000032004900720059001A96D48FEF7A4FAC3
:1038A0006C486D4908604FF00060486000216A482C
:1038B0008160C1604FF480610161002141618161DB
:1038C0004FF48071C161002101624162FEF7C0F9CD
:1038D00008B1FDF70FFA00BF5F48A063846300BF23
:1038E0005C4830305D4908604FF00060486040211E
:1038F0005A4881600021C1604FF48061016100215C
:1039000041618161C16101624162FEF7A1F908B1C3
:10391000FDF7F0F900BF51486063846300BF0022E7
:1039200005212720FEF724FC2720FEF711FC7CE070
:10393000FFE74B492068884277D100BF0020009004
:103940003C48006840F020003A490860084600689A
:1039500000F02000009000BF00BF00BF00200090DA
:1039600034481438006840F0400032491439086087
:103970000846006800F04000009000BF00BF4FF410
:1039800084400190022002900020039003200490C4
:103990000820059001A93348FEF726FA28489038F8
:1039A000314908608005486000212F488160C1606E
:1039B0004FF4806101610021416181614FF48071A8
:1039C000C161002101624162FEF742F908B1FDF7D1
:1039D00091F900BF2448A063846300BF18481838D9
:1039E000224908604FF02060486040211F488160F4
:1039F0000021C1604FF4806101610021416181615A
:103A0000C16101624162FEF723F908B1FDF772F965
:103A100000BF16486063846300BF00220521472071
:103A2000FEF7A6FB4720FEF793FB06B010BD000093
:103A300000100140443802400004024000000240EF
:103A4000B864024050060020B00600200048004044
:103A50000008024028600240100700207007002084
:103A60000014014000180240D00700203008002058
:103A70007047704700BFFEE7072003F09BF902E0A4
:103A8000642003F097F9FCF771FE0028F8D19B4AF7
:103A9000A2F10C01101DFCF783FE00F05FF9974ABC
:103AA000103A9749974802F037FFDFED970A9FEDEC
:103AB000970A974A0021974800F032FF964A9049AA
:103AC0009648FCF78BFD8E4890ED000A944880EDF7
:103AD000000A944880ED000A934880ED000A884867
:103AE00090ED010A8E4880ED010A8E4880ED010AB2
:103AF0008D4880ED010A824890ED020A884880EDE9
:103B0000020A884880ED020A874880ED020A0020F8
:103B100003F090F9044604F0A9FA844908601021E2
:103B20008348C161FEF726FF08B1FDF7E3F80822DC
:103B30008049814801F016F8012080490870DBE0D7
:103B400000BF4FF0FF31012003F086FE0128F8D1BD
:103B50007B48007800F0040058B17948007820F0E4
:103B60000400774908706549091D7248401CFCF73C
:103B7000C9FD7448007800F0040060B17148007815
:103B800020F004006F4908705C4A1032A2F11C0159
:103B90006D48FCF761FD6D48007800F0040088B1C5
:103BA0006A48007820F00400684908705349684862
:103BB000FCF7E4FE51481038D0ED040AB0EE600A7C
:103BC00002F0CAFF4D4A103A4D494E4802F0A4FE99
:103BD000544890ED000A544880ED000A504890ED9A
:103BE000000A504880ED000A90ED000A5948D0EDD7
:103BF000000A20EE200A4C48D0ED000A554890ED0E
:103C0000011A00EE810A3E48D0ED000A514890EDBD
:103C1000021A00EE810A424880ED000A414890ED08
:103C2000010A414880ED010A3D4890ED010A3D48F6
:103C300080ED010A90ED010A4648D0ED000A20EE21
:103C4000200A3948D0ED010A424890ED011A00EEF1
:103C5000810A2B48D0ED010A3E4890ED021A00EE91
:103C6000810A2F4880ED010A2E4890ED020A2E4865
:103C700080ED020A2A4890ED020A2A4880ED020AE5
:103C800090ED020A3348D0ED000A20EE200A2648C3
:103C9000D0ED020A2F4890ED011A00EE810A184873
:103CA000D0ED020A2B4890ED021A00EE810A1C4862
:103CB00080ED020A90ED023AF0EE432A90ED013ACF
:103CC000B0EE432A90ED003AF0EE431A0D4890ED25
:103CD000023AB0EE431A90ED013AF0EE430A90ED4D
:103CE000003AB0EE430A0D4800F0A0FB1A4B1A1F31
:103CF000111F0A4802F06AFD22E70000D44C0020A0
:103D0000784D00206C4D00200080894500A08C4536
:103D1000608D0008F44C0020844D0020904D002060
:103D2000544D0020484D00203C4D0020C400002090
:103D300024040020C8000020D0000020EC00002057
:103D4000E9000020EA000020BA4C0020EB0000202F
:103D5000E30000206C8D0008A84D002010B52DED6B
:103D6000088B00247AE0424AA2F10C01101DFCF7F6
:103D700017FD3F48103890ED050A10EE101A08465E
:103D800004F02EFF41EC1B0B9FED3A0B53EC102B74
:103D900004F03EFD41EC190B384890ED000A10EE9E
:103DA000101A084604F01CFF41EC1A0B53EC192BB7
:103DB00004F02CFE41EC180B04F0E0FA2F490860E7
:103DC0002B48103890ED060A10EE101A084604F041
:103DD00007FF41EC1B0B9FED270B53EC102B04F05E
:103DE00017FD41EC190B254890ED010A10EE101A51
:103DF000084604F0F5FE41EC1A0B53EC192B04F0C5
:103E000005FE41EC180B04F0B9FA1C49486018484B
:103E1000103890ED070A10EE101A084604F0E0FE84
:103E200041EC1B0B9FED130B53EC102B04F0F0FC3B
:103E300041EC190B114890ED020A10EE101A0846D9
:103E400004F0CEFE41EC1A0B53EC192B04F0DEFD0E
:103E500041EC180B04F092FA084988602046641C73
:103E600044F620618842FFF67EAFBDEC088B10BDA2
:103E7000D44C00202D431CEBE2360A3F604D00205D
:103E800030B5144602EBD4756D106B1C002832DB84
:103E9000984230DA002915DBC4188C4212DD441A2E
:103EA00021B200EE101AB8EEC00A9FED2F1A20EED4
:103EB000011A00EE102AB8EEC00AC1EE000AB0EEF8
:103EC000600A30BDC4188C424BDC914249DA541A66
:103ED000044421B200EE101AB8EEC00A9FED221A77
:103EE00020EE011A00EE102AB8EEC00AC1EE000A58
:103EF000B0EE600AE5E7984233DB904231DA002900
:103F000017DBC41A8C4214DD54420444641A21B2F3
:103F100000EE101AB8EEC00A9FED131A20EE011A37
:103F200000EE102AB8EEC00AC1EE000AB0EE600A38
:103F3000C7E7C41A8C4214DC914212DA441A21B247
:103F400000EE101AB8EEC00A9FED071A20EE011A13
:103F500000EE102AB8EEC00AC1EE000AB0EE600A08
:103F6000AFE700BFADE700000000B44310B50E4856
:103F70000E4908600320486000210C488160C16040
:103F80004FF4102101614FF40011416100210176CD
:103F900041768176C17601774177FDF7E6F908B180
:103FA000FCF7A8FE10BD000000640040D403002010
:103FB00010B50E480E4908600320486000210C48E7
:103FC0008160C1604FF4102101614FF40011416123
:103FD0000021017641768176C17601774177FDF740
:103FE000C4F908B1FCF786FE10BD0000006800406F
:103FF000FC03002008B500BF002000902E48006898
:1040000040F480002C4908600846006800F48000F5
:10401000009000BF00BF00BF00200090084600686D
:1040200040F4001008600846006800F4001000909A
:1040300000BF00BF002205210C20FEF799F80C20DC
:10404000FEF786F8002205210E20FEF791F80E20DB
:10405000FEF77EF8002205213920FEF789F8392085
:10406000FEF776F8002205213A20FEF781F83A2083
:10407000FEF76EF8002205213B20FEF779F83B2081
:10408000FEF766F8002205214420FEF771F844206F
:10409000FEF75EF8002205214520FEF769F845206D
:1040A000FEF756F8002205214620FEF761F846206B
:1040B000FEF74EF808BD00003038024000B595B05C
:1040C0001C2212490EA8FCF7E5F900210EA802F007
:1040D00082FE0F4908601C220C491C3107A8FCF71E
:1040E000D9F9002107A802F076FE0A4908601C22CF
:1040F000064938316846FCF7CDF90021684602F0E0
:104100006AFE0549086015B000BD0000D88C0008A3
:1041100000000020040000200800002000B587B047
:10412000142102A8FCF7E8F900BF002001906248C2
:10413000006840F00200604908600846006800F02E
:104140000200019000BF00BF00BF002001900846A0
:10415000006840F0400008600846006800F0400039
:10416000019000BF00BF00BF00200190084600681A
:1041700040F0010008600846006800F0010001906E
:1041800000BF00BF00BF002001900846006840F05B
:10419000080008600846006800F00800019000BFB1
:1041A00000BF00BF002001900846006840F00400F6
:1041B00008600846006800F00400019000BF00BFDE
:1041C00000BF002001900846006840F080000860B1
:1041D0000846006800F08000019000BF00BF002288
:1041E0004FF4E0513548FDF7F9FE01221021344823
:1041F000FDF7F4FE012241F201013248FDF7EEFE27
:104200004FF4E050029001200390049000200590AC
:1042100002A92A48FDF7E8FD102002900120039032
:1042200004900220059002A92548FDF7DDFD30200D
:1042300002904FF4881003900120049002A92248B4
:10424000FDF7D2FD012002904FF488100390012069
:10425000049002A91D48FDF7C7FD4FF4805002905D
:10426000012003900490059002A91648FDF7BCFDBB
:1042700001200290039004900220059002A91148A9
:10428000FDF7B2FD002206210846FDF771FF06206A
:10429000FDF75EFF002205210A20FDF769FF0A20D5
:1042A000FDF756FF002205211720FDF761FF1720BB
:1042B000FDF74EFF07B000BD30380240001C024041
:1042C00000000240000402400008024000180240C2
:1042D00010B50F480F4908604FF482704860002104
:1042E0000C488160C16002210161012141614902E4
:1042F00081611021C16100210162416281620A2154
:10430000C162FEF737FB08B1FCF7F4FC10BD0000FA
:10431000003001402404002000B587B01C2168460D
:10432000FCF7EAF8154816490860002048600021AB
:10433000134881604FF6FF71C16000210161816106
:10434000FEF73FFD08B1FCF7D5FC0D48FEF759FF1D
:1043500008B1FCF7CFFC6020009000200190029093
:104360000490002269460648FEF7C9FE08B1FCF732
:10437000C1FC0348FEF792FE07B000BD00440140B7
:104380003C05002010B50B480B4908604FF4E130A4
:104390004860002108488160C16001610C214161D1
:1043A00000218161C161FFF767F908B1FCF7A2FC48
:1043B00010BD0000001001408405002010B50A481F
:1043C0000A4908600A484860002108488160C160C5
:1043D00001610C21416100218161C161FFF74CF94C
:1043E00008B1FCF787FC10BD00480040C80500205C
:1043F000A086010010B50B480B4908604FF4E1306E
:104400004860002108488160C16001610C21416160
:1044100000218161C161FFF72FF908B1FCF76AFC47
:1044200010BD0000001401400C06002000B52DED69
:10443000068B0246B0EE403AF0EE603AB0EE414AEA
:10444000F0EE615AF0EE424AB0EE625AF5EEC05A12
:10445000F1EE10FA09D1F5EEC04AF1EE10FA04D1EE
:10446000B5EEC05AF1EE10FA7ED065EEA50A44EE24
:10447000A40A45EE050AB0EE600A02F0BFFBF0EEBA
:10448000402A25EEA20AF0EE405A24EEA20AF0EEEF
:10449000404A25EE220AB0EE405A92ED010AD2EDD2
:1044A000030A20EE200AD2ED000A92ED021AF0EE85
:1044B000408A40EEC18A92ED000AD2ED010A20EE58
:1044C000200AD2ED020A92ED031AF0EE409A40EE75
:1044D000819AD2ED000A92ED001AB6EE000A10EEB3
:1044E000810AD2ED030A92ED031AB0EE409A00EE73
:1044F000819A24EE890AF0EE407A45EE697A25EE3B
:10450000280AB0EE40AA05EEC9AA25EEA90AB0EE27
:10451000408A04EEE88A7C4890ED000AB5EEC00AB5
:10452000F1EE10FA40DD90ED000A60EE270A7748C0
:1045300090ED000A9FED761A00EE810A80ED000AE8
:10454000714890ED000A60EE0A0A724890ED000A88
:104550009FED6F1A00EE810A80ED000A6A4890ED27
:10456000000A60EE080A00E046E06B4890ED000AA1
:104570009FED671A00EE810A80ED000A634890ED16
:10458000000A33EE000AB0EE403A624890ED000AAD
:1045900033EE800AF0EE403A5F4890ED000A34EEC8
:1045A000000AB0EE404A0EE09FED5C0A574880EDED
:1045B000000A9FED5A0A574880ED000A9FED570AFE
:1045C000554880ED000A5648D0ED000AB0EE430A87
:1045D00000EEA70AB0EE403AD0ED000AB0EE630A52
:1045E00000EE8A0AF0EE403AD0ED000AB0EE440A3E
:1045F00000EE880AB0EE404A9FED4A0A23EE000A18
:10460000B0EE403A9FED470A23EE800AF0EE403AC2
:104610009FED440A24EE000AB0EE404A92ED006A93
:10462000D2ED016A92ED027AB1EE660A20EE030A3B
:1046300007EE630AD2ED030A00EEC40AD2ED000AC7
:1046400030EE200A82ED000A26EE030A07EE040A85
:10465000D2ED030A00EEE30AD2ED010A30EE200AA1
:1046600082ED010A26EE230A06EEC40AD2ED030A01
:1046700000EE830AD2ED020A30EE200A82ED020A31
:1046800026EE040A06EEA30A07EE430AD2ED030A59
:1046900030EE200A82ED030AD2ED000A60EEA00A95
:1046A00092ED011AD2ED011A41EE210A92ED021AA1
:1046B000D2ED021A41EE210A92ED031AD2ED031A4D
:1046C00041EE210AB0EE600A02F098FAF0EE402ABC
:1046D00092ED000A20EE220A82ED000A92ED010A14
:1046E00020EE220A82ED010A92ED020A20EE220A51
:1046F00082ED020A92ED030A20EE220A82ED030AFD
:10470000BDEC068B00BD00004001002044010020EC
:104710006F12833A480100204C0100200000000085
:104720003C0100206F12033A00BFFEE700BFFEE726
:10473000B0EE401A10B99FED790A704790ED100A5B
:1047400080ED110A90ED0F0A80ED100AC0ED060A07
:1047500080ED071A30EEC10A80ED0F0A01780029BA
:1047600075D190ED010AD0ED0F1A20EE210A80EDEF
:10477000090A90ED0A0AD0ED021A90ED0F2A01EE17
:10478000820A80ED0A0A90ED0D0A80ED0E0A90ED86
:104790000C0A80ED0D0A90ED0F0AD0ED101A30EEE4
:1047A000610A80ED0C0A90ED030AD0ED0C1A20EEA0
:1047B000210A80ED0B0A90ED0A0AD0ED051AB4EE3D
:1047C000E10AF1EE10FA04DD90ED050A80ED0A0A27
:1047D00010E090ED0A0AD0ED051AF1EE611AB4EE80
:1047E000E10AF1EE10FA05D290ED050AB1EE400AA9
:1047F00080ED0A0A90ED090AD0ED0A1A30EE210A7E
:10480000D0ED0B1A30EE210A80ED080A90ED080A6F
:10481000D0ED041AB4EEE10AF1EE10FA04DD90EDE9
:10482000040A80ED080A76E090ED080AD0ED041A3B
:10483000F1EE611AB4EEE10AF1EE10FA6BD290EDEE
:10484000040AB1EE400A80ED080A64E0FFE701784F
:10485000012960D190ED0F0AD0ED101A30EE610AF7
:10486000D0ED011A20EE210A80ED090A90ED020A2E
:10487000D0ED0F1A20EE210A80ED0A0A90ED0D0A04
:1048800080ED0E0A90ED0C0A80ED0D0A90ED0F0AF6
:10489000D0ED101AB0EE002A02EE610AD0ED111A26
:1048A00030EE210A80ED0C0A90ED030AD0ED0C1ACF
:1048B00020EE210A80ED0B0A90ED090AD0ED0A1ACC
:1048C00030EE210AD0ED0B1A30EE210AD0ED081A95
:1048D00030EE210A80ED080A90ED080AD0ED041AA6
:1048E000B4EEE10AF1EE10FA04DD90ED040A80ED79
:1048F000080A10E090ED080AD0ED041AF1EE611AF2
:10490000B4EEE10AF1EE10FA05D290ED040AB1EE30
:10491000400A80ED080A90ED080A0EE7000000004A
:1049200000B102B97047017092ED001A80ED011AD2
:1049300092ED011A80ED021A92ED021A80ED031A2F
:1049400080ED040AC0ED050A9FED0C1A80ED0E1AE9
:1049500080ED0D1A80ED0C1A9FED081A80ED081AF3
:1049600080ED0B1A80ED0A1A80ED091A80ED111AFC
:1049700080ED101A80ED0F1A00BFD3E70000000091
:1049800010B5234B1B685B6943F04003204C24683F
:1049900063611F4B1B68DB6843F010031C4C2468E9
:1049A000E3601C4B1B681B6823F00103194C24684F
:1049B000236007E0174B1B681B6823F00103154CAD
:1049C00024682360134B1B681B6803F00103002B52
:1049D000F0D1114B0F4C2468A3600E4B1B68D860BC
:1049E0000C4B1B6819610B4B1B685A60094B1B6809
:1049F0001B6843F48023074C24682360054B1B6825
:104A00001B6843F00103034C2468236010BD0000C1
:104A1000C8050020100700200448004010B54D4B89
:104A20001B681B6823F001034A4C246823604A4B2F
:104A30001B681B6823F00103474C2468236007E0D0
:104A4000444B1B681B6823F00103424C246823601D
:104A5000404B1B681B6803F00103002BF0D107E0FB
:104A60003D4B1B681B6823F001033B4C246823600B
:104A7000394B1B681B6803F00103002BF0D1354B49
:104A80001B68364CA34205D94FF40013334C4C3C01
:104A900023601BE02F4B1B68314CA34205D94FF418
:104AA00000132E4C503C236010E02A4B1B682C4C0A
:104AB000603CA34205D94FF40013294CB83CE36095
:104AC00004E04FF40013264CB83CA360224B1B6853
:104AD000224CA34205D94FF00063204C4C3C23608C
:104AE0001BE01D4B1B681E4CA34205D94FF0006311
:104AF0001A4C503C236010E0174B1B68184C603C6C
:104B0000A34205D94FF00063154CB83CE36004E0C4
:104B10004FF00063124CB83CA3600E4B1B68D96089
:104B20000D4B1B68D8600B4B1B685A600A4B1B6807
:104B30005A60084B1B681B6843F00103054C24684E
:104B40002360054B1B681B6843F00103024C24687B
:104B5000236010BD7C040020DC0400205864024067
:104B6000B860024010B5594B1B685B6843F0020304
:104B7000564C24686360554B1B685B6843F0010327
:104B8000524C24686360514B1B681B6843F0400320
:104B90004E4C246823604E4B1B681B6823F00103B6
:104BA0004B4C2468236007E0494B1B681B6823F0CB
:104BB0000103474C24682360454B1B681B6803F0C6
:104BC0000103002BF0D1424B1B68424CA34205D994
:104BD0004FF400133F4C4C3C23601BE03C4B1B68E4
:104BE0003D4CA34205D94FF400133A4C503C23608E
:104BF00010E0374B1B68384C603CA34205D94FF49A
:104C00000013354CB83CE36004E04FF40013324C21
:104C1000B83CA360314B2E4C2468A3602C4B1B681E
:104C2000D9602B4B1B685A60294B1B681B6843F0EB
:104C30001003274C24682360294B1B681B6823F052
:104C40000103274C2468236007E0254B1B681B6881
:104C500023F00103224C24682360214B1B681B684E
:104C600003F00103002BF0D11D4B1B68194CA3422C
:104C700005D94FF00063174C4C3C23601BE0184BE8
:104C80001B68154CA34205D94FF00063114C503CF2
:104C9000236010E0124B1B680F4C603CA34205D907
:104CA0004FF000630C4CB83CE36004E04FF000634D
:104CB000094CB83CA360094B094C2468A360084B1D
:104CC0001B68D860064B1B685A6010BD2404002086
:104CD0007C04002058640240B86002400C3001405F
:104CE000DC0400207CB504460D46164616480068D4
:104CF0001821B0FBF1F01549B0FBF1F04FF47A71D7
:104D0000484301906068B0F5827F0DD12B460022A8
:104D100080212046009600F01BF898B1606D40F0AD
:104D20002000606503207CBD00BF019800B908E049
:104D30000198401E019020688068C0F3C0100028D0
:104D4000F3D100BF0020EEE71C00002040420F001E
:104D50002DE9F84F04460D4690461E46DDF8289092
:104D6000FDF742F9A0EB0900371AFDF73DF982463D
:104D70002C480068C0F3CB307843009045E0701CAD
:104D8000002842D0FDF730F9A0EB0A00B84200D26B
:104D9000A7BB2068406820F0E00021684860606898
:104DA000B0F5827F0DD1A068B0F5004F03D0A068A8
:104DB000B0F5806F05D12068006820F040002168C0
:104DC0000860A06AB0F5005F0DD100BF20680068E0
:104DD00020F40050216808602068006840F400500A
:104DE0002168086000BF012084F8510000BF002046
:104DF00084F8500000BF0320BDE8F88FFFE700985B
:104E000000B900270098401E009020688068284064
:104E1000A84201D1012000E000204045AFD1002090
:104E2000EAE700001C00002000BF012001F0C2FFE3
:104E3000FBE7000010B588B0044604F5A0700290AE
:104E40000020049005900820069088208DF800002E
:104E500000208DF801008DF802008DF803008DF818
:104E600004008DF805008DF806008DF80700022378
:104E70006A4602A90248FBF755FF08B010BD0000C2
:104E8000D403002010B500BF502080F31188BFF379
:104E90004F8FBFF36F8F00BF03F04AF918B14FF087
:104EA00080500449086000BF002080F3118800BFD3
:104EB00010BD000004ED00E000B593B0302107A85C
:104EC000FBF71AFB142102A8FBF716FB00BF00201A
:104ED00001902448006840F080502249086008464C
:104EE000006800F08050019000BF00BF00BF0020AC
:104EF00001901D48006840F480401B490860084646
:104F0000006800F48040019000BF00BF01200790BE
:104F10000004089002200D9041050E9106210F918A
:104F2000A8211091022111910421129107A8FDF7E7
:104F3000D3FA08B1FBF7DEFE0F20029002200390A7
:104F4000002004904FF4A05005904FF4805006903C
:104F5000052102A8FDF75EF908B1FBF7CBFE13B0FF
:104F600000BD000040380240007000400348006867
:104F700040F47000014908607047000088ED00E0CF
:104F800010B50248FDF7BFFF10BD000090080020DB
:104F900010B50268294B98420ED0B0F1804F0BD06B
:104FA000274B984208D0274B984205D0264B984271
:104FB00002D0264B984203D122F070024B681A436C
:104FC0001E4B984220D0B0F1804F1DD01C4B984210
:104FD0001AD01C4B984217D01B4B984214D01B4B35
:104FE000984211D01A4B98420ED01A4B98420BD0CF
:104FF000194B984208D0194B984205D0184B98424B
:1050000002D0184B984203D122F44072CB681A4365
:1050100022F080034C6943EA040202608B68C36299
:105020000B688362054B984202D0084B984201D12D
:105030000B6903630123436110BD000000000140C0
:105040000004004000080040000C00400004014043
:105050000040014000440140004801400018004069
:10506000001C00400020004030B501F01F05012465
:1050700004FA05F3046A9C430462046A01F01F0504
:1050800002FA05F52C43046230BD000030B5056A14
:1050900025F001050562026A4368846924F0700402
:1050A00024F003040D682C4322F002028D682A4389
:1050B000104DA84200D103E00F4DA84206D100BF19
:1050C00022F00802CD682A4322F00402094DA842CA
:1050D00002D0094DA84207D123F4807323F4007352
:1050E0004D692B438D692B43436084614D68456353
:1050F000026230BD000001400004014030B5056A85
:1051000025F010050562026A4368846924F4E044CE
:1051100024F440740D6844EA052422F020028D68CE
:1051200042EA0512124DA84200D103E0114DA842F7
:1051300007D100BF22F08002CD6842EA051222F0BA
:1051400040020B4DA84202D00A4DA84209D123F4D7
:10515000806323F400634D6943EA85038D6943EA64
:105160008503436084614D688563026230BD000041
:10517000000001400004014030B5056A25F4807547
:105180000562026A4368C46924F0700424F00304D1
:105190000D682C4322F400728D6842EA0522124DFC
:1051A000A84200D103E0114DA84207D100BF22F46C
:1051B0000062CD6842EA052222F480620A4DA842CC
:1051C00002D00A4DA84209D123F4805323F400539E
:1051D0004D6943EA05138D6943EA05134360C461D1
:1051E0004D68C563026230BD00000140000401400B
:1051F00030B5056A25F480550562036A4468C269C2
:1052000022F4E04222F440720D6842EA052223F4BF
:1052100000538D6843EA0533084DA84202D0084D7B
:10522000A84204D124F480444D6944EA85144460C2
:10523000C2614D680564036230BD0000000001409A
:105240000004014070B50546AC6B0020E085E084A9
:105250002046FEF79FF870BD00BF00BF02680C3209
:1052600052E8002F22F4907102680C3242E80013D9
:10527000002BF3D100BF00BF00BF0268143252E818
:10528000002F22F001010268143242E80013002BC3
:10529000F3D100BF016B01290ED100BF00BF02682E
:1052A0000C3252E8002F22F0100102680C3242E862
:1052B0000013002BF3D100BF202180F83E10002105
:1052C0000163704710B504462068C06820F04000B4
:1052D0002168C860202084F83D002046FEF7C9FB05
:1052E000002010BDF8B5044694F83E00222873D182
:1052F000A068B0F5805F0CD1206950B90025A66A7E
:1053000020684068C0F308003080A06A801CA0625A
:1053100015E0A56A0026A068B0F5805F03D0A068FC
:1053200028B9206918B920684068287004E020680E
:10533000406800F07F002870A06A401CA062E08DE9
:10534000401E80B2E085002844D12068C06820F06B
:1053500020002168C8602068C06820F4807021683F
:10536000C8602068406920F0010021684861202061
:1053700084F83E00206B012826D10020206300BF66
:1053800000BF21680C3151E8001F21F01000216896
:105390000C3141E80002002AF3D100BF2068006808
:1053A00000F0100010280AD100BF002000902068F3
:1053B0000068009020684068009000BF00BFA18D89
:1053C0002046FDF7E6FF02E02046FEF751FB0020F5
:1053D000F8BD01E00020FBE70220F9E72DE9F84FD6
:1053E00004462068006920F44050E16808432168C1
:1053F00008612169A068084361690843E1690843BD
:1054000000902068C06849F20C6188430099084305
:105410002168C8602068406920F44070A169084391
:105420002168486176492068884203D07549206820
:10543000884203D1FCF7E8FF814602E0FCF7D4FF85
:105440008146E069B0F5004F6CD102206168A0FB95
:10545000015003461920A9FB007001462A46384630
:10546000FAF782FF6421B0FBF1F04FEA001A022044
:105470006168A0FB01510B461920A9FB00712A4667
:105480003846FAF771FF834602206168A0FB01509D
:1054900003461920A9FB00712A463846FAF764FF33
:1054A0006421B0FBF1F000EBC00101EB0010ABEBAD
:1054B0008000322101EBC0006421B0FBF1F000F06C
:1054C000F8000AEB400A02206168A0FB0150034685
:1054D0001920A9FB007001462A463846FAF744FF16
:1054E000834602206168A0FB015003461920A9FBF6
:1054F00000712A463846FAF737FF6421B0FBF1F015
:1055000000EBC00101EB0010ABEB8000322101EB9E
:10551000C0006421B0FBF1F000F0070050442168A6
:1055200088606AE004206168A0FB015003461920EE
:10553000A9FB007001462A463846FAF715FF824655
:1055400004206168A0FB015003461920A9FB0070EC
:1055500001462A463846FAF707FF6421B0FBF1F00E
:1055600000EBC00101EB0010AAEB8000322101EB3F
:1055700000106421B0FBF1F000F0F00A0420616833
:10558000A0FB017003461920A9FB00513A462846AA
:10559000FAF7EAFE6421B0FBF1F00AEB001A0420EE
:1055A0006168A0FB01510B461920A9FB00712A4636
:1055B0003846FAF7D9FE834604206168A0FB015003
:1055C00003461920A9FB007001462A463846FAF71F
:1055D000CBFE6421B0FBF1F000EBC00101EB001049
:1055E000ABEB8000322101EB00106421B0FBF1F045
:1055F00000F00F00504421688860BDE8F88F00007B
:105600000010014000140140014691F83D0021289E
:1056100028D18868B0F5805F0BD1086948B90A6A5B
:105620001088C0F308000B685860086A801C086284
:1056300005E00B6A581C086218780B685860C88C23
:10564000401E80B2C88458B90868C06820F0800045
:105650000B68D8600868C06840F040000B68D860EC
:10566000002070470220FCE710B50248FDF794FEC9
:1056700010BD00008405002010B500F007F80248B6
:10568000FDF78AFE10BD0000C805002008B541489E
:105690000068006800F0200060B100BF00200090AA
:1056A0003C480068006800903A48006840680090F4
:1056B00000BF6EE03848006800F01000002868D095
:1056C00000BF002000903348006800680090314817
:1056D00000684068009000BF00BF30480068006864
:1056E00000F4002058BB2D480068006820F001003D
:1056F0002A4909680860294800684068C0F1240008
:105700002749088024202549096848602348006803
:10571000006840F400202149096808601F480068BB
:10572000006840F001001D49096808601C480088B5
:1057300012282ED11B491C4802F002F829E0174814
:105740000068006820F001001449096808601348E7
:1057500000684068C0F124001149088024200F49E6
:10576000096848601148806A20F400200F49886267
:105770000A480068006840F00100084909680860AC
:1057800007480088122804D106490748243001F050
:10579000D7FF08BDC80500200048004010070020C2
:1057A000C0000020584C00206E4C002000600240D9
:1057B00010B50248FDF7F0FD10BD00000C060020FA
:1057C00000BFFEE700B589B040F2FF100390002053
:1057D000059006900820079011484088000A8DF82F
:1057E00004000F4880788DF805000D48C089000A34
:1057F0008DF806000A48807B8DF8070000208DF8A0
:1058000008008DF809008DF80A008DF80B000223BE
:1058100001AA03A90348FBF785FA09B000BD0000FF
:10582000044C0020FC03002010B52DED028B9FEDF1
:10583000442ADFED431A9FED431ADFED430AB1EE30
:10584000080A424801F012FC9FED412ADFED401AA0
:105850009FED3C1ADFED3F0AB3EE0E0A3E4801F021
:1058600005FC9FED3B2ADFED3A1AB7EE001ADFED9B
:10587000350AB0EE080A394801F0F8FB9FED342AEA
:10588000DFED331A9FED2F1ADFED320AB3EE0E0A69
:105890003148343001F0EAFB9FED2D2ADFED2C1A60
:1058A000B7EE001ADFED270AB0EE080A2B483430B5
:1058B00001F0DCFB2A49098808B2FBF7F3F9284814
:1058C000808801B24FF0FF322648B0F90000FEF7A1
:1058D000D7FA254880ED000A2448808801B2244880
:1058E000B0F9000001F0E0F908EE100A1F48008A44
:1058F00001B22048B0F9000001F0D6F908EE900A94
:10590000B8EEC80A1C4880ED000AB8EEE80A1B4849
:1059100080ED000A144890ED000A194880ED000A55
:10592000154890ED000A174880ED000A134890EDE5
:10593000000A154880ED000ABDEC028B10BD000086
:1059400000000045000000000AD7233C3447002037
:105950000060EA466F12833AA04800200C4A0020FB
:10596000B04B0020680100206C010020044C002096
:1059700064010020660100207001002074010020F5
:1059800060010020580100205C0100209FED040A06
:10599000044880ED000A9FED020A80ED010A70477D
:1059A00000000000944B002010B52DED0A8B1F481D
:1059B000B0F9020010F5257F34DB1C48B0F9020075
:1059C000B0F5257F2EDC1949B1F9020002F008FF7D
:1059D00041EC1C0B9FED160B53EC102B02F0A8FDB5
:1059E00041EC1B0B9FED140B53EC102B02F010FF3E
:1059F00041EC190B1248006803F0F2F841EC1A0B65
:105A000053EC192B03F002F841EC180B02F0B6FC32
:105A10000B490860084690ED000AB1EE400A0948BB
:105A200080ED000ABDEC0A8B10BD0000584C002030
:105A30000000000000A08440000000000000E03FE3
:105A4000580100205C01002010B52DED028B22488A
:105A5000808801B24FF0FF322048B0F90000FEF715
:105A60000FFA1F4880ED000A1E48808801B21E48C8
:105A7000B0F9000001F018F908EE100A1948008A80
:105A800001B21A48B0F9000001F00EF908EE900AD0
:105A9000B8EEC80A164880ED000AB8EEE80A1548C4
:105AA00080ED000A124890ED000A0D48D0ED000A82
:105AB00030EE200A104880ED000A0E4890ED000AF2
:105AC0000748D0ED000A30EE200A0C4880ED000AAD
:105AD000BDEC028B10BD0000B04B0020680100201F
